{
  "contractName": "AllowTokens",
  "abi": [
    {
      "inputs": [
        {
          "internalType": "address",
          "name": "_manager",
          "type": "address"
        }
      ],
      "payable": false,
      "stateMutability": "nonpayable",
      "type": "constructor"
    },
    {
      "anonymous": false,
      "inputs": [
        {
          "indexed": true,
          "internalType": "address",
          "name": "_tokenAddress",
          "type": "address"
        }
      ],
      "name": "AllowedTokenAdded",
      "type": "event"
    },
    {
      "anonymous": false,
      "inputs": [
        {
          "indexed": true,
          "internalType": "address",
          "name": "_tokenAddress",
          "type": "address"
        }
      ],
      "name": "AllowedTokenRemoved",
      "type": "event"
    },
    {
      "anonymous": false,
      "inputs": [
        {
          "indexed": false,
          "internalType": "bool",
          "name": "_enabled",
          "type": "bool"
        }
      ],
      "name": "AllowedTokenValidation",
      "type": "event"
    },
    {
      "anonymous": false,
      "inputs": [
        {
          "indexed": false,
          "internalType": "uint256",
          "name": "dailyLimit",
          "type": "uint256"
        }
      ],
      "name": "DailyLimitChanged",
      "type": "event"
    },
    {
      "anonymous": false,
      "inputs": [
        {
          "indexed": false,
          "internalType": "address",
          "name": "_token",
          "type": "address"
        },
        {
          "indexed": false,
          "internalType": "uint256",
          "name": "_feeConst",
          "type": "uint256"
        },
        {
          "indexed": false,
          "internalType": "uint256",
          "name": "_minAmount",
          "type": "uint256"
        }
      ],
      "name": "FeeAndMinPerTokenChanged",
      "type": "event"
    },
    {
      "anonymous": false,
      "inputs": [
        {
          "indexed": false,
          "internalType": "uint256",
          "name": "_maxTokens",
          "type": "uint256"
        }
      ],
      "name": "MaxTokensAllowedChanged",
      "type": "event"
    },
    {
      "anonymous": false,
      "inputs": [
        {
          "indexed": false,
          "internalType": "uint256",
          "name": "_minTokens",
          "type": "uint256"
        }
      ],
      "name": "MinTokensAllowedChanged",
      "type": "event"
    },
    {
      "anonymous": false,
      "inputs": [
        {
          "indexed": true,
          "internalType": "address",
          "name": "previousOwner",
          "type": "address"
        },
        {
          "indexed": true,
          "internalType": "address",
          "name": "newOwner",
          "type": "address"
        }
      ],
      "name": "OwnershipTransferred",
      "type": "event"
    },
    {
      "constant": true,
      "inputs": [
        {
          "internalType": "address",
          "name": "",
          "type": "address"
        }
      ],
      "name": "allowedTokens",
      "outputs": [
        {
          "internalType": "bool",
          "name": "",
          "type": "bool"
        }
      ],
      "payable": false,
      "stateMutability": "view",
      "type": "function"
    },
    {
      "constant": true,
      "inputs": [],
      "name": "dailyLimit",
      "outputs": [
        {
          "internalType": "uint256",
          "name": "",
          "type": "uint256"
        }
      ],
      "payable": false,
      "stateMutability": "view",
      "type": "function"
    },
    {
      "constant": true,
      "inputs": [
        {
          "internalType": "address",
          "name": "",
          "type": "address"
        }
      ],
      "name": "feeConstToken",
      "outputs": [
        {
          "internalType": "uint256",
          "name": "",
          "type": "uint256"
        }
      ],
      "payable": false,
      "stateMutability": "view",
      "type": "function"
    },
    {
      "constant": true,
      "inputs": [],
      "name": "isOwner",
      "outputs": [
        {
          "internalType": "bool",
          "name": "",
          "type": "bool"
        }
      ],
      "payable": false,
      "stateMutability": "view",
      "type": "function"
    },
    {
      "constant": true,
      "inputs": [
        {
          "internalType": "address",
          "name": "",
          "type": "address"
        }
      ],
      "name": "minAllowedToken",
      "outputs": [
        {
          "internalType": "uint256",
          "name": "",
          "type": "uint256"
        }
      ],
      "payable": false,
      "stateMutability": "view",
      "type": "function"
    },
    {
      "constant": true,
      "inputs": [],
      "name": "owner",
      "outputs": [
        {
          "internalType": "address",
          "name": "",
          "type": "address"
        }
      ],
      "payable": false,
      "stateMutability": "view",
      "type": "function"
    },
    {
      "constant": false,
      "inputs": [],
      "name": "renounceOwnership",
      "outputs": [],
      "payable": false,
      "stateMutability": "nonpayable",
      "type": "function"
    },
    {
      "constant": false,
      "inputs": [
        {
          "internalType": "address",
          "name": "newOwner",
          "type": "address"
        }
      ],
      "name": "transferOwnership",
      "outputs": [],
      "payable": false,
      "stateMutability": "nonpayable",
      "type": "function"
    },
    {
      "constant": true,
      "inputs": [],
      "name": "isValidatingAllowedTokens",
      "outputs": [
        {
          "internalType": "bool",
          "name": "",
          "type": "bool"
        }
      ],
      "payable": false,
      "stateMutability": "view",
      "type": "function"
    },
    {
      "constant": true,
      "inputs": [],
      "name": "getMaxTokensAllowed",
      "outputs": [
        {
          "internalType": "uint256",
          "name": "",
          "type": "uint256"
        }
      ],
      "payable": false,
      "stateMutability": "view",
      "type": "function"
    },
    {
      "constant": true,
      "inputs": [],
      "name": "getMinTokensAllowed",
      "outputs": [
        {
          "internalType": "uint256",
          "name": "",
          "type": "uint256"
        }
      ],
      "payable": false,
      "stateMutability": "view",
      "type": "function"
    },
    {
      "constant": true,
      "inputs": [
        {
          "internalType": "address",
          "name": "token",
          "type": "address"
        }
      ],
      "name": "isTokenAllowed",
      "outputs": [
        {
          "internalType": "bool",
          "name": "",
          "type": "bool"
        }
      ],
      "payable": false,
      "stateMutability": "view",
      "type": "function"
    },
    {
      "constant": false,
      "inputs": [
        {
          "internalType": "address",
          "name": "token",
          "type": "address"
        }
      ],
      "name": "addAllowedToken",
      "outputs": [],
      "payable": false,
      "stateMutability": "nonpayable",
      "type": "function"
    },
    {
      "constant": false,
      "inputs": [
        {
          "internalType": "address",
          "name": "token",
          "type": "address"
        }
      ],
      "name": "removeAllowedToken",
      "outputs": [],
      "payable": false,
      "stateMutability": "nonpayable",
      "type": "function"
    },
    {
      "constant": false,
      "inputs": [],
      "name": "enableAllowedTokensValidation",
      "outputs": [],
      "payable": false,
      "stateMutability": "nonpayable",
      "type": "function"
    },
    {
      "constant": false,
      "inputs": [],
      "name": "disableAllowedTokensValidation",
      "outputs": [],
      "payable": false,
      "stateMutability": "nonpayable",
      "type": "function"
    },
    {
      "constant": false,
      "inputs": [
        {
          "internalType": "uint256",
          "name": "maxTokens",
          "type": "uint256"
        }
      ],
      "name": "setMaxTokensAllowed",
      "outputs": [],
      "payable": false,
      "stateMutability": "nonpayable",
      "type": "function"
    },
    {
      "constant": false,
      "inputs": [
        {
          "internalType": "uint256",
          "name": "minTokens",
          "type": "uint256"
        }
      ],
      "name": "setMinTokensAllowed",
      "outputs": [],
      "payable": false,
      "stateMutability": "nonpayable",
      "type": "function"
    },
    {
      "constant": false,
      "inputs": [
        {
          "internalType": "uint256",
          "name": "_dailyLimit",
          "type": "uint256"
        }
      ],
      "name": "changeDailyLimit",
      "outputs": [],
      "payable": false,
      "stateMutability": "nonpayable",
      "type": "function"
    },
    {
      "constant": true,
      "inputs": [
        {
          "internalType": "address",
          "name": "tokenToUse",
          "type": "address"
        },
        {
          "internalType": "uint256",
          "name": "amount",
          "type": "uint256"
        },
        {
          "internalType": "uint256",
          "name": "spentToday",
          "type": "uint256"
        },
        {
          "internalType": "bool",
          "name": "isSideToken",
          "type": "bool"
        }
      ],
      "name": "isValidTokenTransfer",
      "outputs": [
        {
          "internalType": "bool",
          "name": "",
          "type": "bool"
        }
      ],
      "payable": false,
      "stateMutability": "view",
      "type": "function"
    },
    {
      "constant": true,
      "inputs": [
        {
          "internalType": "uint256",
          "name": "spentToday",
          "type": "uint256"
        }
      ],
      "name": "calcMaxWithdraw",
      "outputs": [
        {
          "internalType": "uint256",
          "name": "",
          "type": "uint256"
        }
      ],
      "payable": false,
      "stateMutability": "view",
      "type": "function"
    },
    {
      "constant": true,
      "inputs": [
        {
          "internalType": "address",
          "name": "token",
          "type": "address"
        }
      ],
      "name": "getMinPerToken",
      "outputs": [
        {
          "internalType": "uint256",
          "name": "",
          "type": "uint256"
        }
      ],
      "payable": false,
      "stateMutability": "view",
      "type": "function"
    },
    {
      "constant": true,
      "inputs": [
        {
          "internalType": "address",
          "name": "token",
          "type": "address"
        }
      ],
      "name": "getFeePerToken",
      "outputs": [
        {
          "internalType": "uint256",
          "name": "",
          "type": "uint256"
        }
      ],
      "payable": false,
      "stateMutability": "view",
      "type": "function"
    },
    {
      "constant": false,
      "inputs": [
        {
          "internalType": "address",
          "name": "token",
          "type": "address"
        },
        {
          "internalType": "uint256",
          "name": "_feeConst",
          "type": "uint256"
        },
        {
          "internalType": "uint256",
          "name": "_minAmount",
          "type": "uint256"
        }
      ],
      "name": "setFeeAndMinPerToken",
      "outputs": [],
      "payable": false,
      "stateMutability": "nonpayable",
      "type": "function"
    }
  ],
  "bytecode": "0x60806040523480156200001157600080fd5b506040516200131a3803806200131a833981810160405260208110156200003757600080fd5b50516200004c6001600160e01b03620000d316565b600080546001600160a01b0319166001600160a01b0392831617808255604051921691600080516020620012fa833981519152908290a362000097816001600160e01b03620000d716565b506002805460ff1916600117905569152d02c7e14af6800000600355670de0b6b3a764000060045569d3c21bcecceda100000060055562000213565b3390565b620000ea6001600160e01b036200015316565b6200013c576040805162461bcd60e51b815260206004820181905260248201527f4f776e61626c653a2063616c6c6572206973206e6f7420746865206f776e6572604482015290519081900360640190fd5b62000150816001600160e01b036200018216565b50565b600080546001600160a01b0316620001736001600160e01b03620000d316565b6001600160a01b031614905090565b6001600160a01b038116620001c95760405162461bcd60e51b8152600401808060200182810382526026815260200180620012d46026913960400191505060405180910390fd5b600080546040516001600160a01b0380851693921691600080516020620012fa83398151915291a3600080546001600160a01b0319166001600160a01b0392909216919091179055565b6110b180620002236000396000f3fe608060405234801561001057600080fd5b50600436106101585760003560e01c80638f32d59b116100c3578063cf66d5c51161007c578063cf66d5c51461036b578063e2522fe314610373578063e7374457146103a5578063e744092e146103ad578063f2fde38b146103d3578063f9eaee0d146103f957610158565b80638f32d59b146102a457806390469a9d146102c0578063965493ed146102e65780639a4819bc1461030c578063b2bb1a3a14610346578063cea086211461034e57610158565b8063680dc64011610115578063680dc64014610219578063715018a61461023657806377977f891461023e57806389827ed91461025b5780638aed8df5146102635780638da5cb5b1461028057610158565b806307ff40b21461015d5780631da0dff1146101955780633bb07baf146101bb5780634178617f146101e15780636066af8a1461020957806367eeba0c14610211575b600080fd5b6101836004803603602081101561017357600080fd5b50356001600160a01b031661041f565b60408051918252519081900360200190f35b610183600480360360208110156101ab57600080fd5b50356001600160a01b0316610431565b610183600480360360208110156101d157600080fd5b50356001600160a01b0316610450565b610207600480360360208110156101f757600080fd5b50356001600160a01b0316610462565b005b61020761053d565b6101836105ce565b6101836004803603602081101561022f57600080fd5b50356105d4565b610207610604565b6102076004803603602081101561025457600080fd5b5035610695565b610207610758565b6102076004803603602081101561027957600080fd5b50356107df565b6102886108a2565b604080516001600160a01b039092168252519081900360200190f35b6102ac6108b1565b604080519115158252519081900360200190f35b610207600480360360208110156102d657600080fd5b50356001600160a01b03166108d5565b610183600480360360208110156102fc57600080fd5b50356001600160a01b03166109a9565b6102ac6004803603608081101561032257600080fd5b506001600160a01b03813516906020810135906040810135906060013515156109c4565b6102ac610a72565b6102076004803603602081101561036457600080fd5b5035610a7b565b610183610b3e565b6102076004803603606081101561038957600080fd5b506001600160a01b038135169060208101359060400135610b44565b610183610cc9565b6102ac600480360360208110156103c357600080fd5b50356001600160a01b0316610ccf565b610207600480360360208110156103e957600080fd5b50356001600160a01b0316610ce4565b6102ac6004803603602081101561040f57600080fd5b50356001600160a01b0316610d37565b60076020526000908152604090205481565b6001600160a01b0381166000908152600760205260409020545b919050565b60066020526000908152604090205481565b61046a6108b1565b6104a9576040805162461bcd60e51b81526020600482018190526024820152600080516020610fc5833981519152604482015290519081900360640190fd5b6104b281610da5565b156104ee5760405162461bcd60e51b8152600401808060200182810382526032815260200180610f516032913960400191505060405180910390fd5b6001600160a01b0381166000818152600160208190526040808320805460ff1916909217909155517ff849d00bc67e9e4bf072df9680646c59b8c5380160834c2e1d4896ce5ec81f759190a250565b6105456108b1565b610584576040805162461bcd60e51b81526020600482018190526024820152600080516020610fc5833981519152604482015290519081900360640190fd5b6002805460ff1916600117908190556040805160ff9290921615158252517f56c494debe2cb09344893898449050dd58a4432e66f95108d729ad21ccfd19e79181900360200190a1565b60055481565b600554600090828103908311156105ef57600091505061044b565b6003548111156105fe57506003545b92915050565b61060c6108b1565b61064b576040805162461bcd60e51b81526020600482018190526024820152600080516020610fc5833981519152604482015290519081900360640190fd5b600080546040516001600160a01b03909116907f8be0079c531659141344cd1fd0a4f28419497f9722a3daafe3b4186f6b6457e0908390a3600080546001600160a01b0319169055565b61069d6108b1565b6106dc576040805162461bcd60e51b81526020600482018190526024820152600080516020610fc5833981519152604482015290519081900360640190fd5b80600354101561071d5760405162461bcd60e51b8152600401808060200182810382526042815260200180610f836042913960600191505060405180910390fd5b60048190556040805182815290517f12a646d3bbffa271e4444ba46156444c17a66ed892618d27ddfda6189622ae449181900360200190a150565b6107606108b1565b61079f576040805162461bcd60e51b81526020600482018190526024820152600080516020610fc5833981519152604482015290519081900360640190fd5b6002805460ff19169055604080516000815290517f56c494debe2cb09344893898449050dd58a4432e66f95108d729ad21ccfd19e79181900360200190a1565b6107e76108b1565b610826576040805162461bcd60e51b81526020600482018190526024820152600080516020610fc5833981519152604482015290519081900360640190fd5b6004548110156108675760405162461bcd60e51b81526004018080602001828103825260418152602001806110096041913960600191505060405180910390fd5b60038190556040805182815290517fd71e2baa82a5d055fc51d591360ec316a059192a353993a9cec6a85e88d4e1da9181900360200190a150565b6000546001600160a01b031690565b600080546001600160a01b03166108c6610e0d565b6001600160a01b031614905090565b6108dd6108b1565b61091c576040805162461bcd60e51b81526020600482018190526024820152600080516020610fc5833981519152604482015290519081900360640190fd5b61092581610da5565b6109605760405162461bcd60e51b815260040180806020018281038252603381526020018061104a6033913960400191505060405180910390fd5b6001600160a01b038116600081815260016020526040808220805460ff19169055517fbf996b4fd74f0c7159bb017b1db415b0d9a6f13129f46d0b93309d170b78df319190a250565b6001600160a01b031660009081526006602052604090205490565b60006003548411156109d857506000610a6a565b6001600160a01b038516600090815260066020526040902054841015610a0057506000610a6a565b6005548484011180610a13575082848401105b15610a2057506000610a6a565b81158015610a345750610a3285610d37565b155b15610a4157506000610a6a565b6001600160a01b038516600090815260076020526040902054610a6657506000610a6a565b5060015b949350505050565b60025460ff1690565b610a836108b1565b610ac2576040805162461bcd60e51b81526020600482018190526024820152600080516020610fc5833981519152604482015290519081900360640190fd5b600354811015610b035760405162461bcd60e51b8152600401808060200182810382526042815260200180610eb26042913960600191505060405180910390fd5b60058190556040805182815290517fad4123ae17c414d9c6d2fec478b402e6b01856cc250fd01fbfd252fda0089d3c9181900360200190a150565b60035490565b610b4c6108b1565b610b8b576040805162461bcd60e51b81526020600482018190526024820152600080516020610fc5833981519152604482015290519081900360640190fd5b600354811115610bcc5760405162461bcd60e51b8152600401808060200182810382526042815260200180610f836042913960600191505060405180910390fd5b81811015610c0b5760405162461bcd60e51b8152600401808060200182810382526037815260200180610f1a6037913960400191505060405180910390fd5b60008211610c60576040805162461bcd60e51b815260206004820152601d60248201527f416c6c6f77546f6b656e733a204665652053686f756c642062653e2030000000604482015290519081900360640190fd5b6001600160a01b0383166000818152600760209081526040808320869055600682529182902084905581519283528201849052818101839052517f616446306dc04614baf9ec7c3f89cd2b5b5f890290617b8e298d7d1d31968e7f9181900360600190a1505050565b60045490565b60016020526000908152604090205460ff1681565b610cec6108b1565b610d2b576040805162461bcd60e51b81526020600482018190526024820152600080516020610fc5833981519152604482015290519081900360640190fd5b610d3481610e11565b50565b6000816001600160a01b038116610d7f5760405162461bcd60e51b8152600401808060200182810382526024815260200180610fe56024913960400191505060405180910390fd5b60025460ff1615610d9a57610d9383610da5565b9150610d9f565b600191505b50919050565b6000816001600160a01b038116610ded5760405162461bcd60e51b8152600401808060200182810382526024815260200180610fe56024913960400191505060405180910390fd5b50506001600160a01b031660009081526001602052604090205460ff1690565b3390565b6001600160a01b038116610e565760405162461bcd60e51b8152600401808060200182810382526026815260200180610ef46026913960400191505060405180910390fd5b600080546040516001600160a01b03808516939216917f8be0079c531659141344cd1fd0a4f28419497f9722a3daafe3b4186f6b6457e091a3600080546001600160a01b0319166001600160a01b039290921691909117905556fe416c6c6f77546f6b656e733a204461696c79204c696d69742073686f756c6420626520657175616c206f7220626967676572207468616e204d617820546f6b656e734f776e61626c653a206e6577206f776e657220697320746865207a65726f2061646472657373416c6c6f77546f6b656e733a204d696e20546f6b656e732073686f756c6420626520657175616c20626967676572207468616e20666565416c6c6f77546f6b656e733a20546f6b656e20616c72656164792065786973747320696e20616c6c6f776564546f6b656e73416c6c6f77546f6b656e733a204d696e20546f6b656e732073686f756c6420626520657175616c206f7220736d616c6c6572207468616e204d617820546f6b656e734f776e61626c653a2063616c6c6572206973206e6f7420746865206f776e6572416c6c6f77546f6b656e733a20416464726573732063616e6e6f7420626520656d707479416c6c6f77546f6b656e733a204d617820546f6b656e732073686f756c6420626520657175616c206f7220626967676572207468616e204d696e20546f6b656e73416c6c6f77546f6b656e733a20546f6b656e20646f6573206e6f7420657869732020696e20616c6c6f776564546f6b656e7374a265627a7a7231582045e77d9db18cefd678249f65a46cdeb50624aa41b01e86411bffc3f38517bd0164736f6c634300051100324f776e61626c653a206e6577206f776e657220697320746865207a65726f20616464726573738be0079c531659141344cd1fd0a4f28419497f9722a3daafe3b4186f6b6457e0",
  "source": "pragma solidity >=0.4.21 <0.6.0;\n\nimport \"./zeppelin/math/SafeMath.sol\";\nimport \"./zeppelin/ownership/Ownable.sol\";\nimport \"./IAllowTokens.sol\";\n\ncontract AllowTokens is IAllowTokens, Ownable {\n    using SafeMath for uint256;\n\n    address constant private NULL_ADDRESS = address(0);\n\n    mapping (address => bool) public allowedTokens;\n    bool private validateAllowedTokens;\n    uint256 private maxTokensAllowed;\n    uint256 private minTokensAllowed;\n    uint256 public dailyLimit;\n\n// Bridge v3 upgrade variables\n// minimum amount allowed per token\n    mapping (address => uint) public minAllowedToken;\n// constant fee per token\n    mapping (address => uint) public feeConstToken;\n\n    event AllowedTokenAdded(address indexed _tokenAddress);\n    event AllowedTokenRemoved(address indexed _tokenAddress);\n    event AllowedTokenValidation(bool _enabled);\n    event MaxTokensAllowedChanged(uint256 _maxTokens);\n    event MinTokensAllowedChanged(uint256 _minTokens);\n    event DailyLimitChanged(uint256 dailyLimit);\n\n// Bridge v3 upgrade events\n    event FeeAndMinPerTokenChanged(address _token, uint256 _feeConst, uint256 _minAmount);\n\n    modifier notNull(address _address) {\n        require(_address != NULL_ADDRESS, \"AllowTokens: Address cannot be empty\");\n        _;\n    }\n\n    constructor(address _manager) public  {\n        transferOwnership(_manager);\n        validateAllowedTokens = true;\n        maxTokensAllowed = 100000 ether;\n        minTokensAllowed = 1 ether;\n        dailyLimit = 1000000 ether;\n    }\n\n    function isValidatingAllowedTokens() external view returns(bool) {\n        return validateAllowedTokens;\n    }\n\n    function getMaxTokensAllowed() external view returns(uint256) {\n        return maxTokensAllowed;\n    }\n\n    function getMinTokensAllowed() external view returns(uint256) {\n        return minTokensAllowed;\n    }\n\n    function allowedTokenExist(address token) private view notNull(token) returns (bool) {\n        return allowedTokens[token];\n    }\n\n    function isTokenAllowed(address token) public view notNull(token) returns (bool) {\n        if (validateAllowedTokens) {\n            return allowedTokenExist(token);\n        }\n        return true;\n    }\n\n    function addAllowedToken(address token) external onlyOwner {\n        require(!allowedTokenExist(token), \"AllowTokens: Token already exists in allowedTokens\");\n        allowedTokens[token] = true;\n        emit AllowedTokenAdded(token);\n    }\n\n    function removeAllowedToken(address token) external onlyOwner {\n        require(allowedTokenExist(token), \"AllowTokens: Token does not exis  in allowedTokenst\");\n        allowedTokens[token] = false;\n        emit AllowedTokenRemoved(token);\n    }\n\n    function enableAllowedTokensValidation() external onlyOwner {\n        validateAllowedTokens = true;\n        emit AllowedTokenValidation(validateAllowedTokens);\n    }\n\n    function disableAllowedTokensValidation() external onlyOwner {\n        // Before disabling Allowed Tokens Validations some kind of contract validation system\n        // should be implemented on the Bridge for the methods receiveTokens, tokenFallback and tokensReceived\n        validateAllowedTokens = false;\n        emit AllowedTokenValidation(validateAllowedTokens);\n    }\n\n    function setMaxTokensAllowed(uint256 maxTokens) external onlyOwner {\n        require(maxTokens >= minTokensAllowed, \"AllowTokens: Max Tokens should be equal or bigger than Min Tokens\");\n        maxTokensAllowed = maxTokens;\n        emit MaxTokensAllowedChanged(maxTokensAllowed);\n    }\n\n    function setMinTokensAllowed(uint256 minTokens) external onlyOwner {\n        require(maxTokensAllowed >= minTokens, \"AllowTokens: Min Tokens should be equal or smaller than Max Tokens\");\n        minTokensAllowed = minTokens;\n        emit MinTokensAllowedChanged(minTokensAllowed);\n    }\n\n    function changeDailyLimit(uint256 _dailyLimit) external onlyOwner {\n        require(_dailyLimit >= maxTokensAllowed, \"AllowTokens: Daily Limit should be equal or bigger than Max Tokens\");\n        dailyLimit = _dailyLimit;\n        emit DailyLimitChanged(_dailyLimit);\n    }\n\n    // solium-disable-next-line max-len\n    function isValidTokenTransfer(address tokenToUse, uint amount, uint spentToday, bool isSideToken) external view returns (bool) {\n        if(amount > maxTokensAllowed)\n            return false;\n        if(amount < minAllowedToken[tokenToUse])\n            return false;\n        if (spentToday + amount > dailyLimit || spentToday + amount < spentToday)\n           return false;\n        if(!isSideToken && !isTokenAllowed(tokenToUse))\n            return false;\n        if(feeConstToken[tokenToUse] == 0 )\n            return false;\n        return true;\n    }\n\n    function calcMaxWithdraw(uint spentToday) external view returns (uint) {\n        uint maxWithrow = dailyLimit - spentToday;\n        if (dailyLimit < spentToday)\n            return 0;\n        if(maxWithrow > maxTokensAllowed)\n            maxWithrow = maxTokensAllowed;\n        return maxWithrow;\n    }\n\n// Bridge v3 upgrade functions\n    function getMinPerToken(address token) external view returns(uint256) {\n        return minAllowedToken[token];\n    }\n\n    function getFeePerToken(address token) public view returns(uint256) {\n        return feeConstToken[token];\n    }\n\n   //function setMinPerToken(address token, uint256 minAmount) external onlyOwner {\n   //     require(minAmount <= maxTokensAllowed, \"AllowTokens: Min Tokens should be equal or smaller than Max Tokens\");\n   //     require(minAmount >= feeConstToken[token], \"AllowTokens: Min Tokens should be equal bigger than fee\");\n   //     minAllowedToken[token] = minAmount;\n   //    emit MinPerTokenChanged(token, minAmount);\n   // }\n\n    //function setFeePerToken(address token, uint256 feeConst) external onlyOwner {\n    //    require(feeConst >= minAllowedToken[token], \"AllowTokens: Fee per Token should be equal or bigger than Min allowed\");\n    //    feeConstToken[token] = feeConst;\n    //    emit FeePerTokenChanged(token, feeConst);\n    //}\n\n    function setFeeAndMinPerToken(address token, uint256 _feeConst, uint256 _minAmount) external onlyOwner {\n        require(_minAmount <= maxTokensAllowed, \"AllowTokens: Min Tokens should be equal or smaller than Max Tokens\");\n        require(_minAmount >= _feeConst, \"AllowTokens: Min Tokens should be equal bigger than fee\");\n        require(_feeConst > 0, \"AllowTokens: Fee Should be> 0\");\n        feeConstToken[token] = _feeConst;\n        minAllowedToken[token] = _minAmount;\n        emit FeeAndMinPerTokenChanged(token, _feeConst, _minAmount);\n    }\n\n}\n",
  "sourcePath": "/Users/pooh/sovryn/deploy_bridge/MAIN-Restore-RSK-ETH/Bridge-SC/sovryn-token-bridge/bridge/contracts/AllowTokens.sol",
  "compiler": {
    "name": "solc",
    "version": "0.5.17+commit.d19bba13.Emscripten.clang"
  },
  "schemaVersion": "3.3.4",
  "updatedAt": "2021-05-23T04:34:16.907Z",
  "networkType": "ethereum",
  "devdoc": {
    "methods": {
      "isOwner()": {
        "details": "Returns true if the caller is the current owner."
      },
      "owner()": {
        "details": "Returns the address of the current owner."
      },
      "renounceOwnership()": {
        "details": "Leaves the contract without owner. It will not be possible to call `onlyOwner` functions anymore. Can only be called by the current owner.     * NOTE: Renouncing ownership will leave the contract without an owner, thereby removing any functionality that is only available to the owner."
      },
      "transferOwnership(address)": {
        "details": "Transfers ownership of the contract to a new account (`newOwner`). Can only be called by the current owner."
      }
    }
  },
  "userdoc": {
    "methods": {}
  }
}