{
  "contractName": "AllowTokens",
  "abi": [
    {
      "inputs": [
        {
          "internalType": "address",
          "name": "_manager",
          "type": "address"
        }
      ],
      "payable": false,
      "stateMutability": "nonpayable",
      "type": "constructor"
    },
    {
      "anonymous": false,
      "inputs": [
        {
          "indexed": true,
          "internalType": "address",
          "name": "_tokenAddress",
          "type": "address"
        }
      ],
      "name": "AllowedTokenAdded",
      "type": "event"
    },
    {
      "anonymous": false,
      "inputs": [
        {
          "indexed": true,
          "internalType": "address",
          "name": "_tokenAddress",
          "type": "address"
        }
      ],
      "name": "AllowedTokenRemoved",
      "type": "event"
    },
    {
      "anonymous": false,
      "inputs": [
        {
          "indexed": false,
          "internalType": "bool",
          "name": "_enabled",
          "type": "bool"
        }
      ],
      "name": "AllowedTokenValidation",
      "type": "event"
    },
    {
      "anonymous": false,
      "inputs": [
        {
          "indexed": false,
          "internalType": "uint256",
          "name": "dailyLimit",
          "type": "uint256"
        }
      ],
      "name": "DailyLimitChanged",
      "type": "event"
    },
    {
      "anonymous": false,
      "inputs": [
        {
          "indexed": false,
          "internalType": "address",
          "name": "_token",
          "type": "address"
        },
        {
          "indexed": false,
          "internalType": "uint256",
          "name": "_feeConst",
          "type": "uint256"
        }
      ],
      "name": "FeePerTokenChanged",
      "type": "event"
    },
    {
      "anonymous": false,
      "inputs": [
        {
          "indexed": false,
          "internalType": "uint256",
          "name": "_maxTokens",
          "type": "uint256"
        }
      ],
      "name": "MaxTokensAllowedChanged",
      "type": "event"
    },
    {
      "anonymous": false,
      "inputs": [
        {
          "indexed": false,
          "internalType": "address",
          "name": "_token",
          "type": "address"
        },
        {
          "indexed": false,
          "internalType": "uint256",
          "name": "_minAmount",
          "type": "uint256"
        }
      ],
      "name": "MinPerTokenChanged",
      "type": "event"
    },
    {
      "anonymous": false,
      "inputs": [
        {
          "indexed": false,
          "internalType": "uint256",
          "name": "_minTokens",
          "type": "uint256"
        }
      ],
      "name": "MinTokensAllowedChanged",
      "type": "event"
    },
    {
      "anonymous": false,
      "inputs": [
        {
          "indexed": true,
          "internalType": "address",
          "name": "previousOwner",
          "type": "address"
        },
        {
          "indexed": true,
          "internalType": "address",
          "name": "newOwner",
          "type": "address"
        }
      ],
      "name": "OwnershipTransferred",
      "type": "event"
    },
    {
      "constant": true,
      "inputs": [
        {
          "internalType": "address",
          "name": "",
          "type": "address"
        }
      ],
      "name": "allowedTokens",
      "outputs": [
        {
          "internalType": "bool",
          "name": "",
          "type": "bool"
        }
      ],
      "payable": false,
      "stateMutability": "view",
      "type": "function"
    },
    {
      "constant": true,
      "inputs": [],
      "name": "dailyLimit",
      "outputs": [
        {
          "internalType": "uint256",
          "name": "",
          "type": "uint256"
        }
      ],
      "payable": false,
      "stateMutability": "view",
      "type": "function"
    },
    {
      "constant": true,
      "inputs": [
        {
          "internalType": "address",
          "name": "",
          "type": "address"
        }
      ],
      "name": "feeConstToken",
      "outputs": [
        {
          "internalType": "uint256",
          "name": "",
          "type": "uint256"
        }
      ],
      "payable": false,
      "stateMutability": "view",
      "type": "function"
    },
    {
      "constant": true,
      "inputs": [],
      "name": "isOwner",
      "outputs": [
        {
          "internalType": "bool",
          "name": "",
          "type": "bool"
        }
      ],
      "payable": false,
      "stateMutability": "view",
      "type": "function"
    },
    {
      "constant": true,
      "inputs": [
        {
          "internalType": "address",
          "name": "",
          "type": "address"
        }
      ],
      "name": "minAllowedToken",
      "outputs": [
        {
          "internalType": "uint256",
          "name": "",
          "type": "uint256"
        }
      ],
      "payable": false,
      "stateMutability": "view",
      "type": "function"
    },
    {
      "constant": true,
      "inputs": [],
      "name": "owner",
      "outputs": [
        {
          "internalType": "address",
          "name": "",
          "type": "address"
        }
      ],
      "payable": false,
      "stateMutability": "view",
      "type": "function"
    },
    {
      "constant": false,
      "inputs": [],
      "name": "renounceOwnership",
      "outputs": [],
      "payable": false,
      "stateMutability": "nonpayable",
      "type": "function"
    },
    {
      "constant": false,
      "inputs": [
        {
          "internalType": "address",
          "name": "newOwner",
          "type": "address"
        }
      ],
      "name": "transferOwnership",
      "outputs": [],
      "payable": false,
      "stateMutability": "nonpayable",
      "type": "function"
    },
    {
      "constant": true,
      "inputs": [],
      "name": "isValidatingAllowedTokens",
      "outputs": [
        {
          "internalType": "bool",
          "name": "",
          "type": "bool"
        }
      ],
      "payable": false,
      "stateMutability": "view",
      "type": "function"
    },
    {
      "constant": true,
      "inputs": [],
      "name": "getMaxTokensAllowed",
      "outputs": [
        {
          "internalType": "uint256",
          "name": "",
          "type": "uint256"
        }
      ],
      "payable": false,
      "stateMutability": "view",
      "type": "function"
    },
    {
      "constant": true,
      "inputs": [],
      "name": "getMinTokensAllowed",
      "outputs": [
        {
          "internalType": "uint256",
          "name": "",
          "type": "uint256"
        }
      ],
      "payable": false,
      "stateMutability": "view",
      "type": "function"
    },
    {
      "constant": true,
      "inputs": [
        {
          "internalType": "address",
          "name": "token",
          "type": "address"
        }
      ],
      "name": "isTokenAllowed",
      "outputs": [
        {
          "internalType": "bool",
          "name": "",
          "type": "bool"
        }
      ],
      "payable": false,
      "stateMutability": "view",
      "type": "function"
    },
    {
      "constant": false,
      "inputs": [
        {
          "internalType": "address",
          "name": "token",
          "type": "address"
        }
      ],
      "name": "addAllowedToken",
      "outputs": [],
      "payable": false,
      "stateMutability": "nonpayable",
      "type": "function"
    },
    {
      "constant": false,
      "inputs": [
        {
          "internalType": "address",
          "name": "token",
          "type": "address"
        }
      ],
      "name": "removeAllowedToken",
      "outputs": [],
      "payable": false,
      "stateMutability": "nonpayable",
      "type": "function"
    },
    {
      "constant": false,
      "inputs": [],
      "name": "enableAllowedTokensValidation",
      "outputs": [],
      "payable": false,
      "stateMutability": "nonpayable",
      "type": "function"
    },
    {
      "constant": false,
      "inputs": [],
      "name": "disableAllowedTokensValidation",
      "outputs": [],
      "payable": false,
      "stateMutability": "nonpayable",
      "type": "function"
    },
    {
      "constant": false,
      "inputs": [
        {
          "internalType": "uint256",
          "name": "maxTokens",
          "type": "uint256"
        }
      ],
      "name": "setMaxTokensAllowed",
      "outputs": [],
      "payable": false,
      "stateMutability": "nonpayable",
      "type": "function"
    },
    {
      "constant": false,
      "inputs": [
        {
          "internalType": "uint256",
          "name": "minTokens",
          "type": "uint256"
        }
      ],
      "name": "setMinTokensAllowed",
      "outputs": [],
      "payable": false,
      "stateMutability": "nonpayable",
      "type": "function"
    },
    {
      "constant": false,
      "inputs": [
        {
          "internalType": "uint256",
          "name": "_dailyLimit",
          "type": "uint256"
        }
      ],
      "name": "changeDailyLimit",
      "outputs": [],
      "payable": false,
      "stateMutability": "nonpayable",
      "type": "function"
    },
    {
      "constant": true,
      "inputs": [
        {
          "internalType": "address",
          "name": "tokenToUse",
          "type": "address"
        },
        {
          "internalType": "uint256",
          "name": "amount",
          "type": "uint256"
        },
        {
          "internalType": "uint256",
          "name": "spentToday",
          "type": "uint256"
        },
        {
          "internalType": "bool",
          "name": "isSideToken",
          "type": "bool"
        }
      ],
      "name": "isValidTokenTransfer",
      "outputs": [
        {
          "internalType": "bool",
          "name": "",
          "type": "bool"
        }
      ],
      "payable": false,
      "stateMutability": "view",
      "type": "function"
    },
    {
      "constant": true,
      "inputs": [
        {
          "internalType": "uint256",
          "name": "spentToday",
          "type": "uint256"
        }
      ],
      "name": "calcMaxWithdraw",
      "outputs": [
        {
          "internalType": "uint256",
          "name": "",
          "type": "uint256"
        }
      ],
      "payable": false,
      "stateMutability": "view",
      "type": "function"
    },
    {
      "constant": true,
      "inputs": [
        {
          "internalType": "address",
          "name": "token",
          "type": "address"
        }
      ],
      "name": "getMinPerToken",
      "outputs": [
        {
          "internalType": "uint256",
          "name": "",
          "type": "uint256"
        }
      ],
      "payable": false,
      "stateMutability": "view",
      "type": "function"
    },
    {
      "constant": true,
      "inputs": [
        {
          "internalType": "address",
          "name": "token",
          "type": "address"
        }
      ],
      "name": "getFeePerToken",
      "outputs": [
        {
          "internalType": "uint256",
          "name": "",
          "type": "uint256"
        }
      ],
      "payable": false,
      "stateMutability": "view",
      "type": "function"
    },
    {
      "constant": false,
      "inputs": [
        {
          "internalType": "address",
          "name": "token",
          "type": "address"
        },
        {
          "internalType": "uint256",
          "name": "minAmount",
          "type": "uint256"
        }
      ],
      "name": "setMinPerToken",
      "outputs": [],
      "payable": false,
      "stateMutability": "nonpayable",
      "type": "function"
    },
    {
      "constant": false,
      "inputs": [
        {
          "internalType": "address",
          "name": "token",
          "type": "address"
        },
        {
          "internalType": "uint256",
          "name": "feeConst",
          "type": "uint256"
        }
      ],
      "name": "setFeePerToken",
      "outputs": [],
      "payable": false,
      "stateMutability": "nonpayable",
      "type": "function"
    }
  ],
  "bytecode": "0x60806040523480156200001157600080fd5b5060405162001fe738038062001fe7833981810160405260208110156200003757600080fd5b8101908080519060200190929190505050620000586200017760201b60201c565b6000806101000a81548173ffffffffffffffffffffffffffffffffffffffff021916908373ffffffffffffffffffffffffffffffffffffffff1602179055506000809054906101000a900473ffffffffffffffffffffffffffffffffffffffff1673ffffffffffffffffffffffffffffffffffffffff16600073ffffffffffffffffffffffffffffffffffffffff167f8be0079c531659141344cd1fd0a4f28419497f9722a3daafe3b4186f6b6457e060405160405180910390a362000124816200017f60201b60201c565b6001600260006101000a81548160ff02191690831515021790555069021e19e0c9bab2400000600381905550670de0b6b3a764000060048190555069152d02c7e14af680000060058190555050620003c2565b600033905090565b6200018f6200021660201b60201c565b62000202576040517f08c379a00000000000000000000000000000000000000000000000000000000081526004018080602001828103825260208152602001807f4f776e61626c653a2063616c6c6572206973206e6f7420746865206f776e657281525060200191505060405180910390fd5b62000213816200027c60201b60201c565b50565b60008060009054906101000a900473ffffffffffffffffffffffffffffffffffffffff1673ffffffffffffffffffffffffffffffffffffffff16620002606200017760201b60201c565b73ffffffffffffffffffffffffffffffffffffffff1614905090565b600073ffffffffffffffffffffffffffffffffffffffff168173ffffffffffffffffffffffffffffffffffffffff16141562000304576040517f08c379a000000000000000000000000000000000000000000000000000000000815260040180806020018281038252602681526020018062001fc16026913960400191505060405180910390fd5b8073ffffffffffffffffffffffffffffffffffffffff166000809054906101000a900473ffffffffffffffffffffffffffffffffffffffff1673ffffffffffffffffffffffffffffffffffffffff167f8be0079c531659141344cd1fd0a4f28419497f9722a3daafe3b4186f6b6457e060405160405180910390a3806000806101000a81548173ffffffffffffffffffffffffffffffffffffffff021916908373ffffffffffffffffffffffffffffffffffffffff16021790555050565b611bef80620003d26000396000f3fe608060405234801561001057600080fd5b50600436106101735760003560e01c80638da5cb5b116100de578063cea0862111610097578063e737445711610071578063e73744571461062c578063e744092e1461064a578063f2fde38b146106a6578063f9eaee0d146106ea57610173565b8063cea0862114610592578063cf66d5c5146105c0578063dc7bb24d146105de57610173565b80638da5cb5b146103ec5780638f32d59b1461043657806390469a9d14610458578063965493ed1461049c5780639a4819bc146104f4578063b2bb1a3a1461057057610173565b806367eeba0c1161013057806367eeba0c1461031c578063680dc6401461033a578063715018a61461037c57806377977f891461038657806389827ed9146103b45780638aed8df5146103be57610173565b806307ff40b2146101785780631da0dff1146101d05780633bb07baf146102285780634178617f146102805780634fa432cf146102c45780636066af8a14610312575b600080fd5b6101ba6004803603602081101561018e57600080fd5b81019080803573ffffffffffffffffffffffffffffffffffffffff169060200190929190505050610746565b6040518082815260200191505060405180910390f35b610212600480360360208110156101e657600080fd5b81019080803573ffffffffffffffffffffffffffffffffffffffff16906020019092919050505061075e565b6040518082815260200191505060405180910390f35b61026a6004803603602081101561023e57600080fd5b81019080803573ffffffffffffffffffffffffffffffffffffffff1690602001909291905050506107a7565b6040518082815260200191505060405180910390f35b6102c26004803603602081101561029657600080fd5b81019080803573ffffffffffffffffffffffffffffffffffffffff1690602001909291905050506107bf565b005b610310600480360360408110156102da57600080fd5b81019080803573ffffffffffffffffffffffffffffffffffffffff16906020019092919080359060200190929190505050610935565b005b61031a610afa565b005b610324610bdb565b6040518082815260200191505060405180910390f35b6103666004803603602081101561035057600080fd5b8101908080359060200190929190505050610be1565b6040518082815260200191505060405180910390f35b610384610c19565b005b6103b26004803603602081101561039c57600080fd5b8101908080359060200190929190505050610d52565b005b6103bc610e6a565b005b6103ea600480360360208110156103d457600080fd5b8101908080359060200190929190505050610f4b565b005b6103f4611063565b604051808273ffffffffffffffffffffffffffffffffffffffff1673ffffffffffffffffffffffffffffffffffffffff16815260200191505060405180910390f35b61043e61108c565b604051808215151515815260200191505060405180910390f35b61049a6004803603602081101561046e57600080fd5b81019080803573ffffffffffffffffffffffffffffffffffffffff1690602001909291905050506110ea565b005b6104de600480360360208110156104b257600080fd5b81019080803573ffffffffffffffffffffffffffffffffffffffff169060200190929190505050611260565b6040518082815260200191505060405180910390f35b6105566004803603608081101561050a57600080fd5b81019080803573ffffffffffffffffffffffffffffffffffffffff16906020019092919080359060200190929190803590602001909291908035151590602001909291905050506112a9565b604051808215151515815260200191505060405180910390f35b6105786113af565b604051808215151515815260200191505060405180910390f35b6105be600480360360208110156105a857600080fd5b81019080803590602001909291905050506113c6565b005b6105c86114dc565b6040518082815260200191505060405180910390f35b61062a600480360360408110156105f457600080fd5b81019080803573ffffffffffffffffffffffffffffffffffffffff169060200190929190803590602001909291905050506114e6565b005b61063461166e565b6040518082815260200191505060405180910390f35b61068c6004803603602081101561066057600080fd5b81019080803573ffffffffffffffffffffffffffffffffffffffff169060200190929190505050611678565b604051808215151515815260200191505060405180910390f35b6106e8600480360360208110156106bc57600080fd5b81019080803573ffffffffffffffffffffffffffffffffffffffff169060200190929190505050611698565b005b61072c6004803603602081101561070057600080fd5b81019080803573ffffffffffffffffffffffffffffffffffffffff16906020019092919050505061171e565b604051808215151515815260200191505060405180910390f35b60076020528060005260406000206000915090505481565b6000600760008373ffffffffffffffffffffffffffffffffffffffff1673ffffffffffffffffffffffffffffffffffffffff168152602001908152602001600020549050919050565b60066020528060005260406000206000915090505481565b6107c761108c565b610839576040517f08c379a00000000000000000000000000000000000000000000000000000000081526004018080602001828103825260208152602001807f4f776e61626c653a2063616c6c6572206973206e6f7420746865206f776e657281525060200191505060405180910390fd5b610842816117d7565b15610898576040517f08c379a0000000000000000000000000000000000000000000000000000000008152600401808060200182810382526032815260200180611a6a6032913960400191505060405180910390fd5b60018060008373ffffffffffffffffffffffffffffffffffffffff1673ffffffffffffffffffffffffffffffffffffffff16815260200190815260200160002060006101000a81548160ff0219169083151502179055508073ffffffffffffffffffffffffffffffffffffffff167ff849d00bc67e9e4bf072df9680646c59b8c5380160834c2e1d4896ce5ec81f7560405160405180910390a250565b61093d61108c565b6109af576040517f08c379a00000000000000000000000000000000000000000000000000000000081526004018080602001828103825260208152602001807f4f776e61626c653a2063616c6c6572206973206e6f7420746865206f776e657281525060200191505060405180910390fd5b600660008373ffffffffffffffffffffffffffffffffffffffff1673ffffffffffffffffffffffffffffffffffffffff16815260200190815260200160002054811015610a47576040517f08c379a0000000000000000000000000000000000000000000000000000000008152600401808060200182810382526045815260200180611a9c6045913960600191505060405180910390fd5b80600760008473ffffffffffffffffffffffffffffffffffffffff1673ffffffffffffffffffffffffffffffffffffffff168152602001908152602001600020819055507feb3753f6f5eee22e0147cb6c5359ee840a57ea04024055ae7bee95d083c43d188282604051808373ffffffffffffffffffffffffffffffffffffffff1673ffffffffffffffffffffffffffffffffffffffff1681526020018281526020019250505060405180910390a15050565b610b0261108c565b610b74576040517f08c379a00000000000000000000000000000000000000000000000000000000081526004018080602001828103825260208152602001807f4f776e61626c653a2063616c6c6572206973206e6f7420746865206f776e657281525060200191505060405180910390fd5b6001600260006101000a81548160ff0219169083151502179055507f56c494debe2cb09344893898449050dd58a4432e66f95108d729ad21ccfd19e7600260009054906101000a900460ff16604051808215151515815260200191505060405180910390a1565b60055481565b60008082600554039050826005541015610bff576000915050610c14565b600354811115610c0f5760035490505b809150505b919050565b610c2161108c565b610c93576040517f08c379a00000000000000000000000000000000000000000000000000000000081526004018080602001828103825260208152602001807f4f776e61626c653a2063616c6c6572206973206e6f7420746865206f776e657281525060200191505060405180910390fd5b600073ffffffffffffffffffffffffffffffffffffffff166000809054906101000a900473ffffffffffffffffffffffffffffffffffffffff1673ffffffffffffffffffffffffffffffffffffffff167f8be0079c531659141344cd1fd0a4f28419497f9722a3daafe3b4186f6b6457e060405160405180910390a360008060006101000a81548173ffffffffffffffffffffffffffffffffffffffff021916908373ffffffffffffffffffffffffffffffffffffffff160217905550565b610d5a61108c565b610dcc576040517f08c379a00000000000000000000000000000000000000000000000000000000081526004018080602001828103825260208152602001807f4f776e61626c653a2063616c6c6572206973206e6f7420746865206f776e657281525060200191505060405180910390fd5b806003541015610e27576040517f08c379a0000000000000000000000000000000000000000000000000000000008152600401808060200182810382526042815260200180611ae16042913960600191505060405180910390fd5b806004819055507f12a646d3bbffa271e4444ba46156444c17a66ed892618d27ddfda6189622ae446004546040518082815260200191505060405180910390a150565b610e7261108c565b610ee4576040517f08c379a00000000000000000000000000000000000000000000000000000000081526004018080602001828103825260208152602001807f4f776e61626c653a2063616c6c6572206973206e6f7420746865206f776e657281525060200191505060405180910390fd5b6000600260006101000a81548160ff0219169083151502179055507f56c494debe2cb09344893898449050dd58a4432e66f95108d729ad21ccfd19e7600260009054906101000a900460ff16604051808215151515815260200191505060405180910390a1565b610f5361108c565b610fc5576040517f08c379a00000000000000000000000000000000000000000000000000000000081526004018080602001828103825260208152602001807f4f776e61626c653a2063616c6c6572206973206e6f7420746865206f776e657281525060200191505060405180910390fd5b600454811015611020576040517f08c379a0000000000000000000000000000000000000000000000000000000008152600401808060200182810382526041815260200180611b476041913960600191505060405180910390fd5b806003819055507fd71e2baa82a5d055fc51d591360ec316a059192a353993a9cec6a85e88d4e1da6003546040518082815260200191505060405180910390a150565b60008060009054906101000a900473ffffffffffffffffffffffffffffffffffffffff16905090565b60008060009054906101000a900473ffffffffffffffffffffffffffffffffffffffff1673ffffffffffffffffffffffffffffffffffffffff166110ce6118b5565b73ffffffffffffffffffffffffffffffffffffffff1614905090565b6110f261108c565b611164576040517f08c379a00000000000000000000000000000000000000000000000000000000081526004018080602001828103825260208152602001807f4f776e61626c653a2063616c6c6572206973206e6f7420746865206f776e657281525060200191505060405180910390fd5b61116d816117d7565b6111c2576040517f08c379a0000000000000000000000000000000000000000000000000000000008152600401808060200182810382526033815260200180611b886033913960400191505060405180910390fd5b6000600160008373ffffffffffffffffffffffffffffffffffffffff1673ffffffffffffffffffffffffffffffffffffffff16815260200190815260200160002060006101000a81548160ff0219169083151502179055508073ffffffffffffffffffffffffffffffffffffffff167fbf996b4fd74f0c7159bb017b1db415b0d9a6f13129f46d0b93309d170b78df3160405160405180910390a250565b6000600660008373ffffffffffffffffffffffffffffffffffffffff1673ffffffffffffffffffffffffffffffffffffffff168152602001908152602001600020549050919050565b60006003548411156112be57600090506113a7565b600660008673ffffffffffffffffffffffffffffffffffffffff1673ffffffffffffffffffffffffffffffffffffffff1681526020019081526020016000205484101561130e57600090506113a7565b6005548484011180611321575082848401105b1561132f57600090506113a7565b8115801561134357506113418561171e565b155b1561135157600090506113a7565b6000600760008773ffffffffffffffffffffffffffffffffffffffff1673ffffffffffffffffffffffffffffffffffffffff1681526020019081526020016000205414156113a257600090506113a7565b600190505b949350505050565b6000600260009054906101000a900460ff16905090565b6113ce61108c565b611440576040517f08c379a00000000000000000000000000000000000000000000000000000000081526004018080602001828103825260208152602001807f4f776e61626c653a2063616c6c6572206973206e6f7420746865206f776e657281525060200191505060405180910390fd5b60035481101561149b576040517f08c379a0000000000000000000000000000000000000000000000000000000008152600401808060200182810382526042815260200180611a026042913960600191505060405180910390fd5b806005819055507fad4123ae17c414d9c6d2fec478b402e6b01856cc250fd01fbfd252fda0089d3c816040518082815260200191505060405180910390a150565b6000600354905090565b6114ee61108c565b611560576040517f08c379a00000000000000000000000000000000000000000000000000000000081526004018080602001828103825260208152602001807f4f776e61626c653a2063616c6c6572206973206e6f7420746865206f776e657281525060200191505060405180910390fd5b8060035410156115bb576040517f08c379a0000000000000000000000000000000000000000000000000000000008152600401808060200182810382526042815260200180611ae16042913960600191505060405180910390fd5b80600660008473ffffffffffffffffffffffffffffffffffffffff1673ffffffffffffffffffffffffffffffffffffffff168152602001908152602001600020819055507f99a37061cf8bf145ee8c53733d220ee9a768a87b4492b222709ec4ca3a9c334a8282604051808373ffffffffffffffffffffffffffffffffffffffff1673ffffffffffffffffffffffffffffffffffffffff1681526020018281526020019250505060405180910390a15050565b6000600454905090565b60016020528060005260406000206000915054906101000a900460ff1681565b6116a061108c565b611712576040517f08c379a00000000000000000000000000000000000000000000000000000000081526004018080602001828103825260208152602001807f4f776e61626c653a2063616c6c6572206973206e6f7420746865206f776e657281525060200191505060405180910390fd5b61171b816118bd565b50565b600081600073ffffffffffffffffffffffffffffffffffffffff168173ffffffffffffffffffffffffffffffffffffffff1614156117a7576040517f08c379a0000000000000000000000000000000000000000000000000000000008152600401808060200182810382526024815260200180611b236024913960400191505060405180910390fd5b600260009054906101000a900460ff16156117cc576117c5836117d7565b91506117d1565b600191505b50919050565b600081600073ffffffffffffffffffffffffffffffffffffffff168173ffffffffffffffffffffffffffffffffffffffff161415611860576040517f08c379a0000000000000000000000000000000000000000000000000000000008152600401808060200182810382526024815260200180611b236024913960400191505060405180910390fd5b600160008473ffffffffffffffffffffffffffffffffffffffff1673ffffffffffffffffffffffffffffffffffffffff16815260200190815260200160002060009054906101000a900460ff16915050919050565b600033905090565b600073ffffffffffffffffffffffffffffffffffffffff168173ffffffffffffffffffffffffffffffffffffffff161415611943576040517f08c379a0000000000000000000000000000000000000000000000000000000008152600401808060200182810382526026815260200180611a446026913960400191505060405180910390fd5b8073ffffffffffffffffffffffffffffffffffffffff166000809054906101000a900473ffffffffffffffffffffffffffffffffffffffff1673ffffffffffffffffffffffffffffffffffffffff167f8be0079c531659141344cd1fd0a4f28419497f9722a3daafe3b4186f6b6457e060405160405180910390a3806000806101000a81548173ffffffffffffffffffffffffffffffffffffffff021916908373ffffffffffffffffffffffffffffffffffffffff1602179055505056fe416c6c6f77546f6b656e733a204461696c79204c696d69742073686f756c6420626520657175616c206f7220626967676572207468616e204d617820546f6b656e734f776e61626c653a206e6577206f776e657220697320746865207a65726f2061646472657373416c6c6f77546f6b656e733a20546f6b656e20616c72656164792065786973747320696e20616c6c6f776564546f6b656e73416c6c6f77546f6b656e733a204665652070657220546f6b656e2073686f756c6420626520657175616c206f7220626967676572207468616e204d696e20616c6c6f776564416c6c6f77546f6b656e733a204d696e20546f6b656e732073686f756c6420626520657175616c206f7220736d616c6c6572207468616e204d617820546f6b656e73416c6c6f77546f6b656e733a20416464726573732063616e6e6f7420626520656d707479416c6c6f77546f6b656e733a204d617820546f6b656e732073686f756c6420626520657175616c206f7220626967676572207468616e204d696e20546f6b656e73416c6c6f77546f6b656e733a20546f6b656e20646f6573206e6f7420657869732020696e20616c6c6f776564546f6b656e7374a265627a7a723158206a4e11d6b5338034d71ab87efb41bd504d80c800a37d3e2cc1b6d21df7e400f364736f6c634300051100324f776e61626c653a206e6577206f776e657220697320746865207a65726f2061646472657373",
  "source": "pragma solidity >=0.4.21 <0.6.0;\n\nimport \"./zeppelin/math/SafeMath.sol\";\nimport \"./zeppelin/ownership/Ownable.sol\";\n\ncontract AllowTokens is Ownable {\n    using SafeMath for uint256;\n\n    address constant private NULL_ADDRESS = address(0);\n\n    mapping (address => bool) public allowedTokens;\n    bool private validateAllowedTokens;\n    uint256 private maxTokensAllowed;\n    uint256 private minTokensAllowed;\n    uint256 public dailyLimit;\n\n// Bridge v3 upgrade variables\n// minimum amount allowed per token\n    mapping (address => uint) public minAllowedToken;\n// constant fee per token\n    mapping (address => uint) public feeConstToken;\n\n    event AllowedTokenAdded(address indexed _tokenAddress);\n    event AllowedTokenRemoved(address indexed _tokenAddress);\n    event AllowedTokenValidation(bool _enabled);\n    event MaxTokensAllowedChanged(uint256 _maxTokens);\n    event MinTokensAllowedChanged(uint256 _minTokens);\n    event DailyLimitChanged(uint256 dailyLimit);\n\n// Bridge v3 upgrade events\n    event MinPerTokenChanged(address _token, uint256 _minAmount);\n    event FeePerTokenChanged(address _token, uint256 _feeConst);\n\n    modifier notNull(address _address) {\n        require(_address != NULL_ADDRESS, \"AllowTokens: Address cannot be empty\");\n        _;\n    }\n\n    constructor(address _manager) public  {\n        transferOwnership(_manager);\n        validateAllowedTokens = true;\n        maxTokensAllowed = 10000 ether;\n        minTokensAllowed = 1 ether;\n        dailyLimit = 100000 ether;\n    }\n\n    function isValidatingAllowedTokens() external view returns(bool) {\n        return validateAllowedTokens;\n    }\n\n    function getMaxTokensAllowed() external view returns(uint256) {\n        return maxTokensAllowed;\n    }\n\n    function getMinTokensAllowed() external view returns(uint256) {\n        return minTokensAllowed;\n    }\n\n    function allowedTokenExist(address token) private view notNull(token) returns (bool) {\n        return allowedTokens[token];\n    }\n\n    function isTokenAllowed(address token) public view notNull(token) returns (bool) {\n        if (validateAllowedTokens) {\n            return allowedTokenExist(token);\n        }\n        return true;\n    }\n\n    function addAllowedToken(address token) external onlyOwner {\n        require(!allowedTokenExist(token), \"AllowTokens: Token already exists in allowedTokens\");\n        allowedTokens[token] = true;\n        emit AllowedTokenAdded(token);\n    }\n\n    function removeAllowedToken(address token) external onlyOwner {\n        require(allowedTokenExist(token), \"AllowTokens: Token does not exis  in allowedTokenst\");\n        allowedTokens[token] = false;\n        emit AllowedTokenRemoved(token);\n    }\n\n    function enableAllowedTokensValidation() external onlyOwner {\n        validateAllowedTokens = true;\n        emit AllowedTokenValidation(validateAllowedTokens);\n    }\n\n    function disableAllowedTokensValidation() external onlyOwner {\n        // Before disabling Allowed Tokens Validations some kind of contract validation system\n        // should be implemented on the Bridge for the methods receiveTokens, tokenFallback and tokensReceived\n        validateAllowedTokens = false;\n        emit AllowedTokenValidation(validateAllowedTokens);\n    }\n\n    function setMaxTokensAllowed(uint256 maxTokens) external onlyOwner {\n        require(maxTokens >= minTokensAllowed, \"AllowTokens: Max Tokens should be equal or bigger than Min Tokens\");\n        maxTokensAllowed = maxTokens;\n        emit MaxTokensAllowedChanged(maxTokensAllowed);\n    }\n\n    function setMinTokensAllowed(uint256 minTokens) external onlyOwner {\n        require(maxTokensAllowed >= minTokens, \"AllowTokens: Min Tokens should be equal or smaller than Max Tokens\");\n        minTokensAllowed = minTokens;\n        emit MinTokensAllowedChanged(minTokensAllowed);\n    }\n\n    function changeDailyLimit(uint256 _dailyLimit) external onlyOwner {\n        require(_dailyLimit >= maxTokensAllowed, \"AllowTokens: Daily Limit should be equal or bigger than Max Tokens\");\n        dailyLimit = _dailyLimit;\n        emit DailyLimitChanged(_dailyLimit);\n    }\n\n    // solium-disable-next-line max-len\n    function isValidTokenTransfer(address tokenToUse, uint amount, uint spentToday, bool isSideToken) external view returns (bool) {\n        if(amount > maxTokensAllowed)\n            return false;\n        if(amount < minAllowedToken[tokenToUse])\n            return false;\n        if (spentToday + amount > dailyLimit || spentToday + amount < spentToday)\n            return false;\n        if(!isSideToken && !isTokenAllowed(tokenToUse))\n            return false;\n        if(feeConstToken[tokenToUse] == 0 )\n            return false;\n        return true;\n    }\n\n    function calcMaxWithdraw(uint spentToday) external view returns (uint) {\n        uint maxWithrow = dailyLimit - spentToday;\n        if (dailyLimit < spentToday)\n            return 0;\n        if(maxWithrow > maxTokensAllowed)\n            maxWithrow = maxTokensAllowed;\n        return maxWithrow;\n    }\n\n// Bridge v3 upgrade functions\n    function getMinPerToken(address token) external view returns(uint256) {\n        return minAllowedToken[token];\n    }\n\n    function getFeePerToken(address token) public view returns(uint256) {\n        return feeConstToken[token];\n    }\n\n    function setMinPerToken(address token, uint256 minAmount) external onlyOwner {\n        require(maxTokensAllowed >= minAmount, \"AllowTokens: Min Tokens should be equal or smaller than Max Tokens\");\n        minAllowedToken[token] = minAmount;\n        emit MinPerTokenChanged(token, minAmount);\n    }\n\n    function setFeePerToken(address token, uint256 feeConst) external onlyOwner {\n        require(feeConst >= minAllowedToken[token], \"AllowTokens: Fee per Token should be equal or bigger than Min allowed\");\n        feeConstToken[token] = feeConst;\n        emit FeePerTokenChanged(token, feeConst);\n    }\n\n}\n",
  "sourcePath": "/Users/pooh/sovryn/deploy_bridge/upgrade-ropsten/Bridge-SC/sovryn-token-bridge/bridge/contracts/AllowTokens.sol",
  "compiler": {
    "name": "solc",
    "version": "0.5.17+commit.d19bba13.Emscripten.clang"
  },
  "schemaVersion": "3.3.4",
  "updatedAt": "2021-05-05T22:03:11.988Z",
  "networkType": "ethereum",
  "devdoc": {
    "methods": {
      "isOwner()": {
        "details": "Returns true if the caller is the current owner."
      },
      "owner()": {
        "details": "Returns the address of the current owner."
      },
      "renounceOwnership()": {
        "details": "Leaves the contract without owner. It will not be possible to call `onlyOwner` functions anymore. Can only be called by the current owner.     * NOTE: Renouncing ownership will leave the contract without an owner, thereby removing any functionality that is only available to the owner."
      },
      "transferOwnership(address)": {
        "details": "Transfers ownership of the contract to a new account (`newOwner`). Can only be called by the current owner."
      }
    }
  },
  "userdoc": {
    "methods": {}
  }
}