{
  "contractName": "AllowTokens_v0",
  "abi": [
    {
      "inputs": [
        {
          "internalType": "address",
          "name": "_manager",
          "type": "address"
        }
      ],
      "payable": false,
      "stateMutability": "nonpayable",
      "type": "constructor"
    },
    {
      "anonymous": false,
      "inputs": [
        {
          "indexed": true,
          "internalType": "address",
          "name": "_tokenAddress",
          "type": "address"
        }
      ],
      "name": "AllowedTokenAdded",
      "type": "event"
    },
    {
      "anonymous": false,
      "inputs": [
        {
          "indexed": true,
          "internalType": "address",
          "name": "_tokenAddress",
          "type": "address"
        }
      ],
      "name": "AllowedTokenRemoved",
      "type": "event"
    },
    {
      "anonymous": false,
      "inputs": [
        {
          "indexed": false,
          "internalType": "bool",
          "name": "_enabled",
          "type": "bool"
        }
      ],
      "name": "AllowedTokenValidation",
      "type": "event"
    },
    {
      "anonymous": false,
      "inputs": [
        {
          "indexed": false,
          "internalType": "uint256",
          "name": "dailyLimit",
          "type": "uint256"
        }
      ],
      "name": "DailyLimitChanged",
      "type": "event"
    },
    {
      "anonymous": false,
      "inputs": [
        {
          "indexed": false,
          "internalType": "uint256",
          "name": "_maxTokens",
          "type": "uint256"
        }
      ],
      "name": "MaxTokensAllowedChanged",
      "type": "event"
    },
    {
      "anonymous": false,
      "inputs": [
        {
          "indexed": false,
          "internalType": "uint256",
          "name": "_minTokens",
          "type": "uint256"
        }
      ],
      "name": "MinTokensAllowedChanged",
      "type": "event"
    },
    {
      "anonymous": false,
      "inputs": [
        {
          "indexed": true,
          "internalType": "address",
          "name": "previousOwner",
          "type": "address"
        },
        {
          "indexed": true,
          "internalType": "address",
          "name": "newOwner",
          "type": "address"
        }
      ],
      "name": "OwnershipTransferred",
      "type": "event"
    },
    {
      "constant": true,
      "inputs": [
        {
          "internalType": "address",
          "name": "",
          "type": "address"
        }
      ],
      "name": "allowedTokens",
      "outputs": [
        {
          "internalType": "bool",
          "name": "",
          "type": "bool"
        }
      ],
      "payable": false,
      "stateMutability": "view",
      "type": "function"
    },
    {
      "constant": true,
      "inputs": [],
      "name": "dailyLimit",
      "outputs": [
        {
          "internalType": "uint256",
          "name": "",
          "type": "uint256"
        }
      ],
      "payable": false,
      "stateMutability": "view",
      "type": "function"
    },
    {
      "constant": true,
      "inputs": [],
      "name": "isOwner",
      "outputs": [
        {
          "internalType": "bool",
          "name": "",
          "type": "bool"
        }
      ],
      "payable": false,
      "stateMutability": "view",
      "type": "function"
    },
    {
      "constant": true,
      "inputs": [],
      "name": "owner",
      "outputs": [
        {
          "internalType": "address",
          "name": "",
          "type": "address"
        }
      ],
      "payable": false,
      "stateMutability": "view",
      "type": "function"
    },
    {
      "constant": false,
      "inputs": [],
      "name": "renounceOwnership",
      "outputs": [],
      "payable": false,
      "stateMutability": "nonpayable",
      "type": "function"
    },
    {
      "constant": false,
      "inputs": [
        {
          "internalType": "address",
          "name": "newOwner",
          "type": "address"
        }
      ],
      "name": "transferOwnership",
      "outputs": [],
      "payable": false,
      "stateMutability": "nonpayable",
      "type": "function"
    },
    {
      "constant": true,
      "inputs": [],
      "name": "isValidatingAllowedTokens",
      "outputs": [
        {
          "internalType": "bool",
          "name": "",
          "type": "bool"
        }
      ],
      "payable": false,
      "stateMutability": "view",
      "type": "function"
    },
    {
      "constant": true,
      "inputs": [],
      "name": "getMaxTokensAllowed",
      "outputs": [
        {
          "internalType": "uint256",
          "name": "",
          "type": "uint256"
        }
      ],
      "payable": false,
      "stateMutability": "view",
      "type": "function"
    },
    {
      "constant": true,
      "inputs": [],
      "name": "getMinTokensAllowed",
      "outputs": [
        {
          "internalType": "uint256",
          "name": "",
          "type": "uint256"
        }
      ],
      "payable": false,
      "stateMutability": "view",
      "type": "function"
    },
    {
      "constant": true,
      "inputs": [
        {
          "internalType": "address",
          "name": "token",
          "type": "address"
        }
      ],
      "name": "isTokenAllowed",
      "outputs": [
        {
          "internalType": "bool",
          "name": "",
          "type": "bool"
        }
      ],
      "payable": false,
      "stateMutability": "view",
      "type": "function"
    },
    {
      "constant": false,
      "inputs": [
        {
          "internalType": "address",
          "name": "token",
          "type": "address"
        }
      ],
      "name": "addAllowedToken",
      "outputs": [],
      "payable": false,
      "stateMutability": "nonpayable",
      "type": "function"
    },
    {
      "constant": false,
      "inputs": [
        {
          "internalType": "address",
          "name": "token",
          "type": "address"
        }
      ],
      "name": "removeAllowedToken",
      "outputs": [],
      "payable": false,
      "stateMutability": "nonpayable",
      "type": "function"
    },
    {
      "constant": false,
      "inputs": [],
      "name": "enableAllowedTokensValidation",
      "outputs": [],
      "payable": false,
      "stateMutability": "nonpayable",
      "type": "function"
    },
    {
      "constant": false,
      "inputs": [],
      "name": "disableAllowedTokensValidation",
      "outputs": [],
      "payable": false,
      "stateMutability": "nonpayable",
      "type": "function"
    },
    {
      "constant": false,
      "inputs": [
        {
          "internalType": "uint256",
          "name": "maxTokens",
          "type": "uint256"
        }
      ],
      "name": "setMaxTokensAllowed",
      "outputs": [],
      "payable": false,
      "stateMutability": "nonpayable",
      "type": "function"
    },
    {
      "constant": false,
      "inputs": [
        {
          "internalType": "uint256",
          "name": "minTokens",
          "type": "uint256"
        }
      ],
      "name": "setMinTokensAllowed",
      "outputs": [],
      "payable": false,
      "stateMutability": "nonpayable",
      "type": "function"
    },
    {
      "constant": false,
      "inputs": [
        {
          "internalType": "uint256",
          "name": "_dailyLimit",
          "type": "uint256"
        }
      ],
      "name": "changeDailyLimit",
      "outputs": [],
      "payable": false,
      "stateMutability": "nonpayable",
      "type": "function"
    },
    {
      "constant": true,
      "inputs": [
        {
          "internalType": "address",
          "name": "tokenToUse",
          "type": "address"
        },
        {
          "internalType": "uint256",
          "name": "amount",
          "type": "uint256"
        },
        {
          "internalType": "uint256",
          "name": "spentToday",
          "type": "uint256"
        },
        {
          "internalType": "bool",
          "name": "isSideToken",
          "type": "bool"
        }
      ],
      "name": "isValidTokenTransfer",
      "outputs": [
        {
          "internalType": "bool",
          "name": "",
          "type": "bool"
        }
      ],
      "payable": false,
      "stateMutability": "view",
      "type": "function"
    },
    {
      "constant": true,
      "inputs": [
        {
          "internalType": "uint256",
          "name": "spentToday",
          "type": "uint256"
        }
      ],
      "name": "calcMaxWithdraw",
      "outputs": [
        {
          "internalType": "uint256",
          "name": "",
          "type": "uint256"
        }
      ],
      "payable": false,
      "stateMutability": "view",
      "type": "function"
    }
  ],
  "bytecode": "0x608060405234801561001057600080fd5b50604051610fb1380380610fb18339818101604052602081101561003357600080fd5b50516100466001600160e01b036100c916565b600080546001600160a01b0319166001600160a01b0392831617808255604051921691600080516020610f91833981519152908290a361008e816001600160e01b036100cd16565b506002805460ff1916600117905569021e19e0c9bab2400000600355670de0b6b3a764000060045569152d02c7e14af68000006005556101ff565b3390565b6100de6001600160e01b0361014416565b61012f576040805162461bcd60e51b815260206004820181905260248201527f4f776e61626c653a2063616c6c6572206973206e6f7420746865206f776e6572604482015290519081900360640190fd5b610141816001600160e01b0361017116565b50565b600080546001600160a01b03166101626001600160e01b036100c916565b6001600160a01b031614905090565b6001600160a01b0381166101b65760405162461bcd60e51b8152600401808060200182810382526026815260200180610f6b6026913960400191505060405180910390fd5b600080546040516001600160a01b0380851693921691600080516020610f9183398151915291a3600080546001600160a01b0319166001600160a01b0392909216919091179055565b610d5d8061020e6000396000f3fe608060405234801561001057600080fd5b50600436106101215760003560e01c80638f32d59b116100ad578063cf66d5c511610071578063cf66d5c51461029c578063e7374457146102a4578063e744092e146102ac578063f2fde38b146102d2578063f9eaee0d146102f857610121565b80638f32d59b146101fb57806390469a9d146102175780639a4819bc1461023d578063b2bb1a3a14610277578063cea086211461027f57610121565b8063715018a6116100f4578063715018a61461018d57806377977f891461019557806389827ed9146101b25780638aed8df5146101ba5780638da5cb5b146101d757610121565b80634178617f146101265780636066af8a1461014e57806367eeba0c14610156578063680dc64014610170575b600080fd5b61014c6004803603602081101561013c57600080fd5b50356001600160a01b031661031e565b005b61014c6103f9565b61015e61048a565b60408051918252519081900360200190f35b61015e6004803603602081101561018657600080fd5b5035610490565b61014c6104c2565b61014c600480360360208110156101ab57600080fd5b5035610553565b61014c610616565b61014c600480360360208110156101d057600080fd5b503561069d565b6101df610760565b604080516001600160a01b039092168252519081900360200190f35b61020361076f565b604080519115158252519081900360200190f35b61014c6004803603602081101561022d57600080fd5b50356001600160a01b0316610793565b6102036004803603608081101561025357600080fd5b506001600160a01b0381351690602081013590604081013590606001351515610867565b6102036108da565b61014c6004803603602081101561029557600080fd5b50356108e3565b61015e6109a6565b61015e6109ac565b610203600480360360208110156102c257600080fd5b50356001600160a01b03166109b2565b61014c600480360360208110156102e857600080fd5b50356001600160a01b03166109c7565b6102036004803603602081101561030e57600080fd5b50356001600160a01b0316610a1a565b61032661076f565b610365576040805162461bcd60e51b81526020600482018190526024820152600080516020610c71833981519152604482015290519081900360640190fd5b61036e81610a88565b156103aa5760405162461bcd60e51b8152600401808060200182810382526032815260200180610bfd6032913960400191505060405180910390fd5b6001600160a01b0381166000818152600160208190526040808320805460ff1916909217909155517ff849d00bc67e9e4bf072df9680646c59b8c5380160834c2e1d4896ce5ec81f759190a250565b61040161076f565b610440576040805162461bcd60e51b81526020600482018190526024820152600080516020610c71833981519152604482015290519081900360640190fd5b6002805460ff1916600117908190556040805160ff9290921615158252517f56c494debe2cb09344893898449050dd58a4432e66f95108d729ad21ccfd19e79181900360200190a1565b60055481565b600554600090828103908311156104ab5760009150506104bd565b6003548111156104ba57506003545b90505b919050565b6104ca61076f565b610509576040805162461bcd60e51b81526020600482018190526024820152600080516020610c71833981519152604482015290519081900360640190fd5b600080546040516001600160a01b03909116907f8be0079c531659141344cd1fd0a4f28419497f9722a3daafe3b4186f6b6457e0908390a3600080546001600160a01b0319169055565b61055b61076f565b61059a576040805162461bcd60e51b81526020600482018190526024820152600080516020610c71833981519152604482015290519081900360640190fd5b8060035410156105db5760405162461bcd60e51b8152600401808060200182810382526042815260200180610c2f6042913960600191505060405180910390fd5b60048190556040805182815290517f12a646d3bbffa271e4444ba46156444c17a66ed892618d27ddfda6189622ae449181900360200190a150565b61061e61076f565b61065d576040805162461bcd60e51b81526020600482018190526024820152600080516020610c71833981519152604482015290519081900360640190fd5b6002805460ff19169055604080516000815290517f56c494debe2cb09344893898449050dd58a4432e66f95108d729ad21ccfd19e79181900360200190a1565b6106a561076f565b6106e4576040805162461bcd60e51b81526020600482018190526024820152600080516020610c71833981519152604482015290519081900360640190fd5b6004548110156107255760405162461bcd60e51b8152600401808060200182810382526041815260200180610cb56041913960600191505060405180910390fd5b60038190556040805182815290517fd71e2baa82a5d055fc51d591360ec316a059192a353993a9cec6a85e88d4e1da9181900360200190a150565b6000546001600160a01b031690565b600080546001600160a01b0316610784610af0565b6001600160a01b031614905090565b61079b61076f565b6107da576040805162461bcd60e51b81526020600482018190526024820152600080516020610c71833981519152604482015290519081900360640190fd5b6107e381610a88565b61081e5760405162461bcd60e51b8152600401808060200182810382526033815260200180610cf66033913960400191505060405180910390fd5b6001600160a01b038116600081815260016020526040808220805460ff19169055517fbf996b4fd74f0c7159bb017b1db415b0d9a6f13129f46d0b93309d170b78df319190a250565b600060035484111561087b575060006108d2565b60045484101561088d575060006108d2565b60055484840111806108a0575082848401105b156108ad575060006108d2565b811580156108c157506108bf85610a1a565b155b156108ce575060006108d2565b5060015b949350505050565b60025460ff1690565b6108eb61076f565b61092a576040805162461bcd60e51b81526020600482018190526024820152600080516020610c71833981519152604482015290519081900360640190fd5b60035481101561096b5760405162461bcd60e51b8152600401808060200182810382526042815260200180610b956042913960600191505060405180910390fd5b60058190556040805182815290517fad4123ae17c414d9c6d2fec478b402e6b01856cc250fd01fbfd252fda0089d3c9181900360200190a150565b60035490565b60045490565b60016020526000908152604090205460ff1681565b6109cf61076f565b610a0e576040805162461bcd60e51b81526020600482018190526024820152600080516020610c71833981519152604482015290519081900360640190fd5b610a1781610af4565b50565b6000816001600160a01b038116610a625760405162461bcd60e51b8152600401808060200182810382526024815260200180610c916024913960400191505060405180910390fd5b60025460ff1615610a7d57610a7683610a88565b9150610a82565b600191505b50919050565b6000816001600160a01b038116610ad05760405162461bcd60e51b8152600401808060200182810382526024815260200180610c916024913960400191505060405180910390fd5b50506001600160a01b031660009081526001602052604090205460ff1690565b3390565b6001600160a01b038116610b395760405162461bcd60e51b8152600401808060200182810382526026815260200180610bd76026913960400191505060405180910390fd5b600080546040516001600160a01b03808516939216917f8be0079c531659141344cd1fd0a4f28419497f9722a3daafe3b4186f6b6457e091a3600080546001600160a01b0319166001600160a01b039290921691909117905556fe416c6c6f77546f6b656e733a204461696c79204c696d69742073686f756c6420626520657175616c206f7220626967676572207468616e204d617820546f6b656e734f776e61626c653a206e6577206f776e657220697320746865207a65726f2061646472657373416c6c6f77546f6b656e733a20546f6b656e20616c72656164792065786973747320696e20616c6c6f776564546f6b656e73416c6c6f77546f6b656e733a204d696e20546f6b656e732073686f756c6420626520657175616c206f7220736d616c6c6572207468616e204d617820546f6b656e734f776e61626c653a2063616c6c6572206973206e6f7420746865206f776e6572416c6c6f77546f6b656e733a20416464726573732063616e6e6f7420626520656d707479416c6c6f77546f6b656e733a204d617820546f6b656e732073686f756c6420626520657175616c206f7220626967676572207468616e204d696e20546f6b656e73416c6c6f77546f6b656e733a20546f6b656e20646f6573206e6f7420657869732020696e20616c6c6f776564546f6b656e7374a265627a7a72315820ea54e1646dfd114e5763e1a075bb618f14922c98ff6dbf9881e4c7a85f13ccb664736f6c634300051100324f776e61626c653a206e6577206f776e657220697320746865207a65726f20616464726573738be0079c531659141344cd1fd0a4f28419497f9722a3daafe3b4186f6b6457e0",
  "source": "pragma solidity >=0.4.21 <0.6.0;\n\nimport \"./zeppelin/math/SafeMath.sol\";\nimport \"./zeppelin/ownership/Ownable.sol\";\n\ncontract AllowTokens_v0 is Ownable {\n    using SafeMath for uint256;\n\n    address constant private NULL_ADDRESS = address(0);\n\n    mapping (address => bool) public allowedTokens;\n    bool private validateAllowedTokens;\n    uint256 private maxTokensAllowed;\n    uint256 private minTokensAllowed;\n    uint256 public dailyLimit;\n\n    event AllowedTokenAdded(address indexed _tokenAddress);\n    event AllowedTokenRemoved(address indexed _tokenAddress);\n    event AllowedTokenValidation(bool _enabled);\n    event MaxTokensAllowedChanged(uint256 _maxTokens);\n    event MinTokensAllowedChanged(uint256 _minTokens);\n    event DailyLimitChanged(uint256 dailyLimit);\n\n    modifier notNull(address _address) {\n        require(_address != NULL_ADDRESS, \"AllowTokens: Address cannot be empty\");\n        _;\n    }\n\n    constructor(address _manager) public  {\n        transferOwnership(_manager);\n        validateAllowedTokens = true;\n        maxTokensAllowed = 10000 ether;\n        minTokensAllowed = 1 ether;\n        dailyLimit = 100000 ether;\n    }\n\n    function isValidatingAllowedTokens() external view returns(bool) {\n        return validateAllowedTokens;\n    }\n\n    function getMaxTokensAllowed() external view returns(uint256) {\n        return maxTokensAllowed;\n    }\n\n    function getMinTokensAllowed() external view returns(uint256) {\n        return minTokensAllowed;\n    }\n\n    function allowedTokenExist(address token) private view notNull(token) returns (bool) {\n        return allowedTokens[token];\n    }\n\n    function isTokenAllowed(address token) public view notNull(token) returns (bool) {\n        if (validateAllowedTokens) {\n            return allowedTokenExist(token);\n        }\n        return true;\n    }\n\n    function addAllowedToken(address token) external onlyOwner {\n        require(!allowedTokenExist(token), \"AllowTokens: Token already exists in allowedTokens\");\n        allowedTokens[token] = true;\n        emit AllowedTokenAdded(token);\n    }\n\n    function removeAllowedToken(address token) external onlyOwner {\n        require(allowedTokenExist(token), \"AllowTokens: Token does not exis  in allowedTokenst\");\n        allowedTokens[token] = false;\n        emit AllowedTokenRemoved(token);\n    }\n\n    function enableAllowedTokensValidation() external onlyOwner {\n        validateAllowedTokens = true;\n        emit AllowedTokenValidation(validateAllowedTokens);\n    }\n\n    function disableAllowedTokensValidation() external onlyOwner {\n        // Before disabling Allowed Tokens Validations some kind of contract validation system\n        // should be implemented on the Bridge for the methods receiveTokens, tokenFallback and tokensReceived\n        validateAllowedTokens = false;\n        emit AllowedTokenValidation(validateAllowedTokens);\n    }\n\n    function setMaxTokensAllowed(uint256 maxTokens) external onlyOwner {\n        require(maxTokens >= minTokensAllowed, \"AllowTokens: Max Tokens should be equal or bigger than Min Tokens\");\n        maxTokensAllowed = maxTokens;\n        emit MaxTokensAllowedChanged(maxTokensAllowed);\n    }\n\n    function setMinTokensAllowed(uint256 minTokens) external onlyOwner {\n        require(maxTokensAllowed >= minTokens, \"AllowTokens: Min Tokens should be equal or smaller than Max Tokens\");\n        minTokensAllowed = minTokens;\n        emit MinTokensAllowedChanged(minTokensAllowed);\n    }\n\n    function changeDailyLimit(uint256 _dailyLimit) external onlyOwner {\n        require(_dailyLimit >= maxTokensAllowed, \"AllowTokens: Daily Limit should be equal or bigger than Max Tokens\");\n        dailyLimit = _dailyLimit;\n        emit DailyLimitChanged(_dailyLimit);\n    }\n\n    // solium-disable-next-line max-len\n    function isValidTokenTransfer(address tokenToUse, uint amount, uint spentToday, bool isSideToken) external view returns (bool) {\n        if(amount > maxTokensAllowed)\n            return false;\n        if(amount < minTokensAllowed)\n            return false;\n        if (spentToday + amount > dailyLimit || spentToday + amount < spentToday)\n            return false;\n        if(!isSideToken && !isTokenAllowed(tokenToUse))\n            return false;\n        return true;\n    }\n\n    function calcMaxWithdraw(uint spentToday) external view returns (uint) {\n        uint maxWithrow = dailyLimit - spentToday;\n        if (dailyLimit < spentToday)\n            return 0;\n        if(maxWithrow > maxTokensAllowed)\n            maxWithrow = maxTokensAllowed;\n        return maxWithrow;\n    }\n\n}\n",
  "sourcePath": "/Users/pooh/sovryn/deploy_bridge/MAIN-ETH-RSK/Bridge-SC/sovryn-token-bridge/bridge/contracts/AllowTokens_v0.sol",
  "compiler": {
    "name": "solc",
    "version": "0.5.17+commit.d19bba13.Emscripten.clang"
  },
  "schemaVersion": "3.3.4",
  "updatedAt": "2021-05-22T15:19:18.855Z",
  "devdoc": {
    "methods": {
      "isOwner()": {
        "details": "Returns true if the caller is the current owner."
      },
      "owner()": {
        "details": "Returns the address of the current owner."
      },
      "renounceOwnership()": {
        "details": "Leaves the contract without owner. It will not be possible to call `onlyOwner` functions anymore. Can only be called by the current owner.     * NOTE: Renouncing ownership will leave the contract without an owner, thereby removing any functionality that is only available to the owner."
      },
      "transferOwnership(address)": {
        "details": "Transfers ownership of the contract to a new account (`newOwner`). Can only be called by the current owner."
      }
    }
  },
  "userdoc": {
    "methods": {}
  }
}