{
  "contractName": "AllowTokens",
  "abi": [
    {
      "inputs": [
        {
          "internalType": "address",
          "name": "_manager",
          "type": "address"
        }
      ],
      "payable": false,
      "stateMutability": "nonpayable",
      "type": "constructor"
    },
    {
      "anonymous": false,
      "inputs": [
        {
          "indexed": true,
          "internalType": "address",
          "name": "_tokenAddress",
          "type": "address"
        }
      ],
      "name": "AllowedTokenAdded",
      "type": "event"
    },
    {
      "anonymous": false,
      "inputs": [
        {
          "indexed": true,
          "internalType": "address",
          "name": "_tokenAddress",
          "type": "address"
        }
      ],
      "name": "AllowedTokenRemoved",
      "type": "event"
    },
    {
      "anonymous": false,
      "inputs": [
        {
          "indexed": false,
          "internalType": "bool",
          "name": "_enabled",
          "type": "bool"
        }
      ],
      "name": "AllowedTokenValidation",
      "type": "event"
    },
    {
      "anonymous": false,
      "inputs": [
        {
          "indexed": false,
          "internalType": "uint256",
          "name": "dailyLimit",
          "type": "uint256"
        }
      ],
      "name": "DailyLimitChanged",
      "type": "event"
    },
    {
      "anonymous": false,
      "inputs": [
        {
          "indexed": false,
          "internalType": "uint256",
          "name": "_maxTokens",
          "type": "uint256"
        }
      ],
      "name": "MaxTokensAllowedChanged",
      "type": "event"
    },
    {
      "anonymous": false,
      "inputs": [
        {
          "indexed": false,
          "internalType": "uint256",
          "name": "_minTokens",
          "type": "uint256"
        }
      ],
      "name": "MinTokensAllowedChanged",
      "type": "event"
    },
    {
      "anonymous": false,
      "inputs": [
        {
          "indexed": true,
          "internalType": "address",
          "name": "previousOwner",
          "type": "address"
        },
        {
          "indexed": true,
          "internalType": "address",
          "name": "newOwner",
          "type": "address"
        }
      ],
      "name": "OwnershipTransferred",
      "type": "event"
    },
    {
      "constant": true,
      "inputs": [
        {
          "internalType": "address",
          "name": "",
          "type": "address"
        }
      ],
      "name": "allowedTokens",
      "outputs": [
        {
          "internalType": "bool",
          "name": "",
          "type": "bool"
        }
      ],
      "payable": false,
      "stateMutability": "view",
      "type": "function"
    },
    {
      "constant": true,
      "inputs": [],
      "name": "dailyLimit",
      "outputs": [
        {
          "internalType": "uint256",
          "name": "",
          "type": "uint256"
        }
      ],
      "payable": false,
      "stateMutability": "view",
      "type": "function"
    },
    {
      "constant": true,
      "inputs": [],
      "name": "isOwner",
      "outputs": [
        {
          "internalType": "bool",
          "name": "",
          "type": "bool"
        }
      ],
      "payable": false,
      "stateMutability": "view",
      "type": "function"
    },
    {
      "constant": true,
      "inputs": [],
      "name": "owner",
      "outputs": [
        {
          "internalType": "address",
          "name": "",
          "type": "address"
        }
      ],
      "payable": false,
      "stateMutability": "view",
      "type": "function"
    },
    {
      "constant": false,
      "inputs": [],
      "name": "renounceOwnership",
      "outputs": [],
      "payable": false,
      "stateMutability": "nonpayable",
      "type": "function"
    },
    {
      "constant": false,
      "inputs": [
        {
          "internalType": "address",
          "name": "newOwner",
          "type": "address"
        }
      ],
      "name": "transferOwnership",
      "outputs": [],
      "payable": false,
      "stateMutability": "nonpayable",
      "type": "function"
    },
    {
      "constant": true,
      "inputs": [],
      "name": "isValidatingAllowedTokens",
      "outputs": [
        {
          "internalType": "bool",
          "name": "",
          "type": "bool"
        }
      ],
      "payable": false,
      "stateMutability": "view",
      "type": "function"
    },
    {
      "constant": true,
      "inputs": [],
      "name": "getMaxTokensAllowed",
      "outputs": [
        {
          "internalType": "uint256",
          "name": "",
          "type": "uint256"
        }
      ],
      "payable": false,
      "stateMutability": "view",
      "type": "function"
    },
    {
      "constant": true,
      "inputs": [],
      "name": "getMinTokensAllowed",
      "outputs": [
        {
          "internalType": "uint256",
          "name": "",
          "type": "uint256"
        }
      ],
      "payable": false,
      "stateMutability": "view",
      "type": "function"
    },
    {
      "constant": true,
      "inputs": [
        {
          "internalType": "address",
          "name": "token",
          "type": "address"
        }
      ],
      "name": "isTokenAllowed",
      "outputs": [
        {
          "internalType": "bool",
          "name": "",
          "type": "bool"
        }
      ],
      "payable": false,
      "stateMutability": "view",
      "type": "function"
    },
    {
      "constant": false,
      "inputs": [
        {
          "internalType": "address",
          "name": "token",
          "type": "address"
        }
      ],
      "name": "addAllowedToken",
      "outputs": [],
      "payable": false,
      "stateMutability": "nonpayable",
      "type": "function"
    },
    {
      "constant": false,
      "inputs": [
        {
          "internalType": "address",
          "name": "token",
          "type": "address"
        }
      ],
      "name": "removeAllowedToken",
      "outputs": [],
      "payable": false,
      "stateMutability": "nonpayable",
      "type": "function"
    },
    {
      "constant": false,
      "inputs": [],
      "name": "enableAllowedTokensValidation",
      "outputs": [],
      "payable": false,
      "stateMutability": "nonpayable",
      "type": "function"
    },
    {
      "constant": false,
      "inputs": [],
      "name": "disableAllowedTokensValidation",
      "outputs": [],
      "payable": false,
      "stateMutability": "nonpayable",
      "type": "function"
    },
    {
      "constant": false,
      "inputs": [
        {
          "internalType": "uint256",
          "name": "maxTokens",
          "type": "uint256"
        }
      ],
      "name": "setMaxTokensAllowed",
      "outputs": [],
      "payable": false,
      "stateMutability": "nonpayable",
      "type": "function"
    },
    {
      "constant": false,
      "inputs": [
        {
          "internalType": "uint256",
          "name": "minTokens",
          "type": "uint256"
        }
      ],
      "name": "setMinTokensAllowed",
      "outputs": [],
      "payable": false,
      "stateMutability": "nonpayable",
      "type": "function"
    },
    {
      "constant": false,
      "inputs": [
        {
          "internalType": "uint256",
          "name": "_dailyLimit",
          "type": "uint256"
        }
      ],
      "name": "changeDailyLimit",
      "outputs": [],
      "payable": false,
      "stateMutability": "nonpayable",
      "type": "function"
    },
    {
      "constant": true,
      "inputs": [
        {
          "internalType": "address",
          "name": "tokenToUse",
          "type": "address"
        },
        {
          "internalType": "uint256",
          "name": "amount",
          "type": "uint256"
        },
        {
          "internalType": "uint256",
          "name": "spentToday",
          "type": "uint256"
        },
        {
          "internalType": "bool",
          "name": "isSideToken",
          "type": "bool"
        }
      ],
      "name": "isValidTokenTransfer",
      "outputs": [
        {
          "internalType": "bool",
          "name": "",
          "type": "bool"
        }
      ],
      "payable": false,
      "stateMutability": "view",
      "type": "function"
    },
    {
      "constant": true,
      "inputs": [
        {
          "internalType": "uint256",
          "name": "spentToday",
          "type": "uint256"
        }
      ],
      "name": "calcMaxWithdraw",
      "outputs": [
        {
          "internalType": "uint256",
          "name": "",
          "type": "uint256"
        }
      ],
      "payable": false,
      "stateMutability": "view",
      "type": "function"
    }
  ],
  "bytecode": "0x60806040523480156200001157600080fd5b50604051620018b7380380620018b7833981810160405260208110156200003757600080fd5b8101908080519060200190929190505050620000586200017760201b60201c565b6000806101000a81548173ffffffffffffffffffffffffffffffffffffffff021916908373ffffffffffffffffffffffffffffffffffffffff1602179055506000809054906101000a900473ffffffffffffffffffffffffffffffffffffffff1673ffffffffffffffffffffffffffffffffffffffff16600073ffffffffffffffffffffffffffffffffffffffff167f8be0079c531659141344cd1fd0a4f28419497f9722a3daafe3b4186f6b6457e060405160405180910390a362000124816200017f60201b60201c565b6001600260006101000a81548160ff02191690831515021790555069021e19e0c9bab2400000600381905550670de0b6b3a764000060048190555069152d02c7e14af680000060058190555050620003c2565b600033905090565b6200018f6200021660201b60201c565b62000202576040517f08c379a00000000000000000000000000000000000000000000000000000000081526004018080602001828103825260208152602001807f4f776e61626c653a2063616c6c6572206973206e6f7420746865206f776e657281525060200191505060405180910390fd5b62000213816200027c60201b60201c565b50565b60008060009054906101000a900473ffffffffffffffffffffffffffffffffffffffff1673ffffffffffffffffffffffffffffffffffffffff16620002606200017760201b60201c565b73ffffffffffffffffffffffffffffffffffffffff1614905090565b600073ffffffffffffffffffffffffffffffffffffffff168173ffffffffffffffffffffffffffffffffffffffff16141562000304576040517f08c379a0000000000000000000000000000000000000000000000000000000008152600401808060200182810382526026815260200180620018916026913960400191505060405180910390fd5b8073ffffffffffffffffffffffffffffffffffffffff166000809054906101000a900473ffffffffffffffffffffffffffffffffffffffff1673ffffffffffffffffffffffffffffffffffffffff167f8be0079c531659141344cd1fd0a4f28419497f9722a3daafe3b4186f6b6457e060405160405180910390a3806000806101000a81548173ffffffffffffffffffffffffffffffffffffffff021916908373ffffffffffffffffffffffffffffffffffffffff16021790555050565b6114bf80620003d26000396000f3fe608060405234801561001057600080fd5b50600436106101215760003560e01c80638f32d59b116100ad578063cf66d5c511610071578063cf66d5c5146103c0578063e7374457146103de578063e744092e146103fc578063f2fde38b14610458578063f9eaee0d1461049c57610121565b80638f32d59b1461028e57806390469a9d146102b05780639a4819bc146102f4578063b2bb1a3a14610370578063cea086211461039257610121565b8063715018a6116100f4578063715018a6146101d457806377977f89146101de57806389827ed91461020c5780638aed8df5146102165780638da5cb5b1461024457610121565b80634178617f146101265780636066af8a1461016a57806367eeba0c14610174578063680dc64014610192575b600080fd5b6101686004803603602081101561013c57600080fd5b81019080803573ffffffffffffffffffffffffffffffffffffffff1690602001909291905050506104f8565b005b61017261066e565b005b61017c61074f565b6040518082815260200191505060405180910390f35b6101be600480360360208110156101a857600080fd5b8101908080359060200190929190505050610755565b6040518082815260200191505060405180910390f35b6101dc61078d565b005b61020a600480360360208110156101f457600080fd5b81019080803590602001909291905050506108c6565b005b6102146109de565b005b6102426004803603602081101561022c57600080fd5b8101908080359060200190929190505050610abf565b005b61024c610bd7565b604051808273ffffffffffffffffffffffffffffffffffffffff1673ffffffffffffffffffffffffffffffffffffffff16815260200191505060405180910390f35b610296610c00565b604051808215151515815260200191505060405180910390f35b6102f2600480360360208110156102c657600080fd5b81019080803573ffffffffffffffffffffffffffffffffffffffff169060200190929190505050610c5e565b005b6103566004803603608081101561030a57600080fd5b81019080803573ffffffffffffffffffffffffffffffffffffffff1690602001909291908035906020019092919080359060200190929190803515159060200190929190505050610dd4565b604051808215151515815260200191505060405180910390f35b610378610e4c565b604051808215151515815260200191505060405180910390f35b6103be600480360360208110156103a857600080fd5b8101908080359060200190929190505050610e63565b005b6103c8610f79565b6040518082815260200191505060405180910390f35b6103e6610f83565b6040518082815260200191505060405180910390f35b61043e6004803603602081101561041257600080fd5b81019080803573ffffffffffffffffffffffffffffffffffffffff169060200190929190505050610f8d565b604051808215151515815260200191505060405180910390f35b61049a6004803603602081101561046e57600080fd5b81019080803573ffffffffffffffffffffffffffffffffffffffff169060200190929190505050610fad565b005b6104de600480360360208110156104b257600080fd5b81019080803573ffffffffffffffffffffffffffffffffffffffff169060200190929190505050611033565b604051808215151515815260200191505060405180910390f35b610500610c00565b610572576040517f08c379a00000000000000000000000000000000000000000000000000000000081526004018080602001828103825260208152602001807f4f776e61626c653a2063616c6c6572206973206e6f7420746865206f776e657281525060200191505060405180910390fd5b61057b816110ec565b156105d1576040517f08c379a000000000000000000000000000000000000000000000000000000000815260040180806020018281038252603281526020018061137f6032913960400191505060405180910390fd5b60018060008373ffffffffffffffffffffffffffffffffffffffff1673ffffffffffffffffffffffffffffffffffffffff16815260200190815260200160002060006101000a81548160ff0219169083151502179055508073ffffffffffffffffffffffffffffffffffffffff167ff849d00bc67e9e4bf072df9680646c59b8c5380160834c2e1d4896ce5ec81f7560405160405180910390a250565b610676610c00565b6106e8576040517f08c379a00000000000000000000000000000000000000000000000000000000081526004018080602001828103825260208152602001807f4f776e61626c653a2063616c6c6572206973206e6f7420746865206f776e657281525060200191505060405180910390fd5b6001600260006101000a81548160ff0219169083151502179055507f56c494debe2cb09344893898449050dd58a4432e66f95108d729ad21ccfd19e7600260009054906101000a900460ff16604051808215151515815260200191505060405180910390a1565b60055481565b60008082600554039050826005541015610773576000915050610788565b6003548111156107835760035490505b809150505b919050565b610795610c00565b610807576040517f08c379a00000000000000000000000000000000000000000000000000000000081526004018080602001828103825260208152602001807f4f776e61626c653a2063616c6c6572206973206e6f7420746865206f776e657281525060200191505060405180910390fd5b600073ffffffffffffffffffffffffffffffffffffffff166000809054906101000a900473ffffffffffffffffffffffffffffffffffffffff1673ffffffffffffffffffffffffffffffffffffffff167f8be0079c531659141344cd1fd0a4f28419497f9722a3daafe3b4186f6b6457e060405160405180910390a360008060006101000a81548173ffffffffffffffffffffffffffffffffffffffff021916908373ffffffffffffffffffffffffffffffffffffffff160217905550565b6108ce610c00565b610940576040517f08c379a00000000000000000000000000000000000000000000000000000000081526004018080602001828103825260208152602001807f4f776e61626c653a2063616c6c6572206973206e6f7420746865206f776e657281525060200191505060405180910390fd5b80600354101561099b576040517f08c379a00000000000000000000000000000000000000000000000000000000081526004018080602001828103825260428152602001806113b16042913960600191505060405180910390fd5b806004819055507f12a646d3bbffa271e4444ba46156444c17a66ed892618d27ddfda6189622ae446004546040518082815260200191505060405180910390a150565b6109e6610c00565b610a58576040517f08c379a00000000000000000000000000000000000000000000000000000000081526004018080602001828103825260208152602001807f4f776e61626c653a2063616c6c6572206973206e6f7420746865206f776e657281525060200191505060405180910390fd5b6000600260006101000a81548160ff0219169083151502179055507f56c494debe2cb09344893898449050dd58a4432e66f95108d729ad21ccfd19e7600260009054906101000a900460ff16604051808215151515815260200191505060405180910390a1565b610ac7610c00565b610b39576040517f08c379a00000000000000000000000000000000000000000000000000000000081526004018080602001828103825260208152602001807f4f776e61626c653a2063616c6c6572206973206e6f7420746865206f776e657281525060200191505060405180910390fd5b600454811015610b94576040517f08c379a00000000000000000000000000000000000000000000000000000000081526004018080602001828103825260418152602001806114176041913960600191505060405180910390fd5b806003819055507fd71e2baa82a5d055fc51d591360ec316a059192a353993a9cec6a85e88d4e1da6003546040518082815260200191505060405180910390a150565b60008060009054906101000a900473ffffffffffffffffffffffffffffffffffffffff16905090565b60008060009054906101000a900473ffffffffffffffffffffffffffffffffffffffff1673ffffffffffffffffffffffffffffffffffffffff16610c426111ca565b73ffffffffffffffffffffffffffffffffffffffff1614905090565b610c66610c00565b610cd8576040517f08c379a00000000000000000000000000000000000000000000000000000000081526004018080602001828103825260208152602001807f4f776e61626c653a2063616c6c6572206973206e6f7420746865206f776e657281525060200191505060405180910390fd5b610ce1816110ec565b610d36576040517f08c379a00000000000000000000000000000000000000000000000000000000081526004018080602001828103825260338152602001806114586033913960400191505060405180910390fd5b6000600160008373ffffffffffffffffffffffffffffffffffffffff1673ffffffffffffffffffffffffffffffffffffffff16815260200190815260200160002060006101000a81548160ff0219169083151502179055508073ffffffffffffffffffffffffffffffffffffffff167fbf996b4fd74f0c7159bb017b1db415b0d9a6f13129f46d0b93309d170b78df3160405160405180910390a250565b6000600354841115610de95760009050610e44565b600454841015610dfc5760009050610e44565b6005548484011180610e0f575082848401105b15610e1d5760009050610e44565b81158015610e315750610e2f85611033565b155b15610e3f5760009050610e44565b600190505b949350505050565b6000600260009054906101000a900460ff16905090565b610e6b610c00565b610edd576040517f08c379a00000000000000000000000000000000000000000000000000000000081526004018080602001828103825260208152602001807f4f776e61626c653a2063616c6c6572206973206e6f7420746865206f776e657281525060200191505060405180910390fd5b600354811015610f38576040517f08c379a00000000000000000000000000000000000000000000000000000000081526004018080602001828103825260428152602001806113176042913960600191505060405180910390fd5b806005819055507fad4123ae17c414d9c6d2fec478b402e6b01856cc250fd01fbfd252fda0089d3c816040518082815260200191505060405180910390a150565b6000600354905090565b6000600454905090565b60016020528060005260406000206000915054906101000a900460ff1681565b610fb5610c00565b611027576040517f08c379a00000000000000000000000000000000000000000000000000000000081526004018080602001828103825260208152602001807f4f776e61626c653a2063616c6c6572206973206e6f7420746865206f776e657281525060200191505060405180910390fd5b611030816111d2565b50565b600081600073ffffffffffffffffffffffffffffffffffffffff168173ffffffffffffffffffffffffffffffffffffffff1614156110bc576040517f08c379a00000000000000000000000000000000000000000000000000000000081526004018080602001828103825260248152602001806113f36024913960400191505060405180910390fd5b600260009054906101000a900460ff16156110e1576110da836110ec565b91506110e6565b600191505b50919050565b600081600073ffffffffffffffffffffffffffffffffffffffff168173ffffffffffffffffffffffffffffffffffffffff161415611175576040517f08c379a00000000000000000000000000000000000000000000000000000000081526004018080602001828103825260248152602001806113f36024913960400191505060405180910390fd5b600160008473ffffffffffffffffffffffffffffffffffffffff1673ffffffffffffffffffffffffffffffffffffffff16815260200190815260200160002060009054906101000a900460ff16915050919050565b600033905090565b600073ffffffffffffffffffffffffffffffffffffffff168173ffffffffffffffffffffffffffffffffffffffff161415611258576040517f08c379a00000000000000000000000000000000000000000000000000000000081526004018080602001828103825260268152602001806113596026913960400191505060405180910390fd5b8073ffffffffffffffffffffffffffffffffffffffff166000809054906101000a900473ffffffffffffffffffffffffffffffffffffffff1673ffffffffffffffffffffffffffffffffffffffff167f8be0079c531659141344cd1fd0a4f28419497f9722a3daafe3b4186f6b6457e060405160405180910390a3806000806101000a81548173ffffffffffffffffffffffffffffffffffffffff021916908373ffffffffffffffffffffffffffffffffffffffff1602179055505056fe416c6c6f77546f6b656e733a204461696c79204c696d69742073686f756c6420626520657175616c206f7220626967676572207468616e204d617820546f6b656e734f776e61626c653a206e6577206f776e657220697320746865207a65726f2061646472657373416c6c6f77546f6b656e733a20546f6b656e20616c72656164792065786973747320696e20616c6c6f776564546f6b656e73416c6c6f77546f6b656e733a204d696e20546f6b656e732073686f756c6420626520657175616c206f7220736d616c6c6572207468616e204d617820546f6b656e73416c6c6f77546f6b656e733a20416464726573732063616e6e6f7420626520656d707479416c6c6f77546f6b656e733a204d617820546f6b656e732073686f756c6420626520657175616c206f7220626967676572207468616e204d696e20546f6b656e73416c6c6f77546f6b656e733a20546f6b656e20646f6573206e6f7420657869732020696e20616c6c6f776564546f6b656e7374a265627a7a723158205f55bec6b6627bfc44806950c3a5b7ed70cff2af86511c47fab65a47d97152cb64736f6c634300051100324f776e61626c653a206e6577206f776e657220697320746865207a65726f2061646472657373",
  "source": "pragma solidity >=0.4.21 <0.6.0;\n\nimport \"./zeppelin/math/SafeMath.sol\";\nimport \"./zeppelin/ownership/Ownable.sol\";\n\ncontract AllowTokens is Ownable {\n    using SafeMath for uint256;\n\n    address constant private NULL_ADDRESS = address(0);\n\n    mapping (address => bool) public allowedTokens;\n    bool private validateAllowedTokens;\n    uint256 private maxTokensAllowed;\n    uint256 private minTokensAllowed;\n    uint256 public dailyLimit;\n\n    event AllowedTokenAdded(address indexed _tokenAddress);\n    event AllowedTokenRemoved(address indexed _tokenAddress);\n    event AllowedTokenValidation(bool _enabled);\n    event MaxTokensAllowedChanged(uint256 _maxTokens);\n    event MinTokensAllowedChanged(uint256 _minTokens);\n    event DailyLimitChanged(uint256 dailyLimit);\n\n    modifier notNull(address _address) {\n        require(_address != NULL_ADDRESS, \"AllowTokens: Address cannot be empty\");\n        _;\n    }\n\n    constructor(address _manager) public  {\n        transferOwnership(_manager);\n        validateAllowedTokens = true;\n        maxTokensAllowed = 10000 ether;\n        minTokensAllowed = 1 ether;\n        dailyLimit = 100000 ether;\n    }\n\n    function isValidatingAllowedTokens() external view returns(bool) {\n        return validateAllowedTokens;\n    }\n\n    function getMaxTokensAllowed() external view returns(uint256) {\n        return maxTokensAllowed;\n    }\n\n    function getMinTokensAllowed() external view returns(uint256) {\n        return minTokensAllowed;\n    }\n\n    function allowedTokenExist(address token) private view notNull(token) returns (bool) {\n        return allowedTokens[token];\n    }\n\n    function isTokenAllowed(address token) public view notNull(token) returns (bool) {\n        if (validateAllowedTokens) {\n            return allowedTokenExist(token);\n        }\n        return true;\n    }\n\n    function addAllowedToken(address token) external onlyOwner {\n        require(!allowedTokenExist(token), \"AllowTokens: Token already exists in allowedTokens\");\n        allowedTokens[token] = true;\n        emit AllowedTokenAdded(token);\n    }\n\n    function removeAllowedToken(address token) external onlyOwner {\n        require(allowedTokenExist(token), \"AllowTokens: Token does not exis  in allowedTokenst\");\n        allowedTokens[token] = false;\n        emit AllowedTokenRemoved(token);\n    }\n\n    function enableAllowedTokensValidation() external onlyOwner {\n        validateAllowedTokens = true;\n        emit AllowedTokenValidation(validateAllowedTokens);\n    }\n\n    function disableAllowedTokensValidation() external onlyOwner {\n        // Before disabling Allowed Tokens Validations some kind of contract validation system\n        // should be implemented on the Bridge for the methods receiveTokens, tokenFallback and tokensReceived\n        validateAllowedTokens = false;\n        emit AllowedTokenValidation(validateAllowedTokens);\n    }\n\n    function setMaxTokensAllowed(uint256 maxTokens) external onlyOwner {\n        require(maxTokens >= minTokensAllowed, \"AllowTokens: Max Tokens should be equal or bigger than Min Tokens\");\n        maxTokensAllowed = maxTokens;\n        emit MaxTokensAllowedChanged(maxTokensAllowed);\n    }\n\n    function setMinTokensAllowed(uint256 minTokens) external onlyOwner {\n        require(maxTokensAllowed >= minTokens, \"AllowTokens: Min Tokens should be equal or smaller than Max Tokens\");\n        minTokensAllowed = minTokens;\n        emit MinTokensAllowedChanged(minTokensAllowed);\n    }\n\n    function changeDailyLimit(uint256 _dailyLimit) external onlyOwner {\n        require(_dailyLimit >= maxTokensAllowed, \"AllowTokens: Daily Limit should be equal or bigger than Max Tokens\");\n        dailyLimit = _dailyLimit;\n        emit DailyLimitChanged(_dailyLimit);\n    }\n\n    // solium-disable-next-line max-len\n    function isValidTokenTransfer(address tokenToUse, uint amount, uint spentToday, bool isSideToken) external view returns (bool) {\n        if(amount > maxTokensAllowed)\n            return false;\n        if(amount < minTokensAllowed)\n            return false;\n        if (spentToday + amount > dailyLimit || spentToday + amount < spentToday)\n            return false;\n        if(!isSideToken && !isTokenAllowed(tokenToUse))\n            return false;\n        return true;\n    }\n\n    function calcMaxWithdraw(uint spentToday) external view returns (uint) {\n        uint maxWithrow = dailyLimit - spentToday;\n        if (dailyLimit < spentToday)\n            return 0;\n        if(maxWithrow > maxTokensAllowed)\n            maxWithrow = maxTokensAllowed;\n        return maxWithrow;\n    }\n\n}\n",
  "sourcePath": "/Users/pooh/sovryn/deploy_bridge/RSK-BSC-Prefix/Bridge-SC/sovryn-token-bridge/bridge/contracts/AllowTokens.sol",
  "compiler": {
    "name": "solc",
    "version": "0.5.17+commit.d19bba13.Emscripten.clang"
  },
  "schemaVersion": "3.3.3",
  "updatedAt": "2021-04-20T11:31:17.860Z",
  "networkType": "ethereum",
  "devdoc": {
    "methods": {
      "isOwner()": {
        "details": "Returns true if the caller is the current owner."
      },
      "owner()": {
        "details": "Returns the address of the current owner."
      },
      "renounceOwnership()": {
        "details": "Leaves the contract without owner. It will not be possible to call `onlyOwner` functions anymore. Can only be called by the current owner.     * NOTE: Renouncing ownership will leave the contract without an owner, thereby removing any functionality that is only available to the owner."
      },
      "transferOwnership(address)": {
        "details": "Transfers ownership of the contract to a new account (`newOwner`). Can only be called by the current owner."
      }
    }
  },
  "userdoc": {
    "methods": {}
  }
}