{
  "contractName": "Bridge_v0",
  "abi": [
    {
      "anonymous": false,
      "inputs": [
        {
          "indexed": true,
          "internalType": "address",
          "name": "_tokenAddress",
          "type": "address"
        },
        {
          "indexed": true,
          "internalType": "address",
          "name": "_to",
          "type": "address"
        },
        {
          "indexed": false,
          "internalType": "uint256",
          "name": "_amount",
          "type": "uint256"
        }
      ],
      "name": "AcceptedCrossTransfer",
      "type": "event"
    },
    {
      "anonymous": false,
      "inputs": [
        {
          "indexed": true,
          "internalType": "address",
          "name": "_tokenAddress",
          "type": "address"
        },
        {
          "indexed": true,
          "internalType": "address",
          "name": "_to",
          "type": "address"
        },
        {
          "indexed": false,
          "internalType": "uint256",
          "name": "_amount",
          "type": "uint256"
        },
        {
          "indexed": false,
          "internalType": "string",
          "name": "_symbol",
          "type": "string"
        },
        {
          "indexed": false,
          "internalType": "bytes",
          "name": "userData",
          "type": "bytes"
        }
      ],
      "name": "Cross",
      "type": "event"
    },
    {
      "anonymous": false,
      "inputs": [
        {
          "indexed": false,
          "internalType": "uint256",
          "name": "_amount",
          "type": "uint256"
        }
      ],
      "name": "CrossingPaymentChanged",
      "type": "event"
    },
    {
      "anonymous": false,
      "inputs": [
        {
          "indexed": false,
          "internalType": "address",
          "name": "_newFederation",
          "type": "address"
        }
      ],
      "name": "FederationChanged",
      "type": "event"
    },
    {
      "anonymous": false,
      "inputs": [
        {
          "indexed": true,
          "internalType": "address",
          "name": "_newSideTokenAddress",
          "type": "address"
        },
        {
          "indexed": true,
          "internalType": "address",
          "name": "_originalTokenAddress",
          "type": "address"
        },
        {
          "indexed": false,
          "internalType": "string",
          "name": "_newSymbol",
          "type": "string"
        }
      ],
      "name": "NewSideToken",
      "type": "event"
    },
    {
      "anonymous": false,
      "inputs": [
        {
          "indexed": true,
          "internalType": "address",
          "name": "previousOwner",
          "type": "address"
        },
        {
          "indexed": true,
          "internalType": "address",
          "name": "newOwner",
          "type": "address"
        }
      ],
      "name": "OwnershipTransferred",
      "type": "event"
    },
    {
      "anonymous": false,
      "inputs": [
        {
          "indexed": false,
          "internalType": "address",
          "name": "account",
          "type": "address"
        }
      ],
      "name": "Paused",
      "type": "event"
    },
    {
      "anonymous": false,
      "inputs": [
        {
          "indexed": true,
          "internalType": "address",
          "name": "account",
          "type": "address"
        }
      ],
      "name": "PauserAdded",
      "type": "event"
    },
    {
      "anonymous": false,
      "inputs": [
        {
          "indexed": true,
          "internalType": "address",
          "name": "account",
          "type": "address"
        }
      ],
      "name": "PauserRemoved",
      "type": "event"
    },
    {
      "anonymous": false,
      "inputs": [
        {
          "indexed": false,
          "internalType": "address",
          "name": "account",
          "type": "address"
        }
      ],
      "name": "Unpaused",
      "type": "event"
    },
    {
      "constant": false,
      "inputs": [
        {
          "internalType": "address",
          "name": "account",
          "type": "address"
        }
      ],
      "name": "addPauser",
      "outputs": [],
      "payable": false,
      "stateMutability": "nonpayable",
      "type": "function"
    },
    {
      "constant": true,
      "inputs": [],
      "name": "allowTokens",
      "outputs": [
        {
          "internalType": "contract AllowTokens_v0",
          "name": "",
          "type": "address"
        }
      ],
      "payable": false,
      "stateMutability": "view",
      "type": "function"
    },
    {
      "constant": true,
      "inputs": [],
      "name": "isOwner",
      "outputs": [
        {
          "internalType": "bool",
          "name": "",
          "type": "bool"
        }
      ],
      "payable": false,
      "stateMutability": "view",
      "type": "function"
    },
    {
      "constant": true,
      "inputs": [
        {
          "internalType": "address",
          "name": "account",
          "type": "address"
        }
      ],
      "name": "isPauser",
      "outputs": [
        {
          "internalType": "bool",
          "name": "",
          "type": "bool"
        }
      ],
      "payable": false,
      "stateMutability": "view",
      "type": "function"
    },
    {
      "constant": true,
      "inputs": [
        {
          "internalType": "address",
          "name": "",
          "type": "address"
        }
      ],
      "name": "knownTokens",
      "outputs": [
        {
          "internalType": "bool",
          "name": "",
          "type": "bool"
        }
      ],
      "payable": false,
      "stateMutability": "view",
      "type": "function"
    },
    {
      "constant": true,
      "inputs": [],
      "name": "lastDay",
      "outputs": [
        {
          "internalType": "uint256",
          "name": "",
          "type": "uint256"
        }
      ],
      "payable": false,
      "stateMutability": "view",
      "type": "function"
    },
    {
      "constant": true,
      "inputs": [
        {
          "internalType": "address",
          "name": "",
          "type": "address"
        }
      ],
      "name": "mappedTokens",
      "outputs": [
        {
          "internalType": "contract SideToken_v0",
          "name": "",
          "type": "address"
        }
      ],
      "payable": false,
      "stateMutability": "view",
      "type": "function"
    },
    {
      "constant": true,
      "inputs": [
        {
          "internalType": "address",
          "name": "",
          "type": "address"
        }
      ],
      "name": "originalTokens",
      "outputs": [
        {
          "internalType": "address",
          "name": "",
          "type": "address"
        }
      ],
      "payable": false,
      "stateMutability": "view",
      "type": "function"
    },
    {
      "constant": true,
      "inputs": [],
      "name": "owner",
      "outputs": [
        {
          "internalType": "address",
          "name": "",
          "type": "address"
        }
      ],
      "payable": false,
      "stateMutability": "view",
      "type": "function"
    },
    {
      "constant": false,
      "inputs": [],
      "name": "pause",
      "outputs": [],
      "payable": false,
      "stateMutability": "nonpayable",
      "type": "function"
    },
    {
      "constant": true,
      "inputs": [],
      "name": "paused",
      "outputs": [
        {
          "internalType": "bool",
          "name": "",
          "type": "bool"
        }
      ],
      "payable": false,
      "stateMutability": "view",
      "type": "function"
    },
    {
      "constant": false,
      "inputs": [],
      "name": "renounceOwnership",
      "outputs": [],
      "payable": false,
      "stateMutability": "nonpayable",
      "type": "function"
    },
    {
      "constant": false,
      "inputs": [],
      "name": "renouncePauser",
      "outputs": [],
      "payable": false,
      "stateMutability": "nonpayable",
      "type": "function"
    },
    {
      "constant": true,
      "inputs": [],
      "name": "sideTokenFactory",
      "outputs": [
        {
          "internalType": "contract SideTokenFactory_v0",
          "name": "",
          "type": "address"
        }
      ],
      "payable": false,
      "stateMutability": "view",
      "type": "function"
    },
    {
      "constant": true,
      "inputs": [],
      "name": "spentToday",
      "outputs": [
        {
          "internalType": "uint256",
          "name": "",
          "type": "uint256"
        }
      ],
      "payable": false,
      "stateMutability": "view",
      "type": "function"
    },
    {
      "constant": true,
      "inputs": [],
      "name": "symbolPrefix",
      "outputs": [
        {
          "internalType": "string",
          "name": "",
          "type": "string"
        }
      ],
      "payable": false,
      "stateMutability": "view",
      "type": "function"
    },
    {
      "constant": false,
      "inputs": [
        {
          "internalType": "address",
          "name": "newOwner",
          "type": "address"
        }
      ],
      "name": "transferOwnership",
      "outputs": [],
      "payable": false,
      "stateMutability": "nonpayable",
      "type": "function"
    },
    {
      "constant": false,
      "inputs": [],
      "name": "unpause",
      "outputs": [],
      "payable": false,
      "stateMutability": "nonpayable",
      "type": "function"
    },
    {
      "constant": false,
      "inputs": [
        {
          "internalType": "address",
          "name": "sender",
          "type": "address"
        }
      ],
      "name": "initialize",
      "outputs": [],
      "payable": false,
      "stateMutability": "nonpayable",
      "type": "function"
    },
    {
      "constant": false,
      "inputs": [],
      "name": "initialize",
      "outputs": [],
      "payable": false,
      "stateMutability": "nonpayable",
      "type": "function"
    },
    {
      "constant": false,
      "inputs": [
        {
          "internalType": "address",
          "name": "_manager",
          "type": "address"
        },
        {
          "internalType": "address",
          "name": "_federation",
          "type": "address"
        },
        {
          "internalType": "address",
          "name": "_allowTokens",
          "type": "address"
        },
        {
          "internalType": "address",
          "name": "_sideTokenFactory",
          "type": "address"
        },
        {
          "internalType": "string",
          "name": "_symbolPrefix",
          "type": "string"
        }
      ],
      "name": "initialize",
      "outputs": [],
      "payable": false,
      "stateMutability": "nonpayable",
      "type": "function"
    },
    {
      "constant": true,
      "inputs": [],
      "name": "version",
      "outputs": [
        {
          "internalType": "string",
          "name": "",
          "type": "string"
        }
      ],
      "payable": false,
      "stateMutability": "pure",
      "type": "function"
    },
    {
      "constant": false,
      "inputs": [
        {
          "internalType": "address",
          "name": "tokenAddress",
          "type": "address"
        },
        {
          "internalType": "address",
          "name": "receiver",
          "type": "address"
        },
        {
          "internalType": "uint256",
          "name": "amount",
          "type": "uint256"
        },
        {
          "internalType": "string",
          "name": "symbol",
          "type": "string"
        },
        {
          "internalType": "bytes32",
          "name": "blockHash",
          "type": "bytes32"
        },
        {
          "internalType": "bytes32",
          "name": "transactionHash",
          "type": "bytes32"
        },
        {
          "internalType": "uint32",
          "name": "logIndex",
          "type": "uint32"
        }
      ],
      "name": "acceptTransfer",
      "outputs": [
        {
          "internalType": "bool",
          "name": "",
          "type": "bool"
        }
      ],
      "payable": false,
      "stateMutability": "nonpayable",
      "type": "function"
    },
    {
      "constant": false,
      "inputs": [
        {
          "internalType": "address",
          "name": "tokenToUse",
          "type": "address"
        },
        {
          "internalType": "uint256",
          "name": "amount",
          "type": "uint256"
        }
      ],
      "name": "receiveTokens",
      "outputs": [
        {
          "internalType": "bool",
          "name": "",
          "type": "bool"
        }
      ],
      "payable": true,
      "stateMutability": "payable",
      "type": "function"
    },
    {
      "constant": false,
      "inputs": [
        {
          "internalType": "address",
          "name": "from",
          "type": "address"
        },
        {
          "internalType": "uint256",
          "name": "amount",
          "type": "uint256"
        },
        {
          "internalType": "bytes",
          "name": "userData",
          "type": "bytes"
        }
      ],
      "name": "tokenFallback",
      "outputs": [
        {
          "internalType": "bool",
          "name": "",
          "type": "bool"
        }
      ],
      "payable": false,
      "stateMutability": "nonpayable",
      "type": "function"
    },
    {
      "constant": false,
      "inputs": [
        {
          "internalType": "address",
          "name": "operator",
          "type": "address"
        },
        {
          "internalType": "address",
          "name": "from",
          "type": "address"
        },
        {
          "internalType": "address",
          "name": "to",
          "type": "address"
        },
        {
          "internalType": "uint256",
          "name": "amount",
          "type": "uint256"
        },
        {
          "internalType": "bytes",
          "name": "userData",
          "type": "bytes"
        },
        {
          "internalType": "bytes",
          "name": "",
          "type": "bytes"
        }
      ],
      "name": "tokensReceived",
      "outputs": [],
      "payable": false,
      "stateMutability": "nonpayable",
      "type": "function"
    },
    {
      "constant": true,
      "inputs": [
        {
          "internalType": "address",
          "name": "token",
          "type": "address"
        }
      ],
      "name": "isSideToken",
      "outputs": [
        {
          "internalType": "bool",
          "name": "",
          "type": "bool"
        }
      ],
      "payable": false,
      "stateMutability": "view",
      "type": "function"
    },
    {
      "constant": true,
      "inputs": [
        {
          "internalType": "bytes32",
          "name": "_blockHash",
          "type": "bytes32"
        },
        {
          "internalType": "bytes32",
          "name": "_transactionHash",
          "type": "bytes32"
        },
        {
          "internalType": "address",
          "name": "_receiver",
          "type": "address"
        },
        {
          "internalType": "uint256",
          "name": "_amount",
          "type": "uint256"
        },
        {
          "internalType": "uint32",
          "name": "_logIndex",
          "type": "uint32"
        }
      ],
      "name": "getTransactionId",
      "outputs": [
        {
          "internalType": "bytes32",
          "name": "",
          "type": "bytes32"
        }
      ],
      "payable": false,
      "stateMutability": "pure",
      "type": "function"
    },
    {
      "constant": true,
      "inputs": [
        {
          "internalType": "bytes32",
          "name": "_blockHash",
          "type": "bytes32"
        },
        {
          "internalType": "bytes32",
          "name": "_transactionHash",
          "type": "bytes32"
        },
        {
          "internalType": "address",
          "name": "_receiver",
          "type": "address"
        },
        {
          "internalType": "uint256",
          "name": "_amount",
          "type": "uint256"
        },
        {
          "internalType": "uint32",
          "name": "_logIndex",
          "type": "uint32"
        }
      ],
      "name": "transactionWasProcessed",
      "outputs": [
        {
          "internalType": "bool",
          "name": "",
          "type": "bool"
        }
      ],
      "payable": false,
      "stateMutability": "view",
      "type": "function"
    },
    {
      "constant": false,
      "inputs": [
        {
          "internalType": "uint256",
          "name": "amount",
          "type": "uint256"
        }
      ],
      "name": "setCrossingPayment",
      "outputs": [],
      "payable": false,
      "stateMutability": "nonpayable",
      "type": "function"
    },
    {
      "constant": true,
      "inputs": [],
      "name": "getCrossingPayment",
      "outputs": [
        {
          "internalType": "uint256",
          "name": "",
          "type": "uint256"
        }
      ],
      "payable": false,
      "stateMutability": "view",
      "type": "function"
    },
    {
      "constant": true,
      "inputs": [],
      "name": "calcMaxWithdraw",
      "outputs": [
        {
          "internalType": "uint256",
          "name": "",
          "type": "uint256"
        }
      ],
      "payable": false,
      "stateMutability": "view",
      "type": "function"
    },
    {
      "constant": false,
      "inputs": [
        {
          "internalType": "address",
          "name": "newFederation",
          "type": "address"
        }
      ],
      "name": "changeFederation",
      "outputs": [],
      "payable": false,
      "stateMutability": "nonpayable",
      "type": "function"
    },
    {
      "constant": true,
      "inputs": [],
      "name": "getFederation",
      "outputs": [
        {
          "internalType": "address",
          "name": "",
          "type": "address"
        }
      ],
      "payable": false,
      "stateMutability": "view",
      "type": "function"
    }
  ],
  "bytecode": "0x60806040526134fc806100136000396000f3fe6080604052600436106101f85760003560e01c80637da1f8511161010d578063c0ee0b8a116100a0578063ea2170911161006f578063ea21709114610924578063f059cf2b14610939578063f2fde38b1461094e578063f74032f014610981578063fa0caa16146109b4576101f8565b8063c0ee0b8a146107dd578063c4d66de81461086d578063e6ede14d146108a0578063e8340a99146108d3576101f8565b80638da5cb5b116100dc5780638da5cb5b1461076d5780638f32d59b1461079e578063a53d6e6e146107b3578063b86f60d2146107c8576101f8565b80637da1f851146106e65780638129fc1c1461071057806382dc1ec4146107255780638456cb5914610758576101f8565b80634dae8202116101905780635c975abb1161015f5780635c975abb1461065f5780635d447129146106745780636b0c932d146106a75780636ef8d66d146106bc578063715018a6146106d1576101f8565b80634dae82021461055a57806354fd4d50146105ab57806355d7dacb1461063557806359a8a8671461064a576101f8565b80633f4ba83a116101cc5780633f4ba83a146104b857806346fbf68e146104cd5780634bc9fdc2146105005780634d6df7f214610527576101f8565b806223de29146101fd5780631ed408a6146102f25780632fb3b361146103b3578063357291301461048c575b600080fd5b34801561020957600080fd5b506102f0600480360360c081101561022057600080fd5b6001600160a01b03823581169260208101358216926040820135909216916060820135919081019060a081016080820135600160201b81111561026257600080fd5b82018360208201111561027457600080fd5b803590602001918460018302840111600160201b8311171561029557600080fd5b919390929091602081019035600160201b8111156102b257600080fd5b8201836020820111156102c457600080fd5b803590602001918460018302840111600160201b831117156102e557600080fd5b5090925090506109e7565b005b3480156102fe57600080fd5b5061039f600480360360e081101561031557600080fd5b6001600160a01b03823581169260208101359091169160408201359190810190608081016060820135600160201b81111561034f57600080fd5b82018360208201111561036157600080fd5b803590602001918460018302840111600160201b8311171561038257600080fd5b91935091508035906020810135906040013563ffffffff16610b31565b604080519115158252519081900360200190f35b3480156103bf57600080fd5b506102f0600480360360a08110156103d657600080fd5b6001600160a01b03823581169260208101358216926040820135831692606083013516919081019060a081016080820135600160201b81111561041857600080fd5b82018360208201111561042a57600080fd5b803590602001918460018302840111600160201b8311171561044b57600080fd5b91908080601f016020809104026020016040519081016040528093929190818152602001838380828437600092019190915250929550611003945050505050565b61039f600480360360408110156104a257600080fd5b506001600160a01b0381351690602001356112e4565b3480156104c457600080fd5b506102f061143a565b3480156104d957600080fd5b5061039f600480360360208110156104f057600080fd5b50356001600160a01b0316611523565b34801561050c57600080fd5b5061051561153c565b60408051918252519081900360200190f35b34801561053357600080fd5b5061039f6004803603602081101561054a57600080fd5b50356001600160a01b03166115d5565b34801561056657600080fd5b5061039f600480360360a081101561057d57600080fd5b5080359060208101359060408101356001600160a01b0316906060810135906080013563ffffffff166115f5565b3480156105b757600080fd5b506105c0611622565b6040805160208082528351818301528351919283929083019185019080838360005b838110156105fa5781810151838201526020016105e2565b50505050905090810190601f1680156106275780820380516001836020036101000a031916815260200191505b509250505060405180910390f35b34801561064157600080fd5b5061051561163e565b34801561065657600080fd5b506105c0611644565b34801561066b57600080fd5b5061039f6116d2565b34801561068057600080fd5b5061039f6004803603602081101561069757600080fd5b50356001600160a01b03166116db565b3480156106b357600080fd5b506105156116f0565b3480156106c857600080fd5b506102f06116f6565b3480156106dd57600080fd5b506102f0611708565b3480156106f257600080fd5b506102f06004803603602081101561070957600080fd5b503561179f565b34801561071c57600080fd5b506102f061186c565b34801561073157600080fd5b506102f06004803603602081101561074857600080fd5b50356001600160a01b0316611913565b34801561076457600080fd5b506102f0611962565b34801561077957600080fd5b50610782611a29565b604080516001600160a01b039092168252519081900360200190f35b3480156107aa57600080fd5b5061039f611a3d565b3480156107bf57600080fd5b50610782611a68565b3480156107d457600080fd5b50610782611a77565b3480156107e957600080fd5b5061039f6004803603606081101561080057600080fd5b6001600160a01b0382351691602081013591810190606081016040820135600160201b81111561082f57600080fd5b82018360208201111561084157600080fd5b803590602001918460018302840111600160201b8311171561086257600080fd5b509092509050611a86565b34801561087957600080fd5b506102f06004803603602081101561089057600080fd5b50356001600160a01b0316611bbf565b3480156108ac57600080fd5b50610782600480360360208110156108c357600080fd5b50356001600160a01b0316611cb8565b3480156108df57600080fd5b50610515600480360360a08110156108f657600080fd5b5080359060208101359060408101356001600160a01b0316906060810135906080013563ffffffff16611cd3565b34801561093057600080fd5b50610782611d35565b34801561094557600080fd5b50610515611d44565b34801561095a57600080fd5b506102f06004803603602081101561097157600080fd5b50356001600160a01b0316611d4a565b34801561098d57600080fd5b50610782600480360360208110156109a457600080fd5b50356001600160a01b0316611d9a565b3480156109c057600080fd5b506102f0600480360360208110156109d757600080fd5b50356001600160a01b0316611db5565b60345460ff1615610a32576040805162461bcd60e51b815260206004820152601060248201526f14185d5cd8589b194e881c185d5cd95960821b604482015290519081900360640190fd5b6001600160a01b038816301415610a4857610b27565b6001600160a01b0386163014610a8f5760405162461bcd60e51b815260040180806020018281038252603d8152602001806132b2603d913960400191505060405180910390fd5b60375415610ace5760405162461bcd60e51b815260040180806020018281038252603081526020018061314c6030913960400191505060405180910390fd5b610ade610ad9611e50565b611e54565b610b27610ae9611e50565b888787878080601f01602080910402602001604051908101604052809392919081815260200183838082843760009201919091525061206392505050565b5050505050505050565b6036546000906001600160a01b03163314610b7d5760405162461bcd60e51b81526004018080602001828103825260248152602001806133366024913960400191505060405180910390fd5b60345460ff1615610bc8576040805162461bcd60e51b815260206004820152601060248201526f14185d5cd8589b194e881c185d5cd95960821b604482015290519081900360640190fd5b60358054600101908190556001600160a01b038a16610c185760405162461bcd60e51b81526004018080602001828103825260228152602001806132ef6022913960400191505060405180910390fd5b6001600160a01b038916610c5d5760405162461bcd60e51b81526004018080602001828103825260258152602001806133116025913960400191505060405180910390fd5b60008811610cb2576040805162461bcd60e51b815260206004820152601860248201527f4272696467653a20416d6f756e742063616e7420626520300000000000000000604482015290519081900360640190fd5b85610d04576040805162461bcd60e51b815260206004820152601c60248201527f4272696467653a2053796d626f6c2063616e7420626520656d70747900000000604482015290519081900360640190fd5b84610d56576040805162461bcd60e51b815260206004820152601f60248201527f4272696467653a20426c6f636b20486173682063616e74206265206e756c6c00604482015290519081900360640190fd5b83610d925760405162461bcd60e51b81526004018080602001828103825260258152602001806132446025913960400191505060405180910390fd5b6000610da186868c8c88611cd3565b6000818152603e602052604090205490915060ff1615610df25760405162461bcd60e51b815260040180806020018281038252602981526020018061317c6029913960400191505060405180910390fd5b6000818152603e6020908152604091829020805460ff191660011790558151601f8a01829004820281018201909252888252610e4a918d918b908b90819084018382808284376000920191909152506120a592505050565b610e538b6123d4565b15610ef2576001600160a01b03808c166000908152603b6020526040808220548151630dcdc7dd60e41b81528e85166004820152602481018e9052608060448201526084810184905260c0606482015260c481018490529151931692839263dcdc7dd092610104808201939182900301818387803b158015610ed457600080fd5b505af1158015610ee8573d6000803e3d6000fd5b5050505050610f66565b6001600160a01b038b166000908152603d602052604090205460ff16610f495760405162461bcd60e51b815260040180806020018281038252602b8152602001806133d3602b913960400191505060405180910390fd5b8a610f646001600160a01b0382168c8c63ffffffff6123f416565b505b896001600160a01b03168b6001600160a01b03167fc8c5cb8daa24ed5382d9228f3d6af9a95e80e6df529c440dd8566a5dee55a0568b6040518082815260200191505060405180910390a360019250506035548114610ff65760405162461bcd60e51b81526004018080602001828103825260258152602001806131276025913960400191505060405180910390fd5b5098975050505050505050565b600054610100900460ff168061101c575061101c612446565b8061102a575060005460ff16155b6110655760405162461bcd60e51b81526004018080602001828103825260288152602001806131c86028913960400191505060405180910390fd5b600054610100900460ff16158015611090576000805460ff1961ff0019909116610100171660011790555b60008251116110e6576040805162461bcd60e51b815260206004820152601b60248201527f4272696467653a20456d7074792073796d626f6c207072656669780000000000604482015290519081900360640190fd5b6001600160a01b03841661112b5760405162461bcd60e51b815260040180806020018281038252602c815260200180613218602c913960400191505060405180910390fd5b6001600160a01b038616611186576040805162461bcd60e51b815260206004820181905260248201527f4272696467653a204d616e61676572206164647265737320697320656d707479604482015290519081900360640190fd5b6001600160a01b0385166111cb5760405162461bcd60e51b81526004018080602001828103825260238152602001806133fe6023913960400191505060405180910390fd5b6111d486611bbf565b6111dd8661244c565b81516111f090603890602085019061308e565b50603f80546001600160a01b038087166001600160a01b0319928316179092556040805492861692909116919091179055426039556000603a5561123385612501565b604080516329965a1d60e01b815230600482018190527fb281fc8c12954d22544db45de3159a39272895b169a852b314f9cc762e44c53b602483015260448201529051731820a4b7618bde71dce8cdc73aab6c95905fad24916329965a1d91606480830192600092919082900301818387803b1580156112b257600080fd5b505af11580156112c6573d6000803e3d6000fd5b5050505080156112dc576000805461ff00191690555b505050505050565b60345460009060ff1615611332576040805162461bcd60e51b815260206004820152601060248201526f14185d5cd8589b194e881c185d5cd95960821b604482015290519081900360640190fd5b603580546001019081905561134684611e54565b6000611350611e50565b9050611364816001600160a01b031661255b565b156113a05760405162461bcd60e51b81526004018080602001828103825260498152602001806132696049913960600191505060405180910390fd5b6113a934612597565b6113cc6113b4611e50565b6001600160a01b03871690308763ffffffff61262116565b6113ee856113d8611e50565b8660405180602001604052806000815250612063565b600192505060355481146114335760405162461bcd60e51b81526004018080602001828103825260258152602001806131276025913960400191505060405180910390fd5b5092915050565b61144a611445611e50565b611523565b6114855760405162461bcd60e51b81526004018080602001828103825260288152602001806131f06028913960400191505060405180910390fd5b60345460ff166114d3576040805162461bcd60e51b815260206004820152601460248201527314185d5cd8589b194e881b9bdd081c185d5cd95960621b604482015290519081900360640190fd5b6034805460ff191690557f5db9ee0a495bf2e6ff9c91a7834c1ba4fdd244a5e8aa4e537bd38aeae4b073aa611506611e50565b604080516001600160a01b039092168252519081900360200190a1565b600061153660338363ffffffff61268116565b92915050565b603a54603954600091906201518001421115611556575060005b603f54604080516301a0371960e61b81526004810184905290516001600160a01b039092169163680dc64091602480820192602092909190829003018186803b1580156115a257600080fd5b505afa1580156115b6573d6000803e3d6000fd5b505050506040513d60208110156115cc57600080fd5b50519150505b90565b6001600160a01b039081166000908152603c602052604090205416151590565b6000806116058787878787611cd3565b6000908152603e602052604090205460ff16979650505050505050565b604080518082019091526002815261076360f41b602082015290565b60375490565b6038805460408051602060026001851615610100026000190190941693909304601f810184900484028201840190925281815292918301828280156116ca5780601f1061169f576101008083540402835291602001916116ca565b820191906000526020600020905b8154815290600101906020018083116116ad57829003601f168201915b505050505081565b60345460ff1690565b603d6020526000908152604090205460ff1681565b60395481565b611706611701611e50565b6126e8565b565b611710611a3d565b61174f576040805162461bcd60e51b81526020600482018190526024820152600080516020613391833981519152604482015290519081900360640190fd5b60345460405160009161010090046001600160a01b0316907f8be0079c531659141344cd1fd0a4f28419497f9722a3daafe3b4186f6b6457e0908390a360348054610100600160a81b0319169055565b6117a7611a3d565b6117e6576040805162461bcd60e51b81526020600482018190526024820152600080516020613391833981519152604482015290519081900360640190fd5b60345460ff1615611831576040805162461bcd60e51b815260206004820152601060248201526f14185d5cd8589b194e881c185d5cd95960821b604482015290519081900360640190fd5b60378190556040805182815290517f8f9eb4a6bd716cb875da8fbc666bb1a96f9877a7241d82ce6574652737feb7769181900360200190a150565b600054610100900460ff16806118855750611885612446565b80611893575060005460ff16155b6118ce5760405162461bcd60e51b81526004018080602001828103825260288152602001806131c86028913960400191505060405180910390fd5b600054610100900460ff161580156118f9576000805460ff1961ff0019909116610100171660011790555b60016035558015611910576000805461ff00191690555b50565b61191e611445611e50565b6119595760405162461bcd60e51b81526004018080602001828103825260288152602001806131f06028913960400191505060405180910390fd5b61191081612730565b61196d611445611e50565b6119a85760405162461bcd60e51b81526004018080602001828103825260288152602001806131f06028913960400191505060405180910390fd5b60345460ff16156119f3576040805162461bcd60e51b815260206004820152601060248201526f14185d5cd8589b194e881c185d5cd95960821b604482015290519081900360640190fd5b6034805460ff191660011790557f62e78cea01bee320cd4e420270b5ea74000d11b0c9f74754ebdbfc544b05a258611506611e50565b60345461010090046001600160a01b031690565b60345460009061010090046001600160a01b0316611a59611e50565b6001600160a01b031614905090565b603f546001600160a01b031681565b6040546001600160a01b031681565b60345460009060ff1615611ad4576040805162461bcd60e51b815260206004820152601060248201526f14185d5cd8589b194e881c185d5cd95960821b604482015290519081900360640190fd5b603580546001019081905560375415611b1e5760405162461bcd60e51b815260040180806020018281038252603081526020018061314c6030913960400191505060405180910390fd5b611b29610ad9611e50565b611b72611b34611e50565b878787878080601f01602080910402602001604051908101604052809392919081815260200183838082843760009201919091525061206392505050565b600191506035548114611bb65760405162461bcd60e51b81526004018080602001828103825260258152602001806131276025913960400191505060405180910390fd5b50949350505050565b600054610100900460ff1680611bd85750611bd8612446565b80611be6575060005460ff16155b611c215760405162461bcd60e51b81526004018080602001828103825260288152602001806131c86028913960400191505060405180910390fd5b600054610100900460ff16158015611c4c576000805460ff1961ff0019909116610100171660011790555b60348054610100600160a81b0319166101006001600160a01b0385811682029290921792839055604051920416906000907f8be0079c531659141344cd1fd0a4f28419497f9722a3daafe3b4186f6b6457e0908290a38015611cb4576000805461ff00191690555b5050565b603b602052600090815260409020546001600160a01b031681565b6040805160208082019790975280820195909552606093841b6bffffffffffffffffffffffff191693850193909352607484019190915260e01b6001600160e01b03191660948301528051808303607801815260989092019052805191012090565b6036546001600160a01b031690565b603a5481565b611d52611a3d565b611d91576040805162461bcd60e51b81526020600482018190526024820152600080516020613391833981519152604482015290519081900360640190fd5b61191081612778565b603c602052600090815260409020546001600160a01b031681565b611dbd611a3d565b611dfc576040805162461bcd60e51b81526020600482018190526024820152600080516020613391833981519152604482015290519081900360640190fd5b60345460ff1615611e47576040805162461bcd60e51b815260206004820152601060248201526f14185d5cd8589b194e881c185d5cd95960821b604482015290519081900360640190fd5b61191081612501565b3390565b6000819050806001600160a01b031663313ce5676040518163ffffffff1660e01b815260040160206040518083038186803b158015611e9257600080fd5b505afa158015611ea6573d6000803e3d6000fd5b505050506040513d6020811015611ebc57600080fd5b505160ff16601214611eff5760405162461bcd60e51b81526004018080602001828103825260288152602001806134a06028913960400191505060405180910390fd5b806001600160a01b03166395d89b416040518163ffffffff1660e01b815260040160006040518083038186803b158015611f3857600080fd5b505afa158015611f4c573d6000803e3d6000fd5b505050506040513d6000823e601f3d908101601f191682016040526020811015611f7557600080fd5b8101908080516040519392919084600160201b821115611f9457600080fd5b908301906020820185811115611fa957600080fd5b8251600160201b811182820188101715611fc257600080fd5b82525081516020918201929091019080838360005b83811015611fef578181015183820152602001611fd7565b50505050905090810190601f16801561201c5780820380516001836020036101000a031916815260200191505b506040525050505160001415611cb45760405162461bcd60e51b81526004018080602001828103825260238152602001806131a56023913960400191505060405180910390fd5b600061206e856115d5565b905061207b858483612824565b80156120925761208d84868585612926565b61209e565b61209e84868585612c3f565b5050505050565b6001600160a01b0382166000908152603d602052604090205460ff16156120cb57611cb4565b6001600160a01b038083166000908152603b602052604090205416806123cf576060603883604051602001808380546001816001161561010002031660029004801561214e5780601f1061212c57610100808354040283529182019161214e565b820191906000526020600020905b81548152906001019060200180831161213a575b5050825160208401908083835b6020831061217a5780518252601f19909201916020918201910161215b565b51815160209384036101000a60001901801990921691161790526040805192909401828103601f190183528085528454635d9d1cf760e11b8252600482019586528351604483015283519399506001600160a01b0316975063bb3a39ee9650889550859493508392602482019260649092019186019080838360005b8381101561220e5781810151838201526020016121f6565b50505050905090810190601f16801561223b5780820380516001836020036101000a031916815260200191505b50838103825284518152845160209182019186019080838360005b8381101561226e578181015183820152602001612256565b50505050905090810190601f16801561229b5780820380516001836020036101000a031916815260200191505b50945050505050602060405180830381600087803b1580156122bc57600080fd5b505af11580156122d0573d6000803e3d6000fd5b505050506040513d60208110156122e657600080fd5b50516001600160a01b038086166000818152603b6020908152604080832080549587166001600160a01b03199687168117909155808452603c8352818420805490961685179095558051828152875181840152875196985088969495947f4db809136666676f56c1e1237c51790becbd5524b234e670383829e82a14f8ec9489949293849390840192908601918190849084905b8381101561239257818101518382015260200161237a565b50505050905090810190601f1680156123bf5780820380516001836020036101000a031916815260200191505b509250505060405180910390a350505b505050565b6001600160a01b039081166000908152603b602052604090205416151590565b604080516001600160a01b038416602482015260448082018490528251808303909101815260649091019091526020810180516001600160e01b031663a9059cbb60e01b1790526123cf908490612cbf565b303b1590565b600054610100900460ff16806124655750612465612446565b80612473575060005460ff16155b6124ae5760405162461bcd60e51b81526004018080602001828103825260288152602001806131c86028913960400191505060405180910390fd5b600054610100900460ff161580156124d9576000805460ff1961ff0019909116610100171660011790555b6124e282612e77565b6034805460ff191690558015611cb4576000805461ff00191690555050565b603680546001600160a01b0319166001600160a01b03838116919091179182905560408051929091168252517f4a41a4d11aaf0c0c9e4311ac1d68b2b0134556da594779a2a35b0ddf7cd1eafb916020908290030190a150565b6000813f7fc5d2460186f7233c927e7db2dcc703c0e500b653ca82273b7bfad8045d85a47081811480159061258f57508115155b949350505050565b6037548110156125d85760405162461bcd60e51b815260040180806020018281038252603381526020018061346d6033913960400191505060405180910390fd5b80156119105760006125e8611a29565b6040519091506001600160a01b0382169083156108fc029084906000818181858888f193505050501580156123cf573d6000803e3d6000fd5b604080516001600160a01b0385811660248301528416604482015260648082018490528251808303909101815260849091019091526020810180516001600160e01b03166323b872dd60e01b17905261267b908590612cbf565b50505050565b60006001600160a01b0382166126c85760405162461bcd60e51b81526004018080602001828103825260228152602001806133b16022913960400191505060405180910390fd5b506001600160a01b03166000908152602091909152604090205460ff1690565b6126f960338263ffffffff612f2f16565b6040516001600160a01b038216907fcd265ebaf09df2871cc7bd4133404a235ba12eff2041bb89d9c714a2621c7c7e90600090a250565b61274160338263ffffffff612fac16565b6040516001600160a01b038216907f6719d08c1888103bea251a4ed56406bd0c3e69723c8a1686e017e7bbe159b6f890600090a250565b6001600160a01b0381166127bd5760405162461bcd60e51b81526004018080602001828103825260228152602001806134216022913960400191505060405180910390fd5b6034546040516001600160a01b0380841692610100900416907f8be0079c531659141344cd1fd0a4f28419497f9722a3daafe3b4186f6b6457e090600090a3603480546001600160a01b0390921661010002610100600160a81b0319909216919091179055565b603954620151800142111561283d57426039556000603a555b603f54603a5460408051632692066f60e21b81526001600160a01b038781166004830152602482018790526044820193909352841515606482015290519190921691639a4819bc916084808301926020929190829003018186803b1580156128a457600080fd5b505afa1580156128b8573d6000803e3d6000fd5b505050506040513d60208110156128ce57600080fd5b505161290b5760405162461bcd60e51b815260040180806020018281038252603781526020018061335a6037913960400191505060405180910390fd5b603a5461291e908363ffffffff61302d16565b603a55505050565b6040805163fe9d930360e01b815260048101848152602482019283528351604483015283516001600160a01b0387169363fe9d9303938793879390929160640190602085019080838360005b8381101561298a578181015183820152602001612972565b50505050905090810190601f1680156129b75780820380516001836020036101000a031916815260200191505b509350505050600060405180830381600087803b1580156129d757600080fd5b505af11580156129eb573d6000803e3d6000fd5b505050506001600160a01b038381166000818152603c60205260408082205481516395d89b4160e01b81529151858a169591909116937f0a1ed563773528a47c8e97f96e41cea14dde10ef8e668a01a0df05ef64ef3bf293889391926395d89b41926004808201939291829003018186803b158015612a6957600080fd5b505afa158015612a7d573d6000803e3d6000fd5b505050506040513d6000823e601f3d908101601f191682016040526020811015612aa657600080fd5b8101908080516040519392919084600160201b821115612ac557600080fd5b908301906020820185811115612ada57600080fd5b8251600160201b811182820188101715612af357600080fd5b82525081516020918201929091019080838360005b83811015612b20578181015183820152602001612b08565b50505050905090810190601f168015612b4d5780820380516001836020036101000a031916815260200191505b5060405250505085604051808481526020018060200180602001838103835285818151815260200191508051906020019080838360005b83811015612b9c578181015183820152602001612b84565b50505050905090810190601f168015612bc95780820380516001836020036101000a031916815260200191505b50838103825284518152845160209182019186019080838360005b83811015612bfc578181015183820152602001612be4565b50505050905090810190601f168015612c295780820380516001836020036101000a031916815260200191505b509550505050505060405180910390a350505050565b6001600160a01b038084166000818152603d6020526040808220805460ff1916600117905580516395d89b4160e01b81529051938816937f0a1ed563773528a47c8e97f96e41cea14dde10ef8e668a01a0df05ef64ef3bf292879285926395d89b4192600480840193919291829003018186803b158015612a6957600080fd5b612cd1826001600160a01b031661255b565b612d22576040805162461bcd60e51b815260206004820152601f60248201527f5361666545524332303a2063616c6c20746f206e6f6e2d636f6e747261637400604482015290519081900360640190fd5b60006060836001600160a01b0316836040518082805190602001908083835b60208310612d605780518252601f199092019160209182019101612d41565b6001836020036101000a0380198251168184511680821785525050505050509050019150506000604051808303816000865af19150503d8060008114612dc2576040519150601f19603f3d011682016040523d82523d6000602084013e612dc7565b606091505b509150915081612e1e576040805162461bcd60e51b815260206004820181905260248201527f5361666545524332303a206c6f772d6c6576656c2063616c6c206661696c6564604482015290519081900360640190fd5b80511561267b57808060200190516020811015612e3a57600080fd5b505161267b5760405162461bcd60e51b815260040180806020018281038252602a815260200180613443602a913960400191505060405180910390fd5b600054610100900460ff1680612e905750612e90612446565b80612e9e575060005460ff16155b612ed95760405162461bcd60e51b81526004018080602001828103825260288152602001806131c86028913960400191505060405180910390fd5b600054610100900460ff16158015612f04576000805460ff1961ff0019909116610100171660011790555b612f0d82611523565b612f1a57612f1a82612730565b8015611cb4576000805461ff00191690555050565b612f398282612681565b612f8a576040805162461bcd60e51b815260206004820181905260248201527f526f6c65733a206163636f756e7420646f65736e2774206861766520726f6c65604482015290519081900360640190fd5b6001600160a01b0316600090815260209190915260409020805460ff19169055565b612fb68282612681565b15613008576040805162461bcd60e51b815260206004820152601f60248201527f526f6c65733a206163636f756e7420616c72656164792068617320726f6c6500604482015290519081900360640190fd5b6001600160a01b0316600090815260209190915260409020805460ff19166001179055565b600082820183811015613087576040805162461bcd60e51b815260206004820152601b60248201527f536166654d6174683a206164646974696f6e206f766572666c6f770000000000604482015290519081900360640190fd5b9392505050565b828054600181600116156101000203166002900490600052602060002090601f016020900481019282601f106130cf57805160ff19168380011785556130fc565b828001600101855582156130fc579182015b828111156130fc5782518255916020019190600101906130e1565b5061310892915061310c565b5090565b6115d291905b80821115613108576000815560010161311256fe5265656e7472616e637947756172643a206e6f207265656e7472616e7420616c6c6f7765644272696467653a204e65656473207061796d656e742c207573652072656365697665546f6b656e7320696e73746561644272696467653a205472616e73616374696f6e2077617320616c72656164792070726f6365737365644272696467653a20546f6b656e20646f65736e2774206861766520612073796d626f6c436f6e747261637420696e7374616e636520697320616c726561647920696e697469616c697a6564506175736572526f6c653a2063616c6c657220646f65736e277420686176652074686520726f6c654272696467653a204d697373696e6720416c6c6f77546f6b656e7320636f6e747261637420616464726573734272696467653a205472616e73616374696f6e20486173682063616e74206265206e756c6c4272696467653a20436f6e7472616374732063616e27742063726f737320746f6b656e73207573696e67207468656972206164647265737365732061732064657374696e6174696f6e4272696467653a205468697320636f6e7472616374206973206e6f7420746865206164647265737320726563656976696e672074686520746f6b656e734272696467653a20546f6b656e20416464726573732063616e74206265206e756c6c4272696467653a20526563656976657220416464726573732063616e74206265206e756c6c4272696467653a2043616c6c6572206973206e6f74207468652046656465726174696f6e4272696467653a205472616e7366657220646f65736e277420636f6d706c79207769746820416c6c6f77546f6b656e73206c696d6974734f776e61626c653a2063616c6c6572206973206e6f7420746865206f776e6572526f6c65733a206163636f756e7420697320746865207a65726f20616464726573734272696467653a20546f6b656e2061646472657373206973206e6f7420696e206b6e6f776e546f6b656e734272696467653a2046656465726174696f6e206164647265737320697320656d7074794f776e61626c653a206e6577206f776e6572206973207a65726f20616464726573735361666545524332303a204552433230206f7065726174696f6e20646964206e6f7420737563636565644272696467653a20496e73756666696369656e7420636f696e732073656e7420666f722063726f7373696e675061796d656e744272696467653a20546f6b656e2068617320646563696d616c73206f74686572207468616e203138a265627a7a723158209d781c778bc745eca1930940028c61ca11172e1fa027bfbafa92f48ee609317764736f6c63430005110032",
  "source": "pragma solidity ^0.5.0;\n\n// Import base Initializable contract\nimport \"./zeppelin/upgradable/Initializable.sol\";\n// Import interface and library from OpenZeppelin contracts\nimport \"./zeppelin/upgradable/utils/ReentrancyGuard.sol\";\nimport \"./zeppelin/upgradable/lifecycle/UpgradablePausable.sol\";\nimport \"./zeppelin/upgradable/ownership/UpgradableOwnable.sol\";\n\nimport \"./zeppelin/introspection/IERC1820Registry.sol\";\nimport \"./zeppelin/token/ERC20/ERC20Detailed.sol\";\nimport \"./zeppelin/token/ERC20/SafeERC20.sol\";\nimport \"./zeppelin/utils/Address.sol\";\nimport \"./zeppelin/math/SafeMath.sol\";\n\nimport \"./IBridge_v0.sol\";\nimport \"./SideToken_v0.sol\";\nimport \"./SideTokenFactory_v0.sol\";\nimport \"./AllowTokens_v0.sol\";\n\ncontract Bridge_v0 is Initializable, IBridge_v0, IERC777Recipient, UpgradablePausable, UpgradableOwnable, ReentrancyGuard {\n    using SafeMath for uint256;\n    using SafeERC20 for ERC20Detailed;\n    using Address for address;\n\n    address constant private NULL_ADDRESS = address(0);\n    bytes32 constant private NULL_HASH = bytes32(0);\n    IERC1820Registry constant private erc1820 = IERC1820Registry(0x1820a4B7618BdE71Dce8cdc73aAB6C95905faD24);\n\n    address private federation;\n    uint256 private crossingPayment;\n    string public symbolPrefix;\n    uint256 public lastDay;\n    uint256 public spentToday;\n\n    mapping (address => SideToken_v0) public mappedTokens; // OirignalToken => SideToken\n    mapping (address => address) public originalTokens; // SideToken => OriginalToken\n    mapping (address => bool) public knownTokens; // OriginalToken => true\n    mapping(bytes32 => bool) processed; // ProcessedHash => true\n    AllowTokens_v0 public allowTokens;\n    SideTokenFactory_v0 public sideTokenFactory;\n\n    event FederationChanged(address _newFederation);\n\n    function initialize(address _manager, address _federation, address _allowTokens, address _sideTokenFactory, string memory _symbolPrefix)\n    public initializer {\n        require(bytes(_symbolPrefix).length > 0, \"Bridge: Empty symbol prefix\");\n        require(_allowTokens != NULL_ADDRESS, \"Bridge: Missing AllowTokens contract address\");\n        require(_manager != NULL_ADDRESS, \"Bridge: Manager address is empty\");\n        require(_federation != NULL_ADDRESS, \"Bridge: Federation address is empty\");\n        UpgradableOwnable.initialize(_manager);\n        UpgradablePausable.initialize(_manager);\n        symbolPrefix = _symbolPrefix;\n        allowTokens = AllowTokens_v0(_allowTokens);\n        sideTokenFactory = SideTokenFactory_v0(_sideTokenFactory);\n        // solium-disable-next-line security/no-block-members\n        lastDay = now;\n        spentToday = 0;\n        _changeFederation(_federation);\n        //keccak256(\"ERC777TokensRecipient\")\n        erc1820.setInterfaceImplementer(address(this), 0xb281fc8c12954d22544db45de3159a39272895b169a852b314f9cc762e44c53b, address(this));\n    }\n\n    function version() external pure returns (string memory) {\n        return \"v0\";\n    }\n\n    modifier onlyFederation() {\n        require(msg.sender == federation, \"Bridge: Caller is not the Federation\");\n        _;\n    }\n\n    function acceptTransfer(\n        address tokenAddress,\n        address receiver,\n        uint256 amount,\n        string calldata symbol,\n        bytes32 blockHash,\n        bytes32 transactionHash,\n        uint32 logIndex\n    ) external onlyFederation whenNotPaused nonReentrant returns(bool) {\n        require(tokenAddress != NULL_ADDRESS, \"Bridge: Token Address cant be null\");\n        require(receiver != NULL_ADDRESS, \"Bridge: Receiver Address cant be null\");\n        require(amount > 0, \"Bridge: Amount cant be 0\");\n        require(bytes(symbol).length > 0, \"Bridge: Symbol cant be empty\");\n        require(blockHash != NULL_HASH, \"Bridge: Block Hash cant be null\");\n        require(transactionHash != NULL_HASH, \"Bridge: Transaction Hash cant be null\");\n\n        bytes32 compiledId = getTransactionId(blockHash, transactionHash, receiver, amount, logIndex);\n        require(!processed[compiledId], \"Bridge: Transaction was already processed\");\n        processed[compiledId] = true;\n\n        createSideToken(tokenAddress, symbol);\n\n        if (isMappedToken(tokenAddress)) {\n            SideToken_v0 sideToken = mappedTokens[tokenAddress];\n            sideToken.mint(receiver, amount, \"\", \"\");\n        } else {\n            require(knownTokens[tokenAddress], \"Bridge: Token address is not in knownTokens\");\n            ERC20Detailed token = ERC20Detailed(tokenAddress);\n            token.safeTransfer(receiver, amount);\n        }\n        emit AcceptedCrossTransfer(tokenAddress, receiver, amount);\n        return true;\n    }\n\n    /**\n     * ERC-20 tokens approve and transferFrom pattern\n     * See https://eips.ethereum.org/EIPS/eip-20#transferfrom\n     */\n    function receiveTokens(address tokenToUse, uint256 amount) external payable whenNotPaused nonReentrant returns(bool) {\n        verifyIsERC20Detailed(tokenToUse);\n        address sender = _msgSender();\n        require(!sender.isContract(), \"Bridge: Contracts can't cross tokens using their addresses as destination\");\n        sendIncentiveToEventsCrossers(msg.value);\n        //Transfer the tokens on IERC20, they should be already Approved for the bridge Address to use them\n        ERC20Detailed(tokenToUse).safeTransferFrom(_msgSender(), address(this), amount);\n        crossTokens(tokenToUse, _msgSender(), amount, \"\");\n        return true;\n    }\n\n    /**\n     * ERC-677 and ERC-223 implementation for Receiving Tokens Contracts\n     * See https://github.com/ethereum/EIPs/issues/677 for details\n     * See https://github.com/ethereum/EIPs/issues/223 for details\n     */\n    function tokenFallback(address from, uint amount, bytes calldata userData) external whenNotPaused nonReentrant returns (bool) {\n        require(crossingPayment == 0, \"Bridge: Needs payment, use receiveTokens instead\");\n        verifyIsERC20Detailed(_msgSender());\n        //This can only be used with trusted contracts\n        crossTokens(_msgSender(), from, amount, userData);\n        return true;\n    }\n\n    /**\n     * ERC-777 tokensReceived hook allows to send tokens to a contract and notify it in a single transaction\n     * See https://eips.ethereum.org/EIPS/eip-777#motivation for details\n     */\n    function tokensReceived (\n        address operator,\n        address from,\n        address to,\n        uint amount,\n        bytes calldata userData,\n        bytes calldata\n    ) external whenNotPaused {\n        //Hook from ERC777address\n        if(operator == address(this)) return; // Avoid loop from bridge calling to ERC77transferFrom\n        require(to == address(this), \"Bridge: This contract is not the address receiving the tokens\");\n        require(crossingPayment == 0, \"Bridge: Needs payment, use receiveTokens instead\");\n        verifyIsERC20Detailed(_msgSender());\n        //This can only be used with trusted contracts\n        crossTokens(_msgSender(), from, amount, userData);\n    }\n\n    function crossTokens(address tokenToUse, address from, uint256 amount, bytes memory userData) private {\n        bool _isSideToken = isSideToken(tokenToUse);\n        verifyWithAllowTokens(tokenToUse, amount, _isSideToken);\n        if (_isSideToken) {\n            sideTokenCrossingBack(from, SideToken_v0(tokenToUse), amount, userData);\n        } else {\n            mainTokenCrossing(from, tokenToUse, amount, userData);\n        }\n    }\n\n    function sendIncentiveToEventsCrossers(uint256 payment) private {\n        require(payment >= crossingPayment, \"Bridge: Insufficient coins sent for crossingPayment\");\n        //Send the payment to the MultiSig of the Federation\n        if(payment > 0) {\n            address payable receiver = address(uint160(owner()));\n            receiver.transfer(payment);\n        }\n    }\n\n    function sideTokenCrossingBack(address from, SideToken_v0 tokenToUse, uint256 amount, bytes memory userData) private {\n        tokenToUse.burn(amount, userData);\n        emit Cross(originalTokens[address(tokenToUse)], from, amount, tokenToUse.symbol(), userData);\n    }\n\n    function mainTokenCrossing(address from, address tokenToUse, uint256 amount, bytes memory userData) private {\n        knownTokens[tokenToUse] = true;\n        emit Cross(tokenToUse, from, amount, (ERC20Detailed(tokenToUse)).symbol(), userData);\n    }\n\n    function createSideToken(address token, string memory symbol) private {\n        if (knownTokens[token])\n            return; //Crossing Back\n\n        SideToken_v0 sideToken = mappedTokens[token];\n\n        if (address(sideToken) == NULL_ADDRESS) {\n            string memory newSymbol = string(abi.encodePacked(symbolPrefix, symbol));\n            sideToken = sideTokenFactory.createSideToken(newSymbol, newSymbol);\n            mappedTokens[token] = sideToken;\n            address sideTokenAddress = address(sideToken);\n            originalTokens[sideTokenAddress] = token;\n            emit NewSideToken(sideTokenAddress, token, newSymbol);\n        }\n    }\n\n    function verifyIsERC20Detailed(address tokenToUse) private view {\n        ERC20Detailed detailedTokenToUse = ERC20Detailed(tokenToUse);\n        require(detailedTokenToUse.decimals() == 18, \"Bridge: Token has decimals other than 18\");\n        require(bytes(detailedTokenToUse.symbol()).length != 0, \"Bridge: Token doesn't have a symbol\");\n    }\n\n    function verifyWithAllowTokens(address tokenToUse, uint256 amount, bool isASideToken) private  {\n        // solium-disable-next-line security/no-block-members\n        if (now > lastDay + 24 hours) {\n            // solium-disable-next-line security/no-block-members\n            lastDay = now;\n            spentToday = 0;\n        }\n        // solium-disable-next-line max-len\n        require(allowTokens.isValidTokenTransfer(tokenToUse, amount, spentToday, isASideToken), \"Bridge: Transfer doesn't comply with AllowTokens limits\");\n        spentToday = spentToday.add(amount);\n    }\n\n    function isSideToken(address token) public view returns (bool) {\n        return originalTokens[token] != NULL_ADDRESS;\n    }\n\n    function isMappedToken(address token) private view returns (bool) {\n        return address(mappedTokens[token]) != NULL_ADDRESS;\n    }\n\n    function getTransactionId(\n        bytes32 _blockHash,\n        bytes32 _transactionHash,\n        address _receiver,\n        uint256 _amount,\n        uint32 _logIndex\n    )\n        public pure returns(bytes32)\n    {\n        return keccak256(abi.encodePacked(_blockHash, _transactionHash, _receiver, _amount, _logIndex));\n    }\n\n    function transactionWasProcessed(\n        bytes32 _blockHash,\n        bytes32 _transactionHash,\n        address _receiver,\n        uint256 _amount,\n        uint32 _logIndex\n    )\n        public view returns(bool)\n    {\n        bytes32 compiledId = getTransactionId(_blockHash, _transactionHash, _receiver, _amount, _logIndex);\n\n        return processed[compiledId];\n    }\n\n    function setCrossingPayment(uint amount) external onlyOwner whenNotPaused {\n        crossingPayment = amount;\n        emit CrossingPaymentChanged(crossingPayment);\n    }\n\n    function getCrossingPayment() external view returns(uint) {\n        return crossingPayment;\n    }\n\n    function calcMaxWithdraw() external view returns (uint) {\n        uint spent = spentToday;\n        // solium-disable-next-line security/no-block-members\n        if (now > lastDay + 24 hours)\n            spent = 0;\n        return allowTokens.calcMaxWithdraw(spent);\n    }\n\n    function _changeFederation(address newFederation) private {\n        federation = newFederation;\n        emit FederationChanged(federation);\n    }\n\n    function changeFederation(address newFederation) external onlyOwner whenNotPaused {\n        _changeFederation(newFederation);\n    }\n\n    function getFederation() external view returns(address) {\n        return federation;\n    }\n\n}\n\n",
  "sourcePath": "/Users/pooh/sovryn/deploy_bridge/MAIN-ETH-RSK/Bridge-SC/sovryn-token-bridge/bridge/contracts/Bridge_v0.sol",
  "compiler": {
    "name": "solc",
    "version": "0.5.17+commit.d19bba13.Emscripten.clang"
  },
  "schemaVersion": "3.3.4",
  "updatedAt": "2021-05-22T15:53:36.057Z",
  "networkType": "ethereum",
  "devdoc": {
    "methods": {
      "initialize(address)": {
        "details": "Initializes the contract setting the deployer as the initial owner."
      },
      "isOwner()": {
        "details": "Returns true if the caller is the current owner."
      },
      "owner()": {
        "details": "Returns the address of the current owner."
      },
      "pause()": {
        "details": "Called by a pauser to pause, triggers stopped state."
      },
      "paused()": {
        "details": "Returns true if the contract is paused, and false otherwise."
      },
      "renounceOwnership()": {
        "details": "Leaves the contract without owner. It will not be possible to call `onlyOwner` functions anymore. Can only be called by the current owner.     * > Note: Renouncing ownership will leave the contract without an owner, thereby removing any functionality that is only available to the owner."
      },
      "transferOwnership(address)": {
        "details": "Transfers ownership of the contract to a new account (`newOwner`). Can only be called by the current owner."
      },
      "unpause()": {
        "details": "Called by a pauser to unpause, returns to normal state."
      }
    }
  },
  "userdoc": {
    "methods": {
      "receiveTokens(address,uint256)": {
        "notice": "ERC-20 tokens approve and transferFrom pattern See https://eips.ethereum.org/EIPS/eip-20#transferfrom"
      },
      "tokenFallback(address,uint256,bytes)": {
        "notice": "ERC-677 and ERC-223 implementation for Receiving Tokens Contracts See https://github.com/ethereum/EIPs/issues/677 for details See https://github.com/ethereum/EIPs/issues/223 for details"
      },
      "tokensReceived(address,address,address,uint256,bytes,bytes)": {
        "notice": "ERC-777 tokensReceived hook allows to send tokens to a contract and notify it in a single transaction See https://eips.ethereum.org/EIPS/eip-777#motivation for details"
      }
    }
  }
}