{
  "contractName": "Bridge",
  "abi": [
    {
      "anonymous": false,
      "inputs": [
        {
          "indexed": true,
          "internalType": "address",
          "name": "_tokenAddress",
          "type": "address"
        },
        {
          "indexed": true,
          "internalType": "address",
          "name": "_to",
          "type": "address"
        },
        {
          "indexed": false,
          "internalType": "uint256",
          "name": "_amount",
          "type": "uint256"
        },
        {
          "indexed": false,
          "internalType": "uint8",
          "name": "_decimals",
          "type": "uint8"
        },
        {
          "indexed": false,
          "internalType": "uint256",
          "name": "_granularity",
          "type": "uint256"
        },
        {
          "indexed": false,
          "internalType": "uint256",
          "name": "_formattedAmount",
          "type": "uint256"
        },
        {
          "indexed": false,
          "internalType": "uint8",
          "name": "_calculatedDecimals",
          "type": "uint8"
        },
        {
          "indexed": false,
          "internalType": "uint256",
          "name": "_calculatedGranularity",
          "type": "uint256"
        },
        {
          "indexed": false,
          "internalType": "bytes",
          "name": "_userData",
          "type": "bytes"
        }
      ],
      "name": "AcceptedCrossTransfer",
      "type": "event"
    },
    {
      "anonymous": false,
      "inputs": [
        {
          "indexed": false,
          "internalType": "address",
          "name": "_newAllowToken",
          "type": "address"
        }
      ],
      "name": "AllowTokenChanged",
      "type": "event"
    },
    {
      "anonymous": false,
      "inputs": [
        {
          "indexed": true,
          "internalType": "address",
          "name": "_tokenAddress",
          "type": "address"
        },
        {
          "indexed": true,
          "internalType": "address",
          "name": "_to",
          "type": "address"
        },
        {
          "indexed": false,
          "internalType": "uint256",
          "name": "_amount",
          "type": "uint256"
        },
        {
          "indexed": false,
          "internalType": "string",
          "name": "_symbol",
          "type": "string"
        },
        {
          "indexed": false,
          "internalType": "bytes",
          "name": "_userData",
          "type": "bytes"
        },
        {
          "indexed": false,
          "internalType": "uint8",
          "name": "_decimals",
          "type": "uint8"
        },
        {
          "indexed": false,
          "internalType": "uint256",
          "name": "_granularity",
          "type": "uint256"
        }
      ],
      "name": "Cross",
      "type": "event"
    },
    {
      "anonymous": false,
      "inputs": [
        {
          "indexed": false,
          "internalType": "bytes",
          "name": "_errorData",
          "type": "bytes"
        }
      ],
      "name": "ErrorTokenReceiver",
      "type": "event"
    },
    {
      "anonymous": false,
      "inputs": [
        {
          "indexed": false,
          "internalType": "address",
          "name": "_newFederation",
          "type": "address"
        }
      ],
      "name": "FederationChanged",
      "type": "event"
    },
    {
      "anonymous": false,
      "inputs": [
        {
          "indexed": false,
          "internalType": "uint256",
          "name": "_amount",
          "type": "uint256"
        }
      ],
      "name": "FeePercentageChanged",
      "type": "event"
    },
    {
      "anonymous": false,
      "inputs": [
        {
          "indexed": true,
          "internalType": "address",
          "name": "_newSideTokenAddress",
          "type": "address"
        },
        {
          "indexed": true,
          "internalType": "address",
          "name": "_originalTokenAddress",
          "type": "address"
        },
        {
          "indexed": false,
          "internalType": "string",
          "name": "_newSymbol",
          "type": "string"
        },
        {
          "indexed": false,
          "internalType": "uint256",
          "name": "_granularity",
          "type": "uint256"
        }
      ],
      "name": "NewSideToken",
      "type": "event"
    },
    {
      "anonymous": false,
      "inputs": [
        {
          "indexed": true,
          "internalType": "address",
          "name": "previousOwner",
          "type": "address"
        },
        {
          "indexed": true,
          "internalType": "address",
          "name": "newOwner",
          "type": "address"
        }
      ],
      "name": "OwnershipTransferred",
      "type": "event"
    },
    {
      "anonymous": false,
      "inputs": [
        {
          "indexed": false,
          "internalType": "address",
          "name": "account",
          "type": "address"
        }
      ],
      "name": "Paused",
      "type": "event"
    },
    {
      "anonymous": false,
      "inputs": [
        {
          "indexed": true,
          "internalType": "address",
          "name": "account",
          "type": "address"
        }
      ],
      "name": "PauserAdded",
      "type": "event"
    },
    {
      "anonymous": false,
      "inputs": [
        {
          "indexed": true,
          "internalType": "address",
          "name": "account",
          "type": "address"
        }
      ],
      "name": "PauserRemoved",
      "type": "event"
    },
    {
      "anonymous": false,
      "inputs": [
        {
          "indexed": false,
          "internalType": "bool",
          "name": "_isSuffix",
          "type": "bool"
        },
        {
          "indexed": false,
          "internalType": "string",
          "name": "_prefix",
          "type": "string"
        }
      ],
      "name": "PrefixUpdated",
      "type": "event"
    },
    {
      "anonymous": false,
      "inputs": [
        {
          "indexed": false,
          "internalType": "address",
          "name": "_newSideTokenFactory",
          "type": "address"
        }
      ],
      "name": "SideTokenFactoryChanged",
      "type": "event"
    },
    {
      "anonymous": false,
      "inputs": [
        {
          "indexed": false,
          "internalType": "address",
          "name": "account",
          "type": "address"
        }
      ],
      "name": "Unpaused",
      "type": "event"
    },
    {
      "anonymous": false,
      "inputs": [
        {
          "indexed": false,
          "internalType": "bool",
          "name": "isUpgrading",
          "type": "bool"
        }
      ],
      "name": "Upgrading",
      "type": "event"
    },
    {
      "constant": true,
      "inputs": [],
      "name": "WETHAddr",
      "outputs": [
        {
          "internalType": "address payable",
          "name": "",
          "type": "address"
        }
      ],
      "payable": false,
      "stateMutability": "view",
      "type": "function"
    },
    {
      "constant": false,
      "inputs": [
        {
          "internalType": "address",
          "name": "account",
          "type": "address"
        }
      ],
      "name": "addPauser",
      "outputs": [],
      "payable": false,
      "stateMutability": "nonpayable",
      "type": "function"
    },
    {
      "constant": true,
      "inputs": [],
      "name": "allowTokens",
      "outputs": [
        {
          "internalType": "contract IAllowTokens",
          "name": "",
          "type": "address"
        }
      ],
      "payable": false,
      "stateMutability": "view",
      "type": "function"
    },
    {
      "constant": true,
      "inputs": [],
      "name": "feePercentageDivider",
      "outputs": [
        {
          "internalType": "uint256",
          "name": "",
          "type": "uint256"
        }
      ],
      "payable": false,
      "stateMutability": "view",
      "type": "function"
    },
    {
      "constant": true,
      "inputs": [],
      "name": "initialPrefixSetup",
      "outputs": [
        {
          "internalType": "bool",
          "name": "",
          "type": "bool"
        }
      ],
      "payable": false,
      "stateMutability": "view",
      "type": "function"
    },
    {
      "constant": false,
      "inputs": [],
      "name": "initialize",
      "outputs": [],
      "payable": false,
      "stateMutability": "nonpayable",
      "type": "function"
    },
    {
      "constant": false,
      "inputs": [
        {
          "internalType": "address",
          "name": "sender",
          "type": "address"
        }
      ],
      "name": "initialize",
      "outputs": [],
      "payable": false,
      "stateMutability": "nonpayable",
      "type": "function"
    },
    {
      "constant": true,
      "inputs": [],
      "name": "isOwner",
      "outputs": [
        {
          "internalType": "bool",
          "name": "",
          "type": "bool"
        }
      ],
      "payable": false,
      "stateMutability": "view",
      "type": "function"
    },
    {
      "constant": true,
      "inputs": [
        {
          "internalType": "address",
          "name": "account",
          "type": "address"
        }
      ],
      "name": "isPauser",
      "outputs": [
        {
          "internalType": "bool",
          "name": "",
          "type": "bool"
        }
      ],
      "payable": false,
      "stateMutability": "view",
      "type": "function"
    },
    {
      "constant": true,
      "inputs": [],
      "name": "isSuffix",
      "outputs": [
        {
          "internalType": "bool",
          "name": "",
          "type": "bool"
        }
      ],
      "payable": false,
      "stateMutability": "view",
      "type": "function"
    },
    {
      "constant": true,
      "inputs": [],
      "name": "isUpgrading",
      "outputs": [
        {
          "internalType": "bool",
          "name": "",
          "type": "bool"
        }
      ],
      "payable": false,
      "stateMutability": "view",
      "type": "function"
    },
    {
      "constant": true,
      "inputs": [
        {
          "internalType": "address",
          "name": "",
          "type": "address"
        }
      ],
      "name": "knownTokens",
      "outputs": [
        {
          "internalType": "bool",
          "name": "",
          "type": "bool"
        }
      ],
      "payable": false,
      "stateMutability": "view",
      "type": "function"
    },
    {
      "constant": true,
      "inputs": [],
      "name": "lastDay",
      "outputs": [
        {
          "internalType": "uint256",
          "name": "",
          "type": "uint256"
        }
      ],
      "payable": false,
      "stateMutability": "view",
      "type": "function"
    },
    {
      "constant": true,
      "inputs": [
        {
          "internalType": "address",
          "name": "",
          "type": "address"
        }
      ],
      "name": "mappedTokens",
      "outputs": [
        {
          "internalType": "contract ISideToken",
          "name": "",
          "type": "address"
        }
      ],
      "payable": false,
      "stateMutability": "view",
      "type": "function"
    },
    {
      "constant": true,
      "inputs": [
        {
          "internalType": "address",
          "name": "",
          "type": "address"
        }
      ],
      "name": "originalTokens",
      "outputs": [
        {
          "internalType": "address",
          "name": "",
          "type": "address"
        }
      ],
      "payable": false,
      "stateMutability": "view",
      "type": "function"
    },
    {
      "constant": true,
      "inputs": [],
      "name": "owner",
      "outputs": [
        {
          "internalType": "address",
          "name": "",
          "type": "address"
        }
      ],
      "payable": false,
      "stateMutability": "view",
      "type": "function"
    },
    {
      "constant": false,
      "inputs": [],
      "name": "pause",
      "outputs": [],
      "payable": false,
      "stateMutability": "nonpayable",
      "type": "function"
    },
    {
      "constant": true,
      "inputs": [],
      "name": "paused",
      "outputs": [
        {
          "internalType": "bool",
          "name": "",
          "type": "bool"
        }
      ],
      "payable": false,
      "stateMutability": "view",
      "type": "function"
    },
    {
      "constant": true,
      "inputs": [
        {
          "internalType": "bytes32",
          "name": "",
          "type": "bytes32"
        }
      ],
      "name": "processed",
      "outputs": [
        {
          "internalType": "bool",
          "name": "",
          "type": "bool"
        }
      ],
      "payable": false,
      "stateMutability": "view",
      "type": "function"
    },
    {
      "constant": false,
      "inputs": [],
      "name": "renounceOwnership",
      "outputs": [],
      "payable": false,
      "stateMutability": "nonpayable",
      "type": "function"
    },
    {
      "constant": false,
      "inputs": [],
      "name": "renouncePauser",
      "outputs": [],
      "payable": false,
      "stateMutability": "nonpayable",
      "type": "function"
    },
    {
      "constant": true,
      "inputs": [],
      "name": "sideTokenFactory",
      "outputs": [
        {
          "internalType": "contract ISideTokenFactory",
          "name": "",
          "type": "address"
        }
      ],
      "payable": false,
      "stateMutability": "view",
      "type": "function"
    },
    {
      "constant": true,
      "inputs": [],
      "name": "spentToday",
      "outputs": [
        {
          "internalType": "uint256",
          "name": "",
          "type": "uint256"
        }
      ],
      "payable": false,
      "stateMutability": "view",
      "type": "function"
    },
    {
      "constant": true,
      "inputs": [],
      "name": "symbolPrefix",
      "outputs": [
        {
          "internalType": "string",
          "name": "",
          "type": "string"
        }
      ],
      "payable": false,
      "stateMutability": "view",
      "type": "function"
    },
    {
      "constant": false,
      "inputs": [
        {
          "internalType": "address",
          "name": "newOwner",
          "type": "address"
        }
      ],
      "name": "transferOwnership",
      "outputs": [],
      "payable": false,
      "stateMutability": "nonpayable",
      "type": "function"
    },
    {
      "constant": false,
      "inputs": [],
      "name": "unpause",
      "outputs": [],
      "payable": false,
      "stateMutability": "nonpayable",
      "type": "function"
    },
    {
      "constant": true,
      "inputs": [],
      "name": "version",
      "outputs": [
        {
          "internalType": "string",
          "name": "",
          "type": "string"
        }
      ],
      "payable": false,
      "stateMutability": "pure",
      "type": "function"
    },
    {
      "constant": false,
      "inputs": [
        {
          "internalType": "address",
          "name": "tokenAddress",
          "type": "address"
        },
        {
          "internalType": "address",
          "name": "receiver",
          "type": "address"
        },
        {
          "internalType": "uint256",
          "name": "amount",
          "type": "uint256"
        },
        {
          "internalType": "string",
          "name": "symbol",
          "type": "string"
        },
        {
          "internalType": "bytes32",
          "name": "blockHash",
          "type": "bytes32"
        },
        {
          "internalType": "bytes32",
          "name": "transactionHash",
          "type": "bytes32"
        },
        {
          "internalType": "uint32",
          "name": "logIndex",
          "type": "uint32"
        },
        {
          "internalType": "uint8",
          "name": "decimals",
          "type": "uint8"
        },
        {
          "internalType": "uint256",
          "name": "granularity",
          "type": "uint256"
        }
      ],
      "name": "acceptTransfer",
      "outputs": [
        {
          "internalType": "bool",
          "name": "",
          "type": "bool"
        }
      ],
      "payable": false,
      "stateMutability": "nonpayable",
      "type": "function"
    },
    {
      "constant": false,
      "inputs": [
        {
          "internalType": "address",
          "name": "tokenAddress",
          "type": "address"
        },
        {
          "internalType": "address",
          "name": "receiver",
          "type": "address"
        },
        {
          "internalType": "uint256",
          "name": "amount",
          "type": "uint256"
        },
        {
          "internalType": "string",
          "name": "symbol",
          "type": "string"
        },
        {
          "internalType": "bytes32",
          "name": "blockHash",
          "type": "bytes32"
        },
        {
          "internalType": "bytes32",
          "name": "transactionHash",
          "type": "bytes32"
        },
        {
          "internalType": "uint32",
          "name": "logIndex",
          "type": "uint32"
        },
        {
          "internalType": "uint8",
          "name": "decimals",
          "type": "uint8"
        },
        {
          "internalType": "uint256",
          "name": "granularity",
          "type": "uint256"
        },
        {
          "internalType": "bytes",
          "name": "userData",
          "type": "bytes"
        }
      ],
      "name": "acceptTransferAt",
      "outputs": [
        {
          "internalType": "bool",
          "name": "",
          "type": "bool"
        }
      ],
      "payable": false,
      "stateMutability": "nonpayable",
      "type": "function"
    },
    {
      "constant": false,
      "inputs": [
        {
          "internalType": "address",
          "name": "tokenToUse",
          "type": "address"
        },
        {
          "internalType": "uint256",
          "name": "amount",
          "type": "uint256"
        },
        {
          "internalType": "address",
          "name": "receiver",
          "type": "address"
        },
        {
          "internalType": "bytes",
          "name": "extraData",
          "type": "bytes"
        }
      ],
      "name": "receiveTokensAt",
      "outputs": [
        {
          "internalType": "bool",
          "name": "",
          "type": "bool"
        }
      ],
      "payable": false,
      "stateMutability": "nonpayable",
      "type": "function"
    },
    {
      "constant": false,
      "inputs": [
        {
          "internalType": "address",
          "name": "tokenToUse",
          "type": "address"
        },
        {
          "internalType": "uint256",
          "name": "amount",
          "type": "uint256"
        }
      ],
      "name": "receiveTokens",
      "outputs": [
        {
          "internalType": "bool",
          "name": "",
          "type": "bool"
        }
      ],
      "payable": false,
      "stateMutability": "nonpayable",
      "type": "function"
    },
    {
      "constant": false,
      "inputs": [
        {
          "internalType": "address",
          "name": "operator",
          "type": "address"
        },
        {
          "internalType": "address",
          "name": "from",
          "type": "address"
        },
        {
          "internalType": "address",
          "name": "to",
          "type": "address"
        },
        {
          "internalType": "uint256",
          "name": "amount",
          "type": "uint256"
        },
        {
          "internalType": "bytes",
          "name": "userData",
          "type": "bytes"
        },
        {
          "internalType": "bytes",
          "name": "",
          "type": "bytes"
        }
      ],
      "name": "tokensReceived",
      "outputs": [],
      "payable": false,
      "stateMutability": "nonpayable",
      "type": "function"
    },
    {
      "constant": true,
      "inputs": [
        {
          "internalType": "bytes32",
          "name": "_blockHash",
          "type": "bytes32"
        },
        {
          "internalType": "bytes32",
          "name": "_transactionHash",
          "type": "bytes32"
        },
        {
          "internalType": "address",
          "name": "_receiver",
          "type": "address"
        },
        {
          "internalType": "uint256",
          "name": "_amount",
          "type": "uint256"
        },
        {
          "internalType": "uint32",
          "name": "_logIndex",
          "type": "uint32"
        }
      ],
      "name": "getTransactionId",
      "outputs": [
        {
          "internalType": "bytes32",
          "name": "",
          "type": "bytes32"
        }
      ],
      "payable": false,
      "stateMutability": "pure",
      "type": "function"
    },
    {
      "constant": false,
      "inputs": [
        {
          "internalType": "uint256",
          "name": "amount",
          "type": "uint256"
        }
      ],
      "name": "setFeePercentage",
      "outputs": [],
      "payable": false,
      "stateMutability": "nonpayable",
      "type": "function"
    },
    {
      "constant": true,
      "inputs": [],
      "name": "getFeePercentage",
      "outputs": [
        {
          "internalType": "uint256",
          "name": "",
          "type": "uint256"
        }
      ],
      "payable": false,
      "stateMutability": "view",
      "type": "function"
    },
    {
      "constant": true,
      "inputs": [],
      "name": "calcMaxWithdraw",
      "outputs": [
        {
          "internalType": "uint256",
          "name": "",
          "type": "uint256"
        }
      ],
      "payable": false,
      "stateMutability": "view",
      "type": "function"
    },
    {
      "constant": false,
      "inputs": [
        {
          "internalType": "address",
          "name": "newFederation",
          "type": "address"
        }
      ],
      "name": "changeFederation",
      "outputs": [
        {
          "internalType": "bool",
          "name": "",
          "type": "bool"
        }
      ],
      "payable": false,
      "stateMutability": "nonpayable",
      "type": "function"
    },
    {
      "constant": true,
      "inputs": [],
      "name": "getFederation",
      "outputs": [
        {
          "internalType": "address",
          "name": "",
          "type": "address"
        }
      ],
      "payable": false,
      "stateMutability": "view",
      "type": "function"
    },
    {
      "constant": false,
      "inputs": [
        {
          "internalType": "address",
          "name": "newSideTokenFactory",
          "type": "address"
        }
      ],
      "name": "changeSideTokenFactory",
      "outputs": [
        {
          "internalType": "bool",
          "name": "",
          "type": "bool"
        }
      ],
      "payable": false,
      "stateMutability": "nonpayable",
      "type": "function"
    },
    {
      "constant": false,
      "inputs": [],
      "name": "startUpgrade",
      "outputs": [],
      "payable": false,
      "stateMutability": "nonpayable",
      "type": "function"
    },
    {
      "constant": false,
      "inputs": [],
      "name": "endUpgrade",
      "outputs": [],
      "payable": false,
      "stateMutability": "nonpayable",
      "type": "function"
    },
    {
      "constant": false,
      "inputs": [],
      "name": "recieveEth",
      "outputs": [],
      "payable": true,
      "stateMutability": "payable",
      "type": "function"
    },
    {
      "constant": false,
      "inputs": [
        {
          "internalType": "address payable",
          "name": "_WETHAddr",
          "type": "address"
        }
      ],
      "name": "setWETHAddress",
      "outputs": [],
      "payable": false,
      "stateMutability": "nonpayable",
      "type": "function"
    },
    {
      "constant": false,
      "inputs": [
        {
          "internalType": "address",
          "name": "newAllowTokens",
          "type": "address"
        }
      ],
      "name": "changeAllowTokens",
      "outputs": [
        {
          "internalType": "bool",
          "name": "",
          "type": "bool"
        }
      ],
      "payable": false,
      "stateMutability": "nonpayable",
      "type": "function"
    },
    {
      "constant": false,
      "inputs": [
        {
          "internalType": "bool",
          "name": "_isSuffix",
          "type": "bool"
        },
        {
          "internalType": "string",
          "name": "_prefix",
          "type": "string"
        }
      ],
      "name": "initialSymbolPrefixSetup",
      "outputs": [],
      "payable": false,
      "stateMutability": "nonpayable",
      "type": "function"
    }
  ],
  "bytecode": "0x608060405261683e806100136000396000f3fe6080604052600436106102715760003560e01c80638456cb591161014f578063c4d66de8116100c1578063ea2170911161007a578063ea2170911461111d578063ec79137414611174578063f059cf2b146111a3578063f2fde38b146111ce578063f74032f01461121f578063fa0caa16146112b057610271565b8063c4d66de814610dd5578063d058ae9614610e26578063e265d0ba14610f9f578063e6ede14d14610fce578063e6fc77441461105f578063e8340a991461108a57610271565b8063a53d6e6e11610113578063a53d6e6e14610c13578063abdc380814610c6a578063ae06c1b714610cc1578063b794726214610cfc578063b86f60d214610d2b578063c1f0808a14610d8257610271565b80638456cb5914610b03578063874f4b7914610b1a5780638da5cb5b14610b245780638f32d59b14610b7b578063916dc59d14610baa57610271565b806354fd4d50116101e85780636b0c932d116101ac5780636b0c932d1461095a5780636ef8d66d14610985578063715018a61461099c5780637e5d3620146109b35780638129fc1c14610a9b57806382dc1ec414610ab257610271565b806354fd4d501461075157806359a8a867146107e15780635c975abb146108715780635d447129146108a05780636a4234eb1461090957610271565b8063257e1f8f1161023a578063257e1f8f146105b357806335729130146105ca5780633f4ba83a1461063d57806342cdb2c61461065457806346fbf68e146106bd5780634bc9fdc21461072657610271565b806223de29146102765780630e6ec779146103bb57806311efbf61146104df5780631e1c24b51461050a5780632239c48a1461059c575b600080fd5b34801561028257600080fd5b506103b9600480360360c081101561029957600080fd5b81019080803573ffffffffffffffffffffffffffffffffffffffff169060200190929190803573ffffffffffffffffffffffffffffffffffffffff169060200190929190803573ffffffffffffffffffffffffffffffffffffffff169060200190929190803590602001909291908035906020019064010000000081111561032057600080fd5b82018360208201111561033257600080fd5b8035906020019184600183028401116401000000008311171561035457600080fd5b90919293919293908035906020019064010000000081111561037557600080fd5b82018360208201111561038757600080fd5b803590602001918460018302840111640100000000831117156103a957600080fd5b9091929391929390505050611319565b005b3480156103c757600080fd5b506104c560048036036101208110156103df57600080fd5b81019080803573ffffffffffffffffffffffffffffffffffffffff169060200190929190803573ffffffffffffffffffffffffffffffffffffffff169060200190929190803590602001909291908035906020019064010000000081111561044657600080fd5b82018360208201111561045857600080fd5b8035906020019184600183028401116401000000008311171561047a57600080fd5b90919293919293908035906020019092919080359060200190929190803563ffffffff169060200190929190803560ff16906020019092919080359060200190929190505050611625565b604051808215151515815260200191505060405180910390f35b3480156104eb57600080fd5b506104f461169c565b6040518082815260200191505060405180910390f35b34801561051657600080fd5b5061059a6004803603604081101561052d57600080fd5b810190808035151590602001909291908035906020019064010000000081111561055657600080fd5b82018360208201111561056857600080fd5b8035906020019184600183028401116401000000008311171561058a57600080fd5b90919293919293905050506116a6565b005b3480156105a857600080fd5b506105b1611852565b005b3480156105bf57600080fd5b506105c8611933565b005b3480156105d657600080fd5b50610623600480360360408110156105ed57600080fd5b81019080803573ffffffffffffffffffffffffffffffffffffffff16906020019092919080359060200190929190505050611a14565b604051808215151515815260200191505060405180910390f35b34801561064957600080fd5b50610652611a40565b005b34801561066057600080fd5b506106a36004803603602081101561067757600080fd5b81019080803573ffffffffffffffffffffffffffffffffffffffff169060200190929190505050611bae565b604051808215151515815260200191505060405180910390f35b3480156106c957600080fd5b5061070c600480360360208110156106e057600080fd5b81019080803573ffffffffffffffffffffffffffffffffffffffff169060200190929190505050611c3c565b604051808215151515815260200191505060405180910390f35b34801561073257600080fd5b5061073b611c59565b6040518082815260200191505060405180910390f35b34801561075d57600080fd5b50610766611d29565b6040518080602001828103825283818151815260200191508051906020019080838360005b838110156107a657808201518184015260208101905061078b565b50505050905090810190601f1680156107d35780820380516001836020036101000a031916815260200191505b509250505060405180910390f35b3480156107ed57600080fd5b506107f6611d66565b6040518080602001828103825283818151815260200191508051906020019080838360005b8381101561083657808201518184015260208101905061081b565b50505050905090810190601f1680156108635780820380516001836020036101000a031916815260200191505b509250505060405180910390f35b34801561087d57600080fd5b50610886611e04565b604051808215151515815260200191505060405180910390f35b3480156108ac57600080fd5b506108ef600480360360208110156108c357600080fd5b81019080803573ffffffffffffffffffffffffffffffffffffffff169060200190929190505050611e1b565b604051808215151515815260200191505060405180910390f35b34801561091557600080fd5b506109586004803603602081101561092c57600080fd5b81019080803573ffffffffffffffffffffffffffffffffffffffff169060200190929190505050611e3b565b005b34801561096657600080fd5b5061096f611fdd565b6040518082815260200191505060405180910390f35b34801561099157600080fd5b5061099a611fe3565b005b3480156109a857600080fd5b506109b1611ff5565b005b3480156109bf57600080fd5b50610a81600480360360808110156109d657600080fd5b81019080803573ffffffffffffffffffffffffffffffffffffffff16906020019092919080359060200190929190803573ffffffffffffffffffffffffffffffffffffffff16906020019092919080359060200190640100000000811115610a3d57600080fd5b820183602082011115610a4f57600080fd5b80359060200191846001830284011164010000000083111715610a7157600080fd5b9091929391929390505050612130565b604051808215151515815260200191505060405180910390f35b348015610aa757600080fd5b50610ab061218d565b005b348015610abe57600080fd5b50610b0160048036036020811015610ad557600080fd5b81019080803573ffffffffffffffffffffffffffffffffffffffff169060200190929190505050612294565b005b348015610b0f57600080fd5b50610b18612305565b005b610b22612474565b005b348015610b3057600080fd5b50610b39612700565b604051808273ffffffffffffffffffffffffffffffffffffffff1673ffffffffffffffffffffffffffffffffffffffff16815260200191505060405180910390f35b348015610b8757600080fd5b50610b9061272a565b604051808215151515815260200191505060405180910390f35b348015610bb657600080fd5b50610bf960048036036020811015610bcd57600080fd5b81019080803573ffffffffffffffffffffffffffffffffffffffff169060200190929190505050612789565b604051808215151515815260200191505060405180910390f35b348015610c1f57600080fd5b50610c28612817565b604051808273ffffffffffffffffffffffffffffffffffffffff1673ffffffffffffffffffffffffffffffffffffffff16815260200191505060405180910390f35b348015610c7657600080fd5b50610c7f61283d565b604051808273ffffffffffffffffffffffffffffffffffffffff1673ffffffffffffffffffffffffffffffffffffffff16815260200191505060405180910390f35b348015610ccd57600080fd5b50610cfa60048036036020811015610ce457600080fd5b8101908080359060200190929190505050612863565b005b348015610d0857600080fd5b50610d11612a24565b604051808215151515815260200191505060405180910390f35b348015610d3757600080fd5b50610d40612a37565b604051808273ffffffffffffffffffffffffffffffffffffffff1673ffffffffffffffffffffffffffffffffffffffff16815260200191505060405180910390f35b348015610d8e57600080fd5b50610dbb60048036036020811015610da557600080fd5b8101908080359060200190929190505050612a5d565b604051808215151515815260200191505060405180910390f35b348015610de157600080fd5b50610e2460048036036020811015610df857600080fd5b81019080803573ffffffffffffffffffffffffffffffffffffffff169060200190929190505050612a7d565b005b348015610e3257600080fd5b50610f856004803603610140811015610e4a57600080fd5b81019080803573ffffffffffffffffffffffffffffffffffffffff169060200190929190803573ffffffffffffffffffffffffffffffffffffffff1690602001909291908035906020019092919080359060200190640100000000811115610eb157600080fd5b820183602082011115610ec357600080fd5b80359060200191846001830284011164010000000083111715610ee557600080fd5b90919293919293908035906020019092919080359060200190929190803563ffffffff169060200190929190803560ff1690602001909291908035906020019092919080359060200190640100000000811115610f4157600080fd5b820183602082011115610f5357600080fd5b80359060200191846001830284011164010000000083111715610f7557600080fd5b9091929391929390505050612c3b565b604051808215151515815260200191505060405180910390f35b348015610fab57600080fd5b50610fb4612ce9565b604051808215151515815260200191505060405180910390f35b348015610fda57600080fd5b5061101d60048036036020811015610ff157600080fd5b81019080803573ffffffffffffffffffffffffffffffffffffffff169060200190929190505050612cfc565b604051808273ffffffffffffffffffffffffffffffffffffffff1673ffffffffffffffffffffffffffffffffffffffff16815260200191505060405180910390f35b34801561106b57600080fd5b50611074612d2f565b6040518082815260200191505060405180910390f35b34801561109657600080fd5b50611107600480360360a08110156110ad57600080fd5b810190808035906020019092919080359060200190929190803573ffffffffffffffffffffffffffffffffffffffff16906020019092919080359060200190929190803563ffffffff169060200190929190505050612d35565b6040518082815260200191505060405180910390f35b34801561112957600080fd5b50611132612dc7565b604051808273ffffffffffffffffffffffffffffffffffffffff1673ffffffffffffffffffffffffffffffffffffffff16815260200191505060405180910390f35b34801561118057600080fd5b50611189612df1565b604051808215151515815260200191505060405180910390f35b3480156111af57600080fd5b506111b8612e04565b6040518082815260200191505060405180910390f35b3480156111da57600080fd5b5061121d600480360360208110156111f157600080fd5b81019080803573ffffffffffffffffffffffffffffffffffffffff169060200190929190505050612e0a565b005b34801561122b57600080fd5b5061126e6004803603602081101561124257600080fd5b81019080803573ffffffffffffffffffffffffffffffffffffffff169060200190929190505050612e90565b604051808273ffffffffffffffffffffffffffffffffffffffff1673ffffffffffffffffffffffffffffffffffffffff16815260200191505060405180910390f35b3480156112bc57600080fd5b506112ff600480360360208110156112d357600080fd5b81019080803573ffffffffffffffffffffffffffffffffffffffff169060200190929190505050612ec3565b604051808215151515815260200191505060405180910390f35b603460009054906101000a900460ff161561139c576040517f08c379a00000000000000000000000000000000000000000000000000000000081526004018080602001828103825260108152602001807f5061757361626c653a207061757365640000000000000000000000000000000081525060200191505060405180910390fd5b604060149054906101000a900460ff161561141f576040517f08c379a00000000000000000000000000000000000000000000000000000000081526004018080602001828103825260118152602001807f4272696467653a20557067726164696e6700000000000000000000000000000081525060200191505060405180910390fd5b3073ffffffffffffffffffffffffffffffffffffffff168873ffffffffffffffffffffffffffffffffffffffff1614156114585761161b565b3073ffffffffffffffffffffffffffffffffffffffff168673ffffffffffffffffffffffffffffffffffffffff16146114f9576040517f08c379a00000000000000000000000000000000000000000000000000000000081526004018080602001828103825260168152602001807f4272696467653a204e6f7420746f20616464726573730000000000000000000081525060200191505060405180910390fd5b6000611503612f51565b9050604260009054906101000a900473ffffffffffffffffffffffffffffffffffffffff1673ffffffffffffffffffffffffffffffffffffffff168173ffffffffffffffffffffffffffffffffffffffff1614156115c9576040517f08c379a000000000000000000000000000000000000000000000000000000000815260040180806020018281038252601c8152602001807f4272696467653a2043616e6e6f74207472616e7366657220574554480000000081525060200191505060405180910390fd5b61161981898888888080601f016020809104026020016040519081016040528093929190818152602001838380828437600081840152601f19601f82011690508083019250505050505050612f59565b505b5050505050505050565b600061168c8b8b8b8b8b8080601f016020809104026020016040519081016040528093929190818152602001838380828437600081840152601f19601f820116905080830192505050505050508a8a8a8a8a60405180602001604052806000815250613a4e565b90509a9950505050505050505050565b6000603754905090565b6116ae61272a565b611720576040517f08c379a00000000000000000000000000000000000000000000000000000000081526004018080602001828103825260208152602001807f4f776e61626c653a2063616c6c6572206973206e6f7420746865206f776e657281525060200191505060405180910390fd5b604260149054906101000a900460ff16156117a3576040517f08c379a000000000000000000000000000000000000000000000000000000000815260040180806020018281038252601f8152602001807f4272696467653a20696e697469616c507265666978536574757020446f6e650081525060200191505060405180910390fd5b82604260156101000a81548160ff0219169083151502179055508181603891906117ce9291906165f2565b507fbc2d55e9780b6735786183a7d9d614a0c45670d7ce3948b5df9453989fb15f7f604260159054906101000a900460ff1683836040518084151515158152602001806020018281038252848482818152602001925080828437600081840152601f19601f82011690508083019250505094505050505060405180910390a1505050565b61185a61272a565b6118cc576040517f08c379a00000000000000000000000000000000000000000000000000000000081526004018080602001828103825260208152602001807f4f776e61626c653a2063616c6c6572206973206e6f7420746865206f776e657281525060200191505060405180910390fd5b6001604060146101000a81548160ff0219169083151502179055507f983e436223c000a441c2443b394ca5fb4669a513fe86dc1dd44494047b514ad9604060149054906101000a900460ff16604051808215151515815260200191505060405180910390a1565b61193b61272a565b6119ad576040517f08c379a00000000000000000000000000000000000000000000000000000000081526004018080602001828103825260208152602001807f4f776e61626c653a2063616c6c6572206973206e6f7420746865206f776e657281525060200191505060405180910390fd5b6000604060146101000a81548160ff0219169083151502179055507f983e436223c000a441c2443b394ca5fb4669a513fe86dc1dd44494047b514ad9604060149054906101000a900460ff16604051808215151515815260200191505060405180910390a1565b6000611a388383611a23612f51565b6040518060200160405280600081525061413e565b905092915050565b611a50611a4b612f51565b611c3c565b611aa5576040517f08c379a000000000000000000000000000000000000000000000000000000000815260040180806020018281038252602881526020018061670f6028913960400191505060405180910390fd5b603460009054906101000a900460ff16611b27576040517f08c379a00000000000000000000000000000000000000000000000000000000081526004018080602001828103825260148152602001807f5061757361626c653a206e6f742070617573656400000000000000000000000081525060200191505060405180910390fd5b6000603460006101000a81548160ff0219169083151502179055507f5db9ee0a495bf2e6ff9c91a7834c1ba4fdd244a5e8aa4e537bd38aeae4b073aa611b6b612f51565b604051808273ffffffffffffffffffffffffffffffffffffffff1673ffffffffffffffffffffffffffffffffffffffff16815260200191505060405180910390a1565b6000611bb861272a565b611c2a576040517f08c379a00000000000000000000000000000000000000000000000000000000081526004018080602001828103825260208152602001807f4f776e61626c653a2063616c6c6572206973206e6f7420746865206f776e657281525060200191505060405180910390fd5b611c33826143c9565b60019050919050565b6000611c528260336144f690919063ffffffff16565b9050919050565b600080603a5490506201518060395401421115611c7557600090505b603f60009054906101000a900473ffffffffffffffffffffffffffffffffffffffff1673ffffffffffffffffffffffffffffffffffffffff1663680dc640826040518263ffffffff1660e01b81526004018082815260200191505060206040518083038186803b158015611ce857600080fd5b505afa158015611cfc573d6000803e3d6000fd5b505050506040513d6020811015611d1257600080fd5b810190808051906020019092919050505091505090565b60606040518060400160405280600281526020017f7633000000000000000000000000000000000000000000000000000000000000815250905090565b60388054600181600116156101000203166002900480601f016020809104026020016040519081016040528092919081815260200182805460018160011615610100020316600290048015611dfc5780601f10611dd157610100808354040283529160200191611dfc565b820191906000526020600020905b815481529060010190602001808311611ddf57829003601f168201915b505050505081565b6000603460009054906101000a900460ff16905090565b603d6020528060005260406000206000915054906101000a900460ff1681565b611e4361272a565b611eb5576040517f08c379a00000000000000000000000000000000000000000000000000000000081526004018080602001828103825260208152602001807f4f776e61626c653a2063616c6c6572206973206e6f7420746865206f776e657281525060200191505060405180910390fd5b600073ffffffffffffffffffffffffffffffffffffffff168173ffffffffffffffffffffffffffffffffffffffff161415611f58576040517f08c379a00000000000000000000000000000000000000000000000000000000081526004018080602001828103825260188152602001807f5745544820697320746865207a65726f2061646472657373000000000000000081525060200191505060405180910390fd5b80604260006101000a81548173ffffffffffffffffffffffffffffffffffffffff021916908373ffffffffffffffffffffffffffffffffffffffff16021790555080604160006101000a81548173ffffffffffffffffffffffffffffffffffffffff021916908373ffffffffffffffffffffffffffffffffffffffff16021790555050565b60395481565b611ff3611fee612f51565b6145d4565b565b611ffd61272a565b61206f576040517f08c379a00000000000000000000000000000000000000000000000000000000081526004018080602001828103825260208152602001807f4f776e61626c653a2063616c6c6572206973206e6f7420746865206f776e657281525060200191505060405180910390fd5b600073ffffffffffffffffffffffffffffffffffffffff16603460019054906101000a900473ffffffffffffffffffffffffffffffffffffffff1673ffffffffffffffffffffffffffffffffffffffff167f8be0079c531659141344cd1fd0a4f28419497f9722a3daafe3b4186f6b6457e060405160405180910390a36000603460016101000a81548173ffffffffffffffffffffffffffffffffffffffff021916908373ffffffffffffffffffffffffffffffffffffffff160217905550565b600061218286868686868080601f016020809104026020016040519081016040528093929190818152602001838380828437600081840152601f19601f8201169050808301925050505050505061413e565b905095945050505050565b600060019054906101000a900460ff16806121ac57506121ab61462e565b5b806121c357506000809054906101000a900460ff16155b612218576040517f08c379a00000000000000000000000000000000000000000000000000000000081526004018080602001828103825260288152602001806166e76028913960400191505060405180910390fd5b60008060019054906101000a900460ff161590508015612268576001600060016101000a81548160ff02191690831515021790555060016000806101000a81548160ff0219169083151502179055505b600160358190555080156122915760008060016101000a81548160ff0219169083151502179055505b50565b6122a461229f612f51565b611c3c565b6122f9576040517f08c379a000000000000000000000000000000000000000000000000000000000815260040180806020018281038252602881526020018061670f6028913960400191505060405180910390fd5b6123028161463f565b50565b612315612310612f51565b611c3c565b61236a576040517f08c379a000000000000000000000000000000000000000000000000000000000815260040180806020018281038252602881526020018061670f6028913960400191505060405180910390fd5b603460009054906101000a900460ff16156123ed576040517f08c379a00000000000000000000000000000000000000000000000000000000081526004018080602001828103825260108152602001807f5061757361626c653a207061757365640000000000000000000000000000000081525060200191505060405180910390fd5b6001603460006101000a81548160ff0219169083151502179055507f62e78cea01bee320cd4e420270b5ea74000d11b0c9f74754ebdbfc544b05a258612431612f51565b604051808273ffffffffffffffffffffffffffffffffffffffff1673ffffffffffffffffffffffffffffffffffffffff16815260200191505060405180910390a1565b600034116124ea576040517f08c379a000000000000000000000000000000000000000000000000000000000815260040180806020018281038252601d8152602001807f45746820616d6f756e742073656e642073686f756c64206265203e203000000081525060200191505060405180910390fd5b600073ffffffffffffffffffffffffffffffffffffffff16604260009054906101000a900473ffffffffffffffffffffffffffffffffffffffff1673ffffffffffffffffffffffffffffffffffffffff1614156125af576040517f08c379a00000000000000000000000000000000000000000000000000000000081526004018080602001828103825260188152602001807f5745544820697320746865207a65726f2061646472657373000000000000000081525060200191505060405180910390fd5b3073ffffffffffffffffffffffffffffffffffffffff163373ffffffffffffffffffffffffffffffffffffffff16146126fe57604160009054906101000a900473ffffffffffffffffffffffffffffffffffffffff1673ffffffffffffffffffffffffffffffffffffffff1663d0e30db0346040518263ffffffff1660e01b81526004016000604051808303818588803b15801561264c57600080fd5b505af1158015612660573d6000803e3d6000fd5b5050505050606060405180602001604052806000815250905060008036905011156126ce576000368080601f016020809104026020016040519081016040528093929190818152602001838380828437600081840152601f19601f8201169050808301925050505050505090505b6126fc604260009054906101000a900473ffffffffffffffffffffffffffffffffffffffff16333484612f59565b505b565b6000603460019054906101000a900473ffffffffffffffffffffffffffffffffffffffff16905090565b6000603460019054906101000a900473ffffffffffffffffffffffffffffffffffffffff1673ffffffffffffffffffffffffffffffffffffffff1661276d612f51565b73ffffffffffffffffffffffffffffffffffffffff1614905090565b600061279361272a565b612805576040517f08c379a00000000000000000000000000000000000000000000000000000000081526004018080602001828103825260208152602001807f4f776e61626c653a2063616c6c6572206973206e6f7420746865206f776e657281525060200191505060405180910390fd5b61280e82614699565b60019050919050565b603f60009054906101000a900473ffffffffffffffffffffffffffffffffffffffff1681565b604260009054906101000a900473ffffffffffffffffffffffffffffffffffffffff1681565b61286b61272a565b6128dd576040517f08c379a00000000000000000000000000000000000000000000000000000000081526004018080602001828103825260208152602001807f4f776e61626c653a2063616c6c6572206973206e6f7420746865206f776e657281525060200191505060405180910390fd5b603460009054906101000a900460ff1615612960576040517f08c379a00000000000000000000000000000000000000000000000000000000081526004018080602001828103825260108152602001807f5061757361626c653a207061757365640000000000000000000000000000000081525060200191505060405180910390fd5b600a6127108161296c57fe5b0481106129e1576040517f08c379a00000000000000000000000000000000000000000000000000000000081526004018080602001828103825260178152602001807f4272696467653a20626967676572207468616e2031302500000000000000000081525060200191505060405180910390fd5b806037819055507f97e97c577f03bda90e2c9739011ec065ed5fbfb36ae217d20bb0d9be95e160cd6037546040518082815260200191505060405180910390a150565b604060149054906101000a900460ff1681565b604060009054906101000a900473ffffffffffffffffffffffffffffffffffffffff1681565b603e6020528060005260406000206000915054906101000a900460ff1681565b600060019054906101000a900460ff1680612a9c5750612a9b61462e565b5b80612ab357506000809054906101000a900460ff16155b612b08576040517f08c379a00000000000000000000000000000000000000000000000000000000081526004018080602001828103825260288152602001806166e76028913960400191505060405180910390fd5b60008060019054906101000a900460ff161590508015612b58576001600060016101000a81548160ff02191690831515021790555060016000806101000a81548160ff0219169083151502179055505b81603460016101000a81548173ffffffffffffffffffffffffffffffffffffffff021916908373ffffffffffffffffffffffffffffffffffffffff160217905550603460019054906101000a900473ffffffffffffffffffffffffffffffffffffffff1673ffffffffffffffffffffffffffffffffffffffff16600073ffffffffffffffffffffffffffffffffffffffff167f8be0079c531659141344cd1fd0a4f28419497f9722a3daafe3b4186f6b6457e060405160405180910390a38015612c375760008060016101000a81548160ff0219169083151502179055505b5050565b6000612cd78d8d8d8d8d8080601f016020809104026020016040519081016040528093929190818152602001838380828437600081840152601f19601f820116905080830192505050505050508c8c8c8c8c8c8c8080601f016020809104026020016040519081016040528093929190818152602001838380828437600081840152601f19601f82011690508083019250505050505050613a4e565b90509c9b505050505050505050505050565b604260149054906101000a900460ff1681565b603b6020528060005260406000206000915054906101000a900473ffffffffffffffffffffffffffffffffffffffff1681565b61271081565b60008585858585604051602001808681526020018581526020018473ffffffffffffffffffffffffffffffffffffffff1673ffffffffffffffffffffffffffffffffffffffff1660601b81526014018381526020018263ffffffff1663ffffffff1660e01b81526004019550505050505060405160208183030381529060405280519060200120905095945050505050565b6000603660009054906101000a900473ffffffffffffffffffffffffffffffffffffffff16905090565b604260159054906101000a900460ff1681565b603a5481565b612e1261272a565b612e84576040517f08c379a00000000000000000000000000000000000000000000000000000000081526004018080602001828103825260208152602001807f4f776e61626c653a2063616c6c6572206973206e6f7420746865206f776e657281525060200191505060405180910390fd5b612e8d816147e3565b50565b603c6020528060005260406000206000915054906101000a900473ffffffffffffffffffffffffffffffffffffffff1681565b6000612ecd61272a565b612f3f576040517f08c379a00000000000000000000000000000000000000000000000000000000081526004018080602001828103825260208152602001807f4f776e61626c653a2063616c6c6572206973206e6f7420746865206f776e657281525060200191505060405180910390fd5b612f4882614929565b60019050919050565b600033905090565b60008073ffffffffffffffffffffffffffffffffffffffff16603c60008773ffffffffffffffffffffffffffffffffffffffff1673ffffffffffffffffffffffffffffffffffffffff16815260200190815260200160002060009054906101000a900473ffffffffffffffffffffffffffffffffffffffff1673ffffffffffffffffffffffffffffffffffffffff16141590506000603f60009054906101000a900473ffffffffffffffffffffffffffffffffffffffff1673ffffffffffffffffffffffffffffffffffffffff16631da0dff1876040518263ffffffff1660e01b8152600401808273ffffffffffffffffffffffffffffffffffffffff1673ffffffffffffffffffffffffffffffffffffffff16815260200191505060206040518083038186803b15801561308d57600080fd5b505afa1580156130a1573d6000803e3d6000fd5b505050506040513d60208110156130b757600080fd5b8101908080519060200190929190505050905060006130df8286614a9590919063ffffffff16565b905082156131aa57600061317c8873ffffffffffffffffffffffffffffffffffffffff1663556f0dc76040518163ffffffff1660e01b815260040160206040518083038186803b15801561313257600080fd5b505afa158015613146573d6000803e3d6000fd5b505050506040513d602081101561315c57600080fd5b810190808051906020019092919050505083614adf90919063ffffffff16565b90506131918184614b2990919063ffffffff16565b92506131a68183614a9590919063ffffffff16565b9150505b60008211156131e6576131e56131be612700565b838973ffffffffffffffffffffffffffffffffffffffff16614bb19092919063ffffffff16565b5b82156136c6576131f7878685614c82565b8673ffffffffffffffffffffffffffffffffffffffff1663fe9d930382866040518363ffffffff1660e01b81526004018083815260200180602001828103825283818151815260200191508051906020019080838360005b8381101561326a57808201518184015260208101905061324f565b50505050905090810190601f1680156132975780820380516001836020036101000a031916815260200191505b509350505050600060405180830381600087803b1580156132b757600080fd5b505af11580156132cb573d6000803e3d6000fd5b505050508573ffffffffffffffffffffffffffffffffffffffff16603c60008973ffffffffffffffffffffffffffffffffffffffff1673ffffffffffffffffffffffffffffffffffffffff16815260200190815260200160002060009054906101000a900473ffffffffffffffffffffffffffffffffffffffff1673ffffffffffffffffffffffffffffffffffffffff167f33409cca56f705a7bbed38b7db57cf3a63317f3c1b9a747bbfb3d3ecffa84f6f838a73ffffffffffffffffffffffffffffffffffffffff166395d89b416040518163ffffffff1660e01b815260040160006040518083038186803b1580156133c457600080fd5b505afa1580156133d8573d6000803e3d6000fd5b505050506040513d6000823e3d601f19601f82011682018060405250602081101561340257600080fd5b810190808051604051939291908464010000000082111561342257600080fd5b8382019150602082018581111561343857600080fd5b825186600182028301116401000000008211171561345557600080fd5b8083526020830192505050908051906020019080838360005b8381101561348957808201518184015260208101905061346e565b50505050905090810190601f1680156134b65780820380516001836020036101000a031916815260200191505b50604052505050888c73ffffffffffffffffffffffffffffffffffffffff1663313ce5676040518163ffffffff1660e01b815260040160206040518083038186803b15801561350457600080fd5b505afa158015613518573d6000803e3d6000fd5b505050506040513d602081101561352e57600080fd5b81019080805190602001909291905050508d73ffffffffffffffffffffffffffffffffffffffff1663556f0dc76040518163ffffffff1660e01b815260040160206040518083038186803b15801561358557600080fd5b505afa158015613599573d6000803e3d6000fd5b505050506040513d60208110156135af57600080fd5b81019080805190602001909291905050506040518086815260200180602001806020018560ff1660ff168152602001848152602001838103835287818151815260200191508051906020019080838360005b8381101561361c578082015181840152602081019050613601565b50505050905090810190601f1680156136495780820380516001836020036101000a031916815260200191505b50838103825286818151815260200191508051906020019080838360005b83811015613682578082015181840152602081019050613667565b50505050905090810190601f1680156136af5780820380516001836020036101000a031916815260200191505b5097505050505050505060405180910390a3613a45565b6001603d60008973ffffffffffffffffffffffffffffffffffffffff1673ffffffffffffffffffffffffffffffffffffffff16815260200190815260200160002060006101000a81548160ff021916908315150217905550600080606073__Utils_________________________________631f69565f8b6040518263ffffffff1660e01b8152600401808273ffffffffffffffffffffffffffffffffffffffff1673ffffffffffffffffffffffffffffffffffffffff16815260200191505060006040518083038186803b15801561379e57600080fd5b505af41580156137b2573d6000803e3d6000fd5b505050506040513d6000823e3d601f19601f8201168201806040525060608110156137dc57600080fd5b8101908080519060200190929190805190602001909291908051604051939291908464010000000082111561381057600080fd5b8382019150602082018581111561382657600080fd5b825186600182028301116401000000008211171561384357600080fd5b8083526020830192505050908051906020019080838360005b8381101561387757808201518184015260208101905061385c565b50505050905090810190601f1680156138a45780820380516001836020036101000a031916815260200191505b50604052505050925092509250600088905060128460ff16146138e0576138dd8460120360ff16600a0a8a614e2b90919063ffffffff16565b90505b6138eb8b8289614c82565b8973ffffffffffffffffffffffffffffffffffffffff168b73ffffffffffffffffffffffffffffffffffffffff167f33409cca56f705a7bbed38b7db57cf3a63317f3c1b9a747bbfb3d3ecffa84f6f87858c89896040518086815260200180602001806020018560ff1660ff168152602001848152602001838103835287818151815260200191508051906020019080838360005b8381101561399b578082015181840152602081019050613980565b50505050905090810190601f1680156139c85780820380516001836020036101000a031916815260200191505b50838103825286818151815260200191508051906020019080838360005b83811015613a015780820151818401526020810190506139e6565b50505050905090810190601f168015613a2e5780820380516001836020036101000a031916815260200191505b5097505050505050505060405180910390a3505050505b50505050505050565b6000603660009054906101000a900473ffffffffffffffffffffffffffffffffffffffff1673ffffffffffffffffffffffffffffffffffffffff163373ffffffffffffffffffffffffffffffffffffffff1614613b13576040517f08c379a000000000000000000000000000000000000000000000000000000000815260040180806020018281038252601d8152602001807f4272696467653a2053656e646572206e6f742046656465726174696f6e00000081525060200191505060405180910390fd5b603460009054906101000a900460ff1615613b96576040517f08c379a00000000000000000000000000000000000000000000000000000000081526004018080602001828103825260108152602001807f5061757361626c653a207061757365640000000000000000000000000000000081525060200191505060405180910390fd5b600160356000828254019250508190555060006035549050600073ffffffffffffffffffffffffffffffffffffffff168c73ffffffffffffffffffffffffffffffffffffffff161415613c51576040517f08c379a00000000000000000000000000000000000000000000000000000000081526004018080602001828103825260158152602001807f4272696467653a20546f6b656e206973206e756c6c000000000000000000000081525060200191505060405180910390fd5b600073ffffffffffffffffffffffffffffffffffffffff168b73ffffffffffffffffffffffffffffffffffffffff161415613cf4576040517f08c379a00000000000000000000000000000000000000000000000000000000081526004018080602001828103825260188152602001807f4272696467653a205265636569766572206973206e756c6c000000000000000081525060200191505060405180910390fd5b60008a11613d6a576040517f08c379a00000000000000000000000000000000000000000000000000000000081526004018080602001828103825260108152602001807f4272696467653a20416d6f756e7420300000000000000000000000000000000081525060200191505060405180910390fd5b6000895111613de1576040517f08c379a00000000000000000000000000000000000000000000000000000000081526004018080602001828103825260148152602001807f4272696467653a20456d7074792073796d626f6c00000000000000000000000081525060200191505060405180910390fd5b6000801b881415613e5a576040517f08c379a00000000000000000000000000000000000000000000000000000000081526004018080602001828103825260198152602001807f4272696467653a20426c6f636b48617368206973206e756c6c0000000000000081525060200191505060405180910390fd5b6000801b871415613ed3576040517f08c379a000000000000000000000000000000000000000000000000000000000815260040180806020018281038252601b8152602001807f4272696467653a205472616e73616374696f6e206973206e756c6c000000000081525060200191505060405180910390fd5b60128560ff161115613f4d576040517f08c379a000000000000000000000000000000000000000000000000000000000815260040180806020018281038252601a8152602001807f4272696467653a20446563696d616c732062696767657220313800000000000081525060200191505060405180910390fd5b601273__Utils_________________________________6319bd2045866040518263ffffffff1660e01b81526004018082815260200191505060206040518083038186803b158015613f9e57600080fd5b505af4158015613fb2573d6000803e3d6000fd5b505050506040513d6020811015613fc857600080fd5b810190808051906020019092919050505060ff161115614050576040517f08c379a000000000000000000000000000000000000000000000000000000000815260040180806020018281038252601b8152602001807f4272696467653a20696e76616c6964206772616e756c6172697479000000000081525060200191505060405180910390fd5b61405d88888d8d8a614eb1565b603d60008d73ffffffffffffffffffffffffffffffffffffffff1673ffffffffffffffffffffffffffffffffffffffff16815260200190815260200160002060009054906101000a900460ff16156140c1576140bc8b8d87878e614f8a565b6140d1565b6140d08b8d87878e8e896152d4565b5b60019150603554811461412f576040517f08c379a00000000000000000000000000000000000000000000000000000000081526004018080602001828103825260258152602001806166c26025913960400191505060405180910390fd5b509a9950505050505050505050565b6000604060149054906101000a900460ff16156141c3576040517f08c379a00000000000000000000000000000000000000000000000000000000081526004018080602001828103825260118152602001807f4272696467653a20557067726164696e6700000000000000000000000000000081525060200191505060405180910390fd5b603460009054906101000a900460ff1615614246576040517f08c379a00000000000000000000000000000000000000000000000000000000081526004018080602001828103825260108152602001807f5061757361626c653a207061757365640000000000000000000000000000000081525060200191505060405180910390fd5b600160356000828254019250508190555060006035549050604260009054906101000a900473ffffffffffffffffffffffffffffffffffffffff1673ffffffffffffffffffffffffffffffffffffffff168673ffffffffffffffffffffffffffffffffffffffff161415614322576040517f08c379a000000000000000000000000000000000000000000000000000000000815260040180806020018281038252601c8152602001807f4272696467653a2043616e6e6f74207472616e7366657220574554480000000081525060200191505060405180910390fd5b61435661432d612f51565b30878973ffffffffffffffffffffffffffffffffffffffff166159ea909392919063ffffffff16565b61436286858786612f59565b6001915060355481146143c0576040517f08c379a00000000000000000000000000000000000000000000000000000000081526004018080602001828103825260258152602001806166c26025913960400191505060405180910390fd5b50949350505050565b600073ffffffffffffffffffffffffffffffffffffffff168173ffffffffffffffffffffffffffffffffffffffff16141561444f576040517f08c379a000000000000000000000000000000000000000000000000000000000815260040180806020018281038252602181526020018061675a6021913960400191505060405180910390fd5b80604060006101000a81548173ffffffffffffffffffffffffffffffffffffffff021916908373ffffffffffffffffffffffffffffffffffffffff1602179055507f619936bc6e3618d0b8dc69bcc70134fe9d88f9967f3a8b8304e318369252162581604051808273ffffffffffffffffffffffffffffffffffffffff1673ffffffffffffffffffffffffffffffffffffffff16815260200191505060405180910390a150565b60008073ffffffffffffffffffffffffffffffffffffffff168273ffffffffffffffffffffffffffffffffffffffff16141561457d576040517f08c379a000000000000000000000000000000000000000000000000000000000815260040180806020018281038252602281526020018061679c6022913960400191505060405180910390fd5b8260000160008373ffffffffffffffffffffffffffffffffffffffff1673ffffffffffffffffffffffffffffffffffffffff16815260200190815260200160002060009054906101000a900460ff16905092915050565b6145e8816033615af090919063ffffffff16565b8073ffffffffffffffffffffffffffffffffffffffff167fcd265ebaf09df2871cc7bd4133404a235ba12eff2041bb89d9c714a2621c7c7e60405160405180910390a250565b600080303b90506000811491505090565b614653816033615bca90919063ffffffff16565b8073ffffffffffffffffffffffffffffffffffffffff167f6719d08c1888103bea251a4ed56406bd0c3e69723c8a1686e017e7bbe159b6f860405160405180910390a250565b600073ffffffffffffffffffffffffffffffffffffffff168173ffffffffffffffffffffffffffffffffffffffff16141561473c576040517f08c379a000000000000000000000000000000000000000000000000000000000815260040180806020018281038252601f8152602001807f4272696467653a206e6577416c6c6f77546f6b656e7320697320656d7074790081525060200191505060405180910390fd5b80603f60006101000a81548173ffffffffffffffffffffffffffffffffffffffff021916908373ffffffffffffffffffffffffffffffffffffffff1602179055507f689c121aa6d0a956b45ef68525b4a72a35c69dcc2f8e398dfd6ceaa595ce0d2f81604051808273ffffffffffffffffffffffffffffffffffffffff1673ffffffffffffffffffffffffffffffffffffffff16815260200191505060405180910390a150565b600073ffffffffffffffffffffffffffffffffffffffff168173ffffffffffffffffffffffffffffffffffffffff161415614869576040517f08c379a00000000000000000000000000000000000000000000000000000000081526004018080602001828103825260228152602001806167be6022913960400191505060405180910390fd5b8073ffffffffffffffffffffffffffffffffffffffff16603460019054906101000a900473ffffffffffffffffffffffffffffffffffffffff1673ffffffffffffffffffffffffffffffffffffffff167f8be0079c531659141344cd1fd0a4f28419497f9722a3daafe3b4186f6b6457e060405160405180910390a380603460016101000a81548173ffffffffffffffffffffffffffffffffffffffff021916908373ffffffffffffffffffffffffffffffffffffffff16021790555050565b600073ffffffffffffffffffffffffffffffffffffffff168173ffffffffffffffffffffffffffffffffffffffff1614156149cc576040517f08c379a000000000000000000000000000000000000000000000000000000000815260040180806020018281038252601b8152602001807f4272696467653a2046656465726174696f6e20697320656d707479000000000081525060200191505060405180910390fd5b80603660006101000a81548173ffffffffffffffffffffffffffffffffffffffff021916908373ffffffffffffffffffffffffffffffffffffffff1602179055507f4a41a4d11aaf0c0c9e4311ac1d68b2b0134556da594779a2a35b0ddf7cd1eafb603660009054906101000a900473ffffffffffffffffffffffffffffffffffffffff16604051808273ffffffffffffffffffffffffffffffffffffffff1673ffffffffffffffffffffffffffffffffffffffff16815260200191505060405180910390a150565b6000614ad783836040518060400160405280601e81526020017f536166654d6174683a207375627472616374696f6e206f766572666c6f770000815250615ca5565b905092915050565b6000614b2183836040518060400160405280601881526020017f536166654d6174683a206d6f64756c6f206279207a65726f0000000000000000815250615d65565b905092915050565b600080828401905083811015614ba7576040517f08c379a000000000000000000000000000000000000000000000000000000000815260040180806020018281038252601b8152602001807f536166654d6174683a206164646974696f6e206f766572666c6f77000000000081525060200191505060405180910390fd5b8091505092915050565b614c7d838473ffffffffffffffffffffffffffffffffffffffff1663a9059cbb905060e01b8484604051602401808373ffffffffffffffffffffffffffffffffffffffff1673ffffffffffffffffffffffffffffffffffffffff16815260200182815260200192505050604051602081830303815290604052907bffffffffffffffffffffffffffffffffffffffffffffffffffffffff19166020820180517bffffffffffffffffffffffffffffffffffffffffffffffffffffffff8381831617835250505050615e26565b505050565b6201518060395401421115614ca157426039819055506000603a819055505b603f60009054906101000a900473ffffffffffffffffffffffffffffffffffffffff1673ffffffffffffffffffffffffffffffffffffffff16639a4819bc8484603a54856040518563ffffffff1660e01b8152600401808573ffffffffffffffffffffffffffffffffffffffff1673ffffffffffffffffffffffffffffffffffffffff1681526020018481526020018381526020018215151515815260200194505050505060206040518083038186803b158015614d5e57600080fd5b505afa158015614d72573d6000803e3d6000fd5b505050506040513d6020811015614d8857600080fd5b8101908080519060200190929190505050614e0b576040517f08c379a00000000000000000000000000000000000000000000000000000000081526004018080602001828103825260198152602001807f4272696467653a20426967676572207468616e206c696d69740000000000000081525060200191505060405180910390fd5b614e2082603a54614b2990919063ffffffff16565b603a81905550505050565b600080831415614e3e5760009050614eab565b6000828402905082848281614e4f57fe5b0414614ea6576040517f08c379a000000000000000000000000000000000000000000000000000000000815260040180806020018281038252602181526020018061677b6021913960400191505060405180910390fd5b809150505b92915050565b6000614ec08686868686612d35565b9050603e600082815260200190815260200160002060009054906101000a900460ff1615614f56576040517f08c379a00000000000000000000000000000000000000000000000000000000081526004018080602001828103825260198152602001807f4272696467653a20416c72656164792070726f6365737365640000000000000081525060200191505060405180910390fd5b6001603e600083815260200190815260200160002060006101000a81548160ff021916908315150217905550505050505050565b60128360ff1614614fe6576040517f08c379a00000000000000000000000000000000000000000000000000000000081526004018080602001828103825260238152602001806167376023913960400191505060405180910390fd5b60008073__Utils_________________________________63dc98f6b78786866040518463ffffffff1660e01b8152600401808473ffffffffffffffffffffffffffffffffffffffff1673ffffffffffffffffffffffffffffffffffffffff1681526020018381526020018281526020019350505050604080518083038186803b15801561507357600080fd5b505af4158015615087573d6000803e3d6000fd5b505050506040513d604081101561509d57600080fd5b81019080805190602001909291908051906020019092919050505091509150604260009054906101000a900473ffffffffffffffffffffffffffffffffffffffff1673ffffffffffffffffffffffffffffffffffffffff168673ffffffffffffffffffffffffffffffffffffffff1614156151f157604160009054906101000a900473ffffffffffffffffffffffffffffffffffffffff1673ffffffffffffffffffffffffffffffffffffffff16632e1a7d4d846040518263ffffffff1660e01b815260040180828152602001915050600060405180830381600087803b15801561518757600080fd5b505af115801561519b573d6000803e3d6000fd5b5050505060008790508073ffffffffffffffffffffffffffffffffffffffff166108fc859081150290604051600060405180830381858888f193505050501580156151ea573d6000803e3d6000fd5b505061521d565b61521c87828873ffffffffffffffffffffffffffffffffffffffff16614bb19092919063ffffffff16565b5b8673ffffffffffffffffffffffffffffffffffffffff168673ffffffffffffffffffffffffffffffffffffffff167f3f11277de1ec7e6084b80bb080be00fd989d3e5d233d77504a7426511f5452f285888886886001604051808781526020018660ff1660ff1681526020018581526020018481526020018360ff1660ff1681526020018281526020018060200182810382526000815260200160200197505050505050505060405180910390a350505050505050565b60008073__Utils_________________________________63db8a2e3c8888886040518463ffffffff1660e01b8152600401808460ff1660ff1681526020018381526020018281526020019350505050604080518083038186803b15801561533b57600080fd5b505af415801561534f573d6000803e3d6000fd5b505050506040513d604081101561536557600080fd5b810190808051906020019092919080519060200190929190505050915091506000603b60008a73ffffffffffffffffffffffffffffffffffffffff1673ffffffffffffffffffffffffffffffffffffffff16815260200190815260200160002060009054906101000a900473ffffffffffffffffffffffffffffffffffffffff169050600073ffffffffffffffffffffffffffffffffffffffff168173ffffffffffffffffffffffffffffffffffffffff16141561542f57615428898685616071565b9050615508565b8073ffffffffffffffffffffffffffffffffffffffff1663556f0dc76040518163ffffffff1660e01b815260040160206040518083038186803b15801561547557600080fd5b505afa158015615489573d6000803e3d6000fd5b505050506040513d602081101561549f57600080fd5b81019080805190602001909291905050508314615507576040517f08c379a000000000000000000000000000000000000000000000000000000000815260040180806020018281038252602a815260200180616698602a913960400191505060405180910390fd5b5b8073ffffffffffffffffffffffffffffffffffffffff1663dcdc7dd08b84876040518463ffffffff1660e01b8152600401808473ffffffffffffffffffffffffffffffffffffffff1673ffffffffffffffffffffffffffffffffffffffff1681526020018381526020018060200180602001838103835284818151815260200191508051906020019080838360005b838110156155b2578082015181840152602081019050615597565b50505050905090810190601f1680156155df5780820380516001836020036101000a031916815260200191505b5083810382526000815260200160200195505050505050600060405180830381600087803b15801561561057600080fd5b505af1158015615624573d6000803e3d6000fd5b505050506156478a73ffffffffffffffffffffffffffffffffffffffff166165a7565b156158da57600060608b73ffffffffffffffffffffffffffffffffffffffff16848488604051602401808481526020018373ffffffffffffffffffffffffffffffffffffffff1673ffffffffffffffffffffffffffffffffffffffff16815260200180602001828103825283818151815260200191508051906020019080838360005b838110156156e55780820151818401526020810190506156ca565b50505050905090810190601f1680156157125780820380516001836020036101000a031916815260200191505b509450505050506040516020818303038152906040527fc4a58637000000000000000000000000000000000000000000000000000000007bffffffffffffffffffffffffffffffffffffffffffffffffffffffff19166020820180517bffffffffffffffffffffffffffffffffffffffffffffffffffffffff83818316178352505050506040518082805190602001908083835b602083106157c957805182526020820191506020810190506020830392506157a6565b6001836020036101000a0380198251168184511680821785525050505050509050019150506000604051808303816000865af19150503d806000811461582b576040519150601f19603f3d011682016040523d82523d6000602084013e615830565b606091505b5091509150816158d7577f64de857e027e5e94a8966c5707d2a9424097c78b217caf33543f84c2332483a1816040518080602001828103825283818151815260200191508051906020019080838360005b8381101561589c578082015181840152602081019050615881565b50505050905090810190601f1680156158c95780820380516001836020036101000a031916815260200191505b509250505060405180910390a15b50505b8973ffffffffffffffffffffffffffffffffffffffff168973ffffffffffffffffffffffffffffffffffffffff167f3f11277de1ec7e6084b80bb080be00fd989d3e5d233d77504a7426511f5452f2888b8b8760128a8c604051808881526020018760ff1660ff1681526020018681526020018581526020018460ff16815260200183815260200180602001828103825283818151815260200191508051906020019080838360005b8381101561599e578082015181840152602081019050615983565b50505050905090810190601f1680156159cb5780820380516001836020036101000a031916815260200191505b509850505050505050505060405180910390a350505050505050505050565b615aea848573ffffffffffffffffffffffffffffffffffffffff166323b872dd905060e01b858585604051602401808473ffffffffffffffffffffffffffffffffffffffff1673ffffffffffffffffffffffffffffffffffffffff1681526020018373ffffffffffffffffffffffffffffffffffffffff1673ffffffffffffffffffffffffffffffffffffffff1681526020018281526020019350505050604051602081830303815290604052907bffffffffffffffffffffffffffffffffffffffffffffffffffffffff19166020820180517bffffffffffffffffffffffffffffffffffffffffffffffffffffffff8381831617835250505050615e26565b50505050565b615afa82826144f6565b615b6c576040517f08c379a00000000000000000000000000000000000000000000000000000000081526004018080602001828103825260208152602001807f526f6c65733a206163636f756e7420646f65736e2774206861766520726f6c6581525060200191505060405180910390fd5b60008260000160008373ffffffffffffffffffffffffffffffffffffffff1673ffffffffffffffffffffffffffffffffffffffff16815260200190815260200160002060006101000a81548160ff0219169083151502179055505050565b615bd482826144f6565b15615c47576040517f08c379a000000000000000000000000000000000000000000000000000000000815260040180806020018281038252601f8152602001807f526f6c65733a206163636f756e7420616c72656164792068617320726f6c650081525060200191505060405180910390fd5b60018260000160008373ffffffffffffffffffffffffffffffffffffffff1673ffffffffffffffffffffffffffffffffffffffff16815260200190815260200160002060006101000a81548160ff0219169083151502179055505050565b6000838311158290615d52576040517f08c379a00000000000000000000000000000000000000000000000000000000081526004018080602001828103825283818151815260200191508051906020019080838360005b83811015615d17578082015181840152602081019050615cfc565b50505050905090810190601f168015615d445780820380516001836020036101000a031916815260200191505b509250505060405180910390fd5b5060008385039050809150509392505050565b6000808314158290615e12576040517f08c379a00000000000000000000000000000000000000000000000000000000081526004018080602001828103825283818151815260200191508051906020019080838360005b83811015615dd7578082015181840152602081019050615dbc565b50505050905090810190601f168015615e045780820380516001836020036101000a031916815260200191505b509250505060405180910390fd5b50828481615e1c57fe5b0690509392505050565b615e458273ffffffffffffffffffffffffffffffffffffffff166165a7565b615eb7576040517f08c379a000000000000000000000000000000000000000000000000000000000815260040180806020018281038252601f8152602001807f5361666545524332303a2063616c6c20746f206e6f6e2d636f6e74726163740081525060200191505060405180910390fd5b600060608373ffffffffffffffffffffffffffffffffffffffff16836040518082805190602001908083835b60208310615f065780518252602082019150602081019050602083039250615ee3565b6001836020036101000a0380198251168184511680821785525050505050509050019150506000604051808303816000865af19150503d8060008114615f68576040519150601f19603f3d011682016040523d82523d6000602084013e615f6d565b606091505b509150915081615fe5576040517f08c379a00000000000000000000000000000000000000000000000000000000081526004018080602001828103825260208152602001807f5361666545524332303a206c6f772d6c6576656c2063616c6c206661696c656481525060200191505060405180910390fd5b60008151111561606b5780806020019051602081101561600457600080fd5b810190808051906020019092919050505061606a576040517f08c379a000000000000000000000000000000000000000000000000000000000815260040180806020018281038252602a8152602001806167e0602a913960400191505060405180910390fd5b5b50505050565b60006001604260146101000a81548160ff0219169083151502179055506060604260159054906101000a900460ff166161725760388460405160200180838054600181600116156101000203166002900480156161055780601f106160e3576101008083540402835291820191616105565b820191906000526020600020905b8154815290600101906020018083116160f1575b505082805190602001908083835b602083106161365780518252602082019150602081019050602083039250616113565b6001836020036101000a03801982511681845116808217855250505050505090500192505050604051602081830303815290604052905061623c565b8360386040516020018083805190602001908083835b602083106161ab5780518252602082019150602081019050602083039250616188565b6001836020036101000a038019825116818451168082178552505050505050905001828054600181600116156101000203166002900480156162245780601f10616202576101008083540402835291820191616224565b820191906000526020600020905b815481529060010190602001808311616210575b50509250505060405160208183030381529060405290505b6000604060009054906101000a900473ffffffffffffffffffffffffffffffffffffffff1673ffffffffffffffffffffffffffffffffffffffff166326d9e9638384876040518463ffffffff1660e01b8152600401808060200180602001848152602001838103835286818151815260200191508051906020019080838360005b838110156162d85780820151818401526020810190506162bd565b50505050905090810190601f1680156163055780820380516001836020036101000a031916815260200191505b50838103825285818151815260200191508051906020019080838360005b8381101561633e578082015181840152602081019050616323565b50505050905090810190601f16801561636b5780820380516001836020036101000a031916815260200191505b5095505050505050602060405180830381600087803b15801561638d57600080fd5b505af11580156163a1573d6000803e3d6000fd5b505050506040513d60208110156163b757600080fd5b8101908080519060200190929190505050905080925082603b60008873ffffffffffffffffffffffffffffffffffffffff1673ffffffffffffffffffffffffffffffffffffffff16815260200190815260200160002060006101000a81548173ffffffffffffffffffffffffffffffffffffffff021916908373ffffffffffffffffffffffffffffffffffffffff16021790555085603c60008373ffffffffffffffffffffffffffffffffffffffff1673ffffffffffffffffffffffffffffffffffffffff16815260200190815260200160002060006101000a81548173ffffffffffffffffffffffffffffffffffffffff021916908373ffffffffffffffffffffffffffffffffffffffff1602179055508573ffffffffffffffffffffffffffffffffffffffff168173ffffffffffffffffffffffffffffffffffffffff167f2ef93c4e96a4ef0b19497ff60c9e7360a8734f3d2cd27ae5318e43851734d17f84876040518080602001838152602001828103825284818151815260200191508051906020019080838360005b83811015616560578082015181840152602081019050616545565b50505050905090810190601f16801561658d5780820380516001836020036101000a031916815260200191505b50935050505060405180910390a382925050509392505050565b60008060007fc5d2460186f7233c927e7db2dcc703c0e500b653ca82273b7bfad8045d85a47060001b9050833f91508082141580156165e957506000801b8214155b92505050919050565b828054600181600116156101000203166002900490600052602060002090601f016020900481019282601f1061663357803560ff1916838001178555616661565b82800160010185558215616661579182015b82811115616660578235825591602001919060010190616645565b5b50905061666e9190616672565b5090565b61669491905b80821115616690576000816000905550600101616678565b5090565b9056fe4272696467653a204772616e756c6172697479206469666665722066726f6d207369646520746f6b656e5265656e7472616e637947756172643a206e6f207265656e7472616e7420616c6c6f776564436f6e747261637420696e7374616e636520697320616c726561647920696e697469616c697a6564506175736572526f6c653a2063616c6c657220646f65736e277420686176652074686520726f6c654272696467653a20496e76616c696420646563696d616c732063726f7373206261636b4272696467653a2053696465546f6b656e466163746f727920697320656d707479536166654d6174683a206d756c7469706c69636174696f6e206f766572666c6f77526f6c65733a206163636f756e7420697320746865207a65726f20616464726573734f776e61626c653a206e6577206f776e6572206973207a65726f20616464726573735361666545524332303a204552433230206f7065726174696f6e20646964206e6f742073756363656564a265627a7a72315820f2ca1f77a114fdb61183c014fb744c07db406b7d2adb0397d4286967dba2930564736f6c63430005110032",
  "source": "pragma solidity ^0.5.0;\n\n// Import base Initializable contract\nimport \"./zeppelin/upgradable/Initializable.sol\";\n// Import interface and library from OpenZeppelin contracts\nimport \"./zeppelin/upgradable/utils/ReentrancyGuard.sol\";\nimport \"./zeppelin/upgradable/lifecycle/UpgradablePausable.sol\";\nimport \"./zeppelin/upgradable/ownership/UpgradableOwnable.sol\";\n\nimport \"./zeppelin/introspection/IERC1820Registry.sol\";\nimport \"./zeppelin/token/ERC777/IERC777Recipient.sol\";\nimport \"./zeppelin/token/ERC20/IERC20.sol\";\nimport \"./zeppelin/token/ERC20/SafeERC20.sol\";\nimport \"./zeppelin/utils/Address.sol\";\nimport \"./zeppelin/math/SafeMath.sol\";\n\nimport \"./IBridge.sol\";\nimport \"./ISideToken.sol\";\nimport \"./ISideTokenFactory.sol\";\nimport \"./IAllowTokens.sol\";\nimport \"./Utils.sol\";\nimport \"./WETH9.sol\";\n\ncontract Bridge is Initializable, IBridge, IERC777Recipient, UpgradablePausable, UpgradableOwnable, ReentrancyGuard {\n    using SafeMath for uint256;\n    using SafeERC20 for IERC20;\n    using Address for address;\n\n    address constant private NULL_ADDRESS = address(0);\n    bytes32 constant private NULL_HASH = bytes32(0);\n    IERC1820Registry constant private erc1820 = IERC1820Registry(0x1820a4B7618BdE71Dce8cdc73aAB6C95905faD24);\n\n    address private federation;\n    uint256 private feePercentage;\n    string public symbolPrefix;\n    uint256 public lastDay;\n    uint256 public spentToday;\n\n    mapping (address => ISideToken) public mappedTokens; // OirignalToken => SideToken\n    mapping (address => address) public originalTokens; // SideToken => OriginalToken\n    mapping (address => bool) public knownTokens; // OriginalToken => true\n    mapping(bytes32 => bool) public processed; // ProcessedHash => true\n    IAllowTokens public allowTokens;\n    ISideTokenFactory public sideTokenFactory;\n    //Bridge_v1 variables\n    bool public isUpgrading;\n    uint256 constant public feePercentageDivider = 10000; // Porcentage with up to 2 decimals\n    bool private alreadyRun;\n    //Bridge_v3 variables\n    WETH9 internal WETH;\n    address payable public WETHAddr;\n    bool public initialPrefixSetup;\n    bool public isSuffix;\n    \n    event FederationChanged(address _newFederation);\n    event SideTokenFactoryChanged(address _newSideTokenFactory);\n    event Upgrading(bool isUpgrading);\n    event AllowTokenChanged(address _newAllowToken);\n    event PrefixUpdated(bool _isSuffix, string _prefix);\n\n// We are not using this initializer anymore because we are upgrading.\n//    function initialize(\n//        address _manager,\n//        address _federation,\n//        address _allowTokens,\n//        address _sideTokenFactory,\n//        string memory _symbolPrefix\n//    ) public initializer {\n//        UpgradableOwnable.initialize(_manager);\n//        UpgradablePausable.initialize(_manager);\n//        symbolPrefix = _symbolPrefix;\n//        //allowTokens = AllowTokens(_allowTokens);\n//        _changeAllowTokens(_allowTokens);\n//        _changeSideTokenFactory(_sideTokenFactory);\n//        _changeFederation(_federation);\n//        \n//        //keccak256(\"ERC777TokensRecipient\")\n//        erc1820.setInterfaceImplementer(address(this), 0xb281fc8c12954d22544db45de3159a39272895b169a852b314f9cc762e44c53b, address(this));\n//    }\n\n    function version() external pure returns (string memory) {\n        return \"v3\";\n    }\n\n    modifier onlyFederation() {\n        require(msg.sender == federation, \"Bridge: Sender not Federation\");\n        _;\n    }\n\n    modifier whenNotUpgrading() {\n        require(!isUpgrading, \"Bridge: Upgrading\");\n        _;\n    }\n\n    function acceptTransfer(\n        address tokenAddress,\n        address receiver,\n        uint256 amount,\n        string calldata symbol,\n        bytes32 blockHash,\n        bytes32 transactionHash,\n        uint32 logIndex,\n        uint8 decimals,\n        uint256 granularity\n    ) external returns(bool) {\n        return _acceptTransfer(tokenAddress, receiver, amount, symbol, blockHash, transactionHash, logIndex, decimals, granularity, \"\");\n    }\n\n    function acceptTransferAt(\n        address tokenAddress,\n        address receiver,\n        uint256 amount,\n        string calldata symbol,\n        bytes32 blockHash,\n        bytes32 transactionHash,\n        uint32 logIndex,\n        uint8 decimals,\n        uint256 granularity,\n        bytes calldata userData\n    ) external returns(bool) {\n        return _acceptTransfer(tokenAddress, receiver, amount, symbol, blockHash, transactionHash, logIndex, decimals, granularity, userData);\n    }\n\n    function _acceptTransfer(\n        address tokenAddress,\n        address receiver,\n        uint256 amount,\n        string memory symbol,\n        bytes32 blockHash,\n        bytes32 transactionHash,\n        uint32 logIndex,\n        uint8 decimals,\n        uint256 granularity,\n        bytes memory userData\n    ) internal onlyFederation whenNotPaused nonReentrant returns(bool) {\n        require(tokenAddress != NULL_ADDRESS, \"Bridge: Token is null\");\n        require(receiver != NULL_ADDRESS, \"Bridge: Receiver is null\");\n        require(amount > 0, \"Bridge: Amount 0\");\n        require(bytes(symbol).length > 0, \"Bridge: Empty symbol\");\n        require(blockHash != NULL_HASH, \"Bridge: BlockHash is null\");\n        require(transactionHash != NULL_HASH, \"Bridge: Transaction is null\");\n        require(decimals <= 18, \"Bridge: Decimals bigger 18\");\n        require(Utils.granularityToDecimals(granularity) <= 18, \"Bridge: invalid granularity\");\n\n        _processTransaction(blockHash, transactionHash, receiver, amount, logIndex);\n\n        if (knownTokens[tokenAddress]) {\n            _acceptCrossBackToToken(receiver, tokenAddress, decimals, granularity, amount);\n        } else {\n            _acceptCrossToSideToken(receiver, tokenAddress, decimals, granularity, amount, symbol, userData);\n        }\n        return true;\n    }\n\n    function _acceptCrossToSideToken(\n        address receiver,\n        address tokenAddress,\n        uint8 decimals,\n        uint256 granularity,\n        uint256 amount,\n        string memory symbol,\n        bytes memory userData\n    ) private {\n        (uint256 calculatedGranularity,uint256 formattedAmount) = Utils.calculateGranularityAndAmount(decimals, granularity, amount);\n        ISideToken sideToken = mappedTokens[tokenAddress];\n        if (address(sideToken) == NULL_ADDRESS) {\n            sideToken = _createSideToken(tokenAddress, symbol, calculatedGranularity);\n        } else {\n            require(calculatedGranularity == sideToken.granularity(), \"Bridge: Granularity differ from side token\");\n        }\n        sideToken.mint(receiver, formattedAmount, userData, \"\");\n\n        if (receiver.isContract()) {\n            (bool success, bytes memory errorData) = receiver.call(\n                abi.encodeWithSignature(\"onTokensMinted(uint256,address,bytes)\", formattedAmount, sideToken, userData)\n            );\n            if (!success) {\n                emit ErrorTokenReceiver(errorData);\n            }\n        }\n\n        emit AcceptedCrossTransfer(tokenAddress, receiver, amount, decimals, granularity, formattedAmount, 18, calculatedGranularity, userData);\n    }\n\n    function _acceptCrossBackToToken(address receiver, address tokenAddress, uint8 decimals, uint256 granularity, uint256 amount) private {\n        require(decimals == 18, \"Bridge: Invalid decimals cross back\");\n        //As side tokens are ERC777 we need to convert granularity to decimals\n        (uint8 calculatedDecimals, uint256 formattedAmount) = Utils.calculateDecimalsAndAmount(tokenAddress, granularity, amount);\n        //// Bridge v3 upgrade functions\n        if (tokenAddress == WETHAddr) {\n            WETH.withdraw(amount);\n            address payable payableReceiver = address(uint160(receiver));\n            payableReceiver.transfer(amount);\n        }\n        else {\n            IERC20(tokenAddress).safeTransfer(receiver, formattedAmount);\n        }\n        emit AcceptedCrossTransfer(tokenAddress, receiver, amount, decimals, granularity, formattedAmount, calculatedDecimals, 1, \"\");\n    }\n\n    /**\n    * ERC-20 tokens approve and transferFrom pattern\n    * See https://eips.ethereum.org/EIPS/eip-20#transferfrom\n    */\n    function receiveTokensAt(\n        address tokenToUse,\n        uint256 amount,\n        address receiver,\n        bytes calldata extraData\n    ) external returns(bool) {\n        return _receiveTokens(tokenToUse, amount, receiver, extraData);\n    }\n\n    /**\n    * ERC-20 tokens approve and transferFrom pattern\n    * See https://eips.ethereum.org/EIPS/eip-20#transferfrom\n    */\n    function receiveTokens(address tokenToUse, uint256 amount) external returns(bool) {\n        return _receiveTokens(tokenToUse, amount, _msgSender(), \"\");\n    }\n\n    /**\n     * ERC-20 tokens approve and transferFrom pattern\n     * See https://eips.ethereum.org/EIPS/eip-20#transferfrom\n     */\n    function _receiveTokens(\n        address tokenToUse,\n        uint256 amount,\n        address receiver,\n        bytes memory extraData\n    ) private whenNotUpgrading whenNotPaused nonReentrant returns(bool) {\n        require(tokenToUse != WETHAddr, \"Bridge: Cannot transfer WETH\");\n        //Transfer the tokens on IERC20, they should be already Approved for the bridge Address to use them\n        IERC20(tokenToUse).safeTransferFrom(_msgSender(), address(this), amount);\n        crossTokens(tokenToUse, receiver, amount, extraData);\n        return true;\n    }\n\n    /**\n     * ERC-777 tokensReceived hook allows to send tokens to a contract and notify it in a single transaction\n     * See https://eips.ethereum.org/EIPS/eip-777#motivation for details\n     */\n    function tokensReceived (\n        address operator,\n        address from,\n        address to,\n        uint amount,\n        bytes calldata userData,\n        bytes calldata\n    ) external whenNotPaused whenNotUpgrading {\n        //Hook from ERC777address\n        if(operator == address(this)) return; // Avoid loop from bridge calling to ERC77transferFrom\n        require(to == address(this), \"Bridge: Not to address\");\n        address tokenToUse = _msgSender();\n        require(tokenToUse != WETHAddr, \"Bridge: Cannot transfer WETH\");\n        //This can only be used with trusted contracts\n        crossTokens(tokenToUse, from, amount, userData);\n    }\n\n    function crossTokens(address tokenToUse, address receiver, uint256 amount, bytes memory userData) private {\n        bool isASideToken = originalTokens[tokenToUse] != NULL_ADDRESS;\n        //Send the payment to the MultiSig of the Federation\n        //uint256 fee = amount.mul(feePercentage).div(feePercentageDivider);\n    //V3 upgrade change global token fee to per token fee\n        uint256 fee = allowTokens.getFeePerToken(tokenToUse);\n        \n        uint256 amountMinusFees = amount.sub(fee);\n        if (isASideToken) {\n            uint256 modulo = amountMinusFees.mod(ISideToken(tokenToUse).granularity());\n            fee = fee.add(modulo);\n            amountMinusFees = amountMinusFees.sub(modulo);\n        }\n        if(fee > 0) {\n            IERC20(tokenToUse).safeTransfer(owner(), fee);\n        }\n        if (isASideToken) {\n            verifyWithAllowTokens(tokenToUse, amount, isASideToken);\n            //Side Token Crossing\n            ISideToken(tokenToUse).burn(amountMinusFees, userData);\n            // solium-disable-next-line max-len\n            emit Cross(originalTokens[tokenToUse], receiver, amountMinusFees, ISideToken(tokenToUse).symbol(), userData, ISideToken(tokenToUse).decimals(), ISideToken(tokenToUse).granularity());\n        } else {\n            //Main Token Crossing\n            knownTokens[tokenToUse] = true;\n            (uint8 decimals, uint256 granularity, string memory symbol) = Utils.getTokenInfo(tokenToUse);\n            uint formattedAmount = amount;\n            if(decimals != 18) {\n                formattedAmount = amount.mul(uint256(10)**(18-decimals));\n            }\n            //We consider the amount before fees converted to 18 decimals to check the limits\n            verifyWithAllowTokens(tokenToUse, formattedAmount, isASideToken);\n            emit Cross(tokenToUse, receiver, amountMinusFees, symbol, userData, decimals, granularity);\n        }\n    }\n\n    function _createSideToken(address token, string memory symbol, uint256 granularity) private returns (ISideToken sideToken){\n        initialPrefixSetup = true;\n        string memory newSymbol;\n        if(!isSuffix) {\n             newSymbol = string(abi.encodePacked(symbolPrefix, symbol));\n        }\n        else {\n             newSymbol = string(abi.encodePacked(symbol, symbolPrefix));    \n        }\n        \n        address sideTokenAddress = sideTokenFactory.createSideToken(newSymbol, newSymbol, granularity);\n        sideToken = ISideToken(sideTokenAddress);\n        mappedTokens[token] = sideToken;\n        originalTokens[sideTokenAddress] = token;\n        emit NewSideToken(sideTokenAddress, token, newSymbol, granularity);\n        return sideToken;\n    }\n\n    function verifyWithAllowTokens(address tokenToUse, uint256 amount, bool isASideToken) private  {\n        // solium-disable-next-line security/no-block-members\n        if (now > lastDay + 24 hours) {\n            // solium-disable-next-line security/no-block-members\n            lastDay = now;\n            spentToday = 0;\n        }\n        require(allowTokens.isValidTokenTransfer(tokenToUse, amount, spentToday, isASideToken), \"Bridge: Bigger than limit\");\n        spentToday = spentToday.add(amount);\n    }\n\n    function getTransactionId(\n        bytes32 _blockHash,\n        bytes32 _transactionHash,\n        address _receiver,\n        uint256 _amount,\n        uint32 _logIndex\n    )\n        public pure returns(bytes32)\n    {\n        return keccak256(abi.encodePacked(_blockHash, _transactionHash, _receiver, _amount, _logIndex));\n    }\n\n    function _processTransaction(\n        bytes32 _blockHash,\n        bytes32 _transactionHash,\n        address _receiver,\n        uint256 _amount,\n        uint32 _logIndex\n    )\n        private\n    {\n        bytes32 compiledId = getTransactionId(_blockHash, _transactionHash, _receiver, _amount, _logIndex);\n        require(!processed[compiledId], \"Bridge: Already processed\");\n        processed[compiledId] = true;\n    }\n\n    function setFeePercentage(uint amount) external onlyOwner whenNotPaused {\n        require(amount < (feePercentageDivider/10), \"Bridge: bigger than 10%\");\n        feePercentage = amount;\n        emit FeePercentageChanged(feePercentage);\n    }\n\n    function getFeePercentage() external view returns(uint) {\n        return feePercentage;\n    }\n\n    function calcMaxWithdraw() external view returns (uint) {\n        uint spent = spentToday;\n        // solium-disable-next-line security/no-block-members\n        if (now > lastDay + 24 hours)\n            spent = 0;\n        return allowTokens.calcMaxWithdraw(spent);\n    }\n\n    function changeFederation(address newFederation) external onlyOwner returns(bool) {\n        _changeFederation(newFederation);\n        return true;\n    }\n\n    function _changeFederation(address newFederation) internal {\n        require(newFederation != NULL_ADDRESS, \"Bridge: Federation is empty\");\n        federation = newFederation;\n        emit FederationChanged(federation);\n    }\n\n    function getFederation() external view returns(address) {\n        return federation;\n    }\n\n    function changeSideTokenFactory(address newSideTokenFactory) external onlyOwner returns(bool) {\n        _changeSideTokenFactory(newSideTokenFactory);\n        return true;\n    }\n\n    function _changeSideTokenFactory(address newSideTokenFactory) internal {\n        require(newSideTokenFactory != NULL_ADDRESS, \"Bridge: SideTokenFactory is empty\");\n        sideTokenFactory = ISideTokenFactory(newSideTokenFactory);\n        emit SideTokenFactoryChanged(newSideTokenFactory);\n    }\n\n    function startUpgrade() external onlyOwner {\n        isUpgrading = true;\n        emit Upgrading(isUpgrading);\n    }\n\n    function endUpgrade() external onlyOwner {\n        isUpgrading = false;\n        emit Upgrading(isUpgrading);\n    }\n\n//// Bridge v3 upgrade functions\n    function recieveEth() external payable {\n        require(msg.value > 0, \"Eth amount send should be > 0\");\n        require(WETHAddr != address(0), \"WETH is the zero address\");\n        if (msg.sender != address(this)) {\n            WETH.deposit.value(msg.value)();\n            bytes memory _userData = \"\";\n            if(msg.data.length > 0) {\n                _userData = msg.data;\n            }\n            crossTokens(WETHAddr, msg.sender, msg.value, _userData);\n        }\n    }\n\n    function setWETHAddress(address payable _WETHAddr) external onlyOwner {\n        require(_WETHAddr != address(0), \"WETH is the zero address\");\n        WETHAddr = _WETHAddr;\n        WETH = WETH9(_WETHAddr);\n    }\n\n    function changeAllowTokens(address newAllowTokens) external onlyOwner returns(bool) {\n        _changeAllowTokens(newAllowTokens);\n        return true;\n    }\n\n    function _changeAllowTokens(address newAllowTokens) internal {\n        require(newAllowTokens != NULL_ADDRESS, \"Bridge: newAllowTokens is empty\");\n        allowTokens = IAllowTokens(newAllowTokens);\n        emit AllowTokenChanged(newAllowTokens);\n    }\n    function initialSymbolPrefixSetup(bool _isSuffix, string calldata _prefix) external onlyOwner{\n        require(!initialPrefixSetup, \"Bridge: initialPrefixSetup Done\");\n        isSuffix = _isSuffix;\n        symbolPrefix = _prefix;\n        emit PrefixUpdated(isSuffix, _prefix);\n    }\n\n\n    // Commented because it is unused for us and need decrease contract size\n    //This method is only to recreate the USDT and USDC tokens on rsk without granularity restrictions.\n//    function clearSideToken() external onlyOwner returns(bool) {\n//        require(!alreadyRun, \"already done\");\n//        alreadyRun = true;\n//        address payable[4] memory sideTokens = [\n//            0xe506F698b31a66049BD4653ed934E7a07Cbc5549,\n//            0x5a42221D7AaE8e185BC0054Bb036D9757eC18857,\n//            0xcdc8ccBbFB6407c53118fE47259e8d00C81F42CD,\n//            0x6117C9529F15c52e2d3188d5285C745B757b5825\n//        ];\n//        for (uint i = 0; i < sideTokens.length; i++) {\n//            address originalToken = address(originalTokens[sideTokens[i]]);\n//            originalTokens[sideTokens[i]] = NULL_ADDRESS;\n//            mappedTokens[originalToken] = ISideToken(NULL_ADDRESS);\n//        }\n//        return true;\n//    }\n\n}\n",
  "sourcePath": "/Users/pooh/sovryn/deploy_bridge/upgrade-ropsten/Bridge-SC/sovryn-token-bridge/bridge/contracts/Bridge.sol",
  "compiler": {
    "name": "solc",
    "version": "0.5.17+commit.d19bba13.Emscripten.clang"
  },
  "schemaVersion": "3.3.4",
  "updatedAt": "2021-05-05T22:03:12.018Z",
  "networkType": "ethereum",
  "devdoc": {
    "methods": {
      "initialize(address)": {
        "details": "Initializes the contract setting the deployer as the initial owner."
      },
      "isOwner()": {
        "details": "Returns true if the caller is the current owner."
      },
      "owner()": {
        "details": "Returns the address of the current owner."
      },
      "pause()": {
        "details": "Called by a pauser to pause, triggers stopped state."
      },
      "paused()": {
        "details": "Returns true if the contract is paused, and false otherwise."
      },
      "renounceOwnership()": {
        "details": "Leaves the contract without owner. It will not be possible to call `onlyOwner` functions anymore. Can only be called by the current owner.     * > Note: Renouncing ownership will leave the contract without an owner, thereby removing any functionality that is only available to the owner."
      },
      "transferOwnership(address)": {
        "details": "Transfers ownership of the contract to a new account (`newOwner`). Can only be called by the current owner."
      },
      "unpause()": {
        "details": "Called by a pauser to unpause, returns to normal state."
      }
    }
  },
  "userdoc": {
    "methods": {
      "receiveTokens(address,uint256)": {
        "notice": "ERC-20 tokens approve and transferFrom pattern See https://eips.ethereum.org/EIPS/eip-20#transferfrom"
      },
      "receiveTokensAt(address,uint256,address,bytes)": {
        "notice": "ERC-20 tokens approve and transferFrom pattern See https://eips.ethereum.org/EIPS/eip-20#transferfrom"
      },
      "recieveEth()": {
        "notice": "/ Bridge v3 upgrade functions"
      },
      "tokensReceived(address,address,address,uint256,bytes,bytes)": {
        "notice": "ERC-777 tokensReceived hook allows to send tokens to a contract and notify it in a single transaction See https://eips.ethereum.org/EIPS/eip-777#motivation for details"
      }
    }
  }
}