{
  "contractName": "Bridge_v0",
  "abi": [
    {
      "anonymous": false,
      "inputs": [
        {
          "indexed": true,
          "internalType": "address",
          "name": "_tokenAddress",
          "type": "address"
        },
        {
          "indexed": true,
          "internalType": "address",
          "name": "_to",
          "type": "address"
        },
        {
          "indexed": false,
          "internalType": "uint256",
          "name": "_amount",
          "type": "uint256"
        }
      ],
      "name": "AcceptedCrossTransfer",
      "type": "event"
    },
    {
      "anonymous": false,
      "inputs": [
        {
          "indexed": true,
          "internalType": "address",
          "name": "_tokenAddress",
          "type": "address"
        },
        {
          "indexed": true,
          "internalType": "address",
          "name": "_to",
          "type": "address"
        },
        {
          "indexed": false,
          "internalType": "uint256",
          "name": "_amount",
          "type": "uint256"
        },
        {
          "indexed": false,
          "internalType": "string",
          "name": "_symbol",
          "type": "string"
        },
        {
          "indexed": false,
          "internalType": "bytes",
          "name": "userData",
          "type": "bytes"
        }
      ],
      "name": "Cross",
      "type": "event"
    },
    {
      "anonymous": false,
      "inputs": [
        {
          "indexed": false,
          "internalType": "uint256",
          "name": "_amount",
          "type": "uint256"
        }
      ],
      "name": "CrossingPaymentChanged",
      "type": "event"
    },
    {
      "anonymous": false,
      "inputs": [
        {
          "indexed": false,
          "internalType": "address",
          "name": "_newFederation",
          "type": "address"
        }
      ],
      "name": "FederationChanged",
      "type": "event"
    },
    {
      "anonymous": false,
      "inputs": [
        {
          "indexed": true,
          "internalType": "address",
          "name": "_newSideTokenAddress",
          "type": "address"
        },
        {
          "indexed": true,
          "internalType": "address",
          "name": "_originalTokenAddress",
          "type": "address"
        },
        {
          "indexed": false,
          "internalType": "string",
          "name": "_newSymbol",
          "type": "string"
        }
      ],
      "name": "NewSideToken",
      "type": "event"
    },
    {
      "anonymous": false,
      "inputs": [
        {
          "indexed": true,
          "internalType": "address",
          "name": "previousOwner",
          "type": "address"
        },
        {
          "indexed": true,
          "internalType": "address",
          "name": "newOwner",
          "type": "address"
        }
      ],
      "name": "OwnershipTransferred",
      "type": "event"
    },
    {
      "anonymous": false,
      "inputs": [
        {
          "indexed": false,
          "internalType": "address",
          "name": "account",
          "type": "address"
        }
      ],
      "name": "Paused",
      "type": "event"
    },
    {
      "anonymous": false,
      "inputs": [
        {
          "indexed": true,
          "internalType": "address",
          "name": "account",
          "type": "address"
        }
      ],
      "name": "PauserAdded",
      "type": "event"
    },
    {
      "anonymous": false,
      "inputs": [
        {
          "indexed": true,
          "internalType": "address",
          "name": "account",
          "type": "address"
        }
      ],
      "name": "PauserRemoved",
      "type": "event"
    },
    {
      "anonymous": false,
      "inputs": [
        {
          "indexed": false,
          "internalType": "address",
          "name": "account",
          "type": "address"
        }
      ],
      "name": "Unpaused",
      "type": "event"
    },
    {
      "constant": false,
      "inputs": [
        {
          "internalType": "address",
          "name": "account",
          "type": "address"
        }
      ],
      "name": "addPauser",
      "outputs": [],
      "payable": false,
      "stateMutability": "nonpayable",
      "type": "function"
    },
    {
      "constant": true,
      "inputs": [],
      "name": "allowTokens",
      "outputs": [
        {
          "internalType": "contract AllowTokens",
          "name": "",
          "type": "address"
        }
      ],
      "payable": false,
      "stateMutability": "view",
      "type": "function"
    },
    {
      "constant": true,
      "inputs": [],
      "name": "isOwner",
      "outputs": [
        {
          "internalType": "bool",
          "name": "",
          "type": "bool"
        }
      ],
      "payable": false,
      "stateMutability": "view",
      "type": "function"
    },
    {
      "constant": true,
      "inputs": [
        {
          "internalType": "address",
          "name": "account",
          "type": "address"
        }
      ],
      "name": "isPauser",
      "outputs": [
        {
          "internalType": "bool",
          "name": "",
          "type": "bool"
        }
      ],
      "payable": false,
      "stateMutability": "view",
      "type": "function"
    },
    {
      "constant": true,
      "inputs": [
        {
          "internalType": "address",
          "name": "",
          "type": "address"
        }
      ],
      "name": "knownTokens",
      "outputs": [
        {
          "internalType": "bool",
          "name": "",
          "type": "bool"
        }
      ],
      "payable": false,
      "stateMutability": "view",
      "type": "function"
    },
    {
      "constant": true,
      "inputs": [],
      "name": "lastDay",
      "outputs": [
        {
          "internalType": "uint256",
          "name": "",
          "type": "uint256"
        }
      ],
      "payable": false,
      "stateMutability": "view",
      "type": "function"
    },
    {
      "constant": true,
      "inputs": [
        {
          "internalType": "address",
          "name": "",
          "type": "address"
        }
      ],
      "name": "mappedTokens",
      "outputs": [
        {
          "internalType": "contract SideToken_v0",
          "name": "",
          "type": "address"
        }
      ],
      "payable": false,
      "stateMutability": "view",
      "type": "function"
    },
    {
      "constant": true,
      "inputs": [
        {
          "internalType": "address",
          "name": "",
          "type": "address"
        }
      ],
      "name": "originalTokens",
      "outputs": [
        {
          "internalType": "address",
          "name": "",
          "type": "address"
        }
      ],
      "payable": false,
      "stateMutability": "view",
      "type": "function"
    },
    {
      "constant": true,
      "inputs": [],
      "name": "owner",
      "outputs": [
        {
          "internalType": "address",
          "name": "",
          "type": "address"
        }
      ],
      "payable": false,
      "stateMutability": "view",
      "type": "function"
    },
    {
      "constant": false,
      "inputs": [],
      "name": "pause",
      "outputs": [],
      "payable": false,
      "stateMutability": "nonpayable",
      "type": "function"
    },
    {
      "constant": true,
      "inputs": [],
      "name": "paused",
      "outputs": [
        {
          "internalType": "bool",
          "name": "",
          "type": "bool"
        }
      ],
      "payable": false,
      "stateMutability": "view",
      "type": "function"
    },
    {
      "constant": false,
      "inputs": [],
      "name": "renounceOwnership",
      "outputs": [],
      "payable": false,
      "stateMutability": "nonpayable",
      "type": "function"
    },
    {
      "constant": false,
      "inputs": [],
      "name": "renouncePauser",
      "outputs": [],
      "payable": false,
      "stateMutability": "nonpayable",
      "type": "function"
    },
    {
      "constant": true,
      "inputs": [],
      "name": "sideTokenFactory",
      "outputs": [
        {
          "internalType": "contract SideTokenFactory_v0",
          "name": "",
          "type": "address"
        }
      ],
      "payable": false,
      "stateMutability": "view",
      "type": "function"
    },
    {
      "constant": true,
      "inputs": [],
      "name": "spentToday",
      "outputs": [
        {
          "internalType": "uint256",
          "name": "",
          "type": "uint256"
        }
      ],
      "payable": false,
      "stateMutability": "view",
      "type": "function"
    },
    {
      "constant": true,
      "inputs": [],
      "name": "symbolPrefix",
      "outputs": [
        {
          "internalType": "string",
          "name": "",
          "type": "string"
        }
      ],
      "payable": false,
      "stateMutability": "view",
      "type": "function"
    },
    {
      "constant": false,
      "inputs": [
        {
          "internalType": "address",
          "name": "newOwner",
          "type": "address"
        }
      ],
      "name": "transferOwnership",
      "outputs": [],
      "payable": false,
      "stateMutability": "nonpayable",
      "type": "function"
    },
    {
      "constant": false,
      "inputs": [],
      "name": "unpause",
      "outputs": [],
      "payable": false,
      "stateMutability": "nonpayable",
      "type": "function"
    },
    {
      "constant": false,
      "inputs": [
        {
          "internalType": "address",
          "name": "_manager",
          "type": "address"
        },
        {
          "internalType": "address",
          "name": "_federation",
          "type": "address"
        },
        {
          "internalType": "address",
          "name": "_allowTokens",
          "type": "address"
        },
        {
          "internalType": "address",
          "name": "_sideTokenFactory",
          "type": "address"
        },
        {
          "internalType": "string",
          "name": "_symbolPrefix",
          "type": "string"
        }
      ],
      "name": "initialize",
      "outputs": [],
      "payable": false,
      "stateMutability": "nonpayable",
      "type": "function"
    },
    {
      "constant": false,
      "inputs": [],
      "name": "initialize",
      "outputs": [],
      "payable": false,
      "stateMutability": "nonpayable",
      "type": "function"
    },
    {
      "constant": false,
      "inputs": [
        {
          "internalType": "address",
          "name": "sender",
          "type": "address"
        }
      ],
      "name": "initialize",
      "outputs": [],
      "payable": false,
      "stateMutability": "nonpayable",
      "type": "function"
    },
    {
      "constant": true,
      "inputs": [],
      "name": "version",
      "outputs": [
        {
          "internalType": "string",
          "name": "",
          "type": "string"
        }
      ],
      "payable": false,
      "stateMutability": "pure",
      "type": "function"
    },
    {
      "constant": false,
      "inputs": [
        {
          "internalType": "address",
          "name": "tokenAddress",
          "type": "address"
        },
        {
          "internalType": "address",
          "name": "receiver",
          "type": "address"
        },
        {
          "internalType": "uint256",
          "name": "amount",
          "type": "uint256"
        },
        {
          "internalType": "string",
          "name": "symbol",
          "type": "string"
        },
        {
          "internalType": "bytes32",
          "name": "blockHash",
          "type": "bytes32"
        },
        {
          "internalType": "bytes32",
          "name": "transactionHash",
          "type": "bytes32"
        },
        {
          "internalType": "uint32",
          "name": "logIndex",
          "type": "uint32"
        }
      ],
      "name": "acceptTransfer",
      "outputs": [
        {
          "internalType": "bool",
          "name": "",
          "type": "bool"
        }
      ],
      "payable": false,
      "stateMutability": "nonpayable",
      "type": "function"
    },
    {
      "constant": false,
      "inputs": [
        {
          "internalType": "address",
          "name": "tokenToUse",
          "type": "address"
        },
        {
          "internalType": "uint256",
          "name": "amount",
          "type": "uint256"
        }
      ],
      "name": "receiveTokens",
      "outputs": [
        {
          "internalType": "bool",
          "name": "",
          "type": "bool"
        }
      ],
      "payable": true,
      "stateMutability": "payable",
      "type": "function"
    },
    {
      "constant": false,
      "inputs": [
        {
          "internalType": "address",
          "name": "from",
          "type": "address"
        },
        {
          "internalType": "uint256",
          "name": "amount",
          "type": "uint256"
        },
        {
          "internalType": "bytes",
          "name": "userData",
          "type": "bytes"
        }
      ],
      "name": "tokenFallback",
      "outputs": [
        {
          "internalType": "bool",
          "name": "",
          "type": "bool"
        }
      ],
      "payable": false,
      "stateMutability": "nonpayable",
      "type": "function"
    },
    {
      "constant": false,
      "inputs": [
        {
          "internalType": "address",
          "name": "operator",
          "type": "address"
        },
        {
          "internalType": "address",
          "name": "from",
          "type": "address"
        },
        {
          "internalType": "address",
          "name": "to",
          "type": "address"
        },
        {
          "internalType": "uint256",
          "name": "amount",
          "type": "uint256"
        },
        {
          "internalType": "bytes",
          "name": "userData",
          "type": "bytes"
        },
        {
          "internalType": "bytes",
          "name": "",
          "type": "bytes"
        }
      ],
      "name": "tokensReceived",
      "outputs": [],
      "payable": false,
      "stateMutability": "nonpayable",
      "type": "function"
    },
    {
      "constant": true,
      "inputs": [
        {
          "internalType": "address",
          "name": "token",
          "type": "address"
        }
      ],
      "name": "isSideToken",
      "outputs": [
        {
          "internalType": "bool",
          "name": "",
          "type": "bool"
        }
      ],
      "payable": false,
      "stateMutability": "view",
      "type": "function"
    },
    {
      "constant": true,
      "inputs": [
        {
          "internalType": "bytes32",
          "name": "_blockHash",
          "type": "bytes32"
        },
        {
          "internalType": "bytes32",
          "name": "_transactionHash",
          "type": "bytes32"
        },
        {
          "internalType": "address",
          "name": "_receiver",
          "type": "address"
        },
        {
          "internalType": "uint256",
          "name": "_amount",
          "type": "uint256"
        },
        {
          "internalType": "uint32",
          "name": "_logIndex",
          "type": "uint32"
        }
      ],
      "name": "getTransactionId",
      "outputs": [
        {
          "internalType": "bytes32",
          "name": "",
          "type": "bytes32"
        }
      ],
      "payable": false,
      "stateMutability": "pure",
      "type": "function"
    },
    {
      "constant": true,
      "inputs": [
        {
          "internalType": "bytes32",
          "name": "_blockHash",
          "type": "bytes32"
        },
        {
          "internalType": "bytes32",
          "name": "_transactionHash",
          "type": "bytes32"
        },
        {
          "internalType": "address",
          "name": "_receiver",
          "type": "address"
        },
        {
          "internalType": "uint256",
          "name": "_amount",
          "type": "uint256"
        },
        {
          "internalType": "uint32",
          "name": "_logIndex",
          "type": "uint32"
        }
      ],
      "name": "transactionWasProcessed",
      "outputs": [
        {
          "internalType": "bool",
          "name": "",
          "type": "bool"
        }
      ],
      "payable": false,
      "stateMutability": "view",
      "type": "function"
    },
    {
      "constant": false,
      "inputs": [
        {
          "internalType": "uint256",
          "name": "amount",
          "type": "uint256"
        }
      ],
      "name": "setCrossingPayment",
      "outputs": [],
      "payable": false,
      "stateMutability": "nonpayable",
      "type": "function"
    },
    {
      "constant": true,
      "inputs": [],
      "name": "getCrossingPayment",
      "outputs": [
        {
          "internalType": "uint256",
          "name": "",
          "type": "uint256"
        }
      ],
      "payable": false,
      "stateMutability": "view",
      "type": "function"
    },
    {
      "constant": true,
      "inputs": [],
      "name": "calcMaxWithdraw",
      "outputs": [
        {
          "internalType": "uint256",
          "name": "",
          "type": "uint256"
        }
      ],
      "payable": false,
      "stateMutability": "view",
      "type": "function"
    },
    {
      "constant": false,
      "inputs": [
        {
          "internalType": "address",
          "name": "newFederation",
          "type": "address"
        }
      ],
      "name": "changeFederation",
      "outputs": [],
      "payable": false,
      "stateMutability": "nonpayable",
      "type": "function"
    },
    {
      "constant": true,
      "inputs": [],
      "name": "getFederation",
      "outputs": [
        {
          "internalType": "address",
          "name": "",
          "type": "address"
        }
      ],
      "payable": false,
      "stateMutability": "view",
      "type": "function"
    }
  ],
  "bytecode": "0x60806040526153c7806100136000396000f3fe6080604052600436106101f85760003560e01c80637da1f8511161010d578063c0ee0b8a116100a0578063ea2170911161006f578063ea21709114610e0e578063f059cf2b14610e65578063f2fde38b14610e90578063f74032f014610ee1578063fa0caa1614610f72576101f8565b8063c0ee0b8a14610bd1578063c4d66de814610c99578063e6ede14d14610cea578063e8340a9914610d7b576101f8565b80638da5cb5b116100dc5780638da5cb5b14610a9d5780638f32d59b14610af4578063a53d6e6e14610b23578063b86f60d214610b7a576101f8565b80637da1f851146109e35780638129fc1c14610a1e57806382dc1ec414610a355780638456cb5914610a86576101f8565b80634dae8202116101905780635c975abb1161015f5780635c975abb146108f25780635d447129146109215780636b0c932d1461098a5780636ef8d66d146109b5578063715018a6146109cc576101f8565b80634dae82021461071057806354fd4d50146107a757806355d7dacb1461083757806359a8a86714610862576101f8565b80633f4ba83a116101cc5780633f4ba83a146105fc57806346fbf68e146106135780634bc9fdc21461067c5780634d6df7f2146106a7576101f8565b806223de29146101fd5780631ed408a6146103425780632fb3b3611461044e5780633572913014610596575b600080fd5b34801561020957600080fd5b50610340600480360360c081101561022057600080fd5b81019080803573ffffffffffffffffffffffffffffffffffffffff169060200190929190803573ffffffffffffffffffffffffffffffffffffffff169060200190929190803573ffffffffffffffffffffffffffffffffffffffff16906020019092919080359060200190929190803590602001906401000000008111156102a757600080fd5b8201836020820111156102b957600080fd5b803590602001918460018302840111640100000000831117156102db57600080fd5b9091929391929390803590602001906401000000008111156102fc57600080fd5b82018360208201111561030e57600080fd5b8035906020019184600183028401116401000000008311171561033057600080fd5b9091929391929390505050610fc3565b005b34801561034e57600080fd5b50610434600480360360e081101561036557600080fd5b81019080803573ffffffffffffffffffffffffffffffffffffffff169060200190929190803573ffffffffffffffffffffffffffffffffffffffff16906020019092919080359060200190929190803590602001906401000000008111156103cc57600080fd5b8201836020820111156103de57600080fd5b8035906020019184600183028401116401000000008311171561040057600080fd5b90919293919293908035906020019092919080359060200190929190803563ffffffff1690602001909291905050506111d0565b604051808215151515815260200191505060405180910390f35b34801561045a57600080fd5b50610594600480360360a081101561047157600080fd5b81019080803573ffffffffffffffffffffffffffffffffffffffff169060200190929190803573ffffffffffffffffffffffffffffffffffffffff169060200190929190803573ffffffffffffffffffffffffffffffffffffffff169060200190929190803573ffffffffffffffffffffffffffffffffffffffff1690602001909291908035906020019064010000000081111561050e57600080fd5b82018360208201111561052057600080fd5b8035906020019184600183028401116401000000008311171561054257600080fd5b91908080601f016020809104026020016040519081016040528093929190818152602001838380828437600081840152601f19601f8201169050808301925050505050505091929192905050506119c9565b005b6105e2600480360360408110156105ac57600080fd5b81019080803573ffffffffffffffffffffffffffffffffffffffff16906020019092919080359060200190929190505050611ec0565b604051808215151515815260200191505060405180910390f35b34801561060857600080fd5b506106116120ac565b005b34801561061f57600080fd5b506106626004803603602081101561063657600080fd5b81019080803573ffffffffffffffffffffffffffffffffffffffff16906020019092919050505061221a565b604051808215151515815260200191505060405180910390f35b34801561068857600080fd5b50610691612237565b6040518082815260200191505060405180910390f35b3480156106b357600080fd5b506106f6600480360360208110156106ca57600080fd5b81019080803573ffffffffffffffffffffffffffffffffffffffff169060200190929190505050612307565b604051808215151515815260200191505060405180910390f35b34801561071c57600080fd5b5061078d600480360360a081101561073357600080fd5b810190808035906020019092919080359060200190929190803573ffffffffffffffffffffffffffffffffffffffff16906020019092919080359060200190929190803563ffffffff16906020019092919050505061239f565b604051808215151515815260200191505060405180910390f35b3480156107b357600080fd5b506107bc6123de565b6040518080602001828103825283818151815260200191508051906020019080838360005b838110156107fc5780820151818401526020810190506107e1565b50505050905090810190601f1680156108295780820380516001836020036101000a031916815260200191505b509250505060405180910390f35b34801561084357600080fd5b5061084c61241b565b6040518082815260200191505060405180910390f35b34801561086e57600080fd5b50610877612425565b6040518080602001828103825283818151815260200191508051906020019080838360005b838110156108b757808201518184015260208101905061089c565b50505050905090810190601f1680156108e45780820380516001836020036101000a031916815260200191505b509250505060405180910390f35b3480156108fe57600080fd5b506109076124c3565b604051808215151515815260200191505060405180910390f35b34801561092d57600080fd5b506109706004803603602081101561094457600080fd5b81019080803573ffffffffffffffffffffffffffffffffffffffff1690602001909291905050506124da565b604051808215151515815260200191505060405180910390f35b34801561099657600080fd5b5061099f6124fa565b6040518082815260200191505060405180910390f35b3480156109c157600080fd5b506109ca612500565b005b3480156109d857600080fd5b506109e1612512565b005b3480156109ef57600080fd5b50610a1c60048036036020811015610a0657600080fd5b810190808035906020019092919050505061264d565b005b348015610a2a57600080fd5b50610a3361278d565b005b348015610a4157600080fd5b50610a8460048036036020811015610a5857600080fd5b81019080803573ffffffffffffffffffffffffffffffffffffffff169060200190929190505050612894565b005b348015610a9257600080fd5b50610a9b612905565b005b348015610aa957600080fd5b50610ab2612a74565b604051808273ffffffffffffffffffffffffffffffffffffffff1673ffffffffffffffffffffffffffffffffffffffff16815260200191505060405180910390f35b348015610b0057600080fd5b50610b09612a9e565b604051808215151515815260200191505060405180910390f35b348015610b2f57600080fd5b50610b38612afd565b604051808273ffffffffffffffffffffffffffffffffffffffff1673ffffffffffffffffffffffffffffffffffffffff16815260200191505060405180910390f35b348015610b8657600080fd5b50610b8f612b23565b604051808273ffffffffffffffffffffffffffffffffffffffff1673ffffffffffffffffffffffffffffffffffffffff16815260200191505060405180910390f35b348015610bdd57600080fd5b50610c7f60048036036060811015610bf457600080fd5b81019080803573ffffffffffffffffffffffffffffffffffffffff1690602001909291908035906020019092919080359060200190640100000000811115610c3b57600080fd5b820183602082011115610c4d57600080fd5b80359060200191846001830284011164010000000083111715610c6f57600080fd5b9091929391929390505050612b49565b604051808215151515815260200191505060405180910390f35b348015610ca557600080fd5b50610ce860048036036020811015610cbc57600080fd5b81019080803573ffffffffffffffffffffffffffffffffffffffff169060200190929190505050612d0f565b005b348015610cf657600080fd5b50610d3960048036036020811015610d0d57600080fd5b81019080803573ffffffffffffffffffffffffffffffffffffffff169060200190929190505050612ecd565b604051808273ffffffffffffffffffffffffffffffffffffffff1673ffffffffffffffffffffffffffffffffffffffff16815260200191505060405180910390f35b348015610d8757600080fd5b50610df8600480360360a0811015610d9e57600080fd5b810190808035906020019092919080359060200190929190803573ffffffffffffffffffffffffffffffffffffffff16906020019092919080359060200190929190803563ffffffff169060200190929190505050612f00565b6040518082815260200191505060405180910390f35b348015610e1a57600080fd5b50610e23612f92565b604051808273ffffffffffffffffffffffffffffffffffffffff1673ffffffffffffffffffffffffffffffffffffffff16815260200191505060405180910390f35b348015610e7157600080fd5b50610e7a612fbc565b6040518082815260200191505060405180910390f35b348015610e9c57600080fd5b50610edf60048036036020811015610eb357600080fd5b81019080803573ffffffffffffffffffffffffffffffffffffffff169060200190929190505050612fc2565b005b348015610eed57600080fd5b50610f3060048036036020811015610f0457600080fd5b81019080803573ffffffffffffffffffffffffffffffffffffffff169060200190929190505050613048565b604051808273ffffffffffffffffffffffffffffffffffffffff1673ffffffffffffffffffffffffffffffffffffffff16815260200191505060405180910390f35b348015610f7e57600080fd5b50610fc160048036036020811015610f9557600080fd5b81019080803573ffffffffffffffffffffffffffffffffffffffff16906020019092919050505061307b565b005b603460009054906101000a900460ff1615611046576040517f08c379a00000000000000000000000000000000000000000000000000000000081526004018080602001828103825260108152602001807f5061757361626c653a207061757365640000000000000000000000000000000081525060200191505060405180910390fd5b3073ffffffffffffffffffffffffffffffffffffffff168873ffffffffffffffffffffffffffffffffffffffff16141561107f576111c6565b3073ffffffffffffffffffffffffffffffffffffffff168673ffffffffffffffffffffffffffffffffffffffff1614611103576040517f08c379a000000000000000000000000000000000000000000000000000000000815260040180806020018281038252603d81526020018061519d603d913960400191505060405180910390fd5b60006037541461115e576040517f08c379a00000000000000000000000000000000000000000000000000000000081526004018080602001828103825260308152602001806150376030913960400191505060405180910390fd5b61116e611169613184565b61318c565b6111c5611179613184565b888787878080601f016020809104026020016040519081016040528093929190818152602001838380828437600081840152601f19601f8201169050808301925050505050505061340a565b5b5050505050505050565b6000603660009054906101000a900473ffffffffffffffffffffffffffffffffffffffff1673ffffffffffffffffffffffffffffffffffffffff163373ffffffffffffffffffffffffffffffffffffffff1614611278576040517f08c379a00000000000000000000000000000000000000000000000000000000081526004018080602001828103825260248152602001806152216024913960400191505060405180910390fd5b603460009054906101000a900460ff16156112fb576040517f08c379a00000000000000000000000000000000000000000000000000000000081526004018080602001828103825260108152602001807f5061757361626c653a207061757365640000000000000000000000000000000081525060200191505060405180910390fd5b600160356000828254019250508190555060006035549050600073ffffffffffffffffffffffffffffffffffffffff168a73ffffffffffffffffffffffffffffffffffffffff161415611399576040517f08c379a00000000000000000000000000000000000000000000000000000000081526004018080602001828103825260228152602001806151da6022913960400191505060405180910390fd5b600073ffffffffffffffffffffffffffffffffffffffff168973ffffffffffffffffffffffffffffffffffffffff16141561141f576040517f08c379a00000000000000000000000000000000000000000000000000000000081526004018080602001828103825260258152602001806151fc6025913960400191505060405180910390fd5b60008811611495576040517f08c379a00000000000000000000000000000000000000000000000000000000081526004018080602001828103825260188152602001807f4272696467653a20416d6f756e742063616e742062652030000000000000000081525060200191505060405180910390fd5b6000878790501161150e576040517f08c379a000000000000000000000000000000000000000000000000000000000815260040180806020018281038252601c8152602001807f4272696467653a2053796d626f6c2063616e7420626520656d7074790000000081525060200191505060405180910390fd5b6000801b851415611587576040517f08c379a000000000000000000000000000000000000000000000000000000000815260040180806020018281038252601f8152602001807f4272696467653a20426c6f636b20486173682063616e74206265206e756c6c0081525060200191505060405180910390fd5b6000801b8414156115e3576040517f08c379a000000000000000000000000000000000000000000000000000000000815260040180806020018281038252602581526020018061512f6025913960400191505060405180910390fd5b60006115f286868c8c88612f00565b9050603e600082815260200190815260200160002060009054906101000a900460ff161561166b576040517f08c379a00000000000000000000000000000000000000000000000000000000081526004018080602001828103825260298152602001806150676029913960400191505060405180910390fd5b6001603e600083815260200190815260200160002060006101000a81548160ff0219169083151502179055506116e58b89898080601f016020809104026020016040519081016040528093929190818152602001838380828437600081840152601f19601f8201169050808301925050505050505061344d565b6116ee8b613960565b15611824576000603b60008d73ffffffffffffffffffffffffffffffffffffffff1673ffffffffffffffffffffffffffffffffffffffff16815260200190815260200160002060009054906101000a900473ffffffffffffffffffffffffffffffffffffffff1690508073ffffffffffffffffffffffffffffffffffffffff1663dcdc7dd08c8c6040518363ffffffff1660e01b8152600401808373ffffffffffffffffffffffffffffffffffffffff1673ffffffffffffffffffffffffffffffffffffffff1681526020018281526020018060200180602001838103835260008152602001602001838103825260008152602001602001945050505050600060405180830381600087803b15801561180657600080fd5b505af115801561181a573d6000803e3d6000fd5b50505050506118f8565b603d60008c73ffffffffffffffffffffffffffffffffffffffff1673ffffffffffffffffffffffffffffffffffffffff16815260200190815260200160002060009054906101000a900460ff166118c6576040517f08c379a000000000000000000000000000000000000000000000000000000000815260040180806020018281038252602b81526020018061529e602b913960400191505060405180910390fd5b60008b90506118f68b8b8373ffffffffffffffffffffffffffffffffffffffff166139f89092919063ffffffff16565b505b8973ffffffffffffffffffffffffffffffffffffffff168b73ffffffffffffffffffffffffffffffffffffffff167fc8c5cb8daa24ed5382d9228f3d6af9a95e80e6df529c440dd8566a5dee55a0568b6040518082815260200191505060405180910390a3600192505060355481146119bc576040517f08c379a00000000000000000000000000000000000000000000000000000000081526004018080602001828103825260258152602001806150126025913960400191505060405180910390fd5b5098975050505050505050565b600060019054906101000a900460ff16806119e857506119e7613ac9565b5b806119ff57506000809054906101000a900460ff16155b611a54576040517f08c379a00000000000000000000000000000000000000000000000000000000081526004018080602001828103825260288152602001806150b36028913960400191505060405180910390fd5b60008060019054906101000a900460ff161590508015611aa4576001600060016101000a81548160ff02191690831515021790555060016000806101000a81548160ff0219169083151502179055505b6000825111611b1b576040517f08c379a000000000000000000000000000000000000000000000000000000000815260040180806020018281038252601b8152602001807f4272696467653a20456d7074792073796d626f6c20707265666978000000000081525060200191505060405180910390fd5b600073ffffffffffffffffffffffffffffffffffffffff168473ffffffffffffffffffffffffffffffffffffffff161415611ba1576040517f08c379a000000000000000000000000000000000000000000000000000000000815260040180806020018281038252602c815260200180615103602c913960400191505060405180910390fd5b600073ffffffffffffffffffffffffffffffffffffffff168673ffffffffffffffffffffffffffffffffffffffff161415611c44576040517f08c379a00000000000000000000000000000000000000000000000000000000081526004018080602001828103825260208152602001807f4272696467653a204d616e61676572206164647265737320697320656d70747981525060200191505060405180910390fd5b600073ffffffffffffffffffffffffffffffffffffffff168573ffffffffffffffffffffffffffffffffffffffff161415611cca576040517f08c379a00000000000000000000000000000000000000000000000000000000081526004018080602001828103825260238152602001806152c96023913960400191505060405180910390fd5b611cd386612d0f565b611cdc86613ada565b8160389080519060200190611cf2929190614f6c565b5083603f60006101000a81548173ffffffffffffffffffffffffffffffffffffffff021916908373ffffffffffffffffffffffffffffffffffffffff16021790555082604060006101000a81548173ffffffffffffffffffffffffffffffffffffffff021916908373ffffffffffffffffffffffffffffffffffffffff160217905550426039819055506000603a81905550611d8d85613bfe565b731820a4b7618bde71dce8cdc73aab6c95905fad2473ffffffffffffffffffffffffffffffffffffffff166329965a1d307fb281fc8c12954d22544db45de3159a39272895b169a852b314f9cc762e44c53b306040518463ffffffff1660e01b8152600401808473ffffffffffffffffffffffffffffffffffffffff1673ffffffffffffffffffffffffffffffffffffffff1681526020018360001b81526020018273ffffffffffffffffffffffffffffffffffffffff1673ffffffffffffffffffffffffffffffffffffffff1681526020019350505050600060405180830381600087803b158015611e7f57600080fd5b505af1158015611e93573d6000803e3d6000fd5b505050508015611eb85760008060016101000a81548160ff0219169083151502179055505b505050505050565b6000603460009054906101000a900460ff1615611f45576040517f08c379a00000000000000000000000000000000000000000000000000000000081526004018080602001828103825260108152602001807f5061757361626c653a207061757365640000000000000000000000000000000081525060200191505060405180910390fd5b600160356000828254019250508190555060006035549050611f668461318c565b6000611f70613184565b9050611f918173ffffffffffffffffffffffffffffffffffffffff16613cc7565b15611fe7576040517f08c379a00000000000000000000000000000000000000000000000000000000081526004018080602001828103825260498152602001806151546049913960600191505060405180910390fd5b611ff034613d12565b612024611ffb613184565b30868873ffffffffffffffffffffffffffffffffffffffff16613dce909392919063ffffffff16565b61204685612030613184565b866040518060200160405280600081525061340a565b600192505060355481146120a5576040517f08c379a00000000000000000000000000000000000000000000000000000000081526004018080602001828103825260258152602001806150126025913960400191505060405180910390fd5b5092915050565b6120bc6120b7613184565b61221a565b612111576040517f08c379a00000000000000000000000000000000000000000000000000000000081526004018080602001828103825260288152602001806150db6028913960400191505060405180910390fd5b603460009054906101000a900460ff16612193576040517f08c379a00000000000000000000000000000000000000000000000000000000081526004018080602001828103825260148152602001807f5061757361626c653a206e6f742070617573656400000000000000000000000081525060200191505060405180910390fd5b6000603460006101000a81548160ff0219169083151502179055507f5db9ee0a495bf2e6ff9c91a7834c1ba4fdd244a5e8aa4e537bd38aeae4b073aa6121d7613184565b604051808273ffffffffffffffffffffffffffffffffffffffff1673ffffffffffffffffffffffffffffffffffffffff16815260200191505060405180910390a1565b6000612230826033613ed490919063ffffffff16565b9050919050565b600080603a549050620151806039540142111561225357600090505b603f60009054906101000a900473ffffffffffffffffffffffffffffffffffffffff1673ffffffffffffffffffffffffffffffffffffffff1663680dc640826040518263ffffffff1660e01b81526004018082815260200191505060206040518083038186803b1580156122c657600080fd5b505afa1580156122da573d6000803e3d6000fd5b505050506040513d60208110156122f057600080fd5b810190808051906020019092919050505091505090565b60008073ffffffffffffffffffffffffffffffffffffffff16603c60008473ffffffffffffffffffffffffffffffffffffffff1673ffffffffffffffffffffffffffffffffffffffff16815260200190815260200160002060009054906101000a900473ffffffffffffffffffffffffffffffffffffffff1673ffffffffffffffffffffffffffffffffffffffff1614159050919050565b6000806123af8787878787612f00565b9050603e600082815260200190815260200160002060009054906101000a900460ff1691505095945050505050565b60606040518060400160405280600281526020017f7630000000000000000000000000000000000000000000000000000000000000815250905090565b6000603754905090565b60388054600181600116156101000203166002900480601f0160208091040260200160405190810160405280929190818152602001828054600181600116156101000203166002900480156124bb5780601f10612490576101008083540402835291602001916124bb565b820191906000526020600020905b81548152906001019060200180831161249e57829003601f168201915b505050505081565b6000603460009054906101000a900460ff16905090565b603d6020528060005260406000206000915054906101000a900460ff1681565b60395481565b61251061250b613184565b613fb2565b565b61251a612a9e565b61258c576040517f08c379a00000000000000000000000000000000000000000000000000000000081526004018080602001828103825260208152602001807f4f776e61626c653a2063616c6c6572206973206e6f7420746865206f776e657281525060200191505060405180910390fd5b600073ffffffffffffffffffffffffffffffffffffffff16603460019054906101000a900473ffffffffffffffffffffffffffffffffffffffff1673ffffffffffffffffffffffffffffffffffffffff167f8be0079c531659141344cd1fd0a4f28419497f9722a3daafe3b4186f6b6457e060405160405180910390a36000603460016101000a81548173ffffffffffffffffffffffffffffffffffffffff021916908373ffffffffffffffffffffffffffffffffffffffff160217905550565b612655612a9e565b6126c7576040517f08c379a00000000000000000000000000000000000000000000000000000000081526004018080602001828103825260208152602001807f4f776e61626c653a2063616c6c6572206973206e6f7420746865206f776e657281525060200191505060405180910390fd5b603460009054906101000a900460ff161561274a576040517f08c379a00000000000000000000000000000000000000000000000000000000081526004018080602001828103825260108152602001807f5061757361626c653a207061757365640000000000000000000000000000000081525060200191505060405180910390fd5b806037819055507f8f9eb4a6bd716cb875da8fbc666bb1a96f9877a7241d82ce6574652737feb7766037546040518082815260200191505060405180910390a150565b600060019054906101000a900460ff16806127ac57506127ab613ac9565b5b806127c357506000809054906101000a900460ff16155b612818576040517f08c379a00000000000000000000000000000000000000000000000000000000081526004018080602001828103825260288152602001806150b36028913960400191505060405180910390fd5b60008060019054906101000a900460ff161590508015612868576001600060016101000a81548160ff02191690831515021790555060016000806101000a81548160ff0219169083151502179055505b600160358190555080156128915760008060016101000a81548160ff0219169083151502179055505b50565b6128a461289f613184565b61221a565b6128f9576040517f08c379a00000000000000000000000000000000000000000000000000000000081526004018080602001828103825260288152602001806150db6028913960400191505060405180910390fd5b6129028161400c565b50565b612915612910613184565b61221a565b61296a576040517f08c379a00000000000000000000000000000000000000000000000000000000081526004018080602001828103825260288152602001806150db6028913960400191505060405180910390fd5b603460009054906101000a900460ff16156129ed576040517f08c379a00000000000000000000000000000000000000000000000000000000081526004018080602001828103825260108152602001807f5061757361626c653a207061757365640000000000000000000000000000000081525060200191505060405180910390fd5b6001603460006101000a81548160ff0219169083151502179055507f62e78cea01bee320cd4e420270b5ea74000d11b0c9f74754ebdbfc544b05a258612a31613184565b604051808273ffffffffffffffffffffffffffffffffffffffff1673ffffffffffffffffffffffffffffffffffffffff16815260200191505060405180910390a1565b6000603460019054906101000a900473ffffffffffffffffffffffffffffffffffffffff16905090565b6000603460019054906101000a900473ffffffffffffffffffffffffffffffffffffffff1673ffffffffffffffffffffffffffffffffffffffff16612ae1613184565b73ffffffffffffffffffffffffffffffffffffffff1614905090565b603f60009054906101000a900473ffffffffffffffffffffffffffffffffffffffff1681565b604060009054906101000a900473ffffffffffffffffffffffffffffffffffffffff1681565b6000603460009054906101000a900460ff1615612bce576040517f08c379a00000000000000000000000000000000000000000000000000000000081526004018080602001828103825260108152602001807f5061757361626c653a207061757365640000000000000000000000000000000081525060200191505060405180910390fd5b600160356000828254019250508190555060006035549050600060375414612c41576040517f08c379a00000000000000000000000000000000000000000000000000000000081526004018080602001828103825260308152602001806150376030913960400191505060405180910390fd5b612c51612c4c613184565b61318c565b612ca8612c5c613184565b878787878080601f016020809104026020016040519081016040528093929190818152602001838380828437600081840152601f19601f8201169050808301925050505050505061340a565b600191506035548114612d06576040517f08c379a00000000000000000000000000000000000000000000000000000000081526004018080602001828103825260258152602001806150126025913960400191505060405180910390fd5b50949350505050565b600060019054906101000a900460ff1680612d2e5750612d2d613ac9565b5b80612d4557506000809054906101000a900460ff16155b612d9a576040517f08c379a00000000000000000000000000000000000000000000000000000000081526004018080602001828103825260288152602001806150b36028913960400191505060405180910390fd5b60008060019054906101000a900460ff161590508015612dea576001600060016101000a81548160ff02191690831515021790555060016000806101000a81548160ff0219169083151502179055505b81603460016101000a81548173ffffffffffffffffffffffffffffffffffffffff021916908373ffffffffffffffffffffffffffffffffffffffff160217905550603460019054906101000a900473ffffffffffffffffffffffffffffffffffffffff1673ffffffffffffffffffffffffffffffffffffffff16600073ffffffffffffffffffffffffffffffffffffffff167f8be0079c531659141344cd1fd0a4f28419497f9722a3daafe3b4186f6b6457e060405160405180910390a38015612ec95760008060016101000a81548160ff0219169083151502179055505b5050565b603b6020528060005260406000206000915054906101000a900473ffffffffffffffffffffffffffffffffffffffff1681565b60008585858585604051602001808681526020018581526020018473ffffffffffffffffffffffffffffffffffffffff1673ffffffffffffffffffffffffffffffffffffffff1660601b81526014018381526020018263ffffffff1663ffffffff1660e01b81526004019550505050505060405160208183030381529060405280519060200120905095945050505050565b6000603660009054906101000a900473ffffffffffffffffffffffffffffffffffffffff16905090565b603a5481565b612fca612a9e565b61303c576040517f08c379a00000000000000000000000000000000000000000000000000000000081526004018080602001828103825260208152602001807f4f776e61626c653a2063616c6c6572206973206e6f7420746865206f776e657281525060200191505060405180910390fd5b61304581614066565b50565b603c6020528060005260406000206000915054906101000a900473ffffffffffffffffffffffffffffffffffffffff1681565b613083612a9e565b6130f5576040517f08c379a00000000000000000000000000000000000000000000000000000000081526004018080602001828103825260208152602001807f4f776e61626c653a2063616c6c6572206973206e6f7420746865206f776e657281525060200191505060405180910390fd5b603460009054906101000a900460ff1615613178576040517f08c379a00000000000000000000000000000000000000000000000000000000081526004018080602001828103825260108152602001807f5061757361626c653a207061757365640000000000000000000000000000000081525060200191505060405180910390fd5b61318181613bfe565b50565b600033905090565b600081905060128173ffffffffffffffffffffffffffffffffffffffff1663313ce5676040518163ffffffff1660e01b815260040160206040518083038186803b1580156131d957600080fd5b505afa1580156131ed573d6000803e3d6000fd5b505050506040513d602081101561320357600080fd5b810190808051906020019092919050505060ff161461326d576040517f08c379a000000000000000000000000000000000000000000000000000000000815260040180806020018281038252602881526020018061536b6028913960400191505060405180910390fd5b60008173ffffffffffffffffffffffffffffffffffffffff166395d89b416040518163ffffffff1660e01b815260040160006040518083038186803b1580156132b557600080fd5b505afa1580156132c9573d6000803e3d6000fd5b505050506040513d6000823e3d601f19601f8201168201806040525060208110156132f357600080fd5b810190808051604051939291908464010000000082111561331357600080fd5b8382019150602082018581111561332957600080fd5b825186600182028301116401000000008211171561334657600080fd5b8083526020830192505050908051906020019080838360005b8381101561337a57808201518184015260208101905061335f565b50505050905090810190601f1680156133a75780820380516001836020036101000a031916815260200191505b50604052505050511415613406576040517f08c379a00000000000000000000000000000000000000000000000000000000081526004018080602001828103825260238152602001806150906023913960400191505060405180910390fd5b5050565b600061341585612307565b90506134228584836141ac565b80156134395761343484868585614338565b613446565b613445848685856146f2565b5b5050505050565b603d60008373ffffffffffffffffffffffffffffffffffffffff1673ffffffffffffffffffffffffffffffffffffffff16815260200190815260200160002060009054906101000a900460ff16156134a45761395c565b6000603b60008473ffffffffffffffffffffffffffffffffffffffff1673ffffffffffffffffffffffffffffffffffffffff16815260200190815260200160002060009054906101000a900473ffffffffffffffffffffffffffffffffffffffff169050600073ffffffffffffffffffffffffffffffffffffffff168173ffffffffffffffffffffffffffffffffffffffff16141561395a57606060388360405160200180838054600181600116156101000203166002900480156135a05780601f1061357e5761010080835404028352918201916135a0565b820191906000526020600020905b81548152906001019060200180831161358c575b505082805190602001908083835b602083106135d157805182526020820191506020810190506020830392506135ae565b6001836020036101000a038019825116818451168082178552505050505050905001925050506040516020818303038152906040529050604060009054906101000a900473ffffffffffffffffffffffffffffffffffffffff1673ffffffffffffffffffffffffffffffffffffffff1663bb3a39ee82836040518363ffffffff1660e01b8152600401808060200180602001838103835285818151815260200191508051906020019080838360005b8381101561369b578082015181840152602081019050613680565b50505050905090810190601f1680156136c85780820380516001836020036101000a031916815260200191505b50838103825284818151815260200191508051906020019080838360005b838110156137015780820151818401526020810190506136e6565b50505050905090810190601f16801561372e5780820380516001836020036101000a031916815260200191505b50945050505050602060405180830381600087803b15801561374f57600080fd5b505af1158015613763573d6000803e3d6000fd5b505050506040513d602081101561377957600080fd5b8101908080519060200190929190505050915081603b60008673ffffffffffffffffffffffffffffffffffffffff1673ffffffffffffffffffffffffffffffffffffffff16815260200190815260200160002060006101000a81548173ffffffffffffffffffffffffffffffffffffffff021916908373ffffffffffffffffffffffffffffffffffffffff160217905550600082905084603c60008373ffffffffffffffffffffffffffffffffffffffff1673ffffffffffffffffffffffffffffffffffffffff16815260200190815260200160002060006101000a81548173ffffffffffffffffffffffffffffffffffffffff021916908373ffffffffffffffffffffffffffffffffffffffff1602179055508473ffffffffffffffffffffffffffffffffffffffff168173ffffffffffffffffffffffffffffffffffffffff167f4db809136666676f56c1e1237c51790becbd5524b234e670383829e82a14f8ec846040518080602001828103825283818151815260200191508051906020019080838360005b8381101561391d578082015181840152602081019050613902565b50505050905090810190601f16801561394a5780820380516001836020036101000a031916815260200191505b509250505060405180910390a350505b505b5050565b60008073ffffffffffffffffffffffffffffffffffffffff16603b60008473ffffffffffffffffffffffffffffffffffffffff1673ffffffffffffffffffffffffffffffffffffffff16815260200190815260200160002060009054906101000a900473ffffffffffffffffffffffffffffffffffffffff1673ffffffffffffffffffffffffffffffffffffffff1614159050919050565b613ac4838473ffffffffffffffffffffffffffffffffffffffff1663a9059cbb905060e01b8484604051602401808373ffffffffffffffffffffffffffffffffffffffff1673ffffffffffffffffffffffffffffffffffffffff16815260200182815260200192505050604051602081830303815290604052907bffffffffffffffffffffffffffffffffffffffffffffffffffffffff19166020820180517bffffffffffffffffffffffffffffffffffffffffffffffffffffffff83818316178352505050506149cd565b505050565b600080303b90506000811491505090565b600060019054906101000a900460ff1680613af95750613af8613ac9565b5b80613b1057506000809054906101000a900460ff16155b613b65576040517f08c379a00000000000000000000000000000000000000000000000000000000081526004018080602001828103825260288152602001806150b36028913960400191505060405180910390fd5b60008060019054906101000a900460ff161590508015613bb5576001600060016101000a81548160ff02191690831515021790555060016000806101000a81548160ff0219169083151502179055505b613bbe82614c18565b6000603460006101000a81548160ff0219169083151502179055508015613bfa5760008060016101000a81548160ff0219169083151502179055505b5050565b80603660006101000a81548173ffffffffffffffffffffffffffffffffffffffff021916908373ffffffffffffffffffffffffffffffffffffffff1602179055507f4a41a4d11aaf0c0c9e4311ac1d68b2b0134556da594779a2a35b0ddf7cd1eafb603660009054906101000a900473ffffffffffffffffffffffffffffffffffffffff16604051808273ffffffffffffffffffffffffffffffffffffffff1673ffffffffffffffffffffffffffffffffffffffff16815260200191505060405180910390a150565b60008060007fc5d2460186f7233c927e7db2dcc703c0e500b653ca82273b7bfad8045d85a47060001b9050833f9150808214158015613d0957506000801b8214155b92505050919050565b603754811015613d6d576040517f08c379a00000000000000000000000000000000000000000000000000000000081526004018080602001828103825260338152602001806153386033913960400191505060405180910390fd5b6000811115613dcb576000613d80612a74565b90508073ffffffffffffffffffffffffffffffffffffffff166108fc839081150290604051600060405180830381858888f19350505050158015613dc8573d6000803e3d6000fd5b50505b50565b613ece848573ffffffffffffffffffffffffffffffffffffffff166323b872dd905060e01b858585604051602401808473ffffffffffffffffffffffffffffffffffffffff1673ffffffffffffffffffffffffffffffffffffffff1681526020018373ffffffffffffffffffffffffffffffffffffffff1673ffffffffffffffffffffffffffffffffffffffff1681526020018281526020019350505050604051602081830303815290604052907bffffffffffffffffffffffffffffffffffffffffffffffffffffffff19166020820180517bffffffffffffffffffffffffffffffffffffffffffffffffffffffff83818316178352505050506149cd565b50505050565b60008073ffffffffffffffffffffffffffffffffffffffff168273ffffffffffffffffffffffffffffffffffffffff161415613f5b576040517f08c379a000000000000000000000000000000000000000000000000000000000815260040180806020018281038252602281526020018061527c6022913960400191505060405180910390fd5b8260000160008373ffffffffffffffffffffffffffffffffffffffff1673ffffffffffffffffffffffffffffffffffffffff16815260200190815260200160002060009054906101000a900460ff16905092915050565b613fc6816033614d2f90919063ffffffff16565b8073ffffffffffffffffffffffffffffffffffffffff167fcd265ebaf09df2871cc7bd4133404a235ba12eff2041bb89d9c714a2621c7c7e60405160405180910390a250565b614020816033614e0990919063ffffffff16565b8073ffffffffffffffffffffffffffffffffffffffff167f6719d08c1888103bea251a4ed56406bd0c3e69723c8a1686e017e7bbe159b6f860405160405180910390a250565b600073ffffffffffffffffffffffffffffffffffffffff168173ffffffffffffffffffffffffffffffffffffffff1614156140ec576040517f08c379a00000000000000000000000000000000000000000000000000000000081526004018080602001828103825260228152602001806152ec6022913960400191505060405180910390fd5b8073ffffffffffffffffffffffffffffffffffffffff16603460019054906101000a900473ffffffffffffffffffffffffffffffffffffffff1673ffffffffffffffffffffffffffffffffffffffff167f8be0079c531659141344cd1fd0a4f28419497f9722a3daafe3b4186f6b6457e060405160405180910390a380603460016101000a81548173ffffffffffffffffffffffffffffffffffffffff021916908373ffffffffffffffffffffffffffffffffffffffff16021790555050565b62015180603954014211156141cb57426039819055506000603a819055505b603f60009054906101000a900473ffffffffffffffffffffffffffffffffffffffff1673ffffffffffffffffffffffffffffffffffffffff16639a4819bc8484603a54856040518563ffffffff1660e01b8152600401808573ffffffffffffffffffffffffffffffffffffffff1673ffffffffffffffffffffffffffffffffffffffff1681526020018481526020018381526020018215151515815260200194505050505060206040518083038186803b15801561428857600080fd5b505afa15801561429c573d6000803e3d6000fd5b505050506040513d60208110156142b257600080fd5b8101908080519060200190929190505050614318576040517f08c379a00000000000000000000000000000000000000000000000000000000081526004018080602001828103825260378152602001806152456037913960400191505060405180910390fd5b61432d82603a54614ee490919063ffffffff16565b603a81905550505050565b8273ffffffffffffffffffffffffffffffffffffffff1663fe9d930383836040518363ffffffff1660e01b81526004018083815260200180602001828103825283818151815260200191508051906020019080838360005b838110156143ab578082015181840152602081019050614390565b50505050905090810190601f1680156143d85780820380516001836020036101000a031916815260200191505b509350505050600060405180830381600087803b1580156143f857600080fd5b505af115801561440c573d6000803e3d6000fd5b505050508373ffffffffffffffffffffffffffffffffffffffff16603c60008573ffffffffffffffffffffffffffffffffffffffff1673ffffffffffffffffffffffffffffffffffffffff16815260200190815260200160002060009054906101000a900473ffffffffffffffffffffffffffffffffffffffff1673ffffffffffffffffffffffffffffffffffffffff167f0a1ed563773528a47c8e97f96e41cea14dde10ef8e668a01a0df05ef64ef3bf2848673ffffffffffffffffffffffffffffffffffffffff166395d89b416040518163ffffffff1660e01b815260040160006040518083038186803b15801561450557600080fd5b505afa158015614519573d6000803e3d6000fd5b505050506040513d6000823e3d601f19601f82011682018060405250602081101561454357600080fd5b810190808051604051939291908464010000000082111561456357600080fd5b8382019150602082018581111561457957600080fd5b825186600182028301116401000000008211171561459657600080fd5b8083526020830192505050908051906020019080838360005b838110156145ca5780820151818401526020810190506145af565b50505050905090810190601f1680156145f75780820380516001836020036101000a031916815260200191505b5060405250505085604051808481526020018060200180602001838103835285818151815260200191508051906020019080838360005b8381101561464957808201518184015260208101905061462e565b50505050905090810190601f1680156146765780820380516001836020036101000a031916815260200191505b50838103825284818151815260200191508051906020019080838360005b838110156146af578082015181840152602081019050614694565b50505050905090810190601f1680156146dc5780820380516001836020036101000a031916815260200191505b509550505050505060405180910390a350505050565b6001603d60008573ffffffffffffffffffffffffffffffffffffffff1673ffffffffffffffffffffffffffffffffffffffff16815260200190815260200160002060006101000a81548160ff0219169083151502179055508373ffffffffffffffffffffffffffffffffffffffff168373ffffffffffffffffffffffffffffffffffffffff167f0a1ed563773528a47c8e97f96e41cea14dde10ef8e668a01a0df05ef64ef3bf2848673ffffffffffffffffffffffffffffffffffffffff166395d89b416040518163ffffffff1660e01b815260040160006040518083038186803b1580156147e057600080fd5b505afa1580156147f4573d6000803e3d6000fd5b505050506040513d6000823e3d601f19601f82011682018060405250602081101561481e57600080fd5b810190808051604051939291908464010000000082111561483e57600080fd5b8382019150602082018581111561485457600080fd5b825186600182028301116401000000008211171561487157600080fd5b8083526020830192505050908051906020019080838360005b838110156148a557808201518184015260208101905061488a565b50505050905090810190601f1680156148d25780820380516001836020036101000a031916815260200191505b5060405250505085604051808481526020018060200180602001838103835285818151815260200191508051906020019080838360005b83811015614924578082015181840152602081019050614909565b50505050905090810190601f1680156149515780820380516001836020036101000a031916815260200191505b50838103825284818151815260200191508051906020019080838360005b8381101561498a57808201518184015260208101905061496f565b50505050905090810190601f1680156149b75780820380516001836020036101000a031916815260200191505b509550505050505060405180910390a350505050565b6149ec8273ffffffffffffffffffffffffffffffffffffffff16613cc7565b614a5e576040517f08c379a000000000000000000000000000000000000000000000000000000000815260040180806020018281038252601f8152602001807f5361666545524332303a2063616c6c20746f206e6f6e2d636f6e74726163740081525060200191505060405180910390fd5b600060608373ffffffffffffffffffffffffffffffffffffffff16836040518082805190602001908083835b60208310614aad5780518252602082019150602081019050602083039250614a8a565b6001836020036101000a0380198251168184511680821785525050505050509050019150506000604051808303816000865af19150503d8060008114614b0f576040519150601f19603f3d011682016040523d82523d6000602084013e614b14565b606091505b509150915081614b8c576040517f08c379a00000000000000000000000000000000000000000000000000000000081526004018080602001828103825260208152602001807f5361666545524332303a206c6f772d6c6576656c2063616c6c206661696c656481525060200191505060405180910390fd5b600081511115614c1257808060200190516020811015614bab57600080fd5b8101908080519060200190929190505050614c11576040517f08c379a000000000000000000000000000000000000000000000000000000000815260040180806020018281038252602a81526020018061530e602a913960400191505060405180910390fd5b5b50505050565b600060019054906101000a900460ff1680614c375750614c36613ac9565b5b80614c4e57506000809054906101000a900460ff16155b614ca3576040517f08c379a00000000000000000000000000000000000000000000000000000000081526004018080602001828103825260288152602001806150b36028913960400191505060405180910390fd5b60008060019054906101000a900460ff161590508015614cf3576001600060016101000a81548160ff02191690831515021790555060016000806101000a81548160ff0219169083151502179055505b614cfc8261221a565b614d0a57614d098261400c565b5b8015614d2b5760008060016101000a81548160ff0219169083151502179055505b5050565b614d398282613ed4565b614dab576040517f08c379a00000000000000000000000000000000000000000000000000000000081526004018080602001828103825260208152602001807f526f6c65733a206163636f756e7420646f65736e2774206861766520726f6c6581525060200191505060405180910390fd5b60008260000160008373ffffffffffffffffffffffffffffffffffffffff1673ffffffffffffffffffffffffffffffffffffffff16815260200190815260200160002060006101000a81548160ff0219169083151502179055505050565b614e138282613ed4565b15614e86576040517f08c379a000000000000000000000000000000000000000000000000000000000815260040180806020018281038252601f8152602001807f526f6c65733a206163636f756e7420616c72656164792068617320726f6c650081525060200191505060405180910390fd5b60018260000160008373ffffffffffffffffffffffffffffffffffffffff1673ffffffffffffffffffffffffffffffffffffffff16815260200190815260200160002060006101000a81548160ff0219169083151502179055505050565b600080828401905083811015614f62576040517f08c379a000000000000000000000000000000000000000000000000000000000815260040180806020018281038252601b8152602001807f536166654d6174683a206164646974696f6e206f766572666c6f77000000000081525060200191505060405180910390fd5b8091505092915050565b828054600181600116156101000203166002900490600052602060002090601f016020900481019282601f10614fad57805160ff1916838001178555614fdb565b82800160010185558215614fdb579182015b82811115614fda578251825591602001919060010190614fbf565b5b509050614fe89190614fec565b5090565b61500e91905b8082111561500a576000816000905550600101614ff2565b5090565b9056fe5265656e7472616e637947756172643a206e6f207265656e7472616e7420616c6c6f7765644272696467653a204e65656473207061796d656e742c207573652072656365697665546f6b656e7320696e73746561644272696467653a205472616e73616374696f6e2077617320616c72656164792070726f6365737365644272696467653a20546f6b656e20646f65736e2774206861766520612073796d626f6c436f6e747261637420696e7374616e636520697320616c726561647920696e697469616c697a6564506175736572526f6c653a2063616c6c657220646f65736e277420686176652074686520726f6c654272696467653a204d697373696e6720416c6c6f77546f6b656e7320636f6e747261637420616464726573734272696467653a205472616e73616374696f6e20486173682063616e74206265206e756c6c4272696467653a20436f6e7472616374732063616e27742063726f737320746f6b656e73207573696e67207468656972206164647265737365732061732064657374696e6174696f6e4272696467653a205468697320636f6e7472616374206973206e6f7420746865206164647265737320726563656976696e672074686520746f6b656e734272696467653a20546f6b656e20416464726573732063616e74206265206e756c6c4272696467653a20526563656976657220416464726573732063616e74206265206e756c6c4272696467653a2043616c6c6572206973206e6f74207468652046656465726174696f6e4272696467653a205472616e7366657220646f65736e277420636f6d706c79207769746820416c6c6f77546f6b656e73206c696d697473526f6c65733a206163636f756e7420697320746865207a65726f20616464726573734272696467653a20546f6b656e2061646472657373206973206e6f7420696e206b6e6f776e546f6b656e734272696467653a2046656465726174696f6e206164647265737320697320656d7074794f776e61626c653a206e6577206f776e6572206973207a65726f20616464726573735361666545524332303a204552433230206f7065726174696f6e20646964206e6f7420737563636565644272696467653a20496e73756666696369656e7420636f696e732073656e7420666f722063726f7373696e675061796d656e744272696467653a20546f6b656e2068617320646563696d616c73206f74686572207468616e203138a265627a7a723158203dddc4b3c0772266b832a142adacd1bed573f6b8ee4bc76ea042afd67543870164736f6c63430005110032",
  "source": "pragma solidity ^0.5.0;\n\n// Import base Initializable contract\nimport \"./zeppelin/upgradable/Initializable.sol\";\n// Import interface and library from OpenZeppelin contracts\nimport \"./zeppelin/upgradable/utils/ReentrancyGuard.sol\";\nimport \"./zeppelin/upgradable/lifecycle/UpgradablePausable.sol\";\nimport \"./zeppelin/upgradable/ownership/UpgradableOwnable.sol\";\n\nimport \"./zeppelin/introspection/IERC1820Registry.sol\";\nimport \"./zeppelin/token/ERC20/ERC20Detailed.sol\";\nimport \"./zeppelin/token/ERC20/SafeERC20.sol\";\nimport \"./zeppelin/utils/Address.sol\";\nimport \"./zeppelin/math/SafeMath.sol\";\n\nimport \"./IBridge_v0.sol\";\nimport \"./SideToken_v0.sol\";\nimport \"./SideTokenFactory_v0.sol\";\nimport \"./AllowTokens.sol\";\n\ncontract Bridge_v0 is Initializable, IBridge_v0, IERC777Recipient, UpgradablePausable, UpgradableOwnable, ReentrancyGuard {\n    using SafeMath for uint256;\n    using SafeERC20 for ERC20Detailed;\n    using Address for address;\n\n    address constant private NULL_ADDRESS = address(0);\n    bytes32 constant private NULL_HASH = bytes32(0);\n    IERC1820Registry constant private erc1820 = IERC1820Registry(0x1820a4B7618BdE71Dce8cdc73aAB6C95905faD24);\n\n    address private federation;\n    uint256 private crossingPayment;\n    string public symbolPrefix;\n    uint256 public lastDay;\n    uint256 public spentToday;\n\n    mapping (address => SideToken_v0) public mappedTokens; // OirignalToken => SideToken\n    mapping (address => address) public originalTokens; // SideToken => OriginalToken\n    mapping (address => bool) public knownTokens; // OriginalToken => true\n    mapping(bytes32 => bool) processed; // ProcessedHash => true\n    AllowTokens public allowTokens;\n    SideTokenFactory_v0 public sideTokenFactory;\n\n    event FederationChanged(address _newFederation);\n\n    function initialize(address _manager, address _federation, address _allowTokens, address _sideTokenFactory, string memory _symbolPrefix)\n    public initializer {\n        require(bytes(_symbolPrefix).length > 0, \"Bridge: Empty symbol prefix\");\n        require(_allowTokens != NULL_ADDRESS, \"Bridge: Missing AllowTokens contract address\");\n        require(_manager != NULL_ADDRESS, \"Bridge: Manager address is empty\");\n        require(_federation != NULL_ADDRESS, \"Bridge: Federation address is empty\");\n        UpgradableOwnable.initialize(_manager);\n        UpgradablePausable.initialize(_manager);\n        symbolPrefix = _symbolPrefix;\n        allowTokens = AllowTokens(_allowTokens);\n        sideTokenFactory = SideTokenFactory_v0(_sideTokenFactory);\n        // solium-disable-next-line security/no-block-members\n        lastDay = now;\n        spentToday = 0;\n        _changeFederation(_federation);\n        //keccak256(\"ERC777TokensRecipient\")\n        erc1820.setInterfaceImplementer(address(this), 0xb281fc8c12954d22544db45de3159a39272895b169a852b314f9cc762e44c53b, address(this));\n    }\n\n    function version() external pure returns (string memory) {\n        return \"v0\";\n    }\n\n    modifier onlyFederation() {\n        require(msg.sender == federation, \"Bridge: Caller is not the Federation\");\n        _;\n    }\n\n    function acceptTransfer(\n        address tokenAddress,\n        address receiver,\n        uint256 amount,\n        string calldata symbol,\n        bytes32 blockHash,\n        bytes32 transactionHash,\n        uint32 logIndex\n    ) external onlyFederation whenNotPaused nonReentrant returns(bool) {\n        require(tokenAddress != NULL_ADDRESS, \"Bridge: Token Address cant be null\");\n        require(receiver != NULL_ADDRESS, \"Bridge: Receiver Address cant be null\");\n        require(amount > 0, \"Bridge: Amount cant be 0\");\n        require(bytes(symbol).length > 0, \"Bridge: Symbol cant be empty\");\n        require(blockHash != NULL_HASH, \"Bridge: Block Hash cant be null\");\n        require(transactionHash != NULL_HASH, \"Bridge: Transaction Hash cant be null\");\n\n        bytes32 compiledId = getTransactionId(blockHash, transactionHash, receiver, amount, logIndex);\n        require(!processed[compiledId], \"Bridge: Transaction was already processed\");\n        processed[compiledId] = true;\n\n        createSideToken(tokenAddress, symbol);\n\n        if (isMappedToken(tokenAddress)) {\n            SideToken_v0 sideToken = mappedTokens[tokenAddress];\n            sideToken.mint(receiver, amount, \"\", \"\");\n        } else {\n            require(knownTokens[tokenAddress], \"Bridge: Token address is not in knownTokens\");\n            ERC20Detailed token = ERC20Detailed(tokenAddress);\n            token.safeTransfer(receiver, amount);\n        }\n        emit AcceptedCrossTransfer(tokenAddress, receiver, amount);\n        return true;\n    }\n\n    /**\n     * ERC-20 tokens approve and transferFrom pattern\n     * See https://eips.ethereum.org/EIPS/eip-20#transferfrom\n     */\n    function receiveTokens(address tokenToUse, uint256 amount) external payable whenNotPaused nonReentrant returns(bool) {\n        verifyIsERC20Detailed(tokenToUse);\n        address sender = _msgSender();\n        require(!sender.isContract(), \"Bridge: Contracts can't cross tokens using their addresses as destination\");\n        sendIncentiveToEventsCrossers(msg.value);\n        //Transfer the tokens on IERC20, they should be already Approved for the bridge Address to use them\n        ERC20Detailed(tokenToUse).safeTransferFrom(_msgSender(), address(this), amount);\n        crossTokens(tokenToUse, _msgSender(), amount, \"\");\n        return true;\n    }\n\n    /**\n     * ERC-677 and ERC-223 implementation for Receiving Tokens Contracts\n     * See https://github.com/ethereum/EIPs/issues/677 for details\n     * See https://github.com/ethereum/EIPs/issues/223 for details\n     */\n    function tokenFallback(address from, uint amount, bytes calldata userData) external whenNotPaused nonReentrant returns (bool) {\n        require(crossingPayment == 0, \"Bridge: Needs payment, use receiveTokens instead\");\n        verifyIsERC20Detailed(_msgSender());\n        //This can only be used with trusted contracts\n        crossTokens(_msgSender(), from, amount, userData);\n        return true;\n    }\n\n    /**\n     * ERC-777 tokensReceived hook allows to send tokens to a contract and notify it in a single transaction\n     * See https://eips.ethereum.org/EIPS/eip-777#motivation for details\n     */\n    function tokensReceived (\n        address operator,\n        address from,\n        address to,\n        uint amount,\n        bytes calldata userData,\n        bytes calldata\n    ) external whenNotPaused {\n        //Hook from ERC777address\n        if(operator == address(this)) return; // Avoid loop from bridge calling to ERC77transferFrom\n        require(to == address(this), \"Bridge: This contract is not the address receiving the tokens\");\n        require(crossingPayment == 0, \"Bridge: Needs payment, use receiveTokens instead\");\n        verifyIsERC20Detailed(_msgSender());\n        //This can only be used with trusted contracts\n        crossTokens(_msgSender(), from, amount, userData);\n    }\n\n    function crossTokens(address tokenToUse, address from, uint256 amount, bytes memory userData) private {\n        bool _isSideToken = isSideToken(tokenToUse);\n        verifyWithAllowTokens(tokenToUse, amount, _isSideToken);\n        if (_isSideToken) {\n            sideTokenCrossingBack(from, SideToken_v0(tokenToUse), amount, userData);\n        } else {\n            mainTokenCrossing(from, tokenToUse, amount, userData);\n        }\n    }\n\n    function sendIncentiveToEventsCrossers(uint256 payment) private {\n        require(payment >= crossingPayment, \"Bridge: Insufficient coins sent for crossingPayment\");\n        //Send the payment to the MultiSig of the Federation\n        if(payment > 0) {\n            address payable receiver = address(uint160(owner()));\n            receiver.transfer(payment);\n        }\n    }\n\n    function sideTokenCrossingBack(address from, SideToken_v0 tokenToUse, uint256 amount, bytes memory userData) private {\n        tokenToUse.burn(amount, userData);\n        emit Cross(originalTokens[address(tokenToUse)], from, amount, tokenToUse.symbol(), userData);\n    }\n\n    function mainTokenCrossing(address from, address tokenToUse, uint256 amount, bytes memory userData) private {\n        knownTokens[tokenToUse] = true;\n        emit Cross(tokenToUse, from, amount, (ERC20Detailed(tokenToUse)).symbol(), userData);\n    }\n\n    function createSideToken(address token, string memory symbol) private {\n        if (knownTokens[token])\n            return; //Crossing Back\n\n        SideToken_v0 sideToken = mappedTokens[token];\n\n        if (address(sideToken) == NULL_ADDRESS) {\n            string memory newSymbol = string(abi.encodePacked(symbolPrefix, symbol));\n            sideToken = sideTokenFactory.createSideToken(newSymbol, newSymbol);\n            mappedTokens[token] = sideToken;\n            address sideTokenAddress = address(sideToken);\n            originalTokens[sideTokenAddress] = token;\n            emit NewSideToken(sideTokenAddress, token, newSymbol);\n        }\n    }\n\n    function verifyIsERC20Detailed(address tokenToUse) private view {\n        ERC20Detailed detailedTokenToUse = ERC20Detailed(tokenToUse);\n        require(detailedTokenToUse.decimals() == 18, \"Bridge: Token has decimals other than 18\");\n        require(bytes(detailedTokenToUse.symbol()).length != 0, \"Bridge: Token doesn't have a symbol\");\n    }\n\n    function verifyWithAllowTokens(address tokenToUse, uint256 amount, bool isASideToken) private  {\n        // solium-disable-next-line security/no-block-members\n        if (now > lastDay + 24 hours) {\n            // solium-disable-next-line security/no-block-members\n            lastDay = now;\n            spentToday = 0;\n        }\n        // solium-disable-next-line max-len\n        require(allowTokens.isValidTokenTransfer(tokenToUse, amount, spentToday, isASideToken), \"Bridge: Transfer doesn't comply with AllowTokens limits\");\n        spentToday = spentToday.add(amount);\n    }\n\n    function isSideToken(address token) public view returns (bool) {\n        return originalTokens[token] != NULL_ADDRESS;\n    }\n\n    function isMappedToken(address token) private view returns (bool) {\n        return address(mappedTokens[token]) != NULL_ADDRESS;\n    }\n\n    function getTransactionId(\n        bytes32 _blockHash,\n        bytes32 _transactionHash,\n        address _receiver,\n        uint256 _amount,\n        uint32 _logIndex\n    )\n        public pure returns(bytes32)\n    {\n        return keccak256(abi.encodePacked(_blockHash, _transactionHash, _receiver, _amount, _logIndex));\n    }\n\n    function transactionWasProcessed(\n        bytes32 _blockHash,\n        bytes32 _transactionHash,\n        address _receiver,\n        uint256 _amount,\n        uint32 _logIndex\n    )\n        public view returns(bool)\n    {\n        bytes32 compiledId = getTransactionId(_blockHash, _transactionHash, _receiver, _amount, _logIndex);\n\n        return processed[compiledId];\n    }\n\n    function setCrossingPayment(uint amount) external onlyOwner whenNotPaused {\n        crossingPayment = amount;\n        emit CrossingPaymentChanged(crossingPayment);\n    }\n\n    function getCrossingPayment() external view returns(uint) {\n        return crossingPayment;\n    }\n\n    function calcMaxWithdraw() external view returns (uint) {\n        uint spent = spentToday;\n        // solium-disable-next-line security/no-block-members\n        if (now > lastDay + 24 hours)\n            spent = 0;\n        return allowTokens.calcMaxWithdraw(spent);\n    }\n\n    function _changeFederation(address newFederation) private {\n        federation = newFederation;\n        emit FederationChanged(federation);\n    }\n\n    function changeFederation(address newFederation) external onlyOwner whenNotPaused {\n        _changeFederation(newFederation);\n    }\n\n    function getFederation() external view returns(address) {\n        return federation;\n    }\n\n}\n\n",
  "sourcePath": "/Users/pooh/sovryn/deploy_bridge/RSK-BSC-Prefix/Bridge-SC/sovryn-token-bridge/bridge/contracts/Bridge_v0.sol",
  "compiler": {
    "name": "solc",
    "version": "0.5.17+commit.d19bba13.Emscripten.clang"
  },
  "schemaVersion": "3.3.3",
  "updatedAt": "2021-04-20T11:31:17.834Z",
  "networkType": "ethereum",
  "devdoc": {
    "methods": {
      "initialize(address)": {
        "details": "Initializes the contract setting the deployer as the initial owner."
      },
      "isOwner()": {
        "details": "Returns true if the caller is the current owner."
      },
      "owner()": {
        "details": "Returns the address of the current owner."
      },
      "pause()": {
        "details": "Called by a pauser to pause, triggers stopped state."
      },
      "paused()": {
        "details": "Returns true if the contract is paused, and false otherwise."
      },
      "renounceOwnership()": {
        "details": "Leaves the contract without owner. It will not be possible to call `onlyOwner` functions anymore. Can only be called by the current owner.     * > Note: Renouncing ownership will leave the contract without an owner, thereby removing any functionality that is only available to the owner."
      },
      "transferOwnership(address)": {
        "details": "Transfers ownership of the contract to a new account (`newOwner`). Can only be called by the current owner."
      },
      "unpause()": {
        "details": "Called by a pauser to unpause, returns to normal state."
      }
    }
  },
  "userdoc": {
    "methods": {
      "receiveTokens(address,uint256)": {
        "notice": "ERC-20 tokens approve and transferFrom pattern See https://eips.ethereum.org/EIPS/eip-20#transferfrom"
      },
      "tokenFallback(address,uint256,bytes)": {
        "notice": "ERC-677 and ERC-223 implementation for Receiving Tokens Contracts See https://github.com/ethereum/EIPs/issues/677 for details See https://github.com/ethereum/EIPs/issues/223 for details"
      },
      "tokensReceived(address,address,address,uint256,bytes,bytes)": {
        "notice": "ERC-777 tokensReceived hook allows to send tokens to a contract and notify it in a single transaction See https://eips.ethereum.org/EIPS/eip-777#motivation for details"
      }
    }
  }
}