{
  "contractName": "Bridge",
  "abi": [
    {
      "anonymous": false,
      "inputs": [
        {
          "indexed": true,
          "internalType": "address",
          "name": "_tokenAddress",
          "type": "address"
        },
        {
          "indexed": true,
          "internalType": "address",
          "name": "_to",
          "type": "address"
        },
        {
          "indexed": false,
          "internalType": "uint256",
          "name": "_amount",
          "type": "uint256"
        },
        {
          "indexed": false,
          "internalType": "uint8",
          "name": "_decimals",
          "type": "uint8"
        },
        {
          "indexed": false,
          "internalType": "uint256",
          "name": "_granularity",
          "type": "uint256"
        },
        {
          "indexed": false,
          "internalType": "uint256",
          "name": "_formattedAmount",
          "type": "uint256"
        },
        {
          "indexed": false,
          "internalType": "uint8",
          "name": "_calculatedDecimals",
          "type": "uint8"
        },
        {
          "indexed": false,
          "internalType": "uint256",
          "name": "_calculatedGranularity",
          "type": "uint256"
        },
        {
          "indexed": false,
          "internalType": "bytes",
          "name": "_userData",
          "type": "bytes"
        }
      ],
      "name": "AcceptedCrossTransfer",
      "type": "event"
    },
    {
      "anonymous": false,
      "inputs": [
        {
          "indexed": true,
          "internalType": "address",
          "name": "_tokenAddress",
          "type": "address"
        },
        {
          "indexed": true,
          "internalType": "address",
          "name": "_to",
          "type": "address"
        },
        {
          "indexed": false,
          "internalType": "uint256",
          "name": "_amount",
          "type": "uint256"
        },
        {
          "indexed": false,
          "internalType": "string",
          "name": "_symbol",
          "type": "string"
        },
        {
          "indexed": false,
          "internalType": "bytes",
          "name": "_userData",
          "type": "bytes"
        },
        {
          "indexed": false,
          "internalType": "uint8",
          "name": "_decimals",
          "type": "uint8"
        },
        {
          "indexed": false,
          "internalType": "uint256",
          "name": "_granularity",
          "type": "uint256"
        }
      ],
      "name": "Cross",
      "type": "event"
    },
    {
      "anonymous": false,
      "inputs": [
        {
          "indexed": false,
          "internalType": "bytes",
          "name": "_errorData",
          "type": "bytes"
        }
      ],
      "name": "ErrorTokenReceiver",
      "type": "event"
    },
    {
      "anonymous": false,
      "inputs": [
        {
          "indexed": false,
          "internalType": "address",
          "name": "_newFederation",
          "type": "address"
        }
      ],
      "name": "FederationChanged",
      "type": "event"
    },
    {
      "anonymous": false,
      "inputs": [
        {
          "indexed": true,
          "internalType": "address",
          "name": "_newSideTokenAddress",
          "type": "address"
        },
        {
          "indexed": true,
          "internalType": "address",
          "name": "_originalTokenAddress",
          "type": "address"
        },
        {
          "indexed": false,
          "internalType": "string",
          "name": "_newSymbol",
          "type": "string"
        },
        {
          "indexed": false,
          "internalType": "uint256",
          "name": "_granularity",
          "type": "uint256"
        }
      ],
      "name": "NewSideToken",
      "type": "event"
    },
    {
      "anonymous": false,
      "inputs": [
        {
          "indexed": true,
          "internalType": "address",
          "name": "previousOwner",
          "type": "address"
        },
        {
          "indexed": true,
          "internalType": "address",
          "name": "newOwner",
          "type": "address"
        }
      ],
      "name": "OwnershipTransferred",
      "type": "event"
    },
    {
      "anonymous": false,
      "inputs": [
        {
          "indexed": false,
          "internalType": "address",
          "name": "account",
          "type": "address"
        }
      ],
      "name": "Paused",
      "type": "event"
    },
    {
      "anonymous": false,
      "inputs": [
        {
          "indexed": true,
          "internalType": "address",
          "name": "account",
          "type": "address"
        }
      ],
      "name": "PauserAdded",
      "type": "event"
    },
    {
      "anonymous": false,
      "inputs": [
        {
          "indexed": true,
          "internalType": "address",
          "name": "account",
          "type": "address"
        }
      ],
      "name": "PauserRemoved",
      "type": "event"
    },
    {
      "anonymous": false,
      "inputs": [
        {
          "indexed": false,
          "internalType": "address",
          "name": "_newSideTokenFactory",
          "type": "address"
        }
      ],
      "name": "SideTokenFactoryChanged",
      "type": "event"
    },
    {
      "anonymous": false,
      "inputs": [
        {
          "indexed": false,
          "internalType": "address",
          "name": "account",
          "type": "address"
        }
      ],
      "name": "Unpaused",
      "type": "event"
    },
    {
      "anonymous": false,
      "inputs": [
        {
          "indexed": false,
          "internalType": "bool",
          "name": "isUpgrading",
          "type": "bool"
        }
      ],
      "name": "Upgrading",
      "type": "event"
    },
    {
      "constant": false,
      "inputs": [
        {
          "internalType": "address",
          "name": "account",
          "type": "address"
        }
      ],
      "name": "addPauser",
      "outputs": [],
      "payable": false,
      "stateMutability": "nonpayable",
      "type": "function"
    },
    {
      "constant": true,
      "inputs": [],
      "name": "allowTokens",
      "outputs": [
        {
          "internalType": "contract IAllowTokens",
          "name": "",
          "type": "address"
        }
      ],
      "payable": false,
      "stateMutability": "view",
      "type": "function"
    },
    {
      "constant": true,
      "inputs": [],
      "name": "ethFeeCollected",
      "outputs": [
        {
          "internalType": "uint256",
          "name": "",
          "type": "uint256"
        }
      ],
      "payable": false,
      "stateMutability": "view",
      "type": "function"
    },
    {
      "constant": true,
      "inputs": [],
      "name": "feePercentageDivider",
      "outputs": [
        {
          "internalType": "uint256",
          "name": "",
          "type": "uint256"
        }
      ],
      "payable": false,
      "stateMutability": "view",
      "type": "function"
    },
    {
      "constant": true,
      "inputs": [],
      "name": "initialPrefixSetup",
      "outputs": [
        {
          "internalType": "bool",
          "name": "",
          "type": "bool"
        }
      ],
      "payable": false,
      "stateMutability": "view",
      "type": "function"
    },
    {
      "constant": false,
      "inputs": [],
      "name": "initialize",
      "outputs": [],
      "payable": false,
      "stateMutability": "nonpayable",
      "type": "function"
    },
    {
      "constant": false,
      "inputs": [
        {
          "internalType": "address",
          "name": "sender",
          "type": "address"
        }
      ],
      "name": "initialize",
      "outputs": [],
      "payable": false,
      "stateMutability": "nonpayable",
      "type": "function"
    },
    {
      "constant": true,
      "inputs": [],
      "name": "isOwner",
      "outputs": [
        {
          "internalType": "bool",
          "name": "",
          "type": "bool"
        }
      ],
      "payable": false,
      "stateMutability": "view",
      "type": "function"
    },
    {
      "constant": true,
      "inputs": [
        {
          "internalType": "address",
          "name": "account",
          "type": "address"
        }
      ],
      "name": "isPauser",
      "outputs": [
        {
          "internalType": "bool",
          "name": "",
          "type": "bool"
        }
      ],
      "payable": false,
      "stateMutability": "view",
      "type": "function"
    },
    {
      "constant": true,
      "inputs": [],
      "name": "isSuffix",
      "outputs": [
        {
          "internalType": "bool",
          "name": "",
          "type": "bool"
        }
      ],
      "payable": false,
      "stateMutability": "view",
      "type": "function"
    },
    {
      "constant": true,
      "inputs": [],
      "name": "isUpgrading",
      "outputs": [
        {
          "internalType": "bool",
          "name": "",
          "type": "bool"
        }
      ],
      "payable": false,
      "stateMutability": "view",
      "type": "function"
    },
    {
      "constant": true,
      "inputs": [
        {
          "internalType": "address",
          "name": "",
          "type": "address"
        }
      ],
      "name": "knownTokens",
      "outputs": [
        {
          "internalType": "bool",
          "name": "",
          "type": "bool"
        }
      ],
      "payable": false,
      "stateMutability": "view",
      "type": "function"
    },
    {
      "constant": true,
      "inputs": [],
      "name": "lastDay",
      "outputs": [
        {
          "internalType": "uint256",
          "name": "",
          "type": "uint256"
        }
      ],
      "payable": false,
      "stateMutability": "view",
      "type": "function"
    },
    {
      "constant": true,
      "inputs": [
        {
          "internalType": "address",
          "name": "",
          "type": "address"
        }
      ],
      "name": "mappedTokens",
      "outputs": [
        {
          "internalType": "contract ISideToken",
          "name": "",
          "type": "address"
        }
      ],
      "payable": false,
      "stateMutability": "view",
      "type": "function"
    },
    {
      "constant": true,
      "inputs": [
        {
          "internalType": "address",
          "name": "",
          "type": "address"
        }
      ],
      "name": "originalTokens",
      "outputs": [
        {
          "internalType": "address",
          "name": "",
          "type": "address"
        }
      ],
      "payable": false,
      "stateMutability": "view",
      "type": "function"
    },
    {
      "constant": true,
      "inputs": [],
      "name": "owner",
      "outputs": [
        {
          "internalType": "address",
          "name": "",
          "type": "address"
        }
      ],
      "payable": false,
      "stateMutability": "view",
      "type": "function"
    },
    {
      "constant": false,
      "inputs": [],
      "name": "pause",
      "outputs": [],
      "payable": false,
      "stateMutability": "nonpayable",
      "type": "function"
    },
    {
      "constant": true,
      "inputs": [],
      "name": "paused",
      "outputs": [
        {
          "internalType": "bool",
          "name": "",
          "type": "bool"
        }
      ],
      "payable": false,
      "stateMutability": "view",
      "type": "function"
    },
    {
      "constant": true,
      "inputs": [
        {
          "internalType": "bytes32",
          "name": "",
          "type": "bytes32"
        }
      ],
      "name": "processed",
      "outputs": [
        {
          "internalType": "bool",
          "name": "",
          "type": "bool"
        }
      ],
      "payable": false,
      "stateMutability": "view",
      "type": "function"
    },
    {
      "constant": false,
      "inputs": [],
      "name": "renounceOwnership",
      "outputs": [],
      "payable": false,
      "stateMutability": "nonpayable",
      "type": "function"
    },
    {
      "constant": false,
      "inputs": [],
      "name": "renouncePauser",
      "outputs": [],
      "payable": false,
      "stateMutability": "nonpayable",
      "type": "function"
    },
    {
      "constant": true,
      "inputs": [],
      "name": "sideTokenFactory",
      "outputs": [
        {
          "internalType": "contract ISideTokenFactory",
          "name": "",
          "type": "address"
        }
      ],
      "payable": false,
      "stateMutability": "view",
      "type": "function"
    },
    {
      "constant": true,
      "inputs": [],
      "name": "spentToday",
      "outputs": [
        {
          "internalType": "uint256",
          "name": "",
          "type": "uint256"
        }
      ],
      "payable": false,
      "stateMutability": "view",
      "type": "function"
    },
    {
      "constant": true,
      "inputs": [],
      "name": "symbolPrefix",
      "outputs": [
        {
          "internalType": "string",
          "name": "",
          "type": "string"
        }
      ],
      "payable": false,
      "stateMutability": "view",
      "type": "function"
    },
    {
      "constant": false,
      "inputs": [
        {
          "internalType": "address",
          "name": "newOwner",
          "type": "address"
        }
      ],
      "name": "transferOwnership",
      "outputs": [],
      "payable": false,
      "stateMutability": "nonpayable",
      "type": "function"
    },
    {
      "constant": false,
      "inputs": [],
      "name": "unpause",
      "outputs": [],
      "payable": false,
      "stateMutability": "nonpayable",
      "type": "function"
    },
    {
      "constant": true,
      "inputs": [],
      "name": "version",
      "outputs": [
        {
          "internalType": "string",
          "name": "",
          "type": "string"
        }
      ],
      "payable": false,
      "stateMutability": "pure",
      "type": "function"
    },
    {
      "constant": false,
      "inputs": [
        {
          "internalType": "address",
          "name": "tokenAddress",
          "type": "address"
        },
        {
          "internalType": "address",
          "name": "receiver",
          "type": "address"
        },
        {
          "internalType": "uint256",
          "name": "amount",
          "type": "uint256"
        },
        {
          "internalType": "string",
          "name": "symbol",
          "type": "string"
        },
        {
          "internalType": "bytes32",
          "name": "blockHash",
          "type": "bytes32"
        },
        {
          "internalType": "bytes32",
          "name": "transactionHash",
          "type": "bytes32"
        },
        {
          "internalType": "uint32",
          "name": "logIndex",
          "type": "uint32"
        },
        {
          "internalType": "uint8",
          "name": "decimals",
          "type": "uint8"
        },
        {
          "internalType": "uint256",
          "name": "granularity",
          "type": "uint256"
        }
      ],
      "name": "acceptTransfer",
      "outputs": [
        {
          "internalType": "bool",
          "name": "",
          "type": "bool"
        }
      ],
      "payable": false,
      "stateMutability": "nonpayable",
      "type": "function"
    },
    {
      "constant": false,
      "inputs": [
        {
          "internalType": "address",
          "name": "tokenAddress",
          "type": "address"
        },
        {
          "internalType": "address",
          "name": "receiver",
          "type": "address"
        },
        {
          "internalType": "uint256",
          "name": "amount",
          "type": "uint256"
        },
        {
          "internalType": "string",
          "name": "symbol",
          "type": "string"
        },
        {
          "internalType": "bytes32",
          "name": "blockHash",
          "type": "bytes32"
        },
        {
          "internalType": "bytes32",
          "name": "transactionHash",
          "type": "bytes32"
        },
        {
          "internalType": "uint32",
          "name": "logIndex",
          "type": "uint32"
        },
        {
          "internalType": "uint8",
          "name": "decimals",
          "type": "uint8"
        },
        {
          "internalType": "uint256",
          "name": "granularity",
          "type": "uint256"
        },
        {
          "internalType": "bytes",
          "name": "userData",
          "type": "bytes"
        }
      ],
      "name": "acceptTransferAt",
      "outputs": [
        {
          "internalType": "bool",
          "name": "",
          "type": "bool"
        }
      ],
      "payable": false,
      "stateMutability": "nonpayable",
      "type": "function"
    },
    {
      "constant": false,
      "inputs": [
        {
          "internalType": "address",
          "name": "tokenToUse",
          "type": "address"
        },
        {
          "internalType": "uint256",
          "name": "amount",
          "type": "uint256"
        },
        {
          "internalType": "address",
          "name": "receiver",
          "type": "address"
        },
        {
          "internalType": "bytes",
          "name": "extraData",
          "type": "bytes"
        }
      ],
      "name": "receiveTokensAt",
      "outputs": [
        {
          "internalType": "bool",
          "name": "",
          "type": "bool"
        }
      ],
      "payable": false,
      "stateMutability": "nonpayable",
      "type": "function"
    },
    {
      "constant": false,
      "inputs": [
        {
          "internalType": "address",
          "name": "tokenToUse",
          "type": "address"
        },
        {
          "internalType": "uint256",
          "name": "amount",
          "type": "uint256"
        }
      ],
      "name": "receiveTokens",
      "outputs": [
        {
          "internalType": "bool",
          "name": "",
          "type": "bool"
        }
      ],
      "payable": false,
      "stateMutability": "nonpayable",
      "type": "function"
    },
    {
      "constant": false,
      "inputs": [
        {
          "internalType": "address",
          "name": "operator",
          "type": "address"
        },
        {
          "internalType": "address",
          "name": "from",
          "type": "address"
        },
        {
          "internalType": "address",
          "name": "to",
          "type": "address"
        },
        {
          "internalType": "uint256",
          "name": "amount",
          "type": "uint256"
        },
        {
          "internalType": "bytes",
          "name": "userData",
          "type": "bytes"
        },
        {
          "internalType": "bytes",
          "name": "",
          "type": "bytes"
        }
      ],
      "name": "tokensReceived",
      "outputs": [],
      "payable": false,
      "stateMutability": "nonpayable",
      "type": "function"
    },
    {
      "constant": true,
      "inputs": [
        {
          "internalType": "bytes32",
          "name": "_blockHash",
          "type": "bytes32"
        },
        {
          "internalType": "bytes32",
          "name": "_transactionHash",
          "type": "bytes32"
        },
        {
          "internalType": "address",
          "name": "_receiver",
          "type": "address"
        },
        {
          "internalType": "uint256",
          "name": "_amount",
          "type": "uint256"
        },
        {
          "internalType": "uint32",
          "name": "_logIndex",
          "type": "uint32"
        }
      ],
      "name": "getTransactionId",
      "outputs": [
        {
          "internalType": "bytes32",
          "name": "",
          "type": "bytes32"
        }
      ],
      "payable": false,
      "stateMutability": "pure",
      "type": "function"
    },
    {
      "constant": true,
      "inputs": [],
      "name": "calcMaxWithdraw",
      "outputs": [
        {
          "internalType": "uint256",
          "name": "",
          "type": "uint256"
        }
      ],
      "payable": false,
      "stateMutability": "view",
      "type": "function"
    },
    {
      "constant": false,
      "inputs": [
        {
          "internalType": "address",
          "name": "newFederation",
          "type": "address"
        }
      ],
      "name": "changeFederation",
      "outputs": [
        {
          "internalType": "bool",
          "name": "",
          "type": "bool"
        }
      ],
      "payable": false,
      "stateMutability": "nonpayable",
      "type": "function"
    },
    {
      "constant": true,
      "inputs": [],
      "name": "getFederation",
      "outputs": [
        {
          "internalType": "address",
          "name": "",
          "type": "address"
        }
      ],
      "payable": false,
      "stateMutability": "view",
      "type": "function"
    },
    {
      "constant": false,
      "inputs": [
        {
          "internalType": "address",
          "name": "newSideTokenFactory",
          "type": "address"
        }
      ],
      "name": "changeSideTokenFactory",
      "outputs": [
        {
          "internalType": "bool",
          "name": "",
          "type": "bool"
        }
      ],
      "payable": false,
      "stateMutability": "nonpayable",
      "type": "function"
    },
    {
      "constant": false,
      "inputs": [],
      "name": "startUpgrade",
      "outputs": [],
      "payable": false,
      "stateMutability": "nonpayable",
      "type": "function"
    },
    {
      "constant": false,
      "inputs": [],
      "name": "endUpgrade",
      "outputs": [],
      "payable": false,
      "stateMutability": "nonpayable",
      "type": "function"
    },
    {
      "constant": false,
      "inputs": [
        {
          "internalType": "address",
          "name": "_receiver",
          "type": "address"
        },
        {
          "internalType": "bytes",
          "name": "_extraData",
          "type": "bytes"
        }
      ],
      "name": "receiveEthAt",
      "outputs": [],
      "payable": true,
      "stateMutability": "payable",
      "type": "function"
    },
    {
      "constant": false,
      "inputs": [
        {
          "internalType": "address",
          "name": "_WETHAddr",
          "type": "address"
        }
      ],
      "name": "setWETHAddress",
      "outputs": [],
      "payable": false,
      "stateMutability": "nonpayable",
      "type": "function"
    },
    {
      "constant": false,
      "inputs": [
        {
          "internalType": "address",
          "name": "newAllowTokens",
          "type": "address"
        }
      ],
      "name": "changeAllowTokens",
      "outputs": [
        {
          "internalType": "bool",
          "name": "",
          "type": "bool"
        }
      ],
      "payable": false,
      "stateMutability": "nonpayable",
      "type": "function"
    },
    {
      "constant": false,
      "inputs": [
        {
          "internalType": "bool",
          "name": "_isSuffix",
          "type": "bool"
        },
        {
          "internalType": "string",
          "name": "_prefix",
          "type": "string"
        }
      ],
      "name": "initialSymbolPrefixSetup",
      "outputs": [],
      "payable": false,
      "stateMutability": "nonpayable",
      "type": "function"
    },
    {
      "constant": false,
      "inputs": [
        {
          "internalType": "address payable",
          "name": "_to",
          "type": "address"
        }
      ],
      "name": "withdrawAllEthFees",
      "outputs": [],
      "payable": true,
      "stateMutability": "payable",
      "type": "function"
    },
    {
      "constant": false,
      "inputs": [
        {
          "internalType": "string",
          "name": "_nativeTokenSymbol",
          "type": "string"
        }
      ],
      "name": "setNativeTokenSymbol",
      "outputs": [],
      "payable": false,
      "stateMutability": "nonpayable",
      "type": "function"
    },
    {
      "constant": true,
      "inputs": [],
      "name": "getNativeTokenSymbol",
      "outputs": [
        {
          "internalType": "string",
          "name": "",
          "type": "string"
        }
      ],
      "payable": false,
      "stateMutability": "view",
      "type": "function"
    }
  ],
  "bytecode": "0x60806040526144b5806100136000396000f3fe60806040526004361061027c5760003560e01c80638f32d59b1161014f578063d058ae96116100c1578063ea2170911161007a578063ea21709114610c3f578063ec79137414610c54578063f059cf2b14610c69578063f2fde38b14610c7e578063f74032f014610cb1578063fa0caa1614610ce45761027c565b8063d058ae9614610a69578063d12d641314610b7c578063e265d0ba14610b91578063e6ede14d14610ba6578063e6fc774414610bd9578063e8340a9914610bee5761027c565b8063b6240bc011610113578063b6240bc014610941578063b7947262146109bc578063b86f60d2146109d1578063c1f0808a146109e6578063c4d66de814610a10578063cb112a1e14610a435761027c565b80638f32d59b14610851578063916dc59d1461086657806396989407146108995780639a95053e14610917578063a53d6e6e1461092c5761027c565b806359a8a867116101f3578063715018a6116101ac578063715018a6146107145780637e5d3620146107295780638129fc1c146107c357806382dc1ec4146107d85780638456cb591461080b5780638da5cb5b146108205761027c565b806359a8a8671461065a5780635c975abb1461066f5780635d447129146106845780636a4234eb146106b75780636b0c932d146106ea5780636ef8d66d146106ff5761027c565b8063357291301161024557806335729130146104f55780633f4ba83a1461052e57806342cdb2c61461054357806346fbf68e146105765780634bc9fdc2146105a957806354fd4d50146105d05761027c565b806223de29146102815780630e6ec779146103765780631e1c24b5146104475780632239c48a146104cb578063257e1f8f146104e0575b600080fd5b34801561028d57600080fd5b50610374600480360360c08110156102a457600080fd5b6001600160a01b03823581169260208101358216926040820135909216916060820135919081019060a081016080820135600160201b8111156102e657600080fd5b8201836020820111156102f857600080fd5b803590602001918460018302840111600160201b8311171561031957600080fd5b919390929091602081019035600160201b81111561033657600080fd5b82018360208201111561034857600080fd5b803590602001918460018302840111600160201b8311171561036957600080fd5b509092509050610d17565b005b34801561038257600080fd5b50610433600480360361012081101561039a57600080fd5b6001600160a01b03823581169260208101359091169160408201359190810190608081016060820135600160201b8111156103d457600080fd5b8201836020820111156103e657600080fd5b803590602001918460018302840111600160201b8311171561040757600080fd5b919350915080359060208101359063ffffffff6040820135169060ff6060820135169060800135610edf565b604080519115158252519081900360200190f35b34801561045357600080fd5b506103746004803603604081101561046a57600080fd5b813515159190810190604081016020820135600160201b81111561048d57600080fd5b82018360208201111561049f57600080fd5b803590602001918460018302840111600160201b831117156104c057600080fd5b509092509050610f48565b3480156104d757600080fd5b50610374611017565b3480156104ec57600080fd5b506103746110ae565b34801561050157600080fd5b506104336004803603604081101561051857600080fd5b506001600160a01b038135169060200135611142565b34801561053a57600080fd5b5061037461116f565b34801561054f57600080fd5b506104336004803603602081101561056657600080fd5b50356001600160a01b0316611258565b34801561058257600080fd5b506104336004803603602081101561059957600080fd5b50356001600160a01b03166112b2565b3480156105b557600080fd5b506105be6112c5565b60408051918252519081900360200190f35b3480156105dc57600080fd5b506105e561135e565b6040805160208082528351818301528351919283929083019185019080838360005b8381101561061f578181015183820152602001610607565b50505050905090810190601f16801561064c5780820380516001836020036101000a031916815260200191505b509250505060405180910390f35b34801561066657600080fd5b506105e561137a565b34801561067b57600080fd5b50610433611408565b34801561069057600080fd5b50610433600480360360208110156106a757600080fd5b50356001600160a01b0316611411565b3480156106c357600080fd5b50610374600480360360208110156106da57600080fd5b50356001600160a01b0316611426565b3480156106f657600080fd5b506105be611502565b34801561070b57600080fd5b50610374611508565b34801561072057600080fd5b5061037461151a565b34801561073557600080fd5b506104336004803603608081101561074c57600080fd5b6001600160a01b038235811692602081013592604082013590921691810190608081016060820135600160201b81111561078557600080fd5b82018360208201111561079757600080fd5b803590602001918460018302840111600160201b831117156107b857600080fd5b5090925090506115b1565b3480156107cf57600080fd5b506103746115ff565b3480156107e457600080fd5b50610374600480360360208110156107fb57600080fd5b50356001600160a01b03166116a6565b34801561081757600080fd5b506103746116f5565b34801561082c57600080fd5b506108356117bc565b604080516001600160a01b039092168252519081900360200190f35b34801561085d57600080fd5b506104336117d0565b34801561087257600080fd5b506104336004803603602081101561088957600080fd5b50356001600160a01b03166117fb565b610374600480360360408110156108af57600080fd5b6001600160a01b038235169190810190604081016020820135600160201b8111156108d957600080fd5b8201836020820111156108eb57600080fd5b803590602001918460018302840111600160201b8311171561090c57600080fd5b50909250905061184d565b34801561092357600080fd5b506105be611942565b34801561093857600080fd5b50610835611948565b34801561094d57600080fd5b506103746004803603602081101561096457600080fd5b810190602081018135600160201b81111561097e57600080fd5b82018360208201111561099057600080fd5b803590602001918460018302840111600160201b831117156109b157600080fd5b509092509050611957565b3480156109c857600080fd5b506104336119aa565b3480156109dd57600080fd5b506108356119ba565b3480156109f257600080fd5b5061043360048036036020811015610a0957600080fd5b50356119c9565b348015610a1c57600080fd5b5061037460048036036020811015610a3357600080fd5b50356001600160a01b03166119de565b61037460048036036020811015610a5957600080fd5b50356001600160a01b0316611ad7565b348015610a7557600080fd5b506104336004803603610140811015610a8d57600080fd5b6001600160a01b03823581169260208101359091169160408201359190810190608081016060820135600160201b811115610ac757600080fd5b820183602082011115610ad957600080fd5b803590602001918460018302840111600160201b83111715610afa57600080fd5b9193909282359260208101359263ffffffff6040830135169260ff60608401351692608081013592919060c081019060a00135600160201b811115610b3e57600080fd5b820183602082011115610b5057600080fd5b803590602001918460018302840111600160201b83111715610b7157600080fd5b509092509050611b64565b348015610b8857600080fd5b506105e5611c03565b348015610b9d57600080fd5b50610433611c99565b348015610bb257600080fd5b5061083560048036036020811015610bc957600080fd5b50356001600160a01b0316611ca9565b348015610be557600080fd5b506105be611cc4565b348015610bfa57600080fd5b506105be600480360360a0811015610c1157600080fd5b5080359060208101359060408101356001600160a01b0316906060810135906080013563ffffffff16611cca565b348015610c4b57600080fd5b50610835611d2c565b348015610c6057600080fd5b50610433611d3b565b348015610c7557600080fd5b506105be611d4b565b348015610c8a57600080fd5b5061037460048036036020811015610ca157600080fd5b50356001600160a01b0316611d51565b348015610cbd57600080fd5b5061083560048036036020811015610cd457600080fd5b50356001600160a01b0316611da1565b348015610cf057600080fd5b5061043360048036036020811015610d0757600080fd5b50356001600160a01b0316611dbc565b60345460ff1615610d62576040805162461bcd60e51b815260206004820152601060248201526f14185d5cd8589b194e881c185d5cd95960821b604482015290519081900360640190fd5b604054600160a01b900460ff1615610db5576040805162461bcd60e51b81526020600482015260116024820152704272696467653a20557067726164696e6760781b604482015290519081900360640190fd5b6001600160a01b038816301415610dcb57610ed5565b6001600160a01b0386163014610e21576040805162461bcd60e51b81526020600482015260166024820152754272696467653a204e6f7420746f206164647265737360501b604482015290519081900360640190fd5b6000610e2b611e0e565b6042549091506001600160a01b0380831691161415610e91576040805162461bcd60e51b815260206004820152601c60248201527f4272696467653a2043616e6e6f74207472616e73666572205745544800000000604482015290519081900360640190fd5b610ed381898888888080601f016020809104026020016040519081016040528093929190818152602001838380828437600092019190915250611e1292505050565b505b5050505050505050565b6000610f398b8b8b8b8b8080601f016020809104026020016040519081016040528093929190818152602001838380828437600092018290525060408051602081019091529081528e93508d92508c91508b908b906126c5565b9b9a5050505050505050505050565b610f506117d0565b610f8f576040805162461bcd60e51b815260206004820181905260248201526000805160206143f3833981519152604482015290519081900360640190fd5b604054600160b01b900460ff1615610fee576040805162461bcd60e51b815260206004820152601f60248201527f4272696467653a20696e697469616c507265666978536574757020446f6e6500604482015290519081900360640190fd5b6040805460ff60b81b1916600160b81b8515150217905561101160388383614256565b50505050565b61101f6117d0565b61105e576040805162461bcd60e51b815260206004820181905260248201526000805160206143f3833981519152604482015290519081900360640190fd5b6040805460ff60a01b1916600160a01b908117808355825191900460ff161515815290517f983e436223c000a441c2443b394ca5fb4669a513fe86dc1dd44494047b514ad99181900360200190a1565b6110b66117d0565b6110f5576040805162461bcd60e51b815260206004820181905260248201526000805160206143f3833981519152604482015290519081900360640190fd5b6040805460ff60a01b19168082558151600160a01b90910460ff161515815290517f983e436223c000a441c2443b394ca5fb4669a513fe86dc1dd44494047b514ad99181900360200190a1565b60006111668383611151611e0e565b60405180602001604052806000815250612b32565b90505b92915050565b61117f61117a611e0e565b6112b2565b6111ba5760405162461bcd60e51b81526004018080602001828103825260288152602001806143666028913960400191505060405180910390fd5b60345460ff16611208576040805162461bcd60e51b815260206004820152601460248201527314185d5cd8589b194e881b9bdd081c185d5cd95960621b604482015290519081900360640190fd5b6034805460ff191690557f5db9ee0a495bf2e6ff9c91a7834c1ba4fdd244a5e8aa4e537bd38aeae4b073aa61123b611e0e565b604080516001600160a01b039092168252519081900360200190a1565b60006112626117d0565b6112a1576040805162461bcd60e51b815260206004820181905260248201526000805160206143f3833981519152604482015290519081900360640190fd5b6112aa82612cbd565b506001919050565b600061116960338363ffffffff612d5416565b603a546039546000919062015180014211156112df575060005b603f54604080516301a0371960e61b81526004810184905290516001600160a01b039092169163680dc64091602480820192602092909190829003018186803b15801561132b57600080fd5b505afa15801561133f573d6000803e3d6000fd5b505050506040513d602081101561135557600080fd5b50519150505b90565b604080518082019091526002815261763360f01b602082015290565b6038805460408051602060026001851615610100026000190190941693909304601f810184900484028201840190925281815292918301828280156114005780601f106113d557610100808354040283529160200191611400565b820191906000526020600020905b8154815290600101906020018083116113e357829003601f168201915b505050505081565b60345460ff1690565b603d6020526000908152604090205460ff1681565b61142e6117d0565b61146d576040805162461bcd60e51b815260206004820181905260248201526000805160206143f3833981519152604482015290519081900360640190fd5b6001600160a01b0381161580159061148f5750604054600160c01b900460ff16155b6114e0576040805162461bcd60e51b815260206004820152601f60248201527f4e6f2073657420574554484164647220414620317374207472616e7366657200604482015290519081900360640190fd5b604280546001600160a01b0319166001600160a01b0392909216919091179055565b60395481565b611518611513611e0e565b612dbb565b565b6115226117d0565b611561576040805162461bcd60e51b815260206004820181905260248201526000805160206143f3833981519152604482015290519081900360640190fd5b60345460405160009161010090046001600160a01b0316907f8be0079c531659141344cd1fd0a4f28419497f9722a3daafe3b4186f6b6457e0908390a360348054610100600160a81b0319169055565b60006115f586868686868080601f016020809104026020016040519081016040528093929190818152602001838380828437600092019190915250612b3292505050565b9695505050505050565b600054610100900460ff16806116185750611618612e03565b80611626575060005460ff16155b6116615760405162461bcd60e51b815260040180806020018281038252602881526020018061433e6028913960400191505060405180910390fd5b600054610100900460ff1615801561168c576000805460ff1961ff0019909116610100171660011790555b600160355580156116a3576000805461ff00191690555b50565b6116b161117a611e0e565b6116ec5760405162461bcd60e51b81526004018080602001828103825260288152602001806143666028913960400191505060405180910390fd5b6116a381612e09565b61170061117a611e0e565b61173b5760405162461bcd60e51b81526004018080602001828103825260288152602001806143666028913960400191505060405180910390fd5b60345460ff1615611786576040805162461bcd60e51b815260206004820152601060248201526f14185d5cd8589b194e881c185d5cd95960821b604482015290519081900360640190fd5b6034805460ff191660011790557f62e78cea01bee320cd4e420270b5ea74000d11b0c9f74754ebdbfc544b05a25861123b611e0e565b60345461010090046001600160a01b031690565b60345460009061010090046001600160a01b03166117ec611e0e565b6001600160a01b031614905090565b60006118056117d0565b611844576040805162461bcd60e51b815260206004820181905260248201526000805160206143f3833981519152604482015290519081900360640190fd5b6112aa82612e51565b600034118015611863575061186133612ece565b155b801561187957506042546001600160a01b031615155b6118ca576040805162461bcd60e51b815260206004820152601e60248201527f5365742057455448416464722e2053656e64206e6f742066726f6d2053430000604482015290519081900360640190fd5b604054600160c01b900460ff166118ef576040805460ff60c01b1916600160c01b1790555b604254604080516020601f850181900481028201810190925283815261193d926001600160a01b031691869134918790879081908401838280828437600092019190915250611e1292505050565b505050565b60415481565b603f546001600160a01b031681565b61195f6117d0565b61199e576040805162461bcd60e51b815260206004820181905260248201526000805160206143f3833981519152604482015290519081900360640190fd5b61193d60438383614256565b604054600160a01b900460ff1681565b6040546001600160a01b031681565b603e6020526000908152604090205460ff1681565b600054610100900460ff16806119f757506119f7612e03565b80611a05575060005460ff16155b611a405760405162461bcd60e51b815260040180806020018281038252602881526020018061433e6028913960400191505060405180910390fd5b600054610100900460ff16158015611a6b576000805460ff1961ff0019909116610100171660011790555b60348054610100600160a81b0319166101006001600160a01b0385811682029290921792839055604051920416906000907f8be0079c531659141344cd1fd0a4f28419497f9722a3daafe3b4186f6b6457e0908290a38015611ad3576000805461ff00191690555b5050565b611adf6117d0565b611b1e576040805162461bcd60e51b815260206004820181905260248201526000805160206143f3833981519152604482015290519081900360640190fd5b604154471015611b2d57600080fd5b600060418190556040516001600160a01b038316916108fc9181818181818888f19350505050158015611ad3573d6000803e3d6000fd5b6000611bf28d8d8d8d8d8080601f016020809104026020016040519081016040528093929190818152602001838380828437600081840152601f19601f820116905080830192505050505050508c8c8c8c8c8c8c8080601f0160208091040260200160405190810160405280939291908181526020018383808284376000920191909152506126c592505050565b9d9c50505050505050505050505050565b60438054604080516020601f6002600019610100600188161502019095169490940493840181900481028201810190925282815260609390929091830182828015611c8f5780601f10611c6457610100808354040283529160200191611c8f565b820191906000526020600020905b815481529060010190602001808311611c7257829003601f168201915b5050505050905090565b604054600160b01b900460ff1681565b603b602052600090815260409020546001600160a01b031681565b61271081565b6040805160208082019790975280820195909552606093841b6bffffffffffffffffffffffff191693850193909352607484019190915260e01b6001600160e01b03191660948301528051808303607801815260989092019052805191012090565b6036546001600160a01b031690565b604054600160b81b900460ff1681565b603a5481565b611d596117d0565b611d98576040805162461bcd60e51b815260206004820181905260248201526000805160206143f3833981519152604482015290519081900360640190fd5b6116a381612f0a565b603c602052600090815260409020546001600160a01b031681565b6000611dc66117d0565b611e05576040805162461bcd60e51b815260206004820181905260248201526000805160206143f3833981519152604482015290519081900360640190fd5b6112aa82612fb6565b3390565b6001600160a01b038481166000818152603c6020908152604080832054603f548251631da0dff160e01b81526004810196909652915190861615159593949190931692631da0dff192602480840193919291829003018186803b158015611e7857600080fd5b505afa158015611e8c573d6000803e3d6000fd5b505050506040513d6020811015611ea257600080fd5b505190508015611eff576042546001600160a01b0387811691161415611edd57604154611ed5908263ffffffff61306b16565b604155611eff565b611eff611ee86117bc565b6001600160a01b038816908363ffffffff6130c516565b6000611f11858363ffffffff61311716565b9050821561232a57611f24878685613159565b6040805163fe9d930360e01b815260048101838152602482019283528651604483015286516001600160a01b038b169363fe9d93039386938a9390929160640190602085019080838360005b83811015611f88578181015183820152602001611f70565b50505050905090810190601f168015611fb55780820380516001836020036101000a031916815260200191505b509350505050600060405180830381600087803b158015611fd557600080fd5b505af1158015611fe9573d6000803e3d6000fd5b505050506001600160a01b038781166000818152603c60205260408082205481516395d89b4160e01b81529151858c169591909116937f33409cca56f705a7bbed38b7db57cf3a63317f3c1b9a747bbfb3d3ecffa84f6f93879391926395d89b41926004808201939291829003018186803b15801561206757600080fd5b505afa15801561207b573d6000803e3d6000fd5b505050506040513d6000823e601f3d908101601f1916820160405260208110156120a457600080fd5b8101908080516040519392919084600160201b8211156120c357600080fd5b9083019060208201858111156120d857600080fd5b8251600160201b8111828201881017156120f157600080fd5b82525081516020918201929091019080838360005b8381101561211e578181015183820152602001612106565b50505050905090810190601f16801561214b5780820380516001836020036101000a031916815260200191505b50604052505050888c6001600160a01b031663313ce5676040518163ffffffff1660e01b815260040160206040518083038186803b15801561218c57600080fd5b505afa1580156121a0573d6000803e3d6000fd5b505050506040513d60208110156121b657600080fd5b81019080805190602001909291905050508d6001600160a01b031663556f0dc76040518163ffffffff1660e01b815260040160206040518083038186803b15801561220057600080fd5b505afa158015612214573d6000803e3d6000fd5b505050506040513d602081101561222a57600080fd5b50516040805186815260ff841660608201526080810183905260a060208281018281528851928401929092528751929391929184019160c085019189019080838360005b8381101561228657818101518382015260200161226e565b50505050905090810190601f1680156122b35780820380516001836020036101000a031916815260200191505b50838103825286518152865160209182019188019080838360005b838110156122e65781810151838201526020016122ce565b50505050905090810190601f1680156123135780820380516001836020036101000a031916815260200191505b5097505050505050505060405180910390a36126bc565b6001600160a01b038088166000818152603d60205260408120805460ff191660011790556042549092839260609290911614156123f857604380546040805160206002600180861615610100026000190190951604601f81018290048202830182019093528282526012975092955092918301828280156123ec5780601f106123c1576101008083540402835291602001916123ec565b820191906000526020600020905b8154815290600101906020018083116123cf57829003601f168201915b50505050509050612551565b60408051631f69565f60e01b81526001600160a01b038c166004820152905173__Utils_________________________________91631f69565f916024808301926000929190829003018186803b15801561245257600080fd5b505af4158015612466573d6000803e3d6000fd5b505050506040513d6000823e601f3d908101601f19168201604052606081101561248f57600080fd5b81516020830151604080850180519151939592948301929184600160201b8211156124b957600080fd5b9083019060208201858111156124ce57600080fd5b8251600160201b8111828201881017156124e757600080fd5b82525081516020918201929091019080838360005b838110156125145781810151838201526020016124fc565b50505050905090810190601f1680156125415780820380516001836020036101000a031916815260200191505b5060405250939650919450925050505b87601260ff85161461257a576125778960ff601287900316600a0a63ffffffff61327116565b90505b6125858b8289613159565b896001600160a01b03168b6001600160a01b03167f33409cca56f705a7bbed38b7db57cf3a63317f3c1b9a747bbfb3d3ecffa84f6f87858c89896040518086815260200180602001806020018560ff1660ff168152602001848152602001838103835287818151815260200191508051906020019080838360005b83811015612618578181015183820152602001612600565b50505050905090810190601f1680156126455780820380516001836020036101000a031916815260200191505b50838103825286518152865160209182019188019080838360005b83811015612678578181015183820152602001612660565b50505050905090810190601f1680156126a55780820380516001836020036101000a031916815260200191505b5097505050505050505060405180910390a3505050505b50505050505050565b6036546000906001600160a01b03163314612727576040805162461bcd60e51b815260206004820152601d60248201527f4272696467653a2053656e646572206e6f742046656465726174696f6e000000604482015290519081900360640190fd5b60345460ff1615612772576040805162461bcd60e51b815260206004820152601060248201526f14185d5cd8589b194e881c185d5cd95960821b604482015290519081900360640190fd5b60358054600101908190556001600160a01b038c166127d0576040805162461bcd60e51b8152602060048201526015602482015274109c9a5919d94e88151bdad95b881a5cc81b9d5b1b605a1b604482015290519081900360640190fd5b6001600160a01b038b1661282b576040805162461bcd60e51b815260206004820152601860248201527f4272696467653a205265636569766572206973206e756c6c0000000000000000604482015290519081900360640190fd5b60008a11612873576040805162461bcd60e51b815260206004820152601060248201526f04272696467653a20416d6f756e7420360841b604482015290519081900360640190fd5b60008951116128c0576040805162461bcd60e51b8152602060048201526014602482015273109c9a5919d94e88115b5c1d1e481cde5b589bdb60621b604482015290519081900360640190fd5b87612912576040805162461bcd60e51b815260206004820152601960248201527f4272696467653a20426c6f636b48617368206973206e756c6c00000000000000604482015290519081900360640190fd5b86612964576040805162461bcd60e51b815260206004820152601b60248201527f4272696467653a205472616e73616374696f6e206973206e756c6c0000000000604482015290519081900360640190fd5b60128560ff1611156129bd576040805162461bcd60e51b815260206004820152601a60248201527f4272696467653a20446563696d616c7320626967676572203138000000000000604482015290519081900360640190fd5b601273__Utils_________________________________6319bd2045866040518263ffffffff1660e01b81526004018082815260200191505060206040518083038186803b158015612a0e57600080fd5b505af4158015612a22573d6000803e3d6000fd5b505050506040513d6020811015612a3857600080fd5b505160ff161115612a90576040805162461bcd60e51b815260206004820152601b60248201527f4272696467653a20696e76616c6964206772616e756c61726974790000000000604482015290519081900360640190fd5b612a9d88888d8d8a6132ca565b6001600160a01b038c166000908152603d602052604090205460ff1615612ad057612acb8b8d87878e613360565b612adf565b612adf8b8d87878e8e89613535565b600191506035548114612b235760405162461bcd60e51b81526004018080602001828103825260258152602001806143196025913960400191505060405180910390fd5b509a9950505050505050505050565b604054600090600160a01b900460ff1615612b88576040805162461bcd60e51b81526020600482015260116024820152704272696467653a20557067726164696e6760781b604482015290519081900360640190fd5b60345460ff1615612bd3576040805162461bcd60e51b815260206004820152601060248201526f14185d5cd8589b194e881c185d5cd95960821b604482015290519081900360640190fd5b60358054600101908190556042546001600160a01b0387811691161415612c41576040805162461bcd60e51b815260206004820152601c60248201527f4272696467653a2043616e6e6f74207472616e73666572205745544800000000604482015290519081900360640190fd5b612c64612c4c611e0e565b6001600160a01b03881690308863ffffffff613aaf16565b612c7086858786611e12565b600191506035548114612cb45760405162461bcd60e51b81526004018080602001828103825260258152602001806143196025913960400191505060405180910390fd5b50949350505050565b6001600160a01b038116612d025760405162461bcd60e51b81526004018080602001828103825260218152602001806143b16021913960400191505060405180910390fd5b604080546001600160a01b0383166001600160a01b031990911681178255815190815290517f619936bc6e3618d0b8dc69bcc70134fe9d88f9967f3a8b8304e31836925216259181900360200190a150565b60006001600160a01b038216612d9b5760405162461bcd60e51b81526004018080602001828103825260228152602001806144136022913960400191505060405180910390fd5b506001600160a01b03166000908152602091909152604090205460ff1690565b612dcc60338263ffffffff613b0916565b6040516001600160a01b038216907fcd265ebaf09df2871cc7bd4133404a235ba12eff2041bb89d9c714a2621c7c7e90600090a250565b303b1590565b612e1a60338263ffffffff613b8616565b6040516001600160a01b038216907f6719d08c1888103bea251a4ed56406bd0c3e69723c8a1686e017e7bbe159b6f890600090a250565b6001600160a01b038116612eac576040805162461bcd60e51b815260206004820152601f60248201527f4272696467653a206e6577416c6c6f77546f6b656e7320697320656d70747900604482015290519081900360640190fd5b603f80546001600160a01b0319166001600160a01b0392909216919091179055565b6000813f7fc5d2460186f7233c927e7db2dcc703c0e500b653ca82273b7bfad8045d85a470818114801590612f0257508115155b949350505050565b6001600160a01b038116612f4f5760405162461bcd60e51b81526004018080602001828103825260228152602001806144356022913960400191505060405180910390fd5b6034546040516001600160a01b0380841692610100900416907f8be0079c531659141344cd1fd0a4f28419497f9722a3daafe3b4186f6b6457e090600090a3603480546001600160a01b0390921661010002610100600160a81b0319909216919091179055565b6001600160a01b038116613011576040805162461bcd60e51b815260206004820152601b60248201527f4272696467653a2046656465726174696f6e20697320656d7074790000000000604482015290519081900360640190fd5b603680546001600160a01b0319166001600160a01b03838116919091179182905560408051929091168252517f4a41a4d11aaf0c0c9e4311ac1d68b2b0134556da594779a2a35b0ddf7cd1eafb916020908290030190a150565b600082820183811015611166576040805162461bcd60e51b815260206004820152601b60248201527f536166654d6174683a206164646974696f6e206f766572666c6f770000000000604482015290519081900360640190fd5b604080516001600160a01b038416602482015260448082018490528251808303909101815260649091019091526020810180516001600160e01b031663a9059cbb60e01b17905261193d908490613c07565b600061116683836040518060400160405280601e81526020017f536166654d6174683a207375627472616374696f6e206f766572666c6f770000815250613dbf565b603954620151800142111561317257426039556000603a555b603f54603a5460408051632692066f60e21b81526001600160a01b038781166004830152602482018790526044820193909352841515606482015290519190921691639a4819bc916084808301926020929190829003018186803b1580156131d957600080fd5b505afa1580156131ed573d6000803e3d6000fd5b505050506040513d602081101561320357600080fd5b5051613256576040805162461bcd60e51b815260206004820152601960248201527f4272696467653a20426967676572207468616e206c696d697400000000000000604482015290519081900360640190fd5b603a54613269908363ffffffff61306b16565b603a55505050565b60008261328057506000611169565b8282028284828161328d57fe5b04146111665760405162461bcd60e51b81526004018080602001828103825260218152602001806143d26021913960400191505060405180910390fd5b60006132d98686868686611cca565b6000818152603e602052604090205490915060ff1615613340576040805162461bcd60e51b815260206004820152601960248201527f4272696467653a20416c72656164792070726f63657373656400000000000000604482015290519081900360640190fd5b6000908152603e60205260409020805460ff191660011790555050505050565b8260ff166012146133a25760405162461bcd60e51b815260040180806020018281038252602381526020018061438e6023913960400191505060405180910390fd5b6040805163dc98f6b760e01b81526001600160a01b038616600482015260248101849052604481018390528151600092839273__Utils_________________________________9263dc98f6b792606480840193919291829003018186803b15801561340d57600080fd5b505af4158015613421573d6000803e3d6000fd5b505050506040513d604081101561343757600080fd5b50805160209091015160425491935091506001600160a01b038781169116141561349a5760405187906001600160a01b0382169085156108fc029086906000818181858888f19350505050158015613493573d6000803e3d6000fd5b50506134b4565b6134b46001600160a01b038716888363ffffffff6130c516565b6040805184815260ff80881660208301528183018790526060820184905284166080820152600160a082015260e060c0820181905260009082015290516001600160a01b03808a1692908916917f3f11277de1ec7e6084b80bb080be00fd989d3e5d233d77504a7426511f5452f2918190036101200190a350505050505050565b604080516336e28b8f60e21b815260ff8716600482015260248101869052604481018590528151600092839273__Utils_________________________________9263db8a2e3c92606480840193919291829003018186803b15801561359a57600080fd5b505af41580156135ae573d6000803e3d6000fd5b505050506040513d60408110156135c457600080fd5b5080516020918201516001600160a01b03808c166000908152603b90945260409093205491945092501680613605576135fe898685613e56565b90506136a7565b806001600160a01b031663556f0dc76040518163ffffffff1660e01b815260040160206040518083038186803b15801561363e57600080fd5b505afa158015613652573d6000803e3d6000fd5b505050506040513d602081101561366857600080fd5b505183146136a75760405162461bcd60e51b815260040180806020018281038252602a8152602001806142ef602a913960400191505060405180910390fd5b806001600160a01b031663dcdc7dd08b84876040518463ffffffff1660e01b815260040180846001600160a01b03166001600160a01b031681526020018381526020018060200180602001838103835284818151815260200191508051906020019080838360005b8381101561372757818101518382015260200161370f565b50505050905090810190601f1680156137545780820380516001836020036101000a031916815260200191505b5083810382526000815260200160200195505050505050600060405180830381600087803b15801561378557600080fd5b505af1158015613799573d6000803e3d6000fd5b505050506137af8a6001600160a01b0316612ece565b156139bc57600060608b6001600160a01b031684848860405160240180848152602001836001600160a01b03166001600160a01b0316815260200180602001828103825283818151815260200191508051906020019080838360005b8381101561382357818101518382015260200161380b565b50505050905090810190601f1680156138505780820380516001836020036101000a031916815260200191505b5060408051601f198184030181529181526020820180516001600160e01b031663c4a5863760e01b178152905182519297509550859450925090508083835b602083106138ae5780518252601f19909201916020918201910161388f565b6001836020036101000a0380198251168184511680821785525050505050509050019150506000604051808303816000865af19150503d8060008114613910576040519150601f19603f3d011682016040523d82523d6000602084013e613915565b606091505b5091509150816139b9577f64de857e027e5e94a8966c5707d2a9424097c78b217caf33543f84c2332483a1816040518080602001828103825283818151815260200191508051906020019080838360005b8381101561397e578181015183820152602001613966565b50505050905090810190601f1680156139ab5780820380516001836020036101000a031916815260200191505b509250505060405180910390a15b50505b896001600160a01b0316896001600160a01b03167f3f11277de1ec7e6084b80bb080be00fd989d3e5d233d77504a7426511f5452f2888b8b8760128a8c604051808881526020018760ff1660ff1681526020018681526020018581526020018460ff16815260200183815260200180602001828103825283818151815260200191508051906020019080838360005b83811015613a63578181015183820152602001613a4b565b50505050905090810190601f168015613a905780820380516001836020036101000a031916815260200191505b509850505050505050505060405180910390a350505050505050505050565b604080516001600160a01b0385811660248301528416604482015260648082018490528251808303909101815260849091019091526020810180516001600160e01b03166323b872dd60e01b179052611011908590613c07565b613b138282612d54565b613b64576040805162461bcd60e51b815260206004820181905260248201527f526f6c65733a206163636f756e7420646f65736e2774206861766520726f6c65604482015290519081900360640190fd5b6001600160a01b0316600090815260209190915260409020805460ff19169055565b613b908282612d54565b15613be2576040805162461bcd60e51b815260206004820152601f60248201527f526f6c65733a206163636f756e7420616c72656164792068617320726f6c6500604482015290519081900360640190fd5b6001600160a01b0316600090815260209190915260409020805460ff19166001179055565b613c19826001600160a01b0316612ece565b613c6a576040805162461bcd60e51b815260206004820152601f60248201527f5361666545524332303a2063616c6c20746f206e6f6e2d636f6e747261637400604482015290519081900360640190fd5b60006060836001600160a01b0316836040518082805190602001908083835b60208310613ca85780518252601f199092019160209182019101613c89565b6001836020036101000a0380198251168184511680821785525050505050509050019150506000604051808303816000865af19150503d8060008114613d0a576040519150601f19603f3d011682016040523d82523d6000602084013e613d0f565b606091505b509150915081613d66576040805162461bcd60e51b815260206004820181905260248201527f5361666545524332303a206c6f772d6c6576656c2063616c6c206661696c6564604482015290519081900360640190fd5b80511561101157808060200190516020811015613d8257600080fd5b50516110115760405162461bcd60e51b815260040180806020018281038252602a815260200180614457602a913960400191505060405180910390fd5b60008184841115613e4e5760405162461bcd60e51b81526004018080602001828103825283818151815260200191508051906020019080838360005b83811015613e13578181015183820152602001613dfb565b50505050905090810190601f168015613e405780820380516001836020036101000a031916815260200191505b509250505060405180910390fd5b505050900390565b6040805460ff60b01b1916600160b01b1790819055600090606090600160b81b900460ff16613f48576038846040516020018083805460018160011615610100020316600290048015613ee05780601f10613ebe576101008083540402835291820191613ee0565b820191906000526020600020905b815481529060010190602001808311613ecc575b5050825160208401908083835b60208310613f0c5780518252601f199092019160209182019101613eed565b6001836020036101000a03801982511681845116808217855250505050505090500192505050604051602081830303815290604052905061400e565b8360386040516020018083805190602001908083835b60208310613f7d5780518252601f199092019160209182019101613f5e565b6001836020036101000a03801982511681845116808217855250505050505090500182805460018160011615610100020316600290048015613ff65780601f10613fd4576101008083540402835291820191613ff6565b820191906000526020600020905b815481529060010190602001808311613fe2575b50509250505060405160208183030381529060405290505b6040805490516326d9e96360e01b8152604481018590526060600482019081528351606483015283516000936001600160a01b0316926326d9e96392869283928a92918291602481019160849091019060208701908083838e5b83811015614080578181015183820152602001614068565b50505050905090810190601f1680156140ad5780820380516001836020036101000a031916815260200191505b50838103825285518152855160209182019187019080838360005b838110156140e05781810151838201526020016140c8565b50505050905090810190601f16801561410d5780820380516001836020036101000a031916815260200191505b5095505050505050602060405180830381600087803b15801561412f57600080fd5b505af1158015614143573d6000803e3d6000fd5b505050506040513d602081101561415957600080fd5b50516001600160a01b038088166000818152603b6020908152604080832080549587166001600160a01b03199687168117909155808452603c83528184208054909616851790955580518083018b9052818152885191810191909152875195985088965092947f2ef93c4e96a4ef0b19497ff60c9e7360a8734f3d2cd27ae5318e43851734d17f9388938b9391928392606084019290870191908190849084905b838110156142125781810151838201526020016141fa565b50505050905090810190601f16801561423f5780820380516001836020036101000a031916815260200191505b50935050505060405180910390a350509392505050565b828054600181600116156101000203166002900490600052602060002090601f016020900481019282601f106142975782800160ff198235161785556142c4565b828001600101855582156142c4579182015b828111156142c45782358255916020019190600101906142a9565b506142d09291506142d4565b5090565b61135b91905b808211156142d057600081556001016142da56fe4272696467653a204772616e756c6172697479206469666665722066726f6d207369646520746f6b656e5265656e7472616e637947756172643a206e6f207265656e7472616e7420616c6c6f776564436f6e747261637420696e7374616e636520697320616c726561647920696e697469616c697a6564506175736572526f6c653a2063616c6c657220646f65736e277420686176652074686520726f6c654272696467653a20496e76616c696420646563696d616c732063726f7373206261636b4272696467653a2053696465546f6b656e466163746f727920697320656d707479536166654d6174683a206d756c7469706c69636174696f6e206f766572666c6f774f776e61626c653a2063616c6c6572206973206e6f7420746865206f776e6572526f6c65733a206163636f756e7420697320746865207a65726f20616464726573734f776e61626c653a206e6577206f776e6572206973207a65726f20616464726573735361666545524332303a204552433230206f7065726174696f6e20646964206e6f742073756363656564a265627a7a7231582029944f9cae46ba92025e483974cf675d46e80f61562568c49a64a819f3ed54ea64736f6c63430005110032",
  "source": "pragma solidity ^0.5.0;\n\n// Import base Initializable contract\nimport \"./zeppelin/upgradable/Initializable.sol\";\n// Import interface and library from OpenZeppelin contracts\nimport \"./zeppelin/upgradable/utils/ReentrancyGuard.sol\";\nimport \"./zeppelin/upgradable/lifecycle/UpgradablePausable.sol\";\nimport \"./zeppelin/upgradable/ownership/UpgradableOwnable.sol\";\n\nimport \"./zeppelin/introspection/IERC1820Registry.sol\";\nimport \"./zeppelin/token/ERC777/IERC777Recipient.sol\";\nimport \"./zeppelin/token/ERC20/IERC20.sol\";\nimport \"./zeppelin/token/ERC20/SafeERC20.sol\";\nimport \"./zeppelin/utils/Address.sol\";\nimport \"./zeppelin/math/SafeMath.sol\";\n\nimport \"./IBridge.sol\";\nimport \"./ISideToken.sol\";\nimport \"./ISideTokenFactory.sol\";\nimport \"./IAllowTokens.sol\";\nimport \"./Utils.sol\";\n\ncontract Bridge is Initializable, IBridge, IERC777Recipient, UpgradablePausable, UpgradableOwnable, ReentrancyGuard {\n    using SafeMath for uint256;\n    using SafeERC20 for IERC20;\n    using Address for address;\n\n    address constant private NULL_ADDRESS = address(0);\n    bytes32 constant private NULL_HASH = bytes32(0);\n    IERC1820Registry constant private erc1820 = IERC1820Registry(0x1820a4B7618BdE71Dce8cdc73aAB6C95905faD24);\n\n    address private federation;\n    uint256 private feePercentage;\n    string public symbolPrefix;\n    uint256 public lastDay;\n    uint256 public spentToday;\n\n    mapping (address => ISideToken) public mappedTokens; // OirignalToken => SideToken\n    mapping (address => address) public originalTokens; // SideToken => OriginalToken\n    mapping (address => bool) public knownTokens; // OriginalToken => true\n    mapping(bytes32 => bool) public processed; // ProcessedHash => true\n    IAllowTokens public allowTokens;\n    ISideTokenFactory public sideTokenFactory;\n    //Bridge_v1 variables\n    bool public isUpgrading;\n    uint256 constant public feePercentageDivider = 10000; // Porcentage with up to 2 decimals\n    bool private alreadyRun;\n    //Bridge_v3 variables\n    bool public initialPrefixSetup;\n    bool public isSuffix;\n    bool private ethFirstTransfer;\n    uint256 public ethFeeCollected;\n    address private WETHAddr;\n    string private nativeTokenSymbol;\n    //address public aggregatorAddr;\n\n    event FederationChanged(address _newFederation);\n    event SideTokenFactoryChanged(address _newSideTokenFactory);\n    event Upgrading(bool isUpgrading);\n    //event AllowTokenChanged(address _newAllowToken);\n    //event PrefixUpdated(bool _isSuffix, string _prefix);\n\n// We are not using this initializer anymore because we are upgrading.\n//    function initialize(\n//        address _manager,\n//        address _federation,\n//        address _allowTokens,\n//        address _sideTokenFactory,\n//        string memory _symbolPrefix\n//    ) public initializer {\n//        UpgradableOwnable.initialize(_manager);\n//        UpgradablePausable.initialize(_manager);\n//        symbolPrefix = _symbolPrefix;\n//        allowTokens = AllowTokens(_allowTokens);\n//        _changeSideTokenFactory(_sideTokenFactory);\n//        _changeFederation(_federation);\n//        //keccak256(\"ERC777TokensRecipient\")\n//        erc1820.setInterfaceImplementer(address(this), 0xb281fc8c12954d22544db45de3159a39272895b169a852b314f9cc762e44c53b, address(this));\n//    }\n\n    function version() external pure returns (string memory) {\n        return \"v3\";\n    }\n\n    modifier onlyFederation() {\n       require(msg.sender == federation, \"Bridge: Sender not Federation\");\n       _;\n    }\n\n    modifier whenNotUpgrading() {\n        require(!isUpgrading, \"Bridge: Upgrading\");\n        _;\n    }\n\n    function acceptTransfer(\n        address tokenAddress,\n        address receiver,\n        uint256 amount,\n        string calldata symbol,\n        bytes32 blockHash,\n        bytes32 transactionHash,\n        uint32 logIndex,\n        uint8 decimals,\n        uint256 granularity\n    ) external returns(bool) {\n        return _acceptTransfer(tokenAddress, receiver, amount, symbol, blockHash, transactionHash, logIndex, decimals, granularity, \"\");\n    }\n\n    function acceptTransferAt(\n        address tokenAddress,\n        address receiver,\n        uint256 amount,\n        string calldata symbol,\n        bytes32 blockHash,\n        bytes32 transactionHash,\n        uint32 logIndex,\n        uint8 decimals,\n        uint256 granularity,\n        bytes calldata userData\n    ) external returns(bool) {\n        return _acceptTransfer(tokenAddress, receiver, amount, symbol, blockHash, transactionHash, logIndex, decimals, granularity, userData);\n    }\n\n    function _acceptTransfer(\n        address tokenAddress,\n        address receiver,\n        uint256 amount,\n        string memory symbol,\n        bytes32 blockHash,\n        bytes32 transactionHash,\n        uint32 logIndex,\n        uint8 decimals,\n        uint256 granularity,\n        bytes memory userData\n    ) internal onlyFederation whenNotPaused nonReentrant returns(bool) {\n        require(tokenAddress != NULL_ADDRESS, \"Bridge: Token is null\");\n        require(receiver != NULL_ADDRESS, \"Bridge: Receiver is null\");\n        require(amount > 0, \"Bridge: Amount 0\");\n        require(bytes(symbol).length > 0, \"Bridge: Empty symbol\");\n        require(blockHash != NULL_HASH, \"Bridge: BlockHash is null\");\n        require(transactionHash != NULL_HASH, \"Bridge: Transaction is null\");\n        require(decimals <= 18, \"Bridge: Decimals bigger 18\");\n        require(Utils.granularityToDecimals(granularity) <= 18, \"Bridge: invalid granularity\");\n\n        _processTransaction(blockHash, transactionHash, receiver, amount, logIndex);\n\n        if (knownTokens[tokenAddress]) {\n            _acceptCrossBackToToken(receiver, tokenAddress, decimals, granularity, amount);\n        } else {\n            _acceptCrossToSideToken(receiver, tokenAddress, decimals, granularity, amount, symbol, userData);\n        }\n        return true;\n    }\n\n    function _acceptCrossToSideToken(\n        address receiver,\n        address tokenAddress,\n        uint8 decimals,\n        uint256 granularity,\n        uint256 amount,\n        string memory symbol,\n        bytes memory userData\n    ) private {\n        (uint256 calculatedGranularity,uint256 formattedAmount) = Utils.calculateGranularityAndAmount(decimals, granularity, amount);\n        ISideToken sideToken = mappedTokens[tokenAddress];\n        if (address(sideToken) == NULL_ADDRESS) {\n            sideToken = _createSideToken(tokenAddress, symbol, calculatedGranularity);\n        } else {\n            require(calculatedGranularity == sideToken.granularity(), \"Bridge: Granularity differ from side token\");\n        }\n        sideToken.mint(receiver, formattedAmount, userData, \"\");\n\n        if (receiver.isContract()) {\n            (bool success, bytes memory errorData) = receiver.call(\n                abi.encodeWithSignature(\"onTokensMinted(uint256,address,bytes)\", formattedAmount, sideToken, userData)\n            );\n            if (!success) {\n                emit ErrorTokenReceiver(errorData);\n            }\n        }\n\n        emit AcceptedCrossTransfer(tokenAddress, receiver, amount, decimals, granularity, formattedAmount, 18, calculatedGranularity, userData);\n    }\n\n    function _acceptCrossBackToToken(address receiver, address tokenAddress, uint8 decimals, uint256 granularity, uint256 amount) private {\n        require(decimals == 18, \"Bridge: Invalid decimals cross back\");\n        //As side tokens are ERC777 we need to convert granularity to decimals\n        (uint8 calculatedDecimals, uint256 formattedAmount) = Utils.calculateDecimalsAndAmount(tokenAddress, granularity, amount);\n        //// Bridge v3 upgrade functions\n        if (tokenAddress == WETHAddr) {\n            address payable payableReceiver = address(uint160(receiver));\n            payableReceiver.transfer(amount);\n        }\n        else {\n            IERC20(tokenAddress).safeTransfer(receiver, formattedAmount);\n        }\n        emit AcceptedCrossTransfer(tokenAddress, receiver, amount, decimals, granularity, formattedAmount, calculatedDecimals, 1, \"\");\n    }\n\n    /**\n    * ERC-20 tokens approve and transferFrom pattern\n    * See https://eips.ethereum.org/EIPS/eip-20#transferfrom\n    */\n    function receiveTokensAt(\n        address tokenToUse,\n        uint256 amount,\n        address receiver,\n        bytes calldata extraData\n    ) external returns(bool) {\n        return _receiveTokens(tokenToUse, amount, receiver, extraData);\n    }\n\n    /**\n    * ERC-20 tokens approve and transferFrom pattern\n    * See https://eips.ethereum.org/EIPS/eip-20#transferfrom\n    */\n    function receiveTokens(address tokenToUse, uint256 amount) external returns(bool) {\n        return _receiveTokens(tokenToUse, amount, _msgSender(), \"\");\n    }\n\n    /**\n     * ERC-20 tokens approve and transferFrom pattern\n     * See https://eips.ethereum.org/EIPS/eip-20#transferfrom\n     */\n    function _receiveTokens(\n        address tokenToUse,\n        uint256 amount,\n        address receiver,\n        bytes memory extraData\n    ) private whenNotUpgrading whenNotPaused nonReentrant returns(bool) {\n        require(tokenToUse != WETHAddr, \"Bridge: Cannot transfer WETH\");\n        //Transfer the tokens on IERC20, they should be already Approved for the bridge Address to use them\n        IERC20(tokenToUse).safeTransferFrom(_msgSender(), address(this), amount);\n        crossTokens(tokenToUse, receiver, amount, extraData);\n        return true;\n    }\n\n    /**\n     * ERC-777 tokensReceived hook allows to send tokens to a contract and notify it in a single transaction\n     * See https://eips.ethereum.org/EIPS/eip-777#motivation for details\n     */\n    function tokensReceived (\n        address operator,\n        address from,\n        address to,\n        uint amount,\n        bytes calldata userData,\n        bytes calldata\n    ) external whenNotPaused whenNotUpgrading {\n        //Hook from ERC777address\n       if(operator == address(this)) return; // Avoid loop from bridge calling to ERC77transferFrom\n        require(to == address(this), \"Bridge: Not to address\");\n       address tokenToUse = _msgSender();\n       require(tokenToUse != WETHAddr, \"Bridge: Cannot transfer WETH\");\n       //This can only be used with trusted contracts\n       crossTokens(tokenToUse, from, amount, userData);\n    }\n\n    function crossTokens(address tokenToUse, address receiver, uint256 amount, bytes memory userData) private {\n        bool isASideToken = originalTokens[tokenToUse] != NULL_ADDRESS;\n    //V3 upgrade change global token fee to per token fee\n        uint256 fee = allowTokens.getFeePerToken(tokenToUse);\n        if(fee>0 ){\n            if (tokenToUse== WETHAddr ) {\n                ethFeeCollected = ethFeeCollected.add(fee);\n            }\n            else {\n            //Send the payment to the MultiSig of the Federation\n                IERC20(tokenToUse).safeTransfer(owner(), fee);\n            }\n        }\n        uint256 amountMinusFees = amount.sub(fee);\n        if (isASideToken) {\n            verifyWithAllowTokens(tokenToUse, amount, isASideToken);\n            //Side Token Crossing\n            ISideToken(tokenToUse).burn(amountMinusFees, userData);\n            // solium-disable-next-line max-len\n            emit Cross(originalTokens[tokenToUse], receiver, amountMinusFees, ISideToken(tokenToUse).symbol(), userData, ISideToken(tokenToUse).decimals(), ISideToken(tokenToUse).granularity());\n        }\n        else {\n            //Main Token Crossing\n            uint8 decimals;\n            uint256 granularity;\n            string memory symbol;\n\n            knownTokens[tokenToUse] = true;\n            if (tokenToUse== WETHAddr ) {\n                decimals = 18;\n                granularity = 1;\n                symbol = nativeTokenSymbol;\n            }\n            else {\n                ( decimals, granularity,  symbol) = Utils.getTokenInfo(tokenToUse);\n            }\n            uint formattedAmount = amount;\n            if(decimals != 18) {\n                formattedAmount = amount.mul(uint256(10)**(18-decimals));\n            }\n            //We consider the amount before fees converted to 18 decimals to check the limits\n            verifyWithAllowTokens(tokenToUse, formattedAmount, isASideToken);\n            emit Cross(tokenToUse, receiver, amountMinusFees, symbol, userData, decimals, granularity);\n        }     \n    }\n\n    function _createSideToken(address token, string memory symbol, uint256 granularity) private returns (ISideToken sideToken){\n        initialPrefixSetup = true;\n        string memory newSymbol;\n        if(!isSuffix) {\n             newSymbol = string(abi.encodePacked(symbolPrefix, symbol));\n        }\n        else {\n             newSymbol = string(abi.encodePacked(symbol, symbolPrefix));    \n        }\n        \n        address sideTokenAddress = sideTokenFactory.createSideToken(newSymbol, newSymbol, granularity);\n        sideToken = ISideToken(sideTokenAddress);\n        mappedTokens[token] = sideToken;\n        originalTokens[sideTokenAddress] = token;\n        emit NewSideToken(sideTokenAddress, token, newSymbol, granularity);\n        return sideToken;\n    }\n\n    function verifyWithAllowTokens(address tokenToUse, uint256 amount, bool isASideToken) private  {\n        // solium-disable-next-line security/no-block-members\n        if (now > lastDay + 24 hours) {\n            // solium-disable-next-line security/no-block-members\n            lastDay = now;\n            spentToday = 0;\n        }\n        require(allowTokens.isValidTokenTransfer(tokenToUse, amount, spentToday, isASideToken), \"Bridge: Bigger than limit\");\n        spentToday = spentToday.add(amount);\n    }\n\n    function getTransactionId(\n        bytes32 _blockHash,\n        bytes32 _transactionHash,\n        address _receiver,\n        uint256 _amount,\n        uint32 _logIndex\n    )\n        public pure returns(bytes32)\n    {\n        return keccak256(abi.encodePacked(_blockHash, _transactionHash, _receiver, _amount, _logIndex));\n    }\n\n    function _processTransaction(\n        bytes32 _blockHash,\n        bytes32 _transactionHash,\n        address _receiver,\n        uint256 _amount,\n        uint32 _logIndex\n    )\n        private\n    {\n        bytes32 compiledId = getTransactionId(_blockHash, _transactionHash, _receiver, _amount, _logIndex);\n        require(!processed[compiledId], \"Bridge: Already processed\");\n        processed[compiledId] = true;\n    }\n\n    // function setFeePercentage(uint amount) external onlyOwner whenNotPaused {\n    //     require(amount < (feePercentageDivider/10), \"Bridge: bigger than 10%\");\n    //     feePercentage = amount;\n    //     emit FeePercentageChanged(feePercentage);\n    // }\n\n    // function getFeePercentage() external view returns(uint) {\n    //     return feePercentage;\n    // }\n\n    function calcMaxWithdraw() external view returns (uint) {\n        uint spent = spentToday;\n        // solium-disable-next-line security/no-block-members\n        if (now > lastDay + 24 hours)\n            spent = 0;\n        return allowTokens.calcMaxWithdraw(spent);\n    }\n\n  function changeFederation(address newFederation) external onlyOwner returns(bool) {\n        _changeFederation(newFederation);\n        return true;\n    }\n\n    function _changeFederation(address newFederation) internal {\n        require(newFederation != NULL_ADDRESS, \"Bridge: Federation is empty\");\n        federation = newFederation;\n        emit FederationChanged(federation);\n    }\n\n    function getFederation() external view returns(address) {\n        return federation;\n    }\n\n    function changeSideTokenFactory(address newSideTokenFactory) external onlyOwner returns(bool) {\n        _changeSideTokenFactory(newSideTokenFactory);\n        return true;\n    }\n\n    function _changeSideTokenFactory(address newSideTokenFactory) internal {\n        require(newSideTokenFactory != NULL_ADDRESS, \"Bridge: SideTokenFactory is empty\");\n        sideTokenFactory = ISideTokenFactory(newSideTokenFactory);\n        emit SideTokenFactoryChanged(newSideTokenFactory);\n    }\n\n    function startUpgrade() external onlyOwner {\n        isUpgrading = true;\n        emit Upgrading(isUpgrading);\n    }\n\n    function endUpgrade() external onlyOwner {\n        isUpgrading = false;\n        emit Upgrading(isUpgrading);\n    }\n\n//// Bridge v3 upgrade functions\n    function receiveEthAt(address _receiver, bytes calldata _extraData) external payable {\n        require(msg.value > 0  && !(Address.isContract(msg.sender)) && (WETHAddr != address(0)), \"Set WETHAddr. Send not from SC\");\n        if (!ethFirstTransfer) {\n            ethFirstTransfer = true;\n        }\n        crossTokens(WETHAddr, _receiver, msg.value, _extraData);\n    }\n    //     if(aggregatorAddr != address(0)){\n    //         crossTokens(WETHAddr, aggregatorAddr, msg.value, abi.encodePacked(msg.sender));\n    //     }\n    //     else {\n    //         bytes memory _userData = \"\";        \n    //         crossTokens(WETHAddr, msg.sender, msg.value, _userData);\n    //     }\n    // }\n    // function setAggregatorAddr(address _aggregatorAddr) external onlyOwner {\n    //     aggregatorAddr = _aggregatorAddr;\n    // }\n\n    function setWETHAddress(address _WETHAddr) external onlyOwner {\n        require(_WETHAddr != address(0) && !ethFirstTransfer , \"No set WETHAddr AF 1st transfer\");\n        //require(!ethFirstTransfer, \"cannot change WETHAddr after first transfer\");\n        WETHAddr = _WETHAddr;\n    }\n\n    function changeAllowTokens(address newAllowTokens) external onlyOwner returns(bool) {\n        _changeAllowTokens(newAllowTokens);\n        return true;\n    }\n\n    function _changeAllowTokens(address newAllowTokens) internal {\n        require(newAllowTokens != NULL_ADDRESS, \"Bridge: newAllowTokens is empty\");\n        allowTokens = IAllowTokens(newAllowTokens);\n        //emit AllowTokenChanged(newAllowTokens);\n    }\n    function initialSymbolPrefixSetup(bool _isSuffix, string calldata _prefix) external onlyOwner{\n        require(!initialPrefixSetup, \"Bridge: initialPrefixSetup Done\");\n        isSuffix = _isSuffix;\n        symbolPrefix = _prefix;\n        //emit PrefixUpdated(isSuffix, _prefix);\n    }\n\n    function withdrawAllEthFees(address payable _to) public payable onlyOwner {\n        require(address(this).balance >= ethFeeCollected);\n        ethFeeCollected = 0;\n        _to.transfer(ethFeeCollected);\n    }\n\n    function setNativeTokenSymbol(string calldata _nativeTokenSymbol) external onlyOwner {\n        nativeTokenSymbol = _nativeTokenSymbol;\n    }\n\n    function getNativeTokenSymbol() external view returns(string memory) {\n        return nativeTokenSymbol;\n    }\n\n    // Commented because it is unused for us and need decrease contract size\n    //This method is only to recreate the USDT and USDC tokens on rsk without granularity restrictions.\n//    function clearSideToken() external onlyOwner returns(bool) {\n//        require(!alreadyRun, \"already done\");\n//        alreadyRun = true;\n//        address payable[4] memory sideTokens = [\n//            0xe506F698b31a66049BD4653ed934E7a07Cbc5549,\n//            0x5a42221D7AaE8e185BC0054Bb036D9757eC18857,\n//            0xcdc8ccBbFB6407c53118fE47259e8d00C81F42CD,\n//            0x6117C9529F15c52e2d3188d5285C745B757b5825\n//        ];\n//        for (uint i = 0; i < sideTokens.length; i++) {\n//            address originalToken = address(originalTokens[sideTokens[i]]);\n//            originalTokens[sideTokens[i]] = NULL_ADDRESS;\n//            mappedTokens[originalToken] = ISideToken(NULL_ADDRESS);\n//        }\n//        return true;\n//    }\n\n}\n",
  "sourcePath": "/Users/pooh/sovryn/deploy_bridge/MAIN-ETH-RSK/Bridge-SC/sovryn-token-bridge/bridge/contracts/Bridge.sol",
  "compiler": {
    "name": "solc",
    "version": "0.5.17+commit.d19bba13.Emscripten.clang"
  },
  "schemaVersion": "3.3.4",
  "updatedAt": "2021-05-22T15:53:28.407Z",
  "networkType": "ethereum",
  "devdoc": {
    "methods": {
      "initialize(address)": {
        "details": "Initializes the contract setting the deployer as the initial owner."
      },
      "isOwner()": {
        "details": "Returns true if the caller is the current owner."
      },
      "owner()": {
        "details": "Returns the address of the current owner."
      },
      "pause()": {
        "details": "Called by a pauser to pause, triggers stopped state."
      },
      "paused()": {
        "details": "Returns true if the contract is paused, and false otherwise."
      },
      "renounceOwnership()": {
        "details": "Leaves the contract without owner. It will not be possible to call `onlyOwner` functions anymore. Can only be called by the current owner.     * > Note: Renouncing ownership will leave the contract without an owner, thereby removing any functionality that is only available to the owner."
      },
      "transferOwnership(address)": {
        "details": "Transfers ownership of the contract to a new account (`newOwner`). Can only be called by the current owner."
      },
      "unpause()": {
        "details": "Called by a pauser to unpause, returns to normal state."
      }
    }
  },
  "userdoc": {
    "methods": {
      "receiveEthAt(address,bytes)": {
        "notice": "/ Bridge v3 upgrade functions"
      },
      "receiveTokens(address,uint256)": {
        "notice": "ERC-20 tokens approve and transferFrom pattern See https://eips.ethereum.org/EIPS/eip-20#transferfrom"
      },
      "receiveTokensAt(address,uint256,address,bytes)": {
        "notice": "ERC-20 tokens approve and transferFrom pattern See https://eips.ethereum.org/EIPS/eip-20#transferfrom"
      },
      "tokensReceived(address,address,address,uint256,bytes,bytes)": {
        "notice": "ERC-777 tokensReceived hook allows to send tokens to a contract and notify it in a single transaction See https://eips.ethereum.org/EIPS/eip-777#motivation for details"
      }
    }
  }
}