{
  "contractName": "Bridge_v1",
  "abi": [
    {
      "anonymous": false,
      "inputs": [
        {
          "indexed": true,
          "internalType": "address",
          "name": "_tokenAddress",
          "type": "address"
        },
        {
          "indexed": true,
          "internalType": "address",
          "name": "_to",
          "type": "address"
        },
        {
          "indexed": false,
          "internalType": "uint256",
          "name": "_amount",
          "type": "uint256"
        },
        {
          "indexed": false,
          "internalType": "uint8",
          "name": "_decimals",
          "type": "uint8"
        },
        {
          "indexed": false,
          "internalType": "uint256",
          "name": "_granularity",
          "type": "uint256"
        },
        {
          "indexed": false,
          "internalType": "uint256",
          "name": "_formattedAmount",
          "type": "uint256"
        },
        {
          "indexed": false,
          "internalType": "uint8",
          "name": "_calculatedDecimals",
          "type": "uint8"
        },
        {
          "indexed": false,
          "internalType": "uint256",
          "name": "_calculatedGranularity",
          "type": "uint256"
        }
      ],
      "name": "AcceptedCrossTransfer",
      "type": "event"
    },
    {
      "anonymous": false,
      "inputs": [
        {
          "indexed": true,
          "internalType": "address",
          "name": "_tokenAddress",
          "type": "address"
        },
        {
          "indexed": true,
          "internalType": "address",
          "name": "_to",
          "type": "address"
        },
        {
          "indexed": false,
          "internalType": "uint256",
          "name": "_amount",
          "type": "uint256"
        },
        {
          "indexed": false,
          "internalType": "string",
          "name": "_symbol",
          "type": "string"
        },
        {
          "indexed": false,
          "internalType": "bytes",
          "name": "_userData",
          "type": "bytes"
        },
        {
          "indexed": false,
          "internalType": "uint8",
          "name": "_decimals",
          "type": "uint8"
        },
        {
          "indexed": false,
          "internalType": "uint256",
          "name": "_granularity",
          "type": "uint256"
        }
      ],
      "name": "Cross",
      "type": "event"
    },
    {
      "anonymous": false,
      "inputs": [
        {
          "indexed": false,
          "internalType": "address",
          "name": "_newFederation",
          "type": "address"
        }
      ],
      "name": "FederationChanged",
      "type": "event"
    },
    {
      "anonymous": false,
      "inputs": [
        {
          "indexed": false,
          "internalType": "uint256",
          "name": "_amount",
          "type": "uint256"
        }
      ],
      "name": "FeePercentageChanged",
      "type": "event"
    },
    {
      "anonymous": false,
      "inputs": [
        {
          "indexed": true,
          "internalType": "address",
          "name": "_newSideTokenAddress",
          "type": "address"
        },
        {
          "indexed": true,
          "internalType": "address",
          "name": "_originalTokenAddress",
          "type": "address"
        },
        {
          "indexed": false,
          "internalType": "string",
          "name": "_newSymbol",
          "type": "string"
        },
        {
          "indexed": false,
          "internalType": "uint256",
          "name": "_granularity",
          "type": "uint256"
        }
      ],
      "name": "NewSideToken",
      "type": "event"
    },
    {
      "anonymous": false,
      "inputs": [
        {
          "indexed": true,
          "internalType": "address",
          "name": "previousOwner",
          "type": "address"
        },
        {
          "indexed": true,
          "internalType": "address",
          "name": "newOwner",
          "type": "address"
        }
      ],
      "name": "OwnershipTransferred",
      "type": "event"
    },
    {
      "anonymous": false,
      "inputs": [
        {
          "indexed": false,
          "internalType": "address",
          "name": "account",
          "type": "address"
        }
      ],
      "name": "Paused",
      "type": "event"
    },
    {
      "anonymous": false,
      "inputs": [
        {
          "indexed": true,
          "internalType": "address",
          "name": "account",
          "type": "address"
        }
      ],
      "name": "PauserAdded",
      "type": "event"
    },
    {
      "anonymous": false,
      "inputs": [
        {
          "indexed": true,
          "internalType": "address",
          "name": "account",
          "type": "address"
        }
      ],
      "name": "PauserRemoved",
      "type": "event"
    },
    {
      "anonymous": false,
      "inputs": [
        {
          "indexed": false,
          "internalType": "address",
          "name": "_newSideTokenFactory",
          "type": "address"
        }
      ],
      "name": "SideTokenFactoryChanged",
      "type": "event"
    },
    {
      "anonymous": false,
      "inputs": [
        {
          "indexed": false,
          "internalType": "address",
          "name": "account",
          "type": "address"
        }
      ],
      "name": "Unpaused",
      "type": "event"
    },
    {
      "anonymous": false,
      "inputs": [
        {
          "indexed": false,
          "internalType": "bool",
          "name": "isUpgrading",
          "type": "bool"
        }
      ],
      "name": "Upgrading",
      "type": "event"
    },
    {
      "constant": false,
      "inputs": [
        {
          "internalType": "address",
          "name": "account",
          "type": "address"
        }
      ],
      "name": "addPauser",
      "outputs": [],
      "payable": false,
      "stateMutability": "nonpayable",
      "type": "function"
    },
    {
      "constant": true,
      "inputs": [],
      "name": "allowTokens",
      "outputs": [
        {
          "internalType": "contract AllowTokens",
          "name": "",
          "type": "address"
        }
      ],
      "payable": false,
      "stateMutability": "view",
      "type": "function"
    },
    {
      "constant": true,
      "inputs": [],
      "name": "feePercentageDivider",
      "outputs": [
        {
          "internalType": "uint256",
          "name": "",
          "type": "uint256"
        }
      ],
      "payable": false,
      "stateMutability": "view",
      "type": "function"
    },
    {
      "constant": true,
      "inputs": [],
      "name": "isOwner",
      "outputs": [
        {
          "internalType": "bool",
          "name": "",
          "type": "bool"
        }
      ],
      "payable": false,
      "stateMutability": "view",
      "type": "function"
    },
    {
      "constant": true,
      "inputs": [
        {
          "internalType": "address",
          "name": "account",
          "type": "address"
        }
      ],
      "name": "isPauser",
      "outputs": [
        {
          "internalType": "bool",
          "name": "",
          "type": "bool"
        }
      ],
      "payable": false,
      "stateMutability": "view",
      "type": "function"
    },
    {
      "constant": true,
      "inputs": [],
      "name": "isUpgrading",
      "outputs": [
        {
          "internalType": "bool",
          "name": "",
          "type": "bool"
        }
      ],
      "payable": false,
      "stateMutability": "view",
      "type": "function"
    },
    {
      "constant": true,
      "inputs": [
        {
          "internalType": "address",
          "name": "",
          "type": "address"
        }
      ],
      "name": "knownTokens",
      "outputs": [
        {
          "internalType": "bool",
          "name": "",
          "type": "bool"
        }
      ],
      "payable": false,
      "stateMutability": "view",
      "type": "function"
    },
    {
      "constant": true,
      "inputs": [],
      "name": "lastDay",
      "outputs": [
        {
          "internalType": "uint256",
          "name": "",
          "type": "uint256"
        }
      ],
      "payable": false,
      "stateMutability": "view",
      "type": "function"
    },
    {
      "constant": true,
      "inputs": [
        {
          "internalType": "address",
          "name": "",
          "type": "address"
        }
      ],
      "name": "mappedTokens",
      "outputs": [
        {
          "internalType": "contract ISideToken",
          "name": "",
          "type": "address"
        }
      ],
      "payable": false,
      "stateMutability": "view",
      "type": "function"
    },
    {
      "constant": true,
      "inputs": [
        {
          "internalType": "address",
          "name": "",
          "type": "address"
        }
      ],
      "name": "originalTokens",
      "outputs": [
        {
          "internalType": "address",
          "name": "",
          "type": "address"
        }
      ],
      "payable": false,
      "stateMutability": "view",
      "type": "function"
    },
    {
      "constant": true,
      "inputs": [],
      "name": "owner",
      "outputs": [
        {
          "internalType": "address",
          "name": "",
          "type": "address"
        }
      ],
      "payable": false,
      "stateMutability": "view",
      "type": "function"
    },
    {
      "constant": false,
      "inputs": [],
      "name": "pause",
      "outputs": [],
      "payable": false,
      "stateMutability": "nonpayable",
      "type": "function"
    },
    {
      "constant": true,
      "inputs": [],
      "name": "paused",
      "outputs": [
        {
          "internalType": "bool",
          "name": "",
          "type": "bool"
        }
      ],
      "payable": false,
      "stateMutability": "view",
      "type": "function"
    },
    {
      "constant": true,
      "inputs": [
        {
          "internalType": "bytes32",
          "name": "",
          "type": "bytes32"
        }
      ],
      "name": "processed",
      "outputs": [
        {
          "internalType": "bool",
          "name": "",
          "type": "bool"
        }
      ],
      "payable": false,
      "stateMutability": "view",
      "type": "function"
    },
    {
      "constant": false,
      "inputs": [],
      "name": "renounceOwnership",
      "outputs": [],
      "payable": false,
      "stateMutability": "nonpayable",
      "type": "function"
    },
    {
      "constant": false,
      "inputs": [],
      "name": "renouncePauser",
      "outputs": [],
      "payable": false,
      "stateMutability": "nonpayable",
      "type": "function"
    },
    {
      "constant": true,
      "inputs": [],
      "name": "sideTokenFactory",
      "outputs": [
        {
          "internalType": "contract ISideTokenFactory",
          "name": "",
          "type": "address"
        }
      ],
      "payable": false,
      "stateMutability": "view",
      "type": "function"
    },
    {
      "constant": true,
      "inputs": [],
      "name": "spentToday",
      "outputs": [
        {
          "internalType": "uint256",
          "name": "",
          "type": "uint256"
        }
      ],
      "payable": false,
      "stateMutability": "view",
      "type": "function"
    },
    {
      "constant": true,
      "inputs": [],
      "name": "symbolPrefix",
      "outputs": [
        {
          "internalType": "string",
          "name": "",
          "type": "string"
        }
      ],
      "payable": false,
      "stateMutability": "view",
      "type": "function"
    },
    {
      "constant": false,
      "inputs": [
        {
          "internalType": "address",
          "name": "newOwner",
          "type": "address"
        }
      ],
      "name": "transferOwnership",
      "outputs": [],
      "payable": false,
      "stateMutability": "nonpayable",
      "type": "function"
    },
    {
      "constant": false,
      "inputs": [],
      "name": "unpause",
      "outputs": [],
      "payable": false,
      "stateMutability": "nonpayable",
      "type": "function"
    },
    {
      "constant": false,
      "inputs": [
        {
          "internalType": "address",
          "name": "sender",
          "type": "address"
        }
      ],
      "name": "initialize",
      "outputs": [],
      "payable": false,
      "stateMutability": "nonpayable",
      "type": "function"
    },
    {
      "constant": false,
      "inputs": [],
      "name": "initialize",
      "outputs": [],
      "payable": false,
      "stateMutability": "nonpayable",
      "type": "function"
    },
    {
      "constant": false,
      "inputs": [
        {
          "internalType": "address",
          "name": "_manager",
          "type": "address"
        },
        {
          "internalType": "address",
          "name": "_federation",
          "type": "address"
        },
        {
          "internalType": "address",
          "name": "_allowTokens",
          "type": "address"
        },
        {
          "internalType": "address",
          "name": "_sideTokenFactory",
          "type": "address"
        },
        {
          "internalType": "string",
          "name": "_symbolPrefix",
          "type": "string"
        }
      ],
      "name": "initialize",
      "outputs": [],
      "payable": false,
      "stateMutability": "nonpayable",
      "type": "function"
    },
    {
      "constant": true,
      "inputs": [],
      "name": "version",
      "outputs": [
        {
          "internalType": "string",
          "name": "",
          "type": "string"
        }
      ],
      "payable": false,
      "stateMutability": "pure",
      "type": "function"
    },
    {
      "constant": false,
      "inputs": [
        {
          "internalType": "address",
          "name": "tokenAddress",
          "type": "address"
        },
        {
          "internalType": "address",
          "name": "receiver",
          "type": "address"
        },
        {
          "internalType": "uint256",
          "name": "amount",
          "type": "uint256"
        },
        {
          "internalType": "string",
          "name": "symbol",
          "type": "string"
        },
        {
          "internalType": "bytes32",
          "name": "blockHash",
          "type": "bytes32"
        },
        {
          "internalType": "bytes32",
          "name": "transactionHash",
          "type": "bytes32"
        },
        {
          "internalType": "uint32",
          "name": "logIndex",
          "type": "uint32"
        },
        {
          "internalType": "uint8",
          "name": "decimals",
          "type": "uint8"
        },
        {
          "internalType": "uint256",
          "name": "granularity",
          "type": "uint256"
        }
      ],
      "name": "acceptTransfer",
      "outputs": [
        {
          "internalType": "bool",
          "name": "",
          "type": "bool"
        }
      ],
      "payable": false,
      "stateMutability": "nonpayable",
      "type": "function"
    },
    {
      "constant": false,
      "inputs": [
        {
          "internalType": "address",
          "name": "tokenToUse",
          "type": "address"
        },
        {
          "internalType": "uint256",
          "name": "amount",
          "type": "uint256"
        }
      ],
      "name": "receiveTokens",
      "outputs": [
        {
          "internalType": "bool",
          "name": "",
          "type": "bool"
        }
      ],
      "payable": false,
      "stateMutability": "nonpayable",
      "type": "function"
    },
    {
      "constant": false,
      "inputs": [
        {
          "internalType": "address",
          "name": "operator",
          "type": "address"
        },
        {
          "internalType": "address",
          "name": "from",
          "type": "address"
        },
        {
          "internalType": "address",
          "name": "to",
          "type": "address"
        },
        {
          "internalType": "uint256",
          "name": "amount",
          "type": "uint256"
        },
        {
          "internalType": "bytes",
          "name": "userData",
          "type": "bytes"
        },
        {
          "internalType": "bytes",
          "name": "",
          "type": "bytes"
        }
      ],
      "name": "tokensReceived",
      "outputs": [],
      "payable": false,
      "stateMutability": "nonpayable",
      "type": "function"
    },
    {
      "constant": true,
      "inputs": [
        {
          "internalType": "bytes32",
          "name": "_blockHash",
          "type": "bytes32"
        },
        {
          "internalType": "bytes32",
          "name": "_transactionHash",
          "type": "bytes32"
        },
        {
          "internalType": "address",
          "name": "_receiver",
          "type": "address"
        },
        {
          "internalType": "uint256",
          "name": "_amount",
          "type": "uint256"
        },
        {
          "internalType": "uint32",
          "name": "_logIndex",
          "type": "uint32"
        }
      ],
      "name": "getTransactionId",
      "outputs": [
        {
          "internalType": "bytes32",
          "name": "",
          "type": "bytes32"
        }
      ],
      "payable": false,
      "stateMutability": "pure",
      "type": "function"
    },
    {
      "constant": false,
      "inputs": [
        {
          "internalType": "uint256",
          "name": "amount",
          "type": "uint256"
        }
      ],
      "name": "setFeePercentage",
      "outputs": [],
      "payable": false,
      "stateMutability": "nonpayable",
      "type": "function"
    },
    {
      "constant": true,
      "inputs": [],
      "name": "getFeePercentage",
      "outputs": [
        {
          "internalType": "uint256",
          "name": "",
          "type": "uint256"
        }
      ],
      "payable": false,
      "stateMutability": "view",
      "type": "function"
    },
    {
      "constant": true,
      "inputs": [],
      "name": "calcMaxWithdraw",
      "outputs": [
        {
          "internalType": "uint256",
          "name": "",
          "type": "uint256"
        }
      ],
      "payable": false,
      "stateMutability": "view",
      "type": "function"
    },
    {
      "constant": false,
      "inputs": [
        {
          "internalType": "address",
          "name": "newFederation",
          "type": "address"
        }
      ],
      "name": "changeFederation",
      "outputs": [
        {
          "internalType": "bool",
          "name": "",
          "type": "bool"
        }
      ],
      "payable": false,
      "stateMutability": "nonpayable",
      "type": "function"
    },
    {
      "constant": true,
      "inputs": [],
      "name": "getFederation",
      "outputs": [
        {
          "internalType": "address",
          "name": "",
          "type": "address"
        }
      ],
      "payable": false,
      "stateMutability": "view",
      "type": "function"
    },
    {
      "constant": false,
      "inputs": [
        {
          "internalType": "address",
          "name": "newSideTokenFactory",
          "type": "address"
        }
      ],
      "name": "changeSideTokenFactory",
      "outputs": [
        {
          "internalType": "bool",
          "name": "",
          "type": "bool"
        }
      ],
      "payable": false,
      "stateMutability": "nonpayable",
      "type": "function"
    },
    {
      "constant": false,
      "inputs": [],
      "name": "startUpgrade",
      "outputs": [],
      "payable": false,
      "stateMutability": "nonpayable",
      "type": "function"
    },
    {
      "constant": false,
      "inputs": [],
      "name": "endUpgrade",
      "outputs": [],
      "payable": false,
      "stateMutability": "nonpayable",
      "type": "function"
    },
    {
      "constant": false,
      "inputs": [],
      "name": "clearSideToken",
      "outputs": [
        {
          "internalType": "bool",
          "name": "",
          "type": "bool"
        }
      ],
      "payable": false,
      "stateMutability": "nonpayable",
      "type": "function"
    }
  ],
  "bytecode": "0x6080604052615c4f806100136000396000f3fe608060405234801561001057600080fd5b50600436106102315760003560e01c80638129fc1c11610130578063c1f0808a116100b8578063ea2170911161007c578063ea21709114610c6a578063f059cf2b14610cb4578063f2fde38b14610cd2578063f74032f014610d16578063fa0caa1614610d9a57610231565b8063c1f0808a14610ab8578063c4d66de814610afe578063e6ede14d14610b42578063e6fc774414610bc6578063e8340a9914610be457610231565b80638f32d59b116100ff5780638f32d59b146109b2578063a53d6e6e146109d4578063ae06c1b714610a1e578063b794726214610a4c578063b86f60d214610a6e57610231565b80638129fc1c1461091057806382dc1ec41461091a5780638456cb591461095e5780638da5cb5b1461096857610231565b806342cdb2c6116101be5780635c975abb116101825780635c975abb146108605780635d447129146108825780636b0c932d146108de5780636ef8d66d146108fc578063715018a61461090657610231565b806342cdb2c61461068457806346fbf68e146106e05780634bc9fdc21461073c57806354fd4d501461075a57806359a8a867146107dd57610231565b80632239c48a116102055780632239c48a146104c5578063257e1f8f146104cf5780632fb3b361146104d957806335729130146106145780633f4ba83a1461067a57610231565b806223de2914610236578063034edfa31461036e5780630e6ec7791461039057806311efbf61146104a7575b600080fd5b61036c600480360360c081101561024c57600080fd5b81019080803573ffffffffffffffffffffffffffffffffffffffff169060200190929190803573ffffffffffffffffffffffffffffffffffffffff169060200190929190803573ffffffffffffffffffffffffffffffffffffffff16906020019092919080359060200190929190803590602001906401000000008111156102d357600080fd5b8201836020820111156102e557600080fd5b8035906020019184600183028401116401000000008311171561030757600080fd5b90919293919293908035906020019064010000000081111561032857600080fd5b82018360208201111561033a57600080fd5b8035906020019184600183028401116401000000008311171561035c57600080fd5b9091929391929390505050610df6565b005b61037661103e565b604051808215151515815260200191505060405180910390f35b61048d60048036036101208110156103a757600080fd5b81019080803573ffffffffffffffffffffffffffffffffffffffff169060200190929190803573ffffffffffffffffffffffffffffffffffffffff169060200190929190803590602001909291908035906020019064010000000081111561040e57600080fd5b82018360208201111561042057600080fd5b8035906020019184600183028401116401000000008311171561044257600080fd5b90919293919293908035906020019092919080359060200190929190803563ffffffff169060200190929190803560ff1690602001909291908035906020019092919050505061142b565b604051808215151515815260200191505060405180910390f35b6104af611b60565b6040518082815260200191505060405180910390f35b6104cd611b6a565b005b6104d7611c4b565b005b610612600480360360a08110156104ef57600080fd5b81019080803573ffffffffffffffffffffffffffffffffffffffff169060200190929190803573ffffffffffffffffffffffffffffffffffffffff169060200190929190803573ffffffffffffffffffffffffffffffffffffffff169060200190929190803573ffffffffffffffffffffffffffffffffffffffff1690602001909291908035906020019064010000000081111561058c57600080fd5b82018360208201111561059e57600080fd5b803590602001918460018302840111640100000000831117156105c057600080fd5b91908080601f016020809104026020016040519081016040528093929190818152602001838380828437600081840152601f19601f820116905080830192505050505050509192919290505050611d2c565b005b6106606004803603604081101561062a57600080fd5b81019080803573ffffffffffffffffffffffffffffffffffffffff16906020019092919080359060200190929190505050611fb6565b604051808215151515815260200191505060405180910390f35b61068261220c565b005b6106c66004803603602081101561069a57600080fd5b81019080803573ffffffffffffffffffffffffffffffffffffffff16906020019092919050505061237a565b604051808215151515815260200191505060405180910390f35b610722600480360360208110156106f657600080fd5b81019080803573ffffffffffffffffffffffffffffffffffffffff169060200190929190505050612408565b604051808215151515815260200191505060405180910390f35b610744612425565b6040518082815260200191505060405180910390f35b6107626124f5565b6040518080602001828103825283818151815260200191508051906020019080838360005b838110156107a2578082015181840152602081019050610787565b50505050905090810190601f1680156107cf5780820380516001836020036101000a031916815260200191505b509250505060405180910390f35b6107e5612532565b6040518080602001828103825283818151815260200191508051906020019080838360005b8381101561082557808201518184015260208101905061080a565b50505050905090810190601f1680156108525780820380516001836020036101000a031916815260200191505b509250505060405180910390f35b6108686125d0565b604051808215151515815260200191505060405180910390f35b6108c46004803603602081101561089857600080fd5b81019080803573ffffffffffffffffffffffffffffffffffffffff1690602001909291905050506125e7565b604051808215151515815260200191505060405180910390f35b6108e6612607565b6040518082815260200191505060405180910390f35b61090461260d565b005b61090e61261f565b005b61091861275a565b005b61095c6004803603602081101561093057600080fd5b81019080803573ffffffffffffffffffffffffffffffffffffffff169060200190929190505050612861565b005b6109666128d2565b005b610970612a41565b604051808273ffffffffffffffffffffffffffffffffffffffff1673ffffffffffffffffffffffffffffffffffffffff16815260200191505060405180910390f35b6109ba612a6b565b604051808215151515815260200191505060405180910390f35b6109dc612aca565b604051808273ffffffffffffffffffffffffffffffffffffffff1673ffffffffffffffffffffffffffffffffffffffff16815260200191505060405180910390f35b610a4a60048036036020811015610a3457600080fd5b8101908080359060200190929190505050612af0565b005b610a54612cb1565b604051808215151515815260200191505060405180910390f35b610a76612cc4565b604051808273ffffffffffffffffffffffffffffffffffffffff1673ffffffffffffffffffffffffffffffffffffffff16815260200191505060405180910390f35b610ae460048036036020811015610ace57600080fd5b8101908080359060200190929190505050612cea565b604051808215151515815260200191505060405180910390f35b610b4060048036036020811015610b1457600080fd5b81019080803573ffffffffffffffffffffffffffffffffffffffff169060200190929190505050612d0a565b005b610b8460048036036020811015610b5857600080fd5b81019080803573ffffffffffffffffffffffffffffffffffffffff169060200190929190505050612ec8565b604051808273ffffffffffffffffffffffffffffffffffffffff1673ffffffffffffffffffffffffffffffffffffffff16815260200191505060405180910390f35b610bce612efb565b6040518082815260200191505060405180910390f35b610c54600480360360a0811015610bfa57600080fd5b810190808035906020019092919080359060200190929190803573ffffffffffffffffffffffffffffffffffffffff16906020019092919080359060200190929190803563ffffffff169060200190929190505050612f01565b6040518082815260200191505060405180910390f35b610c72612f93565b604051808273ffffffffffffffffffffffffffffffffffffffff1673ffffffffffffffffffffffffffffffffffffffff16815260200191505060405180910390f35b610cbc612fbd565b6040518082815260200191505060405180910390f35b610d1460048036036020811015610ce857600080fd5b81019080803573ffffffffffffffffffffffffffffffffffffffff169060200190929190505050612fc3565b005b610d5860048036036020811015610d2c57600080fd5b81019080803573ffffffffffffffffffffffffffffffffffffffff169060200190929190505050613049565b604051808273ffffffffffffffffffffffffffffffffffffffff1673ffffffffffffffffffffffffffffffffffffffff16815260200191505060405180910390f35b610ddc60048036036020811015610db057600080fd5b81019080803573ffffffffffffffffffffffffffffffffffffffff16906020019092919050505061307c565b604051808215151515815260200191505060405180910390f35b603460009054906101000a900460ff1615610e79576040517f08c379a00000000000000000000000000000000000000000000000000000000081526004018080602001828103825260108152602001807f5061757361626c653a207061757365640000000000000000000000000000000081525060200191505060405180910390fd5b604060149054906101000a900460ff1615610efc576040517f08c379a00000000000000000000000000000000000000000000000000000000081526004018080602001828103825260118152602001807f4272696467653a20557067726164696e6700000000000000000000000000000081525060200191505060405180910390fd5b3073ffffffffffffffffffffffffffffffffffffffff168873ffffffffffffffffffffffffffffffffffffffff161415610f3557611034565b3073ffffffffffffffffffffffffffffffffffffffff168673ffffffffffffffffffffffffffffffffffffffff1614610fd6576040517f08c379a00000000000000000000000000000000000000000000000000000000081526004018080602001828103825260168152602001807f4272696467653a204e6f7420746f20616464726573730000000000000000000081525060200191505060405180910390fd5b6000610fe061310a565b905061103281898888888080601f016020809104026020016040519081016040528093929190818152602001838380828437600081840152601f19601f82011690508083019250505050505050613112565b505b5050505050505050565b6000611048612a6b565b6110ba576040517f08c379a00000000000000000000000000000000000000000000000000000000081526004018080602001828103825260208152602001807f4f776e61626c653a2063616c6c6572206973206e6f7420746865206f776e657281525060200191505060405180910390fd5b604060159054906101000a900460ff161561113d576040517f08c379a000000000000000000000000000000000000000000000000000000000815260040180806020018281038252600c8152602001807f616c726561647920646f6e65000000000000000000000000000000000000000081525060200191505060405180910390fd5b6001604060156101000a81548160ff0219169083151502179055506111606159bf565b604051806080016040528073e506f698b31a66049bd4653ed934e7a07cbc554973ffffffffffffffffffffffffffffffffffffffff1673ffffffffffffffffffffffffffffffffffffffff168152602001735a42221d7aae8e185bc0054bb036d9757ec1885773ffffffffffffffffffffffffffffffffffffffff1673ffffffffffffffffffffffffffffffffffffffff16815260200173cdc8ccbbfb6407c53118fe47259e8d00c81f42cd73ffffffffffffffffffffffffffffffffffffffff1673ffffffffffffffffffffffffffffffffffffffff168152602001736117c9529f15c52e2d3188d5285c745b757b582573ffffffffffffffffffffffffffffffffffffffff1673ffffffffffffffffffffffffffffffffffffffff16815250905060008090505b6004811015611422576000603c60008484600481106112a457fe5b602002015173ffffffffffffffffffffffffffffffffffffffff1673ffffffffffffffffffffffffffffffffffffffff16815260200190815260200160002060009054906101000a900473ffffffffffffffffffffffffffffffffffffffff1690506000603c600085856004811061131857fe5b602002015173ffffffffffffffffffffffffffffffffffffffff1673ffffffffffffffffffffffffffffffffffffffff16815260200190815260200160002060006101000a81548173ffffffffffffffffffffffffffffffffffffffff021916908373ffffffffffffffffffffffffffffffffffffffff1602179055506000603b60008373ffffffffffffffffffffffffffffffffffffffff1673ffffffffffffffffffffffffffffffffffffffff16815260200190815260200160002060006101000a81548173ffffffffffffffffffffffffffffffffffffffff021916908373ffffffffffffffffffffffffffffffffffffffff160217905550508080600101915050611289565b50600191505090565b6000603660009054906101000a900473ffffffffffffffffffffffffffffffffffffffff1673ffffffffffffffffffffffffffffffffffffffff163373ffffffffffffffffffffffffffffffffffffffff16146114f0576040517f08c379a000000000000000000000000000000000000000000000000000000000815260040180806020018281038252601d8152602001807f4272696467653a2053656e646572206e6f742046656465726174696f6e00000081525060200191505060405180910390fd5b603460009054906101000a900460ff1615611573576040517f08c379a00000000000000000000000000000000000000000000000000000000081526004018080602001828103825260108152602001807f5061757361626c653a207061757365640000000000000000000000000000000081525060200191505060405180910390fd5b600160356000828254019250508190555060006035549050600073ffffffffffffffffffffffffffffffffffffffff168c73ffffffffffffffffffffffffffffffffffffffff16141561162e576040517f08c379a00000000000000000000000000000000000000000000000000000000081526004018080602001828103825260158152602001807f4272696467653a20546f6b656e206973206e756c6c000000000000000000000081525060200191505060405180910390fd5b600073ffffffffffffffffffffffffffffffffffffffff168b73ffffffffffffffffffffffffffffffffffffffff1614156116d1576040517f08c379a00000000000000000000000000000000000000000000000000000000081526004018080602001828103825260188152602001807f4272696467653a205265636569766572206973206e756c6c000000000000000081525060200191505060405180910390fd5b60008a11611747576040517f08c379a00000000000000000000000000000000000000000000000000000000081526004018080602001828103825260108152602001807f4272696467653a20416d6f756e7420300000000000000000000000000000000081525060200191505060405180910390fd5b600089899050116117c0576040517f08c379a00000000000000000000000000000000000000000000000000000000081526004018080602001828103825260148152602001807f4272696467653a20456d7074792073796d626f6c00000000000000000000000081525060200191505060405180910390fd5b6000801b871415611839576040517f08c379a00000000000000000000000000000000000000000000000000000000081526004018080602001828103825260198152602001807f4272696467653a20426c6f636b48617368206973206e756c6c0000000000000081525060200191505060405180910390fd5b6000801b8614156118b2576040517f08c379a000000000000000000000000000000000000000000000000000000000815260040180806020018281038252601b8152602001807f4272696467653a205472616e73616374696f6e206973206e756c6c000000000081525060200191505060405180910390fd5b60128460ff16111561192c576040517f08c379a000000000000000000000000000000000000000000000000000000000815260040180806020018281038252601a8152602001807f4272696467653a20446563696d616c732062696767657220313800000000000081525060200191505060405180910390fd5b601273__Utils_________________________________6319bd2045856040518263ffffffff1660e01b81526004018082815260200191505060206040518083038186803b15801561197d57600080fd5b505af4158015611991573d6000803e3d6000fd5b505050506040513d60208110156119a757600080fd5b810190808051906020019092919050505060ff161115611a2f576040517f08c379a000000000000000000000000000000000000000000000000000000000815260040180806020018281038252601b8152602001807f4272696467653a20696e76616c6964206772616e756c6172697479000000000081525060200191505060405180910390fd5b611a3c87878d8d89613b56565b603d60008d73ffffffffffffffffffffffffffffffffffffffff1673ffffffffffffffffffffffffffffffffffffffff16815260200190815260200160002060009054906101000a900460ff1615611aa057611a9b8b8d86868e613c2f565b611af3565b611af28b8d86868e8e8e8080601f016020809104026020016040519081016040528093929190818152602001838380828437600081840152601f19601f82011690508083019250505050505050613e2f565b5b600191506035548114611b51576040517f08c379a0000000000000000000000000000000000000000000000000000000008152600401808060200182810382526025815260200180615ab16025913960400191505060405180910390fd5b509a9950505050505050505050565b6000603754905090565b611b72612a6b565b611be4576040517f08c379a00000000000000000000000000000000000000000000000000000000081526004018080602001828103825260208152602001807f4f776e61626c653a2063616c6c6572206973206e6f7420746865206f776e657281525060200191505060405180910390fd5b6001604060146101000a81548160ff0219169083151502179055507f983e436223c000a441c2443b394ca5fb4669a513fe86dc1dd44494047b514ad9604060149054906101000a900460ff16604051808215151515815260200191505060405180910390a1565b611c53612a6b565b611cc5576040517f08c379a00000000000000000000000000000000000000000000000000000000081526004018080602001828103825260208152602001807f4f776e61626c653a2063616c6c6572206973206e6f7420746865206f776e657281525060200191505060405180910390fd5b6000604060146101000a81548160ff0219169083151502179055507f983e436223c000a441c2443b394ca5fb4669a513fe86dc1dd44494047b514ad9604060149054906101000a900460ff16604051808215151515815260200191505060405180910390a1565b600060019054906101000a900460ff1680611d4b5750611d4a6141cc565b5b80611d6257506000809054906101000a900460ff16155b611db7576040517f08c379a0000000000000000000000000000000000000000000000000000000008152600401808060200182810382526028815260200180615af86028913960400191505060405180910390fd5b60008060019054906101000a900460ff161590508015611e07576001600060016101000a81548160ff02191690831515021790555060016000806101000a81548160ff0219169083151502179055505b611e1086612d0a565b611e19866141dd565b8160389080519060200190611e2f9291906159e1565b5083603f60006101000a81548173ffffffffffffffffffffffffffffffffffffffff021916908373ffffffffffffffffffffffffffffffffffffffff160217905550611e7a83614301565b611e838561442e565b731820a4b7618bde71dce8cdc73aab6c95905fad2473ffffffffffffffffffffffffffffffffffffffff166329965a1d307fb281fc8c12954d22544db45de3159a39272895b169a852b314f9cc762e44c53b306040518463ffffffff1660e01b8152600401808473ffffffffffffffffffffffffffffffffffffffff1673ffffffffffffffffffffffffffffffffffffffff1681526020018360001b81526020018273ffffffffffffffffffffffffffffffffffffffff1673ffffffffffffffffffffffffffffffffffffffff1681526020019350505050600060405180830381600087803b158015611f7557600080fd5b505af1158015611f89573d6000803e3d6000fd5b505050508015611fae5760008060016101000a81548160ff0219169083151502179055505b505050505050565b6000604060149054906101000a900460ff161561203b576040517f08c379a00000000000000000000000000000000000000000000000000000000081526004018080602001828103825260118152602001807f4272696467653a20557067726164696e6700000000000000000000000000000081525060200191505060405180910390fd5b603460009054906101000a900460ff16156120be576040517f08c379a00000000000000000000000000000000000000000000000000000000081526004018080602001828103825260108152602001807f5061757361626c653a207061757365640000000000000000000000000000000081525060200191505060405180910390fd5b60016035600082825401925050819055506000603554905060006120e061310a565b90506121018173ffffffffffffffffffffffffffffffffffffffff1661459a565b15612157576040517f08c379a0000000000000000000000000000000000000000000000000000000008152600401808060200182810382526022815260200180615ad66022913960400191505060405180910390fd5b61218b61216261310a565b30868873ffffffffffffffffffffffffffffffffffffffff166145e5909392919063ffffffff16565b6121a685828660405180602001604052806000815250613112565b60019250506035548114612205576040517f08c379a0000000000000000000000000000000000000000000000000000000008152600401808060200182810382526025815260200180615ab16025913960400191505060405180910390fd5b5092915050565b61221c61221761310a565b612408565b612271576040517f08c379a0000000000000000000000000000000000000000000000000000000008152600401808060200182810382526028815260200180615b206028913960400191505060405180910390fd5b603460009054906101000a900460ff166122f3576040517f08c379a00000000000000000000000000000000000000000000000000000000081526004018080602001828103825260148152602001807f5061757361626c653a206e6f742070617573656400000000000000000000000081525060200191505060405180910390fd5b6000603460006101000a81548160ff0219169083151502179055507f5db9ee0a495bf2e6ff9c91a7834c1ba4fdd244a5e8aa4e537bd38aeae4b073aa61233761310a565b604051808273ffffffffffffffffffffffffffffffffffffffff1673ffffffffffffffffffffffffffffffffffffffff16815260200191505060405180910390a1565b6000612384612a6b565b6123f6576040517f08c379a00000000000000000000000000000000000000000000000000000000081526004018080602001828103825260208152602001807f4f776e61626c653a2063616c6c6572206973206e6f7420746865206f776e657281525060200191505060405180910390fd5b6123ff82614301565b60019050919050565b600061241e8260336146eb90919063ffffffff16565b9050919050565b600080603a549050620151806039540142111561244157600090505b603f60009054906101000a900473ffffffffffffffffffffffffffffffffffffffff1673ffffffffffffffffffffffffffffffffffffffff1663680dc640826040518263ffffffff1660e01b81526004018082815260200191505060206040518083038186803b1580156124b457600080fd5b505afa1580156124c8573d6000803e3d6000fd5b505050506040513d60208110156124de57600080fd5b810190808051906020019092919050505091505090565b60606040518060400160405280600281526020017f7632000000000000000000000000000000000000000000000000000000000000815250905090565b60388054600181600116156101000203166002900480601f0160208091040260200160405190810160405280929190818152602001828054600181600116156101000203166002900480156125c85780601f1061259d576101008083540402835291602001916125c8565b820191906000526020600020905b8154815290600101906020018083116125ab57829003601f168201915b505050505081565b6000603460009054906101000a900460ff16905090565b603d6020528060005260406000206000915054906101000a900460ff1681565b60395481565b61261d61261861310a565b6147c9565b565b612627612a6b565b612699576040517f08c379a00000000000000000000000000000000000000000000000000000000081526004018080602001828103825260208152602001807f4f776e61626c653a2063616c6c6572206973206e6f7420746865206f776e657281525060200191505060405180910390fd5b600073ffffffffffffffffffffffffffffffffffffffff16603460019054906101000a900473ffffffffffffffffffffffffffffffffffffffff1673ffffffffffffffffffffffffffffffffffffffff167f8be0079c531659141344cd1fd0a4f28419497f9722a3daafe3b4186f6b6457e060405160405180910390a36000603460016101000a81548173ffffffffffffffffffffffffffffffffffffffff021916908373ffffffffffffffffffffffffffffffffffffffff160217905550565b600060019054906101000a900460ff168061277957506127786141cc565b5b8061279057506000809054906101000a900460ff16155b6127e5576040517f08c379a0000000000000000000000000000000000000000000000000000000008152600401808060200182810382526028815260200180615af86028913960400191505060405180910390fd5b60008060019054906101000a900460ff161590508015612835576001600060016101000a81548160ff02191690831515021790555060016000806101000a81548160ff0219169083151502179055505b6001603581905550801561285e5760008060016101000a81548160ff0219169083151502179055505b50565b61287161286c61310a565b612408565b6128c6576040517f08c379a0000000000000000000000000000000000000000000000000000000008152600401808060200182810382526028815260200180615b206028913960400191505060405180910390fd5b6128cf81614823565b50565b6128e26128dd61310a565b612408565b612937576040517f08c379a0000000000000000000000000000000000000000000000000000000008152600401808060200182810382526028815260200180615b206028913960400191505060405180910390fd5b603460009054906101000a900460ff16156129ba576040517f08c379a00000000000000000000000000000000000000000000000000000000081526004018080602001828103825260108152602001807f5061757361626c653a207061757365640000000000000000000000000000000081525060200191505060405180910390fd5b6001603460006101000a81548160ff0219169083151502179055507f62e78cea01bee320cd4e420270b5ea74000d11b0c9f74754ebdbfc544b05a2586129fe61310a565b604051808273ffffffffffffffffffffffffffffffffffffffff1673ffffffffffffffffffffffffffffffffffffffff16815260200191505060405180910390a1565b6000603460019054906101000a900473ffffffffffffffffffffffffffffffffffffffff16905090565b6000603460019054906101000a900473ffffffffffffffffffffffffffffffffffffffff1673ffffffffffffffffffffffffffffffffffffffff16612aae61310a565b73ffffffffffffffffffffffffffffffffffffffff1614905090565b603f60009054906101000a900473ffffffffffffffffffffffffffffffffffffffff1681565b612af8612a6b565b612b6a576040517f08c379a00000000000000000000000000000000000000000000000000000000081526004018080602001828103825260208152602001807f4f776e61626c653a2063616c6c6572206973206e6f7420746865206f776e657281525060200191505060405180910390fd5b603460009054906101000a900460ff1615612bed576040517f08c379a00000000000000000000000000000000000000000000000000000000081526004018080602001828103825260108152602001807f5061757361626c653a207061757365640000000000000000000000000000000081525060200191505060405180910390fd5b600a61271081612bf957fe5b048110612c6e576040517f08c379a00000000000000000000000000000000000000000000000000000000081526004018080602001828103825260178152602001807f4272696467653a20626967676572207468616e2031302500000000000000000081525060200191505060405180910390fd5b806037819055507f97e97c577f03bda90e2c9739011ec065ed5fbfb36ae217d20bb0d9be95e160cd6037546040518082815260200191505060405180910390a150565b604060149054906101000a900460ff1681565b604060009054906101000a900473ffffffffffffffffffffffffffffffffffffffff1681565b603e6020528060005260406000206000915054906101000a900460ff1681565b600060019054906101000a900460ff1680612d295750612d286141cc565b5b80612d4057506000809054906101000a900460ff16155b612d95576040517f08c379a0000000000000000000000000000000000000000000000000000000008152600401808060200182810382526028815260200180615af86028913960400191505060405180910390fd5b60008060019054906101000a900460ff161590508015612de5576001600060016101000a81548160ff02191690831515021790555060016000806101000a81548160ff0219169083151502179055505b81603460016101000a81548173ffffffffffffffffffffffffffffffffffffffff021916908373ffffffffffffffffffffffffffffffffffffffff160217905550603460019054906101000a900473ffffffffffffffffffffffffffffffffffffffff1673ffffffffffffffffffffffffffffffffffffffff16600073ffffffffffffffffffffffffffffffffffffffff167f8be0079c531659141344cd1fd0a4f28419497f9722a3daafe3b4186f6b6457e060405160405180910390a38015612ec45760008060016101000a81548160ff0219169083151502179055505b5050565b603b6020528060005260406000206000915054906101000a900473ffffffffffffffffffffffffffffffffffffffff1681565b61271081565b60008585858585604051602001808681526020018581526020018473ffffffffffffffffffffffffffffffffffffffff1673ffffffffffffffffffffffffffffffffffffffff1660601b81526014018381526020018263ffffffff1663ffffffff1660e01b81526004019550505050505060405160208183030381529060405280519060200120905095945050505050565b6000603660009054906101000a900473ffffffffffffffffffffffffffffffffffffffff16905090565b603a5481565b612fcb612a6b565b61303d576040517f08c379a00000000000000000000000000000000000000000000000000000000081526004018080602001828103825260208152602001807f4f776e61626c653a2063616c6c6572206973206e6f7420746865206f776e657281525060200191505060405180910390fd5b6130468161487d565b50565b603c6020528060005260406000206000915054906101000a900473ffffffffffffffffffffffffffffffffffffffff1681565b6000613086612a6b565b6130f8576040517f08c379a00000000000000000000000000000000000000000000000000000000081526004018080602001828103825260208152602001807f4f776e61626c653a2063616c6c6572206973206e6f7420746865206f776e657281525060200191505060405180910390fd5b6131018261442e565b60019050919050565b600033905090565b60008073ffffffffffffffffffffffffffffffffffffffff16603c60008773ffffffffffffffffffffffffffffffffffffffff1673ffffffffffffffffffffffffffffffffffffffff16815260200190815260200160002060009054906101000a900473ffffffffffffffffffffffffffffffffffffffff1673ffffffffffffffffffffffffffffffffffffffff161415905060006131d06127106131c2603754876149c390919063ffffffff16565b614a4990919063ffffffff16565b905060006131e78286614a9390919063ffffffff16565b905082156132b25760006132848873ffffffffffffffffffffffffffffffffffffffff1663556f0dc76040518163ffffffff1660e01b815260040160206040518083038186803b15801561323a57600080fd5b505afa15801561324e573d6000803e3d6000fd5b505050506040513d602081101561326457600080fd5b810190808051906020019092919050505083614add90919063ffffffff16565b90506132998184614b2790919063ffffffff16565b92506132ae8183614a9390919063ffffffff16565b9150505b60008211156132ee576132ed6132c6612a41565b838973ffffffffffffffffffffffffffffffffffffffff16614baf9092919063ffffffff16565b5b82156137ce576132ff878685614c80565b8673ffffffffffffffffffffffffffffffffffffffff1663fe9d930382866040518363ffffffff1660e01b81526004018083815260200180602001828103825283818151815260200191508051906020019080838360005b83811015613372578082015181840152602081019050613357565b50505050905090810190601f16801561339f5780820380516001836020036101000a031916815260200191505b509350505050600060405180830381600087803b1580156133bf57600080fd5b505af11580156133d3573d6000803e3d6000fd5b505050508573ffffffffffffffffffffffffffffffffffffffff16603c60008973ffffffffffffffffffffffffffffffffffffffff1673ffffffffffffffffffffffffffffffffffffffff16815260200190815260200160002060009054906101000a900473ffffffffffffffffffffffffffffffffffffffff1673ffffffffffffffffffffffffffffffffffffffff167f33409cca56f705a7bbed38b7db57cf3a63317f3c1b9a747bbfb3d3ecffa84f6f838a73ffffffffffffffffffffffffffffffffffffffff166395d89b416040518163ffffffff1660e01b815260040160006040518083038186803b1580156134cc57600080fd5b505afa1580156134e0573d6000803e3d6000fd5b505050506040513d6000823e3d601f19601f82011682018060405250602081101561350a57600080fd5b810190808051604051939291908464010000000082111561352a57600080fd5b8382019150602082018581111561354057600080fd5b825186600182028301116401000000008211171561355d57600080fd5b8083526020830192505050908051906020019080838360005b83811015613591578082015181840152602081019050613576565b50505050905090810190601f1680156135be5780820380516001836020036101000a031916815260200191505b50604052505050888c73ffffffffffffffffffffffffffffffffffffffff1663313ce5676040518163ffffffff1660e01b815260040160206040518083038186803b15801561360c57600080fd5b505afa158015613620573d6000803e3d6000fd5b505050506040513d602081101561363657600080fd5b81019080805190602001909291905050508d73ffffffffffffffffffffffffffffffffffffffff1663556f0dc76040518163ffffffff1660e01b815260040160206040518083038186803b15801561368d57600080fd5b505afa1580156136a1573d6000803e3d6000fd5b505050506040513d60208110156136b757600080fd5b81019080805190602001909291905050506040518086815260200180602001806020018560ff1660ff168152602001848152602001838103835287818151815260200191508051906020019080838360005b83811015613724578082015181840152602081019050613709565b50505050905090810190601f1680156137515780820380516001836020036101000a031916815260200191505b50838103825286818151815260200191508051906020019080838360005b8381101561378a57808201518184015260208101905061376f565b50505050905090810190601f1680156137b75780820380516001836020036101000a031916815260200191505b5097505050505050505060405180910390a3613b4d565b6001603d60008973ffffffffffffffffffffffffffffffffffffffff1673ffffffffffffffffffffffffffffffffffffffff16815260200190815260200160002060006101000a81548160ff021916908315150217905550600080606073__Utils_________________________________631f69565f8b6040518263ffffffff1660e01b8152600401808273ffffffffffffffffffffffffffffffffffffffff1673ffffffffffffffffffffffffffffffffffffffff16815260200191505060006040518083038186803b1580156138a657600080fd5b505af41580156138ba573d6000803e3d6000fd5b505050506040513d6000823e3d601f19601f8201168201806040525060608110156138e457600080fd5b8101908080519060200190929190805190602001909291908051604051939291908464010000000082111561391857600080fd5b8382019150602082018581111561392e57600080fd5b825186600182028301116401000000008211171561394b57600080fd5b8083526020830192505050908051906020019080838360005b8381101561397f578082015181840152602081019050613964565b50505050905090810190601f1680156139ac5780820380516001836020036101000a031916815260200191505b50604052505050925092509250600088905060128460ff16146139e8576139e58460120360ff16600a0a8a6149c390919063ffffffff16565b90505b6139f38b8289614c80565b8973ffffffffffffffffffffffffffffffffffffffff168b73ffffffffffffffffffffffffffffffffffffffff167f33409cca56f705a7bbed38b7db57cf3a63317f3c1b9a747bbfb3d3ecffa84f6f87858c89896040518086815260200180602001806020018560ff1660ff168152602001848152602001838103835287818151815260200191508051906020019080838360005b83811015613aa3578082015181840152602081019050613a88565b50505050905090810190601f168015613ad05780820380516001836020036101000a031916815260200191505b50838103825286818151815260200191508051906020019080838360005b83811015613b09578082015181840152602081019050613aee565b50505050905090810190601f168015613b365780820380516001836020036101000a031916815260200191505b5097505050505050505060405180910390a3505050505b50505050505050565b6000613b658686868686612f01565b9050603e600082815260200190815260200160002060009054906101000a900460ff1615613bfb576040517f08c379a00000000000000000000000000000000000000000000000000000000081526004018080602001828103825260198152602001807f4272696467653a20416c72656164792070726f6365737365640000000000000081525060200191505060405180910390fd5b6001603e600083815260200190815260200160002060006101000a81548160ff021916908315150217905550505050505050565b60128360ff1614613c8b576040517f08c379a0000000000000000000000000000000000000000000000000000000008152600401808060200182810382526023815260200180615b486023913960400191505060405180910390fd5b60008073__Utils_________________________________63dc98f6b78786866040518463ffffffff1660e01b8152600401808473ffffffffffffffffffffffffffffffffffffffff1673ffffffffffffffffffffffffffffffffffffffff1681526020018381526020018281526020019350505050604080518083038186803b158015613d1857600080fd5b505af4158015613d2c573d6000803e3d6000fd5b505050506040513d6040811015613d4257600080fd5b81019080805190602001909291908051906020019092919050505091509150613d8c87828873ffffffffffffffffffffffffffffffffffffffff16614baf9092919063ffffffff16565b8673ffffffffffffffffffffffffffffffffffffffff168673ffffffffffffffffffffffffffffffffffffffff167ff244c12ced134b85172a3a06076c63efa539d91335731f5735298a24148e773d85888886886001604051808781526020018660ff1660ff1681526020018581526020018481526020018360ff1660ff168152602001828152602001965050505050505060405180910390a350505050505050565b60008073__Utils_________________________________63db8a2e3c8787876040518463ffffffff1660e01b8152600401808460ff1660ff1681526020018381526020018281526020019350505050604080518083038186803b158015613e9657600080fd5b505af4158015613eaa573d6000803e3d6000fd5b505050506040513d6040811015613ec057600080fd5b810190808051906020019092919080519060200190929190505050915091506000603b60008973ffffffffffffffffffffffffffffffffffffffff1673ffffffffffffffffffffffffffffffffffffffff16815260200190815260200160002060009054906101000a900473ffffffffffffffffffffffffffffffffffffffff169050600073ffffffffffffffffffffffffffffffffffffffff168173ffffffffffffffffffffffffffffffffffffffff161415613f8a57613f83888585614e29565b9050614063565b8073ffffffffffffffffffffffffffffffffffffffff1663556f0dc76040518163ffffffff1660e01b815260040160206040518083038186803b158015613fd057600080fd5b505afa158015613fe4573d6000803e3d6000fd5b505050506040513d6020811015613ffa57600080fd5b81019080805190602001909291905050508314614062576040517f08c379a000000000000000000000000000000000000000000000000000000000815260040180806020018281038252602a815260200180615a87602a913960400191505060405180910390fd5b5b8073ffffffffffffffffffffffffffffffffffffffff1663dcdc7dd08a846040518363ffffffff1660e01b8152600401808373ffffffffffffffffffffffffffffffffffffffff1673ffffffffffffffffffffffffffffffffffffffff1681526020018281526020018060200180602001838103835260008152602001602001838103825260008152602001602001945050505050600060405180830381600087803b15801561411257600080fd5b505af1158015614126573d6000803e3d6000fd5b505050508873ffffffffffffffffffffffffffffffffffffffff168873ffffffffffffffffffffffffffffffffffffffff167ff244c12ced134b85172a3a06076c63efa539d91335731f5735298a24148e773d878a8a8760128a604051808781526020018660ff1660ff1681526020018581526020018481526020018360ff168152602001828152602001965050505050505060405180910390a3505050505050505050565b600080303b90506000811491505090565b600060019054906101000a900460ff16806141fc57506141fb6141cc565b5b8061421357506000809054906101000a900460ff16155b614268576040517f08c379a0000000000000000000000000000000000000000000000000000000008152600401808060200182810382526028815260200180615af86028913960400191505060405180910390fd5b60008060019054906101000a900460ff1615905080156142b8576001600060016101000a81548160ff02191690831515021790555060016000806101000a81548160ff0219169083151502179055505b6142c182615261565b6000603460006101000a81548160ff02191690831515021790555080156142fd5760008060016101000a81548160ff0219169083151502179055505b5050565b600073ffffffffffffffffffffffffffffffffffffffff168173ffffffffffffffffffffffffffffffffffffffff161415614387576040517f08c379a0000000000000000000000000000000000000000000000000000000008152600401808060200182810382526021815260200180615b6b6021913960400191505060405180910390fd5b80604060006101000a81548173ffffffffffffffffffffffffffffffffffffffff021916908373ffffffffffffffffffffffffffffffffffffffff1602179055507f619936bc6e3618d0b8dc69bcc70134fe9d88f9967f3a8b8304e318369252162581604051808273ffffffffffffffffffffffffffffffffffffffff1673ffffffffffffffffffffffffffffffffffffffff16815260200191505060405180910390a150565b600073ffffffffffffffffffffffffffffffffffffffff168173ffffffffffffffffffffffffffffffffffffffff1614156144d1576040517f08c379a000000000000000000000000000000000000000000000000000000000815260040180806020018281038252601b8152602001807f4272696467653a2046656465726174696f6e20697320656d707479000000000081525060200191505060405180910390fd5b80603660006101000a81548173ffffffffffffffffffffffffffffffffffffffff021916908373ffffffffffffffffffffffffffffffffffffffff1602179055507f4a41a4d11aaf0c0c9e4311ac1d68b2b0134556da594779a2a35b0ddf7cd1eafb603660009054906101000a900473ffffffffffffffffffffffffffffffffffffffff16604051808273ffffffffffffffffffffffffffffffffffffffff1673ffffffffffffffffffffffffffffffffffffffff16815260200191505060405180910390a150565b60008060007fc5d2460186f7233c927e7db2dcc703c0e500b653ca82273b7bfad8045d85a47060001b9050833f91508082141580156145dc57506000801b8214155b92505050919050565b6146e5848573ffffffffffffffffffffffffffffffffffffffff166323b872dd905060e01b858585604051602401808473ffffffffffffffffffffffffffffffffffffffff1673ffffffffffffffffffffffffffffffffffffffff1681526020018373ffffffffffffffffffffffffffffffffffffffff1673ffffffffffffffffffffffffffffffffffffffff1681526020018281526020019350505050604051602081830303815290604052907bffffffffffffffffffffffffffffffffffffffffffffffffffffffff19166020820180517bffffffffffffffffffffffffffffffffffffffffffffffffffffffff8381831617835250505050615378565b50505050565b60008073ffffffffffffffffffffffffffffffffffffffff168273ffffffffffffffffffffffffffffffffffffffff161415614772576040517f08c379a0000000000000000000000000000000000000000000000000000000008152600401808060200182810382526022815260200180615bad6022913960400191505060405180910390fd5b8260000160008373ffffffffffffffffffffffffffffffffffffffff1673ffffffffffffffffffffffffffffffffffffffff16815260200190815260200160002060009054906101000a900460ff16905092915050565b6147dd8160336155c390919063ffffffff16565b8073ffffffffffffffffffffffffffffffffffffffff167fcd265ebaf09df2871cc7bd4133404a235ba12eff2041bb89d9c714a2621c7c7e60405160405180910390a250565b61483781603361569d90919063ffffffff16565b8073ffffffffffffffffffffffffffffffffffffffff167f6719d08c1888103bea251a4ed56406bd0c3e69723c8a1686e017e7bbe159b6f860405160405180910390a250565b600073ffffffffffffffffffffffffffffffffffffffff168173ffffffffffffffffffffffffffffffffffffffff161415614903576040517f08c379a0000000000000000000000000000000000000000000000000000000008152600401808060200182810382526022815260200180615bcf6022913960400191505060405180910390fd5b8073ffffffffffffffffffffffffffffffffffffffff16603460019054906101000a900473ffffffffffffffffffffffffffffffffffffffff1673ffffffffffffffffffffffffffffffffffffffff167f8be0079c531659141344cd1fd0a4f28419497f9722a3daafe3b4186f6b6457e060405160405180910390a380603460016101000a81548173ffffffffffffffffffffffffffffffffffffffff021916908373ffffffffffffffffffffffffffffffffffffffff16021790555050565b6000808314156149d65760009050614a43565b60008284029050828482816149e757fe5b0414614a3e576040517f08c379a0000000000000000000000000000000000000000000000000000000008152600401808060200182810382526021815260200180615b8c6021913960400191505060405180910390fd5b809150505b92915050565b6000614a8b83836040518060400160405280601a81526020017f536166654d6174683a206469766973696f6e206279207a65726f000000000000815250615778565b905092915050565b6000614ad583836040518060400160405280601e81526020017f536166654d6174683a207375627472616374696f6e206f766572666c6f77000081525061583e565b905092915050565b6000614b1f83836040518060400160405280601881526020017f536166654d6174683a206d6f64756c6f206279207a65726f00000000000000008152506158fe565b905092915050565b600080828401905083811015614ba5576040517f08c379a000000000000000000000000000000000000000000000000000000000815260040180806020018281038252601b8152602001807f536166654d6174683a206164646974696f6e206f766572666c6f77000000000081525060200191505060405180910390fd5b8091505092915050565b614c7b838473ffffffffffffffffffffffffffffffffffffffff1663a9059cbb905060e01b8484604051602401808373ffffffffffffffffffffffffffffffffffffffff1673ffffffffffffffffffffffffffffffffffffffff16815260200182815260200192505050604051602081830303815290604052907bffffffffffffffffffffffffffffffffffffffffffffffffffffffff19166020820180517bffffffffffffffffffffffffffffffffffffffffffffffffffffffff8381831617835250505050615378565b505050565b6201518060395401421115614c9f57426039819055506000603a819055505b603f60009054906101000a900473ffffffffffffffffffffffffffffffffffffffff1673ffffffffffffffffffffffffffffffffffffffff16639a4819bc8484603a54856040518563ffffffff1660e01b8152600401808573ffffffffffffffffffffffffffffffffffffffff1673ffffffffffffffffffffffffffffffffffffffff1681526020018481526020018381526020018215151515815260200194505050505060206040518083038186803b158015614d5c57600080fd5b505afa158015614d70573d6000803e3d6000fd5b505050506040513d6020811015614d8657600080fd5b8101908080519060200190929190505050614e09576040517f08c379a00000000000000000000000000000000000000000000000000000000081526004018080602001828103825260198152602001807f4272696467653a20426967676572207468616e206c696d69740000000000000081525060200191505060405180910390fd5b614e1e82603a54614b2790919063ffffffff16565b603a81905550505050565b600060606038846040516020018083805460018160011615610100020316600290048015614e8e5780601f10614e6c576101008083540402835291820191614e8e565b820191906000526020600020905b815481529060010190602001808311614e7a575b505082805190602001908083835b60208310614ebf5780518252602082019150602081019050602083039250614e9c565b6001836020036101000a0380198251168184511680821785525050505050509050019250505060405160208183030381529060405290506000604060009054906101000a900473ffffffffffffffffffffffffffffffffffffffff1673ffffffffffffffffffffffffffffffffffffffff166326d9e9638384876040518463ffffffff1660e01b8152600401808060200180602001848152602001838103835286818151815260200191508051906020019080838360005b83811015614f92578082015181840152602081019050614f77565b50505050905090810190601f168015614fbf5780820380516001836020036101000a031916815260200191505b50838103825285818151815260200191508051906020019080838360005b83811015614ff8578082015181840152602081019050614fdd565b50505050905090810190601f1680156150255780820380516001836020036101000a031916815260200191505b5095505050505050602060405180830381600087803b15801561504757600080fd5b505af115801561505b573d6000803e3d6000fd5b505050506040513d602081101561507157600080fd5b8101908080519060200190929190505050905080925082603b60008873ffffffffffffffffffffffffffffffffffffffff1673ffffffffffffffffffffffffffffffffffffffff16815260200190815260200160002060006101000a81548173ffffffffffffffffffffffffffffffffffffffff021916908373ffffffffffffffffffffffffffffffffffffffff16021790555085603c60008373ffffffffffffffffffffffffffffffffffffffff1673ffffffffffffffffffffffffffffffffffffffff16815260200190815260200160002060006101000a81548173ffffffffffffffffffffffffffffffffffffffff021916908373ffffffffffffffffffffffffffffffffffffffff1602179055508573ffffffffffffffffffffffffffffffffffffffff168173ffffffffffffffffffffffffffffffffffffffff167f2ef93c4e96a4ef0b19497ff60c9e7360a8734f3d2cd27ae5318e43851734d17f84876040518080602001838152602001828103825284818151815260200191508051906020019080838360005b8381101561521a5780820151818401526020810190506151ff565b50505050905090810190601f1680156152475780820380516001836020036101000a031916815260200191505b50935050505060405180910390a382925050509392505050565b600060019054906101000a900460ff1680615280575061527f6141cc565b5b8061529757506000809054906101000a900460ff16155b6152ec576040517f08c379a0000000000000000000000000000000000000000000000000000000008152600401808060200182810382526028815260200180615af86028913960400191505060405180910390fd5b60008060019054906101000a900460ff16159050801561533c576001600060016101000a81548160ff02191690831515021790555060016000806101000a81548160ff0219169083151502179055505b61534582612408565b6153535761535282614823565b5b80156153745760008060016101000a81548160ff0219169083151502179055505b5050565b6153978273ffffffffffffffffffffffffffffffffffffffff1661459a565b615409576040517f08c379a000000000000000000000000000000000000000000000000000000000815260040180806020018281038252601f8152602001807f5361666545524332303a2063616c6c20746f206e6f6e2d636f6e74726163740081525060200191505060405180910390fd5b600060608373ffffffffffffffffffffffffffffffffffffffff16836040518082805190602001908083835b602083106154585780518252602082019150602081019050602083039250615435565b6001836020036101000a0380198251168184511680821785525050505050509050019150506000604051808303816000865af19150503d80600081146154ba576040519150601f19603f3d011682016040523d82523d6000602084013e6154bf565b606091505b509150915081615537576040517f08c379a00000000000000000000000000000000000000000000000000000000081526004018080602001828103825260208152602001807f5361666545524332303a206c6f772d6c6576656c2063616c6c206661696c656481525060200191505060405180910390fd5b6000815111156155bd5780806020019051602081101561555657600080fd5b81019080805190602001909291905050506155bc576040517f08c379a000000000000000000000000000000000000000000000000000000000815260040180806020018281038252602a815260200180615bf1602a913960400191505060405180910390fd5b5b50505050565b6155cd82826146eb565b61563f576040517f08c379a00000000000000000000000000000000000000000000000000000000081526004018080602001828103825260208152602001807f526f6c65733a206163636f756e7420646f65736e2774206861766520726f6c6581525060200191505060405180910390fd5b60008260000160008373ffffffffffffffffffffffffffffffffffffffff1673ffffffffffffffffffffffffffffffffffffffff16815260200190815260200160002060006101000a81548160ff0219169083151502179055505050565b6156a782826146eb565b1561571a576040517f08c379a000000000000000000000000000000000000000000000000000000000815260040180806020018281038252601f8152602001807f526f6c65733a206163636f756e7420616c72656164792068617320726f6c650081525060200191505060405180910390fd5b60018260000160008373ffffffffffffffffffffffffffffffffffffffff1673ffffffffffffffffffffffffffffffffffffffff16815260200190815260200160002060006101000a81548160ff0219169083151502179055505050565b60008083118290615824576040517f08c379a00000000000000000000000000000000000000000000000000000000081526004018080602001828103825283818151815260200191508051906020019080838360005b838110156157e95780820151818401526020810190506157ce565b50505050905090810190601f1680156158165780820380516001836020036101000a031916815260200191505b509250505060405180910390fd5b50600083858161583057fe5b049050809150509392505050565b60008383111582906158eb576040517f08c379a00000000000000000000000000000000000000000000000000000000081526004018080602001828103825283818151815260200191508051906020019080838360005b838110156158b0578082015181840152602081019050615895565b50505050905090810190601f1680156158dd5780820380516001836020036101000a031916815260200191505b509250505060405180910390fd5b5060008385039050809150509392505050565b60008083141582906159ab576040517f08c379a00000000000000000000000000000000000000000000000000000000081526004018080602001828103825283818151815260200191508051906020019080838360005b83811015615970578082015181840152602081019050615955565b50505050905090810190601f16801561599d5780820380516001836020036101000a031916815260200191505b509250505060405180910390fd5b508284816159b557fe5b0690509392505050565b6040518060800160405280600490602082028038833980820191505090505090565b828054600181600116156101000203166002900490600052602060002090601f016020900481019282601f10615a2257805160ff1916838001178555615a50565b82800160010185558215615a50579182015b82811115615a4f578251825591602001919060010190615a34565b5b509050615a5d9190615a61565b5090565b615a8391905b80821115615a7f576000816000905550600101615a67565b5090565b9056fe4272696467653a204772616e756c6172697479206469666665722066726f6d207369646520746f6b656e5265656e7472616e637947756172643a206e6f207265656e7472616e7420616c6c6f7765644272696467653a2053656e6465722063616e2774206265206120636f6e7472616374436f6e747261637420696e7374616e636520697320616c726561647920696e697469616c697a6564506175736572526f6c653a2063616c6c657220646f65736e277420686176652074686520726f6c654272696467653a20496e76616c696420646563696d616c732063726f7373206261636b4272696467653a2053696465546f6b656e466163746f727920697320656d707479536166654d6174683a206d756c7469706c69636174696f6e206f766572666c6f77526f6c65733a206163636f756e7420697320746865207a65726f20616464726573734f776e61626c653a206e6577206f776e6572206973207a65726f20616464726573735361666545524332303a204552433230206f7065726174696f6e20646964206e6f742073756363656564a265627a7a72315820db740a1bfee05d4abb87a8f40ae0b8c634687b08d380938d5413e24b04ffbed564736f6c63430005110032",
  "source": "pragma solidity ^0.5.0;\n\n// Import base Initializable contract\nimport \"./zeppelin/upgradable/Initializable.sol\";\n// Import interface and library from OpenZeppelin contracts\nimport \"./zeppelin/upgradable/utils/ReentrancyGuard.sol\";\nimport \"./zeppelin/upgradable/lifecycle/UpgradablePausable.sol\";\nimport \"./zeppelin/upgradable/ownership/UpgradableOwnable.sol\";\n\nimport \"./zeppelin/introspection/IERC1820Registry.sol\";\nimport \"./zeppelin/token/ERC777/IERC777Recipient.sol\";\nimport \"./zeppelin/token/ERC20/IERC20.sol\";\nimport \"./zeppelin/token/ERC20/SafeERC20.sol\";\nimport \"./zeppelin/utils/Address.sol\";\nimport \"./zeppelin/math/SafeMath.sol\";\n\nimport \"./IBridge_v1.sol\";\nimport \"./ISideToken.sol\";\nimport \"./ISideTokenFactory.sol\";\nimport \"./AllowTokens.sol\";\nimport \"./Utils.sol\";\n\ncontract Bridge_v1 is Initializable, IBridge_v1, IERC777Recipient, UpgradablePausable, UpgradableOwnable, ReentrancyGuard {\n    using SafeMath for uint256;\n    using SafeERC20 for IERC20;\n    using Address for address;\n\n    address constant private NULL_ADDRESS = address(0);\n    bytes32 constant private NULL_HASH = bytes32(0);\n    IERC1820Registry constant private erc1820 = IERC1820Registry(0x1820a4B7618BdE71Dce8cdc73aAB6C95905faD24);\n\n    address private federation;\n    uint256 private feePercentage;\n    string public symbolPrefix;\n    uint256 public lastDay;\n    uint256 public spentToday;\n\n    mapping (address => ISideToken) public mappedTokens; // OirignalToken => SideToken\n    mapping (address => address) public originalTokens; // SideToken => OriginalToken\n    mapping (address => bool) public knownTokens; // OriginalToken => true\n    mapping(bytes32 => bool) public processed; // ProcessedHash => true\n    AllowTokens public allowTokens;\n    ISideTokenFactory public sideTokenFactory;\n    //Bridge_v1 variables\n    bool public isUpgrading;\n    uint256 constant public feePercentageDivider = 10000; // Porcentage with up to 2 decimals\n    bool private alreadyRun;\n\n    event FederationChanged(address _newFederation);\n    event SideTokenFactoryChanged(address _newSideTokenFactory);\n    event Upgrading(bool isUpgrading);\n\n    function initialize(\n        address _manager,\n        address _federation,\n        address _allowTokens,\n        address _sideTokenFactory,\n        string memory _symbolPrefix\n    ) public initializer {\n        UpgradableOwnable.initialize(_manager);\n        UpgradablePausable.initialize(_manager);\n        symbolPrefix = _symbolPrefix;\n        allowTokens = AllowTokens(_allowTokens);\n        _changeSideTokenFactory(_sideTokenFactory);\n        _changeFederation(_federation);\n        //keccak256(\"ERC777TokensRecipient\")\n        erc1820.setInterfaceImplementer(address(this), 0xb281fc8c12954d22544db45de3159a39272895b169a852b314f9cc762e44c53b, address(this));\n    }\n\n    function version() external pure returns (string memory) {\n        return \"v2\";\n    }\n\n    modifier onlyFederation() {\n        require(msg.sender == federation, \"Bridge: Sender not Federation\");\n        _;\n    }\n\n    modifier whenNotUpgrading() {\n        require(!isUpgrading, \"Bridge: Upgrading\");\n        _;\n    }\n\n    function acceptTransfer(\n        address tokenAddress,\n        address receiver,\n        uint256 amount,\n        string calldata symbol,\n        bytes32 blockHash,\n        bytes32 transactionHash,\n        uint32 logIndex,\n        uint8 decimals,\n        uint256 granularity\n    ) external onlyFederation whenNotPaused nonReentrant returns(bool) {\n        require(tokenAddress != NULL_ADDRESS, \"Bridge: Token is null\");\n        require(receiver != NULL_ADDRESS, \"Bridge: Receiver is null\");\n        require(amount > 0, \"Bridge: Amount 0\");\n        require(bytes(symbol).length > 0, \"Bridge: Empty symbol\");\n        require(blockHash != NULL_HASH, \"Bridge: BlockHash is null\");\n        require(transactionHash != NULL_HASH, \"Bridge: Transaction is null\");\n        require(decimals <= 18, \"Bridge: Decimals bigger 18\");\n        require(Utils.granularityToDecimals(granularity) <= 18, \"Bridge: invalid granularity\");\n\n        _processTransaction(blockHash, transactionHash, receiver, amount, logIndex);\n\n        if (knownTokens[tokenAddress]) {\n            _acceptCrossBackToToken(receiver, tokenAddress, decimals, granularity, amount);\n        } else {\n            _acceptCrossToSideToken(receiver, tokenAddress, decimals, granularity, amount, symbol);\n        }\n        return true;\n    }\n\n    function _acceptCrossToSideToken(\n        address receiver,\n        address tokenAddress,\n        uint8 decimals,\n        uint256 granularity,\n        uint256 amount,\n        string memory symbol\n    ) private {\n\n        (uint256 calculatedGranularity,uint256 formattedAmount) = Utils.calculateGranularityAndAmount(decimals, granularity, amount);\n        ISideToken sideToken = mappedTokens[tokenAddress];\n        if (address(sideToken) == NULL_ADDRESS) {\n            sideToken = _createSideToken(tokenAddress, symbol, calculatedGranularity);\n        } else {\n            require(calculatedGranularity == sideToken.granularity(), \"Bridge: Granularity differ from side token\");\n        }\n        sideToken.mint(receiver, formattedAmount, \"\", \"\");\n        emit AcceptedCrossTransfer(tokenAddress, receiver, amount, decimals, granularity, formattedAmount, 18, calculatedGranularity);\n    }\n\n    function _acceptCrossBackToToken(address receiver, address tokenAddress, uint8 decimals, uint256 granularity, uint256 amount) private {\n        require(decimals == 18, \"Bridge: Invalid decimals cross back\");\n        //As side tokens are ERC777 we need to convert granularity to decimals\n        (uint8 calculatedDecimals, uint256 formattedAmount) = Utils.calculateDecimalsAndAmount(tokenAddress, granularity, amount);\n        IERC20(tokenAddress).safeTransfer(receiver, formattedAmount);\n        emit AcceptedCrossTransfer(tokenAddress, receiver, amount, decimals, granularity, formattedAmount, calculatedDecimals, 1);\n    }\n\n    /**\n     * ERC-20 tokens approve and transferFrom pattern\n     * See https://eips.ethereum.org/EIPS/eip-20#transferfrom\n     */\n    function receiveTokens(address tokenToUse, uint256 amount) external whenNotUpgrading whenNotPaused nonReentrant returns(bool) {\n        address sender = _msgSender();\n        require(!sender.isContract(), \"Bridge: Sender can't be a contract\");\n        //Transfer the tokens on IERC20, they should be already Approved for the bridge Address to use them\n        IERC20(tokenToUse).safeTransferFrom(_msgSender(), address(this), amount);\n        crossTokens(tokenToUse, sender, amount, \"\");\n        return true;\n    }\n\n    /**\n     * ERC-777 tokensReceived hook allows to send tokens to a contract and notify it in a single transaction\n     * See https://eips.ethereum.org/EIPS/eip-777#motivation for details\n     */\n    function tokensReceived (\n        address operator,\n        address from,\n        address to,\n        uint amount,\n        bytes calldata userData,\n        bytes calldata\n    ) external whenNotPaused whenNotUpgrading {\n        //Hook from ERC777address\n        if(operator == address(this)) return; // Avoid loop from bridge calling to ERC77transferFrom\n        require(to == address(this), \"Bridge: Not to address\");\n        address tokenToUse = _msgSender();\n        //This can only be used with trusted contracts\n        crossTokens(tokenToUse, from, amount, userData);\n    }\n\n    function crossTokens(address tokenToUse, address from, uint256 amount, bytes memory userData) private {\n        bool isASideToken = originalTokens[tokenToUse] != NULL_ADDRESS;\n        //Send the payment to the MultiSig of the Federation\n        uint256 fee = amount.mul(feePercentage).div(feePercentageDivider);\n        uint256 amountMinusFees = amount.sub(fee);\n        if (isASideToken) {\n            uint256 modulo = amountMinusFees.mod(ISideToken(tokenToUse).granularity());\n            fee = fee.add(modulo);\n            amountMinusFees = amountMinusFees.sub(modulo);\n        }\n        if(fee > 0) {\n            IERC20(tokenToUse).safeTransfer(owner(), fee);\n        }\n        if (isASideToken) {\n            verifyWithAllowTokens(tokenToUse, amount, isASideToken);\n            //Side Token Crossing\n            ISideToken(tokenToUse).burn(amountMinusFees, userData);\n            // solium-disable-next-line max-len\n            emit Cross(originalTokens[tokenToUse], from, amountMinusFees, ISideToken(tokenToUse).symbol(), userData, ISideToken(tokenToUse).decimals(), ISideToken(tokenToUse).granularity());\n        } else {\n            //Main Token Crossing\n            knownTokens[tokenToUse] = true;\n            (uint8 decimals, uint256 granularity, string memory symbol) = Utils.getTokenInfo(tokenToUse);\n            uint formattedAmount = amount;\n            if(decimals != 18) {\n                formattedAmount = amount.mul(uint256(10)**(18-decimals));\n            }\n            //We consider the amount before fees converted to 18 decimals to check the limits\n            verifyWithAllowTokens(tokenToUse, formattedAmount, isASideToken);\n            emit Cross(tokenToUse, from, amountMinusFees, symbol, userData, decimals, granularity);\n        }\n    }\n\n    function _createSideToken(address token, string memory symbol, uint256 granularity) private returns (ISideToken sideToken){\n        string memory newSymbol = string(abi.encodePacked(symbolPrefix, symbol));\n        address sideTokenAddress = sideTokenFactory.createSideToken(newSymbol, newSymbol, granularity);\n        sideToken = ISideToken(sideTokenAddress);\n        mappedTokens[token] = sideToken;\n        originalTokens[sideTokenAddress] = token;\n        emit NewSideToken(sideTokenAddress, token, newSymbol, granularity);\n        return sideToken;\n    }\n\n    function verifyWithAllowTokens(address tokenToUse, uint256 amount, bool isASideToken) private  {\n        // solium-disable-next-line security/no-block-members\n        if (now > lastDay + 24 hours) {\n            // solium-disable-next-line security/no-block-members\n            lastDay = now;\n            spentToday = 0;\n        }\n        require(allowTokens.isValidTokenTransfer(tokenToUse, amount, spentToday, isASideToken), \"Bridge: Bigger than limit\");\n        spentToday = spentToday.add(amount);\n    }\n\n    function getTransactionId(\n        bytes32 _blockHash,\n        bytes32 _transactionHash,\n        address _receiver,\n        uint256 _amount,\n        uint32 _logIndex\n    )\n        public pure returns(bytes32)\n    {\n        return keccak256(abi.encodePacked(_blockHash, _transactionHash, _receiver, _amount, _logIndex));\n    }\n\n    function _processTransaction(\n        bytes32 _blockHash,\n        bytes32 _transactionHash,\n        address _receiver,\n        uint256 _amount,\n        uint32 _logIndex\n    )\n        private\n    {\n        bytes32 compiledId = getTransactionId(_blockHash, _transactionHash, _receiver, _amount, _logIndex);\n        require(!processed[compiledId], \"Bridge: Already processed\");\n        processed[compiledId] = true;\n    }\n\n    function setFeePercentage(uint amount) external onlyOwner whenNotPaused {\n        require(amount < (feePercentageDivider/10), \"Bridge: bigger than 10%\");\n        feePercentage = amount;\n        emit FeePercentageChanged(feePercentage);\n    }\n\n    function getFeePercentage() external view returns(uint) {\n        return feePercentage;\n    }\n\n    function calcMaxWithdraw() external view returns (uint) {\n        uint spent = spentToday;\n        // solium-disable-next-line security/no-block-members\n        if (now > lastDay + 24 hours)\n            spent = 0;\n        return allowTokens.calcMaxWithdraw(spent);\n    }\n\n    function changeFederation(address newFederation) external onlyOwner returns(bool) {\n        _changeFederation(newFederation);\n        return true;\n    }\n\n    function _changeFederation(address newFederation) internal {\n        require(newFederation != NULL_ADDRESS, \"Bridge: Federation is empty\");\n        federation = newFederation;\n        emit FederationChanged(federation);\n    }\n\n    function getFederation() external view returns(address) {\n        return federation;\n    }\n\n    function changeSideTokenFactory(address newSideTokenFactory) external onlyOwner returns(bool) {\n        _changeSideTokenFactory(newSideTokenFactory);\n        return true;\n    }\n\n    function _changeSideTokenFactory(address newSideTokenFactory) internal {\n        require(newSideTokenFactory != NULL_ADDRESS, \"Bridge: SideTokenFactory is empty\");\n        sideTokenFactory = ISideTokenFactory(newSideTokenFactory);\n        emit SideTokenFactoryChanged(newSideTokenFactory);\n    }\n\n    function startUpgrade() external onlyOwner {\n        isUpgrading = true;\n        emit Upgrading(isUpgrading);\n    }\n\n    function endUpgrade() external onlyOwner {\n        isUpgrading = false;\n        emit Upgrading(isUpgrading);\n    }\n\n    //This method is only to recreate the USDT and USDC tokens on rsk without granularity restrictions.\n    function clearSideToken() external onlyOwner returns(bool) {\n        require(!alreadyRun, \"already done\");\n        alreadyRun = true;\n        address payable[4] memory sideTokens = [\n            0xe506F698b31a66049BD4653ed934E7a07Cbc5549,\n            0x5a42221D7AaE8e185BC0054Bb036D9757eC18857,\n            0xcdc8ccBbFB6407c53118fE47259e8d00C81F42CD,\n            0x6117C9529F15c52e2d3188d5285C745B757b5825\n        ];\n        for (uint i = 0; i < sideTokens.length; i++) {\n            address originalToken = address(originalTokens[sideTokens[i]]);\n            originalTokens[sideTokens[i]] = NULL_ADDRESS;\n            mappedTokens[originalToken] = ISideToken(NULL_ADDRESS);\n        }\n        return true;\n    }\n\n}\n",
  "sourcePath": "/Users/pooh/sovryn/deploy_bridge/MAIN-Restore-RSK-ETH/Bridge-SC/sovryn-token-bridge/bridge/contracts/Bridge_v1.sol",
  "compiler": {
    "name": "solc",
    "version": "0.5.17+commit.d19bba13.Emscripten.clang"
  },
  "schemaVersion": "3.2.4",
  "updatedAt": "2021-04-27T19:12:41.307Z",
  "devdoc": {
    "methods": {
      "initialize(address)": {
        "details": "Initializes the contract setting the deployer as the initial owner."
      },
      "isOwner()": {
        "details": "Returns true if the caller is the current owner."
      },
      "owner()": {
        "details": "Returns the address of the current owner."
      },
      "pause()": {
        "details": "Called by a pauser to pause, triggers stopped state."
      },
      "paused()": {
        "details": "Returns true if the contract is paused, and false otherwise."
      },
      "renounceOwnership()": {
        "details": "Leaves the contract without owner. It will not be possible to call `onlyOwner` functions anymore. Can only be called by the current owner.     * > Note: Renouncing ownership will leave the contract without an owner, thereby removing any functionality that is only available to the owner."
      },
      "transferOwnership(address)": {
        "details": "Transfers ownership of the contract to a new account (`newOwner`). Can only be called by the current owner."
      },
      "unpause()": {
        "details": "Called by a pauser to unpause, returns to normal state."
      }
    }
  },
  "userdoc": {
    "methods": {
      "receiveTokens(address,uint256)": {
        "notice": "ERC-20 tokens approve and transferFrom pattern See https://eips.ethereum.org/EIPS/eip-20#transferfrom"
      },
      "tokensReceived(address,address,address,uint256,bytes,bytes)": {
        "notice": "ERC-777 tokensReceived hook allows to send tokens to a contract and notify it in a single transaction See https://eips.ethereum.org/EIPS/eip-777#motivation for details"
      }
    }
  }
}