{
  "contractName": "Bridge",
  "abi": [
    {
      "anonymous": false,
      "inputs": [
        {
          "indexed": true,
          "internalType": "address",
          "name": "_tokenAddress",
          "type": "address"
        },
        {
          "indexed": true,
          "internalType": "address",
          "name": "_to",
          "type": "address"
        },
        {
          "indexed": false,
          "internalType": "uint256",
          "name": "_amount",
          "type": "uint256"
        },
        {
          "indexed": false,
          "internalType": "uint8",
          "name": "_decimals",
          "type": "uint8"
        },
        {
          "indexed": false,
          "internalType": "uint256",
          "name": "_granularity",
          "type": "uint256"
        },
        {
          "indexed": false,
          "internalType": "uint256",
          "name": "_formattedAmount",
          "type": "uint256"
        },
        {
          "indexed": false,
          "internalType": "uint8",
          "name": "_calculatedDecimals",
          "type": "uint8"
        },
        {
          "indexed": false,
          "internalType": "uint256",
          "name": "_calculatedGranularity",
          "type": "uint256"
        },
        {
          "indexed": false,
          "internalType": "bytes",
          "name": "_userData",
          "type": "bytes"
        }
      ],
      "name": "AcceptedCrossTransfer",
      "type": "event"
    },
    {
      "anonymous": false,
      "inputs": [
        {
          "indexed": true,
          "internalType": "address",
          "name": "_tokenAddress",
          "type": "address"
        },
        {
          "indexed": true,
          "internalType": "address",
          "name": "_to",
          "type": "address"
        },
        {
          "indexed": false,
          "internalType": "uint256",
          "name": "_amount",
          "type": "uint256"
        },
        {
          "indexed": false,
          "internalType": "string",
          "name": "_symbol",
          "type": "string"
        },
        {
          "indexed": false,
          "internalType": "bytes",
          "name": "_userData",
          "type": "bytes"
        },
        {
          "indexed": false,
          "internalType": "uint8",
          "name": "_decimals",
          "type": "uint8"
        },
        {
          "indexed": false,
          "internalType": "uint256",
          "name": "_granularity",
          "type": "uint256"
        }
      ],
      "name": "Cross",
      "type": "event"
    },
    {
      "anonymous": false,
      "inputs": [
        {
          "indexed": false,
          "internalType": "bytes",
          "name": "_errorData",
          "type": "bytes"
        }
      ],
      "name": "ErrorTokenReceiver",
      "type": "event"
    },
    {
      "anonymous": false,
      "inputs": [
        {
          "indexed": false,
          "internalType": "address",
          "name": "_newFederation",
          "type": "address"
        }
      ],
      "name": "FederationChanged",
      "type": "event"
    },
    {
      "anonymous": false,
      "inputs": [
        {
          "indexed": false,
          "internalType": "uint256",
          "name": "_amount",
          "type": "uint256"
        }
      ],
      "name": "FeePercentageChanged",
      "type": "event"
    },
    {
      "anonymous": false,
      "inputs": [
        {
          "indexed": true,
          "internalType": "address",
          "name": "_newSideTokenAddress",
          "type": "address"
        },
        {
          "indexed": true,
          "internalType": "address",
          "name": "_originalTokenAddress",
          "type": "address"
        },
        {
          "indexed": false,
          "internalType": "string",
          "name": "_newSymbol",
          "type": "string"
        },
        {
          "indexed": false,
          "internalType": "uint256",
          "name": "_granularity",
          "type": "uint256"
        }
      ],
      "name": "NewSideToken",
      "type": "event"
    },
    {
      "anonymous": false,
      "inputs": [
        {
          "indexed": true,
          "internalType": "address",
          "name": "previousOwner",
          "type": "address"
        },
        {
          "indexed": true,
          "internalType": "address",
          "name": "newOwner",
          "type": "address"
        }
      ],
      "name": "OwnershipTransferred",
      "type": "event"
    },
    {
      "anonymous": false,
      "inputs": [
        {
          "indexed": false,
          "internalType": "address",
          "name": "account",
          "type": "address"
        }
      ],
      "name": "Paused",
      "type": "event"
    },
    {
      "anonymous": false,
      "inputs": [
        {
          "indexed": true,
          "internalType": "address",
          "name": "account",
          "type": "address"
        }
      ],
      "name": "PauserAdded",
      "type": "event"
    },
    {
      "anonymous": false,
      "inputs": [
        {
          "indexed": true,
          "internalType": "address",
          "name": "account",
          "type": "address"
        }
      ],
      "name": "PauserRemoved",
      "type": "event"
    },
    {
      "anonymous": false,
      "inputs": [
        {
          "indexed": false,
          "internalType": "address",
          "name": "_newSideTokenFactory",
          "type": "address"
        }
      ],
      "name": "SideTokenFactoryChanged",
      "type": "event"
    },
    {
      "anonymous": false,
      "inputs": [
        {
          "indexed": false,
          "internalType": "address",
          "name": "account",
          "type": "address"
        }
      ],
      "name": "Unpaused",
      "type": "event"
    },
    {
      "anonymous": false,
      "inputs": [
        {
          "indexed": false,
          "internalType": "bool",
          "name": "isUpgrading",
          "type": "bool"
        }
      ],
      "name": "Upgrading",
      "type": "event"
    },
    {
      "constant": false,
      "inputs": [
        {
          "internalType": "address",
          "name": "account",
          "type": "address"
        }
      ],
      "name": "addPauser",
      "outputs": [],
      "payable": false,
      "stateMutability": "nonpayable",
      "type": "function"
    },
    {
      "constant": true,
      "inputs": [],
      "name": "allowTokens",
      "outputs": [
        {
          "internalType": "contract AllowTokens",
          "name": "",
          "type": "address"
        }
      ],
      "payable": false,
      "stateMutability": "view",
      "type": "function"
    },
    {
      "constant": true,
      "inputs": [],
      "name": "feePercentageDivider",
      "outputs": [
        {
          "internalType": "uint256",
          "name": "",
          "type": "uint256"
        }
      ],
      "payable": false,
      "stateMutability": "view",
      "type": "function"
    },
    {
      "constant": false,
      "inputs": [],
      "name": "initialize",
      "outputs": [],
      "payable": false,
      "stateMutability": "nonpayable",
      "type": "function"
    },
    {
      "constant": false,
      "inputs": [
        {
          "internalType": "address",
          "name": "sender",
          "type": "address"
        }
      ],
      "name": "initialize",
      "outputs": [],
      "payable": false,
      "stateMutability": "nonpayable",
      "type": "function"
    },
    {
      "constant": true,
      "inputs": [],
      "name": "isOwner",
      "outputs": [
        {
          "internalType": "bool",
          "name": "",
          "type": "bool"
        }
      ],
      "payable": false,
      "stateMutability": "view",
      "type": "function"
    },
    {
      "constant": true,
      "inputs": [
        {
          "internalType": "address",
          "name": "account",
          "type": "address"
        }
      ],
      "name": "isPauser",
      "outputs": [
        {
          "internalType": "bool",
          "name": "",
          "type": "bool"
        }
      ],
      "payable": false,
      "stateMutability": "view",
      "type": "function"
    },
    {
      "constant": true,
      "inputs": [],
      "name": "isUpgrading",
      "outputs": [
        {
          "internalType": "bool",
          "name": "",
          "type": "bool"
        }
      ],
      "payable": false,
      "stateMutability": "view",
      "type": "function"
    },
    {
      "constant": true,
      "inputs": [
        {
          "internalType": "address",
          "name": "",
          "type": "address"
        }
      ],
      "name": "knownTokens",
      "outputs": [
        {
          "internalType": "bool",
          "name": "",
          "type": "bool"
        }
      ],
      "payable": false,
      "stateMutability": "view",
      "type": "function"
    },
    {
      "constant": true,
      "inputs": [],
      "name": "lastDay",
      "outputs": [
        {
          "internalType": "uint256",
          "name": "",
          "type": "uint256"
        }
      ],
      "payable": false,
      "stateMutability": "view",
      "type": "function"
    },
    {
      "constant": true,
      "inputs": [
        {
          "internalType": "address",
          "name": "",
          "type": "address"
        }
      ],
      "name": "mappedTokens",
      "outputs": [
        {
          "internalType": "contract ISideToken",
          "name": "",
          "type": "address"
        }
      ],
      "payable": false,
      "stateMutability": "view",
      "type": "function"
    },
    {
      "constant": true,
      "inputs": [
        {
          "internalType": "address",
          "name": "",
          "type": "address"
        }
      ],
      "name": "originalTokens",
      "outputs": [
        {
          "internalType": "address",
          "name": "",
          "type": "address"
        }
      ],
      "payable": false,
      "stateMutability": "view",
      "type": "function"
    },
    {
      "constant": true,
      "inputs": [],
      "name": "owner",
      "outputs": [
        {
          "internalType": "address",
          "name": "",
          "type": "address"
        }
      ],
      "payable": false,
      "stateMutability": "view",
      "type": "function"
    },
    {
      "constant": false,
      "inputs": [],
      "name": "pause",
      "outputs": [],
      "payable": false,
      "stateMutability": "nonpayable",
      "type": "function"
    },
    {
      "constant": true,
      "inputs": [],
      "name": "paused",
      "outputs": [
        {
          "internalType": "bool",
          "name": "",
          "type": "bool"
        }
      ],
      "payable": false,
      "stateMutability": "view",
      "type": "function"
    },
    {
      "constant": true,
      "inputs": [
        {
          "internalType": "bytes32",
          "name": "",
          "type": "bytes32"
        }
      ],
      "name": "processed",
      "outputs": [
        {
          "internalType": "bool",
          "name": "",
          "type": "bool"
        }
      ],
      "payable": false,
      "stateMutability": "view",
      "type": "function"
    },
    {
      "constant": false,
      "inputs": [],
      "name": "renounceOwnership",
      "outputs": [],
      "payable": false,
      "stateMutability": "nonpayable",
      "type": "function"
    },
    {
      "constant": false,
      "inputs": [],
      "name": "renouncePauser",
      "outputs": [],
      "payable": false,
      "stateMutability": "nonpayable",
      "type": "function"
    },
    {
      "constant": true,
      "inputs": [],
      "name": "sideTokenFactory",
      "outputs": [
        {
          "internalType": "contract ISideTokenFactory",
          "name": "",
          "type": "address"
        }
      ],
      "payable": false,
      "stateMutability": "view",
      "type": "function"
    },
    {
      "constant": true,
      "inputs": [],
      "name": "spentToday",
      "outputs": [
        {
          "internalType": "uint256",
          "name": "",
          "type": "uint256"
        }
      ],
      "payable": false,
      "stateMutability": "view",
      "type": "function"
    },
    {
      "constant": true,
      "inputs": [],
      "name": "symbolPrefix",
      "outputs": [
        {
          "internalType": "string",
          "name": "",
          "type": "string"
        }
      ],
      "payable": false,
      "stateMutability": "view",
      "type": "function"
    },
    {
      "constant": false,
      "inputs": [
        {
          "internalType": "address",
          "name": "newOwner",
          "type": "address"
        }
      ],
      "name": "transferOwnership",
      "outputs": [],
      "payable": false,
      "stateMutability": "nonpayable",
      "type": "function"
    },
    {
      "constant": false,
      "inputs": [],
      "name": "unpause",
      "outputs": [],
      "payable": false,
      "stateMutability": "nonpayable",
      "type": "function"
    },
    {
      "constant": true,
      "inputs": [],
      "name": "version",
      "outputs": [
        {
          "internalType": "string",
          "name": "",
          "type": "string"
        }
      ],
      "payable": false,
      "stateMutability": "pure",
      "type": "function"
    },
    {
      "constant": false,
      "inputs": [
        {
          "internalType": "address",
          "name": "tokenAddress",
          "type": "address"
        },
        {
          "internalType": "address",
          "name": "receiver",
          "type": "address"
        },
        {
          "internalType": "uint256",
          "name": "amount",
          "type": "uint256"
        },
        {
          "internalType": "string",
          "name": "symbol",
          "type": "string"
        },
        {
          "internalType": "bytes32",
          "name": "blockHash",
          "type": "bytes32"
        },
        {
          "internalType": "bytes32",
          "name": "transactionHash",
          "type": "bytes32"
        },
        {
          "internalType": "uint32",
          "name": "logIndex",
          "type": "uint32"
        },
        {
          "internalType": "uint8",
          "name": "decimals",
          "type": "uint8"
        },
        {
          "internalType": "uint256",
          "name": "granularity",
          "type": "uint256"
        }
      ],
      "name": "acceptTransfer",
      "outputs": [
        {
          "internalType": "bool",
          "name": "",
          "type": "bool"
        }
      ],
      "payable": false,
      "stateMutability": "nonpayable",
      "type": "function"
    },
    {
      "constant": false,
      "inputs": [
        {
          "internalType": "address",
          "name": "tokenAddress",
          "type": "address"
        },
        {
          "internalType": "address",
          "name": "receiver",
          "type": "address"
        },
        {
          "internalType": "uint256",
          "name": "amount",
          "type": "uint256"
        },
        {
          "internalType": "string",
          "name": "symbol",
          "type": "string"
        },
        {
          "internalType": "bytes32",
          "name": "blockHash",
          "type": "bytes32"
        },
        {
          "internalType": "bytes32",
          "name": "transactionHash",
          "type": "bytes32"
        },
        {
          "internalType": "uint32",
          "name": "logIndex",
          "type": "uint32"
        },
        {
          "internalType": "uint8",
          "name": "decimals",
          "type": "uint8"
        },
        {
          "internalType": "uint256",
          "name": "granularity",
          "type": "uint256"
        },
        {
          "internalType": "bytes",
          "name": "userData",
          "type": "bytes"
        }
      ],
      "name": "acceptTransferAt",
      "outputs": [
        {
          "internalType": "bool",
          "name": "",
          "type": "bool"
        }
      ],
      "payable": false,
      "stateMutability": "nonpayable",
      "type": "function"
    },
    {
      "constant": false,
      "inputs": [
        {
          "internalType": "address",
          "name": "tokenToUse",
          "type": "address"
        },
        {
          "internalType": "uint256",
          "name": "amount",
          "type": "uint256"
        },
        {
          "internalType": "address",
          "name": "receiver",
          "type": "address"
        },
        {
          "internalType": "bytes",
          "name": "extraData",
          "type": "bytes"
        }
      ],
      "name": "receiveTokensAt",
      "outputs": [
        {
          "internalType": "bool",
          "name": "",
          "type": "bool"
        }
      ],
      "payable": false,
      "stateMutability": "nonpayable",
      "type": "function"
    },
    {
      "constant": false,
      "inputs": [
        {
          "internalType": "address",
          "name": "tokenToUse",
          "type": "address"
        },
        {
          "internalType": "uint256",
          "name": "amount",
          "type": "uint256"
        }
      ],
      "name": "receiveTokens",
      "outputs": [
        {
          "internalType": "bool",
          "name": "",
          "type": "bool"
        }
      ],
      "payable": false,
      "stateMutability": "nonpayable",
      "type": "function"
    },
    {
      "constant": false,
      "inputs": [
        {
          "internalType": "address",
          "name": "operator",
          "type": "address"
        },
        {
          "internalType": "address",
          "name": "from",
          "type": "address"
        },
        {
          "internalType": "address",
          "name": "to",
          "type": "address"
        },
        {
          "internalType": "uint256",
          "name": "amount",
          "type": "uint256"
        },
        {
          "internalType": "bytes",
          "name": "userData",
          "type": "bytes"
        },
        {
          "internalType": "bytes",
          "name": "",
          "type": "bytes"
        }
      ],
      "name": "tokensReceived",
      "outputs": [],
      "payable": false,
      "stateMutability": "nonpayable",
      "type": "function"
    },
    {
      "constant": true,
      "inputs": [
        {
          "internalType": "bytes32",
          "name": "_blockHash",
          "type": "bytes32"
        },
        {
          "internalType": "bytes32",
          "name": "_transactionHash",
          "type": "bytes32"
        },
        {
          "internalType": "address",
          "name": "_receiver",
          "type": "address"
        },
        {
          "internalType": "uint256",
          "name": "_amount",
          "type": "uint256"
        },
        {
          "internalType": "uint32",
          "name": "_logIndex",
          "type": "uint32"
        }
      ],
      "name": "getTransactionId",
      "outputs": [
        {
          "internalType": "bytes32",
          "name": "",
          "type": "bytes32"
        }
      ],
      "payable": false,
      "stateMutability": "pure",
      "type": "function"
    },
    {
      "constant": false,
      "inputs": [
        {
          "internalType": "uint256",
          "name": "amount",
          "type": "uint256"
        }
      ],
      "name": "setFeePercentage",
      "outputs": [],
      "payable": false,
      "stateMutability": "nonpayable",
      "type": "function"
    },
    {
      "constant": true,
      "inputs": [],
      "name": "getFeePercentage",
      "outputs": [
        {
          "internalType": "uint256",
          "name": "",
          "type": "uint256"
        }
      ],
      "payable": false,
      "stateMutability": "view",
      "type": "function"
    },
    {
      "constant": true,
      "inputs": [],
      "name": "calcMaxWithdraw",
      "outputs": [
        {
          "internalType": "uint256",
          "name": "",
          "type": "uint256"
        }
      ],
      "payable": false,
      "stateMutability": "view",
      "type": "function"
    },
    {
      "constant": false,
      "inputs": [
        {
          "internalType": "address",
          "name": "newFederation",
          "type": "address"
        }
      ],
      "name": "changeFederation",
      "outputs": [
        {
          "internalType": "bool",
          "name": "",
          "type": "bool"
        }
      ],
      "payable": false,
      "stateMutability": "nonpayable",
      "type": "function"
    },
    {
      "constant": true,
      "inputs": [],
      "name": "getFederation",
      "outputs": [
        {
          "internalType": "address",
          "name": "",
          "type": "address"
        }
      ],
      "payable": false,
      "stateMutability": "view",
      "type": "function"
    },
    {
      "constant": false,
      "inputs": [
        {
          "internalType": "address",
          "name": "newSideTokenFactory",
          "type": "address"
        }
      ],
      "name": "changeSideTokenFactory",
      "outputs": [
        {
          "internalType": "bool",
          "name": "",
          "type": "bool"
        }
      ],
      "payable": false,
      "stateMutability": "nonpayable",
      "type": "function"
    },
    {
      "constant": false,
      "inputs": [],
      "name": "startUpgrade",
      "outputs": [],
      "payable": false,
      "stateMutability": "nonpayable",
      "type": "function"
    },
    {
      "constant": false,
      "inputs": [],
      "name": "endUpgrade",
      "outputs": [],
      "payable": false,
      "stateMutability": "nonpayable",
      "type": "function"
    }
  ],
  "bytecode": "0x6080604052615805806100136000396000f3fe608060405234801561001057600080fd5b50600436106102315760003560e01c806382dc1ec411610130578063c4d66de8116100b8578063ea2170911161007c578063ea21709114610d54578063f059cf2b14610d9e578063f2fde38b14610dbc578063f74032f014610e00578063fa0caa1614610e8457610231565b8063c4d66de814610a7c578063d058ae9614610ac0578063e6ede14d14610c2c578063e6fc774414610cb0578063e8340a9914610cce57610231565b8063a53d6e6e116100ff578063a53d6e6e14610952578063ae06c1b71461099c578063b7947262146109ca578063b86f60d2146109ec578063c1f0808a14610a3657610231565b806382dc1ec4146108985780638456cb59146108dc5780638da5cb5b146108e65780638f32d59b1461093057610231565b80634bc9fdc2116101be5780636b0c932d116101825780636b0c932d146107815780636ef8d66d1461079f578063715018a6146107a95780637e5d3620146107b35780638129fc1c1461088e57610231565b80634bc9fdc2146105df57806354fd4d50146105fd57806359a8a867146106805780635c975abb146107035780635d4471291461072557610231565b8063257e1f8f11610205578063257e1f8f146104ad57806335729130146104b75780633f4ba83a1461051d57806342cdb2c61461052757806346fbf68e1461058357610231565b806223de29146102365780630e6ec7791461036e57806311efbf61146104855780632239c48a146104a3575b600080fd5b61036c600480360360c081101561024c57600080fd5b81019080803573ffffffffffffffffffffffffffffffffffffffff169060200190929190803573ffffffffffffffffffffffffffffffffffffffff169060200190929190803573ffffffffffffffffffffffffffffffffffffffff16906020019092919080359060200190929190803590602001906401000000008111156102d357600080fd5b8201836020820111156102e557600080fd5b8035906020019184600183028401116401000000008311171561030757600080fd5b90919293919293908035906020019064010000000081111561032857600080fd5b82018360208201111561033a57600080fd5b8035906020019184600183028401116401000000008311171561035c57600080fd5b9091929391929390505050610ee0565b005b61046b600480360361012081101561038557600080fd5b81019080803573ffffffffffffffffffffffffffffffffffffffff169060200190929190803573ffffffffffffffffffffffffffffffffffffffff16906020019092919080359060200190929190803590602001906401000000008111156103ec57600080fd5b8201836020820111156103fe57600080fd5b8035906020019184600183028401116401000000008311171561042057600080fd5b90919293919293908035906020019092919080359060200190929190803563ffffffff169060200190929190803560ff16906020019092919080359060200190929190505050611128565b604051808215151515815260200191505060405180910390f35b61048d61119f565b6040518082815260200191505060405180910390f35b6104ab6111a9565b005b6104b561128a565b005b610503600480360360408110156104cd57600080fd5b81019080803573ffffffffffffffffffffffffffffffffffffffff1690602001909291908035906020019092919050505061136b565b604051808215151515815260200191505060405180910390f35b610525611397565b005b6105696004803603602081101561053d57600080fd5b81019080803573ffffffffffffffffffffffffffffffffffffffff169060200190929190505050611505565b604051808215151515815260200191505060405180910390f35b6105c56004803603602081101561059957600080fd5b81019080803573ffffffffffffffffffffffffffffffffffffffff169060200190929190505050611593565b604051808215151515815260200191505060405180910390f35b6105e76115b0565b6040518082815260200191505060405180910390f35b610605611680565b6040518080602001828103825283818151815260200191508051906020019080838360005b8381101561064557808201518184015260208101905061062a565b50505050905090810190601f1680156106725780820380516001836020036101000a031916815260200191505b509250505060405180910390f35b6106886116bd565b6040518080602001828103825283818151815260200191508051906020019080838360005b838110156106c85780820151818401526020810190506106ad565b50505050905090810190601f1680156106f55780820380516001836020036101000a031916815260200191505b509250505060405180910390f35b61070b61175b565b604051808215151515815260200191505060405180910390f35b6107676004803603602081101561073b57600080fd5b81019080803573ffffffffffffffffffffffffffffffffffffffff169060200190929190505050611772565b604051808215151515815260200191505060405180910390f35b610789611792565b6040518082815260200191505060405180910390f35b6107a7611798565b005b6107b16117aa565b005b610874600480360360808110156107c957600080fd5b81019080803573ffffffffffffffffffffffffffffffffffffffff16906020019092919080359060200190929190803573ffffffffffffffffffffffffffffffffffffffff1690602001909291908035906020019064010000000081111561083057600080fd5b82018360208201111561084257600080fd5b8035906020019184600183028401116401000000008311171561086457600080fd5b90919293919293905050506118e5565b604051808215151515815260200191505060405180910390f35b610896611942565b005b6108da600480360360208110156108ae57600080fd5b81019080803573ffffffffffffffffffffffffffffffffffffffff169060200190929190505050611a49565b005b6108e4611aba565b005b6108ee611c29565b604051808273ffffffffffffffffffffffffffffffffffffffff1673ffffffffffffffffffffffffffffffffffffffff16815260200191505060405180910390f35b610938611c53565b604051808215151515815260200191505060405180910390f35b61095a611cb2565b604051808273ffffffffffffffffffffffffffffffffffffffff1673ffffffffffffffffffffffffffffffffffffffff16815260200191505060405180910390f35b6109c8600480360360208110156109b257600080fd5b8101908080359060200190929190505050611cd8565b005b6109d2611e99565b604051808215151515815260200191505060405180910390f35b6109f4611eac565b604051808273ffffffffffffffffffffffffffffffffffffffff1673ffffffffffffffffffffffffffffffffffffffff16815260200191505060405180910390f35b610a6260048036036020811015610a4c57600080fd5b8101908080359060200190929190505050611ed2565b604051808215151515815260200191505060405180910390f35b610abe60048036036020811015610a9257600080fd5b81019080803573ffffffffffffffffffffffffffffffffffffffff169060200190929190505050611ef2565b005b610c126004803603610140811015610ad757600080fd5b81019080803573ffffffffffffffffffffffffffffffffffffffff169060200190929190803573ffffffffffffffffffffffffffffffffffffffff1690602001909291908035906020019092919080359060200190640100000000811115610b3e57600080fd5b820183602082011115610b5057600080fd5b80359060200191846001830284011164010000000083111715610b7257600080fd5b90919293919293908035906020019092919080359060200190929190803563ffffffff169060200190929190803560ff1690602001909291908035906020019092919080359060200190640100000000811115610bce57600080fd5b820183602082011115610be057600080fd5b80359060200191846001830284011164010000000083111715610c0257600080fd5b90919293919293905050506120b0565b604051808215151515815260200191505060405180910390f35b610c6e60048036036020811015610c4257600080fd5b81019080803573ffffffffffffffffffffffffffffffffffffffff16906020019092919050505061215e565b604051808273ffffffffffffffffffffffffffffffffffffffff1673ffffffffffffffffffffffffffffffffffffffff16815260200191505060405180910390f35b610cb8612191565b6040518082815260200191505060405180910390f35b610d3e600480360360a0811015610ce457600080fd5b810190808035906020019092919080359060200190929190803573ffffffffffffffffffffffffffffffffffffffff16906020019092919080359060200190929190803563ffffffff169060200190929190505050612197565b6040518082815260200191505060405180910390f35b610d5c612229565b604051808273ffffffffffffffffffffffffffffffffffffffff1673ffffffffffffffffffffffffffffffffffffffff16815260200191505060405180910390f35b610da6612253565b6040518082815260200191505060405180910390f35b610dfe60048036036020811015610dd257600080fd5b81019080803573ffffffffffffffffffffffffffffffffffffffff169060200190929190505050612259565b005b610e4260048036036020811015610e1657600080fd5b81019080803573ffffffffffffffffffffffffffffffffffffffff1690602001909291905050506122df565b604051808273ffffffffffffffffffffffffffffffffffffffff1673ffffffffffffffffffffffffffffffffffffffff16815260200191505060405180910390f35b610ec660048036036020811015610e9a57600080fd5b81019080803573ffffffffffffffffffffffffffffffffffffffff169060200190929190505050612312565b604051808215151515815260200191505060405180910390f35b603460009054906101000a900460ff1615610f63576040517f08c379a00000000000000000000000000000000000000000000000000000000081526004018080602001828103825260108152602001807f5061757361626c653a207061757365640000000000000000000000000000000081525060200191505060405180910390fd5b604060149054906101000a900460ff1615610fe6576040517f08c379a00000000000000000000000000000000000000000000000000000000081526004018080602001828103825260118152602001807f4272696467653a20557067726164696e6700000000000000000000000000000081525060200191505060405180910390fd5b3073ffffffffffffffffffffffffffffffffffffffff168873ffffffffffffffffffffffffffffffffffffffff16141561101f5761111e565b3073ffffffffffffffffffffffffffffffffffffffff168673ffffffffffffffffffffffffffffffffffffffff16146110c0576040517f08c379a00000000000000000000000000000000000000000000000000000000081526004018080602001828103825260168152602001807f4272696467653a204e6f7420746f20616464726573730000000000000000000081525060200191505060405180910390fd5b60006110ca6123a0565b905061111c81898888888080601f016020809104026020016040519081016040528093929190818152602001838380828437600081840152601f19601f820116905080830192505050505050506123a8565b505b5050505050505050565b600061118f8b8b8b8b8b8080601f016020809104026020016040519081016040528093929190818152602001838380828437600081840152601f19601f820116905080830192505050505050508a8a8a8a8a60405180602001604052806000815250612dec565b90509a9950505050505050505050565b6000603754905090565b6111b1611c53565b611223576040517f08c379a00000000000000000000000000000000000000000000000000000000081526004018080602001828103825260208152602001807f4f776e61626c653a2063616c6c6572206973206e6f7420746865206f776e657281525060200191505060405180910390fd5b6001604060146101000a81548160ff0219169083151502179055507f983e436223c000a441c2443b394ca5fb4669a513fe86dc1dd44494047b514ad9604060149054906101000a900460ff16604051808215151515815260200191505060405180910390a1565b611292611c53565b611304576040517f08c379a00000000000000000000000000000000000000000000000000000000081526004018080602001828103825260208152602001807f4f776e61626c653a2063616c6c6572206973206e6f7420746865206f776e657281525060200191505060405180910390fd5b6000604060146101000a81548160ff0219169083151502179055507f983e436223c000a441c2443b394ca5fb4669a513fe86dc1dd44494047b514ad9604060149054906101000a900460ff16604051808215151515815260200191505060405180910390a1565b600061138f838361137a6123a0565b604051806020016040528060008152506134dc565b905092915050565b6113a76113a26123a0565b611593565b6113fc576040517f08c379a00000000000000000000000000000000000000000000000000000000081526004018080602001828103825260288152602001806156d66028913960400191505060405180910390fd5b603460009054906101000a900460ff1661147e576040517f08c379a00000000000000000000000000000000000000000000000000000000081526004018080602001828103825260148152602001807f5061757361626c653a206e6f742070617573656400000000000000000000000081525060200191505060405180910390fd5b6000603460006101000a81548160ff0219169083151502179055507f5db9ee0a495bf2e6ff9c91a7834c1ba4fdd244a5e8aa4e537bd38aeae4b073aa6114c26123a0565b604051808273ffffffffffffffffffffffffffffffffffffffff1673ffffffffffffffffffffffffffffffffffffffff16815260200191505060405180910390a1565b600061150f611c53565b611581576040517f08c379a00000000000000000000000000000000000000000000000000000000081526004018080602001828103825260208152602001807f4f776e61626c653a2063616c6c6572206973206e6f7420746865206f776e657281525060200191505060405180910390fd5b61158a826136a3565b60019050919050565b60006115a98260336137d090919063ffffffff16565b9050919050565b600080603a54905062015180603954014211156115cc57600090505b603f60009054906101000a900473ffffffffffffffffffffffffffffffffffffffff1673ffffffffffffffffffffffffffffffffffffffff1663680dc640826040518263ffffffff1660e01b81526004018082815260200191505060206040518083038186803b15801561163f57600080fd5b505afa158015611653573d6000803e3d6000fd5b505050506040513d602081101561166957600080fd5b810190808051906020019092919050505091505090565b60606040518060400160405280600281526020017f7632000000000000000000000000000000000000000000000000000000000000815250905090565b60388054600181600116156101000203166002900480601f0160208091040260200160405190810160405280929190818152602001828054600181600116156101000203166002900480156117535780601f1061172857610100808354040283529160200191611753565b820191906000526020600020905b81548152906001019060200180831161173657829003601f168201915b505050505081565b6000603460009054906101000a900460ff16905090565b603d6020528060005260406000206000915054906101000a900460ff1681565b60395481565b6117a86117a36123a0565b6138ae565b565b6117b2611c53565b611824576040517f08c379a00000000000000000000000000000000000000000000000000000000081526004018080602001828103825260208152602001807f4f776e61626c653a2063616c6c6572206973206e6f7420746865206f776e657281525060200191505060405180910390fd5b600073ffffffffffffffffffffffffffffffffffffffff16603460019054906101000a900473ffffffffffffffffffffffffffffffffffffffff1673ffffffffffffffffffffffffffffffffffffffff167f8be0079c531659141344cd1fd0a4f28419497f9722a3daafe3b4186f6b6457e060405160405180910390a36000603460016101000a81548173ffffffffffffffffffffffffffffffffffffffff021916908373ffffffffffffffffffffffffffffffffffffffff160217905550565b600061193786868686868080601f016020809104026020016040519081016040528093929190818152602001838380828437600081840152601f19601f820116905080830192505050505050506134dc565b905095945050505050565b600060019054906101000a900460ff16806119615750611960613908565b5b8061197857506000809054906101000a900460ff16155b6119cd576040517f08c379a00000000000000000000000000000000000000000000000000000000081526004018080602001828103825260288152602001806156ae6028913960400191505060405180910390fd5b60008060019054906101000a900460ff161590508015611a1d576001600060016101000a81548160ff02191690831515021790555060016000806101000a81548160ff0219169083151502179055505b60016035819055508015611a465760008060016101000a81548160ff0219169083151502179055505b50565b611a59611a546123a0565b611593565b611aae576040517f08c379a00000000000000000000000000000000000000000000000000000000081526004018080602001828103825260288152602001806156d66028913960400191505060405180910390fd5b611ab781613919565b50565b611aca611ac56123a0565b611593565b611b1f576040517f08c379a00000000000000000000000000000000000000000000000000000000081526004018080602001828103825260288152602001806156d66028913960400191505060405180910390fd5b603460009054906101000a900460ff1615611ba2576040517f08c379a00000000000000000000000000000000000000000000000000000000081526004018080602001828103825260108152602001807f5061757361626c653a207061757365640000000000000000000000000000000081525060200191505060405180910390fd5b6001603460006101000a81548160ff0219169083151502179055507f62e78cea01bee320cd4e420270b5ea74000d11b0c9f74754ebdbfc544b05a258611be66123a0565b604051808273ffffffffffffffffffffffffffffffffffffffff1673ffffffffffffffffffffffffffffffffffffffff16815260200191505060405180910390a1565b6000603460019054906101000a900473ffffffffffffffffffffffffffffffffffffffff16905090565b6000603460019054906101000a900473ffffffffffffffffffffffffffffffffffffffff1673ffffffffffffffffffffffffffffffffffffffff16611c966123a0565b73ffffffffffffffffffffffffffffffffffffffff1614905090565b603f60009054906101000a900473ffffffffffffffffffffffffffffffffffffffff1681565b611ce0611c53565b611d52576040517f08c379a00000000000000000000000000000000000000000000000000000000081526004018080602001828103825260208152602001807f4f776e61626c653a2063616c6c6572206973206e6f7420746865206f776e657281525060200191505060405180910390fd5b603460009054906101000a900460ff1615611dd5576040517f08c379a00000000000000000000000000000000000000000000000000000000081526004018080602001828103825260108152602001807f5061757361626c653a207061757365640000000000000000000000000000000081525060200191505060405180910390fd5b600a61271081611de157fe5b048110611e56576040517f08c379a00000000000000000000000000000000000000000000000000000000081526004018080602001828103825260178152602001807f4272696467653a20626967676572207468616e2031302500000000000000000081525060200191505060405180910390fd5b806037819055507f97e97c577f03bda90e2c9739011ec065ed5fbfb36ae217d20bb0d9be95e160cd6037546040518082815260200191505060405180910390a150565b604060149054906101000a900460ff1681565b604060009054906101000a900473ffffffffffffffffffffffffffffffffffffffff1681565b603e6020528060005260406000206000915054906101000a900460ff1681565b600060019054906101000a900460ff1680611f115750611f10613908565b5b80611f2857506000809054906101000a900460ff16155b611f7d576040517f08c379a00000000000000000000000000000000000000000000000000000000081526004018080602001828103825260288152602001806156ae6028913960400191505060405180910390fd5b60008060019054906101000a900460ff161590508015611fcd576001600060016101000a81548160ff02191690831515021790555060016000806101000a81548160ff0219169083151502179055505b81603460016101000a81548173ffffffffffffffffffffffffffffffffffffffff021916908373ffffffffffffffffffffffffffffffffffffffff160217905550603460019054906101000a900473ffffffffffffffffffffffffffffffffffffffff1673ffffffffffffffffffffffffffffffffffffffff16600073ffffffffffffffffffffffffffffffffffffffff167f8be0079c531659141344cd1fd0a4f28419497f9722a3daafe3b4186f6b6457e060405160405180910390a380156120ac5760008060016101000a81548160ff0219169083151502179055505b5050565b600061214c8d8d8d8d8d8080601f016020809104026020016040519081016040528093929190818152602001838380828437600081840152601f19601f820116905080830192505050505050508c8c8c8c8c8c8c8080601f016020809104026020016040519081016040528093929190818152602001838380828437600081840152601f19601f82011690508083019250505050505050612dec565b90509c9b505050505050505050505050565b603b6020528060005260406000206000915054906101000a900473ffffffffffffffffffffffffffffffffffffffff1681565b61271081565b60008585858585604051602001808681526020018581526020018473ffffffffffffffffffffffffffffffffffffffff1673ffffffffffffffffffffffffffffffffffffffff1660601b81526014018381526020018263ffffffff1663ffffffff1660e01b81526004019550505050505060405160208183030381529060405280519060200120905095945050505050565b6000603660009054906101000a900473ffffffffffffffffffffffffffffffffffffffff16905090565b603a5481565b612261611c53565b6122d3576040517f08c379a00000000000000000000000000000000000000000000000000000000081526004018080602001828103825260208152602001807f4f776e61626c653a2063616c6c6572206973206e6f7420746865206f776e657281525060200191505060405180910390fd5b6122dc81613973565b50565b603c6020528060005260406000206000915054906101000a900473ffffffffffffffffffffffffffffffffffffffff1681565b600061231c611c53565b61238e576040517f08c379a00000000000000000000000000000000000000000000000000000000081526004018080602001828103825260208152602001807f4f776e61626c653a2063616c6c6572206973206e6f7420746865206f776e657281525060200191505060405180910390fd5b61239782613ab9565b60019050919050565b600033905090565b60008073ffffffffffffffffffffffffffffffffffffffff16603c60008773ffffffffffffffffffffffffffffffffffffffff1673ffffffffffffffffffffffffffffffffffffffff16815260200190815260200160002060009054906101000a900473ffffffffffffffffffffffffffffffffffffffff1673ffffffffffffffffffffffffffffffffffffffff1614159050600061246661271061245860375487613c2590919063ffffffff16565b613cab90919063ffffffff16565b9050600061247d8286613cf590919063ffffffff16565b9050821561254857600061251a8873ffffffffffffffffffffffffffffffffffffffff1663556f0dc76040518163ffffffff1660e01b815260040160206040518083038186803b1580156124d057600080fd5b505afa1580156124e4573d6000803e3d6000fd5b505050506040513d60208110156124fa57600080fd5b810190808051906020019092919050505083613d3f90919063ffffffff16565b905061252f8184613d8990919063ffffffff16565b92506125448183613cf590919063ffffffff16565b9150505b60008211156125845761258361255c611c29565b838973ffffffffffffffffffffffffffffffffffffffff16613e119092919063ffffffff16565b5b8215612a6457612595878685613ee2565b8673ffffffffffffffffffffffffffffffffffffffff1663fe9d930382866040518363ffffffff1660e01b81526004018083815260200180602001828103825283818151815260200191508051906020019080838360005b838110156126085780820151818401526020810190506125ed565b50505050905090810190601f1680156126355780820380516001836020036101000a031916815260200191505b509350505050600060405180830381600087803b15801561265557600080fd5b505af1158015612669573d6000803e3d6000fd5b505050508573ffffffffffffffffffffffffffffffffffffffff16603c60008973ffffffffffffffffffffffffffffffffffffffff1673ffffffffffffffffffffffffffffffffffffffff16815260200190815260200160002060009054906101000a900473ffffffffffffffffffffffffffffffffffffffff1673ffffffffffffffffffffffffffffffffffffffff167f33409cca56f705a7bbed38b7db57cf3a63317f3c1b9a747bbfb3d3ecffa84f6f838a73ffffffffffffffffffffffffffffffffffffffff166395d89b416040518163ffffffff1660e01b815260040160006040518083038186803b15801561276257600080fd5b505afa158015612776573d6000803e3d6000fd5b505050506040513d6000823e3d601f19601f8201168201806040525060208110156127a057600080fd5b81019080805160405193929190846401000000008211156127c057600080fd5b838201915060208201858111156127d657600080fd5b82518660018202830111640100000000821117156127f357600080fd5b8083526020830192505050908051906020019080838360005b8381101561282757808201518184015260208101905061280c565b50505050905090810190601f1680156128545780820380516001836020036101000a031916815260200191505b50604052505050888c73ffffffffffffffffffffffffffffffffffffffff1663313ce5676040518163ffffffff1660e01b815260040160206040518083038186803b1580156128a257600080fd5b505afa1580156128b6573d6000803e3d6000fd5b505050506040513d60208110156128cc57600080fd5b81019080805190602001909291905050508d73ffffffffffffffffffffffffffffffffffffffff1663556f0dc76040518163ffffffff1660e01b815260040160206040518083038186803b15801561292357600080fd5b505afa158015612937573d6000803e3d6000fd5b505050506040513d602081101561294d57600080fd5b81019080805190602001909291905050506040518086815260200180602001806020018560ff1660ff168152602001848152602001838103835287818151815260200191508051906020019080838360005b838110156129ba57808201518184015260208101905061299f565b50505050905090810190601f1680156129e75780820380516001836020036101000a031916815260200191505b50838103825286818151815260200191508051906020019080838360005b83811015612a20578082015181840152602081019050612a05565b50505050905090810190601f168015612a4d5780820380516001836020036101000a031916815260200191505b5097505050505050505060405180910390a3612de3565b6001603d60008973ffffffffffffffffffffffffffffffffffffffff1673ffffffffffffffffffffffffffffffffffffffff16815260200190815260200160002060006101000a81548160ff021916908315150217905550600080606073__Utils_________________________________631f69565f8b6040518263ffffffff1660e01b8152600401808273ffffffffffffffffffffffffffffffffffffffff1673ffffffffffffffffffffffffffffffffffffffff16815260200191505060006040518083038186803b158015612b3c57600080fd5b505af4158015612b50573d6000803e3d6000fd5b505050506040513d6000823e3d601f19601f820116820180604052506060811015612b7a57600080fd5b81019080805190602001909291908051906020019092919080516040519392919084640100000000821115612bae57600080fd5b83820191506020820185811115612bc457600080fd5b8251866001820283011164010000000082111715612be157600080fd5b8083526020830192505050908051906020019080838360005b83811015612c15578082015181840152602081019050612bfa565b50505050905090810190601f168015612c425780820380516001836020036101000a031916815260200191505b50604052505050925092509250600088905060128460ff1614612c7e57612c7b8460120360ff16600a0a8a613c2590919063ffffffff16565b90505b612c898b8289613ee2565b8973ffffffffffffffffffffffffffffffffffffffff168b73ffffffffffffffffffffffffffffffffffffffff167f33409cca56f705a7bbed38b7db57cf3a63317f3c1b9a747bbfb3d3ecffa84f6f87858c89896040518086815260200180602001806020018560ff1660ff168152602001848152602001838103835287818151815260200191508051906020019080838360005b83811015612d39578082015181840152602081019050612d1e565b50505050905090810190601f168015612d665780820380516001836020036101000a031916815260200191505b50838103825286818151815260200191508051906020019080838360005b83811015612d9f578082015181840152602081019050612d84565b50505050905090810190601f168015612dcc5780820380516001836020036101000a031916815260200191505b5097505050505050505060405180910390a3505050505b50505050505050565b6000603660009054906101000a900473ffffffffffffffffffffffffffffffffffffffff1673ffffffffffffffffffffffffffffffffffffffff163373ffffffffffffffffffffffffffffffffffffffff1614612eb1576040517f08c379a000000000000000000000000000000000000000000000000000000000815260040180806020018281038252601d8152602001807f4272696467653a2053656e646572206e6f742046656465726174696f6e00000081525060200191505060405180910390fd5b603460009054906101000a900460ff1615612f34576040517f08c379a00000000000000000000000000000000000000000000000000000000081526004018080602001828103825260108152602001807f5061757361626c653a207061757365640000000000000000000000000000000081525060200191505060405180910390fd5b600160356000828254019250508190555060006035549050600073ffffffffffffffffffffffffffffffffffffffff168c73ffffffffffffffffffffffffffffffffffffffff161415612fef576040517f08c379a00000000000000000000000000000000000000000000000000000000081526004018080602001828103825260158152602001807f4272696467653a20546f6b656e206973206e756c6c000000000000000000000081525060200191505060405180910390fd5b600073ffffffffffffffffffffffffffffffffffffffff168b73ffffffffffffffffffffffffffffffffffffffff161415613092576040517f08c379a00000000000000000000000000000000000000000000000000000000081526004018080602001828103825260188152602001807f4272696467653a205265636569766572206973206e756c6c000000000000000081525060200191505060405180910390fd5b60008a11613108576040517f08c379a00000000000000000000000000000000000000000000000000000000081526004018080602001828103825260108152602001807f4272696467653a20416d6f756e7420300000000000000000000000000000000081525060200191505060405180910390fd5b600089511161317f576040517f08c379a00000000000000000000000000000000000000000000000000000000081526004018080602001828103825260148152602001807f4272696467653a20456d7074792073796d626f6c00000000000000000000000081525060200191505060405180910390fd5b6000801b8814156131f8576040517f08c379a00000000000000000000000000000000000000000000000000000000081526004018080602001828103825260198152602001807f4272696467653a20426c6f636b48617368206973206e756c6c0000000000000081525060200191505060405180910390fd5b6000801b871415613271576040517f08c379a000000000000000000000000000000000000000000000000000000000815260040180806020018281038252601b8152602001807f4272696467653a205472616e73616374696f6e206973206e756c6c000000000081525060200191505060405180910390fd5b60128560ff1611156132eb576040517f08c379a000000000000000000000000000000000000000000000000000000000815260040180806020018281038252601a8152602001807f4272696467653a20446563696d616c732062696767657220313800000000000081525060200191505060405180910390fd5b601273__Utils_________________________________6319bd2045866040518263ffffffff1660e01b81526004018082815260200191505060206040518083038186803b15801561333c57600080fd5b505af4158015613350573d6000803e3d6000fd5b505050506040513d602081101561336657600080fd5b810190808051906020019092919050505060ff1611156133ee576040517f08c379a000000000000000000000000000000000000000000000000000000000815260040180806020018281038252601b8152602001807f4272696467653a20696e76616c6964206772616e756c6172697479000000000081525060200191505060405180910390fd5b6133fb88888d8d8a61408b565b603d60008d73ffffffffffffffffffffffffffffffffffffffff1673ffffffffffffffffffffffffffffffffffffffff16815260200190815260200160002060009054906101000a900460ff161561345f5761345a8b8d87878e614164565b61346f565b61346e8b8d87878e8e89614378565b5b6001915060355481146134cd576040517f08c379a00000000000000000000000000000000000000000000000000000000081526004018080602001828103825260258152602001806156896025913960400191505060405180910390fd5b509a9950505050505050505050565b6000604060149054906101000a900460ff1615613561576040517f08c379a00000000000000000000000000000000000000000000000000000000081526004018080602001828103825260118152602001807f4272696467653a20557067726164696e6700000000000000000000000000000081525060200191505060405180910390fd5b603460009054906101000a900460ff16156135e4576040517f08c379a00000000000000000000000000000000000000000000000000000000081526004018080602001828103825260108152602001807f5061757361626c653a207061757365640000000000000000000000000000000081525060200191505060405180910390fd5b6001603560008282540192505081905550600060355490506136306136076123a0565b30878973ffffffffffffffffffffffffffffffffffffffff16614a8e909392919063ffffffff16565b61363c868587866123a8565b60019150603554811461369a576040517f08c379a00000000000000000000000000000000000000000000000000000000081526004018080602001828103825260258152602001806156896025913960400191505060405180910390fd5b50949350505050565b600073ffffffffffffffffffffffffffffffffffffffff168173ffffffffffffffffffffffffffffffffffffffff161415613729576040517f08c379a00000000000000000000000000000000000000000000000000000000081526004018080602001828103825260218152602001806157216021913960400191505060405180910390fd5b80604060006101000a81548173ffffffffffffffffffffffffffffffffffffffff021916908373ffffffffffffffffffffffffffffffffffffffff1602179055507f619936bc6e3618d0b8dc69bcc70134fe9d88f9967f3a8b8304e318369252162581604051808273ffffffffffffffffffffffffffffffffffffffff1673ffffffffffffffffffffffffffffffffffffffff16815260200191505060405180910390a150565b60008073ffffffffffffffffffffffffffffffffffffffff168273ffffffffffffffffffffffffffffffffffffffff161415613857576040517f08c379a00000000000000000000000000000000000000000000000000000000081526004018080602001828103825260228152602001806157636022913960400191505060405180910390fd5b8260000160008373ffffffffffffffffffffffffffffffffffffffff1673ffffffffffffffffffffffffffffffffffffffff16815260200190815260200160002060009054906101000a900460ff16905092915050565b6138c2816033614b9490919063ffffffff16565b8073ffffffffffffffffffffffffffffffffffffffff167fcd265ebaf09df2871cc7bd4133404a235ba12eff2041bb89d9c714a2621c7c7e60405160405180910390a250565b600080303b90506000811491505090565b61392d816033614c6e90919063ffffffff16565b8073ffffffffffffffffffffffffffffffffffffffff167f6719d08c1888103bea251a4ed56406bd0c3e69723c8a1686e017e7bbe159b6f860405160405180910390a250565b600073ffffffffffffffffffffffffffffffffffffffff168173ffffffffffffffffffffffffffffffffffffffff1614156139f9576040517f08c379a00000000000000000000000000000000000000000000000000000000081526004018080602001828103825260228152602001806157856022913960400191505060405180910390fd5b8073ffffffffffffffffffffffffffffffffffffffff16603460019054906101000a900473ffffffffffffffffffffffffffffffffffffffff1673ffffffffffffffffffffffffffffffffffffffff167f8be0079c531659141344cd1fd0a4f28419497f9722a3daafe3b4186f6b6457e060405160405180910390a380603460016101000a81548173ffffffffffffffffffffffffffffffffffffffff021916908373ffffffffffffffffffffffffffffffffffffffff16021790555050565b600073ffffffffffffffffffffffffffffffffffffffff168173ffffffffffffffffffffffffffffffffffffffff161415613b5c576040517f08c379a000000000000000000000000000000000000000000000000000000000815260040180806020018281038252601b8152602001807f4272696467653a2046656465726174696f6e20697320656d707479000000000081525060200191505060405180910390fd5b80603660006101000a81548173ffffffffffffffffffffffffffffffffffffffff021916908373ffffffffffffffffffffffffffffffffffffffff1602179055507f4a41a4d11aaf0c0c9e4311ac1d68b2b0134556da594779a2a35b0ddf7cd1eafb603660009054906101000a900473ffffffffffffffffffffffffffffffffffffffff16604051808273ffffffffffffffffffffffffffffffffffffffff1673ffffffffffffffffffffffffffffffffffffffff16815260200191505060405180910390a150565b600080831415613c385760009050613ca5565b6000828402905082848281613c4957fe5b0414613ca0576040517f08c379a00000000000000000000000000000000000000000000000000000000081526004018080602001828103825260218152602001806157426021913960400191505060405180910390fd5b809150505b92915050565b6000613ced83836040518060400160405280601a81526020017f536166654d6174683a206469766973696f6e206279207a65726f000000000000815250614d49565b905092915050565b6000613d3783836040518060400160405280601e81526020017f536166654d6174683a207375627472616374696f6e206f766572666c6f770000815250614e0f565b905092915050565b6000613d8183836040518060400160405280601881526020017f536166654d6174683a206d6f64756c6f206279207a65726f0000000000000000815250614ecf565b905092915050565b600080828401905083811015613e07576040517f08c379a000000000000000000000000000000000000000000000000000000000815260040180806020018281038252601b8152602001807f536166654d6174683a206164646974696f6e206f766572666c6f77000000000081525060200191505060405180910390fd5b8091505092915050565b613edd838473ffffffffffffffffffffffffffffffffffffffff1663a9059cbb905060e01b8484604051602401808373ffffffffffffffffffffffffffffffffffffffff1673ffffffffffffffffffffffffffffffffffffffff16815260200182815260200192505050604051602081830303815290604052907bffffffffffffffffffffffffffffffffffffffffffffffffffffffff19166020820180517bffffffffffffffffffffffffffffffffffffffffffffffffffffffff8381831617835250505050614f90565b505050565b6201518060395401421115613f0157426039819055506000603a819055505b603f60009054906101000a900473ffffffffffffffffffffffffffffffffffffffff1673ffffffffffffffffffffffffffffffffffffffff16639a4819bc8484603a54856040518563ffffffff1660e01b8152600401808573ffffffffffffffffffffffffffffffffffffffff1673ffffffffffffffffffffffffffffffffffffffff1681526020018481526020018381526020018215151515815260200194505050505060206040518083038186803b158015613fbe57600080fd5b505afa158015613fd2573d6000803e3d6000fd5b505050506040513d6020811015613fe857600080fd5b810190808051906020019092919050505061406b576040517f08c379a00000000000000000000000000000000000000000000000000000000081526004018080602001828103825260198152602001807f4272696467653a20426967676572207468616e206c696d69740000000000000081525060200191505060405180910390fd5b61408082603a54613d8990919063ffffffff16565b603a81905550505050565b600061409a8686868686612197565b9050603e600082815260200190815260200160002060009054906101000a900460ff1615614130576040517f08c379a00000000000000000000000000000000000000000000000000000000081526004018080602001828103825260198152602001807f4272696467653a20416c72656164792070726f6365737365640000000000000081525060200191505060405180910390fd5b6001603e600083815260200190815260200160002060006101000a81548160ff021916908315150217905550505050505050565b60128360ff16146141c0576040517f08c379a00000000000000000000000000000000000000000000000000000000081526004018080602001828103825260238152602001806156fe6023913960400191505060405180910390fd5b60008073__Utils_________________________________63dc98f6b78786866040518463ffffffff1660e01b8152600401808473ffffffffffffffffffffffffffffffffffffffff1673ffffffffffffffffffffffffffffffffffffffff1681526020018381526020018281526020019350505050604080518083038186803b15801561424d57600080fd5b505af4158015614261573d6000803e3d6000fd5b505050506040513d604081101561427757600080fd5b810190808051906020019092919080519060200190929190505050915091506142c187828873ffffffffffffffffffffffffffffffffffffffff16613e119092919063ffffffff16565b8673ffffffffffffffffffffffffffffffffffffffff168673ffffffffffffffffffffffffffffffffffffffff167f3f11277de1ec7e6084b80bb080be00fd989d3e5d233d77504a7426511f5452f285888886886001604051808781526020018660ff1660ff1681526020018581526020018481526020018360ff1660ff1681526020018281526020018060200182810382526000815260200160200197505050505050505060405180910390a350505050505050565b60008073__Utils_________________________________63db8a2e3c8888886040518463ffffffff1660e01b8152600401808460ff1660ff1681526020018381526020018281526020019350505050604080518083038186803b1580156143df57600080fd5b505af41580156143f3573d6000803e3d6000fd5b505050506040513d604081101561440957600080fd5b810190808051906020019092919080519060200190929190505050915091506000603b60008a73ffffffffffffffffffffffffffffffffffffffff1673ffffffffffffffffffffffffffffffffffffffff16815260200190815260200160002060009054906101000a900473ffffffffffffffffffffffffffffffffffffffff169050600073ffffffffffffffffffffffffffffffffffffffff168173ffffffffffffffffffffffffffffffffffffffff1614156144d3576144cc8986856151db565b90506145ac565b8073ffffffffffffffffffffffffffffffffffffffff1663556f0dc76040518163ffffffff1660e01b815260040160206040518083038186803b15801561451957600080fd5b505afa15801561452d573d6000803e3d6000fd5b505050506040513d602081101561454357600080fd5b810190808051906020019092919050505083146145ab576040517f08c379a000000000000000000000000000000000000000000000000000000000815260040180806020018281038252602a81526020018061565f602a913960400191505060405180910390fd5b5b8073ffffffffffffffffffffffffffffffffffffffff1663dcdc7dd08b84876040518463ffffffff1660e01b8152600401808473ffffffffffffffffffffffffffffffffffffffff1673ffffffffffffffffffffffffffffffffffffffff1681526020018381526020018060200180602001838103835284818151815260200191508051906020019080838360005b8381101561465657808201518184015260208101905061463b565b50505050905090810190601f1680156146835780820380516001836020036101000a031916815260200191505b5083810382526000815260200160200195505050505050600060405180830381600087803b1580156146b457600080fd5b505af11580156146c8573d6000803e3d6000fd5b505050506146eb8a73ffffffffffffffffffffffffffffffffffffffff16615613565b1561497e57600060608b73ffffffffffffffffffffffffffffffffffffffff16848488604051602401808481526020018373ffffffffffffffffffffffffffffffffffffffff1673ffffffffffffffffffffffffffffffffffffffff16815260200180602001828103825283818151815260200191508051906020019080838360005b8381101561478957808201518184015260208101905061476e565b50505050905090810190601f1680156147b65780820380516001836020036101000a031916815260200191505b509450505050506040516020818303038152906040527fc4a58637000000000000000000000000000000000000000000000000000000007bffffffffffffffffffffffffffffffffffffffffffffffffffffffff19166020820180517bffffffffffffffffffffffffffffffffffffffffffffffffffffffff83818316178352505050506040518082805190602001908083835b6020831061486d578051825260208201915060208101905060208303925061484a565b6001836020036101000a0380198251168184511680821785525050505050509050019150506000604051808303816000865af19150503d80600081146148cf576040519150601f19603f3d011682016040523d82523d6000602084013e6148d4565b606091505b50915091508161497b577f64de857e027e5e94a8966c5707d2a9424097c78b217caf33543f84c2332483a1816040518080602001828103825283818151815260200191508051906020019080838360005b83811015614940578082015181840152602081019050614925565b50505050905090810190601f16801561496d5780820380516001836020036101000a031916815260200191505b509250505060405180910390a15b50505b8973ffffffffffffffffffffffffffffffffffffffff168973ffffffffffffffffffffffffffffffffffffffff167f3f11277de1ec7e6084b80bb080be00fd989d3e5d233d77504a7426511f5452f2888b8b8760128a8c604051808881526020018760ff1660ff1681526020018681526020018581526020018460ff16815260200183815260200180602001828103825283818151815260200191508051906020019080838360005b83811015614a42578082015181840152602081019050614a27565b50505050905090810190601f168015614a6f5780820380516001836020036101000a031916815260200191505b509850505050505050505060405180910390a350505050505050505050565b614b8e848573ffffffffffffffffffffffffffffffffffffffff166323b872dd905060e01b858585604051602401808473ffffffffffffffffffffffffffffffffffffffff1673ffffffffffffffffffffffffffffffffffffffff1681526020018373ffffffffffffffffffffffffffffffffffffffff1673ffffffffffffffffffffffffffffffffffffffff1681526020018281526020019350505050604051602081830303815290604052907bffffffffffffffffffffffffffffffffffffffffffffffffffffffff19166020820180517bffffffffffffffffffffffffffffffffffffffffffffffffffffffff8381831617835250505050614f90565b50505050565b614b9e82826137d0565b614c10576040517f08c379a00000000000000000000000000000000000000000000000000000000081526004018080602001828103825260208152602001807f526f6c65733a206163636f756e7420646f65736e2774206861766520726f6c6581525060200191505060405180910390fd5b60008260000160008373ffffffffffffffffffffffffffffffffffffffff1673ffffffffffffffffffffffffffffffffffffffff16815260200190815260200160002060006101000a81548160ff0219169083151502179055505050565b614c7882826137d0565b15614ceb576040517f08c379a000000000000000000000000000000000000000000000000000000000815260040180806020018281038252601f8152602001807f526f6c65733a206163636f756e7420616c72656164792068617320726f6c650081525060200191505060405180910390fd5b60018260000160008373ffffffffffffffffffffffffffffffffffffffff1673ffffffffffffffffffffffffffffffffffffffff16815260200190815260200160002060006101000a81548160ff0219169083151502179055505050565b60008083118290614df5576040517f08c379a00000000000000000000000000000000000000000000000000000000081526004018080602001828103825283818151815260200191508051906020019080838360005b83811015614dba578082015181840152602081019050614d9f565b50505050905090810190601f168015614de75780820380516001836020036101000a031916815260200191505b509250505060405180910390fd5b506000838581614e0157fe5b049050809150509392505050565b6000838311158290614ebc576040517f08c379a00000000000000000000000000000000000000000000000000000000081526004018080602001828103825283818151815260200191508051906020019080838360005b83811015614e81578082015181840152602081019050614e66565b50505050905090810190601f168015614eae5780820380516001836020036101000a031916815260200191505b509250505060405180910390fd5b5060008385039050809150509392505050565b6000808314158290614f7c576040517f08c379a00000000000000000000000000000000000000000000000000000000081526004018080602001828103825283818151815260200191508051906020019080838360005b83811015614f41578082015181840152602081019050614f26565b50505050905090810190601f168015614f6e5780820380516001836020036101000a031916815260200191505b509250505060405180910390fd5b50828481614f8657fe5b0690509392505050565b614faf8273ffffffffffffffffffffffffffffffffffffffff16615613565b615021576040517f08c379a000000000000000000000000000000000000000000000000000000000815260040180806020018281038252601f8152602001807f5361666545524332303a2063616c6c20746f206e6f6e2d636f6e74726163740081525060200191505060405180910390fd5b600060608373ffffffffffffffffffffffffffffffffffffffff16836040518082805190602001908083835b60208310615070578051825260208201915060208101905060208303925061504d565b6001836020036101000a0380198251168184511680821785525050505050509050019150506000604051808303816000865af19150503d80600081146150d2576040519150601f19603f3d011682016040523d82523d6000602084013e6150d7565b606091505b50915091508161514f576040517f08c379a00000000000000000000000000000000000000000000000000000000081526004018080602001828103825260208152602001807f5361666545524332303a206c6f772d6c6576656c2063616c6c206661696c656481525060200191505060405180910390fd5b6000815111156151d55780806020019051602081101561516e57600080fd5b81019080805190602001909291905050506151d4576040517f08c379a000000000000000000000000000000000000000000000000000000000815260040180806020018281038252602a8152602001806157a7602a913960400191505060405180910390fd5b5b50505050565b600060608360386040516020018083805190602001908083835b6020831061521857805182526020820191506020810190506020830392506151f5565b6001836020036101000a038019825116818451168082178552505050505050905001828054600181600116156101000203166002900480156152915780601f1061526f576101008083540402835291820191615291565b820191906000526020600020905b81548152906001019060200180831161527d575b50509250505060405160208183030381529060405290506000604060009054906101000a900473ffffffffffffffffffffffffffffffffffffffff1673ffffffffffffffffffffffffffffffffffffffff166326d9e9638384876040518463ffffffff1660e01b8152600401808060200180602001848152602001838103835286818151815260200191508051906020019080838360005b83811015615344578082015181840152602081019050615329565b50505050905090810190601f1680156153715780820380516001836020036101000a031916815260200191505b50838103825285818151815260200191508051906020019080838360005b838110156153aa57808201518184015260208101905061538f565b50505050905090810190601f1680156153d75780820380516001836020036101000a031916815260200191505b5095505050505050602060405180830381600087803b1580156153f957600080fd5b505af115801561540d573d6000803e3d6000fd5b505050506040513d602081101561542357600080fd5b8101908080519060200190929190505050905080925082603b60008873ffffffffffffffffffffffffffffffffffffffff1673ffffffffffffffffffffffffffffffffffffffff16815260200190815260200160002060006101000a81548173ffffffffffffffffffffffffffffffffffffffff021916908373ffffffffffffffffffffffffffffffffffffffff16021790555085603c60008373ffffffffffffffffffffffffffffffffffffffff1673ffffffffffffffffffffffffffffffffffffffff16815260200190815260200160002060006101000a81548173ffffffffffffffffffffffffffffffffffffffff021916908373ffffffffffffffffffffffffffffffffffffffff1602179055508573ffffffffffffffffffffffffffffffffffffffff168173ffffffffffffffffffffffffffffffffffffffff167f2ef93c4e96a4ef0b19497ff60c9e7360a8734f3d2cd27ae5318e43851734d17f84876040518080602001838152602001828103825284818151815260200191508051906020019080838360005b838110156155cc5780820151818401526020810190506155b1565b50505050905090810190601f1680156155f95780820380516001836020036101000a031916815260200191505b50935050505060405180910390a382925050509392505050565b60008060007fc5d2460186f7233c927e7db2dcc703c0e500b653ca82273b7bfad8045d85a47060001b9050833f915080821415801561565557506000801b8214155b9250505091905056fe4272696467653a204772616e756c6172697479206469666665722066726f6d207369646520746f6b656e5265656e7472616e637947756172643a206e6f207265656e7472616e7420616c6c6f776564436f6e747261637420696e7374616e636520697320616c726561647920696e697469616c697a6564506175736572526f6c653a2063616c6c657220646f65736e277420686176652074686520726f6c654272696467653a20496e76616c696420646563696d616c732063726f7373206261636b4272696467653a2053696465546f6b656e466163746f727920697320656d707479536166654d6174683a206d756c7469706c69636174696f6e206f766572666c6f77526f6c65733a206163636f756e7420697320746865207a65726f20616464726573734f776e61626c653a206e6577206f776e6572206973207a65726f20616464726573735361666545524332303a204552433230206f7065726174696f6e20646964206e6f742073756363656564a265627a7a72315820a88abe48c730238be1940b39490dadd6c5eb500bff2c2fcd688a7ab401c03d5164736f6c63430005110032",
  "source": "pragma solidity ^0.5.0;\n\n// Import base Initializable contract\nimport \"./zeppelin/upgradable/Initializable.sol\";\n// Import interface and library from OpenZeppelin contracts\nimport \"./zeppelin/upgradable/utils/ReentrancyGuard.sol\";\nimport \"./zeppelin/upgradable/lifecycle/UpgradablePausable.sol\";\nimport \"./zeppelin/upgradable/ownership/UpgradableOwnable.sol\";\n\nimport \"./zeppelin/introspection/IERC1820Registry.sol\";\nimport \"./zeppelin/token/ERC777/IERC777Recipient.sol\";\nimport \"./zeppelin/token/ERC20/IERC20.sol\";\nimport \"./zeppelin/token/ERC20/SafeERC20.sol\";\nimport \"./zeppelin/utils/Address.sol\";\nimport \"./zeppelin/math/SafeMath.sol\";\n\nimport \"./IBridge.sol\";\nimport \"./ISideToken.sol\";\nimport \"./ISideTokenFactory.sol\";\nimport \"./AllowTokens.sol\";\nimport \"./Utils.sol\";\n\ncontract Bridge is Initializable, IBridge, IERC777Recipient, UpgradablePausable, UpgradableOwnable, ReentrancyGuard {\n    using SafeMath for uint256;\n    using SafeERC20 for IERC20;\n    using Address for address;\n\n    address constant private NULL_ADDRESS = address(0);\n    bytes32 constant private NULL_HASH = bytes32(0);\n    IERC1820Registry constant private erc1820 = IERC1820Registry(0x1820a4B7618BdE71Dce8cdc73aAB6C95905faD24);\n\n    address private federation;\n    uint256 private feePercentage;\n    string public symbolPrefix;\n    uint256 public lastDay;\n    uint256 public spentToday;\n\n    mapping (address => ISideToken) public mappedTokens; // OirignalToken => SideToken\n    mapping (address => address) public originalTokens; // SideToken => OriginalToken\n    mapping (address => bool) public knownTokens; // OriginalToken => true\n    mapping(bytes32 => bool) public processed; // ProcessedHash => true\n    AllowTokens public allowTokens;\n    ISideTokenFactory public sideTokenFactory;\n    //Bridge_v1 variables\n    bool public isUpgrading;\n    uint256 constant public feePercentageDivider = 10000; // Porcentage with up to 2 decimals\n    bool private alreadyRun;\n\n    event FederationChanged(address _newFederation);\n    event SideTokenFactoryChanged(address _newSideTokenFactory);\n    event Upgrading(bool isUpgrading);\n\n// We are not using this initializer anymore because we are upgrading.\n//    function initialize(\n//        address _manager,\n//        address _federation,\n//        address _allowTokens,\n//        address _sideTokenFactory,\n//        string memory _symbolPrefix\n//    ) public initializer {\n//        UpgradableOwnable.initialize(_manager);\n//        UpgradablePausable.initialize(_manager);\n//        symbolPrefix = _symbolPrefix;\n//        allowTokens = AllowTokens(_allowTokens);\n//        _changeSideTokenFactory(_sideTokenFactory);\n//        _changeFederation(_federation);\n//        //keccak256(\"ERC777TokensRecipient\")\n//        erc1820.setInterfaceImplementer(address(this), 0xb281fc8c12954d22544db45de3159a39272895b169a852b314f9cc762e44c53b, address(this));\n//    }\n\n    function version() external pure returns (string memory) {\n        return \"v2\";\n    }\n\n    modifier onlyFederation() {\n        require(msg.sender == federation, \"Bridge: Sender not Federation\");\n        _;\n    }\n\n    modifier whenNotUpgrading() {\n        require(!isUpgrading, \"Bridge: Upgrading\");\n        _;\n    }\n\n    function acceptTransfer(\n        address tokenAddress,\n        address receiver,\n        uint256 amount,\n        string calldata symbol,\n        bytes32 blockHash,\n        bytes32 transactionHash,\n        uint32 logIndex,\n        uint8 decimals,\n        uint256 granularity\n    ) external returns(bool) {\n        return _acceptTransfer(tokenAddress, receiver, amount, symbol, blockHash, transactionHash, logIndex, decimals, granularity, \"\");\n    }\n\n    function acceptTransferAt(\n        address tokenAddress,\n        address receiver,\n        uint256 amount,\n        string calldata symbol,\n        bytes32 blockHash,\n        bytes32 transactionHash,\n        uint32 logIndex,\n        uint8 decimals,\n        uint256 granularity,\n        bytes calldata userData\n    ) external returns(bool) {\n        return _acceptTransfer(tokenAddress, receiver, amount, symbol, blockHash, transactionHash, logIndex, decimals, granularity, userData);\n    }\n\n    function _acceptTransfer(\n        address tokenAddress,\n        address receiver,\n        uint256 amount,\n        string memory symbol,\n        bytes32 blockHash,\n        bytes32 transactionHash,\n        uint32 logIndex,\n        uint8 decimals,\n        uint256 granularity,\n        bytes memory userData\n    ) internal onlyFederation whenNotPaused nonReentrant returns(bool) {\n        require(tokenAddress != NULL_ADDRESS, \"Bridge: Token is null\");\n        require(receiver != NULL_ADDRESS, \"Bridge: Receiver is null\");\n        require(amount > 0, \"Bridge: Amount 0\");\n        require(bytes(symbol).length > 0, \"Bridge: Empty symbol\");\n        require(blockHash != NULL_HASH, \"Bridge: BlockHash is null\");\n        require(transactionHash != NULL_HASH, \"Bridge: Transaction is null\");\n        require(decimals <= 18, \"Bridge: Decimals bigger 18\");\n        require(Utils.granularityToDecimals(granularity) <= 18, \"Bridge: invalid granularity\");\n\n        _processTransaction(blockHash, transactionHash, receiver, amount, logIndex);\n\n        if (knownTokens[tokenAddress]) {\n            _acceptCrossBackToToken(receiver, tokenAddress, decimals, granularity, amount);\n        } else {\n            _acceptCrossToSideToken(receiver, tokenAddress, decimals, granularity, amount, symbol, userData);\n        }\n        return true;\n    }\n\n    function _acceptCrossToSideToken(\n        address receiver,\n        address tokenAddress,\n        uint8 decimals,\n        uint256 granularity,\n        uint256 amount,\n        string memory symbol,\n        bytes memory userData\n    ) private {\n        (uint256 calculatedGranularity,uint256 formattedAmount) = Utils.calculateGranularityAndAmount(decimals, granularity, amount);\n        ISideToken sideToken = mappedTokens[tokenAddress];\n        if (address(sideToken) == NULL_ADDRESS) {\n            sideToken = _createSideToken(tokenAddress, symbol, calculatedGranularity);\n        } else {\n            require(calculatedGranularity == sideToken.granularity(), \"Bridge: Granularity differ from side token\");\n        }\n        sideToken.mint(receiver, formattedAmount, userData, \"\");\n\n        if (receiver.isContract()) {\n            (bool success, bytes memory errorData) = receiver.call(\n                abi.encodeWithSignature(\"onTokensMinted(uint256,address,bytes)\", formattedAmount, sideToken, userData)\n            );\n            if (!success) {\n                emit ErrorTokenReceiver(errorData);\n            }\n        }\n\n        emit AcceptedCrossTransfer(tokenAddress, receiver, amount, decimals, granularity, formattedAmount, 18, calculatedGranularity, userData);\n    }\n\n    function _acceptCrossBackToToken(address receiver, address tokenAddress, uint8 decimals, uint256 granularity, uint256 amount) private {\n        require(decimals == 18, \"Bridge: Invalid decimals cross back\");\n        //As side tokens are ERC777 we need to convert granularity to decimals\n        (uint8 calculatedDecimals, uint256 formattedAmount) = Utils.calculateDecimalsAndAmount(tokenAddress, granularity, amount);\n        IERC20(tokenAddress).safeTransfer(receiver, formattedAmount);\n        emit AcceptedCrossTransfer(tokenAddress, receiver, amount, decimals, granularity, formattedAmount, calculatedDecimals, 1, \"\");\n    }\n\n    /**\n    * ERC-20 tokens approve and transferFrom pattern\n    * See https://eips.ethereum.org/EIPS/eip-20#transferfrom\n    */\n    function receiveTokensAt(\n        address tokenToUse,\n        uint256 amount,\n        address receiver,\n        bytes calldata extraData\n    ) external returns(bool) {\n        return _receiveTokens(tokenToUse, amount, receiver, extraData);\n    }\n\n    /**\n    * ERC-20 tokens approve and transferFrom pattern\n    * See https://eips.ethereum.org/EIPS/eip-20#transferfrom\n    */\n    function receiveTokens(address tokenToUse, uint256 amount) external returns(bool) {\n        return _receiveTokens(tokenToUse, amount, _msgSender(), \"\");\n    }\n\n    /**\n     * ERC-20 tokens approve and transferFrom pattern\n     * See https://eips.ethereum.org/EIPS/eip-20#transferfrom\n     */\n    function _receiveTokens(\n        address tokenToUse,\n        uint256 amount,\n        address receiver,\n        bytes memory extraData\n    ) private whenNotUpgrading whenNotPaused nonReentrant returns(bool) {\n        //Transfer the tokens on IERC20, they should be already Approved for the bridge Address to use them\n        IERC20(tokenToUse).safeTransferFrom(_msgSender(), address(this), amount);\n        crossTokens(tokenToUse, receiver, amount, extraData);\n        return true;\n    }\n\n    /**\n     * ERC-777 tokensReceived hook allows to send tokens to a contract and notify it in a single transaction\n     * See https://eips.ethereum.org/EIPS/eip-777#motivation for details\n     */\n    function tokensReceived (\n        address operator,\n        address from,\n        address to,\n        uint amount,\n        bytes calldata userData,\n        bytes calldata\n    ) external whenNotPaused whenNotUpgrading {\n        //Hook from ERC777address\n        if(operator == address(this)) return; // Avoid loop from bridge calling to ERC77transferFrom\n        require(to == address(this), \"Bridge: Not to address\");\n        address tokenToUse = _msgSender();\n        //This can only be used with trusted contracts\n        crossTokens(tokenToUse, from, amount, userData);\n    }\n\n    function crossTokens(address tokenToUse, address receiver, uint256 amount, bytes memory userData) private {\n        bool isASideToken = originalTokens[tokenToUse] != NULL_ADDRESS;\n        //Send the payment to the MultiSig of the Federation\n        uint256 fee = amount.mul(feePercentage).div(feePercentageDivider);\n        uint256 amountMinusFees = amount.sub(fee);\n        if (isASideToken) {\n            uint256 modulo = amountMinusFees.mod(ISideToken(tokenToUse).granularity());\n            fee = fee.add(modulo);\n            amountMinusFees = amountMinusFees.sub(modulo);\n        }\n        if(fee > 0) {\n            IERC20(tokenToUse).safeTransfer(owner(), fee);\n        }\n        if (isASideToken) {\n            verifyWithAllowTokens(tokenToUse, amount, isASideToken);\n            //Side Token Crossing\n            ISideToken(tokenToUse).burn(amountMinusFees, userData);\n            // solium-disable-next-line max-len\n            emit Cross(originalTokens[tokenToUse], receiver, amountMinusFees, ISideToken(tokenToUse).symbol(), userData, ISideToken(tokenToUse).decimals(), ISideToken(tokenToUse).granularity());\n        } else {\n            //Main Token Crossing\n            knownTokens[tokenToUse] = true;\n            (uint8 decimals, uint256 granularity, string memory symbol) = Utils.getTokenInfo(tokenToUse);\n            uint formattedAmount = amount;\n            if(decimals != 18) {\n                formattedAmount = amount.mul(uint256(10)**(18-decimals));\n            }\n            //We consider the amount before fees converted to 18 decimals to check the limits\n            verifyWithAllowTokens(tokenToUse, formattedAmount, isASideToken);\n            emit Cross(tokenToUse, receiver, amountMinusFees, symbol, userData, decimals, granularity);\n        }\n    }\n\n    function _createSideToken(address token, string memory symbol, uint256 granularity) private returns (ISideToken sideToken){\n        //string memory newSymbol = string(abi.encodePacked(symbolPrefix, symbol));\n        string memory newSymbol = string(abi.encodePacked(symbol, symbolPrefix));\n        address sideTokenAddress = sideTokenFactory.createSideToken(newSymbol, newSymbol, granularity);\n        sideToken = ISideToken(sideTokenAddress);\n        mappedTokens[token] = sideToken;\n        originalTokens[sideTokenAddress] = token;\n        emit NewSideToken(sideTokenAddress, token, newSymbol, granularity);\n        return sideToken;\n    }\n\n    function verifyWithAllowTokens(address tokenToUse, uint256 amount, bool isASideToken) private  {\n        // solium-disable-next-line security/no-block-members\n        if (now > lastDay + 24 hours) {\n            // solium-disable-next-line security/no-block-members\n            lastDay = now;\n            spentToday = 0;\n        }\n        require(allowTokens.isValidTokenTransfer(tokenToUse, amount, spentToday, isASideToken), \"Bridge: Bigger than limit\");\n        spentToday = spentToday.add(amount);\n    }\n\n    function getTransactionId(\n        bytes32 _blockHash,\n        bytes32 _transactionHash,\n        address _receiver,\n        uint256 _amount,\n        uint32 _logIndex\n    )\n        public pure returns(bytes32)\n    {\n        return keccak256(abi.encodePacked(_blockHash, _transactionHash, _receiver, _amount, _logIndex));\n    }\n\n    function _processTransaction(\n        bytes32 _blockHash,\n        bytes32 _transactionHash,\n        address _receiver,\n        uint256 _amount,\n        uint32 _logIndex\n    )\n        private\n    {\n        bytes32 compiledId = getTransactionId(_blockHash, _transactionHash, _receiver, _amount, _logIndex);\n        require(!processed[compiledId], \"Bridge: Already processed\");\n        processed[compiledId] = true;\n    }\n\n    function setFeePercentage(uint amount) external onlyOwner whenNotPaused {\n        require(amount < (feePercentageDivider/10), \"Bridge: bigger than 10%\");\n        feePercentage = amount;\n        emit FeePercentageChanged(feePercentage);\n    }\n\n    function getFeePercentage() external view returns(uint) {\n        return feePercentage;\n    }\n\n    function calcMaxWithdraw() external view returns (uint) {\n        uint spent = spentToday;\n        // solium-disable-next-line security/no-block-members\n        if (now > lastDay + 24 hours)\n            spent = 0;\n        return allowTokens.calcMaxWithdraw(spent);\n    }\n\n    function changeFederation(address newFederation) external onlyOwner returns(bool) {\n        _changeFederation(newFederation);\n        return true;\n    }\n\n    function _changeFederation(address newFederation) internal {\n        require(newFederation != NULL_ADDRESS, \"Bridge: Federation is empty\");\n        federation = newFederation;\n        emit FederationChanged(federation);\n    }\n\n    function getFederation() external view returns(address) {\n        return federation;\n    }\n\n    function changeSideTokenFactory(address newSideTokenFactory) external onlyOwner returns(bool) {\n        _changeSideTokenFactory(newSideTokenFactory);\n        return true;\n    }\n\n    function _changeSideTokenFactory(address newSideTokenFactory) internal {\n        require(newSideTokenFactory != NULL_ADDRESS, \"Bridge: SideTokenFactory is empty\");\n        sideTokenFactory = ISideTokenFactory(newSideTokenFactory);\n        emit SideTokenFactoryChanged(newSideTokenFactory);\n    }\n\n    function startUpgrade() external onlyOwner {\n        isUpgrading = true;\n        emit Upgrading(isUpgrading);\n    }\n\n    function endUpgrade() external onlyOwner {\n        isUpgrading = false;\n        emit Upgrading(isUpgrading);\n    }\n\n    // Commented because it is unused for us and need decrease contract size\n    //This method is only to recreate the USDT and USDC tokens on rsk without granularity restrictions.\n//    function clearSideToken() external onlyOwner returns(bool) {\n//        require(!alreadyRun, \"already done\");\n//        alreadyRun = true;\n//        address payable[4] memory sideTokens = [\n//            0xe506F698b31a66049BD4653ed934E7a07Cbc5549,\n//            0x5a42221D7AaE8e185BC0054Bb036D9757eC18857,\n//            0xcdc8ccBbFB6407c53118fE47259e8d00C81F42CD,\n//            0x6117C9529F15c52e2d3188d5285C745B757b5825\n//        ];\n//        for (uint i = 0; i < sideTokens.length; i++) {\n//            address originalToken = address(originalTokens[sideTokens[i]]);\n//            originalTokens[sideTokens[i]] = NULL_ADDRESS;\n//            mappedTokens[originalToken] = ISideToken(NULL_ADDRESS);\n//        }\n//        return true;\n//    }\n\n}\n",
  "sourcePath": "/Users/pooh/sovryn/deploy_bridge/BSC-RSK-Prefix/Bridge-SC/sovryn-token-bridge/bridge/contracts/Bridge.sol",
  "compiler": {
    "name": "solc",
    "version": "0.5.17+commit.d19bba13.Emscripten.clang"
  },
  "schemaVersion": "3.3.3",
  "updatedAt": "2021-04-18T09:01:51.728Z",
  "networkType": "ethereum",
  "devdoc": {
    "methods": {
      "initialize(address)": {
        "details": "Initializes the contract setting the deployer as the initial owner."
      },
      "isOwner()": {
        "details": "Returns true if the caller is the current owner."
      },
      "owner()": {
        "details": "Returns the address of the current owner."
      },
      "pause()": {
        "details": "Called by a pauser to pause, triggers stopped state."
      },
      "paused()": {
        "details": "Returns true if the contract is paused, and false otherwise."
      },
      "renounceOwnership()": {
        "details": "Leaves the contract without owner. It will not be possible to call `onlyOwner` functions anymore. Can only be called by the current owner.     * > Note: Renouncing ownership will leave the contract without an owner, thereby removing any functionality that is only available to the owner."
      },
      "transferOwnership(address)": {
        "details": "Transfers ownership of the contract to a new account (`newOwner`). Can only be called by the current owner."
      },
      "unpause()": {
        "details": "Called by a pauser to unpause, returns to normal state."
      }
    }
  },
  "userdoc": {
    "methods": {
      "receiveTokens(address,uint256)": {
        "notice": "ERC-20 tokens approve and transferFrom pattern See https://eips.ethereum.org/EIPS/eip-20#transferfrom"
      },
      "receiveTokensAt(address,uint256,address,bytes)": {
        "notice": "ERC-20 tokens approve and transferFrom pattern See https://eips.ethereum.org/EIPS/eip-20#transferfrom"
      },
      "tokensReceived(address,address,address,uint256,bytes,bytes)": {
        "notice": "ERC-777 tokensReceived hook allows to send tokens to a contract and notify it in a single transaction See https://eips.ethereum.org/EIPS/eip-777#motivation for details"
      }
    }
  }
}