{
  "contractName": "Bridge_v2",
  "abi": [
    {
      "anonymous": false,
      "inputs": [
        {
          "indexed": true,
          "internalType": "address",
          "name": "_tokenAddress",
          "type": "address"
        },
        {
          "indexed": true,
          "internalType": "address",
          "name": "_to",
          "type": "address"
        },
        {
          "indexed": false,
          "internalType": "uint256",
          "name": "_amount",
          "type": "uint256"
        },
        {
          "indexed": false,
          "internalType": "uint8",
          "name": "_decimals",
          "type": "uint8"
        },
        {
          "indexed": false,
          "internalType": "uint256",
          "name": "_granularity",
          "type": "uint256"
        },
        {
          "indexed": false,
          "internalType": "uint256",
          "name": "_formattedAmount",
          "type": "uint256"
        },
        {
          "indexed": false,
          "internalType": "uint8",
          "name": "_calculatedDecimals",
          "type": "uint8"
        },
        {
          "indexed": false,
          "internalType": "uint256",
          "name": "_calculatedGranularity",
          "type": "uint256"
        },
        {
          "indexed": false,
          "internalType": "bytes",
          "name": "_userData",
          "type": "bytes"
        }
      ],
      "name": "AcceptedCrossTransfer",
      "type": "event"
    },
    {
      "anonymous": false,
      "inputs": [
        {
          "indexed": true,
          "internalType": "address",
          "name": "_tokenAddress",
          "type": "address"
        },
        {
          "indexed": true,
          "internalType": "address",
          "name": "_to",
          "type": "address"
        },
        {
          "indexed": false,
          "internalType": "uint256",
          "name": "_amount",
          "type": "uint256"
        },
        {
          "indexed": false,
          "internalType": "string",
          "name": "_symbol",
          "type": "string"
        },
        {
          "indexed": false,
          "internalType": "bytes",
          "name": "_userData",
          "type": "bytes"
        },
        {
          "indexed": false,
          "internalType": "uint8",
          "name": "_decimals",
          "type": "uint8"
        },
        {
          "indexed": false,
          "internalType": "uint256",
          "name": "_granularity",
          "type": "uint256"
        }
      ],
      "name": "Cross",
      "type": "event"
    },
    {
      "anonymous": false,
      "inputs": [
        {
          "indexed": false,
          "internalType": "bytes",
          "name": "_errorData",
          "type": "bytes"
        }
      ],
      "name": "ErrorTokenReceiver",
      "type": "event"
    },
    {
      "anonymous": false,
      "inputs": [
        {
          "indexed": false,
          "internalType": "address",
          "name": "_newFederation",
          "type": "address"
        }
      ],
      "name": "FederationChanged",
      "type": "event"
    },
    {
      "anonymous": false,
      "inputs": [
        {
          "indexed": false,
          "internalType": "uint256",
          "name": "_amount",
          "type": "uint256"
        }
      ],
      "name": "FeePercentageChanged",
      "type": "event"
    },
    {
      "anonymous": false,
      "inputs": [
        {
          "indexed": true,
          "internalType": "address",
          "name": "_newSideTokenAddress",
          "type": "address"
        },
        {
          "indexed": true,
          "internalType": "address",
          "name": "_originalTokenAddress",
          "type": "address"
        },
        {
          "indexed": false,
          "internalType": "string",
          "name": "_newSymbol",
          "type": "string"
        },
        {
          "indexed": false,
          "internalType": "uint256",
          "name": "_granularity",
          "type": "uint256"
        }
      ],
      "name": "NewSideToken",
      "type": "event"
    },
    {
      "anonymous": false,
      "inputs": [
        {
          "indexed": true,
          "internalType": "address",
          "name": "previousOwner",
          "type": "address"
        },
        {
          "indexed": true,
          "internalType": "address",
          "name": "newOwner",
          "type": "address"
        }
      ],
      "name": "OwnershipTransferred",
      "type": "event"
    },
    {
      "anonymous": false,
      "inputs": [
        {
          "indexed": false,
          "internalType": "address",
          "name": "account",
          "type": "address"
        }
      ],
      "name": "Paused",
      "type": "event"
    },
    {
      "anonymous": false,
      "inputs": [
        {
          "indexed": true,
          "internalType": "address",
          "name": "account",
          "type": "address"
        }
      ],
      "name": "PauserAdded",
      "type": "event"
    },
    {
      "anonymous": false,
      "inputs": [
        {
          "indexed": true,
          "internalType": "address",
          "name": "account",
          "type": "address"
        }
      ],
      "name": "PauserRemoved",
      "type": "event"
    },
    {
      "anonymous": false,
      "inputs": [
        {
          "indexed": false,
          "internalType": "address",
          "name": "_newSideTokenFactory",
          "type": "address"
        }
      ],
      "name": "SideTokenFactoryChanged",
      "type": "event"
    },
    {
      "anonymous": false,
      "inputs": [
        {
          "indexed": false,
          "internalType": "address",
          "name": "account",
          "type": "address"
        }
      ],
      "name": "Unpaused",
      "type": "event"
    },
    {
      "anonymous": false,
      "inputs": [
        {
          "indexed": false,
          "internalType": "bool",
          "name": "isUpgrading",
          "type": "bool"
        }
      ],
      "name": "Upgrading",
      "type": "event"
    },
    {
      "constant": false,
      "inputs": [
        {
          "internalType": "address",
          "name": "account",
          "type": "address"
        }
      ],
      "name": "addPauser",
      "outputs": [],
      "payable": false,
      "stateMutability": "nonpayable",
      "type": "function"
    },
    {
      "constant": true,
      "inputs": [],
      "name": "allowTokens",
      "outputs": [
        {
          "internalType": "contract AllowTokens_v0",
          "name": "",
          "type": "address"
        }
      ],
      "payable": false,
      "stateMutability": "view",
      "type": "function"
    },
    {
      "constant": true,
      "inputs": [],
      "name": "feePercentageDivider",
      "outputs": [
        {
          "internalType": "uint256",
          "name": "",
          "type": "uint256"
        }
      ],
      "payable": false,
      "stateMutability": "view",
      "type": "function"
    },
    {
      "constant": false,
      "inputs": [],
      "name": "initialize",
      "outputs": [],
      "payable": false,
      "stateMutability": "nonpayable",
      "type": "function"
    },
    {
      "constant": false,
      "inputs": [
        {
          "internalType": "address",
          "name": "sender",
          "type": "address"
        }
      ],
      "name": "initialize",
      "outputs": [],
      "payable": false,
      "stateMutability": "nonpayable",
      "type": "function"
    },
    {
      "constant": true,
      "inputs": [],
      "name": "isOwner",
      "outputs": [
        {
          "internalType": "bool",
          "name": "",
          "type": "bool"
        }
      ],
      "payable": false,
      "stateMutability": "view",
      "type": "function"
    },
    {
      "constant": true,
      "inputs": [
        {
          "internalType": "address",
          "name": "account",
          "type": "address"
        }
      ],
      "name": "isPauser",
      "outputs": [
        {
          "internalType": "bool",
          "name": "",
          "type": "bool"
        }
      ],
      "payable": false,
      "stateMutability": "view",
      "type": "function"
    },
    {
      "constant": true,
      "inputs": [],
      "name": "isUpgrading",
      "outputs": [
        {
          "internalType": "bool",
          "name": "",
          "type": "bool"
        }
      ],
      "payable": false,
      "stateMutability": "view",
      "type": "function"
    },
    {
      "constant": true,
      "inputs": [
        {
          "internalType": "address",
          "name": "",
          "type": "address"
        }
      ],
      "name": "knownTokens",
      "outputs": [
        {
          "internalType": "bool",
          "name": "",
          "type": "bool"
        }
      ],
      "payable": false,
      "stateMutability": "view",
      "type": "function"
    },
    {
      "constant": true,
      "inputs": [],
      "name": "lastDay",
      "outputs": [
        {
          "internalType": "uint256",
          "name": "",
          "type": "uint256"
        }
      ],
      "payable": false,
      "stateMutability": "view",
      "type": "function"
    },
    {
      "constant": true,
      "inputs": [
        {
          "internalType": "address",
          "name": "",
          "type": "address"
        }
      ],
      "name": "mappedTokens",
      "outputs": [
        {
          "internalType": "contract ISideToken",
          "name": "",
          "type": "address"
        }
      ],
      "payable": false,
      "stateMutability": "view",
      "type": "function"
    },
    {
      "constant": true,
      "inputs": [
        {
          "internalType": "address",
          "name": "",
          "type": "address"
        }
      ],
      "name": "originalTokens",
      "outputs": [
        {
          "internalType": "address",
          "name": "",
          "type": "address"
        }
      ],
      "payable": false,
      "stateMutability": "view",
      "type": "function"
    },
    {
      "constant": true,
      "inputs": [],
      "name": "owner",
      "outputs": [
        {
          "internalType": "address",
          "name": "",
          "type": "address"
        }
      ],
      "payable": false,
      "stateMutability": "view",
      "type": "function"
    },
    {
      "constant": false,
      "inputs": [],
      "name": "pause",
      "outputs": [],
      "payable": false,
      "stateMutability": "nonpayable",
      "type": "function"
    },
    {
      "constant": true,
      "inputs": [],
      "name": "paused",
      "outputs": [
        {
          "internalType": "bool",
          "name": "",
          "type": "bool"
        }
      ],
      "payable": false,
      "stateMutability": "view",
      "type": "function"
    },
    {
      "constant": true,
      "inputs": [
        {
          "internalType": "bytes32",
          "name": "",
          "type": "bytes32"
        }
      ],
      "name": "processed",
      "outputs": [
        {
          "internalType": "bool",
          "name": "",
          "type": "bool"
        }
      ],
      "payable": false,
      "stateMutability": "view",
      "type": "function"
    },
    {
      "constant": false,
      "inputs": [],
      "name": "renounceOwnership",
      "outputs": [],
      "payable": false,
      "stateMutability": "nonpayable",
      "type": "function"
    },
    {
      "constant": false,
      "inputs": [],
      "name": "renouncePauser",
      "outputs": [],
      "payable": false,
      "stateMutability": "nonpayable",
      "type": "function"
    },
    {
      "constant": true,
      "inputs": [],
      "name": "sideTokenFactory",
      "outputs": [
        {
          "internalType": "contract ISideTokenFactory",
          "name": "",
          "type": "address"
        }
      ],
      "payable": false,
      "stateMutability": "view",
      "type": "function"
    },
    {
      "constant": true,
      "inputs": [],
      "name": "spentToday",
      "outputs": [
        {
          "internalType": "uint256",
          "name": "",
          "type": "uint256"
        }
      ],
      "payable": false,
      "stateMutability": "view",
      "type": "function"
    },
    {
      "constant": true,
      "inputs": [],
      "name": "symbolPrefix",
      "outputs": [
        {
          "internalType": "string",
          "name": "",
          "type": "string"
        }
      ],
      "payable": false,
      "stateMutability": "view",
      "type": "function"
    },
    {
      "constant": false,
      "inputs": [
        {
          "internalType": "address",
          "name": "newOwner",
          "type": "address"
        }
      ],
      "name": "transferOwnership",
      "outputs": [],
      "payable": false,
      "stateMutability": "nonpayable",
      "type": "function"
    },
    {
      "constant": false,
      "inputs": [],
      "name": "unpause",
      "outputs": [],
      "payable": false,
      "stateMutability": "nonpayable",
      "type": "function"
    },
    {
      "constant": true,
      "inputs": [],
      "name": "version",
      "outputs": [
        {
          "internalType": "string",
          "name": "",
          "type": "string"
        }
      ],
      "payable": false,
      "stateMutability": "pure",
      "type": "function"
    },
    {
      "constant": false,
      "inputs": [
        {
          "internalType": "address",
          "name": "tokenAddress",
          "type": "address"
        },
        {
          "internalType": "address",
          "name": "receiver",
          "type": "address"
        },
        {
          "internalType": "uint256",
          "name": "amount",
          "type": "uint256"
        },
        {
          "internalType": "string",
          "name": "symbol",
          "type": "string"
        },
        {
          "internalType": "bytes32",
          "name": "blockHash",
          "type": "bytes32"
        },
        {
          "internalType": "bytes32",
          "name": "transactionHash",
          "type": "bytes32"
        },
        {
          "internalType": "uint32",
          "name": "logIndex",
          "type": "uint32"
        },
        {
          "internalType": "uint8",
          "name": "decimals",
          "type": "uint8"
        },
        {
          "internalType": "uint256",
          "name": "granularity",
          "type": "uint256"
        }
      ],
      "name": "acceptTransfer",
      "outputs": [
        {
          "internalType": "bool",
          "name": "",
          "type": "bool"
        }
      ],
      "payable": false,
      "stateMutability": "nonpayable",
      "type": "function"
    },
    {
      "constant": false,
      "inputs": [
        {
          "internalType": "address",
          "name": "tokenAddress",
          "type": "address"
        },
        {
          "internalType": "address",
          "name": "receiver",
          "type": "address"
        },
        {
          "internalType": "uint256",
          "name": "amount",
          "type": "uint256"
        },
        {
          "internalType": "string",
          "name": "symbol",
          "type": "string"
        },
        {
          "internalType": "bytes32",
          "name": "blockHash",
          "type": "bytes32"
        },
        {
          "internalType": "bytes32",
          "name": "transactionHash",
          "type": "bytes32"
        },
        {
          "internalType": "uint32",
          "name": "logIndex",
          "type": "uint32"
        },
        {
          "internalType": "uint8",
          "name": "decimals",
          "type": "uint8"
        },
        {
          "internalType": "uint256",
          "name": "granularity",
          "type": "uint256"
        },
        {
          "internalType": "bytes",
          "name": "userData",
          "type": "bytes"
        }
      ],
      "name": "acceptTransferAt",
      "outputs": [
        {
          "internalType": "bool",
          "name": "",
          "type": "bool"
        }
      ],
      "payable": false,
      "stateMutability": "nonpayable",
      "type": "function"
    },
    {
      "constant": false,
      "inputs": [
        {
          "internalType": "address",
          "name": "tokenToUse",
          "type": "address"
        },
        {
          "internalType": "uint256",
          "name": "amount",
          "type": "uint256"
        },
        {
          "internalType": "address",
          "name": "receiver",
          "type": "address"
        },
        {
          "internalType": "bytes",
          "name": "extraData",
          "type": "bytes"
        }
      ],
      "name": "receiveTokensAt",
      "outputs": [
        {
          "internalType": "bool",
          "name": "",
          "type": "bool"
        }
      ],
      "payable": false,
      "stateMutability": "nonpayable",
      "type": "function"
    },
    {
      "constant": false,
      "inputs": [
        {
          "internalType": "address",
          "name": "tokenToUse",
          "type": "address"
        },
        {
          "internalType": "uint256",
          "name": "amount",
          "type": "uint256"
        }
      ],
      "name": "receiveTokens",
      "outputs": [
        {
          "internalType": "bool",
          "name": "",
          "type": "bool"
        }
      ],
      "payable": false,
      "stateMutability": "nonpayable",
      "type": "function"
    },
    {
      "constant": false,
      "inputs": [
        {
          "internalType": "address",
          "name": "operator",
          "type": "address"
        },
        {
          "internalType": "address",
          "name": "from",
          "type": "address"
        },
        {
          "internalType": "address",
          "name": "to",
          "type": "address"
        },
        {
          "internalType": "uint256",
          "name": "amount",
          "type": "uint256"
        },
        {
          "internalType": "bytes",
          "name": "userData",
          "type": "bytes"
        },
        {
          "internalType": "bytes",
          "name": "",
          "type": "bytes"
        }
      ],
      "name": "tokensReceived",
      "outputs": [],
      "payable": false,
      "stateMutability": "nonpayable",
      "type": "function"
    },
    {
      "constant": true,
      "inputs": [
        {
          "internalType": "bytes32",
          "name": "_blockHash",
          "type": "bytes32"
        },
        {
          "internalType": "bytes32",
          "name": "_transactionHash",
          "type": "bytes32"
        },
        {
          "internalType": "address",
          "name": "_receiver",
          "type": "address"
        },
        {
          "internalType": "uint256",
          "name": "_amount",
          "type": "uint256"
        },
        {
          "internalType": "uint32",
          "name": "_logIndex",
          "type": "uint32"
        }
      ],
      "name": "getTransactionId",
      "outputs": [
        {
          "internalType": "bytes32",
          "name": "",
          "type": "bytes32"
        }
      ],
      "payable": false,
      "stateMutability": "pure",
      "type": "function"
    },
    {
      "constant": false,
      "inputs": [
        {
          "internalType": "uint256",
          "name": "amount",
          "type": "uint256"
        }
      ],
      "name": "setFeePercentage",
      "outputs": [],
      "payable": false,
      "stateMutability": "nonpayable",
      "type": "function"
    },
    {
      "constant": true,
      "inputs": [],
      "name": "getFeePercentage",
      "outputs": [
        {
          "internalType": "uint256",
          "name": "",
          "type": "uint256"
        }
      ],
      "payable": false,
      "stateMutability": "view",
      "type": "function"
    },
    {
      "constant": true,
      "inputs": [],
      "name": "calcMaxWithdraw",
      "outputs": [
        {
          "internalType": "uint256",
          "name": "",
          "type": "uint256"
        }
      ],
      "payable": false,
      "stateMutability": "view",
      "type": "function"
    },
    {
      "constant": false,
      "inputs": [
        {
          "internalType": "address",
          "name": "newFederation",
          "type": "address"
        }
      ],
      "name": "changeFederation",
      "outputs": [
        {
          "internalType": "bool",
          "name": "",
          "type": "bool"
        }
      ],
      "payable": false,
      "stateMutability": "nonpayable",
      "type": "function"
    },
    {
      "constant": true,
      "inputs": [],
      "name": "getFederation",
      "outputs": [
        {
          "internalType": "address",
          "name": "",
          "type": "address"
        }
      ],
      "payable": false,
      "stateMutability": "view",
      "type": "function"
    },
    {
      "constant": false,
      "inputs": [
        {
          "internalType": "address",
          "name": "newSideTokenFactory",
          "type": "address"
        }
      ],
      "name": "changeSideTokenFactory",
      "outputs": [
        {
          "internalType": "bool",
          "name": "",
          "type": "bool"
        }
      ],
      "payable": false,
      "stateMutability": "nonpayable",
      "type": "function"
    },
    {
      "constant": false,
      "inputs": [],
      "name": "startUpgrade",
      "outputs": [],
      "payable": false,
      "stateMutability": "nonpayable",
      "type": "function"
    },
    {
      "constant": false,
      "inputs": [],
      "name": "endUpgrade",
      "outputs": [],
      "payable": false,
      "stateMutability": "nonpayable",
      "type": "function"
    }
  ],
  "bytecode": "0x6080604052613aa8806100136000396000f3fe608060405234801561001057600080fd5b50600436106102315760003560e01c806382dc1ec411610130578063c4d66de8116100b8578063ea2170911161007c578063ea2170911461083e578063f059cf2b14610846578063f2fde38b1461084e578063f74032f014610874578063fa0caa161461089a57610231565b8063c4d66de8146106a0578063d058ae96146106c6578063e6ede14d146107cc578063e6fc7744146107f2578063e8340a99146107fa57610231565b8063a53d6e6e116100ff578063a53d6e6e1461064e578063ae06c1b714610656578063b794726214610673578063b86f60d21461067b578063c1f0808a1461068357610231565b806382dc1ec4146105f45780638456cb591461061a5780638da5cb5b146106225780638f32d59b1461064657610231565b80634bc9fdc2116101be5780636b0c932d116101825780636b0c932d146105475780636ef8d66d1461054f578063715018a6146105575780637e5d36201461055f5780638129fc1c146105ec57610231565b80634bc9fdc21461048c57806354fd4d501461049457806359a8a867146105115780635c975abb146105195780635d4471291461052157610231565b8063257e1f8f11610205578063257e1f8f14610404578063357291301461040c5780633f4ba83a1461043857806342cdb2c61461044057806346fbf68e1461046657610231565b806223de29146102365780630e6ec7791461031e57806311efbf61146103e25780632239c48a146103fc575b600080fd5b61031c600480360360c081101561024c57600080fd5b6001600160a01b03823581169260208101358216926040820135909216916060820135919081019060a081016080820135600160201b81111561028e57600080fd5b8201836020820111156102a057600080fd5b803590602001918460018302840111600160201b831117156102c157600080fd5b919390929091602081019035600160201b8111156102de57600080fd5b8201836020820111156102f057600080fd5b803590602001918460018302840111600160201b8311171561031157600080fd5b5090925090506108c0565b005b6103ce600480360361012081101561033557600080fd5b6001600160a01b03823581169260208101359091169160408201359190810190608081016060820135600160201b81111561036f57600080fd5b82018360208201111561038157600080fd5b803590602001918460018302840111600160201b831117156103a257600080fd5b919350915080359060208101359063ffffffff6040820135169060ff6060820135169060800135610a24565b604080519115158252519081900360200190f35b6103ea610a8d565b60408051918252519081900360200190f35b61031c610a93565b61031c610b2a565b6103ce6004803603604081101561042257600080fd5b506001600160a01b038135169060200135610bbe565b61031c610beb565b6103ce6004803603602081101561045657600080fd5b50356001600160a01b0316610cd4565b6103ce6004803603602081101561047c57600080fd5b50356001600160a01b0316610d2e565b6103ea610d41565b61049c610dd9565b6040805160208082528351818301528351919283929083019185019080838360005b838110156104d65781810151838201526020016104be565b50505050905090810190601f1680156105035780820380516001836020036101000a031916815260200191505b509250505060405180910390f35b61049c610df5565b6103ce610e83565b6103ce6004803603602081101561053757600080fd5b50356001600160a01b0316610e8c565b6103ea610ea1565b61031c610ea7565b61031c610eb9565b6103ce6004803603608081101561057557600080fd5b6001600160a01b038235811692602081013592604082013590921691810190608081016060820135600160201b8111156105ae57600080fd5b8201836020820111156105c057600080fd5b803590602001918460018302840111600160201b831117156105e157600080fd5b509092509050610f50565b61031c610f9e565b61031c6004803603602081101561060a57600080fd5b50356001600160a01b0316611045565b61031c611094565b61062a61115b565b604080516001600160a01b039092168252519081900360200190f35b6103ce61116f565b61062a61119a565b61031c6004803603602081101561066c57600080fd5b50356111a9565b6103ce6112cc565b61062a6112dc565b6103ce6004803603602081101561069957600080fd5b50356112eb565b61031c600480360360208110156106b657600080fd5b50356001600160a01b0316611300565b6103ce60048036036101408110156106dd57600080fd5b6001600160a01b03823581169260208101359091169160408201359190810190608081016060820135600160201b81111561071757600080fd5b82018360208201111561072957600080fd5b803590602001918460018302840111600160201b8311171561074a57600080fd5b9193909282359260208101359263ffffffff6040830135169260ff60608401351692608081013592919060c081019060a00135600160201b81111561078e57600080fd5b8201836020820111156107a057600080fd5b803590602001918460018302840111600160201b831117156107c157600080fd5b5090925090506113f9565b61062a600480360360208110156107e257600080fd5b50356001600160a01b0316611498565b6103ea6114b3565b6103ea600480360360a081101561081057600080fd5b5080359060208101359060408101356001600160a01b0316906060810135906080013563ffffffff166114b9565b61062a61151b565b6103ea61152a565b61031c6004803603602081101561086457600080fd5b50356001600160a01b0316611530565b61062a6004803603602081101561088a57600080fd5b50356001600160a01b0316611580565b6103ce600480360360208110156108b057600080fd5b50356001600160a01b031661159b565b60345460ff161561090b576040805162461bcd60e51b815260206004820152601060248201526f14185d5cd8589b194e881c185d5cd95960821b604482015290519081900360640190fd5b604054600160a01b900460ff161561095e576040805162461bcd60e51b81526020600482015260116024820152704272696467653a20557067726164696e6760781b604482015290519081900360640190fd5b6001600160a01b03881630141561097457610a1a565b6001600160a01b03861630146109ca576040805162461bcd60e51b81526020600482015260166024820152754272696467653a204e6f7420746f206164647265737360501b604482015290519081900360640190fd5b60006109d46115ed565b9050610a1881898888888080601f0160208091040260200160405190810160405280939291908181526020018383808284376000920191909152506115f192505050565b505b5050505050505050565b6000610a7e8b8b8b8b8b8080601f016020809104026020016040519081016040528093929190818152602001838380828437600092018290525060408051602081019091529081528e93508d92508c91508b908b90611e21565b9b9a5050505050505050505050565b60375490565b610a9b61116f565b610ada576040805162461bcd60e51b815260206004820181905260248201526000805160206139e6833981519152604482015290519081900360640190fd5b6040805460ff60a01b1916600160a01b908117808355825191900460ff161515815290517f983e436223c000a441c2443b394ca5fb4669a513fe86dc1dd44494047b514ad99181900360200190a1565b610b3261116f565b610b71576040805162461bcd60e51b815260206004820181905260248201526000805160206139e6833981519152604482015290519081900360640190fd5b6040805460ff60a01b19168082558151600160a01b90910460ff161515815290517f983e436223c000a441c2443b394ca5fb4669a513fe86dc1dd44494047b514ad99181900360200190a1565b6000610be28383610bcd6115ed565b6040518060200160405280600081525061228e565b90505b92915050565b610bfb610bf66115ed565b610d2e565b610c365760405162461bcd60e51b81526004018080602001828103825260288152602001806139596028913960400191505060405180910390fd5b60345460ff16610c84576040805162461bcd60e51b815260206004820152601460248201527314185d5cd8589b194e881b9bdd081c185d5cd95960621b604482015290519081900360640190fd5b6034805460ff191690557f5db9ee0a495bf2e6ff9c91a7834c1ba4fdd244a5e8aa4e537bd38aeae4b073aa610cb76115ed565b604080516001600160a01b039092168252519081900360200190a1565b6000610cde61116f565b610d1d576040805162461bcd60e51b815260206004820181905260248201526000805160206139e6833981519152604482015290519081900360640190fd5b610d26826123b6565b506001919050565b6000610be560338363ffffffff61244d16565b603a54603954600091906201518001421115610d5b575060005b603f54604080516301a0371960e61b81526004810184905290516001600160a01b039092169163680dc64091602480820192602092909190829003018186803b158015610da757600080fd5b505afa158015610dbb573d6000803e3d6000fd5b505050506040513d6020811015610dd157600080fd5b505191505090565b604080518082019091526002815261763360f01b602082015290565b6038805460408051602060026001851615610100026000190190941693909304601f81018490048402820184019092528181529291830182828015610e7b5780601f10610e5057610100808354040283529160200191610e7b565b820191906000526020600020905b815481529060010190602001808311610e5e57829003601f168201915b505050505081565b60345460ff1690565b603d6020526000908152604090205460ff1681565b60395481565b610eb7610eb26115ed565b6124b4565b565b610ec161116f565b610f00576040805162461bcd60e51b815260206004820181905260248201526000805160206139e6833981519152604482015290519081900360640190fd5b60345460405160009161010090046001600160a01b0316907f8be0079c531659141344cd1fd0a4f28419497f9722a3daafe3b4186f6b6457e0908390a360348054610100600160a81b0319169055565b6000610f9486868686868080601f01602080910402602001604051908101604052809392919081815260200183838082843760009201919091525061228e92505050565b9695505050505050565b600054610100900460ff1680610fb75750610fb76124fc565b80610fc5575060005460ff16155b6110005760405162461bcd60e51b81526004018080602001828103825260288152602001806139316028913960400191505060405180910390fd5b600054610100900460ff1615801561102b576000805460ff1961ff0019909116610100171660011790555b60016035558015611042576000805461ff00191690555b50565b611050610bf66115ed565b61108b5760405162461bcd60e51b81526004018080602001828103825260288152602001806139596028913960400191505060405180910390fd5b61104281612502565b61109f610bf66115ed565b6110da5760405162461bcd60e51b81526004018080602001828103825260288152602001806139596028913960400191505060405180910390fd5b60345460ff1615611125576040805162461bcd60e51b815260206004820152601060248201526f14185d5cd8589b194e881c185d5cd95960821b604482015290519081900360640190fd5b6034805460ff191660011790557f62e78cea01bee320cd4e420270b5ea74000d11b0c9f74754ebdbfc544b05a258610cb76115ed565b60345461010090046001600160a01b031690565b60345460009061010090046001600160a01b031661118b6115ed565b6001600160a01b031614905090565b603f546001600160a01b031681565b6111b161116f565b6111f0576040805162461bcd60e51b815260206004820181905260248201526000805160206139e6833981519152604482015290519081900360640190fd5b60345460ff161561123b576040805162461bcd60e51b815260206004820152601060248201526f14185d5cd8589b194e881c185d5cd95960821b604482015290519081900360640190fd5b6103e88110611291576040805162461bcd60e51b815260206004820152601760248201527f4272696467653a20626967676572207468616e20313025000000000000000000604482015290519081900360640190fd5b60378190556040805182815290517f97e97c577f03bda90e2c9739011ec065ed5fbfb36ae217d20bb0d9be95e160cd9181900360200190a150565b604054600160a01b900460ff1681565b6040546001600160a01b031681565b603e6020526000908152604090205460ff1681565b600054610100900460ff168061131957506113196124fc565b80611327575060005460ff16155b6113625760405162461bcd60e51b81526004018080602001828103825260288152602001806139316028913960400191505060405180910390fd5b600054610100900460ff1615801561138d576000805460ff1961ff0019909116610100171660011790555b60348054610100600160a81b0319166101006001600160a01b0385811682029290921792839055604051920416906000907f8be0079c531659141344cd1fd0a4f28419497f9722a3daafe3b4186f6b6457e0908290a380156113f5576000805461ff00191690555b5050565b60006114878d8d8d8d8d8080601f016020809104026020016040519081016040528093929190818152602001838380828437600081840152601f19601f820116905080830192505050505050508c8c8c8c8c8c8c8080601f016020809104026020016040519081016040528093929190818152602001838380828437600092019190915250611e2192505050565b9d9c50505050505050505050505050565b603b602052600090815260409020546001600160a01b031681565b61271081565b6040805160208082019790975280820195909552606093841b6bffffffffffffffffffffffff191693850193909352607484019190915260e01b6001600160e01b03191660948301528051808303607801815260989092019052805191012090565b6036546001600160a01b031690565b603a5481565b61153861116f565b611577576040805162461bcd60e51b815260206004820181905260248201526000805160206139e6833981519152604482015290519081900360640190fd5b6110428161254a565b603c602052600090815260409020546001600160a01b031681565b60006115a561116f565b6115e4576040805162461bcd60e51b815260206004820181905260248201526000805160206139e6833981519152604482015290519081900360640190fd5b610d26826125f6565b3390565b6001600160a01b038481166000908152603c60205260408120546037549216151591611638906127109061162c90879063ffffffff6126ab16565b9063ffffffff61270416565b9050600061164c858363ffffffff61274616565b905082156116f35760006116cb886001600160a01b031663556f0dc76040518163ffffffff1660e01b815260040160206040518083038186803b15801561169257600080fd5b505afa1580156116a6573d6000803e3d6000fd5b505050506040513d60208110156116bc57600080fd5b5051839063ffffffff61278816565b90506116dd838263ffffffff6127ca16565b92506116ef828263ffffffff61274616565b9150505b811561171b5761171b61170461115b565b6001600160a01b038916908463ffffffff61282416565b8215611b325761172c87868561287b565b6040805163fe9d930360e01b815260048101838152602482019283528651604483015286516001600160a01b038b169363fe9d93039386938a9390929160640190602085019080838360005b83811015611790578181015183820152602001611778565b50505050905090810190601f1680156117bd5780820380516001836020036101000a031916815260200191505b509350505050600060405180830381600087803b1580156117dd57600080fd5b505af11580156117f1573d6000803e3d6000fd5b505050506001600160a01b038781166000818152603c60205260408082205481516395d89b4160e01b81529151858c169591909116937f33409cca56f705a7bbed38b7db57cf3a63317f3c1b9a747bbfb3d3ecffa84f6f93879391926395d89b41926004808201939291829003018186803b15801561186f57600080fd5b505afa158015611883573d6000803e3d6000fd5b505050506040513d6000823e601f3d908101601f1916820160405260208110156118ac57600080fd5b8101908080516040519392919084600160201b8211156118cb57600080fd5b9083019060208201858111156118e057600080fd5b8251600160201b8111828201881017156118f957600080fd5b82525081516020918201929091019080838360005b8381101561192657818101518382015260200161190e565b50505050905090810190601f1680156119535780820380516001836020036101000a031916815260200191505b50604052505050888c6001600160a01b031663313ce5676040518163ffffffff1660e01b815260040160206040518083038186803b15801561199457600080fd5b505afa1580156119a8573d6000803e3d6000fd5b505050506040513d60208110156119be57600080fd5b81019080805190602001909291905050508d6001600160a01b031663556f0dc76040518163ffffffff1660e01b815260040160206040518083038186803b158015611a0857600080fd5b505afa158015611a1c573d6000803e3d6000fd5b505050506040513d6020811015611a3257600080fd5b50516040805186815260ff841660608201526080810183905260a060208281018281528851928401929092528751929391929184019160c085019189019080838360005b83811015611a8e578181015183820152602001611a76565b50505050905090810190601f168015611abb5780820380516001836020036101000a031916815260200191505b50838103825286518152865160209182019188019080838360005b83811015611aee578181015183820152602001611ad6565b50505050905090810190601f168015611b1b5780820380516001836020036101000a031916815260200191505b5097505050505050505060405180910390a3611e18565b6001600160a01b0387166000818152603d6020526040808220805460ff191660011790558051631f69565f60e01b81526004810193909352519091829160609173__Utils_________________________________91631f69565f916024808201928792909190829003018186803b158015611bad57600080fd5b505af4158015611bc1573d6000803e3d6000fd5b505050506040513d6000823e601f3d908101601f191682016040526060811015611bea57600080fd5b81516020830151604080850180519151939592948301929184600160201b821115611c1457600080fd5b908301906020820185811115611c2957600080fd5b8251600160201b811182820188101715611c4257600080fd5b82525081516020918201929091019080838360005b83811015611c6f578181015183820152602001611c57565b50505050905090810190601f168015611c9c5780820380516001836020036101000a031916815260200191505b5060405250505092509250925060008890508360ff16601214611cd657611cd38960ff601287900316600a0a63ffffffff6126ab16565b90505b611ce18b828961287b565b896001600160a01b03168b6001600160a01b03167f33409cca56f705a7bbed38b7db57cf3a63317f3c1b9a747bbfb3d3ecffa84f6f87858c89896040518086815260200180602001806020018560ff1660ff168152602001848152602001838103835287818151815260200191508051906020019080838360005b83811015611d74578181015183820152602001611d5c565b50505050905090810190601f168015611da15780820380516001836020036101000a031916815260200191505b50838103825286518152865160209182019188019080838360005b83811015611dd4578181015183820152602001611dbc565b50505050905090810190601f168015611e015780820380516001836020036101000a031916815260200191505b5097505050505050505060405180910390a3505050505b50505050505050565b6036546000906001600160a01b03163314611e83576040805162461bcd60e51b815260206004820152601d60248201527f4272696467653a2053656e646572206e6f742046656465726174696f6e000000604482015290519081900360640190fd5b60345460ff1615611ece576040805162461bcd60e51b815260206004820152601060248201526f14185d5cd8589b194e881c185d5cd95960821b604482015290519081900360640190fd5b60358054600101908190556001600160a01b038c16611f2c576040805162461bcd60e51b8152602060048201526015602482015274109c9a5919d94e88151bdad95b881a5cc81b9d5b1b605a1b604482015290519081900360640190fd5b6001600160a01b038b16611f87576040805162461bcd60e51b815260206004820152601860248201527f4272696467653a205265636569766572206973206e756c6c0000000000000000604482015290519081900360640190fd5b60008a11611fcf576040805162461bcd60e51b815260206004820152601060248201526f04272696467653a20416d6f756e7420360841b604482015290519081900360640190fd5b600089511161201c576040805162461bcd60e51b8152602060048201526014602482015273109c9a5919d94e88115b5c1d1e481cde5b589bdb60621b604482015290519081900360640190fd5b8761206e576040805162461bcd60e51b815260206004820152601960248201527f4272696467653a20426c6f636b48617368206973206e756c6c00000000000000604482015290519081900360640190fd5b866120c0576040805162461bcd60e51b815260206004820152601b60248201527f4272696467653a205472616e73616374696f6e206973206e756c6c0000000000604482015290519081900360640190fd5b60128560ff161115612119576040805162461bcd60e51b815260206004820152601a60248201527f4272696467653a20446563696d616c7320626967676572203138000000000000604482015290519081900360640190fd5b601273__Utils_________________________________6319bd2045866040518263ffffffff1660e01b81526004018082815260200191505060206040518083038186803b15801561216a57600080fd5b505af415801561217e573d6000803e3d6000fd5b505050506040513d602081101561219457600080fd5b505160ff1611156121ec576040805162461bcd60e51b815260206004820152601b60248201527f4272696467653a20696e76616c6964206772616e756c61726974790000000000604482015290519081900360640190fd5b6121f988888d8d8a612993565b6001600160a01b038c166000908152603d602052604090205460ff161561222c576122278b8d87878e612a29565b61223b565b61223b8b8d87878e8e89612ba9565b60019150603554811461227f5760405162461bcd60e51b815260040180806020018281038252602581526020018061390c6025913960400191505060405180910390fd5b509a9950505050505050505050565b604054600090600160a01b900460ff16156122e4576040805162461bcd60e51b81526020600482015260116024820152704272696467653a20557067726164696e6760781b604482015290519081900360640190fd5b60345460ff161561232f576040805162461bcd60e51b815260206004820152601060248201526f14185d5cd8589b194e881c185d5cd95960821b604482015290519081900360640190fd5b603580546001019081905561235d6123456115ed565b6001600160a01b03881690308863ffffffff61312316565b612369868587866115f1565b6001915060355481146123ad5760405162461bcd60e51b815260040180806020018281038252602581526020018061390c6025913960400191505060405180910390fd5b50949350505050565b6001600160a01b0381166123fb5760405162461bcd60e51b81526004018080602001828103825260218152602001806139a46021913960400191505060405180910390fd5b604080546001600160a01b0383166001600160a01b031990911681178255815190815290517f619936bc6e3618d0b8dc69bcc70134fe9d88f9967f3a8b8304e31836925216259181900360200190a150565b60006001600160a01b0382166124945760405162461bcd60e51b8152600401808060200182810382526022815260200180613a066022913960400191505060405180910390fd5b506001600160a01b03166000908152602091909152604090205460ff1690565b6124c560338263ffffffff61318316565b6040516001600160a01b038216907fcd265ebaf09df2871cc7bd4133404a235ba12eff2041bb89d9c714a2621c7c7e90600090a250565b303b1590565b61251360338263ffffffff61320016565b6040516001600160a01b038216907f6719d08c1888103bea251a4ed56406bd0c3e69723c8a1686e017e7bbe159b6f890600090a250565b6001600160a01b03811661258f5760405162461bcd60e51b8152600401808060200182810382526022815260200180613a286022913960400191505060405180910390fd5b6034546040516001600160a01b0380841692610100900416907f8be0079c531659141344cd1fd0a4f28419497f9722a3daafe3b4186f6b6457e090600090a3603480546001600160a01b0390921661010002610100600160a81b0319909216919091179055565b6001600160a01b038116612651576040805162461bcd60e51b815260206004820152601b60248201527f4272696467653a2046656465726174696f6e20697320656d7074790000000000604482015290519081900360640190fd5b603680546001600160a01b0319166001600160a01b03838116919091179182905560408051929091168252517f4a41a4d11aaf0c0c9e4311ac1d68b2b0134556da594779a2a35b0ddf7cd1eafb916020908290030190a150565b6000826126ba57506000610be5565b828202828482816126c757fe5b0414610be25760405162461bcd60e51b81526004018080602001828103825260218152602001806139c56021913960400191505060405180910390fd5b6000610be283836040518060400160405280601a81526020017f536166654d6174683a206469766973696f6e206279207a65726f000000000000815250613281565b6000610be283836040518060400160405280601e81526020017f536166654d6174683a207375627472616374696f6e206f766572666c6f770000815250613323565b6000610be283836040518060400160405280601881526020017f536166654d6174683a206d6f64756c6f206279207a65726f000000000000000081525061337d565b600082820183811015610be2576040805162461bcd60e51b815260206004820152601b60248201527f536166654d6174683a206164646974696f6e206f766572666c6f770000000000604482015290519081900360640190fd5b604080516001600160a01b038416602482015260448082018490528251808303909101815260649091019091526020810180516001600160e01b031663a9059cbb60e01b1790526128769084906133df565b505050565b603954620151800142111561289457426039556000603a555b603f54603a5460408051632692066f60e21b81526001600160a01b038781166004830152602482018790526044820193909352841515606482015290519190921691639a4819bc916084808301926020929190829003018186803b1580156128fb57600080fd5b505afa15801561290f573d6000803e3d6000fd5b505050506040513d602081101561292557600080fd5b5051612978576040805162461bcd60e51b815260206004820152601960248201527f4272696467653a20426967676572207468616e206c696d697400000000000000604482015290519081900360640190fd5b603a5461298b908363ffffffff6127ca16565b603a55505050565b60006129a286868686866114b9565b6000818152603e602052604090205490915060ff1615612a09576040805162461bcd60e51b815260206004820152601960248201527f4272696467653a20416c72656164792070726f63657373656400000000000000604482015290519081900360640190fd5b6000908152603e60205260409020805460ff191660011790555050505050565b8260ff16601214612a6b5760405162461bcd60e51b81526004018080602001828103825260238152602001806139816023913960400191505060405180910390fd5b6040805163dc98f6b760e01b81526001600160a01b038616600482015260248101849052604481018390528151600092839273__Utils_________________________________9263dc98f6b792606480840193919291829003018186803b158015612ad657600080fd5b505af4158015612aea573d6000803e3d6000fd5b505050506040513d6040811015612b0057600080fd5b5080516020909101519092509050612b286001600160a01b038716888363ffffffff61282416565b6040805184815260ff80881660208301528183018790526060820184905284166080820152600160a082015260e060c0820181905260009082015290516001600160a01b03808a1692908916917f3f11277de1ec7e6084b80bb080be00fd989d3e5d233d77504a7426511f5452f2918190036101200190a350505050505050565b604080516336e28b8f60e21b815260ff8716600482015260248101869052604481018590528151600092839273__Utils_________________________________9263db8a2e3c92606480840193919291829003018186803b158015612c0e57600080fd5b505af4158015612c22573d6000803e3d6000fd5b505050506040513d6040811015612c3857600080fd5b5080516020918201516001600160a01b03808c166000908152603b90945260409093205491945092501680612c7957612c72898685613597565b9050612d1b565b806001600160a01b031663556f0dc76040518163ffffffff1660e01b815260040160206040518083038186803b158015612cb257600080fd5b505afa158015612cc6573d6000803e3d6000fd5b505050506040513d6020811015612cdc57600080fd5b50518314612d1b5760405162461bcd60e51b815260040180806020018281038252602a8152602001806138e2602a913960400191505060405180910390fd5b806001600160a01b031663dcdc7dd08b84876040518463ffffffff1660e01b815260040180846001600160a01b03166001600160a01b031681526020018381526020018060200180602001838103835284818151815260200191508051906020019080838360005b83811015612d9b578181015183820152602001612d83565b50505050905090810190601f168015612dc85780820380516001836020036101000a031916815260200191505b5083810382526000815260200160200195505050505050600060405180830381600087803b158015612df957600080fd5b505af1158015612e0d573d6000803e3d6000fd5b50505050612e238a6001600160a01b03166138a5565b1561303057600060608b6001600160a01b031684848860405160240180848152602001836001600160a01b03166001600160a01b0316815260200180602001828103825283818151815260200191508051906020019080838360005b83811015612e97578181015183820152602001612e7f565b50505050905090810190601f168015612ec45780820380516001836020036101000a031916815260200191505b5060408051601f198184030181529181526020820180516001600160e01b031663c4a5863760e01b178152905182519297509550859450925090508083835b60208310612f225780518252601f199092019160209182019101612f03565b6001836020036101000a0380198251168184511680821785525050505050509050019150506000604051808303816000865af19150503d8060008114612f84576040519150601f19603f3d011682016040523d82523d6000602084013e612f89565b606091505b50915091508161302d577f64de857e027e5e94a8966c5707d2a9424097c78b217caf33543f84c2332483a1816040518080602001828103825283818151815260200191508051906020019080838360005b83811015612ff2578181015183820152602001612fda565b50505050905090810190601f16801561301f5780820380516001836020036101000a031916815260200191505b509250505060405180910390a15b50505b896001600160a01b0316896001600160a01b03167f3f11277de1ec7e6084b80bb080be00fd989d3e5d233d77504a7426511f5452f2888b8b8760128a8c604051808881526020018760ff1660ff1681526020018681526020018581526020018460ff16815260200183815260200180602001828103825283818151815260200191508051906020019080838360005b838110156130d75781810151838201526020016130bf565b50505050905090810190601f1680156131045780820380516001836020036101000a031916815260200191505b509850505050505050505060405180910390a350505050505050505050565b604080516001600160a01b0385811660248301528416604482015260648082018490528251808303909101815260849091019091526020810180516001600160e01b03166323b872dd60e01b17905261317d9085906133df565b50505050565b61318d828261244d565b6131de576040805162461bcd60e51b815260206004820181905260248201527f526f6c65733a206163636f756e7420646f65736e2774206861766520726f6c65604482015290519081900360640190fd5b6001600160a01b0316600090815260209190915260409020805460ff19169055565b61320a828261244d565b1561325c576040805162461bcd60e51b815260206004820152601f60248201527f526f6c65733a206163636f756e7420616c72656164792068617320726f6c6500604482015290519081900360640190fd5b6001600160a01b0316600090815260209190915260409020805460ff19166001179055565b6000818361330d5760405162461bcd60e51b81526004018080602001828103825283818151815260200191508051906020019080838360005b838110156132d25781810151838201526020016132ba565b50505050905090810190601f1680156132ff5780820380516001836020036101000a031916815260200191505b509250505060405180910390fd5b50600083858161331957fe5b0495945050505050565b600081848411156133755760405162461bcd60e51b81526020600482018181528351602484015283519092839260449091019190850190808383600083156132d25781810151838201526020016132ba565b505050900390565b600081836133cc5760405162461bcd60e51b81526020600482018181528351602484015283519092839260449091019190850190808383600083156132d25781810151838201526020016132ba565b508284816133d657fe5b06949350505050565b6133f1826001600160a01b03166138a5565b613442576040805162461bcd60e51b815260206004820152601f60248201527f5361666545524332303a2063616c6c20746f206e6f6e2d636f6e747261637400604482015290519081900360640190fd5b60006060836001600160a01b0316836040518082805190602001908083835b602083106134805780518252601f199092019160209182019101613461565b6001836020036101000a0380198251168184511680821785525050505050509050019150506000604051808303816000865af19150503d80600081146134e2576040519150601f19603f3d011682016040523d82523d6000602084013e6134e7565b606091505b50915091508161353e576040805162461bcd60e51b815260206004820181905260248201527f5361666545524332303a206c6f772d6c6576656c2063616c6c206661696c6564604482015290519081900360640190fd5b80511561317d5780806020019051602081101561355a57600080fd5b505161317d5760405162461bcd60e51b815260040180806020018281038252602a815260200180613a4a602a913960400191505060405180910390fd5b600060608360386040516020018083805190602001908083835b602083106135d05780518252601f1990920191602091820191016135b1565b6001836020036101000a038019825116818451168082178552505050505050905001828054600181600116156101000203166002900480156136495780601f10613627576101008083540402835291820191613649565b820191906000526020600020905b815481529060010190602001808311613635575b505060408051601f1981840301815282825290546326d9e96360e01b835260448301899052606060048401908152825160648501528251929750600096506001600160a01b0390911694506326d9e9639350869283928a9291829160248201916084019060208701908083838e5b838110156136cf5781810151838201526020016136b7565b50505050905090810190601f1680156136fc5780820380516001836020036101000a031916815260200191505b50838103825285518152855160209182019187019080838360005b8381101561372f578181015183820152602001613717565b50505050905090810190601f16801561375c5780820380516001836020036101000a031916815260200191505b5095505050505050602060405180830381600087803b15801561377e57600080fd5b505af1158015613792573d6000803e3d6000fd5b505050506040513d60208110156137a857600080fd5b50516001600160a01b038088166000818152603b6020908152604080832080549587166001600160a01b03199687168117909155808452603c83528184208054909616851790955580518083018b9052818152885191810191909152875195985088965092947f2ef93c4e96a4ef0b19497ff60c9e7360a8734f3d2cd27ae5318e43851734d17f9388938b9391928392606084019290870191908190849084905b83811015613861578181015183820152602001613849565b50505050905090810190601f16801561388e5780820380516001836020036101000a031916815260200191505b50935050505060405180910390a350509392505050565b6000813f7fc5d2460186f7233c927e7db2dcc703c0e500b653ca82273b7bfad8045d85a4708181148015906138d957508115155b94935050505056fe4272696467653a204772616e756c6172697479206469666665722066726f6d207369646520746f6b656e5265656e7472616e637947756172643a206e6f207265656e7472616e7420616c6c6f776564436f6e747261637420696e7374616e636520697320616c726561647920696e697469616c697a6564506175736572526f6c653a2063616c6c657220646f65736e277420686176652074686520726f6c654272696467653a20496e76616c696420646563696d616c732063726f7373206261636b4272696467653a2053696465546f6b656e466163746f727920697320656d707479536166654d6174683a206d756c7469706c69636174696f6e206f766572666c6f774f776e61626c653a2063616c6c6572206973206e6f7420746865206f776e6572526f6c65733a206163636f756e7420697320746865207a65726f20616464726573734f776e61626c653a206e6577206f776e6572206973207a65726f20616464726573735361666545524332303a204552433230206f7065726174696f6e20646964206e6f742073756363656564a265627a7a72315820292bf7b5b2c8d749d31e6816ea33794896d8620b6c2681105f07558ca01f43fc64736f6c63430005110032",
  "source": "pragma solidity ^0.5.0;\n\n// Import base Initializable contract\nimport \"./zeppelin/upgradable/Initializable.sol\";\n// Import interface and library from OpenZeppelin contracts\nimport \"./zeppelin/upgradable/utils/ReentrancyGuard.sol\";\nimport \"./zeppelin/upgradable/lifecycle/UpgradablePausable.sol\";\nimport \"./zeppelin/upgradable/ownership/UpgradableOwnable.sol\";\n\nimport \"./zeppelin/introspection/IERC1820Registry.sol\";\nimport \"./zeppelin/token/ERC777/IERC777Recipient.sol\";\nimport \"./zeppelin/token/ERC20/IERC20.sol\";\nimport \"./zeppelin/token/ERC20/SafeERC20.sol\";\nimport \"./zeppelin/utils/Address.sol\";\nimport \"./zeppelin/math/SafeMath.sol\";\n\nimport \"./IBridge_v2.sol\";\nimport \"./ISideToken.sol\";\nimport \"./ISideTokenFactory.sol\";\nimport \"./AllowTokens_v0.sol\";\nimport \"./Utils.sol\";\n\ncontract Bridge_v2 is Initializable, IBridge_v2, IERC777Recipient, UpgradablePausable, UpgradableOwnable, ReentrancyGuard {\n    using SafeMath for uint256;\n    using SafeERC20 for IERC20;\n    using Address for address;\n\n    address constant private NULL_ADDRESS = address(0);\n    bytes32 constant private NULL_HASH = bytes32(0);\n    IERC1820Registry constant private erc1820 = IERC1820Registry(0x1820a4B7618BdE71Dce8cdc73aAB6C95905faD24);\n\n    address private federation;\n    uint256 private feePercentage;\n    string public symbolPrefix;\n    uint256 public lastDay;\n    uint256 public spentToday;\n\n    mapping (address => ISideToken) public mappedTokens; // OirignalToken => SideToken\n    mapping (address => address) public originalTokens; // SideToken => OriginalToken\n    mapping (address => bool) public knownTokens; // OriginalToken => true\n    mapping(bytes32 => bool) public processed; // ProcessedHash => true\n    AllowTokens_v0 public allowTokens;\n    ISideTokenFactory public sideTokenFactory;\n    //Bridge_v1 variables\n    bool public isUpgrading;\n    uint256 constant public feePercentageDivider = 10000; // Porcentage with up to 2 decimals\n    bool private alreadyRun;\n\n    event FederationChanged(address _newFederation);\n    event SideTokenFactoryChanged(address _newSideTokenFactory);\n    event Upgrading(bool isUpgrading);\n\n// We are not using this initializer anymore because we are upgrading.\n//    function initialize(\n//        address _manager,\n//        address _federation,\n//        address _allowTokens,\n//        address _sideTokenFactory,\n//        string memory _symbolPrefix\n//    ) public initializer {\n//        UpgradableOwnable.initialize(_manager);\n//        UpgradablePausable.initialize(_manager);\n//        symbolPrefix = _symbolPrefix;\n//        allowTokens = AllowTokens(_allowTokens);\n//        _changeSideTokenFactory(_sideTokenFactory);\n//        _changeFederation(_federation);\n//        //keccak256(\"ERC777TokensRecipient\")\n//        erc1820.setInterfaceImplementer(address(this), 0xb281fc8c12954d22544db45de3159a39272895b169a852b314f9cc762e44c53b, address(this));\n//    }\n\n    function version() external pure returns (string memory) {\n        return \"v3\";\n    }\n\n    modifier onlyFederation() {\n        require(msg.sender == federation, \"Bridge: Sender not Federation\");\n        _;\n    }\n\n    modifier whenNotUpgrading() {\n        require(!isUpgrading, \"Bridge: Upgrading\");\n        _;\n    }\n\n    function acceptTransfer(\n        address tokenAddress,\n        address receiver,\n        uint256 amount,\n        string calldata symbol,\n        bytes32 blockHash,\n        bytes32 transactionHash,\n        uint32 logIndex,\n        uint8 decimals,\n        uint256 granularity\n    ) external returns(bool) {\n        return _acceptTransfer(tokenAddress, receiver, amount, symbol, blockHash, transactionHash, logIndex, decimals, granularity, \"\");\n    }\n\n    function acceptTransferAt(\n        address tokenAddress,\n        address receiver,\n        uint256 amount,\n        string calldata symbol,\n        bytes32 blockHash,\n        bytes32 transactionHash,\n        uint32 logIndex,\n        uint8 decimals,\n        uint256 granularity,\n        bytes calldata userData\n    ) external returns(bool) {\n        return _acceptTransfer(tokenAddress, receiver, amount, symbol, blockHash, transactionHash, logIndex, decimals, granularity, userData);\n    }\n\n    function _acceptTransfer(\n        address tokenAddress,\n        address receiver,\n        uint256 amount,\n        string memory symbol,\n        bytes32 blockHash,\n        bytes32 transactionHash,\n        uint32 logIndex,\n        uint8 decimals,\n        uint256 granularity,\n        bytes memory userData\n    ) internal onlyFederation whenNotPaused nonReentrant returns(bool) {\n        require(tokenAddress != NULL_ADDRESS, \"Bridge: Token is null\");\n        require(receiver != NULL_ADDRESS, \"Bridge: Receiver is null\");\n        require(amount > 0, \"Bridge: Amount 0\");\n        require(bytes(symbol).length > 0, \"Bridge: Empty symbol\");\n        require(blockHash != NULL_HASH, \"Bridge: BlockHash is null\");\n        require(transactionHash != NULL_HASH, \"Bridge: Transaction is null\");\n        require(decimals <= 18, \"Bridge: Decimals bigger 18\");\n        require(Utils.granularityToDecimals(granularity) <= 18, \"Bridge: invalid granularity\");\n\n        _processTransaction(blockHash, transactionHash, receiver, amount, logIndex);\n\n        if (knownTokens[tokenAddress]) {\n            _acceptCrossBackToToken(receiver, tokenAddress, decimals, granularity, amount);\n        } else {\n            _acceptCrossToSideToken(receiver, tokenAddress, decimals, granularity, amount, symbol, userData);\n        }\n        return true;\n    }\n\n    function _acceptCrossToSideToken(\n        address receiver,\n        address tokenAddress,\n        uint8 decimals,\n        uint256 granularity,\n        uint256 amount,\n        string memory symbol,\n        bytes memory userData\n    ) private {\n        (uint256 calculatedGranularity,uint256 formattedAmount) = Utils.calculateGranularityAndAmount(decimals, granularity, amount);\n        ISideToken sideToken = mappedTokens[tokenAddress];\n        if (address(sideToken) == NULL_ADDRESS) {\n            sideToken = _createSideToken(tokenAddress, symbol, calculatedGranularity);\n        } else {\n            require(calculatedGranularity == sideToken.granularity(), \"Bridge: Granularity differ from side token\");\n        }\n        sideToken.mint(receiver, formattedAmount, userData, \"\");\n\n        if (receiver.isContract()) {\n            (bool success, bytes memory errorData) = receiver.call(\n                abi.encodeWithSignature(\"onTokensMinted(uint256,address,bytes)\", formattedAmount, sideToken, userData)\n            );\n            if (!success) {\n                emit ErrorTokenReceiver(errorData);\n            }\n        }\n\n        emit AcceptedCrossTransfer(tokenAddress, receiver, amount, decimals, granularity, formattedAmount, 18, calculatedGranularity, userData);\n    }\n\n    function _acceptCrossBackToToken(address receiver, address tokenAddress, uint8 decimals, uint256 granularity, uint256 amount) private {\n        require(decimals == 18, \"Bridge: Invalid decimals cross back\");\n        //As side tokens are ERC777 we need to convert granularity to decimals\n        (uint8 calculatedDecimals, uint256 formattedAmount) = Utils.calculateDecimalsAndAmount(tokenAddress, granularity, amount);\n        IERC20(tokenAddress).safeTransfer(receiver, formattedAmount);\n        emit AcceptedCrossTransfer(tokenAddress, receiver, amount, decimals, granularity, formattedAmount, calculatedDecimals, 1, \"\");\n    }\n\n    /**\n    * ERC-20 tokens approve and transferFrom pattern\n    * See https://eips.ethereum.org/EIPS/eip-20#transferfrom\n    */\n    function receiveTokensAt(\n        address tokenToUse,\n        uint256 amount,\n        address receiver,\n        bytes calldata extraData\n    ) external returns(bool) {\n        return _receiveTokens(tokenToUse, amount, receiver, extraData);\n    }\n\n    /**\n    * ERC-20 tokens approve and transferFrom pattern\n    * See https://eips.ethereum.org/EIPS/eip-20#transferfrom\n    */\n    function receiveTokens(address tokenToUse, uint256 amount) external returns(bool) {\n        return _receiveTokens(tokenToUse, amount, _msgSender(), \"\");\n    }\n\n    /**\n     * ERC-20 tokens approve and transferFrom pattern\n     * See https://eips.ethereum.org/EIPS/eip-20#transferfrom\n     */\n    function _receiveTokens(\n        address tokenToUse,\n        uint256 amount,\n        address receiver,\n        bytes memory extraData\n    ) private whenNotUpgrading whenNotPaused nonReentrant returns(bool) {\n        //Transfer the tokens on IERC20, they should be already Approved for the bridge Address to use them\n        IERC20(tokenToUse).safeTransferFrom(_msgSender(), address(this), amount);\n        crossTokens(tokenToUse, receiver, amount, extraData);\n        return true;\n    }\n\n    /**\n     * ERC-777 tokensReceived hook allows to send tokens to a contract and notify it in a single transaction\n     * See https://eips.ethereum.org/EIPS/eip-777#motivation for details\n     */\n    function tokensReceived (\n        address operator,\n        address from,\n        address to,\n        uint amount,\n        bytes calldata userData,\n        bytes calldata\n    ) external whenNotPaused whenNotUpgrading {\n        //Hook from ERC777address\n        if(operator == address(this)) return; // Avoid loop from bridge calling to ERC77transferFrom\n        require(to == address(this), \"Bridge: Not to address\");\n        address tokenToUse = _msgSender();\n        //This can only be used with trusted contracts\n        crossTokens(tokenToUse, from, amount, userData);\n    }\n\n    function crossTokens(address tokenToUse, address receiver, uint256 amount, bytes memory userData) private {\n        bool isASideToken = originalTokens[tokenToUse] != NULL_ADDRESS;\n        //Send the payment to the MultiSig of the Federation\n        uint256 fee = amount.mul(feePercentage).div(feePercentageDivider);\n        uint256 amountMinusFees = amount.sub(fee);\n        if (isASideToken) {\n            uint256 modulo = amountMinusFees.mod(ISideToken(tokenToUse).granularity());\n            fee = fee.add(modulo);\n            amountMinusFees = amountMinusFees.sub(modulo);\n        }\n        if(fee > 0) {\n            IERC20(tokenToUse).safeTransfer(owner(), fee);\n        }\n        if (isASideToken) {\n            verifyWithAllowTokens(tokenToUse, amount, isASideToken);\n            //Side Token Crossing\n            ISideToken(tokenToUse).burn(amountMinusFees, userData);\n            // solium-disable-next-line max-len\n            emit Cross(originalTokens[tokenToUse], receiver, amountMinusFees, ISideToken(tokenToUse).symbol(), userData, ISideToken(tokenToUse).decimals(), ISideToken(tokenToUse).granularity());\n        } else {\n            //Main Token Crossing\n            knownTokens[tokenToUse] = true;\n            (uint8 decimals, uint256 granularity, string memory symbol) = Utils.getTokenInfo(tokenToUse);\n            uint formattedAmount = amount;\n            if(decimals != 18) {\n                formattedAmount = amount.mul(uint256(10)**(18-decimals));\n            }\n            //We consider the amount before fees converted to 18 decimals to check the limits\n            verifyWithAllowTokens(tokenToUse, formattedAmount, isASideToken);\n            emit Cross(tokenToUse, receiver, amountMinusFees, symbol, userData, decimals, granularity);\n        }\n    }\n\n    function _createSideToken(address token, string memory symbol, uint256 granularity) private returns (ISideToken sideToken){\n        //string memory newSymbol = string(abi.encodePacked(symbolPrefix, symbol));\n        string memory newSymbol = string(abi.encodePacked(symbol, symbolPrefix));\n        address sideTokenAddress = sideTokenFactory.createSideToken(newSymbol, newSymbol, granularity);\n        sideToken = ISideToken(sideTokenAddress);\n        mappedTokens[token] = sideToken;\n        originalTokens[sideTokenAddress] = token;\n        emit NewSideToken(sideTokenAddress, token, newSymbol, granularity);\n        return sideToken;\n    }\n\n    function verifyWithAllowTokens(address tokenToUse, uint256 amount, bool isASideToken) private  {\n        // solium-disable-next-line security/no-block-members\n        if (now > lastDay + 24 hours) {\n            // solium-disable-next-line security/no-block-members\n            lastDay = now;\n            spentToday = 0;\n        }\n        require(allowTokens.isValidTokenTransfer(tokenToUse, amount, spentToday, isASideToken), \"Bridge: Bigger than limit\");\n        spentToday = spentToday.add(amount);\n    }\n\n    function getTransactionId(\n        bytes32 _blockHash,\n        bytes32 _transactionHash,\n        address _receiver,\n        uint256 _amount,\n        uint32 _logIndex\n    )\n        public pure returns(bytes32)\n    {\n        return keccak256(abi.encodePacked(_blockHash, _transactionHash, _receiver, _amount, _logIndex));\n    }\n\n    function _processTransaction(\n        bytes32 _blockHash,\n        bytes32 _transactionHash,\n        address _receiver,\n        uint256 _amount,\n        uint32 _logIndex\n    )\n        private\n    {\n        bytes32 compiledId = getTransactionId(_blockHash, _transactionHash, _receiver, _amount, _logIndex);\n        require(!processed[compiledId], \"Bridge: Already processed\");\n        processed[compiledId] = true;\n    }\n\n    function setFeePercentage(uint amount) external onlyOwner whenNotPaused {\n        require(amount < (feePercentageDivider/10), \"Bridge: bigger than 10%\");\n        feePercentage = amount;\n        emit FeePercentageChanged(feePercentage);\n    }\n\n    function getFeePercentage() external view returns(uint) {\n        return feePercentage;\n    }\n\n    function calcMaxWithdraw() external view returns (uint) {\n        uint spent = spentToday;\n        // solium-disable-next-line security/no-block-members\n        if (now > lastDay + 24 hours)\n            spent = 0;\n        return allowTokens.calcMaxWithdraw(spent);\n    }\n\n    function changeFederation(address newFederation) external onlyOwner returns(bool) {\n        _changeFederation(newFederation);\n        return true;\n    }\n\n    function _changeFederation(address newFederation) internal {\n        require(newFederation != NULL_ADDRESS, \"Bridge: Federation is empty\");\n        federation = newFederation;\n        emit FederationChanged(federation);\n    }\n\n    function getFederation() external view returns(address) {\n        return federation;\n    }\n\n    function changeSideTokenFactory(address newSideTokenFactory) external onlyOwner returns(bool) {\n        _changeSideTokenFactory(newSideTokenFactory);\n        return true;\n    }\n\n    function _changeSideTokenFactory(address newSideTokenFactory) internal {\n        require(newSideTokenFactory != NULL_ADDRESS, \"Bridge: SideTokenFactory is empty\");\n        sideTokenFactory = ISideTokenFactory(newSideTokenFactory);\n        emit SideTokenFactoryChanged(newSideTokenFactory);\n    }\n\n    function startUpgrade() external onlyOwner {\n        isUpgrading = true;\n        emit Upgrading(isUpgrading);\n    }\n\n    function endUpgrade() external onlyOwner {\n        isUpgrading = false;\n        emit Upgrading(isUpgrading);\n    }\n\n    // Commented because it is unused for us and need decrease contract size\n    //This method is only to recreate the USDT and USDC tokens on rsk without granularity restrictions.\n//    function clearSideToken() external onlyOwner returns(bool) {\n//        require(!alreadyRun, \"already done\");\n//        alreadyRun = true;\n//        address payable[4] memory sideTokens = [\n//            0xe506F698b31a66049BD4653ed934E7a07Cbc5549,\n//            0x5a42221D7AaE8e185BC0054Bb036D9757eC18857,\n//            0xcdc8ccBbFB6407c53118fE47259e8d00C81F42CD,\n//            0x6117C9529F15c52e2d3188d5285C745B757b5825\n//        ];\n//        for (uint i = 0; i < sideTokens.length; i++) {\n//            address originalToken = address(originalTokens[sideTokens[i]]);\n//            originalTokens[sideTokens[i]] = NULL_ADDRESS;\n//            mappedTokens[originalToken] = ISideToken(NULL_ADDRESS);\n//        }\n//        return true;\n//    }\n\n}\n",
  "sourcePath": "/Users/pooh/sovryn/deploy_bridge/MAIN-ETH-RSK/Bridge-SC/sovryn-token-bridge/bridge/contracts/Bridge_v2.sol",
  "compiler": {
    "name": "solc",
    "version": "0.5.17+commit.d19bba13.Emscripten.clang"
  },
  "schemaVersion": "3.3.4",
  "updatedAt": "2021-05-22T15:50:52.410Z",
  "networkType": "ethereum",
  "devdoc": {
    "methods": {
      "initialize(address)": {
        "details": "Initializes the contract setting the deployer as the initial owner."
      },
      "isOwner()": {
        "details": "Returns true if the caller is the current owner."
      },
      "owner()": {
        "details": "Returns the address of the current owner."
      },
      "pause()": {
        "details": "Called by a pauser to pause, triggers stopped state."
      },
      "paused()": {
        "details": "Returns true if the contract is paused, and false otherwise."
      },
      "renounceOwnership()": {
        "details": "Leaves the contract without owner. It will not be possible to call `onlyOwner` functions anymore. Can only be called by the current owner.     * > Note: Renouncing ownership will leave the contract without an owner, thereby removing any functionality that is only available to the owner."
      },
      "transferOwnership(address)": {
        "details": "Transfers ownership of the contract to a new account (`newOwner`). Can only be called by the current owner."
      },
      "unpause()": {
        "details": "Called by a pauser to unpause, returns to normal state."
      }
    }
  },
  "userdoc": {
    "methods": {
      "receiveTokens(address,uint256)": {
        "notice": "ERC-20 tokens approve and transferFrom pattern See https://eips.ethereum.org/EIPS/eip-20#transferfrom"
      },
      "receiveTokensAt(address,uint256,address,bytes)": {
        "notice": "ERC-20 tokens approve and transferFrom pattern See https://eips.ethereum.org/EIPS/eip-20#transferfrom"
      },
      "tokensReceived(address,address,address,uint256,bytes,bytes)": {
        "notice": "ERC-777 tokensReceived hook allows to send tokens to a contract and notify it in a single transaction See https://eips.ethereum.org/EIPS/eip-777#motivation for details"
      }
    }
  }
}