{
  "contractName": "Federation_v0",
  "abi": [
    {
      "inputs": [
        {
          "internalType": "address[]",
          "name": "_members",
          "type": "address[]"
        },
        {
          "internalType": "uint256",
          "name": "_required",
          "type": "uint256"
        }
      ],
      "payable": false,
      "stateMutability": "nonpayable",
      "type": "constructor"
    },
    {
      "anonymous": false,
      "inputs": [
        {
          "indexed": true,
          "internalType": "bytes32",
          "name": "transactionId",
          "type": "bytes32"
        }
      ],
      "name": "Executed",
      "type": "event"
    },
    {
      "anonymous": false,
      "inputs": [
        {
          "indexed": true,
          "internalType": "address",
          "name": "member",
          "type": "address"
        }
      ],
      "name": "MemberAddition",
      "type": "event"
    },
    {
      "anonymous": false,
      "inputs": [
        {
          "indexed": true,
          "internalType": "address",
          "name": "member",
          "type": "address"
        }
      ],
      "name": "MemberRemoval",
      "type": "event"
    },
    {
      "anonymous": false,
      "inputs": [
        {
          "indexed": true,
          "internalType": "address",
          "name": "previousOwner",
          "type": "address"
        },
        {
          "indexed": true,
          "internalType": "address",
          "name": "newOwner",
          "type": "address"
        }
      ],
      "name": "OwnershipTransferred",
      "type": "event"
    },
    {
      "anonymous": false,
      "inputs": [
        {
          "indexed": false,
          "internalType": "uint256",
          "name": "required",
          "type": "uint256"
        }
      ],
      "name": "RequirementChange",
      "type": "event"
    },
    {
      "anonymous": false,
      "inputs": [
        {
          "indexed": true,
          "internalType": "address",
          "name": "sender",
          "type": "address"
        },
        {
          "indexed": true,
          "internalType": "bytes32",
          "name": "transactionId",
          "type": "bytes32"
        }
      ],
      "name": "Voted",
      "type": "event"
    },
    {
      "constant": true,
      "inputs": [],
      "name": "MAX_MEMBER_COUNT",
      "outputs": [
        {
          "internalType": "uint256",
          "name": "",
          "type": "uint256"
        }
      ],
      "payable": false,
      "stateMutability": "view",
      "type": "function"
    },
    {
      "constant": true,
      "inputs": [],
      "name": "bridge",
      "outputs": [
        {
          "internalType": "contract IBridge_v0",
          "name": "",
          "type": "address"
        }
      ],
      "payable": false,
      "stateMutability": "view",
      "type": "function"
    },
    {
      "constant": true,
      "inputs": [
        {
          "internalType": "address",
          "name": "",
          "type": "address"
        }
      ],
      "name": "isMember",
      "outputs": [
        {
          "internalType": "bool",
          "name": "",
          "type": "bool"
        }
      ],
      "payable": false,
      "stateMutability": "view",
      "type": "function"
    },
    {
      "constant": true,
      "inputs": [],
      "name": "isOwner",
      "outputs": [
        {
          "internalType": "bool",
          "name": "",
          "type": "bool"
        }
      ],
      "payable": false,
      "stateMutability": "view",
      "type": "function"
    },
    {
      "constant": true,
      "inputs": [
        {
          "internalType": "uint256",
          "name": "",
          "type": "uint256"
        }
      ],
      "name": "members",
      "outputs": [
        {
          "internalType": "address",
          "name": "",
          "type": "address"
        }
      ],
      "payable": false,
      "stateMutability": "view",
      "type": "function"
    },
    {
      "constant": true,
      "inputs": [],
      "name": "owner",
      "outputs": [
        {
          "internalType": "address",
          "name": "",
          "type": "address"
        }
      ],
      "payable": false,
      "stateMutability": "view",
      "type": "function"
    },
    {
      "constant": true,
      "inputs": [
        {
          "internalType": "bytes32",
          "name": "",
          "type": "bytes32"
        }
      ],
      "name": "processed",
      "outputs": [
        {
          "internalType": "bool",
          "name": "",
          "type": "bool"
        }
      ],
      "payable": false,
      "stateMutability": "view",
      "type": "function"
    },
    {
      "constant": false,
      "inputs": [],
      "name": "renounceOwnership",
      "outputs": [],
      "payable": false,
      "stateMutability": "nonpayable",
      "type": "function"
    },
    {
      "constant": true,
      "inputs": [],
      "name": "required",
      "outputs": [
        {
          "internalType": "uint256",
          "name": "",
          "type": "uint256"
        }
      ],
      "payable": false,
      "stateMutability": "view",
      "type": "function"
    },
    {
      "constant": false,
      "inputs": [
        {
          "internalType": "address",
          "name": "newOwner",
          "type": "address"
        }
      ],
      "name": "transferOwnership",
      "outputs": [],
      "payable": false,
      "stateMutability": "nonpayable",
      "type": "function"
    },
    {
      "constant": true,
      "inputs": [
        {
          "internalType": "bytes32",
          "name": "",
          "type": "bytes32"
        },
        {
          "internalType": "address",
          "name": "",
          "type": "address"
        }
      ],
      "name": "votes",
      "outputs": [
        {
          "internalType": "bool",
          "name": "",
          "type": "bool"
        }
      ],
      "payable": false,
      "stateMutability": "view",
      "type": "function"
    },
    {
      "constant": false,
      "inputs": [
        {
          "internalType": "address",
          "name": "_bridge",
          "type": "address"
        }
      ],
      "name": "setBridge",
      "outputs": [],
      "payable": false,
      "stateMutability": "nonpayable",
      "type": "function"
    },
    {
      "constant": false,
      "inputs": [
        {
          "internalType": "address",
          "name": "originalTokenAddress",
          "type": "address"
        },
        {
          "internalType": "address",
          "name": "receiver",
          "type": "address"
        },
        {
          "internalType": "uint256",
          "name": "amount",
          "type": "uint256"
        },
        {
          "internalType": "string",
          "name": "symbol",
          "type": "string"
        },
        {
          "internalType": "bytes32",
          "name": "blockHash",
          "type": "bytes32"
        },
        {
          "internalType": "bytes32",
          "name": "transactionHash",
          "type": "bytes32"
        },
        {
          "internalType": "uint32",
          "name": "logIndex",
          "type": "uint32"
        }
      ],
      "name": "voteTransaction",
      "outputs": [
        {
          "internalType": "bool",
          "name": "",
          "type": "bool"
        }
      ],
      "payable": false,
      "stateMutability": "nonpayable",
      "type": "function"
    },
    {
      "constant": true,
      "inputs": [
        {
          "internalType": "bytes32",
          "name": "transactionId",
          "type": "bytes32"
        }
      ],
      "name": "getTransactionCount",
      "outputs": [
        {
          "internalType": "uint8",
          "name": "",
          "type": "uint8"
        }
      ],
      "payable": false,
      "stateMutability": "view",
      "type": "function"
    },
    {
      "constant": true,
      "inputs": [
        {
          "internalType": "bytes32",
          "name": "transactionId",
          "type": "bytes32"
        }
      ],
      "name": "hasVoted",
      "outputs": [
        {
          "internalType": "bool",
          "name": "",
          "type": "bool"
        }
      ],
      "payable": false,
      "stateMutability": "view",
      "type": "function"
    },
    {
      "constant": true,
      "inputs": [
        {
          "internalType": "bytes32",
          "name": "transactionId",
          "type": "bytes32"
        }
      ],
      "name": "transactionWasProcessed",
      "outputs": [
        {
          "internalType": "bool",
          "name": "",
          "type": "bool"
        }
      ],
      "payable": false,
      "stateMutability": "view",
      "type": "function"
    },
    {
      "constant": true,
      "inputs": [
        {
          "internalType": "address",
          "name": "originalTokenAddress",
          "type": "address"
        },
        {
          "internalType": "address",
          "name": "receiver",
          "type": "address"
        },
        {
          "internalType": "uint256",
          "name": "amount",
          "type": "uint256"
        },
        {
          "internalType": "string",
          "name": "symbol",
          "type": "string"
        },
        {
          "internalType": "bytes32",
          "name": "blockHash",
          "type": "bytes32"
        },
        {
          "internalType": "bytes32",
          "name": "transactionHash",
          "type": "bytes32"
        },
        {
          "internalType": "uint32",
          "name": "logIndex",
          "type": "uint32"
        }
      ],
      "name": "getTransactionId",
      "outputs": [
        {
          "internalType": "bytes32",
          "name": "",
          "type": "bytes32"
        }
      ],
      "payable": false,
      "stateMutability": "pure",
      "type": "function"
    },
    {
      "constant": false,
      "inputs": [
        {
          "internalType": "address",
          "name": "_newMember",
          "type": "address"
        }
      ],
      "name": "addMember",
      "outputs": [],
      "payable": false,
      "stateMutability": "nonpayable",
      "type": "function"
    },
    {
      "constant": false,
      "inputs": [
        {
          "internalType": "address",
          "name": "_oldMember",
          "type": "address"
        }
      ],
      "name": "removeMember",
      "outputs": [],
      "payable": false,
      "stateMutability": "nonpayable",
      "type": "function"
    },
    {
      "constant": true,
      "inputs": [],
      "name": "getMembers",
      "outputs": [
        {
          "internalType": "address[]",
          "name": "",
          "type": "address[]"
        }
      ],
      "payable": false,
      "stateMutability": "view",
      "type": "function"
    },
    {
      "constant": false,
      "inputs": [
        {
          "internalType": "uint256",
          "name": "_required",
          "type": "uint256"
        }
      ],
      "name": "changeRequirement",
      "outputs": [],
      "payable": false,
      "stateMutability": "nonpayable",
      "type": "function"
    }
  ],
  "bytecode": "0x60806040523480156200001157600080fd5b506040516200257138038062002571833981810160405260408110156200003757600080fd5b81019080805160405193929190846401000000008211156200005857600080fd5b838201915060208201858111156200006f57600080fd5b82518660208202830111640100000000821117156200008d57600080fd5b8083526020830192505050908051906020019060200280838360005b83811015620000c6578082015181840152602081019050620000a9565b5050505090500160405260200180519060200190929190505050620000f06200047160201b60201c565b6000806101000a81548173ffffffffffffffffffffffffffffffffffffffff021916908373ffffffffffffffffffffffffffffffffffffffff1602179055506000809054906101000a900473ffffffffffffffffffffffffffffffffffffffff1673ffffffffffffffffffffffffffffffffffffffff16600073ffffffffffffffffffffffffffffffffffffffff167f8be0079c531659141344cd1fd0a4f28419497f9722a3daafe3b4186f6b6457e060405160405180910390a3815181818111158015620001c0575060008114155b8015620001ce575060008214155b62000225576040517f08c379a0000000000000000000000000000000000000000000000000000000008152600401808060200182810382526043815260200180620025056043913960600191505060405180910390fd5b83600290805190602001906200023d92919062000479565b5060008090505b84518110156200042657600460008683815181106200025f57fe5b602002602001015173ffffffffffffffffffffffffffffffffffffffff1673ffffffffffffffffffffffffffffffffffffffff16815260200190815260200160002060009054906101000a900460ff16158015620002fe5750600073ffffffffffffffffffffffffffffffffffffffff16858281518110620002dd57fe5b602002602001015173ffffffffffffffffffffffffffffffffffffffff1614155b62000355576040517f08c379a0000000000000000000000000000000000000000000000000000000008152600401808060200182810382526029815260200180620025486029913960400191505060405180910390fd5b6001600460008784815181106200036857fe5b602002602001015173ffffffffffffffffffffffffffffffffffffffff1673ffffffffffffffffffffffffffffffffffffffff16815260200190815260200160002060006101000a81548160ff021916908315150217905550848181518110620003ce57fe5b602002602001015173ffffffffffffffffffffffffffffffffffffffff167f72114e270de66b9d2710ecf140403e5e99b1574767d6a8197bdc8d807a46e7c760405160405180910390a2808060010191505062000244565b50826003819055507fa3f1ee9126a074d9326c682f561767f710e927faa811f7a99829d49dc421797a6003546040518082815260200191505060405180910390a1505050506200054e565b600033905090565b828054828255906000526020600020908101928215620004f5579160200282015b82811115620004f45782518260006101000a81548173ffffffffffffffffffffffffffffffffffffffff021916908373ffffffffffffffffffffffffffffffffffffffff160217905550916020019190600101906200049a565b5b50905062000504919062000508565b5090565b6200054b91905b808211156200054757600081816101000a81549073ffffffffffffffffffffffffffffffffffffffff0219169055506001016200050f565b5090565b90565b611fa7806200055e6000396000f3fe608060405234801561001057600080fd5b50600436106101375760003560e01c80639386775a116100b8578063ba51a6df1161007c578063ba51a6df146106f7578063c1f0808a14610725578063ca6d56dc1461076b578063dc8452cd146107af578063e78cea92146107cd578063f2fde38b1461081757610137565b80639386775a146105485780639eab5253146105ae578063a1fb4acb1461060d578063a230c52414610655578063a93585f0146106b157610137565b8063681fc921116100ff578063681fc92114610470578063715018a61461048e5780638da5cb5b146104985780638dd14802146104e25780638f32d59b1461052657610137565b80630b1ca49a1461013c5780631b4613cb1461018057806336875dc3146101c657806348f51eb0146103035780635daf08ca14610402575b600080fd5b61017e6004803603602081101561015257600080fd5b81019080803573ffffffffffffffffffffffffffffffffffffffff16906020019092919050505061085b565b005b6101ac6004803603602081101561019657600080fd5b8101908080359060200190929190505050610c3b565b604051808215151515815260200191505060405180910390f35b6102ed600480360360e08110156101dc57600080fd5b81019080803573ffffffffffffffffffffffffffffffffffffffff169060200190929190803573ffffffffffffffffffffffffffffffffffffffff169060200190929190803590602001909291908035906020019064010000000081111561024357600080fd5b82018360208201111561025557600080fd5b8035906020019184600183028401116401000000008311171561027757600080fd5b91908080601f016020809104026020016040519081016040528093929190818152602001838380828437600081840152601f19601f8201169050808301925050505050505091929192908035906020019092919080359060200190929190803563ffffffff169060200190929190505050610ca9565b6040518082815260200191505060405180910390f35b6103e8600480360360e081101561031957600080fd5b81019080803573ffffffffffffffffffffffffffffffffffffffff169060200190929190803573ffffffffffffffffffffffffffffffffffffffff169060200190929190803590602001909291908035906020019064010000000081111561038057600080fd5b82018360208201111561039257600080fd5b803590602001918460018302840111640100000000831117156103b457600080fd5b90919293919293908035906020019092919080359060200190929190803563ffffffff169060200190929190505050610dc7565b604051808215151515815260200191505060405180910390f35b61042e6004803603602081101561041857600080fd5b81019080803590602001909291905050506112a5565b604051808273ffffffffffffffffffffffffffffffffffffffff1673ffffffffffffffffffffffffffffffffffffffff16815260200191505060405180910390f35b6104786112e1565b6040518082815260200191505060405180910390f35b6104966112e6565b005b6104a061141f565b604051808273ffffffffffffffffffffffffffffffffffffffff1673ffffffffffffffffffffffffffffffffffffffff16815260200191505060405180910390f35b610524600480360360208110156104f857600080fd5b81019080803573ffffffffffffffffffffffffffffffffffffffff169060200190929190505050611448565b005b61052e611506565b604051808215151515815260200191505060405180910390f35b6105946004803603604081101561055e57600080fd5b8101908080359060200190929190803573ffffffffffffffffffffffffffffffffffffffff169060200190929190505050611564565b604051808215151515815260200191505060405180910390f35b6105b6611593565b6040518080602001828103825283818151815260200191508051906020019060200280838360005b838110156105f95780820151818401526020810190506105de565b505050509050019250505060405180910390f35b6106396004803603602081101561062357600080fd5b8101908080359060200190929190505050611621565b604051808260ff1660ff16815260200191505060405180910390f35b6106976004803603602081101561066b57600080fd5b81019080803573ffffffffffffffffffffffffffffffffffffffff1690602001909291905050506116f9565b604051808215151515815260200191505060405180910390f35b6106dd600480360360208110156106c757600080fd5b8101908080359060200190929190505050611719565b604051808215151515815260200191505060405180910390f35b6107236004803603602081101561070d57600080fd5b8101908080359060200190929190505050611743565b005b6107516004803603602081101561073b57600080fd5b810190808035906020019092919050505061187a565b604051808215151515815260200191505060405180910390f35b6107ad6004803603602081101561078157600080fd5b81019080803573ffffffffffffffffffffffffffffffffffffffff16906020019092919050505061189a565b005b6107b7611b9f565b6040518082815260200191505060405180910390f35b6107d5611ba5565b604051808273ffffffffffffffffffffffffffffffffffffffff1673ffffffffffffffffffffffffffffffffffffffff16815260200191505060405180910390f35b6108596004803603602081101561082d57600080fd5b81019080803573ffffffffffffffffffffffffffffffffffffffff169060200190929190505050611bcb565b005b610863611506565b6108d5576040517f08c379a00000000000000000000000000000000000000000000000000000000081526004018080602001828103825260208152602001807f4f776e61626c653a2063616c6c6572206973206e6f7420746865206f776e657281525060200191505060405180910390fd5b600073ffffffffffffffffffffffffffffffffffffffff168173ffffffffffffffffffffffffffffffffffffffff16141561095b576040517f08c379a0000000000000000000000000000000000000000000000000000000008152600401808060200182810382526023815260200180611f286023913960400191505060405180910390fd5b600460008273ffffffffffffffffffffffffffffffffffffffff1673ffffffffffffffffffffffffffffffffffffffff16815260200190815260200160002060009054906101000a900460ff166109fd576040517f08c379a0000000000000000000000000000000000000000000000000000000008152600401808060200182810382526022815260200180611e4a6022913960400191505060405180910390fd5b600160028054905011610a5b576040517f08c379a0000000000000000000000000000000000000000000000000000000008152600401808060200182810382526028815260200180611f4b6028913960400191505060405180910390fd5b6000600460008373ffffffffffffffffffffffffffffffffffffffff1673ffffffffffffffffffffffffffffffffffffffff16815260200190815260200160002060006101000a81548160ff02191690831515021790555060008090505b600160028054905003811015610bdb578173ffffffffffffffffffffffffffffffffffffffff1660028281548110610aed57fe5b9060005260206000200160009054906101000a900473ffffffffffffffffffffffffffffffffffffffff1673ffffffffffffffffffffffffffffffffffffffff161415610bce57600260016002805490500381548110610b4957fe5b9060005260206000200160009054906101000a900473ffffffffffffffffffffffffffffffffffffffff1660028281548110610b8157fe5b9060005260206000200160006101000a81548173ffffffffffffffffffffffffffffffffffffffff021916908373ffffffffffffffffffffffffffffffffffffffff160217905550610bdb565b8080600101915050610ab9565b506001600281818054905003915081610bf49190611d9d565b508073ffffffffffffffffffffffffffffffffffffffff167f270bfc616dd36d5cb6b35aac93e6ef22b089c34e6f6ad6f0892797424840897b60405160405180910390a250565b6000600560008381526020019081526020016000206000610c5a611c51565b73ffffffffffffffffffffffffffffffffffffffff1673ffffffffffffffffffffffffffffffffffffffff16815260200190815260200160002060009054906101000a900460ff169050919050565b600087878787878787604051602001808873ffffffffffffffffffffffffffffffffffffffff1673ffffffffffffffffffffffffffffffffffffffff1660601b81526014018773ffffffffffffffffffffffffffffffffffffffff1673ffffffffffffffffffffffffffffffffffffffff1660601b815260140186815260200185805190602001908083835b60208310610d585780518252602082019150602081019050602083039250610d35565b6001836020036101000a0380198251168184511680821785525050505050509050018481526020018381526020018263ffffffff1663ffffffff1660e01b8152600401975050505050505050604051602081830303815290604052805190602001209050979650505050505050565b600060046000610dd5611c51565b73ffffffffffffffffffffffffffffffffffffffff1673ffffffffffffffffffffffffffffffffffffffff16815260200190815260200160002060009054906101000a900460ff16610e72576040517f08c379a0000000000000000000000000000000000000000000000000000000008152600401808060200182810382526034815260200180611e6c6034913960400191505060405180910390fd5b6000610ec78a8a8a8a8a8080601f016020809104026020016040519081016040528093929190818152602001838380828437600081840152601f19601f82011690508083019250505050505050898989610ca9565b90506006600082815260200190815260200160002060009054906101000a900460ff1615610ef9576001915050611299565b600560008281526020019081526020016000206000610f16611c51565b73ffffffffffffffffffffffffffffffffffffffff1673ffffffffffffffffffffffffffffffffffffffff16815260200190815260200160002060009054906101000a900460ff1615610f6d576001915050611299565b6001600560008381526020019081526020016000206000610f8c611c51565b73ffffffffffffffffffffffffffffffffffffffff1673ffffffffffffffffffffffffffffffffffffffff16815260200190815260200160002060006101000a81548160ff02191690831515021790555080610fe6611c51565b73ffffffffffffffffffffffffffffffffffffffff167fc78796858497f000f0a77d7f0c624bbaf635bf26239188e8fba52c571db2398d60405160405180910390a3600061103382611621565b90506003548160ff161015801561105e57506001600280805490508161105557fe5b04018160ff1610155b156112925760016006600084815260200190815260200160002060006101000a81548160ff0219169083151502179055506000600160009054906101000a900473ffffffffffffffffffffffffffffffffffffffff1673ffffffffffffffffffffffffffffffffffffffff16631ed408a68d8d8d8d8d8d8d8d6040518963ffffffff1660e01b8152600401808973ffffffffffffffffffffffffffffffffffffffff1673ffffffffffffffffffffffffffffffffffffffff1681526020018873ffffffffffffffffffffffffffffffffffffffff1673ffffffffffffffffffffffffffffffffffffffff168152602001878152602001806020018581526020018481526020018363ffffffff1663ffffffff1681526020018281038252878782818152602001925080828437600081840152601f19601f8201169050808301925050509950505050505050505050602060405180830381600087803b1580156111c657600080fd5b505af11580156111da573d6000803e3d6000fd5b505050506040513d60208110156111f057600080fd5b8101908080519060200190929190505050905080611259576040517f08c379a0000000000000000000000000000000000000000000000000000000008152600401808060200182810382526035815260200180611e156035913960400191505060405180910390fd5b827fa74c8847d513feba22a0f0cb38d53081abf97562cdb293926ba243689e7c41ca60405160405180910390a260019350505050611299565b6001925050505b98975050505050505050565b600281815481106112b257fe5b906000526020600020016000915054906101000a900473ffffffffffffffffffffffffffffffffffffffff1681565b603281565b6112ee611506565b611360576040517f08c379a00000000000000000000000000000000000000000000000000000000081526004018080602001828103825260208152602001807f4f776e61626c653a2063616c6c6572206973206e6f7420746865206f776e657281525060200191505060405180910390fd5b600073ffffffffffffffffffffffffffffffffffffffff166000809054906101000a900473ffffffffffffffffffffffffffffffffffffffff1673ffffffffffffffffffffffffffffffffffffffff167f8be0079c531659141344cd1fd0a4f28419497f9722a3daafe3b4186f6b6457e060405160405180910390a360008060006101000a81548173ffffffffffffffffffffffffffffffffffffffff021916908373ffffffffffffffffffffffffffffffffffffffff160217905550565b60008060009054906101000a900473ffffffffffffffffffffffffffffffffffffffff16905090565b611450611506565b6114c2576040517f08c379a00000000000000000000000000000000000000000000000000000000081526004018080602001828103825260208152602001807f4f776e61626c653a2063616c6c6572206973206e6f7420746865206f776e657281525060200191505060405180910390fd5b80600160006101000a81548173ffffffffffffffffffffffffffffffffffffffff021916908373ffffffffffffffffffffffffffffffffffffffff16021790555050565b60008060009054906101000a900473ffffffffffffffffffffffffffffffffffffffff1673ffffffffffffffffffffffffffffffffffffffff16611548611c51565b73ffffffffffffffffffffffffffffffffffffffff1614905090565b60056020528160005260406000206020528060005260406000206000915091509054906101000a900460ff1681565b6060600280548060200260200160405190810160405280929190818152602001828054801561161757602002820191906000526020600020905b8160009054906101000a900473ffffffffffffffffffffffffffffffffffffffff1673ffffffffffffffffffffffffffffffffffffffff16815260200190600101908083116115cd575b5050505050905090565b6000806000905060008090505b6002805490508160ff1610156116ef5760056000858152602001908152602001600020600060028360ff168154811061166357fe5b9060005260206000200160009054906101000a900473ffffffffffffffffffffffffffffffffffffffff1673ffffffffffffffffffffffffffffffffffffffff1673ffffffffffffffffffffffffffffffffffffffff16815260200190815260200160002060009054906101000a900460ff16156116e2576001820191505b808060010191505061162e565b5080915050919050565b60046020528060005260406000206000915054906101000a900460ff1681565b60006006600083815260200190815260200160002060009054906101000a900460ff169050919050565b61174b611506565b6117bd576040517f08c379a00000000000000000000000000000000000000000000000000000000081526004018080602001828103825260208152602001807f4f776e61626c653a2063616c6c6572206973206e6f7420746865206f776e657281525060200191505060405180910390fd5b600280549050818181111580156117d5575060008114155b80156117e2575060008214155b611837576040517f08c379a0000000000000000000000000000000000000000000000000000000008152600401808060200182810382526043815260200180611ec46043913960600191505060405180910390fd5b826003819055507fa3f1ee9126a074d9326c682f561767f710e927faa811f7a99829d49dc421797a836040518082815260200191505060405180910390a1505050565b60066020528060005260406000206000915054906101000a900460ff1681565b6118a2611506565b611914576040517f08c379a00000000000000000000000000000000000000000000000000000000081526004018080602001828103825260208152602001807f4f776e61626c653a2063616c6c6572206973206e6f7420746865206f776e657281525060200191505060405180910390fd5b600073ffffffffffffffffffffffffffffffffffffffff168173ffffffffffffffffffffffffffffffffffffffff16141561199a576040517f08c379a0000000000000000000000000000000000000000000000000000000008152600401808060200182810382526023815260200180611f286023913960400191505060405180910390fd5b600460008273ffffffffffffffffffffffffffffffffffffffff1673ffffffffffffffffffffffffffffffffffffffff16815260200190815260200160002060009054906101000a900460ff1615611a3d576040517f08c379a0000000000000000000000000000000000000000000000000000000008152600401808060200182810382526021815260200180611f076021913960400191505060405180910390fd5b603260028054905010611a9b576040517f08c379a0000000000000000000000000000000000000000000000000000000008152600401808060200182810382526024815260200180611ea06024913960400191505060405180910390fd5b6001600460008373ffffffffffffffffffffffffffffffffffffffff1673ffffffffffffffffffffffffffffffffffffffff16815260200190815260200160002060006101000a81548160ff02191690831515021790555060028190806001815401808255809150509060018203906000526020600020016000909192909190916101000a81548173ffffffffffffffffffffffffffffffffffffffff021916908373ffffffffffffffffffffffffffffffffffffffff160217905550508073ffffffffffffffffffffffffffffffffffffffff167f72114e270de66b9d2710ecf140403e5e99b1574767d6a8197bdc8d807a46e7c760405160405180910390a250565b60035481565b600160009054906101000a900473ffffffffffffffffffffffffffffffffffffffff1681565b611bd3611506565b611c45576040517f08c379a00000000000000000000000000000000000000000000000000000000081526004018080602001828103825260208152602001807f4f776e61626c653a2063616c6c6572206973206e6f7420746865206f776e657281525060200191505060405180910390fd5b611c4e81611c59565b50565b600033905090565b600073ffffffffffffffffffffffffffffffffffffffff168173ffffffffffffffffffffffffffffffffffffffff161415611cdf576040517f08c379a0000000000000000000000000000000000000000000000000000000008152600401808060200182810382526026815260200180611def6026913960400191505060405180910390fd5b8073ffffffffffffffffffffffffffffffffffffffff166000809054906101000a900473ffffffffffffffffffffffffffffffffffffffff1673ffffffffffffffffffffffffffffffffffffffff167f8be0079c531659141344cd1fd0a4f28419497f9722a3daafe3b4186f6b6457e060405160405180910390a3806000806101000a81548173ffffffffffffffffffffffffffffffffffffffff021916908373ffffffffffffffffffffffffffffffffffffffff16021790555050565b815481835581811115611dc457818360005260206000209182019101611dc39190611dc9565b5b505050565b611deb91905b80821115611de7576000816000905550600101611dcf565b5090565b9056fe4f776e61626c653a206e6577206f776e657220697320746865207a65726f206164647265737346656465726174696f6e3a2042726964676520416363657074205472616e7366657220776173206e6f74207375636365737366756c46656465726174696f6e3a204d656d62657220646f6573206e6f742065786973747346656465726174696f6e3a2043616c6c6572206973206e6f742061206d656d626572206f66207468652066656465726174696f6e46656465726174696f6e3a20416c72656164792061742066756c6c20636170616369747946656465726174696f6e3a2052657175697265642076616c756520697320696e76616c696420666f72207468652063757272656e74206d656d6265727320636f756e7446656465726174696f6e3a204d656d62657220616c72656164792065786973747346656465726174696f6e3a20416464726573732063616e6e6f7420626520656d70747946656465726174696f6e3a2043616e27742072656d6f766520616c6c20746865206d656d62657273a265627a7a72315820705ba547fc0cd8d21c0fb9beb5198f00832d362b1ff3a944d9ca582d3442024764736f6c6343000511003246656465726174696f6e3a2052657175697265642076616c756520697320696e76616c696420666f72207468652063757272656e74206d656d6265727320636f756e7446656465726174696f6e3a204d656d62657273206164647265737365732061726520696e76616c6964",
  "source": "pragma solidity ^0.5.0;\n\nimport \"./IBridge_v0.sol\";\nimport \"./zeppelin/ownership/Ownable.sol\";\n\ncontract Federation_v0 is Ownable {\n    uint constant public MAX_MEMBER_COUNT = 50;\n    address constant private NULL_ADDRESS = address(0);\n\n    IBridge_v0 public bridge;\n    address[] public members;\n    uint public required;\n\n    mapping (address => bool) public isMember;\n    mapping (bytes32 => mapping (address => bool)) public votes;\n    mapping(bytes32 => bool) public processed;\n\n    event Voted(address indexed sender, bytes32 indexed transactionId);\n    event Executed(bytes32 indexed transactionId);\n    event MemberAddition(address indexed member);\n    event MemberRemoval(address indexed member);\n    event RequirementChange(uint required);\n\n    modifier onlyMember() {\n        require(isMember[_msgSender()], \"Federation: Caller is not a member of the federation\");\n        _;\n    }\n\n    modifier validRequirement(uint membersCount, uint _required) {\n        // solium-disable-next-line max-len\n        require(_required <= membersCount && _required != 0 && membersCount != 0, \"Federation: Required value is invalid for the current members count\");\n        _;\n    }\n\n    constructor(address[] memory _members, uint _required) public validRequirement(_members.length, _required) {\n        members = _members;\n        for (uint i = 0; i < _members.length; i++) {\n            require(!isMember[_members[i]] && _members[i] != NULL_ADDRESS, \"Federation: Members addresses are invalid\");\n            isMember[_members[i]] = true;\n            emit MemberAddition(_members[i]);\n        }\n        required = _required;\n        emit RequirementChange(required);\n    }\n\n    function setBridge(address _bridge) external onlyOwner {\n        bridge = IBridge_v0(_bridge);\n    }\n\n    function voteTransaction(\n        address originalTokenAddress,\n        address receiver,\n        uint256 amount,\n        string calldata symbol,\n        bytes32 blockHash,\n        bytes32 transactionHash,\n        uint32 logIndex)\n    external onlyMember returns(bool)\n    {\n        bytes32 transactionId = getTransactionId(originalTokenAddress, receiver, amount, symbol, blockHash, transactionHash, logIndex);\n        if (processed[transactionId])\n            return true;\n\n        if (votes[transactionId][_msgSender()])\n            return true;\n\n        votes[transactionId][_msgSender()] = true;\n        emit Voted(_msgSender(), transactionId);\n\n        uint8 transactionCount = getTransactionCount(transactionId);\n        if (transactionCount >= required && transactionCount >= members.length / 2 + 1) {\n            processed[transactionId] = true;\n            bool acceptTransfer = bridge.acceptTransfer(originalTokenAddress, receiver, amount, symbol, blockHash, transactionHash, logIndex);\n            require(acceptTransfer, \"Federation: Bridge Accept Transfer was not successful\");\n            emit Executed(transactionId);\n            return true;\n        }\n\n        return true;\n    }\n\n    function getTransactionCount(bytes32 transactionId) public view returns(uint8) {\n        uint8 count = 0;\n        for (uint8 i = 0; i < members.length; i++) {\n            if (votes[transactionId][members[i]])\n                count += 1;\n        }\n        return count;\n    }\n\n    function hasVoted(bytes32 transactionId) external view returns(bool)\n    {\n        return votes[transactionId][_msgSender()];\n    }\n\n    function transactionWasProcessed(bytes32 transactionId) external view returns(bool)\n    {\n        return processed[transactionId];\n    }\n\n    function getTransactionId(\n        address originalTokenAddress,\n        address receiver,\n        uint256 amount,\n        string memory symbol,\n        bytes32 blockHash,\n        bytes32 transactionHash,\n        uint32 logIndex)\n    public pure returns(bytes32)\n    {\n        return keccak256(abi.encodePacked(originalTokenAddress, receiver, amount, symbol, blockHash, transactionHash, logIndex));\n    }\n\n    function addMember(address _newMember) external onlyOwner\n    {\n        require(_newMember != NULL_ADDRESS, \"Federation: Address cannot be empty\");\n        require(!isMember[_newMember], \"Federation: Member already exists\");\n        require(members.length < MAX_MEMBER_COUNT, \"Federation: Already at full capacity\");\n\n        isMember[_newMember] = true;\n        members.push(_newMember);\n        emit MemberAddition(_newMember);\n    }\n\n    function removeMember(address _oldMember) external onlyOwner\n    {\n        require(_oldMember != NULL_ADDRESS, \"Federation: Address cannot be empty\");\n        require(isMember[_oldMember], \"Federation: Member does not exists\");\n        require(members.length > 1, \"Federation: Can't remove all the members\");\n\n        isMember[_oldMember] = false;\n        for (uint i = 0; i < members.length - 1; i++) {\n            if (members[i] == _oldMember) {\n                members[i] = members[members.length - 1];\n                break;\n            }\n        }\n        members.length -= 1;\n        emit MemberRemoval(_oldMember);\n    }\n\n    function getMembers() external view returns (address[] memory)\n    {\n        return members;\n    }\n\n    function changeRequirement(uint _required) external onlyOwner validRequirement(members.length, _required)\n    {\n        required = _required;\n        emit RequirementChange(_required);\n    }\n\n}",
  "sourcePath": "/Users/pooh/sovryn/deploy_bridge/MAIN-Restore-RSK-ETH/Bridge-SC/sovryn-token-bridge/bridge/contracts/Federation_v0.sol",
  "compiler": {
    "name": "solc",
    "version": "0.5.17+commit.d19bba13.Emscripten.clang"
  },
  "schemaVersion": "3.2.4",
  "updatedAt": "2021-04-27T19:12:41.335Z",
  "devdoc": {
    "methods": {
      "isOwner()": {
        "details": "Returns true if the caller is the current owner."
      },
      "owner()": {
        "details": "Returns the address of the current owner."
      },
      "renounceOwnership()": {
        "details": "Leaves the contract without owner. It will not be possible to call `onlyOwner` functions anymore. Can only be called by the current owner.     * NOTE: Renouncing ownership will leave the contract without an owner, thereby removing any functionality that is only available to the owner."
      },
      "transferOwnership(address)": {
        "details": "Transfers ownership of the contract to a new account (`newOwner`). Can only be called by the current owner."
      }
    }
  },
  "userdoc": {
    "methods": {}
  }
}