{
  "contractName": "Federation_v1",
  "abi": [
    {
      "inputs": [
        {
          "internalType": "address[]",
          "name": "_members",
          "type": "address[]"
        },
        {
          "internalType": "uint256",
          "name": "_required",
          "type": "uint256"
        }
      ],
      "payable": false,
      "stateMutability": "nonpayable",
      "type": "constructor"
    },
    {
      "anonymous": false,
      "inputs": [
        {
          "indexed": false,
          "internalType": "address",
          "name": "bridge",
          "type": "address"
        }
      ],
      "name": "BridgeChanged",
      "type": "event"
    },
    {
      "anonymous": false,
      "inputs": [
        {
          "indexed": true,
          "internalType": "bytes32",
          "name": "transactionId",
          "type": "bytes32"
        }
      ],
      "name": "Executed",
      "type": "event"
    },
    {
      "anonymous": false,
      "inputs": [
        {
          "indexed": true,
          "internalType": "address",
          "name": "member",
          "type": "address"
        }
      ],
      "name": "MemberAddition",
      "type": "event"
    },
    {
      "anonymous": false,
      "inputs": [
        {
          "indexed": true,
          "internalType": "address",
          "name": "member",
          "type": "address"
        }
      ],
      "name": "MemberRemoval",
      "type": "event"
    },
    {
      "anonymous": false,
      "inputs": [
        {
          "indexed": true,
          "internalType": "address",
          "name": "previousOwner",
          "type": "address"
        },
        {
          "indexed": true,
          "internalType": "address",
          "name": "newOwner",
          "type": "address"
        }
      ],
      "name": "OwnershipTransferred",
      "type": "event"
    },
    {
      "anonymous": false,
      "inputs": [
        {
          "indexed": false,
          "internalType": "uint256",
          "name": "required",
          "type": "uint256"
        }
      ],
      "name": "RequirementChange",
      "type": "event"
    },
    {
      "anonymous": false,
      "inputs": [
        {
          "indexed": true,
          "internalType": "address",
          "name": "sender",
          "type": "address"
        },
        {
          "indexed": true,
          "internalType": "bytes32",
          "name": "transactionId",
          "type": "bytes32"
        },
        {
          "indexed": false,
          "internalType": "address",
          "name": "originalTokenAddress",
          "type": "address"
        },
        {
          "indexed": false,
          "internalType": "address",
          "name": "receiver",
          "type": "address"
        },
        {
          "indexed": false,
          "internalType": "uint256",
          "name": "amount",
          "type": "uint256"
        },
        {
          "indexed": false,
          "internalType": "string",
          "name": "symbol",
          "type": "string"
        },
        {
          "indexed": false,
          "internalType": "bytes32",
          "name": "blockHash",
          "type": "bytes32"
        },
        {
          "indexed": true,
          "internalType": "bytes32",
          "name": "transactionHash",
          "type": "bytes32"
        },
        {
          "indexed": false,
          "internalType": "uint32",
          "name": "logIndex",
          "type": "uint32"
        },
        {
          "indexed": false,
          "internalType": "uint8",
          "name": "decimals",
          "type": "uint8"
        },
        {
          "indexed": false,
          "internalType": "uint256",
          "name": "granularity",
          "type": "uint256"
        }
      ],
      "name": "Voted",
      "type": "event"
    },
    {
      "constant": true,
      "inputs": [],
      "name": "MAX_MEMBER_COUNT",
      "outputs": [
        {
          "internalType": "uint256",
          "name": "",
          "type": "uint256"
        }
      ],
      "payable": false,
      "stateMutability": "view",
      "type": "function"
    },
    {
      "constant": true,
      "inputs": [],
      "name": "bridge",
      "outputs": [
        {
          "internalType": "contract IBridge_v1",
          "name": "",
          "type": "address"
        }
      ],
      "payable": false,
      "stateMutability": "view",
      "type": "function"
    },
    {
      "constant": true,
      "inputs": [
        {
          "internalType": "address",
          "name": "",
          "type": "address"
        }
      ],
      "name": "isMember",
      "outputs": [
        {
          "internalType": "bool",
          "name": "",
          "type": "bool"
        }
      ],
      "payable": false,
      "stateMutability": "view",
      "type": "function"
    },
    {
      "constant": true,
      "inputs": [],
      "name": "isOwner",
      "outputs": [
        {
          "internalType": "bool",
          "name": "",
          "type": "bool"
        }
      ],
      "payable": false,
      "stateMutability": "view",
      "type": "function"
    },
    {
      "constant": true,
      "inputs": [
        {
          "internalType": "uint256",
          "name": "",
          "type": "uint256"
        }
      ],
      "name": "members",
      "outputs": [
        {
          "internalType": "address",
          "name": "",
          "type": "address"
        }
      ],
      "payable": false,
      "stateMutability": "view",
      "type": "function"
    },
    {
      "constant": true,
      "inputs": [],
      "name": "owner",
      "outputs": [
        {
          "internalType": "address",
          "name": "",
          "type": "address"
        }
      ],
      "payable": false,
      "stateMutability": "view",
      "type": "function"
    },
    {
      "constant": true,
      "inputs": [
        {
          "internalType": "bytes32",
          "name": "",
          "type": "bytes32"
        }
      ],
      "name": "processed",
      "outputs": [
        {
          "internalType": "bool",
          "name": "",
          "type": "bool"
        }
      ],
      "payable": false,
      "stateMutability": "view",
      "type": "function"
    },
    {
      "constant": false,
      "inputs": [],
      "name": "renounceOwnership",
      "outputs": [],
      "payable": false,
      "stateMutability": "nonpayable",
      "type": "function"
    },
    {
      "constant": true,
      "inputs": [],
      "name": "required",
      "outputs": [
        {
          "internalType": "uint256",
          "name": "",
          "type": "uint256"
        }
      ],
      "payable": false,
      "stateMutability": "view",
      "type": "function"
    },
    {
      "constant": false,
      "inputs": [
        {
          "internalType": "address",
          "name": "newOwner",
          "type": "address"
        }
      ],
      "name": "transferOwnership",
      "outputs": [],
      "payable": false,
      "stateMutability": "nonpayable",
      "type": "function"
    },
    {
      "constant": true,
      "inputs": [
        {
          "internalType": "bytes32",
          "name": "",
          "type": "bytes32"
        },
        {
          "internalType": "address",
          "name": "",
          "type": "address"
        }
      ],
      "name": "votes",
      "outputs": [
        {
          "internalType": "bool",
          "name": "",
          "type": "bool"
        }
      ],
      "payable": false,
      "stateMutability": "view",
      "type": "function"
    },
    {
      "constant": false,
      "inputs": [
        {
          "internalType": "address",
          "name": "_bridge",
          "type": "address"
        }
      ],
      "name": "setBridge",
      "outputs": [],
      "payable": false,
      "stateMutability": "nonpayable",
      "type": "function"
    },
    {
      "constant": false,
      "inputs": [
        {
          "internalType": "address",
          "name": "originalTokenAddress",
          "type": "address"
        },
        {
          "internalType": "address",
          "name": "receiver",
          "type": "address"
        },
        {
          "internalType": "uint256",
          "name": "amount",
          "type": "uint256"
        },
        {
          "internalType": "string",
          "name": "symbol",
          "type": "string"
        },
        {
          "internalType": "bytes32",
          "name": "blockHash",
          "type": "bytes32"
        },
        {
          "internalType": "bytes32",
          "name": "transactionHash",
          "type": "bytes32"
        },
        {
          "internalType": "uint32",
          "name": "logIndex",
          "type": "uint32"
        },
        {
          "internalType": "uint8",
          "name": "decimals",
          "type": "uint8"
        },
        {
          "internalType": "uint256",
          "name": "granularity",
          "type": "uint256"
        }
      ],
      "name": "voteTransaction",
      "outputs": [
        {
          "internalType": "bool",
          "name": "",
          "type": "bool"
        }
      ],
      "payable": false,
      "stateMutability": "nonpayable",
      "type": "function"
    },
    {
      "constant": true,
      "inputs": [
        {
          "internalType": "bytes32",
          "name": "transactionId",
          "type": "bytes32"
        }
      ],
      "name": "getTransactionCount",
      "outputs": [
        {
          "internalType": "uint256",
          "name": "",
          "type": "uint256"
        }
      ],
      "payable": false,
      "stateMutability": "view",
      "type": "function"
    },
    {
      "constant": true,
      "inputs": [
        {
          "internalType": "bytes32",
          "name": "transactionId",
          "type": "bytes32"
        }
      ],
      "name": "hasVoted",
      "outputs": [
        {
          "internalType": "bool",
          "name": "",
          "type": "bool"
        }
      ],
      "payable": false,
      "stateMutability": "view",
      "type": "function"
    },
    {
      "constant": true,
      "inputs": [
        {
          "internalType": "bytes32",
          "name": "transactionId",
          "type": "bytes32"
        }
      ],
      "name": "transactionWasProcessed",
      "outputs": [
        {
          "internalType": "bool",
          "name": "",
          "type": "bool"
        }
      ],
      "payable": false,
      "stateMutability": "view",
      "type": "function"
    },
    {
      "constant": true,
      "inputs": [
        {
          "internalType": "address",
          "name": "originalTokenAddress",
          "type": "address"
        },
        {
          "internalType": "address",
          "name": "receiver",
          "type": "address"
        },
        {
          "internalType": "uint256",
          "name": "amount",
          "type": "uint256"
        },
        {
          "internalType": "string",
          "name": "symbol",
          "type": "string"
        },
        {
          "internalType": "bytes32",
          "name": "blockHash",
          "type": "bytes32"
        },
        {
          "internalType": "bytes32",
          "name": "transactionHash",
          "type": "bytes32"
        },
        {
          "internalType": "uint32",
          "name": "logIndex",
          "type": "uint32"
        },
        {
          "internalType": "uint8",
          "name": "decimals",
          "type": "uint8"
        },
        {
          "internalType": "uint256",
          "name": "granularity",
          "type": "uint256"
        }
      ],
      "name": "getTransactionId",
      "outputs": [
        {
          "internalType": "bytes32",
          "name": "",
          "type": "bytes32"
        }
      ],
      "payable": false,
      "stateMutability": "pure",
      "type": "function"
    },
    {
      "constant": false,
      "inputs": [
        {
          "internalType": "address",
          "name": "_newMember",
          "type": "address"
        }
      ],
      "name": "addMember",
      "outputs": [],
      "payable": false,
      "stateMutability": "nonpayable",
      "type": "function"
    },
    {
      "constant": false,
      "inputs": [
        {
          "internalType": "address",
          "name": "_oldMember",
          "type": "address"
        }
      ],
      "name": "removeMember",
      "outputs": [],
      "payable": false,
      "stateMutability": "nonpayable",
      "type": "function"
    },
    {
      "constant": true,
      "inputs": [],
      "name": "getMembers",
      "outputs": [
        {
          "internalType": "address[]",
          "name": "",
          "type": "address[]"
        }
      ],
      "payable": false,
      "stateMutability": "view",
      "type": "function"
    },
    {
      "constant": false,
      "inputs": [
        {
          "internalType": "uint256",
          "name": "_required",
          "type": "uint256"
        }
      ],
      "name": "changeRequirement",
      "outputs": [],
      "payable": false,
      "stateMutability": "nonpayable",
      "type": "function"
    }
  ],
  "bytecode": "0x60806040523480156200001157600080fd5b50604051620028cc380380620028cc833981810160405260408110156200003757600080fd5b81019080805160405193929190846401000000008211156200005857600080fd5b838201915060208201858111156200006f57600080fd5b82518660208202830111640100000000821117156200008d57600080fd5b8083526020830192505050908051906020019060200280838360005b83811015620000c6578082015181840152602081019050620000a9565b5050505090500160405260200180519060200190929190505050620000f06200050660201b60201c565b6000806101000a81548173ffffffffffffffffffffffffffffffffffffffff021916908373ffffffffffffffffffffffffffffffffffffffff1602179055506000809054906101000a900473ffffffffffffffffffffffffffffffffffffffff1673ffffffffffffffffffffffffffffffffffffffff16600073ffffffffffffffffffffffffffffffffffffffff167f8be0079c531659141344cd1fd0a4f28419497f9722a3daafe3b4186f6b6457e060405160405180910390a3815181818111158015620001c0575060008114155b8015620001ce575060008214155b62000241576040517f08c379a00000000000000000000000000000000000000000000000000000000081526004018080602001828103825260208152602001807f46656465726174696f6e3a20496e76616c696420726571756972656d656e747381525060200191505060405180910390fd5b6032845111156200029e576040517f08c379a000000000000000000000000000000000000000000000000000000000815260040180806020018281038252602b815260200180620028a1602b913960400191505060405180910390fd5b8360029080519060200190620002b69291906200050e565b5060008090505b8451811015620004bb5760046000868381518110620002d857fe5b602002602001015173ffffffffffffffffffffffffffffffffffffffff1673ffffffffffffffffffffffffffffffffffffffff16815260200190815260200160002060009054906101000a900460ff16158015620003775750600073ffffffffffffffffffffffffffffffffffffffff168582815181106200035657fe5b602002602001015173ffffffffffffffffffffffffffffffffffffffff1614155b620003ea576040517f08c379a000000000000000000000000000000000000000000000000000000000815260040180806020018281038252601b8152602001807f46656465726174696f6e3a20496e76616c6964206d656d62657273000000000081525060200191505060405180910390fd5b600160046000878481518110620003fd57fe5b602002602001015173ffffffffffffffffffffffffffffffffffffffff1673ffffffffffffffffffffffffffffffffffffffff16815260200190815260200160002060006101000a81548160ff0219169083151502179055508481815181106200046357fe5b602002602001015173ffffffffffffffffffffffffffffffffffffffff167f72114e270de66b9d2710ecf140403e5e99b1574767d6a8197bdc8d807a46e7c760405160405180910390a28080600101915050620002bd565b50826003819055507fa3f1ee9126a074d9326c682f561767f710e927faa811f7a99829d49dc421797a6003546040518082815260200191505060405180910390a150505050620005e3565b600033905090565b8280548282559060005260206000209081019282156200058a579160200282015b82811115620005895782518260006101000a81548173ffffffffffffffffffffffffffffffffffffffff021916908373ffffffffffffffffffffffffffffffffffffffff160217905550916020019190600101906200052f565b5b5090506200059991906200059d565b5090565b620005e091905b80821115620005dc57600081816101000a81549073ffffffffffffffffffffffffffffffffffffffff021916905550600101620005a4565b5090565b90565b6122ae80620005f36000396000f3fe608060405234801561001057600080fd5b50600436106101375760003560e01c80639eab5253116100b8578063c1f0808a1161007c578063c1f0808a14610638578063ca6d56dc1461067e578063d03e1ee9146106c2578063dc8452cd146107d9578063e78cea92146107f7578063f2fde38b1461084157610137565b80639eab5253146104c7578063a1fb4acb14610526578063a230c52414610568578063a93585f0146105c4578063ba51a6df1461060a57610137565b8063715018a6116100ff578063715018a6146103a75780638da5cb5b146103b15780638dd14802146103fb5780638f32d59b1461043f5780639386775a1461046157610137565b8063099160571461013c5780630b1ca49a146102915780631b4613cb146102d55780635daf08ca1461031b578063681fc92114610389575b600080fd5b61027b600480360361012081101561015357600080fd5b81019080803573ffffffffffffffffffffffffffffffffffffffff169060200190929190803573ffffffffffffffffffffffffffffffffffffffff16906020019092919080359060200190929190803590602001906401000000008111156101ba57600080fd5b8201836020820111156101cc57600080fd5b803590602001918460018302840111640100000000831117156101ee57600080fd5b91908080601f016020809104026020016040519081016040528093929190818152602001838380828437600081840152601f19601f8201169050808301925050505050505091929192908035906020019092919080359060200190929190803563ffffffff169060200190929190803560ff16906020019092919080359060200190929190505050610885565b6040518082815260200191505060405180910390f35b6102d3600480360360208110156102a757600080fd5b81019080803573ffffffffffffffffffffffffffffffffffffffff1690602001909291905050506109be565b005b610301600480360360208110156102eb57600080fd5b8101908080359060200190929190505050610e1e565b604051808215151515815260200191505060405180910390f35b6103476004803603602081101561033157600080fd5b8101908080359060200190929190505050610e8c565b604051808273ffffffffffffffffffffffffffffffffffffffff1673ffffffffffffffffffffffffffffffffffffffff16815260200191505060405180910390f35b610391610ec8565b6040518082815260200191505060405180910390f35b6103af610ecd565b005b6103b9611006565b604051808273ffffffffffffffffffffffffffffffffffffffff1673ffffffffffffffffffffffffffffffffffffffff16815260200191505060405180910390f35b61043d6004803603602081101561041157600080fd5b81019080803573ffffffffffffffffffffffffffffffffffffffff16906020019092919050505061102f565b005b6104476111f3565b604051808215151515815260200191505060405180910390f35b6104ad6004803603604081101561047757600080fd5b8101908080359060200190929190803573ffffffffffffffffffffffffffffffffffffffff169060200190929190505050611251565b604051808215151515815260200191505060405180910390f35b6104cf611280565b6040518080602001828103825283818151815260200191508051906020019060200280838360005b838110156105125780820151818401526020810190506104f7565b505050509050019250505060405180910390f35b6105526004803603602081101561053c57600080fd5b810190808035906020019092919050505061130e565b6040518082815260200191505060405180910390f35b6105aa6004803603602081101561057e57600080fd5b81019080803573ffffffffffffffffffffffffffffffffffffffff1690602001909291905050506113e0565b604051808215151515815260200191505060405180910390f35b6105f0600480360360208110156105da57600080fd5b8101908080359060200190929190505050611400565b604051808215151515815260200191505060405180910390f35b6106366004803603602081101561062057600080fd5b810190808035906020019092919050505061142a565b005b6106646004803603602081101561064e57600080fd5b81019080803590602001909291905050506115f5565b604051808215151515815260200191505060405180910390f35b6106c06004803603602081101561069457600080fd5b81019080803573ffffffffffffffffffffffffffffffffffffffff169060200190929190505050611615565b005b6107bf60048036036101208110156106d957600080fd5b81019080803573ffffffffffffffffffffffffffffffffffffffff169060200190929190803573ffffffffffffffffffffffffffffffffffffffff169060200190929190803590602001909291908035906020019064010000000081111561074057600080fd5b82018360208201111561075257600080fd5b8035906020019184600183028401116401000000008311171561077457600080fd5b90919293919293908035906020019092919080359060200190929190803563ffffffff169060200190929190803560ff16906020019092919080359060200190929190505050611954565b604051808215151515815260200191505060405180910390f35b6107e1611f20565b6040518082815260200191505060405180910390f35b6107ff611f26565b604051808273ffffffffffffffffffffffffffffffffffffffff1673ffffffffffffffffffffffffffffffffffffffff16815260200191505060405180910390f35b6108836004803603602081101561085757600080fd5b81019080803573ffffffffffffffffffffffffffffffffffffffff169060200190929190505050611f4c565b005b6000898989898989898989604051602001808a73ffffffffffffffffffffffffffffffffffffffff1673ffffffffffffffffffffffffffffffffffffffff1660601b81526014018973ffffffffffffffffffffffffffffffffffffffff1673ffffffffffffffffffffffffffffffffffffffff1660601b815260140188815260200187805190602001908083835b602083106109365780518252602082019150602081019050602083039250610913565b6001836020036101000a0380198251168184511680821785525050505050509050018681526020018581526020018463ffffffff1663ffffffff1660e01b81526004018360ff1660ff1660f81b815260010182815260200199505050505050505050506040516020818303038152906040528051906020012090509998505050505050505050565b6109c66111f3565b610a38576040517f08c379a00000000000000000000000000000000000000000000000000000000081526004018080602001828103825260208152602001807f4f776e61626c653a2063616c6c6572206973206e6f7420746865206f776e657281525060200191505060405180910390fd5b600073ffffffffffffffffffffffffffffffffffffffff168173ffffffffffffffffffffffffffffffffffffffff161415610adb576040517f08c379a00000000000000000000000000000000000000000000000000000000081526004018080602001828103825260188152602001807f46656465726174696f6e3a20456d707479206d656d626572000000000000000081525060200191505060405180910390fd5b600460008273ffffffffffffffffffffffffffffffffffffffff1673ffffffffffffffffffffffffffffffffffffffff16815260200190815260200160002060009054906101000a900460ff16610b7d576040517f08c379a00000000000000000000000000000000000000000000000000000000081526004018080602001828103825260218152602001806121df6021913960400191505060405180910390fd5b600160028054905011610bdb576040517f08c379a00000000000000000000000000000000000000000000000000000000081526004018080602001828103825260288152602001806122526028913960400191505060405180910390fd5b6003546001600280549050031015610c3e576040517f08c379a00000000000000000000000000000000000000000000000000000000081526004018080602001828103825260318152602001806122216031913960400191505060405180910390fd5b6000600460008373ffffffffffffffffffffffffffffffffffffffff1673ffffffffffffffffffffffffffffffffffffffff16815260200190815260200160002060006101000a81548160ff02191690831515021790555060008090505b600160028054905003811015610dbe578173ffffffffffffffffffffffffffffffffffffffff1660028281548110610cd057fe5b9060005260206000200160009054906101000a900473ffffffffffffffffffffffffffffffffffffffff1673ffffffffffffffffffffffffffffffffffffffff161415610db157600260016002805490500381548110610d2c57fe5b9060005260206000200160009054906101000a900473ffffffffffffffffffffffffffffffffffffffff1660028281548110610d6457fe5b9060005260206000200160006101000a81548173ffffffffffffffffffffffffffffffffffffffff021916908373ffffffffffffffffffffffffffffffffffffffff160217905550610dbe565b8080600101915050610c9c565b506001600281818054905003915081610dd7919061211e565b508073ffffffffffffffffffffffffffffffffffffffff167f270bfc616dd36d5cb6b35aac93e6ef22b089c34e6f6ad6f0892797424840897b60405160405180910390a250565b6000600560008381526020019081526020016000206000610e3d611fd2565b73ffffffffffffffffffffffffffffffffffffffff1673ffffffffffffffffffffffffffffffffffffffff16815260200190815260200160002060009054906101000a900460ff169050919050565b60028181548110610e9957fe5b906000526020600020016000915054906101000a900473ffffffffffffffffffffffffffffffffffffffff1681565b603281565b610ed56111f3565b610f47576040517f08c379a00000000000000000000000000000000000000000000000000000000081526004018080602001828103825260208152602001807f4f776e61626c653a2063616c6c6572206973206e6f7420746865206f776e657281525060200191505060405180910390fd5b600073ffffffffffffffffffffffffffffffffffffffff166000809054906101000a900473ffffffffffffffffffffffffffffffffffffffff1673ffffffffffffffffffffffffffffffffffffffff167f8be0079c531659141344cd1fd0a4f28419497f9722a3daafe3b4186f6b6457e060405160405180910390a360008060006101000a81548173ffffffffffffffffffffffffffffffffffffffff021916908373ffffffffffffffffffffffffffffffffffffffff160217905550565b60008060009054906101000a900473ffffffffffffffffffffffffffffffffffffffff16905090565b6110376111f3565b6110a9576040517f08c379a00000000000000000000000000000000000000000000000000000000081526004018080602001828103825260208152602001807f4f776e61626c653a2063616c6c6572206973206e6f7420746865206f776e657281525060200191505060405180910390fd5b600073ffffffffffffffffffffffffffffffffffffffff168173ffffffffffffffffffffffffffffffffffffffff16141561114c576040517f08c379a00000000000000000000000000000000000000000000000000000000081526004018080602001828103825260188152602001807f46656465726174696f6e3a20456d70747920627269646765000000000000000081525060200191505060405180910390fd5b80600160006101000a81548173ffffffffffffffffffffffffffffffffffffffff021916908373ffffffffffffffffffffffffffffffffffffffff1602179055507f9775531310b2880b61484ed85cbb0b491c8fde3a07f289c63b9255178279449781604051808273ffffffffffffffffffffffffffffffffffffffff1673ffffffffffffffffffffffffffffffffffffffff16815260200191505060405180910390a150565b60008060009054906101000a900473ffffffffffffffffffffffffffffffffffffffff1673ffffffffffffffffffffffffffffffffffffffff16611235611fd2565b73ffffffffffffffffffffffffffffffffffffffff1614905090565b60056020528160005260406000206020528060005260406000206000915091509054906101000a900460ff1681565b6060600280548060200260200160405190810160405280929190818152602001828054801561130457602002820191906000526020600020905b8160009054906101000a900473ffffffffffffffffffffffffffffffffffffffff1673ffffffffffffffffffffffffffffffffffffffff16815260200190600101908083116112ba575b5050505050905090565b6000806000905060008090505b6002805490508110156113d6576005600085815260200190815260200160002060006002838154811061134a57fe5b9060005260206000200160009054906101000a900473ffffffffffffffffffffffffffffffffffffffff1673ffffffffffffffffffffffffffffffffffffffff1673ffffffffffffffffffffffffffffffffffffffff16815260200190815260200160002060009054906101000a900460ff16156113c9576001820191505b808060010191505061131b565b5080915050919050565b60046020528060005260406000206000915054906101000a900460ff1681565b60006006600083815260200190815260200160002060009054906101000a900460ff169050919050565b6114326111f3565b6114a4576040517f08c379a00000000000000000000000000000000000000000000000000000000081526004018080602001828103825260208152602001807f4f776e61626c653a2063616c6c6572206973206e6f7420746865206f776e657281525060200191505060405180910390fd5b600280549050818181111580156114bc575060008114155b80156114c9575060008214155b61153b576040517f08c379a00000000000000000000000000000000000000000000000000000000081526004018080602001828103825260208152602001807f46656465726174696f6e3a20496e76616c696420726571756972656d656e747381525060200191505060405180910390fd5b60028310156115b2576040517f08c379a000000000000000000000000000000000000000000000000000000000815260040180806020018281038252601f8152602001807f46656465726174696f6e3a205265717569726573206174206c6561737420320081525060200191505060405180910390fd5b826003819055507fa3f1ee9126a074d9326c682f561767f710e927faa811f7a99829d49dc421797a836040518082815260200191505060405180910390a1505050565b60066020528060005260406000206000915054906101000a900460ff1681565b61161d6111f3565b61168f576040517f08c379a00000000000000000000000000000000000000000000000000000000081526004018080602001828103825260208152602001807f4f776e61626c653a2063616c6c6572206973206e6f7420746865206f776e657281525060200191505060405180910390fd5b600073ffffffffffffffffffffffffffffffffffffffff168173ffffffffffffffffffffffffffffffffffffffff161415611732576040517f08c379a00000000000000000000000000000000000000000000000000000000081526004018080602001828103825260188152602001807f46656465726174696f6e3a20456d707479206d656d626572000000000000000081525060200191505060405180910390fd5b600460008273ffffffffffffffffffffffffffffffffffffffff1673ffffffffffffffffffffffffffffffffffffffff16815260200190815260200160002060009054906101000a900460ff16156117d5576040517f08c379a00000000000000000000000000000000000000000000000000000000081526004018080602001828103825260218152602001806122006021913960400191505060405180910390fd5b603260028054905010611850576040517f08c379a000000000000000000000000000000000000000000000000000000000815260040180806020018281038252601f8152602001807f46656465726174696f6e3a204d6178206d656d6265727320726561636865640081525060200191505060405180910390fd5b6001600460008373ffffffffffffffffffffffffffffffffffffffff1673ffffffffffffffffffffffffffffffffffffffff16815260200190815260200160002060006101000a81548160ff02191690831515021790555060028190806001815401808255809150509060018203906000526020600020016000909192909190916101000a81548173ffffffffffffffffffffffffffffffffffffffff021916908373ffffffffffffffffffffffffffffffffffffffff160217905550508073ffffffffffffffffffffffffffffffffffffffff167f72114e270de66b9d2710ecf140403e5e99b1574767d6a8197bdc8d807a46e7c760405160405180910390a250565b600060046000611962611fd2565b73ffffffffffffffffffffffffffffffffffffffff1673ffffffffffffffffffffffffffffffffffffffff16815260200190815260200160002060009054906101000a900460ff166119ff576040517f08c379a00000000000000000000000000000000000000000000000000000000081526004018080602001828103825260228152602001806121706022913960400191505060405180910390fd5b6000611a568c8c8c8c8c8080601f016020809104026020016040519081016040528093929190818152602001838380828437600081840152601f19601f820116905080830192505050505050508b8b8b8b8b610885565b90506006600082815260200190815260200160002060009054906101000a900460ff1615611a88576001915050611f12565b600560008281526020019081526020016000206000611aa5611fd2565b73ffffffffffffffffffffffffffffffffffffffff1673ffffffffffffffffffffffffffffffffffffffff16815260200190815260200160002060009054906101000a900460ff1615611afc576001915050611f12565b6001600560008381526020019081526020016000206000611b1b611fd2565b73ffffffffffffffffffffffffffffffffffffffff1673ffffffffffffffffffffffffffffffffffffffff16815260200190815260200160002060006101000a81548160ff0219169083151502179055508581611b76611fd2565b73ffffffffffffffffffffffffffffffffffffffff167f4237ab39e8496b350fbe760f4402abe992fc5d7e175824b087182422d347cf8a8f8f8f8f8f8f8e8e8e604051808a73ffffffffffffffffffffffffffffffffffffffff1673ffffffffffffffffffffffffffffffffffffffff1681526020018973ffffffffffffffffffffffffffffffffffffffff1673ffffffffffffffffffffffffffffffffffffffff168152602001888152602001806020018681526020018563ffffffff1663ffffffff1681526020018460ff1660ff1681526020018381526020018281038252888882818152602001925080828437600081840152601f19601f8201169050808301925050509a505050505050505050505060405180910390a46000611c9c8261130e565b90506003548110158015611cc1575060016002808054905081611cbb57fe5b04018110155b15611f0b5760016006600084815260200190815260200160002060006101000a81548160ff0219169083151502179055506000600160009054906101000a900473ffffffffffffffffffffffffffffffffffffffff1673ffffffffffffffffffffffffffffffffffffffff16630e6ec7798f8f8f8f8f8f8f8f8f8f6040518b63ffffffff1660e01b8152600401808b73ffffffffffffffffffffffffffffffffffffffff1673ffffffffffffffffffffffffffffffffffffffff1681526020018a73ffffffffffffffffffffffffffffffffffffffff1673ffffffffffffffffffffffffffffffffffffffff168152602001898152602001806020018781526020018681526020018563ffffffff1663ffffffff1681526020018460ff1660ff1681526020018381526020018281038252898982818152602001925080828437600081840152601f19601f8201169050808301925050509b505050505050505050505050602060405180830381600087803b158015611e3f57600080fd5b505af1158015611e53573d6000803e3d6000fd5b505050506040513d6020811015611e6957600080fd5b8101908080519060200190929190505050905080611ed2576040517f08c379a00000000000000000000000000000000000000000000000000000000081526004018080602001828103825260278152602001806121b86027913960400191505060405180910390fd5b827fa74c8847d513feba22a0f0cb38d53081abf97562cdb293926ba243689e7c41ca60405160405180910390a260019350505050611f12565b6001925050505b9a9950505050505050505050565b60035481565b600160009054906101000a900473ffffffffffffffffffffffffffffffffffffffff1681565b611f546111f3565b611fc6576040517f08c379a00000000000000000000000000000000000000000000000000000000081526004018080602001828103825260208152602001807f4f776e61626c653a2063616c6c6572206973206e6f7420746865206f776e657281525060200191505060405180910390fd5b611fcf81611fda565b50565b600033905090565b600073ffffffffffffffffffffffffffffffffffffffff168173ffffffffffffffffffffffffffffffffffffffff161415612060576040517f08c379a00000000000000000000000000000000000000000000000000000000081526004018080602001828103825260268152602001806121926026913960400191505060405180910390fd5b8073ffffffffffffffffffffffffffffffffffffffff166000809054906101000a900473ffffffffffffffffffffffffffffffffffffffff1673ffffffffffffffffffffffffffffffffffffffff167f8be0079c531659141344cd1fd0a4f28419497f9722a3daafe3b4186f6b6457e060405160405180910390a3806000806101000a81548173ffffffffffffffffffffffffffffffffffffffff021916908373ffffffffffffffffffffffffffffffffffffffff16021790555050565b81548183558181111561214557818360005260206000209182019101612144919061214a565b5b505050565b61216c91905b80821115612168576000816000905550600101612150565b5090565b9056fe46656465726174696f6e3a2043616c6c6572206e6f74206120466564657261746f724f776e61626c653a206e6577206f776e657220697320746865207a65726f206164647265737346656465726174696f6e3a20427269646765206163636570745472616e73666572206572726f7246656465726174696f6e3a204d656d62657220646f65736e27742065786973747346656465726174696f6e3a204d656d62657220616c72656164792065786973747346656465726174696f6e3a2043616e27742068617665206c657373207468616e207265717569726564206d656d6265727346656465726174696f6e3a2043616e27742072656d6f766520616c6c20746865206d656d62657273a265627a7a723158209b0713a957863807cbfe56cebd463855759e7843d89de4413898feae3184f78164736f6c6343000511003246656465726174696f6e3a204d656d62657273206c6172676572207468616e206d617820616c6c6f776564",
  "source": "pragma solidity ^0.5.0;\n\nimport \"./IBridge_v1.sol\";\nimport \"./zeppelin/ownership/Ownable.sol\";\n\ncontract Federation_v1 is Ownable {\n    uint constant public MAX_MEMBER_COUNT = 50;\n    address constant private NULL_ADDRESS = address(0);\n\n    IBridge_v1 public bridge;\n    address[] public members;\n    uint public required;\n\n    mapping (address => bool) public isMember;\n    mapping (bytes32 => mapping (address => bool)) public votes;\n    mapping(bytes32 => bool) public processed;\n    // solium-disable-next-line max-len\n    event Voted(address indexed sender, bytes32 indexed transactionId, address originalTokenAddress, address receiver, uint256 amount, string symbol, bytes32 blockHash, bytes32 indexed transactionHash, uint32 logIndex, uint8 decimals, uint256 granularity);\n    event Executed(bytes32 indexed transactionId);\n    event MemberAddition(address indexed member);\n    event MemberRemoval(address indexed member);\n    event RequirementChange(uint required);\n    event BridgeChanged(address bridge);\n\n    modifier onlyMember() {\n        require(isMember[_msgSender()], \"Federation: Caller not a Federator\");\n        _;\n    }\n\n    modifier validRequirement(uint membersCount, uint _required) {\n        // solium-disable-next-line max-len\n        require(_required <= membersCount && _required != 0 && membersCount != 0, \"Federation: Invalid requirements\");\n        _;\n    }\n\n    constructor(address[] memory _members, uint _required) public validRequirement(_members.length, _required) {\n        require(_members.length <= MAX_MEMBER_COUNT, \"Federation: Members larger than max allowed\");\n        members = _members;\n        for (uint i = 0; i < _members.length; i++) {\n            require(!isMember[_members[i]] && _members[i] != NULL_ADDRESS, \"Federation: Invalid members\");\n            isMember[_members[i]] = true;\n            emit MemberAddition(_members[i]);\n        }\n        required = _required;\n        emit RequirementChange(required);\n    }\n\n    function setBridge(address _bridge) external onlyOwner {\n        require(_bridge != NULL_ADDRESS, \"Federation: Empty bridge\");\n        bridge = IBridge_v1(_bridge);\n        emit BridgeChanged(_bridge);\n    }\n\n    function voteTransaction(\n        address originalTokenAddress,\n        address receiver,\n        uint256 amount,\n        string calldata symbol,\n        bytes32 blockHash,\n        bytes32 transactionHash,\n        uint32 logIndex,\n        uint8 decimals,\n        uint256 granularity)\n    external onlyMember returns(bool)\n    {\n        // solium-disable-next-line max-len\n        bytes32 transactionId = getTransactionId(originalTokenAddress, receiver, amount, symbol, blockHash, transactionHash, logIndex, decimals, granularity);\n        if (processed[transactionId])\n            return true;\n\n        if (votes[transactionId][_msgSender()])\n            return true;\n\n        votes[transactionId][_msgSender()] = true;\n        // solium-disable-next-line max-len\n        emit Voted(_msgSender(), transactionId, originalTokenAddress, receiver, amount, symbol, blockHash, transactionHash, logIndex, decimals, granularity);\n\n        uint transactionCount = getTransactionCount(transactionId);\n        if (transactionCount >= required && transactionCount >= members.length / 2 + 1) {\n            processed[transactionId] = true;\n            bool acceptTransfer = bridge.acceptTransfer(originalTokenAddress, receiver, amount, symbol, blockHash, transactionHash, logIndex, decimals, granularity);\n            require(acceptTransfer, \"Federation: Bridge acceptTransfer error\");\n            emit Executed(transactionId);\n            return true;\n        }\n\n        return true;\n    }\n\n    function getTransactionCount(bytes32 transactionId) public view returns(uint) {\n        uint count = 0;\n        for (uint i = 0; i < members.length; i++) {\n            if (votes[transactionId][members[i]])\n                count += 1;\n        }\n        return count;\n    }\n\n    function hasVoted(bytes32 transactionId) external view returns(bool)\n    {\n        return votes[transactionId][_msgSender()];\n    }\n\n    function transactionWasProcessed(bytes32 transactionId) external view returns(bool)\n    {\n        return processed[transactionId];\n    }\n\n    function getTransactionId(\n        address originalTokenAddress,\n        address receiver,\n        uint256 amount,\n        string memory symbol,\n        bytes32 blockHash,\n        bytes32 transactionHash,\n        uint32 logIndex,\n        uint8 decimals,\n        uint256 granularity)\n    public pure returns(bytes32)\n    {\n        // solium-disable-next-line max-len\n        return keccak256(abi.encodePacked(originalTokenAddress, receiver, amount, symbol, blockHash, transactionHash, logIndex, decimals, granularity));\n    }\n\n    function addMember(address _newMember) external onlyOwner\n    {\n        require(_newMember != NULL_ADDRESS, \"Federation: Empty member\");\n        require(!isMember[_newMember], \"Federation: Member already exists\");\n        require(members.length < MAX_MEMBER_COUNT, \"Federation: Max members reached\");\n\n        isMember[_newMember] = true;\n        members.push(_newMember);\n        emit MemberAddition(_newMember);\n    }\n\n    function removeMember(address _oldMember) external onlyOwner\n    {\n        require(_oldMember != NULL_ADDRESS, \"Federation: Empty member\");\n        require(isMember[_oldMember], \"Federation: Member doesn't exists\");\n        require(members.length > 1, \"Federation: Can't remove all the members\");\n        require(members.length - 1 >= required, \"Federation: Can't have less than required members\");\n\n        isMember[_oldMember] = false;\n        for (uint i = 0; i < members.length - 1; i++) {\n            if (members[i] == _oldMember) {\n                members[i] = members[members.length - 1];\n                break;\n            }\n        }\n        members.length -= 1;\n        emit MemberRemoval(_oldMember);\n    }\n\n    function getMembers() external view returns (address[] memory)\n    {\n        return members;\n    }\n\n    function changeRequirement(uint _required) external onlyOwner validRequirement(members.length, _required)\n    {\n        require(_required >= 2, \"Federation: Requires at least 2\");\n        required = _required;\n        emit RequirementChange(_required);\n    }\n\n}\n",
  "sourcePath": "/Users/pooh/sovryn/deploy_bridge/upgrade-ropsten/Bridge-SC/sovryn-token-bridge/bridge/contracts/Federation_v1.sol",
  "compiler": {
    "name": "solc",
    "version": "0.5.17+commit.d19bba13.Emscripten.clang"
  },
  "schemaVersion": "3.3.4",
  "updatedAt": "2021-05-05T21:47:07.414Z",
  "devdoc": {
    "methods": {
      "isOwner()": {
        "details": "Returns true if the caller is the current owner."
      },
      "owner()": {
        "details": "Returns the address of the current owner."
      },
      "renounceOwnership()": {
        "details": "Leaves the contract without owner. It will not be possible to call `onlyOwner` functions anymore. Can only be called by the current owner.     * NOTE: Renouncing ownership will leave the contract without an owner, thereby removing any functionality that is only available to the owner."
      },
      "transferOwnership(address)": {
        "details": "Transfers ownership of the contract to a new account (`newOwner`). Can only be called by the current owner."
      }
    }
  },
  "userdoc": {
    "methods": {}
  }
}