{
  "contractName": "Federation",
  "abi": [
    {
      "inputs": [
        {
          "internalType": "address[]",
          "name": "_members",
          "type": "address[]"
        },
        {
          "internalType": "uint256",
          "name": "_required",
          "type": "uint256"
        }
      ],
      "payable": false,
      "stateMutability": "nonpayable",
      "type": "constructor"
    },
    {
      "anonymous": false,
      "inputs": [
        {
          "indexed": false,
          "internalType": "address",
          "name": "bridge",
          "type": "address"
        }
      ],
      "name": "BridgeChanged",
      "type": "event"
    },
    {
      "anonymous": false,
      "inputs": [
        {
          "indexed": true,
          "internalType": "bytes32",
          "name": "transactionId",
          "type": "bytes32"
        }
      ],
      "name": "Executed",
      "type": "event"
    },
    {
      "anonymous": false,
      "inputs": [
        {
          "indexed": true,
          "internalType": "address",
          "name": "member",
          "type": "address"
        }
      ],
      "name": "MemberAddition",
      "type": "event"
    },
    {
      "anonymous": false,
      "inputs": [
        {
          "indexed": true,
          "internalType": "address",
          "name": "member",
          "type": "address"
        }
      ],
      "name": "MemberRemoval",
      "type": "event"
    },
    {
      "anonymous": false,
      "inputs": [
        {
          "indexed": true,
          "internalType": "address",
          "name": "previousOwner",
          "type": "address"
        },
        {
          "indexed": true,
          "internalType": "address",
          "name": "newOwner",
          "type": "address"
        }
      ],
      "name": "OwnershipTransferred",
      "type": "event"
    },
    {
      "anonymous": false,
      "inputs": [
        {
          "indexed": false,
          "internalType": "uint256",
          "name": "required",
          "type": "uint256"
        }
      ],
      "name": "RequirementChange",
      "type": "event"
    },
    {
      "anonymous": false,
      "inputs": [
        {
          "indexed": true,
          "internalType": "address",
          "name": "sender",
          "type": "address"
        },
        {
          "indexed": true,
          "internalType": "bytes32",
          "name": "transactionId",
          "type": "bytes32"
        },
        {
          "indexed": false,
          "internalType": "address",
          "name": "originalTokenAddress",
          "type": "address"
        },
        {
          "indexed": false,
          "internalType": "address",
          "name": "receiver",
          "type": "address"
        },
        {
          "indexed": false,
          "internalType": "uint256",
          "name": "amount",
          "type": "uint256"
        },
        {
          "indexed": false,
          "internalType": "string",
          "name": "symbol",
          "type": "string"
        },
        {
          "indexed": false,
          "internalType": "bytes32",
          "name": "blockHash",
          "type": "bytes32"
        },
        {
          "indexed": true,
          "internalType": "bytes32",
          "name": "transactionHash",
          "type": "bytes32"
        },
        {
          "indexed": false,
          "internalType": "uint32",
          "name": "logIndex",
          "type": "uint32"
        },
        {
          "indexed": false,
          "internalType": "uint8",
          "name": "decimals",
          "type": "uint8"
        },
        {
          "indexed": false,
          "internalType": "uint256",
          "name": "granularity",
          "type": "uint256"
        }
      ],
      "name": "Voted",
      "type": "event"
    },
    {
      "constant": true,
      "inputs": [],
      "name": "MAX_MEMBER_COUNT",
      "outputs": [
        {
          "internalType": "uint256",
          "name": "",
          "type": "uint256"
        }
      ],
      "payable": false,
      "stateMutability": "view",
      "type": "function"
    },
    {
      "constant": true,
      "inputs": [],
      "name": "bridge",
      "outputs": [
        {
          "internalType": "contract IBridge",
          "name": "",
          "type": "address"
        }
      ],
      "payable": false,
      "stateMutability": "view",
      "type": "function"
    },
    {
      "constant": true,
      "inputs": [
        {
          "internalType": "address",
          "name": "",
          "type": "address"
        }
      ],
      "name": "isMember",
      "outputs": [
        {
          "internalType": "bool",
          "name": "",
          "type": "bool"
        }
      ],
      "payable": false,
      "stateMutability": "view",
      "type": "function"
    },
    {
      "constant": true,
      "inputs": [],
      "name": "isOwner",
      "outputs": [
        {
          "internalType": "bool",
          "name": "",
          "type": "bool"
        }
      ],
      "payable": false,
      "stateMutability": "view",
      "type": "function"
    },
    {
      "constant": true,
      "inputs": [
        {
          "internalType": "uint256",
          "name": "",
          "type": "uint256"
        }
      ],
      "name": "members",
      "outputs": [
        {
          "internalType": "address",
          "name": "",
          "type": "address"
        }
      ],
      "payable": false,
      "stateMutability": "view",
      "type": "function"
    },
    {
      "constant": true,
      "inputs": [],
      "name": "owner",
      "outputs": [
        {
          "internalType": "address",
          "name": "",
          "type": "address"
        }
      ],
      "payable": false,
      "stateMutability": "view",
      "type": "function"
    },
    {
      "constant": true,
      "inputs": [
        {
          "internalType": "bytes32",
          "name": "",
          "type": "bytes32"
        }
      ],
      "name": "processed",
      "outputs": [
        {
          "internalType": "bool",
          "name": "",
          "type": "bool"
        }
      ],
      "payable": false,
      "stateMutability": "view",
      "type": "function"
    },
    {
      "constant": false,
      "inputs": [],
      "name": "renounceOwnership",
      "outputs": [],
      "payable": false,
      "stateMutability": "nonpayable",
      "type": "function"
    },
    {
      "constant": true,
      "inputs": [],
      "name": "required",
      "outputs": [
        {
          "internalType": "uint256",
          "name": "",
          "type": "uint256"
        }
      ],
      "payable": false,
      "stateMutability": "view",
      "type": "function"
    },
    {
      "constant": false,
      "inputs": [
        {
          "internalType": "address",
          "name": "newOwner",
          "type": "address"
        }
      ],
      "name": "transferOwnership",
      "outputs": [],
      "payable": false,
      "stateMutability": "nonpayable",
      "type": "function"
    },
    {
      "constant": true,
      "inputs": [
        {
          "internalType": "bytes32",
          "name": "",
          "type": "bytes32"
        },
        {
          "internalType": "address",
          "name": "",
          "type": "address"
        }
      ],
      "name": "votes",
      "outputs": [
        {
          "internalType": "bool",
          "name": "",
          "type": "bool"
        }
      ],
      "payable": false,
      "stateMutability": "view",
      "type": "function"
    },
    {
      "constant": false,
      "inputs": [
        {
          "internalType": "address",
          "name": "_bridge",
          "type": "address"
        }
      ],
      "name": "setBridge",
      "outputs": [],
      "payable": false,
      "stateMutability": "nonpayable",
      "type": "function"
    },
    {
      "constant": false,
      "inputs": [
        {
          "internalType": "address",
          "name": "originalTokenAddress",
          "type": "address"
        },
        {
          "internalType": "address",
          "name": "receiver",
          "type": "address"
        },
        {
          "internalType": "uint256",
          "name": "amount",
          "type": "uint256"
        },
        {
          "internalType": "string",
          "name": "symbol",
          "type": "string"
        },
        {
          "internalType": "bytes32",
          "name": "blockHash",
          "type": "bytes32"
        },
        {
          "internalType": "bytes32",
          "name": "transactionHash",
          "type": "bytes32"
        },
        {
          "internalType": "uint32",
          "name": "logIndex",
          "type": "uint32"
        },
        {
          "internalType": "uint8",
          "name": "decimals",
          "type": "uint8"
        },
        {
          "internalType": "uint256",
          "name": "granularity",
          "type": "uint256"
        }
      ],
      "name": "voteTransaction",
      "outputs": [
        {
          "internalType": "bool",
          "name": "",
          "type": "bool"
        }
      ],
      "payable": false,
      "stateMutability": "nonpayable",
      "type": "function"
    },
    {
      "constant": false,
      "inputs": [
        {
          "internalType": "address",
          "name": "originalTokenAddress",
          "type": "address"
        },
        {
          "internalType": "address",
          "name": "receiver",
          "type": "address"
        },
        {
          "internalType": "uint256",
          "name": "amount",
          "type": "uint256"
        },
        {
          "internalType": "string",
          "name": "symbol",
          "type": "string"
        },
        {
          "internalType": "bytes32",
          "name": "blockHash",
          "type": "bytes32"
        },
        {
          "internalType": "bytes32",
          "name": "transactionHash",
          "type": "bytes32"
        },
        {
          "internalType": "uint32",
          "name": "logIndex",
          "type": "uint32"
        },
        {
          "internalType": "uint8",
          "name": "decimals",
          "type": "uint8"
        },
        {
          "internalType": "uint256",
          "name": "granularity",
          "type": "uint256"
        },
        {
          "internalType": "bytes",
          "name": "userData",
          "type": "bytes"
        }
      ],
      "name": "voteTransactionAt",
      "outputs": [
        {
          "internalType": "bool",
          "name": "",
          "type": "bool"
        }
      ],
      "payable": false,
      "stateMutability": "nonpayable",
      "type": "function"
    },
    {
      "constant": true,
      "inputs": [
        {
          "internalType": "bytes32",
          "name": "transactionId",
          "type": "bytes32"
        }
      ],
      "name": "getTransactionCount",
      "outputs": [
        {
          "internalType": "uint256",
          "name": "",
          "type": "uint256"
        }
      ],
      "payable": false,
      "stateMutability": "view",
      "type": "function"
    },
    {
      "constant": true,
      "inputs": [
        {
          "internalType": "bytes32",
          "name": "transactionId",
          "type": "bytes32"
        }
      ],
      "name": "hasVoted",
      "outputs": [
        {
          "internalType": "bool",
          "name": "",
          "type": "bool"
        }
      ],
      "payable": false,
      "stateMutability": "view",
      "type": "function"
    },
    {
      "constant": true,
      "inputs": [
        {
          "internalType": "bytes32",
          "name": "transactionId",
          "type": "bytes32"
        }
      ],
      "name": "transactionWasProcessed",
      "outputs": [
        {
          "internalType": "bool",
          "name": "",
          "type": "bool"
        }
      ],
      "payable": false,
      "stateMutability": "view",
      "type": "function"
    },
    {
      "constant": true,
      "inputs": [
        {
          "internalType": "address",
          "name": "originalTokenAddress",
          "type": "address"
        },
        {
          "internalType": "address",
          "name": "receiver",
          "type": "address"
        },
        {
          "internalType": "uint256",
          "name": "amount",
          "type": "uint256"
        },
        {
          "internalType": "string",
          "name": "symbol",
          "type": "string"
        },
        {
          "internalType": "bytes32",
          "name": "blockHash",
          "type": "bytes32"
        },
        {
          "internalType": "bytes32",
          "name": "transactionHash",
          "type": "bytes32"
        },
        {
          "internalType": "uint32",
          "name": "logIndex",
          "type": "uint32"
        },
        {
          "internalType": "uint8",
          "name": "decimals",
          "type": "uint8"
        },
        {
          "internalType": "uint256",
          "name": "granularity",
          "type": "uint256"
        }
      ],
      "name": "getTransactionId",
      "outputs": [
        {
          "internalType": "bytes32",
          "name": "",
          "type": "bytes32"
        }
      ],
      "payable": false,
      "stateMutability": "pure",
      "type": "function"
    },
    {
      "constant": false,
      "inputs": [
        {
          "internalType": "address",
          "name": "_newMember",
          "type": "address"
        }
      ],
      "name": "addMember",
      "outputs": [],
      "payable": false,
      "stateMutability": "nonpayable",
      "type": "function"
    },
    {
      "constant": false,
      "inputs": [
        {
          "internalType": "address",
          "name": "_oldMember",
          "type": "address"
        }
      ],
      "name": "removeMember",
      "outputs": [],
      "payable": false,
      "stateMutability": "nonpayable",
      "type": "function"
    },
    {
      "constant": true,
      "inputs": [],
      "name": "getMembers",
      "outputs": [
        {
          "internalType": "address[]",
          "name": "",
          "type": "address[]"
        }
      ],
      "payable": false,
      "stateMutability": "view",
      "type": "function"
    },
    {
      "constant": false,
      "inputs": [
        {
          "internalType": "uint256",
          "name": "_required",
          "type": "uint256"
        }
      ],
      "name": "changeRequirement",
      "outputs": [],
      "payable": false,
      "stateMutability": "nonpayable",
      "type": "function"
    }
  ],
  "bytecode": "0x60806040523480156200001157600080fd5b5060405162002c0338038062002c03833981810160405260408110156200003757600080fd5b81019080805160405193929190846401000000008211156200005857600080fd5b838201915060208201858111156200006f57600080fd5b82518660208202830111640100000000821117156200008d57600080fd5b8083526020830192505050908051906020019060200280838360005b83811015620000c6578082015181840152602081019050620000a9565b5050505090500160405260200180519060200190929190505050620000f06200050660201b60201c565b6000806101000a81548173ffffffffffffffffffffffffffffffffffffffff021916908373ffffffffffffffffffffffffffffffffffffffff1602179055506000809054906101000a900473ffffffffffffffffffffffffffffffffffffffff1673ffffffffffffffffffffffffffffffffffffffff16600073ffffffffffffffffffffffffffffffffffffffff167f8be0079c531659141344cd1fd0a4f28419497f9722a3daafe3b4186f6b6457e060405160405180910390a3815181818111158015620001c0575060008114155b8015620001ce575060008214155b62000241576040517f08c379a00000000000000000000000000000000000000000000000000000000081526004018080602001828103825260208152602001807f46656465726174696f6e3a20496e76616c696420726571756972656d656e747381525060200191505060405180910390fd5b6032845111156200029e576040517f08c379a000000000000000000000000000000000000000000000000000000000815260040180806020018281038252602b81526020018062002bd8602b913960400191505060405180910390fd5b8360029080519060200190620002b69291906200050e565b5060008090505b8451811015620004bb5760046000868381518110620002d857fe5b602002602001015173ffffffffffffffffffffffffffffffffffffffff1673ffffffffffffffffffffffffffffffffffffffff16815260200190815260200160002060009054906101000a900460ff16158015620003775750600073ffffffffffffffffffffffffffffffffffffffff168582815181106200035657fe5b602002602001015173ffffffffffffffffffffffffffffffffffffffff1614155b620003ea576040517f08c379a000000000000000000000000000000000000000000000000000000000815260040180806020018281038252601b8152602001807f46656465726174696f6e3a20496e76616c6964206d656d62657273000000000081525060200191505060405180910390fd5b600160046000878481518110620003fd57fe5b602002602001015173ffffffffffffffffffffffffffffffffffffffff1673ffffffffffffffffffffffffffffffffffffffff16815260200190815260200160002060006101000a81548160ff0219169083151502179055508481815181106200046357fe5b602002602001015173ffffffffffffffffffffffffffffffffffffffff167f72114e270de66b9d2710ecf140403e5e99b1574767d6a8197bdc8d807a46e7c760405160405180910390a28080600101915050620002bd565b50826003819055507fa3f1ee9126a074d9326c682f561767f710e927faa811f7a99829d49dc421797a6003546040518082815260200191505060405180910390a150505050620005e3565b600033905090565b8280548282559060005260206000209081019282156200058a579160200282015b82811115620005895782518260006101000a81548173ffffffffffffffffffffffffffffffffffffffff021916908373ffffffffffffffffffffffffffffffffffffffff160217905550916020019190600101906200052f565b5b5090506200059991906200059d565b5090565b620005e091905b80821115620005dc57600081816101000a81549073ffffffffffffffffffffffffffffffffffffffff021916905550600101620005a4565b5090565b90565b6125e580620005f36000396000f3fe608060405234801561001057600080fd5b50600436106101425760003560e01c80639eab5253116100b8578063c1f0808a1161007c578063c1f0808a146107af578063ca6d56dc146107f5578063d03e1ee914610839578063dc8452cd14610950578063e78cea921461096e578063f2fde38b146109b857610142565b80639eab52531461063e578063a1fb4acb1461069d578063a230c524146106df578063a93585f01461073b578063ba51a6df1461078157610142565b8063681fc9211161010a578063681fc92114610500578063715018a61461051e5780638da5cb5b146105285780638dd14802146105725780638f32d59b146105b65780639386775a146105d857610142565b806309916057146101475780630b1ca49a1461029c5780631b4613cb146102e0578063493532a2146103265780635daf08ca14610492575b600080fd5b610286600480360361012081101561015e57600080fd5b81019080803573ffffffffffffffffffffffffffffffffffffffff169060200190929190803573ffffffffffffffffffffffffffffffffffffffff16906020019092919080359060200190929190803590602001906401000000008111156101c557600080fd5b8201836020820111156101d757600080fd5b803590602001918460018302840111640100000000831117156101f957600080fd5b91908080601f016020809104026020016040519081016040528093929190818152602001838380828437600081840152601f19601f8201169050808301925050505050505091929192908035906020019092919080359060200190929190803563ffffffff169060200190929190803560ff169060200190929190803590602001909291905050506109fc565b6040518082815260200191505060405180910390f35b6102de600480360360208110156102b257600080fd5b81019080803573ffffffffffffffffffffffffffffffffffffffff169060200190929190505050610b35565b005b61030c600480360360208110156102f657600080fd5b8101908080359060200190929190505050610f95565b604051808215151515815260200191505060405180910390f35b610478600480360361014081101561033d57600080fd5b81019080803573ffffffffffffffffffffffffffffffffffffffff169060200190929190803573ffffffffffffffffffffffffffffffffffffffff16906020019092919080359060200190929190803590602001906401000000008111156103a457600080fd5b8201836020820111156103b657600080fd5b803590602001918460018302840111640100000000831117156103d857600080fd5b90919293919293908035906020019092919080359060200190929190803563ffffffff169060200190929190803560ff169060200190929190803590602001909291908035906020019064010000000081111561043457600080fd5b82018360208201111561044657600080fd5b8035906020019184600183028401116401000000008311171561046857600080fd5b9091929391929390505050611003565b604051808215151515815260200191505060405180910390f35b6104be600480360360208110156104a857600080fd5b81019080803590602001909291905050506110b1565b604051808273ffffffffffffffffffffffffffffffffffffffff1673ffffffffffffffffffffffffffffffffffffffff16815260200191505060405180910390f35b6105086110ed565b6040518082815260200191505060405180910390f35b6105266110f2565b005b61053061122b565b604051808273ffffffffffffffffffffffffffffffffffffffff1673ffffffffffffffffffffffffffffffffffffffff16815260200191505060405180910390f35b6105b46004803603602081101561058857600080fd5b81019080803573ffffffffffffffffffffffffffffffffffffffff169060200190929190505050611254565b005b6105be611418565b604051808215151515815260200191505060405180910390f35b610624600480360360408110156105ee57600080fd5b8101908080359060200190929190803573ffffffffffffffffffffffffffffffffffffffff169060200190929190505050611476565b604051808215151515815260200191505060405180910390f35b6106466114a5565b6040518080602001828103825283818151815260200191508051906020019060200280838360005b8381101561068957808201518184015260208101905061066e565b505050509050019250505060405180910390f35b6106c9600480360360208110156106b357600080fd5b8101908080359060200190929190505050611533565b6040518082815260200191505060405180910390f35b610721600480360360208110156106f557600080fd5b81019080803573ffffffffffffffffffffffffffffffffffffffff169060200190929190505050611605565b604051808215151515815260200191505060405180910390f35b6107676004803603602081101561075157600080fd5b8101908080359060200190929190505050611625565b604051808215151515815260200191505060405180910390f35b6107ad6004803603602081101561079757600080fd5b810190808035906020019092919050505061164f565b005b6107db600480360360208110156107c557600080fd5b810190808035906020019092919050505061181a565b604051808215151515815260200191505060405180910390f35b6108376004803603602081101561080b57600080fd5b81019080803573ffffffffffffffffffffffffffffffffffffffff16906020019092919050505061183a565b005b610936600480360361012081101561085057600080fd5b81019080803573ffffffffffffffffffffffffffffffffffffffff169060200190929190803573ffffffffffffffffffffffffffffffffffffffff16906020019092919080359060200190929190803590602001906401000000008111156108b757600080fd5b8201836020820111156108c957600080fd5b803590602001918460018302840111640100000000831117156108eb57600080fd5b90919293919293908035906020019092919080359060200190929190803563ffffffff169060200190929190803560ff16906020019092919080359060200190929190505050611b79565b604051808215151515815260200191505060405180910390f35b610958611bf0565b6040518082815260200191505060405180910390f35b610976611bf6565b604051808273ffffffffffffffffffffffffffffffffffffffff1673ffffffffffffffffffffffffffffffffffffffff16815260200191505060405180910390f35b6109fa600480360360208110156109ce57600080fd5b81019080803573ffffffffffffffffffffffffffffffffffffffff169060200190929190505050611c1c565b005b6000898989898989898989604051602001808a73ffffffffffffffffffffffffffffffffffffffff1673ffffffffffffffffffffffffffffffffffffffff1660601b81526014018973ffffffffffffffffffffffffffffffffffffffff1673ffffffffffffffffffffffffffffffffffffffff1660601b815260140188815260200187805190602001908083835b60208310610aad5780518252602082019150602081019050602083039250610a8a565b6001836020036101000a0380198251168184511680821785525050505050509050018681526020018581526020018463ffffffff1663ffffffff1660e01b81526004018360ff1660ff1660f81b815260010182815260200199505050505050505050506040516020818303038152906040528051906020012090509998505050505050505050565b610b3d611418565b610baf576040517f08c379a00000000000000000000000000000000000000000000000000000000081526004018080602001828103825260208152602001807f4f776e61626c653a2063616c6c6572206973206e6f7420746865206f776e657281525060200191505060405180910390fd5b600073ffffffffffffffffffffffffffffffffffffffff168173ffffffffffffffffffffffffffffffffffffffff161415610c52576040517f08c379a00000000000000000000000000000000000000000000000000000000081526004018080602001828103825260188152602001807f46656465726174696f6e3a20456d707479206d656d626572000000000000000081525060200191505060405180910390fd5b600460008273ffffffffffffffffffffffffffffffffffffffff1673ffffffffffffffffffffffffffffffffffffffff16815260200190815260200160002060009054906101000a900460ff16610cf4576040517f08c379a00000000000000000000000000000000000000000000000000000000081526004018080602001828103825260218152602001806125166021913960400191505060405180910390fd5b600160028054905011610d52576040517f08c379a00000000000000000000000000000000000000000000000000000000081526004018080602001828103825260288152602001806125896028913960400191505060405180910390fd5b6003546001600280549050031015610db5576040517f08c379a00000000000000000000000000000000000000000000000000000000081526004018080602001828103825260318152602001806125586031913960400191505060405180910390fd5b6000600460008373ffffffffffffffffffffffffffffffffffffffff1673ffffffffffffffffffffffffffffffffffffffff16815260200190815260200160002060006101000a81548160ff02191690831515021790555060008090505b600160028054905003811015610f35578173ffffffffffffffffffffffffffffffffffffffff1660028281548110610e4757fe5b9060005260206000200160009054906101000a900473ffffffffffffffffffffffffffffffffffffffff1673ffffffffffffffffffffffffffffffffffffffff161415610f2857600260016002805490500381548110610ea357fe5b9060005260206000200160009054906101000a900473ffffffffffffffffffffffffffffffffffffffff1660028281548110610edb57fe5b9060005260206000200160006101000a81548173ffffffffffffffffffffffffffffffffffffffff021916908373ffffffffffffffffffffffffffffffffffffffff160217905550610f35565b8080600101915050610e13565b506001600281818054905003915081610f4e9190612455565b508073ffffffffffffffffffffffffffffffffffffffff167f270bfc616dd36d5cb6b35aac93e6ef22b089c34e6f6ad6f0892797424840897b60405160405180910390a250565b6000600560008381526020019081526020016000206000610fb4611ca2565b73ffffffffffffffffffffffffffffffffffffffff1673ffffffffffffffffffffffffffffffffffffffff16815260200190815260200160002060009054906101000a900460ff169050919050565b600061109f8d8d8d8d8d8080601f016020809104026020016040519081016040528093929190818152602001838380828437600081840152601f19601f820116905080830192505050505050508c8c8c8c8c8c8c8080601f016020809104026020016040519081016040528093929190818152602001838380828437600081840152601f19601f82011690508083019250505050505050611caa565b90509c9b505050505050505050505050565b600281815481106110be57fe5b906000526020600020016000915054906101000a900473ffffffffffffffffffffffffffffffffffffffff1681565b603281565b6110fa611418565b61116c576040517f08c379a00000000000000000000000000000000000000000000000000000000081526004018080602001828103825260208152602001807f4f776e61626c653a2063616c6c6572206973206e6f7420746865206f776e657281525060200191505060405180910390fd5b600073ffffffffffffffffffffffffffffffffffffffff166000809054906101000a900473ffffffffffffffffffffffffffffffffffffffff1673ffffffffffffffffffffffffffffffffffffffff167f8be0079c531659141344cd1fd0a4f28419497f9722a3daafe3b4186f6b6457e060405160405180910390a360008060006101000a81548173ffffffffffffffffffffffffffffffffffffffff021916908373ffffffffffffffffffffffffffffffffffffffff160217905550565b60008060009054906101000a900473ffffffffffffffffffffffffffffffffffffffff16905090565b61125c611418565b6112ce576040517f08c379a00000000000000000000000000000000000000000000000000000000081526004018080602001828103825260208152602001807f4f776e61626c653a2063616c6c6572206973206e6f7420746865206f776e657281525060200191505060405180910390fd5b600073ffffffffffffffffffffffffffffffffffffffff168173ffffffffffffffffffffffffffffffffffffffff161415611371576040517f08c379a00000000000000000000000000000000000000000000000000000000081526004018080602001828103825260188152602001807f46656465726174696f6e3a20456d70747920627269646765000000000000000081525060200191505060405180910390fd5b80600160006101000a81548173ffffffffffffffffffffffffffffffffffffffff021916908373ffffffffffffffffffffffffffffffffffffffff1602179055507f9775531310b2880b61484ed85cbb0b491c8fde3a07f289c63b9255178279449781604051808273ffffffffffffffffffffffffffffffffffffffff1673ffffffffffffffffffffffffffffffffffffffff16815260200191505060405180910390a150565b60008060009054906101000a900473ffffffffffffffffffffffffffffffffffffffff1673ffffffffffffffffffffffffffffffffffffffff1661145a611ca2565b73ffffffffffffffffffffffffffffffffffffffff1614905090565b60056020528160005260406000206020528060005260406000206000915091509054906101000a900460ff1681565b6060600280548060200260200160405190810160405280929190818152602001828054801561152957602002820191906000526020600020905b8160009054906101000a900473ffffffffffffffffffffffffffffffffffffffff1673ffffffffffffffffffffffffffffffffffffffff16815260200190600101908083116114df575b5050505050905090565b6000806000905060008090505b6002805490508110156115fb576005600085815260200190815260200160002060006002838154811061156f57fe5b9060005260206000200160009054906101000a900473ffffffffffffffffffffffffffffffffffffffff1673ffffffffffffffffffffffffffffffffffffffff1673ffffffffffffffffffffffffffffffffffffffff16815260200190815260200160002060009054906101000a900460ff16156115ee576001820191505b8080600101915050611540565b5080915050919050565b60046020528060005260406000206000915054906101000a900460ff1681565b60006006600083815260200190815260200160002060009054906101000a900460ff169050919050565b611657611418565b6116c9576040517f08c379a00000000000000000000000000000000000000000000000000000000081526004018080602001828103825260208152602001807f4f776e61626c653a2063616c6c6572206973206e6f7420746865206f776e657281525060200191505060405180910390fd5b600280549050818181111580156116e1575060008114155b80156116ee575060008214155b611760576040517f08c379a00000000000000000000000000000000000000000000000000000000081526004018080602001828103825260208152602001807f46656465726174696f6e3a20496e76616c696420726571756972656d656e747381525060200191505060405180910390fd5b60028310156117d7576040517f08c379a000000000000000000000000000000000000000000000000000000000815260040180806020018281038252601f8152602001807f46656465726174696f6e3a205265717569726573206174206c6561737420320081525060200191505060405180910390fd5b826003819055507fa3f1ee9126a074d9326c682f561767f710e927faa811f7a99829d49dc421797a836040518082815260200191505060405180910390a1505050565b60066020528060005260406000206000915054906101000a900460ff1681565b611842611418565b6118b4576040517f08c379a00000000000000000000000000000000000000000000000000000000081526004018080602001828103825260208152602001807f4f776e61626c653a2063616c6c6572206973206e6f7420746865206f776e657281525060200191505060405180910390fd5b600073ffffffffffffffffffffffffffffffffffffffff168173ffffffffffffffffffffffffffffffffffffffff161415611957576040517f08c379a00000000000000000000000000000000000000000000000000000000081526004018080602001828103825260188152602001807f46656465726174696f6e3a20456d707479206d656d626572000000000000000081525060200191505060405180910390fd5b600460008273ffffffffffffffffffffffffffffffffffffffff1673ffffffffffffffffffffffffffffffffffffffff16815260200190815260200160002060009054906101000a900460ff16156119fa576040517f08c379a00000000000000000000000000000000000000000000000000000000081526004018080602001828103825260218152602001806125376021913960400191505060405180910390fd5b603260028054905010611a75576040517f08c379a000000000000000000000000000000000000000000000000000000000815260040180806020018281038252601f8152602001807f46656465726174696f6e3a204d6178206d656d6265727320726561636865640081525060200191505060405180910390fd5b6001600460008373ffffffffffffffffffffffffffffffffffffffff1673ffffffffffffffffffffffffffffffffffffffff16815260200190815260200160002060006101000a81548160ff02191690831515021790555060028190806001815401808255809150509060018203906000526020600020016000909192909190916101000a81548173ffffffffffffffffffffffffffffffffffffffff021916908373ffffffffffffffffffffffffffffffffffffffff160217905550508073ffffffffffffffffffffffffffffffffffffffff167f72114e270de66b9d2710ecf140403e5e99b1574767d6a8197bdc8d807a46e7c760405160405180910390a250565b6000611be08b8b8b8b8b8080601f016020809104026020016040519081016040528093929190818152602001838380828437600081840152601f19601f820116905080830192505050505050508a8a8a8a8a60405180602001604052806000815250611caa565b90509a9950505050505050505050565b60035481565b600160009054906101000a900473ffffffffffffffffffffffffffffffffffffffff1681565b611c24611418565b611c96576040517f08c379a00000000000000000000000000000000000000000000000000000000081526004018080602001828103825260208152602001807f4f776e61626c653a2063616c6c6572206973206e6f7420746865206f776e657281525060200191505060405180910390fd5b611c9f81612311565b50565b600033905090565b600060046000611cb8611ca2565b73ffffffffffffffffffffffffffffffffffffffff1673ffffffffffffffffffffffffffffffffffffffff16815260200190815260200160002060009054906101000a900460ff16611d55576040517f08c379a00000000000000000000000000000000000000000000000000000000081526004018080602001828103825260228152602001806124a76022913960400191505060405180910390fd5b6000611d688c8c8c8c8c8c8c8c8c6109fc565b90506006600082815260200190815260200160002060009054906101000a900460ff1615611d9a576001915050612303565b600560008281526020019081526020016000206000611db7611ca2565b73ffffffffffffffffffffffffffffffffffffffff1673ffffffffffffffffffffffffffffffffffffffff16815260200190815260200160002060009054906101000a900460ff1615611e0e576001915050612303565b6001600560008381526020019081526020016000206000611e2d611ca2565b73ffffffffffffffffffffffffffffffffffffffff1673ffffffffffffffffffffffffffffffffffffffff16815260200190815260200160002060006101000a81548160ff0219169083151502179055508681611e88611ca2565b73ffffffffffffffffffffffffffffffffffffffff167f4237ab39e8496b350fbe760f4402abe992fc5d7e175824b087182422d347cf8a8f8f8f8f8f8e8e8e604051808973ffffffffffffffffffffffffffffffffffffffff1673ffffffffffffffffffffffffffffffffffffffff1681526020018873ffffffffffffffffffffffffffffffffffffffff1673ffffffffffffffffffffffffffffffffffffffff168152602001878152602001806020018681526020018563ffffffff1663ffffffff1681526020018460ff1660ff168152602001838152602001828103825287818151815260200191508051906020019080838360005b83811015611f9b578082015181840152602081019050611f80565b50505050905090810190601f168015611fc85780820380516001836020036101000a031916815260200191505b50995050505050505050505060405180910390a46000611fe782611533565b9050600354811015801561200c57506001600280805490508161200657fe5b04018110155b156122fc5760016006600084815260200190815260200160002060006101000a81548160ff0219169083151502179055506000600160009054906101000a900473ffffffffffffffffffffffffffffffffffffffff1673ffffffffffffffffffffffffffffffffffffffff1663d058ae968f8f8f8f8f8f8f8f8f8f6040518b63ffffffff1660e01b8152600401808b73ffffffffffffffffffffffffffffffffffffffff1673ffffffffffffffffffffffffffffffffffffffff1681526020018a73ffffffffffffffffffffffffffffffffffffffff1673ffffffffffffffffffffffffffffffffffffffff168152602001898152602001806020018881526020018781526020018663ffffffff1663ffffffff1681526020018560ff1660ff1681526020018481526020018060200183810383528a818151815260200191508051906020019080838360005b83811015612174578082015181840152602081019050612159565b50505050905090810190601f1680156121a15780820380516001836020036101000a031916815260200191505b50838103825284818151815260200191508051906020019080838360005b838110156121da5780820151818401526020810190506121bf565b50505050905090810190601f1680156122075780820380516001836020036101000a031916815260200191505b509c50505050505050505050505050602060405180830381600087803b15801561223057600080fd5b505af1158015612244573d6000803e3d6000fd5b505050506040513d602081101561225a57600080fd5b81019080805190602001909291905050509050806122c3576040517f08c379a00000000000000000000000000000000000000000000000000000000081526004018080602001828103825260278152602001806124ef6027913960400191505060405180910390fd5b827fa74c8847d513feba22a0f0cb38d53081abf97562cdb293926ba243689e7c41ca60405160405180910390a260019350505050612303565b6001925050505b9a9950505050505050505050565b600073ffffffffffffffffffffffffffffffffffffffff168173ffffffffffffffffffffffffffffffffffffffff161415612397576040517f08c379a00000000000000000000000000000000000000000000000000000000081526004018080602001828103825260268152602001806124c96026913960400191505060405180910390fd5b8073ffffffffffffffffffffffffffffffffffffffff166000809054906101000a900473ffffffffffffffffffffffffffffffffffffffff1673ffffffffffffffffffffffffffffffffffffffff167f8be0079c531659141344cd1fd0a4f28419497f9722a3daafe3b4186f6b6457e060405160405180910390a3806000806101000a81548173ffffffffffffffffffffffffffffffffffffffff021916908373ffffffffffffffffffffffffffffffffffffffff16021790555050565b81548183558181111561247c5781836000526020600020918201910161247b9190612481565b5b505050565b6124a391905b8082111561249f576000816000905550600101612487565b5090565b9056fe46656465726174696f6e3a2043616c6c6572206e6f74206120466564657261746f724f776e61626c653a206e6577206f776e657220697320746865207a65726f206164647265737346656465726174696f6e3a20427269646765206163636570745472616e73666572206572726f7246656465726174696f6e3a204d656d62657220646f65736e27742065786973747346656465726174696f6e3a204d656d62657220616c72656164792065786973747346656465726174696f6e3a2043616e27742068617665206c657373207468616e207265717569726564206d656d6265727346656465726174696f6e3a2043616e27742072656d6f766520616c6c20746865206d656d62657273a265627a7a723158202ecab1d302c1279f5b5575d31388fc295e4d91e644b3d2aa12535dd30a4ecbc864736f6c6343000511003246656465726174696f6e3a204d656d62657273206c6172676572207468616e206d617820616c6c6f776564",
  "source": "pragma solidity ^0.5.0;\n\nimport \"./IBridge.sol\";\nimport \"./zeppelin/ownership/Ownable.sol\";\n\ncontract Federation is Ownable {\n    uint constant public MAX_MEMBER_COUNT = 50;\n    address constant private NULL_ADDRESS = address(0);\n\n    IBridge public bridge;\n    address[] public members;\n    uint public required;\n\n    mapping (address => bool) public isMember;\n    mapping (bytes32 => mapping (address => bool)) public votes;\n    mapping(bytes32 => bool) public processed;\n    // solium-disable-next-line max-len\n    event Voted(address indexed sender, bytes32 indexed transactionId, address originalTokenAddress, address receiver, uint256 amount, string symbol, bytes32 blockHash, bytes32 indexed transactionHash, uint32 logIndex, uint8 decimals, uint256 granularity);\n    event Executed(bytes32 indexed transactionId);\n    event MemberAddition(address indexed member);\n    event MemberRemoval(address indexed member);\n    event RequirementChange(uint required);\n    event BridgeChanged(address bridge);\n\n    modifier onlyMember() {\n        require(isMember[_msgSender()], \"Federation: Caller not a Federator\");\n        _;\n    }\n\n    modifier validRequirement(uint membersCount, uint _required) {\n        // solium-disable-next-line max-len\n        require(_required <= membersCount && _required != 0 && membersCount != 0, \"Federation: Invalid requirements\");\n        _;\n    }\n\n    constructor(address[] memory _members, uint _required) public validRequirement(_members.length, _required) {\n        require(_members.length <= MAX_MEMBER_COUNT, \"Federation: Members larger than max allowed\");\n        members = _members;\n        for (uint i = 0; i < _members.length; i++) {\n            require(!isMember[_members[i]] && _members[i] != NULL_ADDRESS, \"Federation: Invalid members\");\n            isMember[_members[i]] = true;\n            emit MemberAddition(_members[i]);\n        }\n        required = _required;\n        emit RequirementChange(required);\n    }\n\n    function setBridge(address _bridge) external onlyOwner {\n        require(_bridge != NULL_ADDRESS, \"Federation: Empty bridge\");\n        bridge = IBridge(_bridge);\n        emit BridgeChanged(_bridge);\n    }\n\n    function voteTransaction(\n        address originalTokenAddress,\n        address receiver,\n        uint256 amount,\n        string calldata symbol,\n        bytes32 blockHash,\n        bytes32 transactionHash,\n        uint32 logIndex,\n        uint8 decimals,\n        uint256 granularity)\n    external returns(bool)\n    {\n        return _voteTransaction(originalTokenAddress, receiver, amount, symbol, blockHash, transactionHash, logIndex, decimals, granularity, \"\");\n    }\n\n    function voteTransactionAt(\n        address originalTokenAddress,\n        address receiver,\n        uint256 amount,\n        string calldata symbol,\n        bytes32 blockHash,\n        bytes32 transactionHash,\n        uint32 logIndex,\n        uint8 decimals,\n        uint256 granularity,\n        bytes calldata userData)\n    external returns(bool)\n    {\n        return _voteTransaction(originalTokenAddress, receiver, amount, symbol, blockHash, transactionHash, logIndex, decimals, granularity, userData);\n    }\n\n    function _voteTransaction(\n        address originalTokenAddress,\n        address receiver,\n        uint256 amount,\n        string memory symbol,\n        bytes32 blockHash,\n        bytes32 transactionHash,\n        uint32 logIndex,\n        uint8 decimals,\n        uint256 granularity,\n        bytes memory userData\n    ) internal onlyMember returns(bool) {\n        // solium-disable-next-line max-len\n        bytes32 transactionId = getTransactionId(originalTokenAddress, receiver, amount, symbol, blockHash, transactionHash, logIndex, decimals, granularity);\n        if (processed[transactionId])\n            return true;\n\n        if (votes[transactionId][_msgSender()])\n            return true;\n\n        votes[transactionId][_msgSender()] = true;\n        // solium-disable-next-line max-len\n        emit Voted(_msgSender(), transactionId, originalTokenAddress, receiver, amount, symbol, blockHash, transactionHash, logIndex, decimals, granularity);\n\n        uint transactionCount = getTransactionCount(transactionId);\n        if (transactionCount >= required && transactionCount >= members.length / 2 + 1) {\n            processed[transactionId] = true;\n            bool acceptTransfer = bridge.acceptTransferAt(\n                originalTokenAddress,\n                receiver,\n                amount,\n                symbol,\n                blockHash,\n                transactionHash,\n                logIndex,\n                decimals,\n                granularity,\n                userData\n            );\n            require(acceptTransfer, \"Federation: Bridge acceptTransfer error\");\n            emit Executed(transactionId);\n            return true;\n        }\n\n        return true;\n    }\n\n    function getTransactionCount(bytes32 transactionId) public view returns(uint) {\n        uint count = 0;\n        for (uint i = 0; i < members.length; i++) {\n            if (votes[transactionId][members[i]])\n                count += 1;\n        }\n        return count;\n    }\n\n    function hasVoted(bytes32 transactionId) external view returns(bool)\n    {\n        return votes[transactionId][_msgSender()];\n    }\n\n    function transactionWasProcessed(bytes32 transactionId) external view returns(bool)\n    {\n        return processed[transactionId];\n    }\n\n    function getTransactionId(\n        address originalTokenAddress,\n        address receiver,\n        uint256 amount,\n        string memory symbol,\n        bytes32 blockHash,\n        bytes32 transactionHash,\n        uint32 logIndex,\n        uint8 decimals,\n        uint256 granularity)\n    public pure returns(bytes32)\n    {\n        // solium-disable-next-line max-len\n        return keccak256(abi.encodePacked(originalTokenAddress, receiver, amount, symbol, blockHash, transactionHash, logIndex, decimals, granularity));\n    }\n\n    function addMember(address _newMember) external onlyOwner\n    {\n        require(_newMember != NULL_ADDRESS, \"Federation: Empty member\");\n        require(!isMember[_newMember], \"Federation: Member already exists\");\n        require(members.length < MAX_MEMBER_COUNT, \"Federation: Max members reached\");\n\n        isMember[_newMember] = true;\n        members.push(_newMember);\n        emit MemberAddition(_newMember);\n    }\n\n    function removeMember(address _oldMember) external onlyOwner\n    {\n        require(_oldMember != NULL_ADDRESS, \"Federation: Empty member\");\n        require(isMember[_oldMember], \"Federation: Member doesn't exists\");\n        require(members.length > 1, \"Federation: Can't remove all the members\");\n        require(members.length - 1 >= required, \"Federation: Can't have less than required members\");\n\n        isMember[_oldMember] = false;\n        for (uint i = 0; i < members.length - 1; i++) {\n            if (members[i] == _oldMember) {\n                members[i] = members[members.length - 1];\n                break;\n            }\n        }\n        members.length -= 1;\n        emit MemberRemoval(_oldMember);\n    }\n\n    function getMembers() external view returns (address[] memory)\n    {\n        return members;\n    }\n\n    function changeRequirement(uint _required) external onlyOwner validRequirement(members.length, _required)\n    {\n        require(_required >= 2, \"Federation: Requires at least 2\");\n        required = _required;\n        emit RequirementChange(_required);\n    }\n\n}\n",
  "sourcePath": "/Users/pooh/sovryn/deploy_bridge/MAIN-Restore-RSK-ETH/Bridge-SC/sovryn-token-bridge/bridge/contracts/Federation.sol",
  "compiler": {
    "name": "solc",
    "version": "0.5.17+commit.d19bba13.Emscripten.clang"
  },
  "schemaVersion": "3.2.4",
  "updatedAt": "2021-04-27T19:12:41.322Z",
  "devdoc": {
    "methods": {
      "isOwner()": {
        "details": "Returns true if the caller is the current owner."
      },
      "owner()": {
        "details": "Returns the address of the current owner."
      },
      "renounceOwnership()": {
        "details": "Leaves the contract without owner. It will not be possible to call `onlyOwner` functions anymore. Can only be called by the current owner.     * NOTE: Renouncing ownership will leave the contract without an owner, thereby removing any functionality that is only available to the owner."
      },
      "transferOwnership(address)": {
        "details": "Transfers ownership of the contract to a new account (`newOwner`). Can only be called by the current owner."
      }
    }
  },
  "userdoc": {
    "methods": {}
  }
}