{
  "contractName": "Federation_v0",
  "abi": [
    {
      "inputs": [
        {
          "internalType": "address[]",
          "name": "_members",
          "type": "address[]"
        },
        {
          "internalType": "uint256",
          "name": "_required",
          "type": "uint256"
        }
      ],
      "payable": false,
      "stateMutability": "nonpayable",
      "type": "constructor"
    },
    {
      "anonymous": false,
      "inputs": [
        {
          "indexed": true,
          "internalType": "bytes32",
          "name": "transactionId",
          "type": "bytes32"
        }
      ],
      "name": "Executed",
      "type": "event"
    },
    {
      "anonymous": false,
      "inputs": [
        {
          "indexed": true,
          "internalType": "address",
          "name": "member",
          "type": "address"
        }
      ],
      "name": "MemberAddition",
      "type": "event"
    },
    {
      "anonymous": false,
      "inputs": [
        {
          "indexed": true,
          "internalType": "address",
          "name": "member",
          "type": "address"
        }
      ],
      "name": "MemberRemoval",
      "type": "event"
    },
    {
      "anonymous": false,
      "inputs": [
        {
          "indexed": true,
          "internalType": "address",
          "name": "previousOwner",
          "type": "address"
        },
        {
          "indexed": true,
          "internalType": "address",
          "name": "newOwner",
          "type": "address"
        }
      ],
      "name": "OwnershipTransferred",
      "type": "event"
    },
    {
      "anonymous": false,
      "inputs": [
        {
          "indexed": false,
          "internalType": "uint256",
          "name": "required",
          "type": "uint256"
        }
      ],
      "name": "RequirementChange",
      "type": "event"
    },
    {
      "anonymous": false,
      "inputs": [
        {
          "indexed": true,
          "internalType": "address",
          "name": "sender",
          "type": "address"
        },
        {
          "indexed": true,
          "internalType": "bytes32",
          "name": "transactionId",
          "type": "bytes32"
        }
      ],
      "name": "Voted",
      "type": "event"
    },
    {
      "constant": true,
      "inputs": [],
      "name": "MAX_MEMBER_COUNT",
      "outputs": [
        {
          "internalType": "uint256",
          "name": "",
          "type": "uint256"
        }
      ],
      "payable": false,
      "stateMutability": "view",
      "type": "function"
    },
    {
      "constant": true,
      "inputs": [],
      "name": "bridge",
      "outputs": [
        {
          "internalType": "contract IBridge_v0",
          "name": "",
          "type": "address"
        }
      ],
      "payable": false,
      "stateMutability": "view",
      "type": "function"
    },
    {
      "constant": true,
      "inputs": [
        {
          "internalType": "address",
          "name": "",
          "type": "address"
        }
      ],
      "name": "isMember",
      "outputs": [
        {
          "internalType": "bool",
          "name": "",
          "type": "bool"
        }
      ],
      "payable": false,
      "stateMutability": "view",
      "type": "function"
    },
    {
      "constant": true,
      "inputs": [],
      "name": "isOwner",
      "outputs": [
        {
          "internalType": "bool",
          "name": "",
          "type": "bool"
        }
      ],
      "payable": false,
      "stateMutability": "view",
      "type": "function"
    },
    {
      "constant": true,
      "inputs": [
        {
          "internalType": "uint256",
          "name": "",
          "type": "uint256"
        }
      ],
      "name": "members",
      "outputs": [
        {
          "internalType": "address",
          "name": "",
          "type": "address"
        }
      ],
      "payable": false,
      "stateMutability": "view",
      "type": "function"
    },
    {
      "constant": true,
      "inputs": [],
      "name": "owner",
      "outputs": [
        {
          "internalType": "address",
          "name": "",
          "type": "address"
        }
      ],
      "payable": false,
      "stateMutability": "view",
      "type": "function"
    },
    {
      "constant": true,
      "inputs": [
        {
          "internalType": "bytes32",
          "name": "",
          "type": "bytes32"
        }
      ],
      "name": "processed",
      "outputs": [
        {
          "internalType": "bool",
          "name": "",
          "type": "bool"
        }
      ],
      "payable": false,
      "stateMutability": "view",
      "type": "function"
    },
    {
      "constant": false,
      "inputs": [],
      "name": "renounceOwnership",
      "outputs": [],
      "payable": false,
      "stateMutability": "nonpayable",
      "type": "function"
    },
    {
      "constant": true,
      "inputs": [],
      "name": "required",
      "outputs": [
        {
          "internalType": "uint256",
          "name": "",
          "type": "uint256"
        }
      ],
      "payable": false,
      "stateMutability": "view",
      "type": "function"
    },
    {
      "constant": false,
      "inputs": [
        {
          "internalType": "address",
          "name": "newOwner",
          "type": "address"
        }
      ],
      "name": "transferOwnership",
      "outputs": [],
      "payable": false,
      "stateMutability": "nonpayable",
      "type": "function"
    },
    {
      "constant": true,
      "inputs": [
        {
          "internalType": "bytes32",
          "name": "",
          "type": "bytes32"
        },
        {
          "internalType": "address",
          "name": "",
          "type": "address"
        }
      ],
      "name": "votes",
      "outputs": [
        {
          "internalType": "bool",
          "name": "",
          "type": "bool"
        }
      ],
      "payable": false,
      "stateMutability": "view",
      "type": "function"
    },
    {
      "constant": false,
      "inputs": [
        {
          "internalType": "address",
          "name": "_bridge",
          "type": "address"
        }
      ],
      "name": "setBridge",
      "outputs": [],
      "payable": false,
      "stateMutability": "nonpayable",
      "type": "function"
    },
    {
      "constant": false,
      "inputs": [
        {
          "internalType": "address",
          "name": "originalTokenAddress",
          "type": "address"
        },
        {
          "internalType": "address",
          "name": "receiver",
          "type": "address"
        },
        {
          "internalType": "uint256",
          "name": "amount",
          "type": "uint256"
        },
        {
          "internalType": "string",
          "name": "symbol",
          "type": "string"
        },
        {
          "internalType": "bytes32",
          "name": "blockHash",
          "type": "bytes32"
        },
        {
          "internalType": "bytes32",
          "name": "transactionHash",
          "type": "bytes32"
        },
        {
          "internalType": "uint32",
          "name": "logIndex",
          "type": "uint32"
        }
      ],
      "name": "voteTransaction",
      "outputs": [
        {
          "internalType": "bool",
          "name": "",
          "type": "bool"
        }
      ],
      "payable": false,
      "stateMutability": "nonpayable",
      "type": "function"
    },
    {
      "constant": true,
      "inputs": [
        {
          "internalType": "bytes32",
          "name": "transactionId",
          "type": "bytes32"
        }
      ],
      "name": "getTransactionCount",
      "outputs": [
        {
          "internalType": "uint8",
          "name": "",
          "type": "uint8"
        }
      ],
      "payable": false,
      "stateMutability": "view",
      "type": "function"
    },
    {
      "constant": true,
      "inputs": [
        {
          "internalType": "bytes32",
          "name": "transactionId",
          "type": "bytes32"
        }
      ],
      "name": "hasVoted",
      "outputs": [
        {
          "internalType": "bool",
          "name": "",
          "type": "bool"
        }
      ],
      "payable": false,
      "stateMutability": "view",
      "type": "function"
    },
    {
      "constant": true,
      "inputs": [
        {
          "internalType": "bytes32",
          "name": "transactionId",
          "type": "bytes32"
        }
      ],
      "name": "transactionWasProcessed",
      "outputs": [
        {
          "internalType": "bool",
          "name": "",
          "type": "bool"
        }
      ],
      "payable": false,
      "stateMutability": "view",
      "type": "function"
    },
    {
      "constant": true,
      "inputs": [
        {
          "internalType": "address",
          "name": "originalTokenAddress",
          "type": "address"
        },
        {
          "internalType": "address",
          "name": "receiver",
          "type": "address"
        },
        {
          "internalType": "uint256",
          "name": "amount",
          "type": "uint256"
        },
        {
          "internalType": "string",
          "name": "symbol",
          "type": "string"
        },
        {
          "internalType": "bytes32",
          "name": "blockHash",
          "type": "bytes32"
        },
        {
          "internalType": "bytes32",
          "name": "transactionHash",
          "type": "bytes32"
        },
        {
          "internalType": "uint32",
          "name": "logIndex",
          "type": "uint32"
        }
      ],
      "name": "getTransactionId",
      "outputs": [
        {
          "internalType": "bytes32",
          "name": "",
          "type": "bytes32"
        }
      ],
      "payable": false,
      "stateMutability": "pure",
      "type": "function"
    },
    {
      "constant": false,
      "inputs": [
        {
          "internalType": "address",
          "name": "_newMember",
          "type": "address"
        }
      ],
      "name": "addMember",
      "outputs": [],
      "payable": false,
      "stateMutability": "nonpayable",
      "type": "function"
    },
    {
      "constant": false,
      "inputs": [
        {
          "internalType": "address",
          "name": "_oldMember",
          "type": "address"
        }
      ],
      "name": "removeMember",
      "outputs": [],
      "payable": false,
      "stateMutability": "nonpayable",
      "type": "function"
    },
    {
      "constant": true,
      "inputs": [],
      "name": "getMembers",
      "outputs": [
        {
          "internalType": "address[]",
          "name": "",
          "type": "address[]"
        }
      ],
      "payable": false,
      "stateMutability": "view",
      "type": "function"
    },
    {
      "constant": false,
      "inputs": [
        {
          "internalType": "uint256",
          "name": "_required",
          "type": "uint256"
        }
      ],
      "name": "changeRequirement",
      "outputs": [],
      "payable": false,
      "stateMutability": "nonpayable",
      "type": "function"
    }
  ],
  "bytecode": "0x60806040523480156200001157600080fd5b50604051620018b0380380620018b0833981810160405260408110156200003757600080fd5b81019080805160405193929190846401000000008211156200005857600080fd5b9083019060208201858111156200006e57600080fd5b82518660208202830111640100000000821117156200008c57600080fd5b82525081516020918201928201910280838360005b83811015620000bb578181015183820152602001620000a1565b505050509190910160405250602001519150620000e290506001600160e01b036200033b16565b600080546001600160a01b0319166001600160a01b03928316178082556040519216917f8be0079c531659141344cd1fd0a4f28419497f9722a3daafe3b4186f6b6457e0908290a38151818181111580156200013d57508015155b80156200014957508115155b620001865760405162461bcd60e51b8152600401808060200182810382526043815260200180620018446043913960600191505060405180910390fd5b83516200019b90600290602087019062000340565b5060005b8451811015620002f85760046000868381518110620001ba57fe5b6020908102919091018101516001600160a01b031682528101919091526040016000205460ff1615801562000216575060006001600160a01b03168582815181106200020257fe5b60200260200101516001600160a01b031614155b620002535760405162461bcd60e51b8152600401808060200182810382526029815260200180620018876029913960400191505060405180910390fd5b6001600460008784815181106200026657fe5b60200260200101516001600160a01b03166001600160a01b0316815260200190815260200160002060006101000a81548160ff021916908315150217905550848181518110620002b257fe5b60200260200101516001600160a01b03167f72114e270de66b9d2710ecf140403e5e99b1574767d6a8197bdc8d807a46e7c760405160405180910390a26001016200019f565b5060038390556040805184815290517fa3f1ee9126a074d9326c682f561767f710e927faa811f7a99829d49dc421797a9181900360200190a150505050620003d1565b335b90565b82805482825590600052602060002090810192821562000398579160200282015b828111156200039857825182546001600160a01b0319166001600160a01b0390911617825560209092019160019091019062000361565b50620003a6929150620003aa565b5090565b6200033d91905b80821115620003a65780546001600160a01b0319168155600101620003b1565b61146380620003e16000396000f3fe608060405234801561001057600080fd5b50600436106101375760003560e01c80639386775a116100b8578063ba51a6df1161007c578063ba51a6df14610499578063c1f0808a146104b6578063ca6d56dc146104d3578063dc8452cd146104f9578063e78cea9214610501578063f2fde38b1461050957610137565b80639386775a1461039f5780639eab5253146103cb578063a1fb4acb14610423578063a230c52414610456578063a93585f01461047c57610137565b8063681fc921116100ff578063681fc92114610359578063715018a6146103615780638da5cb5b146103695780638dd14802146103715780638f32d59b1461039757610137565b80630b1ca49a1461013c5780631b4613cb1461016457806336875dc31461019557806348f51eb01461027e5780635daf08ca14610320575b600080fd5b6101626004803603602081101561015257600080fd5b50356001600160a01b031661052f565b005b6101816004803603602081101561017a57600080fd5b5035610773565b604080519115158252519081900360200190f35b61026c600480360360e08110156101ab57600080fd5b6001600160a01b038235811692602081013590911691604082013591908101906080810160608201356401000000008111156101e657600080fd5b8201836020820111156101f857600080fd5b8035906020019184600183028401116401000000008311171561021a57600080fd5b91908080601f016020809104026020016040519081016040528093929190818152602001838380828437600092019190915250929550508235935050506020810135906040013563ffffffff166107ad565b60408051918252519081900360200190f35b610181600480360360e081101561029457600080fd5b6001600160a01b038235811692602081013590911691604082013591908101906080810160608201356401000000008111156102cf57600080fd5b8201836020820111156102e157600080fd5b8035906020019184600183028401116401000000008311171561030357600080fd5b91935091508035906020810135906040013563ffffffff16610888565b61033d6004803603602081101561033657600080fd5b5035610c17565b604080516001600160a01b039092168252519081900360200190f35b61026c610c3e565b610162610c43565b61033d610cd4565b6101626004803603602081101561038757600080fd5b50356001600160a01b0316610ce4565b610181610d4d565b610181600480360360408110156103b557600080fd5b50803590602001356001600160a01b0316610d71565b6103d3610d91565b60408051602080825283518183015283519192839290830191858101910280838360005b8381101561040f5781810151838201526020016103f7565b505050509050019250505060405180910390f35b6104406004803603602081101561043957600080fd5b5035610df3565b6040805160ff9092168252519081900360200190f35b6101816004803603602081101561046c57600080fd5b50356001600160a01b0316610e6a565b6101816004803603602081101561049257600080fd5b5035610e7f565b610162600480360360208110156104af57600080fd5b5035610e94565b610181600480360360208110156104cc57600080fd5b5035610f71565b610162600480360360208110156104e957600080fd5b50356001600160a01b0316610f86565b61026c611137565b61033d61113d565b6101626004803603602081101561051f57600080fd5b50356001600160a01b031661114c565b610537610d4d565b610576576040805162461bcd60e51b815260206004820181905260248201526000805160206113c4833981519152604482015290519081900360640190fd5b6001600160a01b0381166105bb5760405162461bcd60e51b81526004018080602001828103825260238152602001806113e46023913960400191505060405180910390fd5b6001600160a01b03811660009081526004602052604090205460ff166106125760405162461bcd60e51b81526004018080602001828103825260228152602001806112e66022913960400191505060405180910390fd5b6002546001106106535760405162461bcd60e51b81526004018080602001828103825260288152602001806114076028913960400191505060405180910390fd5b6001600160a01b0381166000908152600460205260408120805460ff191690555b6002546000190181101561072757816001600160a01b03166002828154811061069957fe5b6000918252602090912001546001600160a01b0316141561071f576002805460001981019081106106c657fe5b600091825260209091200154600280546001600160a01b0390921691839081106106ec57fe5b9060005260206000200160006101000a8154816001600160a01b0302191690836001600160a01b03160217905550610727565b600101610674565b5060028054600019019061073b9082611243565b506040516001600160a01b038216907f270bfc616dd36d5cb6b35aac93e6ef22b089c34e6f6ad6f0892797424840897b90600090a250565b60008181526005602052604081208161078a61119f565b6001600160a01b0316815260208101919091526040016000205460ff1692915050565b60008787878787878760405160200180886001600160a01b03166001600160a01b031660601b8152601401876001600160a01b03166001600160a01b031660601b815260140186815260200185805190602001908083835b602083106108245780518252601f199092019160209182019101610805565b51815160209384036101000a6000190180199092169116179052920195865250848101939093525060e01b6001600160e01b031916604080840191909152805180840360240181526044909301905281519101209c9b505050505050505050505050565b60006004600061089661119f565b6001600160a01b0316815260208101919091526040016000205460ff166108ee5760405162461bcd60e51b81526004018080602001828103825260348152602001806113086034913960400191505060405180910390fd5b60006109378a8a8a8a8a8080601f0160208091040260200160405190810160405280939291908181526020018383808284376000920191909152508c92508b91508a90506107ad565b60008181526006602052604090205490915060ff161561095b576001915050610c0b565b60008181526005602052604081209061097261119f565b6001600160a01b0316815260208101919091526040016000205460ff161561099e576001915050610c0b565b60008181526005602052604081206001916109b761119f565b6001600160a01b031681526020810191909152604001600020805460ff1916911515919091179055806109e861119f565b6001600160a01b03167fc78796858497f000f0a77d7f0c624bbaf635bf26239188e8fba52c571db2398d60405160405180910390a36000610a2882610df3565b90506003548160ff1610158015610a49575060028054046001018160ff1610155b15610c045760016006600084815260200190815260200160002060006101000a81548160ff0219169083151502179055506000600160009054906101000a90046001600160a01b03166001600160a01b0316631ed408a68d8d8d8d8d8d8d8d6040518963ffffffff1660e01b815260040180896001600160a01b03166001600160a01b03168152602001886001600160a01b03166001600160a01b03168152602001878152602001806020018581526020018481526020018363ffffffff1663ffffffff1681526020018281038252878782818152602001925080828437600081840152601f19601f8201169050808301925050509950505050505050505050602060405180830381600087803b158015610b6357600080fd5b505af1158015610b77573d6000803e3d6000fd5b505050506040513d6020811015610b8d57600080fd5b5051905080610bcd5760405162461bcd60e51b81526004018080602001828103825260358152602001806112b16035913960400191505060405180910390fd5b60405183907fa74c8847d513feba22a0f0cb38d53081abf97562cdb293926ba243689e7c41ca90600090a260019350505050610c0b565b6001925050505b98975050505050505050565b60028181548110610c2457fe5b6000918252602090912001546001600160a01b0316905081565b603281565b610c4b610d4d565b610c8a576040805162461bcd60e51b815260206004820181905260248201526000805160206113c4833981519152604482015290519081900360640190fd5b600080546040516001600160a01b03909116907f8be0079c531659141344cd1fd0a4f28419497f9722a3daafe3b4186f6b6457e0908390a3600080546001600160a01b0319169055565b6000546001600160a01b03165b90565b610cec610d4d565b610d2b576040805162461bcd60e51b815260206004820181905260248201526000805160206113c4833981519152604482015290519081900360640190fd5b600180546001600160a01b0319166001600160a01b0392909216919091179055565b600080546001600160a01b0316610d6261119f565b6001600160a01b031614905090565b600560209081526000928352604080842090915290825290205460ff1681565b60606002805480602002602001604051908101604052809291908181526020018280548015610de957602002820191906000526020600020905b81546001600160a01b03168152600190910190602001808311610dcb575b5050505050905090565b600080805b60025460ff82161015610e635760008481526005602052604081206002805491929160ff8516908110610e2757fe5b60009182526020808320909101546001600160a01b0316835282019290925260400190205460ff1615610e5b576001820191505b600101610df8565b5092915050565b60046020526000908152604090205460ff1681565b60009081526006602052604090205460ff1690565b610e9c610d4d565b610edb576040805162461bcd60e51b815260206004820181905260248201526000805160206113c4833981519152604482015290519081900360640190fd5b60025481818111801590610eee57508015155b8015610ef957508115155b610f345760405162461bcd60e51b81526004018080602001828103825260438152602001806113606043913960600191505060405180910390fd5b60038390556040805184815290517fa3f1ee9126a074d9326c682f561767f710e927faa811f7a99829d49dc421797a9181900360200190a1505050565b60066020526000908152604090205460ff1681565b610f8e610d4d565b610fcd576040805162461bcd60e51b815260206004820181905260248201526000805160206113c4833981519152604482015290519081900360640190fd5b6001600160a01b0381166110125760405162461bcd60e51b81526004018080602001828103825260238152602001806113e46023913960400191505060405180910390fd5b6001600160a01b03811660009081526004602052604090205460ff161561106a5760405162461bcd60e51b81526004018080602001828103825260218152602001806113a36021913960400191505060405180910390fd5b6002546032116110ab5760405162461bcd60e51b815260040180806020018281038252602481526020018061133c6024913960400191505060405180910390fd5b6001600160a01b038116600081815260046020526040808220805460ff1916600190811790915560028054918201815583527f405787fa12a823e0f2b7631cc41b3ba8828b3321ca811111fa75cd3aa3bb5ace0180546001600160a01b03191684179055517f72114e270de66b9d2710ecf140403e5e99b1574767d6a8197bdc8d807a46e7c79190a250565b60035481565b6001546001600160a01b031681565b611154610d4d565b611193576040805162461bcd60e51b815260206004820181905260248201526000805160206113c4833981519152604482015290519081900360640190fd5b61119c816111a3565b50565b3390565b6001600160a01b0381166111e85760405162461bcd60e51b815260040180806020018281038252602681526020018061128b6026913960400191505060405180910390fd5b600080546040516001600160a01b03808516939216917f8be0079c531659141344cd1fd0a4f28419497f9722a3daafe3b4186f6b6457e091a3600080546001600160a01b0319166001600160a01b0392909216919091179055565b8154818355818111156112675760008381526020902061126791810190830161126c565b505050565b610ce191905b808211156112865760008155600101611272565b509056fe4f776e61626c653a206e6577206f776e657220697320746865207a65726f206164647265737346656465726174696f6e3a2042726964676520416363657074205472616e7366657220776173206e6f74207375636365737366756c46656465726174696f6e3a204d656d62657220646f6573206e6f742065786973747346656465726174696f6e3a2043616c6c6572206973206e6f742061206d656d626572206f66207468652066656465726174696f6e46656465726174696f6e3a20416c72656164792061742066756c6c20636170616369747946656465726174696f6e3a2052657175697265642076616c756520697320696e76616c696420666f72207468652063757272656e74206d656d6265727320636f756e7446656465726174696f6e3a204d656d62657220616c7265616479206578697374734f776e61626c653a2063616c6c6572206973206e6f7420746865206f776e657246656465726174696f6e3a20416464726573732063616e6e6f7420626520656d70747946656465726174696f6e3a2043616e27742072656d6f766520616c6c20746865206d656d62657273a265627a7a723158208e25eb7abd73b375f5bed073e666f02fd620e9daa077a0d3b2693e4a2bae0f2a64736f6c6343000511003246656465726174696f6e3a2052657175697265642076616c756520697320696e76616c696420666f72207468652063757272656e74206d656d6265727320636f756e7446656465726174696f6e3a204d656d62657273206164647265737365732061726520696e76616c6964",
  "source": "pragma solidity ^0.5.0;\n\nimport \"./IBridge_v0.sol\";\nimport \"./zeppelin/ownership/Ownable.sol\";\n\ncontract Federation_v0 is Ownable {\n    uint constant public MAX_MEMBER_COUNT = 50;\n    address constant private NULL_ADDRESS = address(0);\n\n    IBridge_v0 public bridge;\n    address[] public members;\n    uint public required;\n\n    mapping (address => bool) public isMember;\n    mapping (bytes32 => mapping (address => bool)) public votes;\n    mapping(bytes32 => bool) public processed;\n\n    event Voted(address indexed sender, bytes32 indexed transactionId);\n    event Executed(bytes32 indexed transactionId);\n    event MemberAddition(address indexed member);\n    event MemberRemoval(address indexed member);\n    event RequirementChange(uint required);\n\n    modifier onlyMember() {\n        require(isMember[_msgSender()], \"Federation: Caller is not a member of the federation\");\n        _;\n    }\n\n    modifier validRequirement(uint membersCount, uint _required) {\n        // solium-disable-next-line max-len\n        require(_required <= membersCount && _required != 0 && membersCount != 0, \"Federation: Required value is invalid for the current members count\");\n        _;\n    }\n\n    constructor(address[] memory _members, uint _required) public validRequirement(_members.length, _required) {\n        members = _members;\n        for (uint i = 0; i < _members.length; i++) {\n            require(!isMember[_members[i]] && _members[i] != NULL_ADDRESS, \"Federation: Members addresses are invalid\");\n            isMember[_members[i]] = true;\n            emit MemberAddition(_members[i]);\n        }\n        required = _required;\n        emit RequirementChange(required);\n    }\n\n    function setBridge(address _bridge) external onlyOwner {\n        bridge = IBridge_v0(_bridge);\n    }\n\n    function voteTransaction(\n        address originalTokenAddress,\n        address receiver,\n        uint256 amount,\n        string calldata symbol,\n        bytes32 blockHash,\n        bytes32 transactionHash,\n        uint32 logIndex)\n    external onlyMember returns(bool)\n    {\n        bytes32 transactionId = getTransactionId(originalTokenAddress, receiver, amount, symbol, blockHash, transactionHash, logIndex);\n        if (processed[transactionId])\n            return true;\n\n        if (votes[transactionId][_msgSender()])\n            return true;\n\n        votes[transactionId][_msgSender()] = true;\n        emit Voted(_msgSender(), transactionId);\n\n        uint8 transactionCount = getTransactionCount(transactionId);\n        if (transactionCount >= required && transactionCount >= members.length / 2 + 1) {\n            processed[transactionId] = true;\n            bool acceptTransfer = bridge.acceptTransfer(originalTokenAddress, receiver, amount, symbol, blockHash, transactionHash, logIndex);\n            require(acceptTransfer, \"Federation: Bridge Accept Transfer was not successful\");\n            emit Executed(transactionId);\n            return true;\n        }\n\n        return true;\n    }\n\n    function getTransactionCount(bytes32 transactionId) public view returns(uint8) {\n        uint8 count = 0;\n        for (uint8 i = 0; i < members.length; i++) {\n            if (votes[transactionId][members[i]])\n                count += 1;\n        }\n        return count;\n    }\n\n    function hasVoted(bytes32 transactionId) external view returns(bool)\n    {\n        return votes[transactionId][_msgSender()];\n    }\n\n    function transactionWasProcessed(bytes32 transactionId) external view returns(bool)\n    {\n        return processed[transactionId];\n    }\n\n    function getTransactionId(\n        address originalTokenAddress,\n        address receiver,\n        uint256 amount,\n        string memory symbol,\n        bytes32 blockHash,\n        bytes32 transactionHash,\n        uint32 logIndex)\n    public pure returns(bytes32)\n    {\n        return keccak256(abi.encodePacked(originalTokenAddress, receiver, amount, symbol, blockHash, transactionHash, logIndex));\n    }\n\n    function addMember(address _newMember) external onlyOwner\n    {\n        require(_newMember != NULL_ADDRESS, \"Federation: Address cannot be empty\");\n        require(!isMember[_newMember], \"Federation: Member already exists\");\n        require(members.length < MAX_MEMBER_COUNT, \"Federation: Already at full capacity\");\n\n        isMember[_newMember] = true;\n        members.push(_newMember);\n        emit MemberAddition(_newMember);\n    }\n\n    function removeMember(address _oldMember) external onlyOwner\n    {\n        require(_oldMember != NULL_ADDRESS, \"Federation: Address cannot be empty\");\n        require(isMember[_oldMember], \"Federation: Member does not exists\");\n        require(members.length > 1, \"Federation: Can't remove all the members\");\n\n        isMember[_oldMember] = false;\n        for (uint i = 0; i < members.length - 1; i++) {\n            if (members[i] == _oldMember) {\n                members[i] = members[members.length - 1];\n                break;\n            }\n        }\n        members.length -= 1;\n        emit MemberRemoval(_oldMember);\n    }\n\n    function getMembers() external view returns (address[] memory)\n    {\n        return members;\n    }\n\n    function changeRequirement(uint _required) external onlyOwner validRequirement(members.length, _required)\n    {\n        required = _required;\n        emit RequirementChange(_required);\n    }\n\n}",
  "sourcePath": "/Users/pooh/sovryn/deploy_bridge/MAIN-ETH-RSK/Bridge-SC/sovryn-token-bridge/bridge/contracts/Federation_v0.sol",
  "compiler": {
    "name": "solc",
    "version": "0.5.17+commit.d19bba13.Emscripten.clang"
  },
  "schemaVersion": "3.3.4",
  "updatedAt": "2021-05-22T15:19:18.951Z",
  "devdoc": {
    "methods": {
      "isOwner()": {
        "details": "Returns true if the caller is the current owner."
      },
      "owner()": {
        "details": "Returns the address of the current owner."
      },
      "renounceOwnership()": {
        "details": "Leaves the contract without owner. It will not be possible to call `onlyOwner` functions anymore. Can only be called by the current owner.     * NOTE: Renouncing ownership will leave the contract without an owner, thereby removing any functionality that is only available to the owner."
      },
      "transferOwnership(address)": {
        "details": "Transfers ownership of the contract to a new account (`newOwner`). Can only be called by the current owner."
      }
    }
  },
  "userdoc": {
    "methods": {}
  }
}