{
  "contractName": "Federation",
  "abi": [
    {
      "inputs": [
        {
          "internalType": "address[]",
          "name": "_members",
          "type": "address[]"
        },
        {
          "internalType": "uint256",
          "name": "_required",
          "type": "uint256"
        }
      ],
      "payable": false,
      "stateMutability": "nonpayable",
      "type": "constructor"
    },
    {
      "anonymous": false,
      "inputs": [
        {
          "indexed": false,
          "internalType": "address",
          "name": "bridge",
          "type": "address"
        }
      ],
      "name": "BridgeChanged",
      "type": "event"
    },
    {
      "anonymous": false,
      "inputs": [
        {
          "indexed": true,
          "internalType": "bytes32",
          "name": "transactionId",
          "type": "bytes32"
        }
      ],
      "name": "Executed",
      "type": "event"
    },
    {
      "anonymous": false,
      "inputs": [
        {
          "indexed": true,
          "internalType": "address",
          "name": "member",
          "type": "address"
        }
      ],
      "name": "MemberAddition",
      "type": "event"
    },
    {
      "anonymous": false,
      "inputs": [
        {
          "indexed": true,
          "internalType": "address",
          "name": "member",
          "type": "address"
        }
      ],
      "name": "MemberRemoval",
      "type": "event"
    },
    {
      "anonymous": false,
      "inputs": [
        {
          "indexed": true,
          "internalType": "address",
          "name": "previousOwner",
          "type": "address"
        },
        {
          "indexed": true,
          "internalType": "address",
          "name": "newOwner",
          "type": "address"
        }
      ],
      "name": "OwnershipTransferred",
      "type": "event"
    },
    {
      "anonymous": false,
      "inputs": [
        {
          "indexed": false,
          "internalType": "uint256",
          "name": "required",
          "type": "uint256"
        }
      ],
      "name": "RequirementChange",
      "type": "event"
    },
    {
      "anonymous": false,
      "inputs": [
        {
          "indexed": true,
          "internalType": "address",
          "name": "sender",
          "type": "address"
        },
        {
          "indexed": true,
          "internalType": "bytes32",
          "name": "transactionId",
          "type": "bytes32"
        },
        {
          "indexed": false,
          "internalType": "address",
          "name": "originalTokenAddress",
          "type": "address"
        },
        {
          "indexed": false,
          "internalType": "address",
          "name": "receiver",
          "type": "address"
        },
        {
          "indexed": false,
          "internalType": "uint256",
          "name": "amount",
          "type": "uint256"
        },
        {
          "indexed": false,
          "internalType": "string",
          "name": "symbol",
          "type": "string"
        },
        {
          "indexed": false,
          "internalType": "bytes32",
          "name": "blockHash",
          "type": "bytes32"
        },
        {
          "indexed": true,
          "internalType": "bytes32",
          "name": "transactionHash",
          "type": "bytes32"
        },
        {
          "indexed": false,
          "internalType": "uint32",
          "name": "logIndex",
          "type": "uint32"
        },
        {
          "indexed": false,
          "internalType": "uint8",
          "name": "decimals",
          "type": "uint8"
        },
        {
          "indexed": false,
          "internalType": "uint256",
          "name": "granularity",
          "type": "uint256"
        }
      ],
      "name": "Voted",
      "type": "event"
    },
    {
      "constant": true,
      "inputs": [],
      "name": "MAX_MEMBER_COUNT",
      "outputs": [
        {
          "internalType": "uint256",
          "name": "",
          "type": "uint256"
        }
      ],
      "payable": false,
      "stateMutability": "view",
      "type": "function"
    },
    {
      "constant": true,
      "inputs": [],
      "name": "bridge",
      "outputs": [
        {
          "internalType": "contract IBridge",
          "name": "",
          "type": "address"
        }
      ],
      "payable": false,
      "stateMutability": "view",
      "type": "function"
    },
    {
      "constant": true,
      "inputs": [
        {
          "internalType": "address",
          "name": "",
          "type": "address"
        }
      ],
      "name": "isMember",
      "outputs": [
        {
          "internalType": "bool",
          "name": "",
          "type": "bool"
        }
      ],
      "payable": false,
      "stateMutability": "view",
      "type": "function"
    },
    {
      "constant": true,
      "inputs": [],
      "name": "isOwner",
      "outputs": [
        {
          "internalType": "bool",
          "name": "",
          "type": "bool"
        }
      ],
      "payable": false,
      "stateMutability": "view",
      "type": "function"
    },
    {
      "constant": true,
      "inputs": [
        {
          "internalType": "uint256",
          "name": "",
          "type": "uint256"
        }
      ],
      "name": "members",
      "outputs": [
        {
          "internalType": "address",
          "name": "",
          "type": "address"
        }
      ],
      "payable": false,
      "stateMutability": "view",
      "type": "function"
    },
    {
      "constant": true,
      "inputs": [],
      "name": "owner",
      "outputs": [
        {
          "internalType": "address",
          "name": "",
          "type": "address"
        }
      ],
      "payable": false,
      "stateMutability": "view",
      "type": "function"
    },
    {
      "constant": true,
      "inputs": [
        {
          "internalType": "bytes32",
          "name": "",
          "type": "bytes32"
        }
      ],
      "name": "processed",
      "outputs": [
        {
          "internalType": "bool",
          "name": "",
          "type": "bool"
        }
      ],
      "payable": false,
      "stateMutability": "view",
      "type": "function"
    },
    {
      "constant": false,
      "inputs": [],
      "name": "renounceOwnership",
      "outputs": [],
      "payable": false,
      "stateMutability": "nonpayable",
      "type": "function"
    },
    {
      "constant": true,
      "inputs": [],
      "name": "required",
      "outputs": [
        {
          "internalType": "uint256",
          "name": "",
          "type": "uint256"
        }
      ],
      "payable": false,
      "stateMutability": "view",
      "type": "function"
    },
    {
      "constant": false,
      "inputs": [
        {
          "internalType": "address",
          "name": "newOwner",
          "type": "address"
        }
      ],
      "name": "transferOwnership",
      "outputs": [],
      "payable": false,
      "stateMutability": "nonpayable",
      "type": "function"
    },
    {
      "constant": true,
      "inputs": [
        {
          "internalType": "bytes32",
          "name": "",
          "type": "bytes32"
        },
        {
          "internalType": "address",
          "name": "",
          "type": "address"
        }
      ],
      "name": "votes",
      "outputs": [
        {
          "internalType": "bool",
          "name": "",
          "type": "bool"
        }
      ],
      "payable": false,
      "stateMutability": "view",
      "type": "function"
    },
    {
      "constant": false,
      "inputs": [
        {
          "internalType": "address",
          "name": "_bridge",
          "type": "address"
        }
      ],
      "name": "setBridge",
      "outputs": [],
      "payable": false,
      "stateMutability": "nonpayable",
      "type": "function"
    },
    {
      "constant": false,
      "inputs": [
        {
          "internalType": "address",
          "name": "originalTokenAddress",
          "type": "address"
        },
        {
          "internalType": "address",
          "name": "receiver",
          "type": "address"
        },
        {
          "internalType": "uint256",
          "name": "amount",
          "type": "uint256"
        },
        {
          "internalType": "string",
          "name": "symbol",
          "type": "string"
        },
        {
          "internalType": "bytes32",
          "name": "blockHash",
          "type": "bytes32"
        },
        {
          "internalType": "bytes32",
          "name": "transactionHash",
          "type": "bytes32"
        },
        {
          "internalType": "uint32",
          "name": "logIndex",
          "type": "uint32"
        },
        {
          "internalType": "uint8",
          "name": "decimals",
          "type": "uint8"
        },
        {
          "internalType": "uint256",
          "name": "granularity",
          "type": "uint256"
        }
      ],
      "name": "voteTransaction",
      "outputs": [
        {
          "internalType": "bool",
          "name": "",
          "type": "bool"
        }
      ],
      "payable": false,
      "stateMutability": "nonpayable",
      "type": "function"
    },
    {
      "constant": false,
      "inputs": [
        {
          "internalType": "address",
          "name": "originalTokenAddress",
          "type": "address"
        },
        {
          "internalType": "address",
          "name": "receiver",
          "type": "address"
        },
        {
          "internalType": "uint256",
          "name": "amount",
          "type": "uint256"
        },
        {
          "internalType": "string",
          "name": "symbol",
          "type": "string"
        },
        {
          "internalType": "bytes32",
          "name": "blockHash",
          "type": "bytes32"
        },
        {
          "internalType": "bytes32",
          "name": "transactionHash",
          "type": "bytes32"
        },
        {
          "internalType": "uint32",
          "name": "logIndex",
          "type": "uint32"
        },
        {
          "internalType": "uint8",
          "name": "decimals",
          "type": "uint8"
        },
        {
          "internalType": "uint256",
          "name": "granularity",
          "type": "uint256"
        },
        {
          "internalType": "bytes",
          "name": "userData",
          "type": "bytes"
        }
      ],
      "name": "voteTransactionAt",
      "outputs": [
        {
          "internalType": "bool",
          "name": "",
          "type": "bool"
        }
      ],
      "payable": false,
      "stateMutability": "nonpayable",
      "type": "function"
    },
    {
      "constant": true,
      "inputs": [
        {
          "internalType": "bytes32",
          "name": "transactionId",
          "type": "bytes32"
        }
      ],
      "name": "getTransactionCount",
      "outputs": [
        {
          "internalType": "uint256",
          "name": "",
          "type": "uint256"
        }
      ],
      "payable": false,
      "stateMutability": "view",
      "type": "function"
    },
    {
      "constant": true,
      "inputs": [
        {
          "internalType": "bytes32",
          "name": "transactionId",
          "type": "bytes32"
        }
      ],
      "name": "hasVoted",
      "outputs": [
        {
          "internalType": "bool",
          "name": "",
          "type": "bool"
        }
      ],
      "payable": false,
      "stateMutability": "view",
      "type": "function"
    },
    {
      "constant": true,
      "inputs": [
        {
          "internalType": "bytes32",
          "name": "transactionId",
          "type": "bytes32"
        }
      ],
      "name": "transactionWasProcessed",
      "outputs": [
        {
          "internalType": "bool",
          "name": "",
          "type": "bool"
        }
      ],
      "payable": false,
      "stateMutability": "view",
      "type": "function"
    },
    {
      "constant": true,
      "inputs": [
        {
          "internalType": "address",
          "name": "originalTokenAddress",
          "type": "address"
        },
        {
          "internalType": "address",
          "name": "receiver",
          "type": "address"
        },
        {
          "internalType": "uint256",
          "name": "amount",
          "type": "uint256"
        },
        {
          "internalType": "string",
          "name": "symbol",
          "type": "string"
        },
        {
          "internalType": "bytes32",
          "name": "blockHash",
          "type": "bytes32"
        },
        {
          "internalType": "bytes32",
          "name": "transactionHash",
          "type": "bytes32"
        },
        {
          "internalType": "uint32",
          "name": "logIndex",
          "type": "uint32"
        },
        {
          "internalType": "uint8",
          "name": "decimals",
          "type": "uint8"
        },
        {
          "internalType": "uint256",
          "name": "granularity",
          "type": "uint256"
        }
      ],
      "name": "getTransactionId",
      "outputs": [
        {
          "internalType": "bytes32",
          "name": "",
          "type": "bytes32"
        }
      ],
      "payable": false,
      "stateMutability": "pure",
      "type": "function"
    },
    {
      "constant": false,
      "inputs": [
        {
          "internalType": "address",
          "name": "_newMember",
          "type": "address"
        }
      ],
      "name": "addMember",
      "outputs": [],
      "payable": false,
      "stateMutability": "nonpayable",
      "type": "function"
    },
    {
      "constant": false,
      "inputs": [
        {
          "internalType": "address",
          "name": "_oldMember",
          "type": "address"
        }
      ],
      "name": "removeMember",
      "outputs": [],
      "payable": false,
      "stateMutability": "nonpayable",
      "type": "function"
    },
    {
      "constant": true,
      "inputs": [],
      "name": "getMembers",
      "outputs": [
        {
          "internalType": "address[]",
          "name": "",
          "type": "address[]"
        }
      ],
      "payable": false,
      "stateMutability": "view",
      "type": "function"
    },
    {
      "constant": false,
      "inputs": [
        {
          "internalType": "uint256",
          "name": "_required",
          "type": "uint256"
        }
      ],
      "name": "changeRequirement",
      "outputs": [],
      "payable": false,
      "stateMutability": "nonpayable",
      "type": "function"
    }
  ],
  "bytecode": "0x60806040523480156200001157600080fd5b5060405162001d6e38038062001d6e833981810160405260408110156200003757600080fd5b81019080805160405193929190846401000000008211156200005857600080fd5b9083019060208201858111156200006e57600080fd5b82518660208202830111640100000000821117156200008c57600080fd5b82525081516020918201928201910280838360005b83811015620000bb578181015183820152602001620000a1565b505050509190910160405250602001519150620000e290506001600160e01b03620003a816565b600080546001600160a01b0319166001600160a01b03928316178082556040519216917f8be0079c531659141344cd1fd0a4f28419497f9722a3daafe3b4186f6b6457e0908290a38151818181111580156200013d57508015155b80156200014957508115155b6200019b576040805162461bcd60e51b815260206004820181905260248201527f46656465726174696f6e3a20496e76616c696420726571756972656d656e7473604482015290519081900360640190fd5b603284511115620001de5760405162461bcd60e51b815260040180806020018281038252602b81526020018062001d43602b913960400191505060405180910390fd5b8351620001f3906002906020870190620003ad565b5060005b84518110156200036557600460008683815181106200021257fe5b6020908102919091018101516001600160a01b031682528101919091526040016000205460ff161580156200026e575060006001600160a01b03168582815181106200025a57fe5b60200260200101516001600160a01b031614155b620002c0576040805162461bcd60e51b815260206004820152601b60248201527f46656465726174696f6e3a20496e76616c6964206d656d626572730000000000604482015290519081900360640190fd5b600160046000878481518110620002d357fe5b60200260200101516001600160a01b03166001600160a01b0316815260200190815260200160002060006101000a81548160ff0219169083151502179055508481815181106200031f57fe5b60200260200101516001600160a01b03167f72114e270de66b9d2710ecf140403e5e99b1574767d6a8197bdc8d807a46e7c760405160405180910390a2600101620001f7565b5060038390556040805184815290517fa3f1ee9126a074d9326c682f561767f710e927faa811f7a99829d49dc421797a9181900360200190a1505050506200043e565b335b90565b82805482825590600052602060002090810192821562000405579160200282015b828111156200040557825182546001600160a01b0319166001600160a01b03909116178255602090920191600190910190620003ce565b506200041392915062000417565b5090565b620003aa91905b80821115620004135780546001600160a01b03191681556001016200041e565b6118f5806200044e6000396000f3fe608060405234801561001057600080fd5b50600436106101425760003560e01c80639eab5253116100b8578063c1f0808a1161007c578063c1f0808a1461051d578063ca6d56dc1461053a578063d03e1ee914610560578063dc8452cd14610610578063e78cea9214610618578063f2fde38b1461062057610142565b80639eab525314610448578063a1fb4acb146104a0578063a230c524146104bd578063a93585f0146104e3578063ba51a6df1461050057610142565b8063681fc9211161010a578063681fc921146103d6578063715018a6146103de5780638da5cb5b146103e65780638dd14802146103ee5780638f32d59b146104145780639386775a1461041c57610142565b806309916057146101475780630b1ca49a1461023e5780631b4613cb14610266578063493532a2146102975780635daf08ca1461039d575b600080fd5b61022c600480360361012081101561015e57600080fd5b6001600160a01b03823581169260208101359091169160408201359190810190608081016060820135600160201b81111561019857600080fd5b8201836020820111156101aa57600080fd5b803590602001918460018302840111600160201b831117156101cb57600080fd5b91908080601f0160208091040260200160405190810160405280939291908181526020018383808284376000920191909152509295505082359350505060208101359063ffffffff6040820135169060ff6060820135169060800135610646565b60408051918252519081900360200190f35b6102646004803603602081101561025457600080fd5b50356001600160a01b0316610747565b005b6102836004803603602081101561027c57600080fd5b50356109e3565b604080519115158252519081900360200190f35b61028360048036036101408110156102ae57600080fd5b6001600160a01b03823581169260208101359091169160408201359190810190608081016060820135600160201b8111156102e857600080fd5b8201836020820111156102fa57600080fd5b803590602001918460018302840111600160201b8311171561031b57600080fd5b9193909282359260208101359263ffffffff6040830135169260ff60608401351692608081013592919060c081019060a00135600160201b81111561035f57600080fd5b82018360208201111561037157600080fd5b803590602001918460018302840111600160201b8311171561039257600080fd5b509092509050610a1d565b6103ba600480360360208110156103b357600080fd5b5035610abc565b604080516001600160a01b039092168252519081900360200190f35b61022c610ae3565b610264610ae8565b6103ba610b79565b6102646004803603602081101561040457600080fd5b50356001600160a01b0316610b89565b610283610c7f565b6102836004803603604081101561043257600080fd5b50803590602001356001600160a01b0316610ca3565b610450610cc3565b60408051602080825283518183015283519192839290830191858101910280838360005b8381101561048c578181015183820152602001610474565b505050509050019250505060405180910390f35b61022c600480360360208110156104b657600080fd5b5035610d25565b610283600480360360208110156104d357600080fd5b50356001600160a01b0316610d96565b610283600480360360208110156104f957600080fd5b5035610dab565b6102646004803603602081101561051657600080fd5b5035610dc0565b6102836004803603602081101561053357600080fd5b5035610f09565b6102646004803603602081101561055057600080fd5b50356001600160a01b0316610f1e565b610283600480360361012081101561057757600080fd5b6001600160a01b03823581169260208101359091169160408201359190810190608081016060820135600160201b8111156105b157600080fd5b8201836020820111156105c357600080fd5b803590602001918460018302840111600160201b831117156105e457600080fd5b919350915080359060208101359063ffffffff6040820135169060ff60608201351690608001356110f6565b61022c611161565b6103ba611167565b6102646004803603602081101561063657600080fd5b50356001600160a01b0316611176565b6000898989898989898989604051602001808a6001600160a01b03166001600160a01b031660601b8152601401896001600160a01b03166001600160a01b031660601b815260140188815260200187805190602001908083835b602083106106bf5780518252601f1990920191602091820191016106a0565b6001836020036101000a0380198251168184511680821785525050505050509050018681526020018581526020018463ffffffff1663ffffffff1660e01b81526004018360ff1660ff1660f81b815260010182815260200199505050505050505050506040516020818303038152906040528051906020012090509998505050505050505050565b61074f610c7f565b61078e576040805162461bcd60e51b81526020600482018190526024820152600080516020611879833981519152604482015290519081900360640190fd5b6001600160a01b0381166107e4576040805162461bcd60e51b81526020600482015260186024820152772332b232b930ba34b7b71d1022b6b83a3c9036b2b6b132b960411b604482015290519081900360640190fd5b6001600160a01b03811660009081526004602052604090205460ff1661083b5760405162461bcd60e51b81526004018080602001828103825260218152602001806118066021913960400191505060405180910390fd5b60025460011061087c5760405162461bcd60e51b81526004018080602001828103825260288152602001806118996028913960400191505060405180910390fd5b6003546002546000190110156108c35760405162461bcd60e51b81526004018080602001828103825260318152602001806118486031913960400191505060405180910390fd5b6001600160a01b0381166000908152600460205260408120805460ff191690555b6002546000190181101561099757816001600160a01b03166002828154811061090957fe5b6000918252602090912001546001600160a01b0316141561098f5760028054600019810190811061093657fe5b600091825260209091200154600280546001600160a01b03909216918390811061095c57fe5b9060005260206000200160006101000a8154816001600160a01b0302191690836001600160a01b03160217905550610997565b6001016108e4565b506002805460001901906109ab908261174f565b506040516001600160a01b038216907f270bfc616dd36d5cb6b35aac93e6ef22b089c34e6f6ad6f0892797424840897b90600090a250565b6000818152600560205260408120816109fa6111c9565b6001600160a01b0316815260208101919091526040016000205460ff1692915050565b6000610aab8d8d8d8d8d8080601f016020809104026020016040519081016040528093929190818152602001838380828437600081840152601f19601f820116905080830192505050505050508c8c8c8c8c8c8c8080601f0160208091040260200160405190810160405280939291908181526020018383808284376000920191909152506111cd92505050565b9d9c50505050505050505050505050565b60028181548110610ac957fe5b6000918252602090912001546001600160a01b0316905081565b603281565b610af0610c7f565b610b2f576040805162461bcd60e51b81526020600482018190526024820152600080516020611879833981519152604482015290519081900360640190fd5b600080546040516001600160a01b03909116907f8be0079c531659141344cd1fd0a4f28419497f9722a3daafe3b4186f6b6457e0908390a3600080546001600160a01b0319169055565b6000546001600160a01b03165b90565b610b91610c7f565b610bd0576040805162461bcd60e51b81526020600482018190526024820152600080516020611879833981519152604482015290519081900360640190fd5b6001600160a01b038116610c2b576040805162461bcd60e51b815260206004820152601860248201527f46656465726174696f6e3a20456d707479206272696467650000000000000000604482015290519081900360640190fd5b600180546001600160a01b0383166001600160a01b0319909116811790915560408051918252517f9775531310b2880b61484ed85cbb0b491c8fde3a07f289c63b925517827944979181900360200190a150565b600080546001600160a01b0316610c946111c9565b6001600160a01b031614905090565b600560209081526000928352604080842090915290825290205460ff1681565b60606002805480602002602001604051908101604052809291908181526020018280548015610d1b57602002820191906000526020600020905b81546001600160a01b03168152600190910190602001808311610cfd575b5050505050905090565b600080805b600254811015610d8f5760008481526005602052604081206002805491929184908110610d5357fe5b60009182526020808320909101546001600160a01b0316835282019290925260400190205460ff1615610d87576001820191505b600101610d2a565b5092915050565b60046020526000908152604090205460ff1681565b60009081526006602052604090205460ff1690565b610dc8610c7f565b610e07576040805162461bcd60e51b81526020600482018190526024820152600080516020611879833981519152604482015290519081900360640190fd5b60025481818111801590610e1a57508015155b8015610e2557508115155b610e76576040805162461bcd60e51b815260206004820181905260248201527f46656465726174696f6e3a20496e76616c696420726571756972656d656e7473604482015290519081900360640190fd5b6002831015610ecc576040805162461bcd60e51b815260206004820152601f60248201527f46656465726174696f6e3a205265717569726573206174206c65617374203200604482015290519081900360640190fd5b60038390556040805184815290517fa3f1ee9126a074d9326c682f561767f710e927faa811f7a99829d49dc421797a9181900360200190a1505050565b60066020526000908152604090205460ff1681565b610f26610c7f565b610f65576040805162461bcd60e51b81526020600482018190526024820152600080516020611879833981519152604482015290519081900360640190fd5b6001600160a01b038116610fbb576040805162461bcd60e51b81526020600482015260186024820152772332b232b930ba34b7b71d1022b6b83a3c9036b2b6b132b960411b604482015290519081900360640190fd5b6001600160a01b03811660009081526004602052604090205460ff16156110135760405162461bcd60e51b81526004018080602001828103825260218152602001806118276021913960400191505060405180910390fd5b60025460321161106a576040805162461bcd60e51b815260206004820152601f60248201527f46656465726174696f6e3a204d6178206d656d62657273207265616368656400604482015290519081900360640190fd5b6001600160a01b038116600081815260046020526040808220805460ff1916600190811790915560028054918201815583527f405787fa12a823e0f2b7631cc41b3ba8828b3321ca811111fa75cd3aa3bb5ace0180546001600160a01b03191684179055517f72114e270de66b9d2710ecf140403e5e99b1574767d6a8197bdc8d807a46e7c79190a250565b60006111508b8b8b8b8b8080601f016020809104026020016040519081016040528093929190818152602001838380828437600092018290525060408051602081019091529081528e93508d92508c91508b908b906111cd565b90505b9a9950505050505050505050565b60035481565b6001546001600160a01b031681565b61117e610c7f565b6111bd576040805162461bcd60e51b81526020600482018190526024820152600080516020611879833981519152604482015290519081900360640190fd5b6111c6816116af565b50565b3390565b6000600460006111db6111c9565b6001600160a01b0316815260208101919091526040016000205460ff166112335760405162461bcd60e51b81526004018080602001828103825260228152602001806117976022913960400191505060405180910390fd5b60006112468c8c8c8c8c8c8c8c8c610646565b60008181526006602052604090205490915060ff161561126a576001915050611153565b6000818152600560205260408120906112816111c9565b6001600160a01b0316815260208101919091526040016000205460ff16156112ad576001915050611153565b60008181526005602052604081206001916112c66111c9565b6001600160a01b031681526020810191909152604001600020805460ff191691151591909117905586816112f86111c9565b6001600160a01b03167f4237ab39e8496b350fbe760f4402abe992fc5d7e175824b087182422d347cf8a8f8f8f8f8f8e8e8e60405180896001600160a01b03166001600160a01b03168152602001886001600160a01b03166001600160a01b03168152602001878152602001806020018681526020018563ffffffff1663ffffffff1681526020018460ff1660ff168152602001838152602001828103825287818151815260200191508051906020019080838360005b838110156113c75781810151838201526020016113af565b50505050905090810190601f1680156113f45780820380516001836020036101000a031916815260200191505b50995050505050505050505060405180910390a4600061141382610d25565b9050600354811015801561142e575060028054046001018110155b1561169c5760016006600084815260200190815260200160002060006101000a81548160ff0219169083151502179055506000600160009054906101000a90046001600160a01b03166001600160a01b031663d058ae968f8f8f8f8f8f8f8f8f8f6040518b63ffffffff1660e01b8152600401808b6001600160a01b03166001600160a01b031681526020018a6001600160a01b03166001600160a01b03168152602001898152602001806020018881526020018781526020018663ffffffff1663ffffffff1681526020018560ff1660ff1681526020018481526020018060200183810383528a818151815260200191508051906020019080838360005b8381101561154557818101518382015260200161152d565b50505050905090810190601f1680156115725780820380516001836020036101000a031916815260200191505b50838103825284518152845160209182019186019080838360005b838110156115a557818101518382015260200161158d565b50505050905090810190601f1680156115d25780820380516001836020036101000a031916815260200191505b509c50505050505050505050505050602060405180830381600087803b1580156115fb57600080fd5b505af115801561160f573d6000803e3d6000fd5b505050506040513d602081101561162557600080fd5b50519050806116655760405162461bcd60e51b81526004018080602001828103825260278152602001806117df6027913960400191505060405180910390fd5b60405183907fa74c8847d513feba22a0f0cb38d53081abf97562cdb293926ba243689e7c41ca90600090a260019350505050611153565b5060019c9b505050505050505050505050565b6001600160a01b0381166116f45760405162461bcd60e51b81526004018080602001828103825260268152602001806117b96026913960400191505060405180910390fd5b600080546040516001600160a01b03808516939216917f8be0079c531659141344cd1fd0a4f28419497f9722a3daafe3b4186f6b6457e091a3600080546001600160a01b0319166001600160a01b0392909216919091179055565b81548183558181111561177357600083815260209020611773918101908301611778565b505050565b610b8691905b80821115611792576000815560010161177e565b509056fe46656465726174696f6e3a2043616c6c6572206e6f74206120466564657261746f724f776e61626c653a206e6577206f776e657220697320746865207a65726f206164647265737346656465726174696f6e3a20427269646765206163636570745472616e73666572206572726f7246656465726174696f6e3a204d656d62657220646f65736e27742065786973747346656465726174696f6e3a204d656d62657220616c72656164792065786973747346656465726174696f6e3a2043616e27742068617665206c657373207468616e207265717569726564206d656d626572734f776e61626c653a2063616c6c6572206973206e6f7420746865206f776e657246656465726174696f6e3a2043616e27742072656d6f766520616c6c20746865206d656d62657273a265627a7a72315820a4264e42cee9229d80ac66e01d28519072c67dd4a796c6885371b2d9760ac37464736f6c6343000511003246656465726174696f6e3a204d656d62657273206c6172676572207468616e206d617820616c6c6f776564",
  "source": "pragma solidity ^0.5.0;\n\nimport \"./IBridge.sol\";\nimport \"./zeppelin/ownership/Ownable.sol\";\n\ncontract Federation is Ownable {\n    uint constant public MAX_MEMBER_COUNT = 50;\n    address constant private NULL_ADDRESS = address(0);\n\n    IBridge public bridge;\n    address[] public members;\n    uint public required;\n\n    mapping (address => bool) public isMember;\n    mapping (bytes32 => mapping (address => bool)) public votes;\n    mapping(bytes32 => bool) public processed;\n    // solium-disable-next-line max-len\n    event Voted(address indexed sender, bytes32 indexed transactionId, address originalTokenAddress, address receiver, uint256 amount, string symbol, bytes32 blockHash, bytes32 indexed transactionHash, uint32 logIndex, uint8 decimals, uint256 granularity);\n    event Executed(bytes32 indexed transactionId);\n    event MemberAddition(address indexed member);\n    event MemberRemoval(address indexed member);\n    event RequirementChange(uint required);\n    event BridgeChanged(address bridge);\n\n    modifier onlyMember() {\n        require(isMember[_msgSender()], \"Federation: Caller not a Federator\");\n        _;\n    }\n\n    modifier validRequirement(uint membersCount, uint _required) {\n        // solium-disable-next-line max-len\n        require(_required <= membersCount && _required != 0 && membersCount != 0, \"Federation: Invalid requirements\");\n        _;\n    }\n\n    constructor(address[] memory _members, uint _required) public validRequirement(_members.length, _required) {\n        require(_members.length <= MAX_MEMBER_COUNT, \"Federation: Members larger than max allowed\");\n        members = _members;\n        for (uint i = 0; i < _members.length; i++) {\n            require(!isMember[_members[i]] && _members[i] != NULL_ADDRESS, \"Federation: Invalid members\");\n            isMember[_members[i]] = true;\n            emit MemberAddition(_members[i]);\n        }\n        required = _required;\n        emit RequirementChange(required);\n    }\n\n    function setBridge(address _bridge) external onlyOwner {\n        require(_bridge != NULL_ADDRESS, \"Federation: Empty bridge\");\n        bridge = IBridge(_bridge);\n        emit BridgeChanged(_bridge);\n    }\n\n    function voteTransaction(\n        address originalTokenAddress,\n        address receiver,\n        uint256 amount,\n        string calldata symbol,\n        bytes32 blockHash,\n        bytes32 transactionHash,\n        uint32 logIndex,\n        uint8 decimals,\n        uint256 granularity)\n    external returns(bool)\n    {\n        return _voteTransaction(originalTokenAddress, receiver, amount, symbol, blockHash, transactionHash, logIndex, decimals, granularity, \"\");\n    }\n\n    function voteTransactionAt(\n        address originalTokenAddress,\n        address receiver,\n        uint256 amount,\n        string calldata symbol,\n        bytes32 blockHash,\n        bytes32 transactionHash,\n        uint32 logIndex,\n        uint8 decimals,\n        uint256 granularity,\n        bytes calldata userData)\n    external returns(bool)\n    {\n        return _voteTransaction(originalTokenAddress, receiver, amount, symbol, blockHash, transactionHash, logIndex, decimals, granularity, userData);\n    }\n\n    function _voteTransaction(\n        address originalTokenAddress,\n        address receiver,\n        uint256 amount,\n        string memory symbol,\n        bytes32 blockHash,\n        bytes32 transactionHash,\n        uint32 logIndex,\n        uint8 decimals,\n        uint256 granularity,\n        bytes memory userData\n    ) internal onlyMember returns(bool) {\n        // solium-disable-next-line max-len\n        bytes32 transactionId = getTransactionId(originalTokenAddress, receiver, amount, symbol, blockHash, transactionHash, logIndex, decimals, granularity);\n        if (processed[transactionId])\n            return true;\n\n        if (votes[transactionId][_msgSender()])\n            return true;\n\n        votes[transactionId][_msgSender()] = true;\n        // solium-disable-next-line max-len\n        emit Voted(_msgSender(), transactionId, originalTokenAddress, receiver, amount, symbol, blockHash, transactionHash, logIndex, decimals, granularity);\n\n        uint transactionCount = getTransactionCount(transactionId);\n        if (transactionCount >= required && transactionCount >= members.length / 2 + 1) {\n            processed[transactionId] = true;\n            bool acceptTransfer = bridge.acceptTransferAt(\n                originalTokenAddress,\n                receiver,\n                amount,\n                symbol,\n                blockHash,\n                transactionHash,\n                logIndex,\n                decimals,\n                granularity,\n                userData\n            );\n            require(acceptTransfer, \"Federation: Bridge acceptTransfer error\");\n            emit Executed(transactionId);\n            return true;\n        }\n\n        return true;\n    }\n\n    function getTransactionCount(bytes32 transactionId) public view returns(uint) {\n        uint count = 0;\n        for (uint i = 0; i < members.length; i++) {\n            if (votes[transactionId][members[i]])\n                count += 1;\n        }\n        return count;\n    }\n\n    function hasVoted(bytes32 transactionId) external view returns(bool)\n    {\n        return votes[transactionId][_msgSender()];\n    }\n\n    function transactionWasProcessed(bytes32 transactionId) external view returns(bool)\n    {\n        return processed[transactionId];\n    }\n\n    function getTransactionId(\n        address originalTokenAddress,\n        address receiver,\n        uint256 amount,\n        string memory symbol,\n        bytes32 blockHash,\n        bytes32 transactionHash,\n        uint32 logIndex,\n        uint8 decimals,\n        uint256 granularity)\n    public pure returns(bytes32)\n    {\n        // solium-disable-next-line max-len\n        return keccak256(abi.encodePacked(originalTokenAddress, receiver, amount, symbol, blockHash, transactionHash, logIndex, decimals, granularity));\n    }\n\n    function addMember(address _newMember) external onlyOwner\n    {\n        require(_newMember != NULL_ADDRESS, \"Federation: Empty member\");\n        require(!isMember[_newMember], \"Federation: Member already exists\");\n        require(members.length < MAX_MEMBER_COUNT, \"Federation: Max members reached\");\n\n        isMember[_newMember] = true;\n        members.push(_newMember);\n        emit MemberAddition(_newMember);\n    }\n\n    function removeMember(address _oldMember) external onlyOwner\n    {\n        require(_oldMember != NULL_ADDRESS, \"Federation: Empty member\");\n        require(isMember[_oldMember], \"Federation: Member doesn't exists\");\n        require(members.length > 1, \"Federation: Can't remove all the members\");\n        require(members.length - 1 >= required, \"Federation: Can't have less than required members\");\n\n        isMember[_oldMember] = false;\n        for (uint i = 0; i < members.length - 1; i++) {\n            if (members[i] == _oldMember) {\n                members[i] = members[members.length - 1];\n                break;\n            }\n        }\n        members.length -= 1;\n        emit MemberRemoval(_oldMember);\n    }\n\n    function getMembers() external view returns (address[] memory)\n    {\n        return members;\n    }\n\n    function changeRequirement(uint _required) external onlyOwner validRequirement(members.length, _required)\n    {\n        require(_required >= 2, \"Federation: Requires at least 2\");\n        required = _required;\n        emit RequirementChange(_required);\n    }\n\n}\n",
  "sourcePath": "/Users/pooh/sovryn/deploy_bridge/MAIN-Restore-RSK-ETH/Bridge-SC/sovryn-token-bridge/bridge/contracts/Federation.sol",
  "compiler": {
    "name": "solc",
    "version": "0.5.17+commit.d19bba13.Emscripten.clang"
  },
  "schemaVersion": "3.3.4",
  "updatedAt": "2021-05-23T04:34:16.895Z",
  "networkType": "ethereum",
  "devdoc": {
    "methods": {
      "isOwner()": {
        "details": "Returns true if the caller is the current owner."
      },
      "owner()": {
        "details": "Returns the address of the current owner."
      },
      "renounceOwnership()": {
        "details": "Leaves the contract without owner. It will not be possible to call `onlyOwner` functions anymore. Can only be called by the current owner.     * NOTE: Renouncing ownership will leave the contract without an owner, thereby removing any functionality that is only available to the owner."
      },
      "transferOwnership(address)": {
        "details": "Transfers ownership of the contract to a new account (`newOwner`). Can only be called by the current owner."
      }
    }
  },
  "userdoc": {
    "methods": {}
  }
}