{
  "contractName": "mockReceiveTokensCall",
  "abi": [
    {
      "inputs": [
        {
          "internalType": "address",
          "name": "_bridge",
          "type": "address"
        }
      ],
      "payable": false,
      "stateMutability": "nonpayable",
      "type": "constructor"
    },
    {
      "constant": true,
      "inputs": [],
      "name": "bridge",
      "outputs": [
        {
          "internalType": "address",
          "name": "",
          "type": "address"
        }
      ],
      "payable": false,
      "stateMutability": "view",
      "type": "function"
    },
    {
      "constant": false,
      "inputs": [
        {
          "internalType": "address",
          "name": "tokenToUse",
          "type": "address"
        },
        {
          "internalType": "uint256",
          "name": "amount",
          "type": "uint256"
        }
      ],
      "name": "callReceiveTokens",
      "outputs": [
        {
          "internalType": "bool",
          "name": "",
          "type": "bool"
        }
      ],
      "payable": false,
      "stateMutability": "nonpayable",
      "type": "function"
    }
  ],
  "bytecode": "0x608060405234801561001057600080fd5b506040516101d13803806101d18339818101604052602081101561003357600080fd5b5051600080546001600160a01b039092166001600160a01b031990921691909117905561016c806100656000396000f3fe608060405234801561001057600080fd5b50600436106100365760003560e01c80634193fdad1461003b578063e78cea921461007b575b600080fd5b6100676004803603604081101561005157600080fd5b506001600160a01b03813516906020013561009f565b604080519115158252519081900360200190f35b610083610128565b604080516001600160a01b039092168252519081900360200190f35b6000805460408051630357291360e41b81526001600160a01b0386811660048301526024820186905291519190921691633572913091604480830192602092919082900301818787803b1580156100f557600080fd5b505af1158015610109573d6000803e3d6000fd5b505050506040513d602081101561011f57600080fd5b50519392505050565b6000546001600160a01b03168156fea265627a7a72315820e7d7f43c6b134b79893a179574438376ae60c30e1f9af7854070915efcf8af3c64736f6c63430005110032",
  "source": "pragma solidity ^0.5.0;\n\nimport \"../IBridge.sol\";\n\ncontract mockReceiveTokensCall {\n    address public bridge;\n\n    constructor(address _bridge) public {\n        bridge = _bridge;\n    }\n\n    function callReceiveTokens(address tokenToUse, uint256 amount) public returns(bool) {\n        return IBridge(bridge).receiveTokens(tokenToUse, amount);\n    }\n}",
  "sourcePath": "/Users/pooh/sovryn/deploy_bridge/MAIN-ETH-RSK/Bridge-SC/sovryn-token-bridge/bridge/contracts/test/mockReceiveTokensCall.sol",
  "compiler": {
    "name": "solc",
    "version": "0.5.17+commit.d19bba13.Emscripten.clang"
  },
  "schemaVersion": "3.3.4",
  "updatedAt": "2021-05-22T15:19:19.026Z",
  "devdoc": {
    "methods": {}
  },
  "userdoc": {
    "methods": {}
  }
}