{
  "contractName": "mockReceiveTokensCall",
  "abi": [
    {
      "inputs": [
        {
          "internalType": "address",
          "name": "_bridge",
          "type": "address"
        }
      ],
      "payable": false,
      "stateMutability": "nonpayable",
      "type": "constructor"
    },
    {
      "constant": true,
      "inputs": [],
      "name": "bridge",
      "outputs": [
        {
          "internalType": "address",
          "name": "",
          "type": "address"
        }
      ],
      "payable": false,
      "stateMutability": "view",
      "type": "function"
    },
    {
      "constant": false,
      "inputs": [
        {
          "internalType": "address",
          "name": "tokenToUse",
          "type": "address"
        },
        {
          "internalType": "uint256",
          "name": "amount",
          "type": "uint256"
        }
      ],
      "name": "callReceiveTokens",
      "outputs": [
        {
          "internalType": "bool",
          "name": "",
          "type": "bool"
        }
      ],
      "payable": false,
      "stateMutability": "nonpayable",
      "type": "function"
    }
  ],
  "bytecode": "0x608060405234801561001057600080fd5b506040516102c63803806102c68339818101604052602081101561003357600080fd5b8101908080519060200190929190505050806000806101000a81548173ffffffffffffffffffffffffffffffffffffffff021916908373ffffffffffffffffffffffffffffffffffffffff16021790555050610232806100946000396000f3fe608060405234801561001057600080fd5b50600436106100365760003560e01c80634193fdad1461003b578063e78cea92146100a1575b600080fd5b6100876004803603604081101561005157600080fd5b81019080803573ffffffffffffffffffffffffffffffffffffffff169060200190929190803590602001909291905050506100eb565b604051808215151515815260200191505060405180910390f35b6100a96101d8565b604051808273ffffffffffffffffffffffffffffffffffffffff1673ffffffffffffffffffffffffffffffffffffffff16815260200191505060405180910390f35b60008060009054906101000a900473ffffffffffffffffffffffffffffffffffffffff1673ffffffffffffffffffffffffffffffffffffffff16633572913084846040518363ffffffff1660e01b8152600401808373ffffffffffffffffffffffffffffffffffffffff1673ffffffffffffffffffffffffffffffffffffffff16815260200182815260200192505050602060405180830381600087803b15801561019557600080fd5b505af11580156101a9573d6000803e3d6000fd5b505050506040513d60208110156101bf57600080fd5b8101908080519060200190929190505050905092915050565b6000809054906101000a900473ffffffffffffffffffffffffffffffffffffffff168156fea265627a7a7231582068ed5bd988375279093891afb429ec2724a894e0e7bf49f5c8346cdb498c01f064736f6c63430005110032",
  "source": "pragma solidity ^0.5.0;\n\nimport \"../IBridge.sol\";\n\ncontract mockReceiveTokensCall {\n    address public bridge;\n\n    constructor(address _bridge) public {\n        bridge = _bridge;\n    }\n\n    function callReceiveTokens(address tokenToUse, uint256 amount) public returns(bool) {\n        return IBridge(bridge).receiveTokens(tokenToUse, amount);\n    }\n}",
  "sourcePath": "/home/dmitriy/Code/Bridge-SC/sovryn-token-bridge/bridge/contracts/test/mockReceiveTokensCall.sol",
  "compiler": {
    "name": "solc",
    "version": "0.5.17+commit.d19bba13.Emscripten.clang"
  },
  "schemaVersion": "3.3.3",
  "updatedAt": "2021-04-08T08:35:49.257Z",
  "devdoc": {
    "methods": {}
  },
  "userdoc": {
    "methods": {}
  }
}