{
  "contractName": "mockERC777Recipient",
  "abi": [
    {
      "inputs": [],
      "payable": false,
      "stateMutability": "nonpayable",
      "type": "constructor"
    },
    {
      "anonymous": false,
      "inputs": [
        {
          "indexed": false,
          "internalType": "address",
          "name": "operator",
          "type": "address"
        },
        {
          "indexed": false,
          "internalType": "address",
          "name": "from",
          "type": "address"
        },
        {
          "indexed": false,
          "internalType": "address",
          "name": "to",
          "type": "address"
        },
        {
          "indexed": false,
          "internalType": "uint256",
          "name": "amount",
          "type": "uint256"
        },
        {
          "indexed": false,
          "internalType": "bytes",
          "name": "userData",
          "type": "bytes"
        },
        {
          "indexed": false,
          "internalType": "bytes",
          "name": "operatorData",
          "type": "bytes"
        }
      ],
      "name": "Success",
      "type": "event"
    },
    {
      "constant": false,
      "inputs": [
        {
          "internalType": "address",
          "name": "operator",
          "type": "address"
        },
        {
          "internalType": "address",
          "name": "from",
          "type": "address"
        },
        {
          "internalType": "address",
          "name": "to",
          "type": "address"
        },
        {
          "internalType": "uint256",
          "name": "amount",
          "type": "uint256"
        },
        {
          "internalType": "bytes",
          "name": "userData",
          "type": "bytes"
        },
        {
          "internalType": "bytes",
          "name": "operatorData",
          "type": "bytes"
        }
      ],
      "name": "tokensReceived",
      "outputs": [],
      "payable": false,
      "stateMutability": "nonpayable",
      "type": "function"
    }
  ],
  "bytecode": "0x608060405234801561001057600080fd5b50731820a4b7618bde71dce8cdc73aab6c95905fad2473ffffffffffffffffffffffffffffffffffffffff166329965a1d3060405180807f455243373737546f6b656e73526563697069656e74000000000000000000000081525060150190506040518091039020306040518463ffffffff1660e01b8152600401808473ffffffffffffffffffffffffffffffffffffffff1673ffffffffffffffffffffffffffffffffffffffff1681526020018381526020018273ffffffffffffffffffffffffffffffffffffffff1673ffffffffffffffffffffffffffffffffffffffff1681526020019350505050600060405180830381600087803b15801561011557600080fd5b505af1158015610129573d6000803e3d6000fd5b505050506102e18061013c6000396000f3fe608060405234801561001057600080fd5b506004361061002a5760003560e01c806223de291461002f575b600080fd5b610165600480360360c081101561004557600080fd5b81019080803573ffffffffffffffffffffffffffffffffffffffff169060200190929190803573ffffffffffffffffffffffffffffffffffffffff169060200190929190803573ffffffffffffffffffffffffffffffffffffffff16906020019092919080359060200190929190803590602001906401000000008111156100cc57600080fd5b8201836020820111156100de57600080fd5b8035906020019184600183028401116401000000008311171561010057600080fd5b90919293919293908035906020019064010000000081111561012157600080fd5b82018360208201111561013357600080fd5b8035906020019184600183028401116401000000008311171561015557600080fd5b9091929391929390505050610167565b005b7fffc63a8d7823d9ade562a0a1d82b180acdb8415ff73f390c59f5d40f513328bc8888888888888888604051808973ffffffffffffffffffffffffffffffffffffffff1673ffffffffffffffffffffffffffffffffffffffff1681526020018873ffffffffffffffffffffffffffffffffffffffff1673ffffffffffffffffffffffffffffffffffffffff1681526020018773ffffffffffffffffffffffffffffffffffffffff1673ffffffffffffffffffffffffffffffffffffffff16815260200186815260200180602001806020018381038352878782818152602001925080828437600081840152601f19601f8201169050808301925050508381038252858582818152602001925080828437600081840152601f19601f8201169050808301925050509a505050505050505050505060405180910390a1505050505050505056fea265627a7a72315820d2dca56b9fa8d965bdb9ff2ada1decd2c21aeda81d2c81d2f62569db71bd2b8264736f6c63430005110032",
  "source": "pragma solidity ^0.5.0;\n\nimport \"../zeppelin/token/ERC777/IERC777Recipient.sol\";\nimport \"../zeppelin/introspection/IERC1820Registry.sol\";\n\ncontract mockERC777Recipient is IERC777Recipient {\n    IERC1820Registry constant private _erc1820 = IERC1820Registry(0x1820a4B7618BdE71Dce8cdc73aAB6C95905faD24);\n\n    constructor() public {\n        _erc1820.setInterfaceImplementer(address(this), keccak256(\"ERC777TokensRecipient\"), address(this));\n    }\n\n    event Success(\n    address operator,\n    address from,\n    address to,\n    uint amount,\n    bytes userData,\n    bytes operatorData);\n\n    /**\n     * ERC-677's only method implementation\n     * See https://github.com/ethereum/EIPs/issues/677 for details\n     */\n    function tokensReceived(\n        address operator,\n        address from,\n        address to,\n        uint amount,\n        bytes calldata userData,\n        bytes calldata operatorData\n    ) external {\n        emit Success(operator, from, to, amount, userData, operatorData);\n    }\n}",
  "sourcePath": "/Users/pooh/sovryn/deploy_bridge/MAIN-Prefix-RSK-ETH/Bridge-SC/sovryn-token-bridge/bridge/contracts/test/mockERC777Recipient.sol",
  "compiler": {
    "name": "solc",
    "version": "0.5.17+commit.d19bba13.Emscripten.clang"
  },
  "schemaVersion": "3.2.4",
  "updatedAt": "2021-04-11T06:17:30.043Z",
  "devdoc": {
    "methods": {}
  },
  "userdoc": {
    "methods": {
      "tokensReceived(address,address,address,uint256,bytes,bytes)": {
        "notice": "ERC-677's only method implementation See https://github.com/ethereum/EIPs/issues/677 for details"
      }
    }
  }
}