{
  "contractName": "mockERC677Receiver",
  "abi": [
    {
      "anonymous": false,
      "inputs": [
        {
          "indexed": false,
          "internalType": "address",
          "name": "_sender",
          "type": "address"
        },
        {
          "indexed": false,
          "internalType": "uint256",
          "name": "_value",
          "type": "uint256"
        },
        {
          "indexed": false,
          "internalType": "bytes",
          "name": "_data",
          "type": "bytes"
        }
      ],
      "name": "Success",
      "type": "event"
    },
    {
      "constant": false,
      "inputs": [
        {
          "internalType": "address",
          "name": "_sender",
          "type": "address"
        },
        {
          "internalType": "uint256",
          "name": "_value",
          "type": "uint256"
        },
        {
          "internalType": "bytes",
          "name": "_data",
          "type": "bytes"
        }
      ],
      "name": "onTokenTransfer",
      "outputs": [],
      "payable": false,
      "stateMutability": "nonpayable",
      "type": "function"
    }
  ],
  "bytecode": "0x608060405234801561001057600080fd5b50610227806100206000396000f3fe608060405234801561001057600080fd5b506004361061002b5760003560e01c8063a4c0ed3614610030575b600080fd5b6101136004803603606081101561004657600080fd5b81019080803573ffffffffffffffffffffffffffffffffffffffff169060200190929190803590602001909291908035906020019064010000000081111561008d57600080fd5b82018360208201111561009f57600080fd5b803590602001918460018302840111640100000000831117156100c157600080fd5b91908080601f016020809104026020016040519081016040528093929190818152602001838380828437600081840152601f19601f820116905080830192505050505050509192919290505050610115565b005b7f1e0b80de8d13bab81e75e94d7bf048b504d9e18daa6c4c0a86cc1f96c477825a838383604051808473ffffffffffffffffffffffffffffffffffffffff1673ffffffffffffffffffffffffffffffffffffffff16815260200183815260200180602001828103825283818151815260200191508051906020019080838360005b838110156101b1578082015181840152602081019050610196565b50505050905090810190601f1680156101de5780820380516001836020036101000a031916815260200191505b5094505050505060405180910390a150505056fea265627a7a723158209847f8d108ff6e59f942caa082a1a06e89e8f328d5b8500d638eb85d22aea63064736f6c63430005110032",
  "source": "pragma solidity ^0.5.0;\n\nimport \"../zeppelin/token/ERC20/ERC20Detailed.sol\";\nimport \"../zeppelin/token/ERC20/ERC20.sol\";\nimport \"../IERC677Receiver.sol\";\n\ncontract mockERC677Receiver is IERC677Receiver {\n    event Success(address _sender, uint _value, bytes _data);\n    /**\n     * ERC-677's only method implementation\n     * See https://github.com/ethereum/EIPs/issues/677 for details\n     */\n    function onTokenTransfer(address _sender, uint _value, bytes memory _data) public {\n        emit Success(_sender, _value, _data);\n    }\n}",
  "sourcePath": "/Users/pooh/sovryn/deploy_bridge/MAIN-Restore-RSK-ETH/Bridge-SC/sovryn-token-bridge/bridge/contracts/test/mockERC677Reciever.sol",
  "compiler": {
    "name": "solc",
    "version": "0.5.17+commit.d19bba13.Emscripten.clang"
  },
  "schemaVersion": "3.2.4",
  "updatedAt": "2021-04-27T19:12:41.393Z",
  "devdoc": {
    "methods": {}
  },
  "userdoc": {
    "methods": {
      "onTokenTransfer(address,uint256,bytes)": {
        "notice": "ERC-677's only method implementation See https://github.com/ethereum/EIPs/issues/677 for details"
      }
    }
  }
}