{
  "contractName": "ReentrancyGuard",
  "abi": [
    {
      "constant": false,
      "inputs": [],
      "name": "initialize",
      "outputs": [],
      "payable": false,
      "stateMutability": "nonpayable",
      "type": "function"
    }
  ],
  "bytecode": "0x608060405234801561001057600080fd5b506101af806100206000396000f3fe608060405234801561001057600080fd5b506004361061002b5760003560e01c80638129fc1c14610030575b600080fd5b61003861003a565b005b600060019054906101000a900460ff16806100595750610058610141565b5b8061007057506000809054906101000a900460ff16155b6100c5576040517f08c379a00000000000000000000000000000000000000000000000000000000081526004018080602001828103825260288152602001806101536028913960400191505060405180910390fd5b60008060019054906101000a900460ff161590508015610115576001600060016101000a81548160ff02191690831515021790555060016000806101000a81548160ff0219169083151502179055505b6001603381905550801561013e5760008060016101000a81548160ff0219169083151502179055505b50565b600080303b9050600081149150509056fe436f6e747261637420696e7374616e636520697320616c726561647920696e697469616c697a6564a265627a7a72315820c2d02ebd09c5f4f7f1ee95fc0eed9a1ce30bf0eba26b1a2b7b1816dec9f5f6ef64736f6c63430005110032",
  "source": "pragma solidity ^0.5.2;\n\nimport \"../Initializable.sol\";\n\n/**\n * @title Helps contracts guard against reentrancy attacks.\n * @author Remco Bloemen <remco@2π.com>, Eenae <alexey@mixbytes.io>\n * @dev If you mark a function `nonReentrant`, you should also\n * mark it `external`.\n */\ncontract ReentrancyGuard is Initializable {\n    /// @dev counter to allow mutex lock with only one SSTORE operation\n    uint256 private _guardCounter;\n\n    function initialize() public initializer {\n        // The counter starts at one to prevent changing it from zero to a non-zero\n        // value, which is a more expensive operation.\n        _guardCounter = 1;\n    }\n\n    /**\n     * @dev Prevents a contract from calling itself, directly or indirectly.\n     * Calling a `nonReentrant` function from another `nonReentrant`\n     * function is not supported. It is possible to prevent this from happening\n     * by making the `nonReentrant` function external, and make it call a\n     * `private` function that does the actual work.\n     */\n    modifier nonReentrant() {\n        _guardCounter += 1;\n        uint256 localCounter = _guardCounter;\n        _;\n        require(localCounter == _guardCounter, \"ReentrancyGuard: no reentrant allowed\");\n    }\n}",
  "sourcePath": "/Users/pooh/sovryn/deploy_bridge/BSC-RSK-Prefix/Bridge-SC/sovryn-token-bridge/bridge/contracts/zeppelin/upgradable/utils/ReentrancyGuard.sol",
  "compiler": {
    "name": "solc",
    "version": "0.5.17+commit.d19bba13.Emscripten.clang"
  },
  "schemaVersion": "3.2.4",
  "updatedAt": "2021-04-18T08:37:15.321Z",
  "devdoc": {
    "author": "Remco Bloemen <remco@2π.com>, Eenae <alexey@mixbytes.io>",
    "details": "If you mark a function `nonReentrant`, you should also mark it `external`.",
    "methods": {},
    "title": "Helps contracts guard against reentrancy attacks."
  },
  "userdoc": {
    "methods": {}
  }
}