{
  "contractName": "SideToken",
  "abi": [
    {
      "inputs": [
        {
          "internalType": "string",
          "name": "_tokenName",
          "type": "string"
        },
        {
          "internalType": "string",
          "name": "_tokenSymbol",
          "type": "string"
        },
        {
          "internalType": "address",
          "name": "_minterAddr",
          "type": "address"
        },
        {
          "internalType": "uint256",
          "name": "_newGranularity",
          "type": "uint256"
        }
      ],
      "payable": false,
      "stateMutability": "nonpayable",
      "type": "constructor"
    },
    {
      "anonymous": false,
      "inputs": [
        {
          "indexed": true,
          "internalType": "address",
          "name": "owner",
          "type": "address"
        },
        {
          "indexed": true,
          "internalType": "address",
          "name": "spender",
          "type": "address"
        },
        {
          "indexed": false,
          "internalType": "uint256",
          "name": "value",
          "type": "uint256"
        }
      ],
      "name": "Approval",
      "type": "event"
    },
    {
      "anonymous": false,
      "inputs": [
        {
          "indexed": true,
          "internalType": "address",
          "name": "operator",
          "type": "address"
        },
        {
          "indexed": true,
          "internalType": "address",
          "name": "tokenHolder",
          "type": "address"
        }
      ],
      "name": "AuthorizedOperator",
      "type": "event"
    },
    {
      "anonymous": false,
      "inputs": [
        {
          "indexed": true,
          "internalType": "address",
          "name": "operator",
          "type": "address"
        },
        {
          "indexed": true,
          "internalType": "address",
          "name": "from",
          "type": "address"
        },
        {
          "indexed": false,
          "internalType": "uint256",
          "name": "amount",
          "type": "uint256"
        },
        {
          "indexed": false,
          "internalType": "bytes",
          "name": "data",
          "type": "bytes"
        },
        {
          "indexed": false,
          "internalType": "bytes",
          "name": "operatorData",
          "type": "bytes"
        }
      ],
      "name": "Burned",
      "type": "event"
    },
    {
      "anonymous": false,
      "inputs": [
        {
          "indexed": true,
          "internalType": "address",
          "name": "operator",
          "type": "address"
        },
        {
          "indexed": true,
          "internalType": "address",
          "name": "to",
          "type": "address"
        },
        {
          "indexed": false,
          "internalType": "uint256",
          "name": "amount",
          "type": "uint256"
        },
        {
          "indexed": false,
          "internalType": "bytes",
          "name": "data",
          "type": "bytes"
        },
        {
          "indexed": false,
          "internalType": "bytes",
          "name": "operatorData",
          "type": "bytes"
        }
      ],
      "name": "Minted",
      "type": "event"
    },
    {
      "anonymous": false,
      "inputs": [
        {
          "indexed": true,
          "internalType": "address",
          "name": "operator",
          "type": "address"
        },
        {
          "indexed": true,
          "internalType": "address",
          "name": "tokenHolder",
          "type": "address"
        }
      ],
      "name": "RevokedOperator",
      "type": "event"
    },
    {
      "anonymous": false,
      "inputs": [
        {
          "indexed": true,
          "internalType": "address",
          "name": "operator",
          "type": "address"
        },
        {
          "indexed": true,
          "internalType": "address",
          "name": "from",
          "type": "address"
        },
        {
          "indexed": true,
          "internalType": "address",
          "name": "to",
          "type": "address"
        },
        {
          "indexed": false,
          "internalType": "uint256",
          "name": "amount",
          "type": "uint256"
        },
        {
          "indexed": false,
          "internalType": "bytes",
          "name": "data",
          "type": "bytes"
        },
        {
          "indexed": false,
          "internalType": "bytes",
          "name": "operatorData",
          "type": "bytes"
        }
      ],
      "name": "Sent",
      "type": "event"
    },
    {
      "anonymous": false,
      "inputs": [
        {
          "indexed": false,
          "internalType": "address",
          "name": "",
          "type": "address"
        },
        {
          "indexed": false,
          "internalType": "address",
          "name": "",
          "type": "address"
        },
        {
          "indexed": false,
          "internalType": "uint256",
          "name": "",
          "type": "uint256"
        },
        {
          "indexed": false,
          "internalType": "bytes",
          "name": "",
          "type": "bytes"
        }
      ],
      "name": "Transfer",
      "type": "event"
    },
    {
      "anonymous": false,
      "inputs": [
        {
          "indexed": true,
          "internalType": "address",
          "name": "from",
          "type": "address"
        },
        {
          "indexed": true,
          "internalType": "address",
          "name": "to",
          "type": "address"
        },
        {
          "indexed": false,
          "internalType": "uint256",
          "name": "value",
          "type": "uint256"
        }
      ],
      "name": "Transfer",
      "type": "event"
    },
    {
      "constant": true,
      "inputs": [
        {
          "internalType": "address",
          "name": "holder",
          "type": "address"
        },
        {
          "internalType": "address",
          "name": "spender",
          "type": "address"
        }
      ],
      "name": "allowance",
      "outputs": [
        {
          "internalType": "uint256",
          "name": "",
          "type": "uint256"
        }
      ],
      "payable": false,
      "stateMutability": "view",
      "type": "function"
    },
    {
      "constant": false,
      "inputs": [
        {
          "internalType": "address",
          "name": "spender",
          "type": "address"
        },
        {
          "internalType": "uint256",
          "name": "value",
          "type": "uint256"
        }
      ],
      "name": "approve",
      "outputs": [
        {
          "internalType": "bool",
          "name": "",
          "type": "bool"
        }
      ],
      "payable": false,
      "stateMutability": "nonpayable",
      "type": "function"
    },
    {
      "constant": false,
      "inputs": [
        {
          "internalType": "address",
          "name": "operator",
          "type": "address"
        }
      ],
      "name": "authorizeOperator",
      "outputs": [],
      "payable": false,
      "stateMutability": "nonpayable",
      "type": "function"
    },
    {
      "constant": true,
      "inputs": [
        {
          "internalType": "address",
          "name": "tokenHolder",
          "type": "address"
        }
      ],
      "name": "balanceOf",
      "outputs": [
        {
          "internalType": "uint256",
          "name": "",
          "type": "uint256"
        }
      ],
      "payable": false,
      "stateMutability": "view",
      "type": "function"
    },
    {
      "constant": false,
      "inputs": [
        {
          "internalType": "uint256",
          "name": "amount",
          "type": "uint256"
        },
        {
          "internalType": "bytes",
          "name": "data",
          "type": "bytes"
        }
      ],
      "name": "burn",
      "outputs": [],
      "payable": false,
      "stateMutability": "nonpayable",
      "type": "function"
    },
    {
      "constant": true,
      "inputs": [],
      "name": "decimals",
      "outputs": [
        {
          "internalType": "uint8",
          "name": "",
          "type": "uint8"
        }
      ],
      "payable": false,
      "stateMutability": "pure",
      "type": "function"
    },
    {
      "constant": true,
      "inputs": [],
      "name": "defaultOperators",
      "outputs": [
        {
          "internalType": "address[]",
          "name": "",
          "type": "address[]"
        }
      ],
      "payable": false,
      "stateMutability": "view",
      "type": "function"
    },
    {
      "constant": true,
      "inputs": [
        {
          "internalType": "address",
          "name": "operator",
          "type": "address"
        },
        {
          "internalType": "address",
          "name": "tokenHolder",
          "type": "address"
        }
      ],
      "name": "isOperatorFor",
      "outputs": [
        {
          "internalType": "bool",
          "name": "",
          "type": "bool"
        }
      ],
      "payable": false,
      "stateMutability": "view",
      "type": "function"
    },
    {
      "constant": true,
      "inputs": [],
      "name": "minter",
      "outputs": [
        {
          "internalType": "address",
          "name": "",
          "type": "address"
        }
      ],
      "payable": false,
      "stateMutability": "view",
      "type": "function"
    },
    {
      "constant": true,
      "inputs": [],
      "name": "name",
      "outputs": [
        {
          "internalType": "string",
          "name": "",
          "type": "string"
        }
      ],
      "payable": false,
      "stateMutability": "view",
      "type": "function"
    },
    {
      "constant": false,
      "inputs": [
        {
          "internalType": "address",
          "name": "account",
          "type": "address"
        },
        {
          "internalType": "uint256",
          "name": "amount",
          "type": "uint256"
        },
        {
          "internalType": "bytes",
          "name": "data",
          "type": "bytes"
        },
        {
          "internalType": "bytes",
          "name": "operatorData",
          "type": "bytes"
        }
      ],
      "name": "operatorBurn",
      "outputs": [],
      "payable": false,
      "stateMutability": "nonpayable",
      "type": "function"
    },
    {
      "constant": false,
      "inputs": [
        {
          "internalType": "address",
          "name": "sender",
          "type": "address"
        },
        {
          "internalType": "address",
          "name": "recipient",
          "type": "address"
        },
        {
          "internalType": "uint256",
          "name": "amount",
          "type": "uint256"
        },
        {
          "internalType": "bytes",
          "name": "data",
          "type": "bytes"
        },
        {
          "internalType": "bytes",
          "name": "operatorData",
          "type": "bytes"
        }
      ],
      "name": "operatorSend",
      "outputs": [],
      "payable": false,
      "stateMutability": "nonpayable",
      "type": "function"
    },
    {
      "constant": false,
      "inputs": [
        {
          "internalType": "address",
          "name": "operator",
          "type": "address"
        }
      ],
      "name": "revokeOperator",
      "outputs": [],
      "payable": false,
      "stateMutability": "nonpayable",
      "type": "function"
    },
    {
      "constant": false,
      "inputs": [
        {
          "internalType": "address",
          "name": "recipient",
          "type": "address"
        },
        {
          "internalType": "uint256",
          "name": "amount",
          "type": "uint256"
        },
        {
          "internalType": "bytes",
          "name": "data",
          "type": "bytes"
        }
      ],
      "name": "send",
      "outputs": [],
      "payable": false,
      "stateMutability": "nonpayable",
      "type": "function"
    },
    {
      "constant": true,
      "inputs": [],
      "name": "symbol",
      "outputs": [
        {
          "internalType": "string",
          "name": "",
          "type": "string"
        }
      ],
      "payable": false,
      "stateMutability": "view",
      "type": "function"
    },
    {
      "constant": true,
      "inputs": [],
      "name": "totalSupply",
      "outputs": [
        {
          "internalType": "uint256",
          "name": "",
          "type": "uint256"
        }
      ],
      "payable": false,
      "stateMutability": "view",
      "type": "function"
    },
    {
      "constant": false,
      "inputs": [
        {
          "internalType": "address",
          "name": "recipient",
          "type": "address"
        },
        {
          "internalType": "uint256",
          "name": "amount",
          "type": "uint256"
        }
      ],
      "name": "transfer",
      "outputs": [
        {
          "internalType": "bool",
          "name": "",
          "type": "bool"
        }
      ],
      "payable": false,
      "stateMutability": "nonpayable",
      "type": "function"
    },
    {
      "constant": false,
      "inputs": [
        {
          "internalType": "address",
          "name": "holder",
          "type": "address"
        },
        {
          "internalType": "address",
          "name": "recipient",
          "type": "address"
        },
        {
          "internalType": "uint256",
          "name": "amount",
          "type": "uint256"
        }
      ],
      "name": "transferFrom",
      "outputs": [
        {
          "internalType": "bool",
          "name": "",
          "type": "bool"
        }
      ],
      "payable": false,
      "stateMutability": "nonpayable",
      "type": "function"
    },
    {
      "constant": false,
      "inputs": [
        {
          "internalType": "address",
          "name": "account",
          "type": "address"
        },
        {
          "internalType": "uint256",
          "name": "amount",
          "type": "uint256"
        },
        {
          "internalType": "bytes",
          "name": "userData",
          "type": "bytes"
        },
        {
          "internalType": "bytes",
          "name": "operatorData",
          "type": "bytes"
        }
      ],
      "name": "mint",
      "outputs": [],
      "payable": false,
      "stateMutability": "nonpayable",
      "type": "function"
    },
    {
      "constant": false,
      "inputs": [
        {
          "internalType": "address",
          "name": "recipient",
          "type": "address"
        },
        {
          "internalType": "uint256",
          "name": "amount",
          "type": "uint256"
        },
        {
          "internalType": "bytes",
          "name": "data",
          "type": "bytes"
        }
      ],
      "name": "transferAndCall",
      "outputs": [
        {
          "internalType": "bool",
          "name": "success",
          "type": "bool"
        }
      ],
      "payable": false,
      "stateMutability": "nonpayable",
      "type": "function"
    },
    {
      "constant": true,
      "inputs": [],
      "name": "granularity",
      "outputs": [
        {
          "internalType": "uint256",
          "name": "",
          "type": "uint256"
        }
      ],
      "payable": false,
      "stateMutability": "view",
      "type": "function"
    }
  ],
  "bytecode": "0x60806040523480156200001157600080fd5b5060405162002a7e38038062002a7e833981810160405260808110156200003757600080fd5b81019080805160405193929190846401000000008211156200005857600080fd5b9083019060208201858111156200006e57600080fd5b82516401000000008111828201881017156200008957600080fd5b82525081516020918201929091019080838360005b83811015620000b85781810151838201526020016200009e565b50505050905090810190601f168015620000e65780820380516001836020036101000a031916815260200191505b50604052602001805160405193929190846401000000008211156200010a57600080fd5b9083019060208201858111156200012057600080fd5b82516401000000008111828201881017156200013b57600080fd5b82525081516020918201929091019080838360005b838110156200016a57818101518382015260200162000150565b50505050905090810190601f168015620001985780820380516001836020036101000a031916815260200191505b506040818152602083810151938201516000845281840190925287519395509093508692869291620001d09160029186019062000447565b508151620001e690600390602085019062000447565b508051620001fc906004906020840190620004cc565b5060005b6004548110156200025c57600160056000600484815481106200021f57fe5b6000918252602080832091909101546001600160a01b031683528201929092526040019020805460ff191691151591909117905560010162000200565b50604080516a22a9219b9b9baa37b5b2b760a91b8152815190819003600b0181206329965a1d60e01b82523060048301819052602483019190915260448201529051731820a4b7618bde71dce8cdc73aab6c95905fad24916329965a1d91606480830192600092919082900301818387803b158015620002db57600080fd5b505af1158015620002f0573d6000803e3d6000fd5b5050604080516922a92199182a37b5b2b760b11b8152815190819003600a0181206329965a1d60e01b82523060048301819052602483019190915260448201529051731820a4b7618bde71dce8cdc73aab6c95905fad2493506329965a1d9250606480830192600092919082900301818387803b1580156200037157600080fd5b505af115801562000386573d6000803e3d6000fd5b50505050506001600160a01b03841615159150620003d890505760405162461bcd60e51b815260040180806020018281038252602181526020018062002a286021913960400191505060405180910390fd5b60018110156200041a5760405162461bcd60e51b815260040180806020018281038252603581526020018062002a496035913960400191505060405180910390fd5b600980546001600160a01b0319166001600160a01b039390931692909217909155600a5550620005799050565b828054600181600116156101000203166002900490600052602060002090601f016020900481019282601f106200048a57805160ff1916838001178555620004ba565b82800160010185558215620004ba579182015b82811115620004ba5782518255916020019190600101906200049d565b50620004c892915062000532565b5090565b82805482825590600052602060002090810192821562000524579160200282015b828111156200052457825182546001600160a01b0319166001600160a01b03909116178255602090920191600190910190620004ed565b50620004c892915062000552565b6200054f91905b80821115620004c8576000815560010162000539565b90565b6200054f91905b80821115620004c85780546001600160a01b031916815560010162000559565b61249f80620005896000396000f3fe608060405234801561001057600080fd5b50600436106101375760003560e01c806370a08231116100b8578063d95b63711161007c578063d95b637114610551578063dcdc7dd01461057f578063dd62ed3e14610652578063fad8b32a14610680578063fc673c4f146106a6578063fe9d93031461077957610137565b806370a082311461044e578063959b8c3f1461047457806395d89b411461049a5780639bd9bbc6146104a2578063a9059cbb1461052557610137565b806323b872dd116100ff57806323b872dd1461028f578063313ce567146102c55780634000aea0146102e3578063556f0dc71461036657806362ad1b831461036e57610137565b806306e485381461013c57806306fdde03146101945780630754617214610211578063095ea7b31461023557806318160ddd14610275575b600080fd5b6101446107ee565b60408051602080825283518183015283519192839290830191858101910280838360005b83811015610180578181015183820152602001610168565b505050509050019250505060405180910390f35b61019c610850565b6040805160208082528351818301528351919283929083019185019080838360005b838110156101d65781810151838201526020016101be565b50505050905090810190601f1680156102035780820380516001836020036101000a031916815260200191505b509250505060405180910390f35b6102196108da565b604080516001600160a01b039092168252519081900360200190f35b6102616004803603604081101561024b57600080fd5b506001600160a01b0381351690602001356108e9565b604080519115158252519081900360200190f35b61027d61090b565b60408051918252519081900360200190f35b610261600480360360608110156102a557600080fd5b506001600160a01b03813581169160208101359091169060400135610911565b6102cd610aaa565b6040805160ff9092168252519081900360200190f35b610261600480360360608110156102f957600080fd5b6001600160a01b0382351691602081013591810190606081016040820135600160201b81111561032857600080fd5b82018360208201111561033a57600080fd5b803590602001918460018302840111600160201b8311171561035b57600080fd5b509092509050610aaf565b61027d610c62565b61044c600480360360a081101561038457600080fd5b6001600160a01b03823581169260208101359091169160408201359190810190608081016060820135600160201b8111156103be57600080fd5b8201836020820111156103d057600080fd5b803590602001918460018302840111600160201b831117156103f157600080fd5b919390929091602081019035600160201b81111561040e57600080fd5b82018360208201111561042057600080fd5b803590602001918460018302840111600160201b8311171561044157600080fd5b509092509050610c68565b005b61027d6004803603602081101561046457600080fd5b50356001600160a01b0316610d3e565b61044c6004803603602081101561048a57600080fd5b50356001600160a01b0316610d59565b61019c610ea5565b61044c600480360360608110156104b857600080fd5b6001600160a01b0382351691602081013591810190606081016040820135600160201b8111156104e757600080fd5b8201836020820111156104f957600080fd5b803590602001918460018302840111600160201b8311171561051a57600080fd5b509092509050610f06565b6102616004803603604081101561053b57600080fd5b506001600160a01b038135169060200135610f6e565b6102616004803603604081101561056757600080fd5b506001600160a01b038135811691602001351661105d565b61044c6004803603608081101561059557600080fd5b6001600160a01b0382351691602081013591810190606081016040820135600160201b8111156105c457600080fd5b8201836020820111156105d657600080fd5b803590602001918460018302840111600160201b831117156105f757600080fd5b919390929091602081019035600160201b81111561061457600080fd5b82018360208201111561062657600080fd5b803590602001918460018302840111600160201b8311171561064757600080fd5b5090925090506110ff565b61027d6004803603604081101561066857600080fd5b506001600160a01b03813581169160200135166111dd565b61044c6004803603602081101561069657600080fd5b50356001600160a01b0316611208565b61044c600480360360808110156106bc57600080fd5b6001600160a01b0382351691602081013591810190606081016040820135600160201b8111156106eb57600080fd5b8201836020820111156106fd57600080fd5b803590602001918460018302840111600160201b8311171561071e57600080fd5b919390929091602081019035600160201b81111561073b57600080fd5b82018360208201111561074d57600080fd5b803590602001918460018302840111600160201b8311171561076e57600080fd5b509092509050611354565b61044c6004803603604081101561078f57600080fd5b81359190810190604081016020820135600160201b8111156107b057600080fd5b8201836020820111156107c257600080fd5b803590602001918460018302840111600160201b831117156107e357600080fd5b50909250905061141d565b6060600480548060200260200160405190810160405280929190818152602001828054801561084657602002820191906000526020600020905b81546001600160a01b03168152600190910190602001808311610828575b5050505050905090565b60028054604080516020601f60001961010060018716150201909416859004938401819004810282018101909252828152606093909290918301828280156108465780601f106108ae57610100808354040283529160200191610846565b820191906000526020600020905b8154815290600101906020018083116108bc57509395945050505050565b6009546001600160a01b031681565b6000806108f4611480565b9050610901818585611484565b5060019392505050565b60015490565b60006001600160a01b03831661096e576040805162461bcd60e51b815260206004820181905260248201527f4552433737373a207472616e7366657220746f207a65726f2061646472657373604482015290519081900360640190fd5b6001600160a01b0384166109b35760405162461bcd60e51b81526004018080602001828103825260228152602001806124056022913960400191505060405180910390fd5b60006109bd611480565b90506109eb818686866040518060200160405280600081525060405180602001604052806000815250611541565b610a17818686866040518060200160405280600081525060405180602001604052806000815250611788565b610a718582610a6c866040518060600160405280602981526020016123dc602991396001600160a01b03808c166000908152600860209081526040808320938b1683529290522054919063ffffffff6119a116565b611484565b610a9f8186868660405180602001604052806000815250604051806020016040528060008152506000611a38565b506001949350505050565b601290565b600080610aba611480565b9050610b0e8182888888888080601f0160208091040260200160405190810160405280939291908181526020018383808284376000920182905250604080516020810190915281815293509150611cd89050565b7fe19260aff97b920c7df27010903aeb9c8d2be5d310a2c67824cf3f15396e4c16818787878760405180866001600160a01b03166001600160a01b03168152602001856001600160a01b03166001600160a01b03168152602001848152602001806020018281038252848482818152602001925080828437600083820152604051601f909101601f19169092018290039850909650505050505050a1856001600160a01b031663a4c0ed36828787876040518563ffffffff1660e01b815260040180856001600160a01b03166001600160a01b03168152602001848152602001806020018281038252848482818152602001925080828437600081840152601f19601f82011690508083019250505095505050505050600060405180830381600087803b158015610c3e57600080fd5b505af1158015610c52573d6000803e3d6000fd5b5060019998505050505050505050565b600a5490565b610c79610c73611480565b8861105d565b610cb45760405162461bcd60e51b81526004018080602001828103825260218152602001806124276021913960400191505060405180910390fd5b610d35610cbf611480565b88888888888080601f01602080910402602001604051908101604052809392919081815260200183838082843760009201919091525050604080516020601f8c018190048102820181019092528a815292508a915089908190840183828082843760009201919091525060019250611cd8915050565b50505050505050565b6001600160a01b031660009081526020819052604090205490565b806001600160a01b0316610d6b611480565b6001600160a01b03161415610db15760405162461bcd60e51b81526004018080602001828103825260248152602001806123276024913960400191505060405180910390fd5b6001600160a01b03811660009081526005602052604090205460ff1615610e145760076000610dde611480565b6001600160a01b03908116825260208083019390935260409182016000908120918516815292529020805460ff19169055610e5b565b600160066000610e22611480565b6001600160a01b03908116825260208083019390935260409182016000908120918616815292529020805460ff19169115159190911790555b610e63611480565b6001600160a01b0316816001600160a01b03167ff4caeb2d6ca8932a215a353d0703c326ec2d81fc68170f320eb2ab49e9df61f960405160405180910390a350565b60038054604080516020601f60026000196101006001881615020190951694909404938401819004810282018101909252828152606093909290918301828280156108465780601f106108ae57610100808354040283529160200191610846565b610f68610f11611480565b610f19611480565b868686868080601f01602080910402602001604051908101604052809392919081815260200183838082843760009201829052506040805160208101909152908152925060019150611cd89050565b50505050565b60006001600160a01b038316610fcb576040805162461bcd60e51b815260206004820181905260248201527f4552433737373a207472616e7366657220746f207a65726f2061646472657373604482015290519081900360640190fd5b6000610fd5611480565b9050611003818286866040518060200160405280600081525060405180602001604052806000815250611541565b61102f818286866040518060200160405280600081525060405180602001604052806000815250611788565b6109018182868660405180602001604052806000815250604051806020016040528060008152506000611a38565b6000816001600160a01b0316836001600160a01b031614806110c857506001600160a01b03831660009081526005602052604090205460ff1680156110c857506001600160a01b0380831660009081526007602090815260408083209387168352929052205460ff16155b806110f857506001600160a01b0380831660009081526006602090815260408083209387168352929052205460ff165b9392505050565b6009546001600160a01b0316611113611480565b6001600160a01b0316146111585760405162461bcd60e51b81526004018080602001828103825260238152602001806123b96023913960400191505060405180910390fd5b6111d5611163611480565b878787878080601f01602080910402602001604051908101604052809392919081815260200183838082843760009201919091525050604080516020601f8b018190048102820181019092528981529250899150889081908401838280828437600092019190915250611db992505050565b505050505050565b6001600160a01b03918216600090815260086020908152604080832093909416825291909152205490565b611210611480565b6001600160a01b0316816001600160a01b031614156112605760405162461bcd60e51b815260040180806020018281038252602181526020018061234b6021913960400191505060405180910390fd5b6001600160a01b03811660009081526005602052604090205460ff16156112cc5760016007600061128f611480565b6001600160a01b03908116825260208083019390935260409182016000908120918616815292529020805460ff191691151591909117905561130a565b600660006112d8611480565b6001600160a01b03908116825260208083019390935260409182016000908120918516815292529020805460ff191690555b611312611480565b6001600160a01b0316816001600160a01b03167f50546e66e5f44d728365dc3908c63bc5cfeeab470722c1677e3073a6ac294aa160405160405180910390a350565b61136561135f611480565b8761105d565b6113a05760405162461bcd60e51b81526004018080602001828103825260218152602001806124276021913960400191505060405180910390fd5b6111d56113ab611480565b878787878080601f01602080910402602001604051908101604052809392919081815260200183838082843760009201919091525050604080516020601f8b018190048102820181019092528981529250899150889081908401838280828437600092019190915250611fe492505050565b61147b611428611480565b611430611480565b8585858080601f016020809104026020016040519081016040528093929190818152602001838380828437600092018290525060408051602081019091529081529250611fe4915050565b505050565b3390565b6001600160a01b0382166114df576040805162461bcd60e51b815260206004820152601f60248201527f4552433737373a20617070726f766520746f207a65726f206164647265737300604482015290519081900360640190fd5b6001600160a01b03808416600081815260086020908152604080832094871680845294825291829020859055815185815291517f8c5be1e5ebec7d5bd14f71427d1e84f3dd0314c0f7b2291e5b200ac8c7c3b9259281900390910190a3505050565b6040805163555ddc6560e11b81526001600160a01b03871660048201527f29ddb589b1fb5fc7cf394961c1adf5f8c6454761adf795e67fe149f658abe89560248201529051600091731820a4b7618bde71dce8cdc73aab6c95905fad249163aabbb8ca91604480820192602092909190829003018186803b1580156115c557600080fd5b505afa1580156115d9573d6000803e3d6000fd5b505050506040513d60208110156115ef57600080fd5b505190506001600160a01b03811615610d3557806001600160a01b03166375ab97828888888888886040518763ffffffff1660e01b815260040180876001600160a01b03166001600160a01b03168152602001866001600160a01b03166001600160a01b03168152602001856001600160a01b03166001600160a01b031681526020018481526020018060200180602001838103835285818151815260200191508051906020019080838360005b838110156116b557818101518382015260200161169d565b50505050905090810190601f1680156116e25780820380516001836020036101000a031916815260200191505b50838103825284518152845160209182019186019080838360005b838110156117155781810151838201526020016116fd565b50505050905090810190601f1680156117425780820380516001836020036101000a031916815260200191505b5098505050505050505050600060405180830381600087803b15801561176757600080fd5b505af115801561177b573d6000803e3d6000fd5b5050505050505050505050565b6117cb83604051806060016040528060278152602001612300602791396001600160a01b038816600090815260208190526040902054919063ffffffff6119a116565b6001600160a01b038087166000908152602081905260408082209390935590861681522054611800908463ffffffff61222716565b600080866001600160a01b03166001600160a01b0316815260200190815260200160002081905550836001600160a01b0316856001600160a01b0316876001600160a01b03167f06b541ddaa720db2b10a4d0cdac39b8d360425fc073085fac19bc82614677987868686604051808481526020018060200180602001838103835285818151815260200191508051906020019080838360005b838110156118b1578181015183820152602001611899565b50505050905090810190601f1680156118de5780820380516001836020036101000a031916815260200191505b50838103825284518152845160209182019186019080838360005b838110156119115781810151838201526020016118f9565b50505050905090810190601f16801561193e5780820380516001836020036101000a031916815260200191505b509550505050505060405180910390a4836001600160a01b0316856001600160a01b03167fddf252ad1be2c89b69c2b068fc378daa952ba7f163c4a11628f55a4df523b3ef856040518082815260200191505060405180910390a3505050505050565b60008184841115611a305760405162461bcd60e51b81526004018080602001828103825283818151815260200191508051906020019080838360005b838110156119f55781810151838201526020016119dd565b50505050905090810190601f168015611a225780820380516001836020036101000a031916815260200191505b509250505060405180910390fd5b505050900390565b6040805163555ddc6560e11b81526001600160a01b03871660048201527fb281fc8c12954d22544db45de3159a39272895b169a852b314f9cc762e44c53b60248201529051600091731820a4b7618bde71dce8cdc73aab6c95905fad249163aabbb8ca91604480820192602092909190829003018186803b158015611abc57600080fd5b505afa158015611ad0573d6000803e3d6000fd5b505050506040513d6020811015611ae657600080fd5b505190506001600160a01b03811615611c7a57806001600160a01b03166223de298989898989896040518763ffffffff1660e01b815260040180876001600160a01b03166001600160a01b03168152602001866001600160a01b03166001600160a01b03168152602001856001600160a01b03166001600160a01b031681526020018481526020018060200180602001838103835285818151815260200191508051906020019080838360005b83811015611bab578181015183820152602001611b93565b50505050905090810190601f168015611bd85780820380516001836020036101000a031916815260200191505b50838103825284518152845160209182019186019080838360005b83811015611c0b578181015183820152602001611bf3565b50505050905090810190601f168015611c385780820380516001836020036101000a031916815260200191505b5098505050505050505050600060405180830381600087803b158015611c5d57600080fd5b505af1158015611c71573d6000803e3d6000fd5b50505050611cce565b8115611cce57611c92866001600160a01b0316612281565b15611cce5760405162461bcd60e51b815260040180806020018281038252604d81526020018061236c604d913960600191505060405180910390fd5b5050505050505050565b6001600160a01b038616611d33576040805162461bcd60e51b815260206004820152601e60248201527f4552433737373a2073656e642066726f6d207a65726f20616464726573730000604482015290519081900360640190fd5b6001600160a01b038516611d8e576040805162461bcd60e51b815260206004820152601c60248201527f4552433737373a2073656e6420746f207a65726f206164647265737300000000604482015290519081900360640190fd5b611d9c878787878787611541565b611daa878787878787611788565b610d3587878787878787611a38565b6001600160a01b038416611e14576040805162461bcd60e51b815260206004820152601c60248201527f4552433737373a206d696e7420746f207a65726f206164647265737300000000604482015290519081900360640190fd5b600154611e27908463ffffffff61222716565b6001556001600160a01b038416600090815260208190526040902054611e53908463ffffffff61222716565b6001600160a01b038516600090815260208190526040812091909155611e80908690868686866001611a38565b836001600160a01b0316856001600160a01b03167f2fe5be0146f74c5bce36c0b80911af6c7d86ff27e89d5cfa61fc681327954e5d858585604051808481526020018060200180602001838103835285818151815260200191508051906020019080838360005b83811015611eff578181015183820152602001611ee7565b50505050905090810190601f168015611f2c5780820380516001836020036101000a031916815260200191505b50838103825284518152845160209182019186019080838360005b83811015611f5f578181015183820152602001611f47565b50505050905090810190601f168015611f8c5780820380516001836020036101000a031916815260200191505b509550505050505060405180910390a36040805184815290516001600160a01b038616916000917fddf252ad1be2c89b69c2b068fc378daa952ba7f163c4a11628f55a4df523b3ef9181900360200190a35050505050565b6001600160a01b03841661203f576040805162461bcd60e51b815260206004820152601e60248201527f4552433737373a206275726e2066726f6d207a65726f20616464726573730000604482015290519081900360640190fd5b61204e85856000868686611541565b61209183604051806060016040528060238152602001612448602391396001600160a01b038716600090815260208190526040902054919063ffffffff6119a116565b6001600160a01b0385166000908152602081905260409020556001546120bd908463ffffffff6122bd16565b600181905550836001600160a01b0316856001600160a01b03167fa78a9be3a7b862d26933ad85fb11d80ef66b8f972d7cbba06621d583943a4098858585604051808481526020018060200180602001838103835285818151815260200191508051906020019080838360005b8381101561214257818101518382015260200161212a565b50505050905090810190601f16801561216f5780820380516001836020036101000a031916815260200191505b50838103825284518152845160209182019186019080838360005b838110156121a257818101518382015260200161218a565b50505050905090810190601f1680156121cf5780820380516001836020036101000a031916815260200191505b509550505050505060405180910390a36040805184815290516000916001600160a01b038716917fddf252ad1be2c89b69c2b068fc378daa952ba7f163c4a11628f55a4df523b3ef9181900360200190a35050505050565b6000828201838110156110f8576040805162461bcd60e51b815260206004820152601b60248201527f536166654d6174683a206164646974696f6e206f766572666c6f770000000000604482015290519081900360640190fd5b6000813f7fc5d2460186f7233c927e7db2dcc703c0e500b653ca82273b7bfad8045d85a4708181148015906122b557508115155b949350505050565b60006110f883836040518060400160405280601e81526020017f536166654d6174683a207375627472616374696f6e206f766572666c6f7700008152506119a156fe4552433737373a207472616e7366657220616d6f756e7420657863656564732062616c616e63654552433737373a20617574686f72697a696e672073656c66206173206f70657261746f724552433737373a207265766f6b696e672073656c66206173206f70657261746f724552433737373a20746f6b656e20726563697069656e7420636f6e747261637420686173206e6f20696d706c656d656e74657220666f7220455243373737546f6b656e73526563697069656e7453696465546f6b656e3a2043616c6c6572206973206e6f7420746865206d696e7465724552433737373a207472616e7366657220616d6f756e74206578636565647320616c6c6f77616e63654552433737373a207472616e736665722066726f6d207a65726f20616464726573734552433737373a2063616c6c6572206973206e6f7420616e206f70657261746f724552433737373a206275726e20616d6f756e7420657863656564732062616c616e6365a265627a7a72315820d546026466f8e201edf72ca97a7cb48ed0f47275404d30d201499bad3696ab0d64736f6c6343000511003253696465546f6b656e3a204d696e7465722061646472657373206973206e756c6c53696465546f6b656e3a204772616e756c6172697479206d75737420626520657175616c206f7220626967676572207468616e2031",
  "source": "pragma solidity ^0.5.0;\n\nimport \"./zeppelin/token/ERC777/ERC777.sol\";\nimport \"./IERC677Receiver.sol\";\nimport \"./ISideToken.sol\";\n\ncontract SideToken is ISideToken, ERC777 {\n    using Address for address;\n    using SafeMath for uint256;\n\n    address public minter;\n    uint256 private _granularity;\n\n    event Transfer(address,address,uint256,bytes);\n\n    constructor(string memory _tokenName, string memory _tokenSymbol, address _minterAddr, uint256 _newGranularity)\n    ERC777(_tokenName, _tokenSymbol, new address[](0)) public {\n        require(_minterAddr != address(0), \"SideToken: Minter address is null\");\n        require(_newGranularity >= 1, \"SideToken: Granularity must be equal or bigger than 1\");\n        minter = _minterAddr;\n        _granularity = _newGranularity;\n    }\n\n    modifier onlyMinter() {\n        require(_msgSender() == minter, \"SideToken: Caller is not the minter\");\n        _;\n    }\n\n    function mint(\n        address account,\n        uint256 amount,\n        bytes calldata userData,\n        bytes calldata operatorData\n    )\n    external onlyMinter\n    {\n        _mint(_msgSender(), account, amount, userData, operatorData);\n    }\n\n    /**\n    * @dev ERC677 transfer token with additional data if the recipient is a contact.\n    * @param recipient The address to transfer to.\n    * @param amount The amount to be transferred.\n    * @param data The extra data to be passed to the receiving contract.\n    */\n    function transferAndCall(address recipient, uint amount, bytes calldata data)\n        external returns (bool success)\n    {\n        address from = _msgSender();\n\n        _send(from, from, recipient, amount, data, \"\", false);\n        emit Transfer(from, recipient, amount, data);\n        IERC677Receiver(recipient).onTokenTransfer(from, amount, data);\n        return true;\n    }\n\n    function granularity() public view returns (uint256) {\n        return _granularity;\n    }\n\n}",
  "sourcePath": "/Users/pooh/sovryn/deploy_bridge/MAIN-Restore-RSK-ETH/Bridge-SC/sovryn-token-bridge/bridge/contracts/SideToken.sol",
  "compiler": {
    "name": "solc",
    "version": "0.5.17+commit.d19bba13.Emscripten.clang"
  },
  "schemaVersion": "3.3.4",
  "updatedAt": "2021-05-22T14:21:15.105Z",
  "devdoc": {
    "methods": {
      "allowance(address,address)": {
        "details": "See {IERC20-allowance}.     * Note that operator and allowance concepts are orthogonal: operators may not have allowance, and accounts with allowance may not be operators themselves."
      },
      "approve(address,uint256)": {
        "details": "See {IERC20-approve}.     * Note that accounts cannot have allowance issued by their operators."
      },
      "authorizeOperator(address)": {
        "details": "See {IERC777-authorizeOperator}."
      },
      "balanceOf(address)": {
        "details": "Returns the amount of tokens owned by an account (`tokenHolder`)."
      },
      "burn(uint256,bytes)": {
        "details": "See {IERC777-burn}.     * Also emits a {Transfer} event for ERC20 compatibility."
      },
      "decimals()": {
        "details": "See {ERC20Detailed-decimals}.     * Always returns 18, as per the [ERC777 EIP](https://eips.ethereum.org/EIPS/eip-777#backward-compatibility)."
      },
      "defaultOperators()": {
        "details": "See {IERC777-defaultOperators}."
      },
      "isOperatorFor(address,address)": {
        "details": "See {IERC777-isOperatorFor}."
      },
      "name()": {
        "details": "See {IERC777-name}."
      },
      "operatorBurn(address,uint256,bytes,bytes)": {
        "details": "See {IERC777-operatorBurn}.     * Emits {Burned} and {Transfer} events."
      },
      "operatorSend(address,address,uint256,bytes,bytes)": {
        "details": "See {IERC777-operatorSend}.     * Emits {Sent} and {Transfer} events."
      },
      "revokeOperator(address)": {
        "details": "See {IERC777-revokeOperator}."
      },
      "send(address,uint256,bytes)": {
        "details": "See {IERC777-send}.     * Also emits a {Transfer} event for ERC20 compatibility."
      },
      "symbol()": {
        "details": "See {IERC777-symbol}."
      },
      "totalSupply()": {
        "details": "See {IERC777-totalSupply}."
      },
      "transfer(address,uint256)": {
        "details": "See {IERC20-transfer}.     * Unlike `send`, `recipient` is _not_ required to implement the {IERC777Recipient} interface if it is a contract.     * Also emits a {Sent} event."
      },
      "transferAndCall(address,uint256,bytes)": {
        "details": "ERC677 transfer token with additional data if the recipient is a contact.",
        "params": {
          "amount": "The amount to be transferred.",
          "data": "The extra data to be passed to the receiving contract.",
          "recipient": "The address to transfer to."
        }
      },
      "transferFrom(address,address,uint256)": {
        "details": "See {IERC20-transferFrom}.    * Note that operator and allowance concepts are orthogonal: operators cannot call `transferFrom` (unless they have allowance), and accounts with allowance cannot call `operatorSend` (unless they are operators).    * Emits {Sent}, {Transfer} and {Approval} events."
      }
    }
  },
  "userdoc": {
    "methods": {}
  }
}