{
  "contractName": "SideToken_v0",
  "abi": [
    {
      "inputs": [
        {
          "internalType": "string",
          "name": "_tokenName",
          "type": "string"
        },
        {
          "internalType": "string",
          "name": "_tokenSymbol",
          "type": "string"
        },
        {
          "internalType": "address",
          "name": "_minterAddr",
          "type": "address"
        }
      ],
      "payable": false,
      "stateMutability": "nonpayable",
      "type": "constructor"
    },
    {
      "anonymous": false,
      "inputs": [
        {
          "indexed": true,
          "internalType": "address",
          "name": "owner",
          "type": "address"
        },
        {
          "indexed": true,
          "internalType": "address",
          "name": "spender",
          "type": "address"
        },
        {
          "indexed": false,
          "internalType": "uint256",
          "name": "value",
          "type": "uint256"
        }
      ],
      "name": "Approval",
      "type": "event"
    },
    {
      "anonymous": false,
      "inputs": [
        {
          "indexed": true,
          "internalType": "address",
          "name": "operator",
          "type": "address"
        },
        {
          "indexed": true,
          "internalType": "address",
          "name": "tokenHolder",
          "type": "address"
        }
      ],
      "name": "AuthorizedOperator",
      "type": "event"
    },
    {
      "anonymous": false,
      "inputs": [
        {
          "indexed": true,
          "internalType": "address",
          "name": "operator",
          "type": "address"
        },
        {
          "indexed": true,
          "internalType": "address",
          "name": "from",
          "type": "address"
        },
        {
          "indexed": false,
          "internalType": "uint256",
          "name": "amount",
          "type": "uint256"
        },
        {
          "indexed": false,
          "internalType": "bytes",
          "name": "data",
          "type": "bytes"
        },
        {
          "indexed": false,
          "internalType": "bytes",
          "name": "operatorData",
          "type": "bytes"
        }
      ],
      "name": "Burned",
      "type": "event"
    },
    {
      "anonymous": false,
      "inputs": [
        {
          "indexed": true,
          "internalType": "address",
          "name": "operator",
          "type": "address"
        },
        {
          "indexed": true,
          "internalType": "address",
          "name": "to",
          "type": "address"
        },
        {
          "indexed": false,
          "internalType": "uint256",
          "name": "amount",
          "type": "uint256"
        },
        {
          "indexed": false,
          "internalType": "bytes",
          "name": "data",
          "type": "bytes"
        },
        {
          "indexed": false,
          "internalType": "bytes",
          "name": "operatorData",
          "type": "bytes"
        }
      ],
      "name": "Minted",
      "type": "event"
    },
    {
      "anonymous": false,
      "inputs": [
        {
          "indexed": true,
          "internalType": "address",
          "name": "operator",
          "type": "address"
        },
        {
          "indexed": true,
          "internalType": "address",
          "name": "tokenHolder",
          "type": "address"
        }
      ],
      "name": "RevokedOperator",
      "type": "event"
    },
    {
      "anonymous": false,
      "inputs": [
        {
          "indexed": true,
          "internalType": "address",
          "name": "operator",
          "type": "address"
        },
        {
          "indexed": true,
          "internalType": "address",
          "name": "from",
          "type": "address"
        },
        {
          "indexed": true,
          "internalType": "address",
          "name": "to",
          "type": "address"
        },
        {
          "indexed": false,
          "internalType": "uint256",
          "name": "amount",
          "type": "uint256"
        },
        {
          "indexed": false,
          "internalType": "bytes",
          "name": "data",
          "type": "bytes"
        },
        {
          "indexed": false,
          "internalType": "bytes",
          "name": "operatorData",
          "type": "bytes"
        }
      ],
      "name": "Sent",
      "type": "event"
    },
    {
      "anonymous": false,
      "inputs": [
        {
          "indexed": true,
          "internalType": "address",
          "name": "from",
          "type": "address"
        },
        {
          "indexed": true,
          "internalType": "address",
          "name": "to",
          "type": "address"
        },
        {
          "indexed": false,
          "internalType": "uint256",
          "name": "value",
          "type": "uint256"
        }
      ],
      "name": "Transfer",
      "type": "event"
    },
    {
      "constant": true,
      "inputs": [
        {
          "internalType": "address",
          "name": "holder",
          "type": "address"
        },
        {
          "internalType": "address",
          "name": "spender",
          "type": "address"
        }
      ],
      "name": "allowance",
      "outputs": [
        {
          "internalType": "uint256",
          "name": "",
          "type": "uint256"
        }
      ],
      "payable": false,
      "stateMutability": "view",
      "type": "function"
    },
    {
      "constant": false,
      "inputs": [
        {
          "internalType": "address",
          "name": "spender",
          "type": "address"
        },
        {
          "internalType": "uint256",
          "name": "value",
          "type": "uint256"
        }
      ],
      "name": "approve",
      "outputs": [
        {
          "internalType": "bool",
          "name": "",
          "type": "bool"
        }
      ],
      "payable": false,
      "stateMutability": "nonpayable",
      "type": "function"
    },
    {
      "constant": false,
      "inputs": [
        {
          "internalType": "address",
          "name": "operator",
          "type": "address"
        }
      ],
      "name": "authorizeOperator",
      "outputs": [],
      "payable": false,
      "stateMutability": "nonpayable",
      "type": "function"
    },
    {
      "constant": true,
      "inputs": [
        {
          "internalType": "address",
          "name": "tokenHolder",
          "type": "address"
        }
      ],
      "name": "balanceOf",
      "outputs": [
        {
          "internalType": "uint256",
          "name": "",
          "type": "uint256"
        }
      ],
      "payable": false,
      "stateMutability": "view",
      "type": "function"
    },
    {
      "constant": false,
      "inputs": [
        {
          "internalType": "uint256",
          "name": "amount",
          "type": "uint256"
        },
        {
          "internalType": "bytes",
          "name": "data",
          "type": "bytes"
        }
      ],
      "name": "burn",
      "outputs": [],
      "payable": false,
      "stateMutability": "nonpayable",
      "type": "function"
    },
    {
      "constant": true,
      "inputs": [],
      "name": "decimals",
      "outputs": [
        {
          "internalType": "uint8",
          "name": "",
          "type": "uint8"
        }
      ],
      "payable": false,
      "stateMutability": "pure",
      "type": "function"
    },
    {
      "constant": true,
      "inputs": [],
      "name": "defaultOperators",
      "outputs": [
        {
          "internalType": "address[]",
          "name": "",
          "type": "address[]"
        }
      ],
      "payable": false,
      "stateMutability": "view",
      "type": "function"
    },
    {
      "constant": true,
      "inputs": [],
      "name": "granularity",
      "outputs": [
        {
          "internalType": "uint256",
          "name": "",
          "type": "uint256"
        }
      ],
      "payable": false,
      "stateMutability": "view",
      "type": "function"
    },
    {
      "constant": true,
      "inputs": [
        {
          "internalType": "address",
          "name": "operator",
          "type": "address"
        },
        {
          "internalType": "address",
          "name": "tokenHolder",
          "type": "address"
        }
      ],
      "name": "isOperatorFor",
      "outputs": [
        {
          "internalType": "bool",
          "name": "",
          "type": "bool"
        }
      ],
      "payable": false,
      "stateMutability": "view",
      "type": "function"
    },
    {
      "constant": true,
      "inputs": [],
      "name": "minter",
      "outputs": [
        {
          "internalType": "address",
          "name": "",
          "type": "address"
        }
      ],
      "payable": false,
      "stateMutability": "view",
      "type": "function"
    },
    {
      "constant": true,
      "inputs": [],
      "name": "name",
      "outputs": [
        {
          "internalType": "string",
          "name": "",
          "type": "string"
        }
      ],
      "payable": false,
      "stateMutability": "view",
      "type": "function"
    },
    {
      "constant": false,
      "inputs": [
        {
          "internalType": "address",
          "name": "account",
          "type": "address"
        },
        {
          "internalType": "uint256",
          "name": "amount",
          "type": "uint256"
        },
        {
          "internalType": "bytes",
          "name": "data",
          "type": "bytes"
        },
        {
          "internalType": "bytes",
          "name": "operatorData",
          "type": "bytes"
        }
      ],
      "name": "operatorBurn",
      "outputs": [],
      "payable": false,
      "stateMutability": "nonpayable",
      "type": "function"
    },
    {
      "constant": false,
      "inputs": [
        {
          "internalType": "address",
          "name": "sender",
          "type": "address"
        },
        {
          "internalType": "address",
          "name": "recipient",
          "type": "address"
        },
        {
          "internalType": "uint256",
          "name": "amount",
          "type": "uint256"
        },
        {
          "internalType": "bytes",
          "name": "data",
          "type": "bytes"
        },
        {
          "internalType": "bytes",
          "name": "operatorData",
          "type": "bytes"
        }
      ],
      "name": "operatorSend",
      "outputs": [],
      "payable": false,
      "stateMutability": "nonpayable",
      "type": "function"
    },
    {
      "constant": false,
      "inputs": [
        {
          "internalType": "address",
          "name": "operator",
          "type": "address"
        }
      ],
      "name": "revokeOperator",
      "outputs": [],
      "payable": false,
      "stateMutability": "nonpayable",
      "type": "function"
    },
    {
      "constant": false,
      "inputs": [
        {
          "internalType": "address",
          "name": "recipient",
          "type": "address"
        },
        {
          "internalType": "uint256",
          "name": "amount",
          "type": "uint256"
        },
        {
          "internalType": "bytes",
          "name": "data",
          "type": "bytes"
        }
      ],
      "name": "send",
      "outputs": [],
      "payable": false,
      "stateMutability": "nonpayable",
      "type": "function"
    },
    {
      "constant": true,
      "inputs": [],
      "name": "symbol",
      "outputs": [
        {
          "internalType": "string",
          "name": "",
          "type": "string"
        }
      ],
      "payable": false,
      "stateMutability": "view",
      "type": "function"
    },
    {
      "constant": true,
      "inputs": [],
      "name": "totalSupply",
      "outputs": [
        {
          "internalType": "uint256",
          "name": "",
          "type": "uint256"
        }
      ],
      "payable": false,
      "stateMutability": "view",
      "type": "function"
    },
    {
      "constant": false,
      "inputs": [
        {
          "internalType": "address",
          "name": "recipient",
          "type": "address"
        },
        {
          "internalType": "uint256",
          "name": "amount",
          "type": "uint256"
        }
      ],
      "name": "transfer",
      "outputs": [
        {
          "internalType": "bool",
          "name": "",
          "type": "bool"
        }
      ],
      "payable": false,
      "stateMutability": "nonpayable",
      "type": "function"
    },
    {
      "constant": false,
      "inputs": [
        {
          "internalType": "address",
          "name": "holder",
          "type": "address"
        },
        {
          "internalType": "address",
          "name": "recipient",
          "type": "address"
        },
        {
          "internalType": "uint256",
          "name": "amount",
          "type": "uint256"
        }
      ],
      "name": "transferFrom",
      "outputs": [
        {
          "internalType": "bool",
          "name": "",
          "type": "bool"
        }
      ],
      "payable": false,
      "stateMutability": "nonpayable",
      "type": "function"
    },
    {
      "constant": false,
      "inputs": [
        {
          "internalType": "address",
          "name": "account",
          "type": "address"
        },
        {
          "internalType": "uint256",
          "name": "amount",
          "type": "uint256"
        },
        {
          "internalType": "bytes",
          "name": "userData",
          "type": "bytes"
        },
        {
          "internalType": "bytes",
          "name": "operatorData",
          "type": "bytes"
        }
      ],
      "name": "mint",
      "outputs": [],
      "payable": false,
      "stateMutability": "nonpayable",
      "type": "function"
    }
  ],
  "bytecode": "0x60806040523480156200001157600080fd5b50604051620027ba380380620027ba833981810160405260608110156200003757600080fd5b81019080805160405193929190846401000000008211156200005857600080fd5b9083019060208201858111156200006e57600080fd5b82516401000000008111828201881017156200008957600080fd5b82525081516020918201929091019080838360005b83811015620000b85781810151838201526020016200009e565b50505050905090810190601f168015620000e65780820380516001836020036101000a031916815260200191505b50604052602001805160405193929190846401000000008211156200010a57600080fd5b9083019060208201858111156200012057600080fd5b82516401000000008111828201881017156200013b57600080fd5b82525081516020918201929091019080838360005b838110156200016a57818101518382015260200162000150565b50505050905090810190601f168015620001985780820380516001836020036101000a031916815260200191505b5060408181526020928301516000835283830190915286519094508693508592620001c991600291860190620003fa565b508151620001df906003906020850190620003fa565b508051620001f59060049060208401906200047f565b5060005b6004548110156200025557600160056000600484815481106200021857fe5b6000918252602080832091909101546001600160a01b031683528201929092526040019020805460ff1916911515919091179055600101620001f9565b50604080516a22a9219b9b9baa37b5b2b760a91b8152815190819003600b0181206329965a1d60e01b82523060048301819052602483019190915260448201529051731820a4b7618bde71dce8cdc73aab6c95905fad24916329965a1d91606480830192600092919082900301818387803b158015620002d457600080fd5b505af1158015620002e9573d6000803e3d6000fd5b5050604080516922a92199182a37b5b2b760b11b8152815190819003600a0181206329965a1d60e01b82523060048301819052602483019190915260448201529051731820a4b7618bde71dce8cdc73aab6c95905fad2493506329965a1d9250606480830192600092919082900301818387803b1580156200036a57600080fd5b505af11580156200037f573d6000803e3d6000fd5b50505050506001600160a01b03831615159150620003d190505760405162461bcd60e51b8152600401808060200182810382526021815260200180620027996021913960400191505060405180910390fd5b600980546001600160a01b0319166001600160a01b0392909216919091179055506200052c9050565b828054600181600116156101000203166002900490600052602060002090601f016020900481019282601f106200043d57805160ff19168380011785556200046d565b828001600101855582156200046d579182015b828111156200046d57825182559160200191906001019062000450565b506200047b929150620004e5565b5090565b828054828255906000526020600020908101928215620004d7579160200282015b82811115620004d757825182546001600160a01b0319166001600160a01b03909116178255602090920191600190910190620004a0565b506200047b92915062000505565b6200050291905b808211156200047b5760008155600101620004ec565b90565b6200050291905b808211156200047b5780546001600160a01b03191681556001016200050c565b61225d806200053c6000396000f3fe608060405234801561001057600080fd5b506004361061012c5760003560e01c8063959b8c3f116100ad578063dcdc7dd011610071578063dcdc7dd0146104f1578063dd62ed3e146105c4578063fad8b32a146105f2578063fc673c4f14610618578063fe9d9303146106eb5761012c565b8063959b8c3f146103e657806395d89b411461040c5780639bd9bbc614610414578063a9059cbb14610497578063d95b6371146104c35761012c565b806323b872dd116100f457806323b872dd14610284578063313ce567146102ba578063556f0dc7146102d857806362ad1b83146102e057806370a08231146103c05761012c565b806306e485381461013157806306fdde03146101895780630754617214610206578063095ea7b31461022a57806318160ddd1461026a575b600080fd5b610139610760565b60408051602080825283518183015283519192839290830191858101910280838360005b8381101561017557818101518382015260200161015d565b505050509050019250505060405180910390f35b6101916107c2565b6040805160208082528351818301528351919283929083019185019080838360005b838110156101cb5781810151838201526020016101b3565b50505050905090810190601f1680156101f85780820380516001836020036101000a031916815260200191505b509250505060405180910390f35b61020e61084c565b604080516001600160a01b039092168252519081900360200190f35b6102566004803603604081101561024057600080fd5b506001600160a01b03813516906020013561085b565b604080519115158252519081900360200190f35b61027261087d565b60408051918252519081900360200190f35b6102566004803603606081101561029a57600080fd5b506001600160a01b03813581169160208101359091169060400135610883565b6102c2610a1c565b6040805160ff9092168252519081900360200190f35b610272610a21565b6103be600480360360a08110156102f657600080fd5b6001600160a01b03823581169260208101359091169160408201359190810190608081016060820135600160201b81111561033057600080fd5b82018360208201111561034257600080fd5b803590602001918460018302840111600160201b8311171561036357600080fd5b919390929091602081019035600160201b81111561038057600080fd5b82018360208201111561039257600080fd5b803590602001918460018302840111600160201b831117156103b357600080fd5b509092509050610a26565b005b610272600480360360208110156103d657600080fd5b50356001600160a01b0316610afc565b6103be600480360360208110156103fc57600080fd5b50356001600160a01b0316610b17565b610191610c63565b6103be6004803603606081101561042a57600080fd5b6001600160a01b0382351691602081013591810190606081016040820135600160201b81111561045957600080fd5b82018360208201111561046b57600080fd5b803590602001918460018302840111600160201b8311171561048c57600080fd5b509092509050610cc4565b610256600480360360408110156104ad57600080fd5b506001600160a01b038135169060200135610d2c565b610256600480360360408110156104d957600080fd5b506001600160a01b0381358116916020013516610e1b565b6103be6004803603608081101561050757600080fd5b6001600160a01b0382351691602081013591810190606081016040820135600160201b81111561053657600080fd5b82018360208201111561054857600080fd5b803590602001918460018302840111600160201b8311171561056957600080fd5b919390929091602081019035600160201b81111561058657600080fd5b82018360208201111561059857600080fd5b803590602001918460018302840111600160201b831117156105b957600080fd5b509092509050610ebd565b610272600480360360408110156105da57600080fd5b506001600160a01b0381358116916020013516610f9b565b6103be6004803603602081101561060857600080fd5b50356001600160a01b0316610fc6565b6103be6004803603608081101561062e57600080fd5b6001600160a01b0382351691602081013591810190606081016040820135600160201b81111561065d57600080fd5b82018360208201111561066f57600080fd5b803590602001918460018302840111600160201b8311171561069057600080fd5b919390929091602081019035600160201b8111156106ad57600080fd5b8201836020820111156106bf57600080fd5b803590602001918460018302840111600160201b831117156106e057600080fd5b509092509050611112565b6103be6004803603604081101561070157600080fd5b81359190810190604081016020820135600160201b81111561072257600080fd5b82018360208201111561073457600080fd5b803590602001918460018302840111600160201b8311171561075557600080fd5b5090925090506111db565b606060048054806020026020016040519081016040528092919081815260200182805480156107b857602002820191906000526020600020905b81546001600160a01b0316815260019091019060200180831161079a575b5050505050905090565b60028054604080516020601f60001961010060018716150201909416859004938401819004810282018101909252828152606093909290918301828280156107b85780601f10610820576101008083540402835291602001916107b8565b820191906000526020600020905b81548152906001019060200180831161082e57509395945050505050565b6009546001600160a01b031681565b60008061086661123e565b9050610873818585611242565b5060019392505050565b60015490565b60006001600160a01b0383166108e0576040805162461bcd60e51b815260206004820181905260248201527f4552433737373a207472616e7366657220746f207a65726f2061646472657373604482015290519081900360640190fd5b6001600160a01b0384166109255760405162461bcd60e51b81526004018080602001828103825260228152602001806121c36022913960400191505060405180910390fd5b600061092f61123e565b905061095d8186868660405180602001604052806000815250604051806020016040528060008152506112ff565b610989818686866040518060200160405280600081525060405180602001604052806000815250611546565b6109e385826109de8660405180606001604052806029815260200161219a602991396001600160a01b03808c166000908152600860209081526040808320938b1683529290522054919063ffffffff61175f16565b611242565b610a1181868686604051806020016040528060008152506040518060200160405280600081525060006117f6565b506001949350505050565b601290565b600190565b610a37610a3161123e565b88610e1b565b610a725760405162461bcd60e51b81526004018080602001828103825260218152602001806121e56021913960400191505060405180910390fd5b610af3610a7d61123e565b88888888888080601f01602080910402602001604051908101604052809392919081815260200183838082843760009201919091525050604080516020601f8c018190048102820181019092528a815292508a915089908190840183828082843760009201919091525060019250611a96915050565b50505050505050565b6001600160a01b031660009081526020819052604090205490565b806001600160a01b0316610b2961123e565b6001600160a01b03161415610b6f5760405162461bcd60e51b81526004018080602001828103825260248152602001806120e56024913960400191505060405180910390fd5b6001600160a01b03811660009081526005602052604090205460ff1615610bd25760076000610b9c61123e565b6001600160a01b03908116825260208083019390935260409182016000908120918516815292529020805460ff19169055610c19565b600160066000610be061123e565b6001600160a01b03908116825260208083019390935260409182016000908120918616815292529020805460ff19169115159190911790555b610c2161123e565b6001600160a01b0316816001600160a01b03167ff4caeb2d6ca8932a215a353d0703c326ec2d81fc68170f320eb2ab49e9df61f960405160405180910390a350565b60038054604080516020601f60026000196101006001881615020190951694909404938401819004810282018101909252828152606093909290918301828280156107b85780601f10610820576101008083540402835291602001916107b8565b610d26610ccf61123e565b610cd761123e565b868686868080601f01602080910402602001604051908101604052809392919081815260200183838082843760009201829052506040805160208101909152908152925060019150611a969050565b50505050565b60006001600160a01b038316610d89576040805162461bcd60e51b815260206004820181905260248201527f4552433737373a207472616e7366657220746f207a65726f2061646472657373604482015290519081900360640190fd5b6000610d9361123e565b9050610dc18182868660405180602001604052806000815250604051806020016040528060008152506112ff565b610ded818286866040518060200160405280600081525060405180602001604052806000815250611546565b61087381828686604051806020016040528060008152506040518060200160405280600081525060006117f6565b6000816001600160a01b0316836001600160a01b03161480610e8657506001600160a01b03831660009081526005602052604090205460ff168015610e8657506001600160a01b0380831660009081526007602090815260408083209387168352929052205460ff16155b80610eb657506001600160a01b0380831660009081526006602090815260408083209387168352929052205460ff165b9392505050565b6009546001600160a01b0316610ed161123e565b6001600160a01b031614610f165760405162461bcd60e51b81526004018080602001828103825260238152602001806121776023913960400191505060405180910390fd5b610f93610f2161123e565b878787878080601f01602080910402602001604051908101604052809392919081815260200183838082843760009201919091525050604080516020601f8b018190048102820181019092528981529250899150889081908401838280828437600092019190915250611b7792505050565b505050505050565b6001600160a01b03918216600090815260086020908152604080832093909416825291909152205490565b610fce61123e565b6001600160a01b0316816001600160a01b0316141561101e5760405162461bcd60e51b81526004018080602001828103825260218152602001806121096021913960400191505060405180910390fd5b6001600160a01b03811660009081526005602052604090205460ff161561108a5760016007600061104d61123e565b6001600160a01b03908116825260208083019390935260409182016000908120918616815292529020805460ff19169115159190911790556110c8565b6006600061109661123e565b6001600160a01b03908116825260208083019390935260409182016000908120918516815292529020805460ff191690555b6110d061123e565b6001600160a01b0316816001600160a01b03167f50546e66e5f44d728365dc3908c63bc5cfeeab470722c1677e3073a6ac294aa160405160405180910390a350565b61112361111d61123e565b87610e1b565b61115e5760405162461bcd60e51b81526004018080602001828103825260218152602001806121e56021913960400191505060405180910390fd5b610f9361116961123e565b878787878080601f01602080910402602001604051908101604052809392919081815260200183838082843760009201919091525050604080516020601f8b018190048102820181019092528981529250899150889081908401838280828437600092019190915250611da292505050565b6112396111e661123e565b6111ee61123e565b8585858080601f016020809104026020016040519081016040528093929190818152602001838380828437600092018290525060408051602081019091529081529250611da2915050565b505050565b3390565b6001600160a01b03821661129d576040805162461bcd60e51b815260206004820152601f60248201527f4552433737373a20617070726f766520746f207a65726f206164647265737300604482015290519081900360640190fd5b6001600160a01b03808416600081815260086020908152604080832094871680845294825291829020859055815185815291517f8c5be1e5ebec7d5bd14f71427d1e84f3dd0314c0f7b2291e5b200ac8c7c3b9259281900390910190a3505050565b6040805163555ddc6560e11b81526001600160a01b03871660048201527f29ddb589b1fb5fc7cf394961c1adf5f8c6454761adf795e67fe149f658abe89560248201529051600091731820a4b7618bde71dce8cdc73aab6c95905fad249163aabbb8ca91604480820192602092909190829003018186803b15801561138357600080fd5b505afa158015611397573d6000803e3d6000fd5b505050506040513d60208110156113ad57600080fd5b505190506001600160a01b03811615610af357806001600160a01b03166375ab97828888888888886040518763ffffffff1660e01b815260040180876001600160a01b03166001600160a01b03168152602001866001600160a01b03166001600160a01b03168152602001856001600160a01b03166001600160a01b031681526020018481526020018060200180602001838103835285818151815260200191508051906020019080838360005b8381101561147357818101518382015260200161145b565b50505050905090810190601f1680156114a05780820380516001836020036101000a031916815260200191505b50838103825284518152845160209182019186019080838360005b838110156114d35781810151838201526020016114bb565b50505050905090810190601f1680156115005780820380516001836020036101000a031916815260200191505b5098505050505050505050600060405180830381600087803b15801561152557600080fd5b505af1158015611539573d6000803e3d6000fd5b5050505050505050505050565b611589836040518060600160405280602781526020016120be602791396001600160a01b038816600090815260208190526040902054919063ffffffff61175f16565b6001600160a01b0380871660009081526020819052604080822093909355908616815220546115be908463ffffffff611fe516565b600080866001600160a01b03166001600160a01b0316815260200190815260200160002081905550836001600160a01b0316856001600160a01b0316876001600160a01b03167f06b541ddaa720db2b10a4d0cdac39b8d360425fc073085fac19bc82614677987868686604051808481526020018060200180602001838103835285818151815260200191508051906020019080838360005b8381101561166f578181015183820152602001611657565b50505050905090810190601f16801561169c5780820380516001836020036101000a031916815260200191505b50838103825284518152845160209182019186019080838360005b838110156116cf5781810151838201526020016116b7565b50505050905090810190601f1680156116fc5780820380516001836020036101000a031916815260200191505b509550505050505060405180910390a4836001600160a01b0316856001600160a01b03167fddf252ad1be2c89b69c2b068fc378daa952ba7f163c4a11628f55a4df523b3ef856040518082815260200191505060405180910390a3505050505050565b600081848411156117ee5760405162461bcd60e51b81526004018080602001828103825283818151815260200191508051906020019080838360005b838110156117b357818101518382015260200161179b565b50505050905090810190601f1680156117e05780820380516001836020036101000a031916815260200191505b509250505060405180910390fd5b505050900390565b6040805163555ddc6560e11b81526001600160a01b03871660048201527fb281fc8c12954d22544db45de3159a39272895b169a852b314f9cc762e44c53b60248201529051600091731820a4b7618bde71dce8cdc73aab6c95905fad249163aabbb8ca91604480820192602092909190829003018186803b15801561187a57600080fd5b505afa15801561188e573d6000803e3d6000fd5b505050506040513d60208110156118a457600080fd5b505190506001600160a01b03811615611a3857806001600160a01b03166223de298989898989896040518763ffffffff1660e01b815260040180876001600160a01b03166001600160a01b03168152602001866001600160a01b03166001600160a01b03168152602001856001600160a01b03166001600160a01b031681526020018481526020018060200180602001838103835285818151815260200191508051906020019080838360005b83811015611969578181015183820152602001611951565b50505050905090810190601f1680156119965780820380516001836020036101000a031916815260200191505b50838103825284518152845160209182019186019080838360005b838110156119c95781810151838201526020016119b1565b50505050905090810190601f1680156119f65780820380516001836020036101000a031916815260200191505b5098505050505050505050600060405180830381600087803b158015611a1b57600080fd5b505af1158015611a2f573d6000803e3d6000fd5b50505050611a8c565b8115611a8c57611a50866001600160a01b031661203f565b15611a8c5760405162461bcd60e51b815260040180806020018281038252604d81526020018061212a604d913960600191505060405180910390fd5b5050505050505050565b6001600160a01b038616611af1576040805162461bcd60e51b815260206004820152601e60248201527f4552433737373a2073656e642066726f6d207a65726f20616464726573730000604482015290519081900360640190fd5b6001600160a01b038516611b4c576040805162461bcd60e51b815260206004820152601c60248201527f4552433737373a2073656e6420746f207a65726f206164647265737300000000604482015290519081900360640190fd5b611b5a8787878787876112ff565b611b68878787878787611546565b610af3878787878787876117f6565b6001600160a01b038416611bd2576040805162461bcd60e51b815260206004820152601c60248201527f4552433737373a206d696e7420746f207a65726f206164647265737300000000604482015290519081900360640190fd5b600154611be5908463ffffffff611fe516565b6001556001600160a01b038416600090815260208190526040902054611c11908463ffffffff611fe516565b6001600160a01b038516600090815260208190526040812091909155611c3e9086908686868660016117f6565b836001600160a01b0316856001600160a01b03167f2fe5be0146f74c5bce36c0b80911af6c7d86ff27e89d5cfa61fc681327954e5d858585604051808481526020018060200180602001838103835285818151815260200191508051906020019080838360005b83811015611cbd578181015183820152602001611ca5565b50505050905090810190601f168015611cea5780820380516001836020036101000a031916815260200191505b50838103825284518152845160209182019186019080838360005b83811015611d1d578181015183820152602001611d05565b50505050905090810190601f168015611d4a5780820380516001836020036101000a031916815260200191505b509550505050505060405180910390a36040805184815290516001600160a01b038616916000917fddf252ad1be2c89b69c2b068fc378daa952ba7f163c4a11628f55a4df523b3ef9181900360200190a35050505050565b6001600160a01b038416611dfd576040805162461bcd60e51b815260206004820152601e60248201527f4552433737373a206275726e2066726f6d207a65726f20616464726573730000604482015290519081900360640190fd5b611e0c858560008686866112ff565b611e4f83604051806060016040528060238152602001612206602391396001600160a01b038716600090815260208190526040902054919063ffffffff61175f16565b6001600160a01b038516600090815260208190526040902055600154611e7b908463ffffffff61207b16565b600181905550836001600160a01b0316856001600160a01b03167fa78a9be3a7b862d26933ad85fb11d80ef66b8f972d7cbba06621d583943a4098858585604051808481526020018060200180602001838103835285818151815260200191508051906020019080838360005b83811015611f00578181015183820152602001611ee8565b50505050905090810190601f168015611f2d5780820380516001836020036101000a031916815260200191505b50838103825284518152845160209182019186019080838360005b83811015611f60578181015183820152602001611f48565b50505050905090810190601f168015611f8d5780820380516001836020036101000a031916815260200191505b509550505050505060405180910390a36040805184815290516000916001600160a01b038716917fddf252ad1be2c89b69c2b068fc378daa952ba7f163c4a11628f55a4df523b3ef9181900360200190a35050505050565b600082820183811015610eb6576040805162461bcd60e51b815260206004820152601b60248201527f536166654d6174683a206164646974696f6e206f766572666c6f770000000000604482015290519081900360640190fd5b6000813f7fc5d2460186f7233c927e7db2dcc703c0e500b653ca82273b7bfad8045d85a47081811480159061207357508115155b949350505050565b6000610eb683836040518060400160405280601e81526020017f536166654d6174683a207375627472616374696f6e206f766572666c6f77000081525061175f56fe4552433737373a207472616e7366657220616d6f756e7420657863656564732062616c616e63654552433737373a20617574686f72697a696e672073656c66206173206f70657261746f724552433737373a207265766f6b696e672073656c66206173206f70657261746f724552433737373a20746f6b656e20726563697069656e7420636f6e747261637420686173206e6f20696d706c656d656e74657220666f7220455243373737546f6b656e73526563697069656e7453696465546f6b656e3a2043616c6c6572206973206e6f7420746865206d696e7465724552433737373a207472616e7366657220616d6f756e74206578636565647320616c6c6f77616e63654552433737373a207472616e736665722066726f6d207a65726f20616464726573734552433737373a2063616c6c6572206973206e6f7420616e206f70657261746f724552433737373a206275726e20616d6f756e7420657863656564732062616c616e6365a265627a7a723158205a6a4f756e8e01edc71731b0c7bd89a4a7eab13159c23df300535723c9d0397b64736f6c6343000511003253696465546f6b656e3a204d696e7465722061646472657373206973206e756c6c",
  "source": "pragma solidity ^0.5.0;\n\nimport \"./zeppelin/token/ERC777/ERC777.sol\";\n\ncontract SideToken_v0 is ERC777 {\n    address public minter;\n\n    constructor(string memory _tokenName, string memory _tokenSymbol, address _minterAddr)\n    ERC777(_tokenName, _tokenSymbol, new address[](0)) public {\n        require(_minterAddr != address(0), \"SideToken: Minter address is null\");\n        minter = _minterAddr;\n    }\n\n    modifier onlyMinter() {\n        require(_msgSender() == minter, \"SideToken: Caller is not the minter\");\n        _;\n    }\n    function mint(\n        address account,\n        uint256 amount,\n        bytes calldata userData,\n        bytes calldata operatorData\n    )\n    external onlyMinter\n    {\n        _mint(_msgSender(), account, amount, userData, operatorData);\n    }\n\n}",
  "sourcePath": "/Users/pooh/sovryn/deploy_bridge/MAIN-Restore-RSK-ETH/Bridge-SC/sovryn-token-bridge/bridge/contracts/SideToken_v0.sol",
  "compiler": {
    "name": "solc",
    "version": "0.5.17+commit.d19bba13.Emscripten.clang"
  },
  "schemaVersion": "3.3.4",
  "updatedAt": "2021-05-22T14:21:15.112Z",
  "devdoc": {
    "methods": {
      "allowance(address,address)": {
        "details": "See {IERC20-allowance}.     * Note that operator and allowance concepts are orthogonal: operators may not have allowance, and accounts with allowance may not be operators themselves."
      },
      "approve(address,uint256)": {
        "details": "See {IERC20-approve}.     * Note that accounts cannot have allowance issued by their operators."
      },
      "authorizeOperator(address)": {
        "details": "See {IERC777-authorizeOperator}."
      },
      "balanceOf(address)": {
        "details": "Returns the amount of tokens owned by an account (`tokenHolder`)."
      },
      "burn(uint256,bytes)": {
        "details": "See {IERC777-burn}.     * Also emits a {Transfer} event for ERC20 compatibility."
      },
      "decimals()": {
        "details": "See {ERC20Detailed-decimals}.     * Always returns 18, as per the [ERC777 EIP](https://eips.ethereum.org/EIPS/eip-777#backward-compatibility)."
      },
      "defaultOperators()": {
        "details": "See {IERC777-defaultOperators}."
      },
      "granularity()": {
        "details": "See {IERC777-granularity}.     * This implementation always returns `1`."
      },
      "isOperatorFor(address,address)": {
        "details": "See {IERC777-isOperatorFor}."
      },
      "name()": {
        "details": "See {IERC777-name}."
      },
      "operatorBurn(address,uint256,bytes,bytes)": {
        "details": "See {IERC777-operatorBurn}.     * Emits {Burned} and {Transfer} events."
      },
      "operatorSend(address,address,uint256,bytes,bytes)": {
        "details": "See {IERC777-operatorSend}.     * Emits {Sent} and {Transfer} events."
      },
      "revokeOperator(address)": {
        "details": "See {IERC777-revokeOperator}."
      },
      "send(address,uint256,bytes)": {
        "details": "See {IERC777-send}.     * Also emits a {Transfer} event for ERC20 compatibility."
      },
      "symbol()": {
        "details": "See {IERC777-symbol}."
      },
      "totalSupply()": {
        "details": "See {IERC777-totalSupply}."
      },
      "transfer(address,uint256)": {
        "details": "See {IERC20-transfer}.     * Unlike `send`, `recipient` is _not_ required to implement the {IERC777Recipient} interface if it is a contract.     * Also emits a {Sent} event."
      },
      "transferFrom(address,address,uint256)": {
        "details": "See {IERC20-transferFrom}.    * Note that operator and allowance concepts are orthogonal: operators cannot call `transferFrom` (unless they have allowance), and accounts with allowance cannot call `operatorSend` (unless they are operators).    * Emits {Sent}, {Transfer} and {Approval} events."
      }
    }
  },
  "userdoc": {
    "methods": {}
  }
}