{
  "contractName": "SideTokenFactory_v0",
  "abi": [
    {
      "anonymous": false,
      "inputs": [
        {
          "indexed": false,
          "internalType": "address",
          "name": "recipient",
          "type": "address"
        }
      ],
      "name": "PrimaryTransferred",
      "type": "event"
    },
    {
      "anonymous": false,
      "inputs": [
        {
          "indexed": false,
          "internalType": "address",
          "name": "sideToken",
          "type": "address"
        },
        {
          "indexed": false,
          "internalType": "string",
          "name": "symbol",
          "type": "string"
        }
      ],
      "name": "createdSideToken",
      "type": "event"
    },
    {
      "constant": true,
      "inputs": [],
      "name": "primary",
      "outputs": [
        {
          "internalType": "address",
          "name": "",
          "type": "address"
        }
      ],
      "payable": false,
      "stateMutability": "view",
      "type": "function"
    },
    {
      "constant": false,
      "inputs": [
        {
          "internalType": "address",
          "name": "recipient",
          "type": "address"
        }
      ],
      "name": "transferPrimary",
      "outputs": [],
      "payable": false,
      "stateMutability": "nonpayable",
      "type": "function"
    },
    {
      "constant": false,
      "inputs": [
        {
          "internalType": "string",
          "name": "name",
          "type": "string"
        },
        {
          "internalType": "string",
          "name": "symbol",
          "type": "string"
        }
      ],
      "name": "createSideToken",
      "outputs": [
        {
          "internalType": "contract SideToken_v0",
          "name": "",
          "type": "address"
        }
      ],
      "payable": false,
      "stateMutability": "nonpayable",
      "type": "function"
    }
  ],
  "bytecode": "0x60806040526100126100da60201b60201c565b6000806101000a81548173ffffffffffffffffffffffffffffffffffffffff021916908373ffffffffffffffffffffffffffffffffffffffff1602179055507f4101e71e974f68df5e9730cc223280b41654676bbb052cdcc735c3337e64d2d96000809054906101000a900473ffffffffffffffffffffffffffffffffffffffff16604051808273ffffffffffffffffffffffffffffffffffffffff1673ffffffffffffffffffffffffffffffffffffffff16815260200191505060405180910390a16100e2565b600033905090565b614166806100f16000396000f3fe60806040523480156200001157600080fd5b5060043610620000465760003560e01c80632348238c146200004b578063bb3a39ee1462000092578063c6dbdf6114620001a9575b600080fd5b62000090600480360360208110156200006357600080fd5b81019080803573ffffffffffffffffffffffffffffffffffffffff169060200190929190505050620001f5565b005b6200016760048036036040811015620000aa57600080fd5b8101908080359060200190640100000000811115620000c857600080fd5b820183602082011115620000db57600080fd5b80359060200191846001830284011164010000000083111715620000fe57600080fd5b9091929391929390803590602001906401000000008111156200012057600080fd5b8201836020820111156200013357600080fd5b803590602001918460018302840111640100000000831117156200015657600080fd5b9091929391929390505050620003f4565b604051808273ffffffffffffffffffffffffffffffffffffffff1673ffffffffffffffffffffffffffffffffffffffff16815260200191505060405180910390f35b620001b362000621565b604051808273ffffffffffffffffffffffffffffffffffffffff1673ffffffffffffffffffffffffffffffffffffffff16815260200191505060405180910390f35b6000809054906101000a900473ffffffffffffffffffffffffffffffffffffffff1673ffffffffffffffffffffffffffffffffffffffff16620002376200064a565b73ffffffffffffffffffffffffffffffffffffffff1614620002a5576040517f08c379a000000000000000000000000000000000000000000000000000000000815260040180806020018281038252602c81526020018062004106602c913960400191505060405180910390fd5b600073ffffffffffffffffffffffffffffffffffffffff168173ffffffffffffffffffffffffffffffffffffffff1614156200032d576040517f08c379a000000000000000000000000000000000000000000000000000000000815260040180806020018281038252602a815260200180620040dc602a913960400191505060405180910390fd5b806000806101000a81548173ffffffffffffffffffffffffffffffffffffffff021916908373ffffffffffffffffffffffffffffffffffffffff1602179055507f4101e71e974f68df5e9730cc223280b41654676bbb052cdcc735c3337e64d2d96000809054906101000a900473ffffffffffffffffffffffffffffffffffffffff16604051808273ffffffffffffffffffffffffffffffffffffffff1673ffffffffffffffffffffffffffffffffffffffff16815260200191505060405180910390a150565b60008060009054906101000a900473ffffffffffffffffffffffffffffffffffffffff1673ffffffffffffffffffffffffffffffffffffffff16620004386200064a565b73ffffffffffffffffffffffffffffffffffffffff1614620004a6576040517f08c379a000000000000000000000000000000000000000000000000000000000815260040180806020018281038252602c81526020018062004106602c913960400191505060405180910390fd5b600085858585620004b662000621565b604051620004c49062000652565b8080602001806020018473ffffffffffffffffffffffffffffffffffffffff1673ffffffffffffffffffffffffffffffffffffffff1681526020018381038352888882818152602001925080828437600081840152601f19601f8201169050808301925050508381038252868682818152602001925080828437600081840152601f19601f820116905080830192505050975050505050505050604051809103906000f0801580156200057b573d6000803e3d6000fd5b5090507f1bb6712e2def197f4249d7cc11aa86fd67e97d4c502d7cf46271c3e9594197c4818585604051808473ffffffffffffffffffffffffffffffffffffffff1673ffffffffffffffffffffffffffffffffffffffff168152602001806020018281038252848482818152602001925080828437600081840152601f19601f82011690508083019250505094505050505060405180910390a180915050949350505050565b60008060009054906101000a900473ffffffffffffffffffffffffffffffffffffffff16905090565b600033905090565b613a7b80620006618339019056fe60806040523480156200001157600080fd5b5060405162003a7b38038062003a7b833981810160405260608110156200003757600080fd5b81019080805160405193929190846401000000008211156200005857600080fd5b838201915060208201858111156200006f57600080fd5b82518660018202830111640100000000821117156200008d57600080fd5b8083526020830192505050908051906020019080838360005b83811015620000c3578082015181840152602081019050620000a6565b50505050905090810190601f168015620000f15780820380516001836020036101000a031916815260200191505b50604052602001805160405193929190846401000000008211156200011557600080fd5b838201915060208201858111156200012c57600080fd5b82518660018202830111640100000000821117156200014a57600080fd5b8083526020830192505050908051906020019080838360005b838110156200018057808201518184015260208101905062000163565b50505050905090810190601f168015620001ae5780820380516001836020036101000a031916815260200191505b506040526020018051906020019092919050505082826000604051908082528060200260200182016040528015620001f55781602001602082028038833980820191505090505b5082600290805190602001906200020e92919062000605565b5081600390805190602001906200022792919062000605565b508060049080519060200190620002409291906200068c565b5060008090505b600480549050811015620002f357600160056000600484815481106200026957fe5b9060005260206000200160009054906101000a900473ffffffffffffffffffffffffffffffffffffffff1673ffffffffffffffffffffffffffffffffffffffff1673ffffffffffffffffffffffffffffffffffffffff16815260200190815260200160002060006101000a81548160ff021916908315150217905550808060010191505062000247565b50731820a4b7618bde71dce8cdc73aab6c95905fad2473ffffffffffffffffffffffffffffffffffffffff166329965a1d3060405180807f455243373737546f6b656e000000000000000000000000000000000000000000815250600b0190506040518091039020306040518463ffffffff1660e01b8152600401808473ffffffffffffffffffffffffffffffffffffffff1673ffffffffffffffffffffffffffffffffffffffff1681526020018381526020018273ffffffffffffffffffffffffffffffffffffffff1673ffffffffffffffffffffffffffffffffffffffff1681526020019350505050600060405180830381600087803b158015620003f957600080fd5b505af11580156200040e573d6000803e3d6000fd5b50505050731820a4b7618bde71dce8cdc73aab6c95905fad2473ffffffffffffffffffffffffffffffffffffffff166329965a1d3060405180807f4552433230546f6b656e00000000000000000000000000000000000000000000815250600a0190506040518091039020306040518463ffffffff1660e01b8152600401808473ffffffffffffffffffffffffffffffffffffffff1673ffffffffffffffffffffffffffffffffffffffff1681526020018381526020018273ffffffffffffffffffffffffffffffffffffffff1673ffffffffffffffffffffffffffffffffffffffff1681526020019350505050600060405180830381600087803b1580156200051757600080fd5b505af11580156200052c573d6000803e3d6000fd5b50505050505050600073ffffffffffffffffffffffffffffffffffffffff168173ffffffffffffffffffffffffffffffffffffffff161415620005bb576040517f08c379a000000000000000000000000000000000000000000000000000000000815260040180806020018281038252602181526020018062003a5a6021913960400191505060405180910390fd5b80600960006101000a81548173ffffffffffffffffffffffffffffffffffffffff021916908373ffffffffffffffffffffffffffffffffffffffff16021790555050505062000789565b828054600181600116156101000203166002900490600052602060002090601f016020900481019282601f106200064857805160ff191683800117855562000679565b8280016001018555821562000679579182015b82811115620006785782518255916020019190600101906200065b565b5b5090506200068891906200071b565b5090565b82805482825590600052602060002090810192821562000708579160200282015b82811115620007075782518260006101000a81548173ffffffffffffffffffffffffffffffffffffffff021916908373ffffffffffffffffffffffffffffffffffffffff16021790555091602001919060010190620006ad565b5b50905062000717919062000743565b5090565b6200074091905b808211156200073c57600081600090555060010162000722565b5090565b90565b6200078691905b808211156200078257600081816101000a81549073ffffffffffffffffffffffffffffffffffffffff0219169055506001016200074a565b5090565b90565b6132c180620007996000396000f3fe608060405234801561001057600080fd5b506004361061012c5760003560e01c8063959b8c3f116100ad578063dcdc7dd011610071578063dcdc7dd014610765578063dd62ed3e1461085d578063fad8b32a146108d5578063fc673c4f14610919578063fe9d930314610a115761012c565b8063959b8c3f1461051957806395d89b411461055d5780639bd9bbc6146105e0578063a9059cbb14610683578063d95b6371146106e95761012c565b806323b872dd116100f457806323b872dd146102e1578063313ce56714610367578063556f0dc71461038b57806362ad1b83146103a957806370a08231146104c15761012c565b806306e485381461013157806306fdde03146101905780630754617214610213578063095ea7b31461025d57806318160ddd146102c3575b600080fd5b610139610a94565b6040518080602001828103825283818151815260200191508051906020019060200280838360005b8381101561017c578082015181840152602081019050610161565b505050509050019250505060405180910390f35b610198610b22565b6040518080602001828103825283818151815260200191508051906020019080838360005b838110156101d85780820151818401526020810190506101bd565b50505050905090810190601f1680156102055780820380516001836020036101000a031916815260200191505b509250505060405180910390f35b61021b610bc4565b604051808273ffffffffffffffffffffffffffffffffffffffff1673ffffffffffffffffffffffffffffffffffffffff16815260200191505060405180910390f35b6102a96004803603604081101561027357600080fd5b81019080803573ffffffffffffffffffffffffffffffffffffffff16906020019092919080359060200190929190505050610bea565b604051808215151515815260200191505060405180910390f35b6102cb610c0d565b6040518082815260200191505060405180910390f35b61034d600480360360608110156102f757600080fd5b81019080803573ffffffffffffffffffffffffffffffffffffffff169060200190929190803573ffffffffffffffffffffffffffffffffffffffff16906020019092919080359060200190929190505050610c17565b604051808215151515815260200191505060405180910390f35b61036f610e92565b604051808260ff1660ff16815260200191505060405180910390f35b610393610e9b565b6040518082815260200191505060405180910390f35b6104bf600480360360a08110156103bf57600080fd5b81019080803573ffffffffffffffffffffffffffffffffffffffff169060200190929190803573ffffffffffffffffffffffffffffffffffffffff169060200190929190803590602001909291908035906020019064010000000081111561042657600080fd5b82018360208201111561043857600080fd5b8035906020019184600183028401116401000000008311171561045a57600080fd5b90919293919293908035906020019064010000000081111561047b57600080fd5b82018360208201111561048d57600080fd5b803590602001918460018302840111640100000000831117156104af57600080fd5b9091929391929390505050610ea4565b005b610503600480360360208110156104d757600080fd5b81019080803573ffffffffffffffffffffffffffffffffffffffff169060200190929190505050610fb2565b6040518082815260200191505060405180910390f35b61055b6004803603602081101561052f57600080fd5b81019080803573ffffffffffffffffffffffffffffffffffffffff169060200190929190505050610ffa565b005b610565611271565b6040518080602001828103825283818151815260200191508051906020019080838360005b838110156105a557808201518184015260208101905061058a565b50505050905090810190601f1680156105d25780820380516001836020036101000a031916815260200191505b509250505060405180910390f35b610681600480360360608110156105f657600080fd5b81019080803573ffffffffffffffffffffffffffffffffffffffff169060200190929190803590602001909291908035906020019064010000000081111561063d57600080fd5b82018360208201111561064f57600080fd5b8035906020019184600183028401116401000000008311171561067157600080fd5b9091929391929390505050611313565b005b6106cf6004803603604081101561069957600080fd5b81019080803573ffffffffffffffffffffffffffffffffffffffff1690602001909291908035906020019092919050505061138a565b604051808215151515815260200191505060405180910390f35b61074b600480360360408110156106ff57600080fd5b81019080803573ffffffffffffffffffffffffffffffffffffffff169060200190929190803573ffffffffffffffffffffffffffffffffffffffff1690602001909291905050506114cb565b604051808215151515815260200191505060405180910390f35b61085b6004803603608081101561077b57600080fd5b81019080803573ffffffffffffffffffffffffffffffffffffffff16906020019092919080359060200190929190803590602001906401000000008111156107c257600080fd5b8201836020820111156107d457600080fd5b803590602001918460018302840111640100000000831117156107f657600080fd5b90919293919293908035906020019064010000000081111561081757600080fd5b82018360208201111561082957600080fd5b8035906020019184600183028401116401000000008311171561084b57600080fd5b909192939192939050505061167c565b005b6108bf6004803603604081101561087357600080fd5b81019080803573ffffffffffffffffffffffffffffffffffffffff169060200190929190803573ffffffffffffffffffffffffffffffffffffffff1690602001909291905050506117cd565b6040518082815260200191505060405180910390f35b610917600480360360208110156108eb57600080fd5b81019080803573ffffffffffffffffffffffffffffffffffffffff169060200190929190505050611854565b005b610a0f6004803603608081101561092f57600080fd5b81019080803573ffffffffffffffffffffffffffffffffffffffff169060200190929190803590602001909291908035906020019064010000000081111561097657600080fd5b82018360208201111561098857600080fd5b803590602001918460018302840111640100000000831117156109aa57600080fd5b9091929391929390803590602001906401000000008111156109cb57600080fd5b8201836020820111156109dd57600080fd5b803590602001918460018302840111640100000000831117156109ff57600080fd5b9091929391929390505050611acb565b005b610a9260048036036040811015610a2757600080fd5b810190808035906020019092919080359060200190640100000000811115610a4e57600080fd5b820183602082011115610a6057600080fd5b80359060200191846001830284011164010000000083111715610a8257600080fd5b9091929391929390505050611bd5565b005b60606004805480602002602001604051908101604052809291908181526020018280548015610b1857602002820191906000526020600020905b8160009054906101000a900473ffffffffffffffffffffffffffffffffffffffff1673ffffffffffffffffffffffffffffffffffffffff1681526020019060010190808311610ace575b5050505050905090565b606060028054600181600116156101000203166002900480601f016020809104026020016040519081016040528092919081815260200182805460018160011615610100020316600290048015610bba5780601f10610b8f57610100808354040283529160200191610bba565b820191906000526020600020905b815481529060010190602001808311610b9d57829003601f168201915b5050505050905090565b600960009054906101000a900473ffffffffffffffffffffffffffffffffffffffff1681565b600080610bf5611c48565b9050610c02818585611c50565b600191505092915050565b6000600154905090565b60008073ffffffffffffffffffffffffffffffffffffffff168373ffffffffffffffffffffffffffffffffffffffff161415610cbb576040517f08c379a00000000000000000000000000000000000000000000000000000000081526004018080602001828103825260208152602001807f4552433737373a207472616e7366657220746f207a65726f206164647265737381525060200191505060405180910390fd5b600073ffffffffffffffffffffffffffffffffffffffff168473ffffffffffffffffffffffffffffffffffffffff161415610d41576040517f08c379a00000000000000000000000000000000000000000000000000000000081526004018080602001828103825260228152602001806132276022913960400191505060405180910390fd5b6000610d4b611c48565b9050610d79818686866040518060200160405280600081525060405180602001604052806000815250611dde565b610da58186868660405180602001604052806000815250604051806020016040528060008152506120f8565b610e588582610e53866040518060600160405280602981526020016131fe60299139600860008c73ffffffffffffffffffffffffffffffffffffffff1673ffffffffffffffffffffffffffffffffffffffff16815260200190815260200160002060008873ffffffffffffffffffffffffffffffffffffffff1673ffffffffffffffffffffffffffffffffffffffff168152602001908152602001600020546123fb9092919063ffffffff16565b611c50565b610e8681868686604051806020016040528060008152506040518060200160405280600081525060006124bb565b60019150509392505050565b60006012905090565b60006001905090565b610eb5610eaf611c48565b886114cb565b610f0a576040517f08c379a00000000000000000000000000000000000000000000000000000000081526004018080602001828103825260218152602001806132496021913960400191505060405180910390fd5b610fa9610f15611c48565b88888888888080601f016020809104026020016040519081016040528093929190818152602001838380828437600081840152601f19601f8201169050808301925050505050505087878080601f016020809104026020016040519081016040528093929190818152602001838380828437600081840152601f19601f820116905080830192505050505050506001612856565b50505050505050565b60008060008373ffffffffffffffffffffffffffffffffffffffff1673ffffffffffffffffffffffffffffffffffffffff168152602001908152602001600020549050919050565b8073ffffffffffffffffffffffffffffffffffffffff16611019611c48565b73ffffffffffffffffffffffffffffffffffffffff161415611086576040517f08c379a00000000000000000000000000000000000000000000000000000000081526004018080602001828103825260248152602001806131496024913960400191505060405180910390fd5b600560008273ffffffffffffffffffffffffffffffffffffffff1673ffffffffffffffffffffffffffffffffffffffff16815260200190815260200160002060009054906101000a900460ff161561117057600760006110e4611c48565b73ffffffffffffffffffffffffffffffffffffffff1673ffffffffffffffffffffffffffffffffffffffff16815260200190815260200160002060008273ffffffffffffffffffffffffffffffffffffffff1673ffffffffffffffffffffffffffffffffffffffff16815260200190815260200160002060006101000a81549060ff021916905561120d565b60016006600061117e611c48565b73ffffffffffffffffffffffffffffffffffffffff1673ffffffffffffffffffffffffffffffffffffffff16815260200190815260200160002060008373ffffffffffffffffffffffffffffffffffffffff1673ffffffffffffffffffffffffffffffffffffffff16815260200190815260200160002060006101000a81548160ff0219169083151502179055505b611215611c48565b73ffffffffffffffffffffffffffffffffffffffff168173ffffffffffffffffffffffffffffffffffffffff167ff4caeb2d6ca8932a215a353d0703c326ec2d81fc68170f320eb2ab49e9df61f960405160405180910390a350565b606060038054600181600116156101000203166002900480601f0160208091040260200160405190810160405280929190818152602001828054600181600116156101000203166002900480156113095780601f106112de57610100808354040283529160200191611309565b820191906000526020600020905b8154815290600101906020018083116112ec57829003601f168201915b5050505050905090565b61138461131e611c48565b611326611c48565b868686868080601f016020809104026020016040519081016040528093929190818152602001838380828437600081840152601f19601f82011690508083019250505050505050604051806020016040528060008152506001612856565b50505050565b60008073ffffffffffffffffffffffffffffffffffffffff168373ffffffffffffffffffffffffffffffffffffffff16141561142e576040517f08c379a00000000000000000000000000000000000000000000000000000000081526004018080602001828103825260208152602001807f4552433737373a207472616e7366657220746f207a65726f206164647265737381525060200191505060405180910390fd5b6000611438611c48565b9050611466818286866040518060200160405280600081525060405180602001604052806000815250611dde565b6114928182868660405180602001604052806000815250604051806020016040528060008152506120f8565b6114c081828686604051806020016040528060008152506040518060200160405280600081525060006124bb565b600191505092915050565b60008173ffffffffffffffffffffffffffffffffffffffff168373ffffffffffffffffffffffffffffffffffffffff1614806115e35750600560008473ffffffffffffffffffffffffffffffffffffffff1673ffffffffffffffffffffffffffffffffffffffff16815260200190815260200160002060009054906101000a900460ff1680156115e25750600760008373ffffffffffffffffffffffffffffffffffffffff1673ffffffffffffffffffffffffffffffffffffffff16815260200190815260200160002060008473ffffffffffffffffffffffffffffffffffffffff1673ffffffffffffffffffffffffffffffffffffffff16815260200190815260200160002060009054906101000a900460ff16155b5b806116745750600660008373ffffffffffffffffffffffffffffffffffffffff1673ffffffffffffffffffffffffffffffffffffffff16815260200190815260200160002060008473ffffffffffffffffffffffffffffffffffffffff1673ffffffffffffffffffffffffffffffffffffffff16815260200190815260200160002060009054906101000a900460ff165b905092915050565b600960009054906101000a900473ffffffffffffffffffffffffffffffffffffffff1673ffffffffffffffffffffffffffffffffffffffff166116bd611c48565b73ffffffffffffffffffffffffffffffffffffffff1614611729576040517f08c379a00000000000000000000000000000000000000000000000000000000081526004018080602001828103825260238152602001806131db6023913960400191505060405180910390fd5b6117c5611734611c48565b878787878080601f016020809104026020016040519081016040528093929190818152602001838380828437600081840152601f19601f8201169050808301925050505050505086868080601f016020809104026020016040519081016040528093929190818152602001838380828437600081840152601f19601f820116905080830192505050505050506129d0565b505050505050565b6000600860008473ffffffffffffffffffffffffffffffffffffffff1673ffffffffffffffffffffffffffffffffffffffff16815260200190815260200160002060008373ffffffffffffffffffffffffffffffffffffffff1673ffffffffffffffffffffffffffffffffffffffff16815260200190815260200160002054905092915050565b61185c611c48565b73ffffffffffffffffffffffffffffffffffffffff168173ffffffffffffffffffffffffffffffffffffffff1614156118e0576040517f08c379a000000000000000000000000000000000000000000000000000000000815260040180806020018281038252602181526020018061316d6021913960400191505060405180910390fd5b600560008273ffffffffffffffffffffffffffffffffffffffff1673ffffffffffffffffffffffffffffffffffffffff16815260200190815260200160002060009054906101000a900460ff16156119d357600160076000611940611c48565b73ffffffffffffffffffffffffffffffffffffffff1673ffffffffffffffffffffffffffffffffffffffff16815260200190815260200160002060008373ffffffffffffffffffffffffffffffffffffffff1673ffffffffffffffffffffffffffffffffffffffff16815260200190815260200160002060006101000a81548160ff021916908315150217905550611a67565b600660006119df611c48565b73ffffffffffffffffffffffffffffffffffffffff1673ffffffffffffffffffffffffffffffffffffffff16815260200190815260200160002060008273ffffffffffffffffffffffffffffffffffffffff1673ffffffffffffffffffffffffffffffffffffffff16815260200190815260200160002060006101000a81549060ff02191690555b611a6f611c48565b73ffffffffffffffffffffffffffffffffffffffff168173ffffffffffffffffffffffffffffffffffffffff167f50546e66e5f44d728365dc3908c63bc5cfeeab470722c1677e3073a6ac294aa160405160405180910390a350565b611adc611ad6611c48565b876114cb565b611b31576040517f08c379a00000000000000000000000000000000000000000000000000000000081526004018080602001828103825260218152602001806132496021913960400191505060405180910390fd5b611bcd611b3c611c48565b878787878080601f016020809104026020016040519081016040528093929190818152602001838380828437600081840152601f19601f8201169050808301925050505050505086868080601f016020809104026020016040519081016040528093929190818152602001838380828437600081840152601f19601f82011690508083019250505050505050612cde565b505050505050565b611c43611be0611c48565b611be8611c48565b8585858080601f016020809104026020016040519081016040528093929190818152602001838380828437600081840152601f19601f8201169050808301925050505050505060405180602001604052806000815250612cde565b505050565b600033905090565b600073ffffffffffffffffffffffffffffffffffffffff168273ffffffffffffffffffffffffffffffffffffffff161415611cf3576040517f08c379a000000000000000000000000000000000000000000000000000000000815260040180806020018281038252601f8152602001807f4552433737373a20617070726f766520746f207a65726f20616464726573730081525060200191505060405180910390fd5b80600860008573ffffffffffffffffffffffffffffffffffffffff1673ffffffffffffffffffffffffffffffffffffffff16815260200190815260200160002060008473ffffffffffffffffffffffffffffffffffffffff1673ffffffffffffffffffffffffffffffffffffffff168152602001908152602001600020819055508173ffffffffffffffffffffffffffffffffffffffff168373ffffffffffffffffffffffffffffffffffffffff167f8c5be1e5ebec7d5bd14f71427d1e84f3dd0314c0f7b2291e5b200ac8c7c3b925836040518082815260200191505060405180910390a3505050565b6000731820a4b7618bde71dce8cdc73aab6c95905fad2473ffffffffffffffffffffffffffffffffffffffff1663aabbb8ca877f29ddb589b1fb5fc7cf394961c1adf5f8c6454761adf795e67fe149f658abe89560001b6040518363ffffffff1660e01b8152600401808373ffffffffffffffffffffffffffffffffffffffff1673ffffffffffffffffffffffffffffffffffffffff1681526020018281526020019250505060206040518083038186803b158015611e9c57600080fd5b505afa158015611eb0573d6000803e3d6000fd5b505050506040513d6020811015611ec657600080fd5b81019080805190602001909291905050509050600073ffffffffffffffffffffffffffffffffffffffff168173ffffffffffffffffffffffffffffffffffffffff16146120ef578073ffffffffffffffffffffffffffffffffffffffff166375ab97828888888888886040518763ffffffff1660e01b8152600401808773ffffffffffffffffffffffffffffffffffffffff1673ffffffffffffffffffffffffffffffffffffffff1681526020018673ffffffffffffffffffffffffffffffffffffffff1673ffffffffffffffffffffffffffffffffffffffff1681526020018573ffffffffffffffffffffffffffffffffffffffff1673ffffffffffffffffffffffffffffffffffffffff1681526020018481526020018060200180602001838103835285818151815260200191508051906020019080838360005b8381101561201e578082015181840152602081019050612003565b50505050905090810190601f16801561204b5780820380516001836020036101000a031916815260200191505b50838103825284818151815260200191508051906020019080838360005b83811015612084578082015181840152602081019050612069565b50505050905090810190601f1680156120b15780820380516001836020036101000a031916815260200191505b5098505050505050505050600060405180830381600087803b1580156120d657600080fd5b505af11580156120ea573d6000803e3d6000fd5b505050505b50505050505050565b61216383604051806060016040528060278152602001613122602791396000808973ffffffffffffffffffffffffffffffffffffffff1673ffffffffffffffffffffffffffffffffffffffff168152602001908152602001600020546123fb9092919063ffffffff16565b6000808773ffffffffffffffffffffffffffffffffffffffff1673ffffffffffffffffffffffffffffffffffffffff168152602001908152602001600020819055506121f6836000808773ffffffffffffffffffffffffffffffffffffffff1673ffffffffffffffffffffffffffffffffffffffff1681526020019081526020016000205461300490919063ffffffff16565b6000808673ffffffffffffffffffffffffffffffffffffffff1673ffffffffffffffffffffffffffffffffffffffff168152602001908152602001600020819055508373ffffffffffffffffffffffffffffffffffffffff168573ffffffffffffffffffffffffffffffffffffffff168773ffffffffffffffffffffffffffffffffffffffff167f06b541ddaa720db2b10a4d0cdac39b8d360425fc073085fac19bc82614677987868686604051808481526020018060200180602001838103835285818151815260200191508051906020019080838360005b838110156122eb5780820151818401526020810190506122d0565b50505050905090810190601f1680156123185780820380516001836020036101000a031916815260200191505b50838103825284818151815260200191508051906020019080838360005b83811015612351578082015181840152602081019050612336565b50505050905090810190601f16801561237e5780820380516001836020036101000a031916815260200191505b509550505050505060405180910390a48373ffffffffffffffffffffffffffffffffffffffff168573ffffffffffffffffffffffffffffffffffffffff167fddf252ad1be2c89b69c2b068fc378daa952ba7f163c4a11628f55a4df523b3ef856040518082815260200191505060405180910390a3505050505050565b60008383111582906124a8576040517f08c379a00000000000000000000000000000000000000000000000000000000081526004018080602001828103825283818151815260200191508051906020019080838360005b8381101561246d578082015181840152602081019050612452565b50505050905090810190601f16801561249a5780820380516001836020036101000a031916815260200191505b509250505060405180910390fd5b5060008385039050809150509392505050565b6000731820a4b7618bde71dce8cdc73aab6c95905fad2473ffffffffffffffffffffffffffffffffffffffff1663aabbb8ca877fb281fc8c12954d22544db45de3159a39272895b169a852b314f9cc762e44c53b60001b6040518363ffffffff1660e01b8152600401808373ffffffffffffffffffffffffffffffffffffffff1673ffffffffffffffffffffffffffffffffffffffff1681526020018281526020019250505060206040518083038186803b15801561257957600080fd5b505afa15801561258d573d6000803e3d6000fd5b505050506040513d60208110156125a357600080fd5b81019080805190602001909291905050509050600073ffffffffffffffffffffffffffffffffffffffff168173ffffffffffffffffffffffffffffffffffffffff16146127cf578073ffffffffffffffffffffffffffffffffffffffff166223de298989898989896040518763ffffffff1660e01b8152600401808773ffffffffffffffffffffffffffffffffffffffff1673ffffffffffffffffffffffffffffffffffffffff1681526020018673ffffffffffffffffffffffffffffffffffffffff1673ffffffffffffffffffffffffffffffffffffffff1681526020018573ffffffffffffffffffffffffffffffffffffffff1673ffffffffffffffffffffffffffffffffffffffff1681526020018481526020018060200180602001838103835285818151815260200191508051906020019080838360005b838110156126fa5780820151818401526020810190506126df565b50505050905090810190601f1680156127275780820380516001836020036101000a031916815260200191505b50838103825284818151815260200191508051906020019080838360005b83811015612760578082015181840152602081019050612745565b50505050905090810190601f16801561278d5780820380516001836020036101000a031916815260200191505b5098505050505050505050600060405180830381600087803b1580156127b257600080fd5b505af11580156127c6573d6000803e3d6000fd5b5050505061284c565b811561284b576127f48673ffffffffffffffffffffffffffffffffffffffff1661308c565b1561284a576040517f08c379a000000000000000000000000000000000000000000000000000000000815260040180806020018281038252604d81526020018061318e604d913960600191505060405180910390fd5b5b5b5050505050505050565b600073ffffffffffffffffffffffffffffffffffffffff168673ffffffffffffffffffffffffffffffffffffffff1614156128f9576040517f08c379a000000000000000000000000000000000000000000000000000000000815260040180806020018281038252601e8152602001807f4552433737373a2073656e642066726f6d207a65726f2061646472657373000081525060200191505060405180910390fd5b600073ffffffffffffffffffffffffffffffffffffffff168573ffffffffffffffffffffffffffffffffffffffff16141561299c576040517f08c379a000000000000000000000000000000000000000000000000000000000815260040180806020018281038252601c8152602001807f4552433737373a2073656e6420746f207a65726f20616464726573730000000081525060200191505060405180910390fd5b6129aa878787878787611dde565b6129b88787878787876120f8565b6129c7878787878787876124bb565b50505050505050565b600073ffffffffffffffffffffffffffffffffffffffff168473ffffffffffffffffffffffffffffffffffffffff161415612a73576040517f08c379a000000000000000000000000000000000000000000000000000000000815260040180806020018281038252601c8152602001807f4552433737373a206d696e7420746f207a65726f20616464726573730000000081525060200191505060405180910390fd5b612a888360015461300490919063ffffffff16565b600181905550612adf836000808773ffffffffffffffffffffffffffffffffffffffff1673ffffffffffffffffffffffffffffffffffffffff1681526020019081526020016000205461300490919063ffffffff16565b6000808673ffffffffffffffffffffffffffffffffffffffff1673ffffffffffffffffffffffffffffffffffffffff16815260200190815260200160002081905550612b328560008686868660016124bb565b8373ffffffffffffffffffffffffffffffffffffffff168573ffffffffffffffffffffffffffffffffffffffff167f2fe5be0146f74c5bce36c0b80911af6c7d86ff27e89d5cfa61fc681327954e5d858585604051808481526020018060200180602001838103835285818151815260200191508051906020019080838360005b83811015612bce578082015181840152602081019050612bb3565b50505050905090810190601f168015612bfb5780820380516001836020036101000a031916815260200191505b50838103825284818151815260200191508051906020019080838360005b83811015612c34578082015181840152602081019050612c19565b50505050905090810190601f168015612c615780820380516001836020036101000a031916815260200191505b509550505050505060405180910390a38373ffffffffffffffffffffffffffffffffffffffff16600073ffffffffffffffffffffffffffffffffffffffff167fddf252ad1be2c89b69c2b068fc378daa952ba7f163c4a11628f55a4df523b3ef856040518082815260200191505060405180910390a35050505050565b600073ffffffffffffffffffffffffffffffffffffffff168473ffffffffffffffffffffffffffffffffffffffff161415612d81576040517f08c379a000000000000000000000000000000000000000000000000000000000815260040180806020018281038252601e8152602001807f4552433737373a206275726e2066726f6d207a65726f2061646472657373000081525060200191505060405180910390fd5b612d9085856000868686611dde565b612dfb8360405180606001604052806023815260200161326a602391396000808873ffffffffffffffffffffffffffffffffffffffff1673ffffffffffffffffffffffffffffffffffffffff168152602001908152602001600020546123fb9092919063ffffffff16565b6000808673ffffffffffffffffffffffffffffffffffffffff1673ffffffffffffffffffffffffffffffffffffffff16815260200190815260200160002081905550612e52836001546130d790919063ffffffff16565b6001819055508373ffffffffffffffffffffffffffffffffffffffff168573ffffffffffffffffffffffffffffffffffffffff167fa78a9be3a7b862d26933ad85fb11d80ef66b8f972d7cbba06621d583943a4098858585604051808481526020018060200180602001838103835285818151815260200191508051906020019080838360005b83811015612ef4578082015181840152602081019050612ed9565b50505050905090810190601f168015612f215780820380516001836020036101000a031916815260200191505b50838103825284818151815260200191508051906020019080838360005b83811015612f5a578082015181840152602081019050612f3f565b50505050905090810190601f168015612f875780820380516001836020036101000a031916815260200191505b509550505050505060405180910390a3600073ffffffffffffffffffffffffffffffffffffffff168473ffffffffffffffffffffffffffffffffffffffff167fddf252ad1be2c89b69c2b068fc378daa952ba7f163c4a11628f55a4df523b3ef856040518082815260200191505060405180910390a35050505050565b600080828401905083811015613082576040517f08c379a000000000000000000000000000000000000000000000000000000000815260040180806020018281038252601b8152602001807f536166654d6174683a206164646974696f6e206f766572666c6f77000000000081525060200191505060405180910390fd5b8091505092915050565b60008060007fc5d2460186f7233c927e7db2dcc703c0e500b653ca82273b7bfad8045d85a47060001b9050833f91508082141580156130ce57506000801b8214155b92505050919050565b600061311983836040518060400160405280601e81526020017f536166654d6174683a207375627472616374696f6e206f766572666c6f7700008152506123fb565b90509291505056fe4552433737373a207472616e7366657220616d6f756e7420657863656564732062616c616e63654552433737373a20617574686f72697a696e672073656c66206173206f70657261746f724552433737373a207265766f6b696e672073656c66206173206f70657261746f724552433737373a20746f6b656e20726563697069656e7420636f6e747261637420686173206e6f20696d706c656d656e74657220666f7220455243373737546f6b656e73526563697069656e7453696465546f6b656e3a2043616c6c6572206973206e6f7420746865206d696e7465724552433737373a207472616e7366657220616d6f756e74206578636565647320616c6c6f77616e63654552433737373a207472616e736665722066726f6d207a65726f20616464726573734552433737373a2063616c6c6572206973206e6f7420616e206f70657261746f724552433737373a206275726e20616d6f756e7420657863656564732062616c616e6365a265627a7a72315820b9253f543bc706c9be2b589c840e2b54ad113d6a0d4c65a355e1191d0ae9cab764736f6c6343000511003253696465546f6b656e3a204d696e7465722061646472657373206973206e756c6c5365636f6e646172793a206e6577207072696d61727920697320746865207a65726f20616464726573735365636f6e646172793a2063616c6c6572206973206e6f7420746865207072696d617279206163636f756e74a265627a7a72315820864cff915e40b5e560c6f30dfd0910f59f9356e4c90b0b067cd14f2aa6f2f51164736f6c63430005110032",
  "source": "pragma solidity ^0.5.0;\n\nimport \"./zeppelin/ownership/Secondary.sol\";\nimport \"./SideToken_v0.sol\";\n\ncontract SideTokenFactory_v0 is Secondary {\n    event createdSideToken(address sideToken, string symbol);\n\n    function createSideToken(string calldata name, string calldata symbol) external onlyPrimary returns(SideToken_v0) {\n        SideToken_v0 sideToken = new SideToken_v0(name, symbol, primary());\n        emit createdSideToken(address(sideToken), symbol);\n        return sideToken;\n    }\n}",
  "sourcePath": "/home/dmitriy/Code/Bridge-SC/sovryn-token-bridge/bridge/contracts/SideTokenFactory_v0.sol",
  "compiler": {
    "name": "solc",
    "version": "0.5.17+commit.d19bba13.Emscripten.clang"
  },
  "schemaVersion": "3.3.3",
  "updatedAt": "2021-04-08T08:56:12.539Z",
  "networkType": "ethereum",
  "devdoc": {
    "methods": {
      "primary()": {
        "return": "the address of the primary."
      },
      "transferPrimary(address)": {
        "details": "Transfers contract to a new primary.",
        "params": {
          "recipient": "The address of new primary."
        }
      }
    }
  },
  "userdoc": {
    "methods": {}
  }
}