{
  "contractName": "Utils",
  "abi": [
    {
      "constant": true,
      "inputs": [
        {
          "internalType": "address",
          "name": "tokenToUse",
          "type": "address"
        }
      ],
      "name": "getTokenInfo",
      "outputs": [
        {
          "internalType": "uint8",
          "name": "decimals",
          "type": "uint8"
        },
        {
          "internalType": "uint256",
          "name": "granularity",
          "type": "uint256"
        },
        {
          "internalType": "string",
          "name": "symbol",
          "type": "string"
        }
      ],
      "payable": false,
      "stateMutability": "view",
      "type": "function"
    },
    {
      "constant": true,
      "inputs": [
        {
          "internalType": "address",
          "name": "tokenToUse",
          "type": "address"
        }
      ],
      "name": "getSymbol",
      "outputs": [
        {
          "internalType": "string",
          "name": "symbol",
          "type": "string"
        }
      ],
      "payable": false,
      "stateMutability": "view",
      "type": "function"
    },
    {
      "constant": true,
      "inputs": [
        {
          "internalType": "address",
          "name": "tokenToUse",
          "type": "address"
        }
      ],
      "name": "getDecimals",
      "outputs": [
        {
          "internalType": "uint8",
          "name": "",
          "type": "uint8"
        }
      ],
      "payable": false,
      "stateMutability": "view",
      "type": "function"
    },
    {
      "constant": true,
      "inputs": [
        {
          "internalType": "address",
          "name": "tokenToUse",
          "type": "address"
        }
      ],
      "name": "getGranularity",
      "outputs": [
        {
          "internalType": "uint256",
          "name": "granularity",
          "type": "uint256"
        }
      ],
      "payable": false,
      "stateMutability": "view",
      "type": "function"
    },
    {
      "constant": true,
      "inputs": [
        {
          "internalType": "uint8",
          "name": "decimals",
          "type": "uint8"
        }
      ],
      "name": "decimalsToGranularity",
      "outputs": [
        {
          "internalType": "uint256",
          "name": "",
          "type": "uint256"
        }
      ],
      "payable": false,
      "stateMutability": "pure",
      "type": "function"
    },
    {
      "constant": true,
      "inputs": [
        {
          "internalType": "uint256",
          "name": "granularity",
          "type": "uint256"
        }
      ],
      "name": "granularityToDecimals",
      "outputs": [
        {
          "internalType": "uint8",
          "name": "",
          "type": "uint8"
        }
      ],
      "payable": false,
      "stateMutability": "pure",
      "type": "function"
    },
    {
      "constant": true,
      "inputs": [
        {
          "internalType": "uint8",
          "name": "decimals",
          "type": "uint8"
        },
        {
          "internalType": "uint256",
          "name": "granularity",
          "type": "uint256"
        },
        {
          "internalType": "uint256",
          "name": "amount",
          "type": "uint256"
        }
      ],
      "name": "calculateGranularityAndAmount",
      "outputs": [
        {
          "internalType": "uint256",
          "name": "calculatedGranularity",
          "type": "uint256"
        },
        {
          "internalType": "uint256",
          "name": "formattedAmount",
          "type": "uint256"
        }
      ],
      "payable": false,
      "stateMutability": "pure",
      "type": "function"
    },
    {
      "constant": true,
      "inputs": [
        {
          "internalType": "address",
          "name": "tokenAddress",
          "type": "address"
        },
        {
          "internalType": "uint256",
          "name": "granularity",
          "type": "uint256"
        },
        {
          "internalType": "uint256",
          "name": "amount",
          "type": "uint256"
        }
      ],
      "name": "calculateDecimalsAndAmount",
      "outputs": [
        {
          "internalType": "uint8",
          "name": "calculatedDecimals",
          "type": "uint8"
        },
        {
          "internalType": "uint256",
          "name": "formattedAmount",
          "type": "uint256"
        }
      ],
      "payable": false,
      "stateMutability": "view",
      "type": "function"
    }
  ],
  "bytecode": "0x611353610026600b82828239805160001a60731461001957fe5b30600052607381538281f3fe73000000000000000000000000000000000000000030146080604052600436106100925760003560e01c8063cf54aaa011610065578063cf54aaa0146102c5578063cffaec7e14610323578063db8a2e3c14610368578063dc98f6b7146103c857610092565b806305cbf8e51461009757806319bd2045146100ef5780631f69565f14610137578063c9b2e52214610208575b600080fd5b6100d9600480360360208110156100ad57600080fd5b81019080803573ffffffffffffffffffffffffffffffffffffffff169060200190929190505050610441565b6040518082815260200191505060405180910390f35b61011b6004803603602081101561010557600080fd5b810190808035906020019092919050505061060d565b604051808260ff1660ff16815260200191505060405180910390f35b6101796004803603602081101561014d57600080fd5b81019080803573ffffffffffffffffffffffffffffffffffffffff16906020019092919050505061081d565b604051808460ff1660ff16815260200183815260200180602001828103825283818151815260200191508051906020019080838360005b838110156101cb5780820151818401526020810190506101b0565b50505050905090810190601f1680156101f85780820380516001836020036101000a031916815260200191505b5094505050505060405180910390f35b61024a6004803603602081101561021e57600080fd5b81019080803573ffffffffffffffffffffffffffffffffffffffff16906020019092919050505061084a565b6040518080602001828103825283818151815260200191508051906020019080838360005b8381101561028a57808201518184015260208101905061026f565b50505050905090810190601f1680156102b75780820380516001836020036101000a031916815260200191505b509250505060405180910390f35b610307600480360360208110156102db57600080fd5b81019080803573ffffffffffffffffffffffffffffffffffffffff169060200190929190505050610b8d565b604051808260ff1660ff16815260200191505060405180910390f35b6103526004803603602081101561033957600080fd5b81019080803560ff169060200190929190505050610e5f565b6040518082815260200191505060405180910390f35b6103ab6004803603606081101561037e57600080fd5b81019080803560ff1690602001909291908035906020019092919080359060200190929190505050610eec565b604051808381526020018281526020019250505060405180910390f35b61041e600480360360608110156103de57600080fd5b81019080803573ffffffffffffffffffffffffffffffffffffffff1690602001909291908035906020019092919080359060200190929190505050610f2f565b604051808360ff1660ff1681526020018281526020019250505060405180910390f35b6000600190506000731820a4b7618bde71dce8cdc73aab6c95905fad2473ffffffffffffffffffffffffffffffffffffffff1663aabbb8ca847fac7fbab5f54a3ca8194167523c6753bfeb96a445279294b6125b68cce217705460001b6040518363ffffffff1660e01b8152600401808373ffffffffffffffffffffffffffffffffffffffff1673ffffffffffffffffffffffffffffffffffffffff1681526020018281526020019250505060206040518083038186803b15801561050557600080fd5b505afa158015610519573d6000803e3d6000fd5b505050506040513d602081101561052f57600080fd5b81019080805190602001909291905050509050600073ffffffffffffffffffffffffffffffffffffffff168173ffffffffffffffffffffffffffffffffffffffff1614610604578073ffffffffffffffffffffffffffffffffffffffff1663556f0dc76040518163ffffffff1660e01b815260040160206040518083038186803b1580156105bc57600080fd5b505afa1580156105d0573d6000803e3d6000fd5b505050506040513d60208110156105e657600080fd5b810190808051906020019092919050505091506106028261060d565b505b81915050919050565b600060018214156106215760129050610818565b600a8214156106335760119050610818565b60648214156106455760109050610818565b6103e882141561065857600f9050610818565b61271082141561066b57600e9050610818565b620186a082141561067f57600d9050610818565b620f424082141561069357600c9050610818565b629896808214156106a757600b9050610818565b6305f5e1008214156106bc57600a9050610818565b633b9aca008214156106d15760099050610818565b6402540be4008214156106e75760089050610818565b64174876e8008214156106fd5760079050610818565b64e8d4a510008214156107135760069050610818565b6509184e72a00082141561072a5760059050610818565b655af3107a40008214156107415760049050610818565b66038d7ea4c680008214156107595760039050610818565b662386f26fc100008214156107715760029050610818565b67016345785d8a000082141561078a5760019050610818565b670de0b6b3a76400008214156107a35760009050610818565b6000610817576040517f08c379a000000000000000000000000000000000000000000000000000000000815260040180806020018281038252601a8152602001807f5574696c733a20696e76616c6964206772616e756c617269747900000000000081525060200191505060405180910390fd5b5b919050565b600080606061082b84610b8d565b925061083684610441565b91506108418461084a565b90509193909250565b6060600060608373ffffffffffffffffffffffffffffffffffffffff166040516024016040516020818303038152906040527f95d89b41000000000000000000000000000000000000000000000000000000007bffffffffffffffffffffffffffffffffffffffffffffffffffffffff19166020820180517bffffffffffffffffffffffffffffffffffffffffffffffffffffffff83818316178352505050506040518082805190602001908083835b6020831061091d57805182526020820191506020810190506020830392506108fa565b6001836020036101000a038019825116818451168082178552505050505050905001915050600060405180830381855afa9150503d806000811461097d576040519150601f19603f3d011682016040523d82523d6000602084013e610982565b606091505b5091509150816109fa576040517f08c379a000000000000000000000000000000000000000000000000000000000815260040180806020018281038252601c8152602001807f5574696c733a20546f6b656e206861736e27742073796d626f6c28290000000081525060200191505060405180910390fd5b602081511415610a3957610a32818060200190516020811015610a1c57600080fd5b8101908080519060200190929190505050610fc6565b9250610b0c565b808060200190516020811015610a4e57600080fd5b8101908080516040519392919084640100000000821115610a6e57600080fd5b83820191506020820185811115610a8457600080fd5b8251866001820283011164010000000082111715610aa157600080fd5b8083526020830192505050908051906020019080838360005b83811015610ad5578082015181840152602081019050610aba565b50505050905090810190601f168015610b025780820380516001836020036101000a031916815260200191505b5060405250505092505b6000835111610b83576040517f08c379a00000000000000000000000000000000000000000000000000000000081526004018080602001828103825260198152602001807f5574696c733a20546f6b656e20656d7074792073796d626f6c0000000000000081525060200191505060405180910390fd5b8292505050919050565b60008060608373ffffffffffffffffffffffffffffffffffffffff166040516024016040516020818303038152906040527f313ce567000000000000000000000000000000000000000000000000000000007bffffffffffffffffffffffffffffffffffffffffffffffffffffffff19166020820180517bffffffffffffffffffffffffffffffffffffffffffffffffffffffff83818316178352505050506040518082805190602001908083835b60208310610c5f5780518252602082019150602081019050602083039250610c3c565b6001836020036101000a038019825116818451168082178552505050505050905001915050600060405180830381855afa9150503d8060008114610cbf576040519150601f19603f3d011682016040523d82523d6000602084013e610cc4565b606091505b509150915081610d3c576040517f08c379a00000000000000000000000000000000000000000000000000000000081526004018080602001828103825260128152602001807f5574696c733a204e6f20646563696d616c73000000000000000000000000000081525060200191505060405180910390fd5b6020815114610db3576040517f08c379a000000000000000000000000000000000000000000000000000000000815260040180806020018281038252601b8152602001807f5574696c733a20446563696d616c73206e6f742075696e743c4d3e000000000081525060200191505060405180910390fd5b6000818060200190516020811015610dca57600080fd5b810190808051906020019092919050505090506012811115610e54576040517f08c379a000000000000000000000000000000000000000000000000000000000815260040180806020018281038252601e8152602001807f5574696c733a20446563696d616c73206e6f7420696e203020746f203138000081525060200191505060405180910390fd5b809350505050919050565b600060128260ff161115610edb576040517f08c379a000000000000000000000000000000000000000000000000000000000815260040180806020018281038252601e8152602001807f5574696c733a20446563696d616c73206e6f7420696e203020746f203138000081525060200191505060405180910390fd5b8160120360ff16600a0a9050919050565b60008060128560ff161415610f0657839150829050610f27565b610f0f85610e5f565b9150610f24828461112390919063ffffffff16565b90505b935093915050565b6000806000610f3d86610b8d565b9050610f488561060d565b92508260ff168160ff1614610fa8576040517f08c379a00000000000000000000000000000000000000000000000000000000081526004018080602001828103825260448152602001806112ba6044913960600191505060405180910390fd5b610fbb85856111a990919063ffffffff16565b915050935093915050565b606060008090505b60208160ff161080156110195750600060f81b838260ff1660208110610ff057fe5b1a60f81b7effffffffffffffffffffffffffffffffffffffffffffffffffffffffffffff191614155b1561102b578080600101915050610fce565b60608160ff166040519080825280601f01601f1916602001820160405280156110635781602001600182028038833980820191505090505b509050600091505b60208260ff161080156110b65750600060f81b848360ff166020811061108d57fe5b1a60f81b7effffffffffffffffffffffffffffffffffffffffffffffffffffffffffffff191614155b1561111957838260ff16602081106110ca57fe5b1a60f81b818360ff16815181106110dd57fe5b60200101907effffffffffffffffffffffffffffffffffffffffffffffffffffffffffffff1916908160001a905350818060010192505061106b565b8092505050919050565b60008083141561113657600090506111a3565b600082840290508284828161114757fe5b041461119e576040517f08c379a00000000000000000000000000000000000000000000000000000000081526004018080602001828103825260218152602001806112fe6021913960400191505060405180910390fd5b809150505b92915050565b60006111eb83836040518060400160405280601a81526020017f536166654d6174683a206469766973696f6e206279207a65726f0000000000008152506111f3565b905092915050565b6000808311829061129f576040517f08c379a00000000000000000000000000000000000000000000000000000000081526004018080602001828103825283818151815260200191508051906020019080838360005b83811015611264578082015181840152602081019050611249565b50505050905090810190601f1680156112915780820380516001836020036101000a031916815260200191505b509250505060405180910390fd5b5060008385816112ab57fe5b04905080915050939250505056fe5574696c733a20546f6b656e20646563696d616c73206469666665722066726f6d20646563696d616c73206f627461696e65642066726f6d206772616e756c6172697479536166654d6174683a206d756c7469706c69636174696f6e206f766572666c6f77a265627a7a72315820b08dc6c98fee3185f344a2d6f11e4708fd3cf46b448121d3c49fbfe7dd6e386464736f6c63430005110032",
  "source": "pragma solidity ^0.5.0;\n\nimport \"./zeppelin/math/SafeMath.sol\";\nimport \"./zeppelin/introspection/IERC1820Registry.sol\";\nimport \"./zeppelin/token/ERC777/IERC777.sol\";\n\nlibrary Utils {\n    using SafeMath for uint256;\n\n    IERC1820Registry constant private _erc1820 = IERC1820Registry(0x1820a4B7618BdE71Dce8cdc73aAB6C95905faD24);\n    // keccak256(\"ERC777Token\")\n    bytes32 constant private TOKENS_ERC777_HASH = 0xac7fbab5f54a3ca8194167523c6753bfeb96a445279294b6125b68cce2177054;\n\n    function getTokenInfo(address tokenToUse) external view returns (uint8 decimals, uint256 granularity, string memory symbol) {\n        decimals = getDecimals(tokenToUse);\n        granularity = getGranularity(tokenToUse);\n        symbol = getSymbol(tokenToUse);\n    }\n\n    function getSymbol(address tokenToUse) public view returns (string memory symbol) {\n        //support 32 bytes or string symbol\n        (bool success, bytes memory data) = tokenToUse.staticcall(abi.encodeWithSignature(\"symbol()\"));\n        require(success, \"Utils: Token hasn't symbol()\");\n        if (data.length == 32) {\n            symbol = bytes32ToString(abi.decode(data, (bytes32)));\n        } else {\n            symbol = abi.decode(data, (string));\n        }\n        require(bytes(symbol).length > 0, \"Utils: Token empty symbol\");\n        return symbol;\n    }\n\n    function getDecimals(address tokenToUse) public view returns (uint8) {\n        //support decimals as uint256 or uint8\n        (bool success, bytes memory data) = tokenToUse.staticcall(abi.encodeWithSignature(\"decimals()\"));\n        require(success, \"Utils: No decimals\");\n        require(data.length == 32, \"Utils: Decimals not uint<M>\");\n        // uint<M>: enc(X) is the big-endian encoding of X,\n        //padded on the higher-order (left) side with zero-bytes such that the length is 32 bytes.\n        uint256 decimalsDecoded = abi.decode(data, (uint256));\n        require(decimalsDecoded <= 18, \"Utils: Decimals not in 0 to 18\");\n        return uint8(decimalsDecoded);\n    }\n\n    function getGranularity(address tokenToUse) public view returns (uint256 granularity) {\n        granularity = 1;\n        //support granularity if ERC777\n        address implementer = _erc1820.getInterfaceImplementer(tokenToUse, TOKENS_ERC777_HASH);\n        if (implementer != address(0)) {\n            granularity = IERC777(implementer).granularity();\n            //Verify granularity is power of 10 to keep it compatible with ERC20 decimals\n            granularityToDecimals(granularity);\n        }\n        return granularity;\n    }\n\n    /* bytes32 (fixed-size array) to string (dynamically-sized array) */\n    function bytes32ToString(bytes32 _bytes32) internal pure returns (string memory) {\n        uint8 i = 0;\n        while(i < 32 && _bytes32[i] != 0) {\n            i++;\n        }\n        bytes memory bytesArray = new bytes(i);\n        for (i = 0; i < 32 && _bytes32[i] != 0; i++) {\n            bytesArray[i] = _bytes32[i];\n        }\n        return string(bytesArray);\n    }\n\n    function decimalsToGranularity(uint8 decimals) public pure returns (uint256) {\n        require(decimals <= 18, \"Utils: Decimals not in 0 to 18\");\n        return uint256(10)**(18-decimals);\n    }\n\n    function granularityToDecimals(uint256 granularity) public pure returns (uint8) {\n        if(granularity == 1) return 18;\n        if(granularity == 10) return 17;\n        if(granularity == 100) return 16;\n        if(granularity == 1000) return 15;\n        if(granularity == 10000) return 14;\n        if(granularity == 100000) return 13;\n        if(granularity == 1000000) return 12;\n        if(granularity == 10000000) return 11;\n        if(granularity == 100000000) return 10;\n        if(granularity == 1000000000) return 9;\n        if(granularity == 10000000000) return 8;\n        if(granularity == 100000000000) return 7;\n        if(granularity == 1000000000000) return 6;\n        if(granularity == 10000000000000) return 5;\n        if(granularity == 100000000000000) return 4;\n        if(granularity == 1000000000000000) return 3;\n        if(granularity == 10000000000000000) return 2;\n        if(granularity == 100000000000000000) return 1;\n        if(granularity == 1000000000000000000) return 0;\n        require(false, \"Utils: invalid granularity\");\n    }\n\n    function calculateGranularityAndAmount(uint8 decimals, uint256 granularity, uint256 amount) external pure\n        returns(uint256 calculatedGranularity, uint256 formattedAmount) {\n\n        if(decimals == 18) {\n            //tokenAddress is a ERC20 with 18 decimals should have 1 granularity\n            //tokenAddress is a ERC777 token we give the same granularity\n            calculatedGranularity = granularity;\n            formattedAmount = amount;\n        } else {\n            //tokenAddress is a ERC20 with other than 18 decimals\n            calculatedGranularity = decimalsToGranularity(decimals);\n            formattedAmount = amount.mul(calculatedGranularity);\n        }\n    }\n\n    function calculateDecimalsAndAmount(address tokenAddress, uint256 granularity, uint256 amount)\n        external view returns (uint8 calculatedDecimals, uint256 formattedAmount) {\n        uint8 tokenDecimals = getDecimals(tokenAddress);\n        //As side tokens are ERC777 we need to convert granularity to decimals\n        calculatedDecimals = granularityToDecimals(granularity);\n        require(tokenDecimals == calculatedDecimals, \"Utils: Token decimals differ from decimals obtained from granularity\");\n        formattedAmount = amount.div(granularity);\n    }\n\n}\n",
  "sourcePath": "/Users/pooh/sovryn/deploy_bridge/upgrade-ropsten/Bridge-SC/sovryn-token-bridge/bridge/contracts/Utils.sol",
  "compiler": {
    "name": "solc",
    "version": "0.5.17+commit.d19bba13.Emscripten.clang"
  },
  "schemaVersion": "3.3.4",
  "updatedAt": "2021-05-05T21:47:07.469Z",
  "devdoc": {
    "methods": {}
  },
  "userdoc": {
    "methods": {}
  }
}