{
  "contractName": "Utils",
  "abi": [
    {
      "constant": true,
      "inputs": [
        {
          "internalType": "address",
          "name": "tokenToUse",
          "type": "address"
        }
      ],
      "name": "getTokenInfo",
      "outputs": [
        {
          "internalType": "uint8",
          "name": "decimals",
          "type": "uint8"
        },
        {
          "internalType": "uint256",
          "name": "granularity",
          "type": "uint256"
        },
        {
          "internalType": "string",
          "name": "symbol",
          "type": "string"
        }
      ],
      "payable": false,
      "stateMutability": "view",
      "type": "function"
    },
    {
      "constant": true,
      "inputs": [
        {
          "internalType": "address",
          "name": "tokenToUse",
          "type": "address"
        }
      ],
      "name": "getSymbol",
      "outputs": [
        {
          "internalType": "string",
          "name": "symbol",
          "type": "string"
        }
      ],
      "payable": false,
      "stateMutability": "view",
      "type": "function"
    },
    {
      "constant": true,
      "inputs": [
        {
          "internalType": "address",
          "name": "tokenToUse",
          "type": "address"
        }
      ],
      "name": "getDecimals",
      "outputs": [
        {
          "internalType": "uint8",
          "name": "",
          "type": "uint8"
        }
      ],
      "payable": false,
      "stateMutability": "view",
      "type": "function"
    },
    {
      "constant": true,
      "inputs": [
        {
          "internalType": "address",
          "name": "tokenToUse",
          "type": "address"
        }
      ],
      "name": "getGranularity",
      "outputs": [
        {
          "internalType": "uint256",
          "name": "granularity",
          "type": "uint256"
        }
      ],
      "payable": false,
      "stateMutability": "view",
      "type": "function"
    },
    {
      "constant": true,
      "inputs": [
        {
          "internalType": "uint8",
          "name": "decimals",
          "type": "uint8"
        }
      ],
      "name": "decimalsToGranularity",
      "outputs": [
        {
          "internalType": "uint256",
          "name": "",
          "type": "uint256"
        }
      ],
      "payable": false,
      "stateMutability": "pure",
      "type": "function"
    },
    {
      "constant": true,
      "inputs": [
        {
          "internalType": "uint256",
          "name": "granularity",
          "type": "uint256"
        }
      ],
      "name": "granularityToDecimals",
      "outputs": [
        {
          "internalType": "uint8",
          "name": "",
          "type": "uint8"
        }
      ],
      "payable": false,
      "stateMutability": "pure",
      "type": "function"
    },
    {
      "constant": true,
      "inputs": [
        {
          "internalType": "uint8",
          "name": "decimals",
          "type": "uint8"
        },
        {
          "internalType": "uint256",
          "name": "granularity",
          "type": "uint256"
        },
        {
          "internalType": "uint256",
          "name": "amount",
          "type": "uint256"
        }
      ],
      "name": "calculateGranularityAndAmount",
      "outputs": [
        {
          "internalType": "uint256",
          "name": "calculatedGranularity",
          "type": "uint256"
        },
        {
          "internalType": "uint256",
          "name": "formattedAmount",
          "type": "uint256"
        }
      ],
      "payable": false,
      "stateMutability": "pure",
      "type": "function"
    },
    {
      "constant": true,
      "inputs": [
        {
          "internalType": "address",
          "name": "tokenAddress",
          "type": "address"
        },
        {
          "internalType": "uint256",
          "name": "granularity",
          "type": "uint256"
        },
        {
          "internalType": "uint256",
          "name": "amount",
          "type": "uint256"
        }
      ],
      "name": "calculateDecimalsAndAmount",
      "outputs": [
        {
          "internalType": "uint8",
          "name": "calculatedDecimals",
          "type": "uint8"
        },
        {
          "internalType": "uint256",
          "name": "formattedAmount",
          "type": "uint256"
        }
      ],
      "payable": false,
      "stateMutability": "view",
      "type": "function"
    }
  ],
  "bytecode": "0x610eaf610026600b82828239805160001a60731461001957fe5b30600052607381538281f3fe73000000000000000000000000000000000000000030146080604052600436106100925760003560e01c8063cf54aaa011610065578063cf54aaa01461024f578063cffaec7e14610275578063db8a2e3c14610295578063dc98f6b7146102da57610092565b806305cbf8e51461009757806319bd2045146100cf5780631f69565f14610102578063c9b2e522146101b4575b600080fd5b6100bd600480360360208110156100ad57600080fd5b50356001600160a01b0316610329565b60408051918252519081900360200190f35b6100ec600480360360208110156100e557600080fd5b5035610465565b6040805160ff9092168252519081900360200190f35b6101286004803603602081101561011857600080fd5b50356001600160a01b0316610635565b604051808460ff1660ff16815260200183815260200180602001828103825283818151815260200191508051906020019080838360005b8381101561017757818101518382015260200161015f565b50505050905090810190601f1680156101a45780820380516001836020036101000a031916815260200191505b5094505050505060405180910390f35b6101da600480360360208110156101ca57600080fd5b50356001600160a01b0316610661565b6040805160208082528351818301528351919283929083019185019080838360005b838110156102145781810151838201526020016101fc565b50505050905090810190601f1680156102415780820380516001836020036101000a031916815260200191505b509250505060405180910390f35b6100ec6004803603602081101561026557600080fd5b50356001600160a01b03166108d4565b6100bd6004803603602081101561028b57600080fd5b503560ff16610abd565b6102c1600480360360608110156102ab57600080fd5b5060ff8135169060208101359060400135610b25565b6040805192835260208301919091528051918290030190f35b61030c600480360360608110156102f057600080fd5b506001600160a01b038135169060208101359060400135610b64565b6040805160ff909316835260208301919091528051918290030190f35b6040805163555ddc6560e11b81526001600160a01b03831660048201527fac7fbab5f54a3ca8194167523c6753bfeb96a445279294b6125b68cce217705460248201529051600191600091731820a4b7618bde71dce8cdc73aab6c95905fad249163aabbb8ca916044808301926020929190829003018186803b1580156103af57600080fd5b505afa1580156103c3573d6000803e3d6000fd5b505050506040513d60208110156103d957600080fd5b505190506001600160a01b0381161561045e57806001600160a01b031663556f0dc76040518163ffffffff1660e01b815260040160206040518083038186803b15801561042557600080fd5b505afa158015610439573d6000803e3d6000fd5b505050506040513d602081101561044f57600080fd5b5051915061045c82610465565b505b505b919050565b6000816001141561047857506012610460565b81600a141561048957506011610460565b816064141561049a57506010610460565b816103e814156104ac5750600f610460565b8161271014156104be5750600e610460565b81620186a014156104d15750600d610460565b81620f424014156104e45750600c610460565b816298968014156104f75750600b610460565b816305f5e100141561050b5750600a610460565b81633b9aca00141561051f57506009610460565b816402540be400141561053457506008610460565b8164174876e800141561054957506007610460565b8164e8d4a51000141561055e57506006610460565b816509184e72a000141561057457506005610460565b81655af3107a4000141561058a57506004610460565b8166038d7ea4c6800014156105a157506003610460565b81662386f26fc1000014156105b857506002610460565b8167016345785d8a000014156105d057506001610460565b81670de0b6b3a764000014156105e857506000610460565b6040805162461bcd60e51b815260206004820152601a60248201527f5574696c733a20696e76616c6964206772616e756c6172697479000000000000604482015290519081900360640190fd5b6000806060610643846108d4565b925061064e84610329565b915061065984610661565b929491935050565b60408051600481526024810182526020810180516001600160e01b03166395d89b4160e01b1781529151815160609360009385936001600160a01b03881693919290918291908083835b602083106106ca5780518252601f1990920191602091820191016106ab565b6001836020036101000a038019825116818451168082178552505050505050905001915050600060405180830381855afa9150503d806000811461072a576040519150601f19603f3d011682016040523d82523d6000602084013e61072f565b606091505b509150915081610786576040805162461bcd60e51b815260206004820152601c60248201527f5574696c733a20546f6b656e206861736e27742073796d626f6c282900000000604482015290519081900360640190fd5b8051602014156107b6576107af8180602001905160208110156107a857600080fd5b5051610bde565b925061087e565b8080602001905160208110156107cb57600080fd5b81019080805160405193929190846401000000008211156107eb57600080fd5b90830190602082018581111561080057600080fd5b825164010000000081118282018810171561081a57600080fd5b82525081516020918201929091019080838360005b8381101561084757818101518382015260200161082f565b50505050905090810190601f1680156108745780820380516001836020036101000a031916815260200191505b5060405250505092505b600083511161045c576040805162461bcd60e51b815260206004820152601960248201527f5574696c733a20546f6b656e20656d7074792073796d626f6c00000000000000604482015290519081900360640190fd5b60408051600481526024810182526020810180516001600160e01b031663313ce56760e01b1781529151815160009384936060936001600160a01b03881693919290918291908083835b6020831061093d5780518252601f19909201916020918201910161091e565b6001836020036101000a038019825116818451168082178552505050505050905001915050600060405180830381855afa9150503d806000811461099d576040519150601f19603f3d011682016040523d82523d6000602084013e6109a2565b606091505b5091509150816109ee576040805162461bcd60e51b81526020600482015260126024820152715574696c733a204e6f20646563696d616c7360701b604482015290519081900360640190fd5b8051602014610a44576040805162461bcd60e51b815260206004820152601b60248201527f5574696c733a20446563696d616c73206e6f742075696e743c4d3e0000000000604482015290519081900360640190fd5b6000818060200190516020811015610a5b57600080fd5b505190506012811115610ab5576040805162461bcd60e51b815260206004820152601e60248201527f5574696c733a20446563696d616c73206e6f7420696e203020746f2031380000604482015290519081900360640190fd5b949350505050565b600060128260ff161115610b18576040805162461bcd60e51b815260206004820152601e60248201527f5574696c733a20446563696d616c73206e6f7420696e203020746f2031380000604482015290519081900360640190fd5b5060120360ff16600a0a90565b6000808460ff1660121415610b3e575082905081610b5c565b610b4785610abd565b9150610b59838363ffffffff610cd416565b90505b935093915050565b6000806000610b72866108d4565b9050610b7d85610465565b92508260ff168160ff1614610bc35760405162461bcd60e51b8152600401808060200182810382526044815260200180610e166044913960600191505060405180910390fd5b610bd3848663ffffffff610d3616565b915050935093915050565b606060005b60208160ff16108015610c115750828160ff1660208110610c0057fe5b1a60f81b6001600160f81b03191615155b15610c1e57600101610be3565b60608160ff166040519080825280601f01601f191660200182016040528015610c4e576020820181803883390190505b509050600091505b60208260ff16108015610c845750838260ff1660208110610c7357fe5b1a60f81b6001600160f81b03191615155b15610ccd57838260ff1660208110610c9857fe5b1a60f81b818360ff1681518110610cab57fe5b60200101906001600160f81b031916908160001a905350600190910190610c56565b9392505050565b600082610ce357506000610d30565b82820282848281610cf057fe5b0414610d2d5760405162461bcd60e51b8152600401808060200182810382526021815260200180610e5a6021913960400191505060405180910390fd5b90505b92915050565b6000610d2d83836040518060400160405280601a81526020017f536166654d6174683a206469766973696f6e206279207a65726f00000000000081525060008183610dff5760405162461bcd60e51b81526004018080602001828103825283818151815260200191508051906020019080838360005b83811015610dc4578181015183820152602001610dac565b50505050905090810190601f168015610df15780820380516001836020036101000a031916815260200191505b509250505060405180910390fd5b506000838581610e0b57fe5b049594505050505056fe5574696c733a20546f6b656e20646563696d616c73206469666665722066726f6d20646563696d616c73206f627461696e65642066726f6d206772616e756c6172697479536166654d6174683a206d756c7469706c69636174696f6e206f766572666c6f77a265627a7a7231582042f658d03ab7a3587313dc93a356d5c458bfb2ef61741093ba67dfb25254747b64736f6c63430005110032",
  "source": "pragma solidity ^0.5.0;\n\nimport \"./zeppelin/math/SafeMath.sol\";\nimport \"./zeppelin/introspection/IERC1820Registry.sol\";\nimport \"./zeppelin/token/ERC777/IERC777.sol\";\n\nlibrary Utils {\n    using SafeMath for uint256;\n\n    IERC1820Registry constant private _erc1820 = IERC1820Registry(0x1820a4B7618BdE71Dce8cdc73aAB6C95905faD24);\n    // keccak256(\"ERC777Token\")\n    bytes32 constant private TOKENS_ERC777_HASH = 0xac7fbab5f54a3ca8194167523c6753bfeb96a445279294b6125b68cce2177054;\n\n    function getTokenInfo(address tokenToUse) external view returns (uint8 decimals, uint256 granularity, string memory symbol) {\n        decimals = getDecimals(tokenToUse);\n        granularity = getGranularity(tokenToUse);\n        symbol = getSymbol(tokenToUse);\n    }\n\n    function getSymbol(address tokenToUse) public view returns (string memory symbol) {\n        //support 32 bytes or string symbol\n        (bool success, bytes memory data) = tokenToUse.staticcall(abi.encodeWithSignature(\"symbol()\"));\n        require(success, \"Utils: Token hasn't symbol()\");\n        if (data.length == 32) {\n            symbol = bytes32ToString(abi.decode(data, (bytes32)));\n        } else {\n            symbol = abi.decode(data, (string));\n        }\n        require(bytes(symbol).length > 0, \"Utils: Token empty symbol\");\n        return symbol;\n    }\n\n    function getDecimals(address tokenToUse) public view returns (uint8) {\n        //support decimals as uint256 or uint8\n        (bool success, bytes memory data) = tokenToUse.staticcall(abi.encodeWithSignature(\"decimals()\"));\n        require(success, \"Utils: No decimals\");\n        require(data.length == 32, \"Utils: Decimals not uint<M>\");\n        // uint<M>: enc(X) is the big-endian encoding of X,\n        //padded on the higher-order (left) side with zero-bytes such that the length is 32 bytes.\n        uint256 decimalsDecoded = abi.decode(data, (uint256));\n        require(decimalsDecoded <= 18, \"Utils: Decimals not in 0 to 18\");\n        return uint8(decimalsDecoded);\n    }\n\n    function getGranularity(address tokenToUse) public view returns (uint256 granularity) {\n        granularity = 1;\n        //support granularity if ERC777\n        address implementer = _erc1820.getInterfaceImplementer(tokenToUse, TOKENS_ERC777_HASH);\n        if (implementer != address(0)) {\n            granularity = IERC777(implementer).granularity();\n            //Verify granularity is power of 10 to keep it compatible with ERC20 decimals\n            granularityToDecimals(granularity);\n        }\n        return granularity;\n    }\n\n    /* bytes32 (fixed-size array) to string (dynamically-sized array) */\n    function bytes32ToString(bytes32 _bytes32) internal pure returns (string memory) {\n        uint8 i = 0;\n        while(i < 32 && _bytes32[i] != 0) {\n            i++;\n        }\n        bytes memory bytesArray = new bytes(i);\n        for (i = 0; i < 32 && _bytes32[i] != 0; i++) {\n            bytesArray[i] = _bytes32[i];\n        }\n        return string(bytesArray);\n    }\n\n    function decimalsToGranularity(uint8 decimals) public pure returns (uint256) {\n        require(decimals <= 18, \"Utils: Decimals not in 0 to 18\");\n        return uint256(10)**(18-decimals);\n    }\n\n    function granularityToDecimals(uint256 granularity) public pure returns (uint8) {\n        if(granularity == 1) return 18;\n        if(granularity == 10) return 17;\n        if(granularity == 100) return 16;\n        if(granularity == 1000) return 15;\n        if(granularity == 10000) return 14;\n        if(granularity == 100000) return 13;\n        if(granularity == 1000000) return 12;\n        if(granularity == 10000000) return 11;\n        if(granularity == 100000000) return 10;\n        if(granularity == 1000000000) return 9;\n        if(granularity == 10000000000) return 8;\n        if(granularity == 100000000000) return 7;\n        if(granularity == 1000000000000) return 6;\n        if(granularity == 10000000000000) return 5;\n        if(granularity == 100000000000000) return 4;\n        if(granularity == 1000000000000000) return 3;\n        if(granularity == 10000000000000000) return 2;\n        if(granularity == 100000000000000000) return 1;\n        if(granularity == 1000000000000000000) return 0;\n        require(false, \"Utils: invalid granularity\");\n    }\n\n    function calculateGranularityAndAmount(uint8 decimals, uint256 granularity, uint256 amount) external pure\n        returns(uint256 calculatedGranularity, uint256 formattedAmount) {\n\n        if(decimals == 18) {\n            //tokenAddress is a ERC20 with 18 decimals should have 1 granularity\n            //tokenAddress is a ERC777 token we give the same granularity\n            calculatedGranularity = granularity;\n            formattedAmount = amount;\n        } else {\n            //tokenAddress is a ERC20 with other than 18 decimals\n            calculatedGranularity = decimalsToGranularity(decimals);\n            formattedAmount = amount.mul(calculatedGranularity);\n        }\n    }\n\n    function calculateDecimalsAndAmount(address tokenAddress, uint256 granularity, uint256 amount)\n        external view returns (uint8 calculatedDecimals, uint256 formattedAmount) {\n        uint8 tokenDecimals = getDecimals(tokenAddress);\n        //As side tokens are ERC777 we need to convert granularity to decimals\n        calculatedDecimals = granularityToDecimals(granularity);\n        require(tokenDecimals == calculatedDecimals, \"Utils: Token decimals differ from decimals obtained from granularity\");\n        formattedAmount = amount.div(granularity);\n    }\n\n}\n",
  "sourcePath": "/Users/pooh/sovryn/deploy_bridge/MAIN-ETH-RSK/Bridge-SC/sovryn-token-bridge/bridge/contracts/Utils.sol",
  "compiler": {
    "name": "solc",
    "version": "0.5.17+commit.d19bba13.Emscripten.clang"
  },
  "schemaVersion": "3.3.4",
  "updatedAt": "2021-05-22T15:50:10.486Z",
  "networkType": "ethereum",
  "devdoc": {
    "methods": {}
  },
  "userdoc": {
    "methods": {}
  }
}